{
	"data": {
		"bytecode": {
			"linkReferences": {
				"contracts/libraries/PackingUtils.sol": {
					"PackingUtils": [
						{
							"length": 20,
							"start": 2607
						}
					]
				},
				"contracts/libraries/TradeUtils.sol": {
					"TradeUtils": [
						{
							"length": 20,
							"start": 12041
						},
						{
							"length": 20,
							"start": 13277
						},
						{
							"length": 20,
							"start": 13418
						},
						{
							"length": 20,
							"start": 14318
						},
						{
							"length": 20,
							"start": 18224
						},
						{
							"length": 20,
							"start": 18360
						}
					]
				}
			},
			"object": "6101206040523480156200001257600080fd5b5060405162005eea38038062005eea833981016040819052620000359162000133565b6001600160a01b038716158015906200005657506001600160a01b03861615155b80156200006b57506001600160a01b03851615155b80156200008057506001600160a01b03841615155b80156200009557506001600160a01b03831615155b8015620000a25750600082115b8015620000af5750600081115b620000ef5760405162461bcd60e51b815260206004820152600c60248201526b57524f4e475f504152414d5360a01b604482015260640160405180910390fd5b6001600160601b0319606097881b811660805295871b861660a05293861b851660c05291851b841660e05290931b90911661010052600291909155600355620001df565b600080600080600080600060e0888a0312156200014f57600080fd5b87516200015c81620001c6565b60208901519097506200016f81620001c6565b60408901519096506200018281620001c6565b60608901519095506200019581620001c6565b6080890151909450620001a881620001c6565b8093505060a0880151915060c0880151905092959891949750929550565b6001600160a01b0381168114620001dc57600080fd5b50565b60805160601c60a05160601c60c05160601c60e05160601c6101005160601c615b05620003e5600039600081816102fd015261091801526000818161045a01526146d60152600081816101fe01528181610d6201528181610de001528181613e0f0152613ee301526000818161024c0152818161117901528181614238015281816147b8015261485b015260008181610225015281816104cc0152818161077e0152818161083f0152818161099501528181610c7b01528181610ee701528181610fcc015281816110fb01528181611243015281816113b201528181611553015281816115d30152818161168601528181611840015281816119df01528181611cee01528181611d9301528181611e3501528181611ee30152818161201001528181612160015281816122bb015281816123d40152818161258701528181612646015281816126f70152818161277e015281816128a301528181612a2d01528181612a8b01528181612c7f01528181612d3e01528181612efb01528181612f660152818161322e0152818161331201528181613370015281816135ce015281816136e20152818161379d01528181613845015281816138ed015281816139c201528181613a7001528181613feb015281816140a401528181614122015281816142af015281816145400152818161492b01528181614a400152614c620152615b056000f3fe608060405234801561001057600080fd5b50600436106101cf5760003560e01c8063934d1cf411610104578063b9b6573a116100a2578063ca5eb5e111610071578063ca5eb5e114610442578063d3dc753914610455578063d8defd151461047c578063fb4b71bb1461048f57600080fd5b8063b9b6573a146103e0578063be73fb99146103f3578063bffe348614610406578063c641558e1461042f57600080fd5b8063a2a3c0cb116100de578063a2a3c0cb146103a5578063ae8421e1146103b8578063b187bd26146103c0578063b81bfa05146103cd57600080fd5b8063934d1cf41461035f578063990382cf146103725780639a10cc321461038557600080fd5b8063410c0b7c116101715780636c53cc1c1161014b5780636c53cc1c1461031f5780638456cb5914610332578063876d3abd1461033a5780638f0622271461034d57600080fd5b8063410c0b7c146102dc5780634278bafe146102e5578063531cc965146102f857600080fd5b8063272300c9116101ad578063272300c914610247578063279a165c1461026e5780632c7c8f4e1461028557806336fb8b15146102b857600080fd5b8063119df25f146101d45780631346b0ff146101f957806316fff07414610220575b600080fd5b6101dc6104a2565b6040516001600160a01b0390911681526020015b60405180910390f35b6101dc7f000000000000000000000000000000000000000000000000000000000000000081565b6101dc7f000000000000000000000000000000000000000000000000000000000000000081565b6101dc7f000000000000000000000000000000000000000000000000000000000000000081565b61027760025481565b6040519081526020016101f0565b6102a8610293366004614ee7565b60056020526000908152604090205460ff1681565b60405190151581526020016101f0565b6102da33600090815260208190526040902080546001600160a01b0319169055565b005b61027760035481565b6102da6102f3366004614f21565b6104ca565b6101dc7f000000000000000000000000000000000000000000000000000000000000000081565b6102da61032d3660046153d4565b6105f7565b6102da611241565b6102da6103483660046153d4565b611350565b6004546102a890610100900460ff1681565b6102da61036d3660046153d4565b611684565b6102da6103803660046153d4565b6117de565b610398610393366004614f5a565b611b6f565b6040516101f091906156ff565b6102da6103b336600461545a565b611caa565b6102da6122b9565b6004546102a89060ff1681565b6102da6103db3660046153d4565b6123d2565b6102da6103ee36600461545a565b61252f565b6102da6104013660046154a0565b61283b565b6101dc610414366004614ee7565b6000602081905290815260409020546001600160a01b031681565b6102da61043d3660046154cc565b612bea565b6102da610450366004614ee7565b61315a565b6101dc7f000000000000000000000000000000000000000000000000000000000000000081565b6102da61048a3660046154a0565b6131c6565b6102da61049d366004615300565b6134ce565b6001546000906001600160a01b03166104ba57503390565b506001546001600160a01b031690565b7f00000000000000000000000000000000000000000000000000000000000000006001600160a01b03166312d43a516040518163ffffffff1660e01b815260040160206040518083038186803b15801561052357600080fd5b505afa158015610537573d6000803e3d6000fd5b505050506040513d601f19601f8201168201806040525081019061055b9190614f04565b6001600160a01b0316336001600160a01b0316146105945760405162461bcd60e51b815260040161058b90615774565b60405180910390fd5b6001600160a01b038216600081815260056020908152604091829020805460ff19168515159081179091558251938452908301527f3c0f648064e21cceb91d918a80bed80a58c69474a28d50fe3d9975b72be97c44910160405180910390a15050565b32331461060357600080fd5b600454610100900460ff161561062b5760405162461bcd60e51b815260040161058b90615756565b60405163cefbb3bd60e01b81526004810182905260009081908190819073__$0a787ca790b72760fa5f2fae68e461a66f$__9063cefbb3bd9060240160c06040518083038186803b15801561067f57600080fd5b505af4158015610693573d6000803e3d6000fd5b505050506040513d601f19601f820116820180604052508101906106b79190615406565b5050935093509350935060008460038111156106d5576106d5615a6d565b905060006106e58585858561473c565b905061074860405180610140016040528060006001600160a01b0316815260200160008152602001600081526020016000815260200160008152602001600081526020016000151581526020016000815260200160008152602001600081525090565b6000600384600381111561075e5761075e615a6d565b149050801561082857604051636e6f99cd60e11b81526001600160a01b037f0000000000000000000000000000000000000000000000000000000000000000169063dcdf339a906107b7908a908a908a9060040161566d565b60206040518083038186803b1580156107cf57600080fd5b505afa1580156107e3573d6000803e3d6000fd5b505050506040513d601f19601f820116820180604052508101906108079190614fdf565b6108235760405162461bcd60e51b815260040161058b90615734565b610c2f565b6040516351d407ff60e11b81526001600160a01b037f0000000000000000000000000000000000000000000000000000000000000000169063a3a80ffe90610878908a908a908a9060040161566d565b6101406040518083038186803b15801561089157600080fd5b505afa1580156108a5573d6000803e3d6000fd5b505050506040513d601f19601f820116820180604052508101906108c991906152dc565b915060008260e00151116108ef5760405162461bcd60e51b815260040161058b90615712565b600284600381111561090357610903615a6d565b1415610b7b57610120820151156108235760007f00000000000000000000000000000000000000000000000000000000000000006001600160a01b031663706faf3a6040518060e0016040528086600001516001600160a01b0316815260200186602001518152602001866040015181526020018660a0015181526020018660c00151151581526020016402540be4007f00000000000000000000000000000000000000000000000000000000000000006001600160a01b0316638c8ff1d589600001518a602001518b604001516040518463ffffffff1660e01b81526004016109ef9392919061566d565b60c06040518083038186803b158015610a0757600080fd5b505afa158015610a1b573d6000803e3d6000fd5b505050506040513d601f19601f82011682018060405250810190610a3f919061525c565b602001518860600151610a5291906159f1565b610a5c91906159cf565b815260e087810151602092830152604080519185901b6001600160e01b031916825283516001600160a01b031660048301529183015160248201529082015160448201526060820151606482015260808201511515608482015260a082015160a482015260c0919091015160c482015260e40160206040518083038186803b158015610ae757600080fd5b505afa158015610afb573d6000803e3d6000fd5b505050506040513d601f19601f82011682018060405250810190610b1f91906153ed565b90508260c00151610b37578261012001518110610b40565b82610120015181115b610b755760405162461bcd60e51b8152602060048201526006602482015265121054d7d4d360d21b604482015260640161058b565b50610c2f565b6001846003811115610b8f57610b8f615a6d565b141580610ba157506000826101200151115b610bd55760405162461bcd60e51b81526020600482015260056024820152641393d7d4d360da1b604482015260640161058b565b6000846003811115610be957610be9615a6d565b141580610bfb57506000826101000151115b610c2f5760405162461bcd60e51b815260206004820152600560248201526404e4f5f54560dc1b604482015260640161058b565b6000610c396104a2565b6001600160a01b03811660009081526005602052604081205491925060ff909116908315610ed557604051632e21e28b60e21b81526000906001600160a01b037f0000000000000000000000000000000000000000000000000000000000000000169063b8878a2c90610cb4908e908e908e9060040161566d565b6101a06040518083038186803b158015610ccd57600080fd5b505afa158015610ce1573d6000803e3d6000fd5b505050506040513d601f19601f82011682018060405250810190610d059190615126565b905060008160c001518260600151610d1d91906159f1565b602083015160a0840151604051633f54af9960e11b81526000600482018190526024820193909352901515604482015260648101839052919250906001600160a01b037f00000000000000000000000000000000000000000000000000000000000000001690637ea95f3290608401604080518083038186803b158015610da357600080fd5b505afa158015610db7573d6000803e3d6000fd5b505050506040513d601f19601f82011682018060405250810190610ddb919061547c565b5090507f00000000000000000000000000000000000000000000000000000000000000006001600160a01b03166380f6cfc26040518163ffffffff1660e01b815260040160206040518083038186803b158015610e3757600080fd5b505afa158015610e4b573d6000803e3d6000fd5b505050506040513d601f19601f82011682018060405250810190610e6f91906153ed565b60c0840151610e7e90836159f1565b1115610ec45760405162461bcd60e51b81526020600482015260156024820152740a0a492868abe929aa08286a8bea89e9ebe90928e9605b1b604482015260640161058b565b84610ecd578193505b505050610faf565b81610faf576402540be4008560e001517f00000000000000000000000000000000000000000000000000000000000000006001600160a01b0316638c8ff1d58d8d8d6040518463ffffffff1660e01b8152600401610f359392919061566d565b60c06040518083038186803b158015610f4d57600080fd5b505afa158015610f61573d6000803e3d6000fd5b505050506040513d601f19601f82011682018060405250810190610f85919061525c565b602001518760600151610f9891906159f1565b610fa291906159f1565b610fac91906159cf565b90505b801561103857604051633348540360e11b81526001600160a01b037f00000000000000000000000000000000000000000000000000000000000000001690636690a806906110059086908d90869060040161566d565b600060405180830381600087803b15801561101f57600080fd5b505af1158015611033573d6000803e3d6000fd5b505050505b6000611057858c8c8c8961104d576000611050565b60015b8d88614926565b905061108f6040805160c08101825260008082526020820181905291810182905260608101829052608081018290529060a082015290565b6001600160a01b038086168252600060208301528c166040820152606081018b9052608081018a905260a081018960038111156110ce576110ce615a6d565b908160038111156110e1576110e1615a6d565b90525060405163205fe86960e21b81526001600160a01b037f0000000000000000000000000000000000000000000000000000000000000000169063817fa1a490611132908490869060040161586c565b600060405180830381600087803b15801561114c57600080fd5b505af1158015611160573d6000803e3d6000fd5b505060405163e72353d560e01b81526001600160a01b037f000000000000000000000000000000000000000000000000000000000000000016925063e72353d591506111b0908b906004016158cc565b600060405180830381600087803b1580156111ca57600080fd5b505af11580156111de573d6000803e3d6000fd5b505050508a8c6001600160a01b03167f50a583b02839381dff332433f1a37825291992d796b87483d7c51649ef504d4384876040516112299291909182521515602082015260400190565b60405180910390a35050505050505050505050505050565b7f00000000000000000000000000000000000000000000000000000000000000006001600160a01b03166312d43a516040518163ffffffff1660e01b815260040160206040518083038186803b15801561129a57600080fd5b505afa1580156112ae573d6000803e3d6000fd5b505050506040513d601f19601f820116820180604052508101906112d29190614f04565b6001600160a01b0316336001600160a01b0316146113025760405162461bcd60e51b815260040161058b90615774565b6004805460ff8082161560ff1990921682179092556040519116151581527f0e2fb031ee032dc02d8011dc50b816eb450cf856abd8261680dac74f72165bd2906020015b60405180910390a1565b32331461135c57600080fd5b600454610100900460ff16156113845760405162461bcd60e51b815260040161058b90615756565b600061138e6104a2565b60405163b66e6b0560e01b8152600481018490529091506000906001600160a01b037f0000000000000000000000000000000000000000000000000000000000000000169063b66e6b05906024016101e06040518083038186803b1580156113f557600080fd5b505afa158015611409573d6000803e3d6000fd5b505050506040513d601f19601f8201168201806040525081019061142d91906151d9565b8051602082015191925090158015906114575750600354826020015161145391906159b7565b4310155b6114925760405162461bcd60e51b815260206004820152600c60248201526b15d0525517d512535153d55560a21b604482015260640161058b565b826001600160a01b031681600001516001600160a01b0316146114e85760405162461bcd60e51b815260206004820152600e60248201526d2727aa2faca7aaa92fa7a92222a960911b604482015260640161058b565b60008160e00151116115365760405162461bcd60e51b815260206004820152601760248201527657524f4e475f4d41524b45545f4f524445525f5459504560481b604482015260640161058b565b604051630195728b60e71b815260048101859052600160248201527f00000000000000000000000000000000000000000000000000000000000000006001600160a01b03169063cab9458090604401600060405180830381600087803b15801561159f57600080fd5b505af11580156115b3573d6000803e3d6000fd5b50505050608081015160405163373873db60e11b81526001600160a01b037f000000000000000000000000000000000000000000000000000000000000000081166004830181905290861660248301526044820192909252636e70e7b690606401600060405180830381600087803b15801561162e57600080fd5b505af1158015611642573d6000803e3d6000fd5b50505050837f3adaa586cdbe84dd24e45bd7dada6da933d7c2d1c7b4e4cd02fce033356decb1836040516116769190615836565b60405180910390a250505050565b7f00000000000000000000000000000000000000000000000000000000000000006001600160a01b03166312d43a516040518163ffffffff1660e01b815260040160206040518083038186803b1580156116dd57600080fd5b505afa1580156116f1573d6000803e3d6000fd5b505050506040513d601f19601f820116820180604052508101906117159190614f04565b6001600160a01b0316336001600160a01b0316146117455760405162461bcd60e51b815260040161058b90615774565b6000811161177f5760405162461bcd60e51b8152602060048201526007602482015266056414c55455f360cc1b604482015260640161058b565b600281905560408051818152600991810191909152686d6178506f7344616960b81b6060820152602081018290527f8cf3e35f6221b16e1670a3413180c9484bf5aa71787905909fa82a6a2662e9ab906080015b60405180910390a150565b3233146117ea57600080fd5b600454610100900460ff16156118125760405162461bcd60e51b815260040161058b90615756565b600061181c6104a2565b60405163b66e6b0560e01b8152600481018490529091506000906001600160a01b037f0000000000000000000000000000000000000000000000000000000000000000169063b66e6b05906024016101e06040518083038186803b15801561188357600080fd5b505afa158015611897573d6000803e3d6000fd5b505050506040513d601f19601f820116820180604052508101906118bb91906151d9565b8051602082015191925090158015906118e5575060035482602001516118e191906159b7565b4310155b6119205760405162461bcd60e51b815260206004820152600c60248201526b15d0525517d512535153d55560a21b604482015260640161058b565b826001600160a01b031681600001516001600160a01b0316146119765760405162461bcd60e51b815260206004820152600e60248201526d2727aa2faca7aaa92fa7a92222a960911b604482015260640161058b565b60e0810151156119c25760405162461bcd60e51b815260206004820152601760248201527657524f4e475f4d41524b45545f4f524445525f5459504560481b604482015260640161058b565b604051630195728b60e71b815260048101859052600060248201527f00000000000000000000000000000000000000000000000000000000000000006001600160a01b03169063cab9458090604401600060405180830381600087803b158015611a2b57600080fd5b505af1158015611a3f573d6000803e3d6000fd5b505050602082015160408084015190516024810192909252604482015260009150309060640160408051601f198184030181529181526020820180516001600160e01b031663a2a3c0cb60e01b17905251611a9a919061560d565b600060405180830381855af49150503d8060008114611ad5576040519150601f19603f3d011682016040523d82523d6000602084013e611ada565b606091505b5050905080611b30578160200151846001600160a01b03167f60e497734ddabcd7293fd91739aaf65cf525eb539c97be528125a235a89288d88460400151604051611b2791815260200190565b60405180910390a35b847f3adaa586cdbe84dd24e45bd7dada6da933d7c2d1c7b4e4cd02fce033356decb184604051611b609190615836565b60405180910390a25050505050565b6001600160a01b03838116600090815260208190526040902054606091163314611bd35760405162461bcd60e51b81526020600482015260156024820152741111531151d0551157d393d517d054141493d59151605a1b604482015260640161058b565b600180546001600160a01b0319166001600160a01b03861617905560405160009081903090611c0590879087906155fd565b600060405180830381855af49150503d8060008114611c40576040519150601f19603f3d011682016040523d82523d6000602084013e611c45565b606091505b509150915081611c9157604481511015611c5e57600080fd5b60048101905080806020019051810190611c789190614ffc565b60405162461bcd60e51b815260040161058b91906156ff565b600180546001600160a01b031916905595945050505050565b323314611cb657600080fd5b600454610100900460ff1615611cde5760405162461bcd60e51b815260040161058b90615756565b6000611ce86104a2565b905060007f00000000000000000000000000000000000000000000000000000000000000006001600160a01b031663a3a80ffe8386866040518463ffffffff1660e01b8152600401611d3c9392919061566d565b6101406040518083038186803b158015611d5557600080fd5b505afa158015611d69573d6000803e3d6000fd5b505050506040513d601f19601f82011682018060405250810190611d8d91906152dc565b905060007f00000000000000000000000000000000000000000000000000000000000000006001600160a01b0316638c8ff1d58487876040518463ffffffff1660e01b8152600401611de19392919061566d565b60c06040518083038186803b158015611df957600080fd5b505afa158015611e0d573d6000803e3d6000fd5b505050506040513d601f19601f82011682018060405250810190611e31919061525c565b90507f00000000000000000000000000000000000000000000000000000000000000006001600160a01b0316638049fde76040518163ffffffff1660e01b815260040160206040518083038186803b158015611e8c57600080fd5b505afa158015611ea0573d6000803e3d6000fd5b505050506040513d601f19601f82011682018060405250810190611ec491906153ed565b60405163f7b3c6fd60e01b81526001600160a01b0385811660048301527f0000000000000000000000000000000000000000000000000000000000000000169063f7b3c6fd9060240160206040518083038186803b158015611f2557600080fd5b505afa158015611f39573d6000803e3d6000fd5b505050506040513d601f19601f82011682018060405250810190611f5d91906153ed565b10611f9f5760405162461bcd60e51b81526020600482015260126024820152714d41585f50454e44494e475f4f524445525360701b604482015260640161058b565b8060a0015115611fe85760405162461bcd60e51b81526020600482015260146024820152731053149150511657d091525391d7d0d313d4d15160621b604482015260640161058b565b60008260e001511161200c5760405162461bcd60e51b815260040161058b90615712565b60007f00000000000000000000000000000000000000000000000000000000000000006001600160a01b0316633078fff56040518163ffffffff1660e01b815260040160206040518083038186803b15801561206757600080fd5b505afa15801561207b573d6000803e3d6000fd5b505050506040513d601f19601f8201168201806040525081019061209f9190614f04565b6001600160a01b0316636938c05d8760016402540be4008760e00151876020015189606001516120cf91906159f1565b6120d991906159f1565b6120e391906159cf565b6120eb614bc8565b6040518563ffffffff1660e01b815260040161210a949392919061590d565b602060405180830381600087803b15801561212457600080fd5b505af1158015612138573d6000803e3d6000fd5b505050506040513d601f19601f8201168201806040525081019061215c91906153ed565b90507f00000000000000000000000000000000000000000000000000000000000000006001600160a01b031663c76faf786040518060c00160405280604051806101400160405280896001600160a01b031681526020018b81526020018a81526020016000815260200160008152602001600081526020016000151581526020016000815260200160008152602001600081525081526020016000815260200160008152602001600081526020016000815260200160008152508360006040518463ffffffff1660e01b815260040161223793929190615845565b600060405180830381600087803b15801561225157600080fd5b505af1158015612265573d6000803e3d6000fd5b5050505085846001600160a01b0316827f3e544118c04e3bb18b669475695cd270ba0e41fb13177483f01c14222de62a8660006040516122a9911515815260200190565b60405180910390a4505050505050565b7f00000000000000000000000000000000000000000000000000000000000000006001600160a01b03166312d43a516040518163ffffffff1660e01b815260040160206040518083038186803b15801561231257600080fd5b505afa158015612326573d6000803e3d6000fd5b505050506040513d601f19601f8201168201806040525081019061234a9190614f04565b6001600160a01b0316336001600160a01b03161461237a5760405162461bcd60e51b815260040161058b90615774565b6004805460ff610100808304821615810261ff001990931692909217928390556040517fc3a6f986261de9467c2838c6df8ef74f9107855159205600c0bc7a14cdfd3888936113469390049091161515815260200190565b7f00000000000000000000000000000000000000000000000000000000000000006001600160a01b03166312d43a516040518163ffffffff1660e01b815260040160206040518083038186803b15801561242b57600080fd5b505afa15801561243f573d6000803e3d6000fd5b505050506040513d601f19601f820116820180604052508101906124639190614f04565b6001600160a01b0316336001600160a01b0316146124935760405162461bcd60e51b815260040161058b90615774565b600081116124cd5760405162461bcd60e51b8152602060048201526007602482015266056414c55455f360cc1b604482015260640161058b565b600381905560408051818152601391810191909152721b585c9ad95d13dc99195c9cd51a5b595bdd5d606a1b6060820152602081018290527f8cf3e35f6221b16e1670a3413180c9484bf5aa71787905909fa82a6a2662e9ab906080016117d3565b32331461253b57600080fd5b600454610100900460ff16156125635760405162461bcd60e51b815260040161058b90615756565b600061256d6104a2565b604051636e6f99cd60e11b81529091506001600160a01b037f0000000000000000000000000000000000000000000000000000000000000000169063dcdf339a906125c09084908790879060040161566d565b60206040518083038186803b1580156125d857600080fd5b505afa1580156125ec573d6000803e3d6000fd5b505050506040513d601f19601f820116820180604052508101906126109190614fdf565b61262c5760405162461bcd60e51b815260040161058b90615734565b604051632e21e28b60e21b81526000906001600160a01b037f0000000000000000000000000000000000000000000000000000000000000000169063b8878a2c9061267f9085908890889060040161566d565b6101a06040518083038186803b15801561269857600080fd5b505afa1580156126ac573d6000803e3d6000fd5b505050506040513d601f19601f820116820180604052508101906126d09190615126565b90506126df828585600361473c565b5060405163b4b0f56760e01b81526001600160a01b037f0000000000000000000000000000000000000000000000000000000000000000169063b4b0f567906127309085908890889060040161566d565b600060405180830381600087803b15801561274a57600080fd5b505af115801561275e573d6000803e3d6000fd5b50505050606081015160405163373873db60e11b81526001600160a01b037f000000000000000000000000000000000000000000000000000000000000000081166004830181905290851660248301526044820192909252636e70e7b690606401600060405180830381600087803b1580156127d957600080fd5b505af11580156127ed573d6000803e3d6000fd5b5050505083826001600160a01b03167ff1b38881d7f4b2b12141c5f39c5124545d6112532eb6afbe9630cdbde3ee53e98560405161282d91815260200190565b60405180910390a350505050565b32331461284757600080fd5b600454610100900460ff161561286f5760405162461bcd60e51b815260040161058b90615756565b60006128796104a2565b9050612888818585600161473c565b506040516351d407ff60e11b81526000906001600160a01b037f0000000000000000000000000000000000000000000000000000000000000000169063a3a80ffe906128dc9085908990899060040161566d565b6101406040518083038186803b1580156128f557600080fd5b505afa158015612909573d6000803e3d6000fd5b505050506040513d601f19601f8201168201806040525081019061292d91906152dc565b905060008160e00151116129535760405162461bcd60e51b815260040161058b90615712565b60008160e001516064604b8460a0015161296d91906159f1565b61297791906159cf565b61298191906159cf565b90508315806129c057508160c001516129ac57808260a001516129a491906159b7565b8411156129c0565b808260a001516129bc9190615a10565b8410155b6129f95760405162461bcd60e51b815260206004820152600a602482015269534c5f544f4f5f42494760b01b604482015260640161058b565b60405163a354418160e01b81526001600160a01b0384811660048301526024820188905260448201879052606482018690527f0000000000000000000000000000000000000000000000000000000000000000169063a354418190608401600060405180830381600087803b158015612a7157600080fd5b505af1158015612a85573d6000803e3d6000fd5b505050507f00000000000000000000000000000000000000000000000000000000000000006001600160a01b031662b127836040518163ffffffff1660e01b815260040160206040518083038186803b158015612ae157600080fd5b505afa158015612af5573d6000803e3d6000fd5b505050506040513d601f19601f82011682018060405250810190612b199190614f04565b6001600160a01b031673__$f600c6c046224cd62da9c8e7a0d00fc8b2$__63a6b8633d90918589896000612b4b614bc8565b6040518763ffffffff1660e01b8152600401612b6c96959493929190615629565b60006040518083038186803b158015612b8457600080fd5b505af4158015612b98573d6000803e3d6000fd5b505060408051888152602081018890528993506001600160a01b03871692507f1fc4a6c7ffe506697979b8ed54dc4135cd1ecd26a2745f70b760a2492222b316910160405180910390a3505050505050565b323314612bf657600080fd5b600454610100900460ff1615612c1e5760405162461bcd60e51b815260040161058b90615756565b60008411612c5b5760405162461bcd60e51b815260206004820152600a60248201526950524943455f5a45524f60b01b604482015260640161058b565b6000612c656104a2565b604051636e6f99cd60e11b81529091506001600160a01b037f0000000000000000000000000000000000000000000000000000000000000000169063dcdf339a90612cb89084908b908b9060040161566d565b60206040518083038186803b158015612cd057600080fd5b505afa158015612ce4573d6000803e3d6000fd5b505050506040513d601f19601f82011682018060405250810190612d089190614fdf565b612d245760405162461bcd60e51b815260040161058b90615734565b604051632e21e28b60e21b81526000906001600160a01b037f0000000000000000000000000000000000000000000000000000000000000000169063b8878a2c90612d779085908c908c9060040161566d565b6101a06040518083038186803b158015612d9057600080fd5b505afa158015612da4573d6000803e3d6000fd5b505050506040513d601f19601f82011682018060405250810190612dc89190615126565b9050841580612de757508060a00151612de357858510612de7565b8585115b612e1e5760405162461bcd60e51b8152602060048201526008602482015267057524f4e475f54560c41b604482015260640161058b565b831580612e3b57508060a00151612e3757858411612e3b565b8584105b612e725760405162461bcd60e51b815260206004820152600860248201526715d493d391d7d4d360c21b604482015260640161058b565b600019612e7f84886159f1565b10612eb75760405162461bcd60e51b81526020600482015260086024820152674f564552464c4f5760c01b604482015260640161058b565b612ec4828989600361473c565b506101208101869052610140810186905260e081018590526101008101849052604051635bb3b04560e11b81526001600160a01b037f0000000000000000000000000000000000000000000000000000000000000000169063b767608a90612f30908490600401615796565b600060405180830381600087803b158015612f4a57600080fd5b505af1158015612f5e573d6000803e3d6000fd5b5050505060007f00000000000000000000000000000000000000000000000000000000000000006001600160a01b031662b127836040518163ffffffff1660e01b815260040160206040518083038186803b158015612fbc57600080fd5b505afa158015612fd0573d6000803e3d6000fd5b505050506040513d601f19601f82011682018060405250810190612ff49190614f04565b905073__$f600c6c046224cd62da9c8e7a0d00fc8b2$__6395ecbbea6001600160a01b038316858c8c6001613027614bc8565b6040518763ffffffff1660e01b815260040161304896959493929190615629565b60006040518083038186803b15801561306057600080fd5b505af4158015613074573d6000803e3d6000fd5b50506040516325f40ef960e01b815273__$f600c6c046224cd62da9c8e7a0d00fc8b2$__92506325f40ef991506130c3906001600160a01b0385169087908e908e906001908c90600401615629565b60006040518083038186803b1580156130db57600080fd5b505af41580156130ef573d6000803e3d6000fd5b5050604080518b8152602081018b905290810189905260608101889052608081018790528b92506001600160a01b03861691507f710a8db87f04e82a9de40076812593a965f4aa48693196d2144c07ff9710e8909060a00160405180910390a3505050505050505050565b3233146131975760405162461bcd60e51b815260206004820152600b60248201526a1393d7d0d3d395149050d560aa1b604482015260640161058b565b33600090815260208190526040902080546001600160a01b0319166001600160a01b0392909216919091179055565b3233146131d257600080fd5b600454610100900460ff16156131fa5760405162461bcd60e51b815260040161058b90615756565b60006132046104a2565b9050613213818585600061473c565b506040516351d407ff60e11b81526000906001600160a01b037f0000000000000000000000000000000000000000000000000000000000000000169063a3a80ffe906132679085908990899060040161566d565b6101406040518083038186803b15801561328057600080fd5b505afa158015613294573d6000803e3d6000fd5b505050506040513d601f19601f820116820180604052508101906132b891906152dc565b905060008160e00151116132de5760405162461bcd60e51b815260040161058b90615712565b604051637fdb96f360e01b81526001600160a01b0383811660048301526024820187905260448201869052606482018590527f00000000000000000000000000000000000000000000000000000000000000001690637fdb96f390608401600060405180830381600087803b15801561335657600080fd5b505af115801561336a573d6000803e3d6000fd5b505050507f00000000000000000000000000000000000000000000000000000000000000006001600160a01b031662b127836040518163ffffffff1660e01b815260040160206040518083038186803b1580156133c657600080fd5b505afa1580156133da573d6000803e3d6000fd5b505050506040513d601f19601f820116820180604052508101906133fe9190614f04565b6001600160a01b031673__$f600c6c046224cd62da9c8e7a0d00fc8b2$__6339e765e490918488886000613430614bc8565b6040518763ffffffff1660e01b815260040161345196959493929190615629565b60006040518083038186803b15801561346957600080fd5b505af415801561347d573d6000803e3d6000fd5b505060408051878152602081018790528893506001600160a01b03861692507f7e06a81c7a47891ccc7455b5ccb2ed850e32bb655ccda67eb3ebaaeed83242a4910160405180910390a35050505050565b3233146134da57600080fd5b600454610100900460ff16156135025760405162461bcd60e51b815260040161058b90615756565b60045460ff161561353e5760405162461bcd60e51b815260206004820152600660248201526514105554d15160d21b604482015260640161058b565b600019828560a0015161355191906159f1565b106135895760405162461bcd60e51b81526020600482015260086024820152674f564552464c4f5760c01b604482015260640161058b565b60008460a00151116135ca5760405162461bcd60e51b815260206004820152600a60248201526950524943455f5a45524f60b01b604482015260640161058b565b60007f00000000000000000000000000000000000000000000000000000000000000006001600160a01b0316633078fff56040518163ffffffff1660e01b815260040160206040518083038186803b15801561362557600080fd5b505afa158015613639573d6000803e3d6000fd5b505050506040513d601f19601f8201168201806040525081019061365d9190614f04565b90506000816001600160a01b03166335b03c176040518163ffffffff1660e01b815260040160206040518083038186803b15801561369a57600080fd5b505afa1580156136ae573d6000803e3d6000fd5b505050506040513d601f19601f820116820180604052508101906136d29190614f04565b905060006136de6104a2565b90507f00000000000000000000000000000000000000000000000000000000000000006001600160a01b031663f65d9dbe6040518163ffffffff1660e01b815260040160206040518083038186803b15801561373957600080fd5b505afa15801561374d573d6000803e3d6000fd5b505050506040513d601f19601f8201168201806040525081019061377191906153ed565b6020880151604051634bf3ccad60e11b81526001600160a01b03848116600483015260248201929092527f0000000000000000000000000000000000000000000000000000000000000000909116906397e7995a9060440160206040518083038186803b1580156137e157600080fd5b505afa1580156137f5573d6000803e3d6000fd5b505050506040513d601f19601f8201168201806040525081019061381991906153ed565b6020890151604051639c8912f160e01b81526001600160a01b03858116600483015260248201929092527f000000000000000000000000000000000000000000000000000000000000000090911690639c8912f19060440160206040518083038186803b15801561388957600080fd5b505afa15801561389d573d6000803e3d6000fd5b505050506040513d601f19601f820116820180604052508101906138c191906153ed565b60208a01516040516307218dad60e21b81526001600160a01b03868116600483015260248201929092527f000000000000000000000000000000000000000000000000000000000000000090911690631c8636b49060440160206040518083038186803b15801561393157600080fd5b505afa158015613945573d6000803e3d6000fd5b505050506040513d601f19601f8201168201806040525081019061396991906153ed565b61397391906159b7565b61397d91906159b7565b106139c05760405162461bcd60e51b815260206004820152601360248201527226a0ac2faa2920a222a9afa822a92fa820a4a960691b604482015260640161058b565b7f00000000000000000000000000000000000000000000000000000000000000006001600160a01b0316638049fde76040518163ffffffff1660e01b815260040160206040518083038186803b158015613a1957600080fd5b505afa158015613a2d573d6000803e3d6000fd5b505050506040513d601f19601f82011682018060405250810190613a5191906153ed565b60405163f7b3c6fd60e01b81526001600160a01b0383811660048301527f0000000000000000000000000000000000000000000000000000000000000000169063f7b3c6fd9060240160206040518083038186803b158015613ab257600080fd5b505afa158015613ac6573d6000803e3d6000fd5b505050506040513d601f19601f82011682018060405250810190613aea91906153ed565b10613b2c5760405162461bcd60e51b81526020600482015260126024820152714d41585f50454e44494e475f4f524445525360701b604482015260640161058b565b60025487608001511115613b725760405162461bcd60e51b815260206004820152600d60248201526c41424f56455f4d41585f504f5360981b604482015260640161058b565b602087015160405163066c581160e11b815260048101919091526001600160a01b03831690630cd8b0229060240160206040518083038186803b158015613bb857600080fd5b505afa158015613bcc573d6000803e3d6000fd5b505050506040513d601f19601f82011682018060405250810190613bf091906153ed565b8760e001518860800151613c0491906159f1565b1015613c425760405162461bcd60e51b815260206004820152600d60248201526c42454c4f575f4d494e5f504f5360981b604482015260640161058b565b60008760e00151118015613cd75750602087015160405163059a992d60e41b815260048101919091526001600160a01b038316906359a992d09060240160206040518083038186803b158015613c9757600080fd5b505afa158015613cab573d6000803e3d6000fd5b505050506040513d601f19601f82011682018060405250810190613ccf91906153ed565b8760e0015110155b8015613cf45750613cec828860200151614c5d565b8760e0015111155b613d355760405162461bcd60e51b815260206004820152601260248201527113115591549051d157d25390d3d4949150d560721b604482015260640161058b565b6101008701511580613d6957508660c00151613d5c578660a0015187610100015110613d69565b8660a00151876101000151115b613da05760405162461bcd60e51b8152602060048201526008602482015267057524f4e475f54560c41b604482015260640161058b565b6101208701511580613dd457508660c00151613dc7578660a0015187610120015111613dd4565b8660a00151876101200151105b613e0b5760405162461bcd60e51b815260206004820152600860248201526715d493d391d7d4d360c21b604482015260640161058b565b60007f00000000000000000000000000000000000000000000000000000000000000006001600160a01b0316637ea95f3260008a602001518b60c001518c60e001518d60800151613e5c91906159f1565b6040516001600160e01b031960e087901b16815260048101949094526024840192909252151560448301526064820152608401604080518083038186803b158015613ea657600080fd5b505afa158015613eba573d6000803e3d6000fd5b505050506040513d601f19601f82011682018060405250810190613ede919061547c565b5090507f00000000000000000000000000000000000000000000000000000000000000006001600160a01b03166380f6cfc26040518163ffffffff1660e01b815260040160206040518083038186803b158015613f3a57600080fd5b505afa158015613f4e573d6000803e3d6000fd5b505050506040513d601f19601f82011682018060405250810190613f7291906153ed565b60e0890151613f8190836159f1565b1115613fc75760405162461bcd60e51b81526020600482015260156024820152740a0a492868abe929aa08286a8bea89e9ebe90928e9605b1b604482015260640161058b565b608088015160405163373873db60e11b81526001600160a01b0384811660048301527f000000000000000000000000000000000000000000000000000000000000000016602482018190526044820192909252636e70e7b690606401600060405180830381600087803b15801561403d57600080fd5b505af1158015614051573d6000803e3d6000fd5b506000925061405e915050565b87600281111561407057614070615a6d565b1461449757602088015160405163226a27ad60e11b81526001600160a01b03848116600483015260248201929092526000917f000000000000000000000000000000000000000000000000000000000000000016906344d44f5a9060440160206040518083038186803b1580156140e657600080fd5b505afa1580156140fa573d6000803e3d6000fd5b505050506040513d601f19601f8201168201806040525081019061411e91906153ed565b90507f00000000000000000000000000000000000000000000000000000000000000006001600160a01b031663d3b5fe70604051806101a00160405280866001600160a01b031681526020018c6020015181526020018481526020018c608001518152602001600081526020018c60c00151151581526020018c60e0015181526020018c610100015181526020018c610120015181526020018c60a0015181526020018c60a00151815260200143815260200160008152506040518263ffffffff1660e01b81526004016141f29190615796565b600060405180830381600087803b15801561420c57600080fd5b505af1158015614220573d6000803e3d6000fd5b505050506020890151604051630ec5706160e41b81527f00000000000000000000000000000000000000000000000000000000000000006001600160a01b03169163ec5706109161427991879186908e9060040161568e565b600060405180830381600087803b15801561429357600080fd5b505af11580156142a7573d6000803e3d6000fd5b5050505060007f00000000000000000000000000000000000000000000000000000000000000006001600160a01b031662b127836040518163ffffffff1660e01b815260040160206040518083038186803b15801561430557600080fd5b505afa158015614319573d6000803e3d6000fd5b505050506040513d601f19601f8201168201806040525081019061433d9190614f04565b9050806001600160a01b031673__$f600c6c046224cd62da9c8e7a0d00fc8b2$__6395ecbbea9091868d60200151866001614376614bc8565b6040518763ffffffff1660e01b815260040161439796959493929190615629565b60006040518083038186803b1580156143af57600080fd5b505af41580156143c3573d6000803e3d6000fd5b50505050806001600160a01b031673__$f600c6c046224cd62da9c8e7a0d00fc8b2$__6325f40ef99091868d602001518660018e6040518763ffffffff1660e01b815260040161441896959493929190615629565b60006040518083038186803b15801561443057600080fd5b505af4158015614444573d6000803e3d6000fd5b505050508960200151846001600160a01b03167fdfabd6f206f17b7f2e1f9e0d33c40d30d1e8d7b6a4f520a03fdc1c18110593438460405161448891815260200190565b60405180910390a350506146af565b6000846001600160a01b0316636938c05d8a6020015160008c60e001518d608001516144c391906159f1565b6144cb614bc8565b6040518563ffffffff1660e01b81526004016144ea949392919061590d565b602060405180830381600087803b15801561450457600080fd5b505af1158015614518573d6000803e3d6000fd5b505050506040513d601f19601f8201168201806040525081019061453c91906153ed565b90507f00000000000000000000000000000000000000000000000000000000000000006001600160a01b031663c76faf786040518060c00160405280604051806101400160405280886001600160a01b031681526020018e60200151815260200160008152602001600081526020018e608001518152602001600081526020018e60c00151151581526020018e60e0015181526020018e610100015181526020018e61012001518152508152602001600081526020018c60a0015181526020018a81526020016000815260200160008152508360016040518463ffffffff1660e01b815260040161462f93929190615845565b600060405180830381600087803b15801561464957600080fd5b505af115801561465d573d6000803e3d6000fd5b505050508860200151836001600160a01b0316827f3e544118c04e3bb18b669475695cd270ba0e41fb13177483f01c14222de62a8660016040516146a5911515815260200190565b60405180910390a4505b6040516326e2ada160e21b81526001600160a01b03838116600483015286811660248301527f00000000000000000000000000000000000000000000000000000000000000001690639b8ab68490604401600060405180830381600087803b15801561471a57600080fd5b505af115801561472e573d6000803e3d6000fd5b505050505050505050505050565b6147646040805160808101825260008082526020820181905291810182905290606082015290565b6040518060800160405280866001600160a01b0316815260200185815260200184815260200183600381111561479c5761479c615a6d565b905260405163108c3d4960e11b81529091506001600160a01b037f000000000000000000000000000000000000000000000000000000000000000016906321187a92906147ed9084906004016158cc565b60206040518083038186803b15801561480557600080fd5b505afa158015614819573d6000803e3d6000fd5b505050506040513d601f19601f8201168201806040525081019061483d9190614fdf565b15806148e05750604051633f1b72bf60e21b81526001600160a01b037f0000000000000000000000000000000000000000000000000000000000000000169063fc6dcafc906148909084906004016158cc565b60206040518083038186803b1580156148a857600080fd5b505afa1580156148bc573d6000803e3d6000fd5b505050506040513d601f19601f820116820180604052508101906148e09190614fdf565b61491e5760405162461bcd60e51b815260206004820152600f60248201526e2822a72224a723afaa2924a3a3a2a960891b604482015260640161058b565b949350505050565b6000807f00000000000000000000000000000000000000000000000000000000000000006001600160a01b031662b127836040518163ffffffff1660e01b815260040160206040518083038186803b15801561498157600080fd5b505afa158015614995573d6000803e3d6000fd5b505050506040513d601f19601f820116820180604052508101906149b99190614f04565b6001600160a01b0316639bd24d83898989896040518563ffffffff1660e01b81526004016149ea94939291906156cb565b60806040518083038186803b158015614a0257600080fd5b505afa158015614a16573d6000803e3d6000fd5b505050506040513d601f19601f82011682018060405250810190614a3a91906150a9565b905060007f00000000000000000000000000000000000000000000000000000000000000006001600160a01b0316633078fff56040518163ffffffff1660e01b815260040160206040518083038186803b158015614a9757600080fd5b505afa158015614aab573d6000803e3d6000fd5b505050506040513d601f19601f82011682018060405250810190614acf9190614f04565b9050806001600160a01b0316636938c05d898c614aed576003614af0565b60025b878e614b435760018a6003811115614b0a57614b0a615a6d565b14614b395760008a6003811115614b2357614b23615a6d565b14614b32578660600151614b49565b8651614b49565b8660200151614b49565b86604001515b6040518563ffffffff1660e01b8152600401614b689493929190615938565b602060405180830381600087803b158015614b8257600080fd5b505af1158015614b96573d6000803e3d6000fd5b505050506040513d601f19601f82011682018060405250810190614bba91906153ed565b9a9950505050505050505050565b600061a4b1461480614bdc575062066eed46145b15614c585760646001600160a01b031663a3b1b31d6040518163ffffffff1660e01b815260040160206040518083038186803b158015614c1b57600080fd5b505afa158015614c2f573d6000803e3d6000fd5b505050506040513d601f19601f82011682018060405250810190614c5391906153ed565b905090565b504390565b6000807f00000000000000000000000000000000000000000000000000000000000000006001600160a01b031662b127836040518163ffffffff1660e01b815260040160206040518083038186803b158015614cb857600080fd5b505afa158015614ccc573d6000803e3d6000fd5b505050506040513d601f19601f82011682018060405250810190614cf09190614f04565b6001600160a01b031663281b693c846040518263ffffffff1660e01b8152600401614d1d91815260200190565b60206040518083038186803b158015614d3557600080fd5b505afa158015614d49573d6000803e3d6000fd5b505050506040513d601f19601f82011682018060405250810190614d6d91906153ed565b905060008111614df457604051630a06da4f60e21b8152600481018490526001600160a01b0385169063281b693c9060240160206040518083038186803b158015614db757600080fd5b505afa158015614dcb573d6000803e3d6000fd5b505050506040513d601f19601f82011682018060405250810190614def91906153ed565b614df6565b805b9150505b92915050565b8035614e0b81615aac565b919050565b8051614e0b81615aac565b8035614e0b81615ac1565b8051614e0b81615ac1565b803560038110614e0b57600080fd5b60006101408284031215614e5357600080fd5b614e5b615969565b9050614e6682614e10565b81526020820151602082015260408201516040820152606082015160608201526080820151608082015260a082015160a0820152614ea660c08301614e26565b60c082015260e082015160e082015261010080830151818301525061012080830151818301525092915050565b805163ffffffff81168114614e0b57600080fd5b600060208284031215614ef957600080fd5b8135614df481615aac565b600060208284031215614f1657600080fd5b8151614df481615aac565b60008060408385031215614f3457600080fd5b8235614f3f81615aac565b91506020830135614f4f81615ac1565b809150509250929050565b600080600060408486031215614f6f57600080fd5b8335614f7a81615aac565b9250602084013567ffffffffffffffff80821115614f9757600080fd5b818601915086601f830112614fab57600080fd5b813581811115614fba57600080fd5b876020828501011115614fcc57600080fd5b6020830194508093505050509250925092565b600060208284031215614ff157600080fd5b8151614df481615ac1565b60006020828403121561500e57600080fd5b815167ffffffffffffffff8082111561502657600080fd5b818401915084601f83011261503a57600080fd5b81518181111561504c5761504c615a83565b604051601f8201601f19908116603f0116810190838211818310171561507457615074615a83565b8160405282815287602084870101111561508d57600080fd5b61509e836020830160208801615a27565b979650505050505050565b6000608082840312156150bb57600080fd5b6040516080810181811067ffffffffffffffff821117156150de576150de615a83565b6040526150ea83614ed3565b81526150f860208401614ed3565b602082015261510960408401614ed3565b604082015261511a60608401614ed3565b60608201529392505050565b60006101a0828403121561513957600080fd5b615141615993565b61514a83614e10565b81526020830151602082015260408301516040820152606083015160608201526080830151608082015261518060a08401614e26565b60a082015260c0838101519082015260e080840151908201526101008084015190820152610120808401519082015261014080840151908201526101608084015190820152610180928301519281019290925250919050565b60006101e082840312156151ec57600080fd5b60405160c0810181811067ffffffffffffffff8211171561520f5761520f615a83565b60405261521c8484614e40565b81526101408301516020820152610160830151604082015261018083015160608201526101a083015160808201526101c09092015160a083015250919050565b600060c0828403121561526e57600080fd5b60405160c0810181811067ffffffffffffffff8211171561529157615291615a83565b8060405250825181526020830151602082015260408301516040820152606083015160608201526080830151608082015260a08301516152d081615ac1565b60a08201529392505050565b600061014082840312156152ef57600080fd5b6152f98383614e40565b9392505050565b6000806000808486036101a081121561531857600080fd5b6101408082121561532857600080fd5b615330615969565b915061533b87614e00565b82526020870135602083015260408701356040830152606087013560608301526080870135608083015260a087013560a083015261537b60c08801614e1b565b60c083015260e087013560e08301526101008088013581840152506101208088013581840152508195506153b0818801614e31565b9450505061016085013591506153c96101808601614e00565b905092959194509250565b6000602082840312156153e657600080fd5b5035919050565b6000602082840312156153ff57600080fd5b5051919050565b60008060008060008060c0878903121561541f57600080fd5b86519550602087015161543181615aac565b6040880151606089015160808a015160a0909a0151989b929a5090989097909650945092505050565b6000806040838503121561546d57600080fd5b50508035926020909101359150565b6000806040838503121561548f57600080fd5b505080516020909101519092909150565b6000806000606084860312156154b557600080fd5b505081359360208301359350604090920135919050565b60008060008060008060c087890312156154e557600080fd5b505084359660208601359650604086013595606081013595506080810135945060a0013592509050565b60008151808452615527816020860160208601615a27565b601f01601f19169290920160200192915050565b6002811061554b5761554b615a6d565b9052565b805180516001600160a01b031683526020810151602084015260408101516040840152606081015160608401526080810151608084015260a081015160a084015260c08101516155a360c085018215159052565b5060e081810151908401526101008082015190840152610120908101519083015260208101516101408301526040810151610160830152606081015161018083015260808101516101a083015260a001516101c090910152565b8183823760009101908152919050565b6000825161561f818460208701615a27565b9190910192915050565b6001600160a01b03878116825286166020820152604081018590526060810184905260c0810161565c608083018561553b565b8260a0830152979650505050505050565b6001600160a01b039390931683526020830191909152604082015260600190565b6001600160a01b0385168152602081018490526040810183905260808101600383106156bc576156bc615a6d565b82606083015295945050505050565b6001600160a01b03851681526020810184905260408101839052608081016156f6606083018461553b565b95945050505050565b6020815260006152f9602083018461550f565b6020808252600890820152674e4f5f545241444560c01b604082015260600190565b6020808252600890820152671393d7d31253525560c21b604082015260600190565b602080825260049082015263444f4e4560e01b604082015260600190565b602080825260089082015267474f565f4f4e4c5960c01b604082015260600190565b81516001600160a01b031681526101a081016020830151602083015260408301516040830152606083015160608301526080830151608083015260a08301516157e360a084018215159052565b5060c0838101519083015260e08084015190830152610100808401519083015261012080840151908301526101408084015190830152610160808401519083015261018092830151929091019190915290565b6101e08101614dfa828461554f565b6102208101615854828661554f565b836101e0830152821515610200830152949350505050565b82516001600160a01b0390811682526020808501519083015260408085015190911690820152606080840151908201526080808401519082015260a083015160e08201906158b981615a99565b60a083015260c090910191909152919050565b81516001600160a01b0316815260208083015190820152604080830151908201526060820151608082019061590081615a99565b8060608401525092915050565b8481526080810161591d85615a99565b84602083015283604083015282606083015295945050505050565b8481526080810161594885615a99565b84602083015283604083015263ffffffff8316606083015295945050505050565b604051610140810167ffffffffffffffff8111828210171561598d5761598d615a83565b60405290565b6040516101a0810167ffffffffffffffff8111828210171561598d5761598d615a83565b600082198211156159ca576159ca615a57565b500190565b6000826159ec57634e487b7160e01b600052601260045260246000fd5b500490565b6000816000190483118215151615615a0b57615a0b615a57565b500290565b600082821015615a2257615a22615a57565b500390565b60005b83811015615a42578181015183820152602001615a2a565b83811115615a51576000848401525b50505050565b634e487b7160e01b600052601160045260246000fd5b634e487b7160e01b600052602160045260246000fd5b634e487b7160e01b600052604160045260246000fd5b60048110615aa957615aa9615a6d565b50565b6001600160a01b0381168114615aa957600080fd5b8015158114615aa957600080fdfea2646970667358221220bfff59f9f99bb97a7cf7d719048692267623a9c08af0b859a93dcfe2dc3ef15a64736f6c63430008070033",
			"opcodes": "PUSH2 0x120 PUSH1 0x40 MSTORE CALLVALUE DUP1 ISZERO PUSH3 0x12 JUMPI PUSH1 0x0 DUP1 REVERT JUMPDEST POP PUSH1 0x40 MLOAD PUSH3 0x5EEA CODESIZE SUB DUP1 PUSH3 0x5EEA DUP4 CODECOPY DUP2 ADD PUSH1 0x40 DUP2 SWAP1 MSTORE PUSH3 0x35 SWAP2 PUSH3 0x133 JUMP JUMPDEST PUSH1 0x1 PUSH1 0x1 PUSH1 0xA0 SHL SUB DUP8 AND ISZERO DUP1 ISZERO SWAP1 PUSH3 0x56 JUMPI POP PUSH1 0x1 PUSH1 0x1 PUSH1 0xA0 SHL SUB DUP7 AND ISZERO ISZERO JUMPDEST DUP1 ISZERO PUSH3 0x6B JUMPI POP PUSH1 0x1 PUSH1 0x1 PUSH1 0xA0 SHL SUB DUP6 AND ISZERO ISZERO JUMPDEST DUP1 ISZERO PUSH3 0x80 JUMPI POP PUSH1 0x1 PUSH1 0x1 PUSH1 0xA0 SHL SUB DUP5 AND ISZERO ISZERO JUMPDEST DUP1 ISZERO PUSH3 0x95 JUMPI POP PUSH1 0x1 PUSH1 0x1 PUSH1 0xA0 SHL SUB DUP4 AND ISZERO ISZERO JUMPDEST DUP1 ISZERO PUSH3 0xA2 JUMPI POP PUSH1 0x0 DUP3 GT JUMPDEST DUP1 ISZERO PUSH3 0xAF JUMPI POP PUSH1 0x0 DUP2 GT JUMPDEST PUSH3 0xEF JUMPI PUSH1 0x40 MLOAD PUSH3 0x461BCD PUSH1 0xE5 SHL DUP2 MSTORE PUSH1 0x20 PUSH1 0x4 DUP3 ADD MSTORE PUSH1 0xC PUSH1 0x24 DUP3 ADD MSTORE PUSH12 0x57524F4E475F504152414D53 PUSH1 0xA0 SHL PUSH1 0x44 DUP3 ADD MSTORE PUSH1 0x64 ADD PUSH1 0x40 MLOAD DUP1 SWAP2 SUB SWAP1 REVERT JUMPDEST PUSH1 0x1 PUSH1 0x1 PUSH1 0x60 SHL SUB NOT PUSH1 0x60 SWAP8 DUP9 SHL DUP2 AND PUSH1 0x80 MSTORE SWAP6 DUP8 SHL DUP7 AND PUSH1 0xA0 MSTORE SWAP4 DUP7 SHL DUP6 AND PUSH1 0xC0 MSTORE SWAP2 DUP6 SHL DUP5 AND PUSH1 0xE0 MSTORE SWAP1 SWAP4 SHL SWAP1 SWAP2 AND PUSH2 0x100 MSTORE PUSH1 0x2 SWAP2 SWAP1 SWAP2 SSTORE PUSH1 0x3 SSTORE PUSH3 0x1DF JUMP JUMPDEST PUSH1 0x0 DUP1 PUSH1 0x0 DUP1 PUSH1 0x0 DUP1 PUSH1 0x0 PUSH1 0xE0 DUP9 DUP11 SUB SLT ISZERO PUSH3 0x14F JUMPI PUSH1 0x0 DUP1 REVERT JUMPDEST DUP8 MLOAD PUSH3 0x15C DUP2 PUSH3 0x1C6 JUMP JUMPDEST PUSH1 0x20 DUP10 ADD MLOAD SWAP1 SWAP8 POP PUSH3 0x16F DUP2 PUSH3 0x1C6 JUMP JUMPDEST PUSH1 0x40 DUP10 ADD MLOAD SWAP1 SWAP7 POP PUSH3 0x182 DUP2 PUSH3 0x1C6 JUMP JUMPDEST PUSH1 0x60 DUP10 ADD MLOAD SWAP1 SWAP6 POP PUSH3 0x195 DUP2 PUSH3 0x1C6 JUMP JUMPDEST PUSH1 0x80 DUP10 ADD MLOAD SWAP1 SWAP5 POP PUSH3 0x1A8 DUP2 PUSH3 0x1C6 JUMP JUMPDEST DUP1 SWAP4 POP POP PUSH1 0xA0 DUP9 ADD MLOAD SWAP2 POP PUSH1 0xC0 DUP9 ADD MLOAD SWAP1 POP SWAP3 SWAP6 SWAP9 SWAP2 SWAP5 SWAP8 POP SWAP3 SWAP6 POP JUMP JUMPDEST PUSH1 0x1 PUSH1 0x1 PUSH1 0xA0 SHL SUB DUP2 AND DUP2 EQ PUSH3 0x1DC JUMPI PUSH1 0x0 DUP1 REVERT JUMPDEST POP JUMP JUMPDEST PUSH1 0x80 MLOAD PUSH1 0x60 SHR PUSH1 0xA0 MLOAD PUSH1 0x60 SHR PUSH1 0xC0 MLOAD PUSH1 0x60 SHR PUSH1 0xE0 MLOAD PUSH1 0x60 SHR PUSH2 0x100 MLOAD PUSH1 0x60 SHR PUSH2 0x5B05 PUSH3 0x3E5 PUSH1 0x0 CODECOPY PUSH1 0x0 DUP2 DUP2 PUSH2 0x2FD ADD MSTORE PUSH2 0x918 ADD MSTORE PUSH1 0x0 DUP2 DUP2 PUSH2 0x45A ADD MSTORE PUSH2 0x46D6 ADD MSTORE PUSH1 0x0 DUP2 DUP2 PUSH2 0x1FE ADD MSTORE DUP2 DUP2 PUSH2 0xD62 ADD MSTORE DUP2 DUP2 PUSH2 0xDE0 ADD MSTORE DUP2 DUP2 PUSH2 0x3E0F ADD MSTORE PUSH2 0x3EE3 ADD MSTORE PUSH1 0x0 DUP2 DUP2 PUSH2 0x24C ADD MSTORE DUP2 DUP2 PUSH2 0x1179 ADD MSTORE DUP2 DUP2 PUSH2 0x4238 ADD MSTORE DUP2 DUP2 PUSH2 0x47B8 ADD MSTORE PUSH2 0x485B ADD MSTORE PUSH1 0x0 DUP2 DUP2 PUSH2 0x225 ADD MSTORE DUP2 DUP2 PUSH2 0x4CC ADD MSTORE DUP2 DUP2 PUSH2 0x77E ADD MSTORE DUP2 DUP2 PUSH2 0x83F ADD MSTORE DUP2 DUP2 PUSH2 0x995 ADD MSTORE DUP2 DUP2 PUSH2 0xC7B ADD MSTORE DUP2 DUP2 PUSH2 0xEE7 ADD MSTORE DUP2 DUP2 PUSH2 0xFCC ADD MSTORE DUP2 DUP2 PUSH2 0x10FB ADD MSTORE DUP2 DUP2 PUSH2 0x1243 ADD MSTORE DUP2 DUP2 PUSH2 0x13B2 ADD MSTORE DUP2 DUP2 PUSH2 0x1553 ADD MSTORE DUP2 DUP2 PUSH2 0x15D3 ADD MSTORE DUP2 DUP2 PUSH2 0x1686 ADD MSTORE DUP2 DUP2 PUSH2 0x1840 ADD MSTORE DUP2 DUP2 PUSH2 0x19DF ADD MSTORE DUP2 DUP2 PUSH2 0x1CEE ADD MSTORE DUP2 DUP2 PUSH2 0x1D93 ADD MSTORE DUP2 DUP2 PUSH2 0x1E35 ADD MSTORE DUP2 DUP2 PUSH2 0x1EE3 ADD MSTORE DUP2 DUP2 PUSH2 0x2010 ADD MSTORE DUP2 DUP2 PUSH2 0x2160 ADD MSTORE DUP2 DUP2 PUSH2 0x22BB ADD MSTORE DUP2 DUP2 PUSH2 0x23D4 ADD MSTORE DUP2 DUP2 PUSH2 0x2587 ADD MSTORE DUP2 DUP2 PUSH2 0x2646 ADD MSTORE DUP2 DUP2 PUSH2 0x26F7 ADD MSTORE DUP2 DUP2 PUSH2 0x277E ADD MSTORE DUP2 DUP2 PUSH2 0x28A3 ADD MSTORE DUP2 DUP2 PUSH2 0x2A2D ADD MSTORE DUP2 DUP2 PUSH2 0x2A8B ADD MSTORE DUP2 DUP2 PUSH2 0x2C7F ADD MSTORE DUP2 DUP2 PUSH2 0x2D3E ADD MSTORE DUP2 DUP2 PUSH2 0x2EFB ADD MSTORE DUP2 DUP2 PUSH2 0x2F66 ADD MSTORE DUP2 DUP2 PUSH2 0x322E ADD MSTORE DUP2 DUP2 PUSH2 0x3312 ADD MSTORE DUP2 DUP2 PUSH2 0x3370 ADD MSTORE DUP2 DUP2 PUSH2 0x35CE ADD MSTORE DUP2 DUP2 PUSH2 0x36E2 ADD MSTORE DUP2 DUP2 PUSH2 0x379D ADD MSTORE DUP2 DUP2 PUSH2 0x3845 ADD MSTORE DUP2 DUP2 PUSH2 0x38ED ADD MSTORE DUP2 DUP2 PUSH2 0x39C2 ADD MSTORE DUP2 DUP2 PUSH2 0x3A70 ADD MSTORE DUP2 DUP2 PUSH2 0x3FEB ADD MSTORE DUP2 DUP2 PUSH2 0x40A4 ADD MSTORE DUP2 DUP2 PUSH2 0x4122 ADD MSTORE DUP2 DUP2 PUSH2 0x42AF ADD MSTORE DUP2 DUP2 PUSH2 0x4540 ADD MSTORE DUP2 DUP2 PUSH2 0x492B ADD MSTORE DUP2 DUP2 PUSH2 0x4A40 ADD MSTORE PUSH2 0x4C62 ADD MSTORE PUSH2 0x5B05 PUSH1 0x0 RETURN INVALID PUSH1 0x80 PUSH1 0x40 MSTORE CALLVALUE DUP1 ISZERO PUSH2 0x10 JUMPI PUSH1 0x0 DUP1 REVERT JUMPDEST POP PUSH1 0x4 CALLDATASIZE LT PUSH2 0x1CF JUMPI PUSH1 0x0 CALLDATALOAD PUSH1 0xE0 SHR DUP1 PUSH4 0x934D1CF4 GT PUSH2 0x104 JUMPI DUP1 PUSH4 0xB9B6573A GT PUSH2 0xA2 JUMPI DUP1 PUSH4 0xCA5EB5E1 GT PUSH2 0x71 JUMPI DUP1 PUSH4 0xCA5EB5E1 EQ PUSH2 0x442 JUMPI DUP1 PUSH4 0xD3DC7539 EQ PUSH2 0x455 JUMPI DUP1 PUSH4 0xD8DEFD15 EQ PUSH2 0x47C JUMPI DUP1 PUSH4 0xFB4B71BB EQ PUSH2 0x48F JUMPI PUSH1 0x0 DUP1 REVERT JUMPDEST DUP1 PUSH4 0xB9B6573A EQ PUSH2 0x3E0 JUMPI DUP1 PUSH4 0xBE73FB99 EQ PUSH2 0x3F3 JUMPI DUP1 PUSH4 0xBFFE3486 EQ PUSH2 0x406 JUMPI DUP1 PUSH4 0xC641558E EQ PUSH2 0x42F JUMPI PUSH1 0x0 DUP1 REVERT JUMPDEST DUP1 PUSH4 0xA2A3C0CB GT PUSH2 0xDE JUMPI DUP1 PUSH4 0xA2A3C0CB EQ PUSH2 0x3A5 JUMPI DUP1 PUSH4 0xAE8421E1 EQ PUSH2 0x3B8 JUMPI DUP1 PUSH4 0xB187BD26 EQ PUSH2 0x3C0 JUMPI DUP1 PUSH4 0xB81BFA05 EQ PUSH2 0x3CD JUMPI PUSH1 0x0 DUP1 REVERT JUMPDEST DUP1 PUSH4 0x934D1CF4 EQ PUSH2 0x35F JUMPI DUP1 PUSH4 0x990382CF EQ PUSH2 0x372 JUMPI DUP1 PUSH4 0x9A10CC32 EQ PUSH2 0x385 JUMPI PUSH1 0x0 DUP1 REVERT JUMPDEST DUP1 PUSH4 0x410C0B7C GT PUSH2 0x171 JUMPI DUP1 PUSH4 0x6C53CC1C GT PUSH2 0x14B JUMPI DUP1 PUSH4 0x6C53CC1C EQ PUSH2 0x31F JUMPI DUP1 PUSH4 0x8456CB59 EQ PUSH2 0x332 JUMPI DUP1 PUSH4 0x876D3ABD EQ PUSH2 0x33A JUMPI DUP1 PUSH4 0x8F062227 EQ PUSH2 0x34D JUMPI PUSH1 0x0 DUP1 REVERT JUMPDEST DUP1 PUSH4 0x410C0B7C EQ PUSH2 0x2DC JUMPI DUP1 PUSH4 0x4278BAFE EQ PUSH2 0x2E5 JUMPI DUP1 PUSH4 0x531CC965 EQ PUSH2 0x2F8 JUMPI PUSH1 0x0 DUP1 REVERT JUMPDEST DUP1 PUSH4 0x272300C9 GT PUSH2 0x1AD JUMPI DUP1 PUSH4 0x272300C9 EQ PUSH2 0x247 JUMPI DUP1 PUSH4 0x279A165C EQ PUSH2 0x26E JUMPI DUP1 PUSH4 0x2C7C8F4E EQ PUSH2 0x285 JUMPI DUP1 PUSH4 0x36FB8B15 EQ PUSH2 0x2B8 JUMPI PUSH1 0x0 DUP1 REVERT JUMPDEST DUP1 PUSH4 0x119DF25F EQ PUSH2 0x1D4 JUMPI DUP1 PUSH4 0x1346B0FF EQ PUSH2 0x1F9 JUMPI DUP1 PUSH4 0x16FFF074 EQ PUSH2 0x220 JUMPI JUMPDEST PUSH1 0x0 DUP1 REVERT JUMPDEST PUSH2 0x1DC PUSH2 0x4A2 JUMP JUMPDEST PUSH1 0x40 MLOAD PUSH1 0x1 PUSH1 0x1 PUSH1 0xA0 SHL SUB SWAP1 SWAP2 AND DUP2 MSTORE PUSH1 0x20 ADD JUMPDEST PUSH1 0x40 MLOAD DUP1 SWAP2 SUB SWAP1 RETURN JUMPDEST PUSH2 0x1DC PUSH32 0x0 DUP2 JUMP JUMPDEST PUSH2 0x1DC PUSH32 0x0 DUP2 JUMP JUMPDEST PUSH2 0x1DC PUSH32 0x0 DUP2 JUMP JUMPDEST PUSH2 0x277 PUSH1 0x2 SLOAD DUP2 JUMP JUMPDEST PUSH1 0x40 MLOAD SWAP1 DUP2 MSTORE PUSH1 0x20 ADD PUSH2 0x1F0 JUMP JUMPDEST PUSH2 0x2A8 PUSH2 0x293 CALLDATASIZE PUSH1 0x4 PUSH2 0x4EE7 JUMP JUMPDEST PUSH1 0x5 PUSH1 0x20 MSTORE PUSH1 0x0 SWAP1 DUP2 MSTORE PUSH1 0x40 SWAP1 KECCAK256 SLOAD PUSH1 0xFF AND DUP2 JUMP JUMPDEST PUSH1 0x40 MLOAD SWAP1 ISZERO ISZERO DUP2 MSTORE PUSH1 0x20 ADD PUSH2 0x1F0 JUMP JUMPDEST PUSH2 0x2DA CALLER PUSH1 0x0 SWAP1 DUP2 MSTORE PUSH1 0x20 DUP2 SWAP1 MSTORE PUSH1 0x40 SWAP1 KECCAK256 DUP1 SLOAD PUSH1 0x1 PUSH1 0x1 PUSH1 0xA0 SHL SUB NOT AND SWAP1 SSTORE JUMP JUMPDEST STOP JUMPDEST PUSH2 0x277 PUSH1 0x3 SLOAD DUP2 JUMP JUMPDEST PUSH2 0x2DA PUSH2 0x2F3 CALLDATASIZE PUSH1 0x4 PUSH2 0x4F21 JUMP JUMPDEST PUSH2 0x4CA JUMP JUMPDEST PUSH2 0x1DC PUSH32 0x0 DUP2 JUMP JUMPDEST PUSH2 0x2DA PUSH2 0x32D CALLDATASIZE PUSH1 0x4 PUSH2 0x53D4 JUMP JUMPDEST PUSH2 0x5F7 JUMP JUMPDEST PUSH2 0x2DA PUSH2 0x1241 JUMP JUMPDEST PUSH2 0x2DA PUSH2 0x348 CALLDATASIZE PUSH1 0x4 PUSH2 0x53D4 JUMP JUMPDEST PUSH2 0x1350 JUMP JUMPDEST PUSH1 0x4 SLOAD PUSH2 0x2A8 SWAP1 PUSH2 0x100 SWAP1 DIV PUSH1 0xFF AND DUP2 JUMP JUMPDEST PUSH2 0x2DA PUSH2 0x36D CALLDATASIZE PUSH1 0x4 PUSH2 0x53D4 JUMP JUMPDEST PUSH2 0x1684 JUMP JUMPDEST PUSH2 0x2DA PUSH2 0x380 CALLDATASIZE PUSH1 0x4 PUSH2 0x53D4 JUMP JUMPDEST PUSH2 0x17DE JUMP JUMPDEST PUSH2 0x398 PUSH2 0x393 CALLDATASIZE PUSH1 0x4 PUSH2 0x4F5A JUMP JUMPDEST PUSH2 0x1B6F JUMP JUMPDEST PUSH1 0x40 MLOAD PUSH2 0x1F0 SWAP2 SWAP1 PUSH2 0x56FF JUMP JUMPDEST PUSH2 0x2DA PUSH2 0x3B3 CALLDATASIZE PUSH1 0x4 PUSH2 0x545A JUMP JUMPDEST PUSH2 0x1CAA JUMP JUMPDEST PUSH2 0x2DA PUSH2 0x22B9 JUMP JUMPDEST PUSH1 0x4 SLOAD PUSH2 0x2A8 SWAP1 PUSH1 0xFF AND DUP2 JUMP JUMPDEST PUSH2 0x2DA PUSH2 0x3DB CALLDATASIZE PUSH1 0x4 PUSH2 0x53D4 JUMP JUMPDEST PUSH2 0x23D2 JUMP JUMPDEST PUSH2 0x2DA PUSH2 0x3EE CALLDATASIZE PUSH1 0x4 PUSH2 0x545A JUMP JUMPDEST PUSH2 0x252F JUMP JUMPDEST PUSH2 0x2DA PUSH2 0x401 CALLDATASIZE PUSH1 0x4 PUSH2 0x54A0 JUMP JUMPDEST PUSH2 0x283B JUMP JUMPDEST PUSH2 0x1DC PUSH2 0x414 CALLDATASIZE PUSH1 0x4 PUSH2 0x4EE7 JUMP JUMPDEST PUSH1 0x0 PUSH1 0x20 DUP2 SWAP1 MSTORE SWAP1 DUP2 MSTORE PUSH1 0x40 SWAP1 KECCAK256 SLOAD PUSH1 0x1 PUSH1 0x1 PUSH1 0xA0 SHL SUB AND DUP2 JUMP JUMPDEST PUSH2 0x2DA PUSH2 0x43D CALLDATASIZE PUSH1 0x4 PUSH2 0x54CC JUMP JUMPDEST PUSH2 0x2BEA JUMP JUMPDEST PUSH2 0x2DA PUSH2 0x450 CALLDATASIZE PUSH1 0x4 PUSH2 0x4EE7 JUMP JUMPDEST PUSH2 0x315A JUMP JUMPDEST PUSH2 0x1DC PUSH32 0x0 DUP2 JUMP JUMPDEST PUSH2 0x2DA PUSH2 0x48A CALLDATASIZE PUSH1 0x4 PUSH2 0x54A0 JUMP JUMPDEST PUSH2 0x31C6 JUMP JUMPDEST PUSH2 0x2DA PUSH2 0x49D CALLDATASIZE PUSH1 0x4 PUSH2 0x5300 JUMP JUMPDEST PUSH2 0x34CE JUMP JUMPDEST PUSH1 0x1 SLOAD PUSH1 0x0 SWAP1 PUSH1 0x1 PUSH1 0x1 PUSH1 0xA0 SHL SUB AND PUSH2 0x4BA JUMPI POP CALLER SWAP1 JUMP JUMPDEST POP PUSH1 0x1 SLOAD PUSH1 0x1 PUSH1 0x1 PUSH1 0xA0 SHL SUB AND SWAP1 JUMP JUMPDEST PUSH32 0x0 PUSH1 0x1 PUSH1 0x1 PUSH1 0xA0 SHL SUB AND PUSH4 0x12D43A51 PUSH1 0x40 MLOAD DUP2 PUSH4 0xFFFFFFFF AND PUSH1 0xE0 SHL DUP2 MSTORE PUSH1 0x4 ADD PUSH1 0x20 PUSH1 0x40 MLOAD DUP1 DUP4 SUB DUP2 DUP7 DUP1 EXTCODESIZE ISZERO DUP1 ISZERO PUSH2 0x523 JUMPI PUSH1 0x0 DUP1 REVERT JUMPDEST POP GAS STATICCALL ISZERO DUP1 ISZERO PUSH2 0x537 JUMPI RETURNDATASIZE PUSH1 0x0 DUP1 RETURNDATACOPY RETURNDATASIZE PUSH1 0x0 REVERT JUMPDEST POP POP POP POP PUSH1 0x40 MLOAD RETURNDATASIZE PUSH1 0x1F NOT PUSH1 0x1F DUP3 ADD AND DUP3 ADD DUP1 PUSH1 0x40 MSTORE POP DUP2 ADD SWAP1 PUSH2 0x55B SWAP2 SWAP1 PUSH2 0x4F04 JUMP JUMPDEST PUSH1 0x1 PUSH1 0x1 PUSH1 0xA0 SHL SUB AND CALLER PUSH1 0x1 PUSH1 0x1 PUSH1 0xA0 SHL SUB AND EQ PUSH2 0x594 JUMPI PUSH1 0x40 MLOAD PUSH3 0x461BCD PUSH1 0xE5 SHL DUP2 MSTORE PUSH1 0x4 ADD PUSH2 0x58B SWAP1 PUSH2 0x5774 JUMP JUMPDEST PUSH1 0x40 MLOAD DUP1 SWAP2 SUB SWAP1 REVERT JUMPDEST PUSH1 0x1 PUSH1 0x1 PUSH1 0xA0 SHL SUB DUP3 AND PUSH1 0x0 DUP2 DUP2 MSTORE PUSH1 0x5 PUSH1 0x20 SWAP1 DUP2 MSTORE PUSH1 0x40 SWAP2 DUP3 SWAP1 KECCAK256 DUP1 SLOAD PUSH1 0xFF NOT AND DUP6 ISZERO ISZERO SWAP1 DUP2 OR SWAP1 SWAP2 SSTORE DUP3 MLOAD SWAP4 DUP5 MSTORE SWAP1 DUP4 ADD MSTORE PUSH32 0x3C0F648064E21CCEB91D918A80BED80A58C69474A28D50FE3D9975B72BE97C44 SWAP2 ADD PUSH1 0x40 MLOAD DUP1 SWAP2 SUB SWAP1 LOG1 POP POP JUMP JUMPDEST ORIGIN CALLER EQ PUSH2 0x603 JUMPI PUSH1 0x0 DUP1 REVERT JUMPDEST PUSH1 0x4 SLOAD PUSH2 0x100 SWAP1 DIV PUSH1 0xFF AND ISZERO PUSH2 0x62B JUMPI PUSH1 0x40 MLOAD PUSH3 0x461BCD PUSH1 0xE5 SHL DUP2 MSTORE PUSH1 0x4 ADD PUSH2 0x58B SWAP1 PUSH2 0x5756 JUMP JUMPDEST PUSH1 0x40 MLOAD PUSH4 0xCEFBB3BD PUSH1 0xE0 SHL DUP2 MSTORE PUSH1 0x4 DUP2 ADD DUP3 SWAP1 MSTORE PUSH1 0x0 SWAP1 DUP2 SWAP1 DUP2 SWAP1 DUP2 SWAP1 PUSH20 0x0 SWAP1 PUSH4 0xCEFBB3BD SWAP1 PUSH1 0x24 ADD PUSH1 0xC0 PUSH1 0x40 MLOAD DUP1 DUP4 SUB DUP2 DUP7 DUP1 EXTCODESIZE ISZERO DUP1 ISZERO PUSH2 0x67F JUMPI PUSH1 0x0 DUP1 REVERT JUMPDEST POP GAS DELEGATECALL ISZERO DUP1 ISZERO PUSH2 0x693 JUMPI RETURNDATASIZE PUSH1 0x0 DUP1 RETURNDATACOPY RETURNDATASIZE PUSH1 0x0 REVERT JUMPDEST POP POP POP POP PUSH1 0x40 MLOAD RETURNDATASIZE PUSH1 0x1F NOT PUSH1 0x1F DUP3 ADD AND DUP3 ADD DUP1 PUSH1 0x40 MSTORE POP DUP2 ADD SWAP1 PUSH2 0x6B7 SWAP2 SWAP1 PUSH2 0x5406 JUMP JUMPDEST POP POP SWAP4 POP SWAP4 POP SWAP4 POP SWAP4 POP PUSH1 0x0 DUP5 PUSH1 0x3 DUP2 GT ISZERO PUSH2 0x6D5 JUMPI PUSH2 0x6D5 PUSH2 0x5A6D JUMP JUMPDEST SWAP1 POP PUSH1 0x0 PUSH2 0x6E5 DUP6 DUP6 DUP6 DUP6 PUSH2 0x473C JUMP JUMPDEST SWAP1 POP PUSH2 0x748 PUSH1 0x40 MLOAD DUP1 PUSH2 0x140 ADD PUSH1 0x40 MSTORE DUP1 PUSH1 0x0 PUSH1 0x1 PUSH1 0x1 PUSH1 0xA0 SHL SUB AND DUP2 MSTORE PUSH1 0x20 ADD PUSH1 0x0 DUP2 MSTORE PUSH1 0x20 ADD PUSH1 0x0 DUP2 MSTORE PUSH1 0x20 ADD PUSH1 0x0 DUP2 MSTORE PUSH1 0x20 ADD PUSH1 0x0 DUP2 MSTORE PUSH1 0x20 ADD PUSH1 0x0 DUP2 MSTORE PUSH1 0x20 ADD PUSH1 0x0 ISZERO ISZERO DUP2 MSTORE PUSH1 0x20 ADD PUSH1 0x0 DUP2 MSTORE PUSH1 0x20 ADD PUSH1 0x0 DUP2 MSTORE PUSH1 0x20 ADD PUSH1 0x0 DUP2 MSTORE POP SWAP1 JUMP JUMPDEST PUSH1 0x0 PUSH1 0x3 DUP5 PUSH1 0x3 DUP2 GT ISZERO PUSH2 0x75E JUMPI PUSH2 0x75E PUSH2 0x5A6D JUMP JUMPDEST EQ SWAP1 POP DUP1 ISZERO PUSH2 0x828 JUMPI PUSH1 0x40 MLOAD PUSH4 0x6E6F99CD PUSH1 0xE1 SHL DUP2 MSTORE PUSH1 0x1 PUSH1 0x1 PUSH1 0xA0 SHL SUB PUSH32 0x0 AND SWAP1 PUSH4 0xDCDF339A SWAP1 PUSH2 0x7B7 SWAP1 DUP11 SWAP1 DUP11 SWAP1 DUP11 SWAP1 PUSH1 0x4 ADD PUSH2 0x566D JUMP JUMPDEST PUSH1 0x20 PUSH1 0x40 MLOAD DUP1 DUP4 SUB DUP2 DUP7 DUP1 EXTCODESIZE ISZERO DUP1 ISZERO PUSH2 0x7CF JUMPI PUSH1 0x0 DUP1 REVERT JUMPDEST POP GAS STATICCALL ISZERO DUP1 ISZERO PUSH2 0x7E3 JUMPI RETURNDATASIZE PUSH1 0x0 DUP1 RETURNDATACOPY RETURNDATASIZE PUSH1 0x0 REVERT JUMPDEST POP POP POP POP PUSH1 0x40 MLOAD RETURNDATASIZE PUSH1 0x1F NOT PUSH1 0x1F DUP3 ADD AND DUP3 ADD DUP1 PUSH1 0x40 MSTORE POP DUP2 ADD SWAP1 PUSH2 0x807 SWAP2 SWAP1 PUSH2 0x4FDF JUMP JUMPDEST PUSH2 0x823 JUMPI PUSH1 0x40 MLOAD PUSH3 0x461BCD PUSH1 0xE5 SHL DUP2 MSTORE PUSH1 0x4 ADD PUSH2 0x58B SWAP1 PUSH2 0x5734 JUMP JUMPDEST PUSH2 0xC2F JUMP JUMPDEST PUSH1 0x40 MLOAD PUSH4 0x51D407FF PUSH1 0xE1 SHL DUP2 MSTORE PUSH1 0x1 PUSH1 0x1 PUSH1 0xA0 SHL SUB PUSH32 0x0 AND SWAP1 PUSH4 0xA3A80FFE SWAP1 PUSH2 0x878 SWAP1 DUP11 SWAP1 DUP11 SWAP1 DUP11 SWAP1 PUSH1 0x4 ADD PUSH2 0x566D JUMP JUMPDEST PUSH2 0x140 PUSH1 0x40 MLOAD DUP1 DUP4 SUB DUP2 DUP7 DUP1 EXTCODESIZE ISZERO DUP1 ISZERO PUSH2 0x891 JUMPI PUSH1 0x0 DUP1 REVERT JUMPDEST POP GAS STATICCALL ISZERO DUP1 ISZERO PUSH2 0x8A5 JUMPI RETURNDATASIZE PUSH1 0x0 DUP1 RETURNDATACOPY RETURNDATASIZE PUSH1 0x0 REVERT JUMPDEST POP POP POP POP PUSH1 0x40 MLOAD RETURNDATASIZE PUSH1 0x1F NOT PUSH1 0x1F DUP3 ADD AND DUP3 ADD DUP1 PUSH1 0x40 MSTORE POP DUP2 ADD SWAP1 PUSH2 0x8C9 SWAP2 SWAP1 PUSH2 0x52DC JUMP JUMPDEST SWAP2 POP PUSH1 0x0 DUP3 PUSH1 0xE0 ADD MLOAD GT PUSH2 0x8EF JUMPI PUSH1 0x40 MLOAD PUSH3 0x461BCD PUSH1 0xE5 SHL DUP2 MSTORE PUSH1 0x4 ADD PUSH2 0x58B SWAP1 PUSH2 0x5712 JUMP JUMPDEST PUSH1 0x2 DUP5 PUSH1 0x3 DUP2 GT ISZERO PUSH2 0x903 JUMPI PUSH2 0x903 PUSH2 0x5A6D JUMP JUMPDEST EQ ISZERO PUSH2 0xB7B JUMPI PUSH2 0x120 DUP3 ADD MLOAD ISZERO PUSH2 0x823 JUMPI PUSH1 0x0 PUSH32 0x0 PUSH1 0x1 PUSH1 0x1 PUSH1 0xA0 SHL SUB AND PUSH4 0x706FAF3A PUSH1 0x40 MLOAD DUP1 PUSH1 0xE0 ADD PUSH1 0x40 MSTORE DUP1 DUP7 PUSH1 0x0 ADD MLOAD PUSH1 0x1 PUSH1 0x1 PUSH1 0xA0 SHL SUB AND DUP2 MSTORE PUSH1 0x20 ADD DUP7 PUSH1 0x20 ADD MLOAD DUP2 MSTORE PUSH1 0x20 ADD DUP7 PUSH1 0x40 ADD MLOAD DUP2 MSTORE PUSH1 0x20 ADD DUP7 PUSH1 0xA0 ADD MLOAD DUP2 MSTORE PUSH1 0x20 ADD DUP7 PUSH1 0xC0 ADD MLOAD ISZERO ISZERO DUP2 MSTORE PUSH1 0x20 ADD PUSH5 0x2540BE400 PUSH32 0x0 PUSH1 0x1 PUSH1 0x1 PUSH1 0xA0 SHL SUB AND PUSH4 0x8C8FF1D5 DUP10 PUSH1 0x0 ADD MLOAD DUP11 PUSH1 0x20 ADD MLOAD DUP12 PUSH1 0x40 ADD MLOAD PUSH1 0x40 MLOAD DUP5 PUSH4 0xFFFFFFFF AND PUSH1 0xE0 SHL DUP2 MSTORE PUSH1 0x4 ADD PUSH2 0x9EF SWAP4 SWAP3 SWAP2 SWAP1 PUSH2 0x566D JUMP JUMPDEST PUSH1 0xC0 PUSH1 0x40 MLOAD DUP1 DUP4 SUB DUP2 DUP7 DUP1 EXTCODESIZE ISZERO DUP1 ISZERO PUSH2 0xA07 JUMPI PUSH1 0x0 DUP1 REVERT JUMPDEST POP GAS STATICCALL ISZERO DUP1 ISZERO PUSH2 0xA1B JUMPI RETURNDATASIZE PUSH1 0x0 DUP1 RETURNDATACOPY RETURNDATASIZE PUSH1 0x0 REVERT JUMPDEST POP POP POP POP PUSH1 0x40 MLOAD RETURNDATASIZE PUSH1 0x1F NOT PUSH1 0x1F DUP3 ADD AND DUP3 ADD DUP1 PUSH1 0x40 MSTORE POP DUP2 ADD SWAP1 PUSH2 0xA3F SWAP2 SWAP1 PUSH2 0x525C JUMP JUMPDEST PUSH1 0x20 ADD MLOAD DUP9 PUSH1 0x60 ADD MLOAD PUSH2 0xA52 SWAP2 SWAP1 PUSH2 0x59F1 JUMP JUMPDEST PUSH2 0xA5C SWAP2 SWAP1 PUSH2 0x59CF JUMP JUMPDEST DUP2 MSTORE PUSH1 0xE0 DUP8 DUP2 ADD MLOAD PUSH1 0x20 SWAP3 DUP4 ADD MSTORE PUSH1 0x40 DUP1 MLOAD SWAP2 DUP6 SWAP1 SHL PUSH1 0x1 PUSH1 0x1 PUSH1 0xE0 SHL SUB NOT AND DUP3 MSTORE DUP4 MLOAD PUSH1 0x1 PUSH1 0x1 PUSH1 0xA0 SHL SUB AND PUSH1 0x4 DUP4 ADD MSTORE SWAP2 DUP4 ADD MLOAD PUSH1 0x24 DUP3 ADD MSTORE SWAP1 DUP3 ADD MLOAD PUSH1 0x44 DUP3 ADD MSTORE PUSH1 0x60 DUP3 ADD MLOAD PUSH1 0x64 DUP3 ADD MSTORE PUSH1 0x80 DUP3 ADD MLOAD ISZERO ISZERO PUSH1 0x84 DUP3 ADD MSTORE PUSH1 0xA0 DUP3 ADD MLOAD PUSH1 0xA4 DUP3 ADD MSTORE PUSH1 0xC0 SWAP2 SWAP1 SWAP2 ADD MLOAD PUSH1 0xC4 DUP3 ADD MSTORE PUSH1 0xE4 ADD PUSH1 0x20 PUSH1 0x40 MLOAD DUP1 DUP4 SUB DUP2 DUP7 DUP1 EXTCODESIZE ISZERO DUP1 ISZERO PUSH2 0xAE7 JUMPI PUSH1 0x0 DUP1 REVERT JUMPDEST POP GAS STATICCALL ISZERO DUP1 ISZERO PUSH2 0xAFB JUMPI RETURNDATASIZE PUSH1 0x0 DUP1 RETURNDATACOPY RETURNDATASIZE PUSH1 0x0 REVERT JUMPDEST POP POP POP POP PUSH1 0x40 MLOAD RETURNDATASIZE PUSH1 0x1F NOT PUSH1 0x1F DUP3 ADD AND DUP3 ADD DUP1 PUSH1 0x40 MSTORE POP DUP2 ADD SWAP1 PUSH2 0xB1F SWAP2 SWAP1 PUSH2 0x53ED JUMP JUMPDEST SWAP1 POP DUP3 PUSH1 0xC0 ADD MLOAD PUSH2 0xB37 JUMPI DUP3 PUSH2 0x120 ADD MLOAD DUP2 LT PUSH2 0xB40 JUMP JUMPDEST DUP3 PUSH2 0x120 ADD MLOAD DUP2 GT JUMPDEST PUSH2 0xB75 JUMPI PUSH1 0x40 MLOAD PUSH3 0x461BCD PUSH1 0xE5 SHL DUP2 MSTORE PUSH1 0x20 PUSH1 0x4 DUP3 ADD MSTORE PUSH1 0x6 PUSH1 0x24 DUP3 ADD MSTORE PUSH6 0x121054D7D4D3 PUSH1 0xD2 SHL PUSH1 0x44 DUP3 ADD MSTORE PUSH1 0x64 ADD PUSH2 0x58B JUMP JUMPDEST POP PUSH2 0xC2F JUMP JUMPDEST PUSH1 0x1 DUP5 PUSH1 0x3 DUP2 GT ISZERO PUSH2 0xB8F JUMPI PUSH2 0xB8F PUSH2 0x5A6D JUMP JUMPDEST EQ ISZERO DUP1 PUSH2 0xBA1 JUMPI POP PUSH1 0x0 DUP3 PUSH2 0x120 ADD MLOAD GT JUMPDEST PUSH2 0xBD5 JUMPI PUSH1 0x40 MLOAD PUSH3 0x461BCD PUSH1 0xE5 SHL DUP2 MSTORE PUSH1 0x20 PUSH1 0x4 DUP3 ADD MSTORE PUSH1 0x5 PUSH1 0x24 DUP3 ADD MSTORE PUSH5 0x1393D7D4D3 PUSH1 0xDA SHL PUSH1 0x44 DUP3 ADD MSTORE PUSH1 0x64 ADD PUSH2 0x58B JUMP JUMPDEST PUSH1 0x0 DUP5 PUSH1 0x3 DUP2 GT ISZERO PUSH2 0xBE9 JUMPI PUSH2 0xBE9 PUSH2 0x5A6D JUMP JUMPDEST EQ ISZERO DUP1 PUSH2 0xBFB JUMPI POP PUSH1 0x0 DUP3 PUSH2 0x100 ADD MLOAD GT JUMPDEST PUSH2 0xC2F JUMPI PUSH1 0x40 MLOAD PUSH3 0x461BCD PUSH1 0xE5 SHL DUP2 MSTORE PUSH1 0x20 PUSH1 0x4 DUP3 ADD MSTORE PUSH1 0x5 PUSH1 0x24 DUP3 ADD MSTORE PUSH5 0x4E4F5F545 PUSH1 0xDC SHL PUSH1 0x44 DUP3 ADD MSTORE PUSH1 0x64 ADD PUSH2 0x58B JUMP JUMPDEST PUSH1 0x0 PUSH2 0xC39 PUSH2 0x4A2 JUMP JUMPDEST PUSH1 0x1 PUSH1 0x1 PUSH1 0xA0 SHL SUB DUP2 AND PUSH1 0x0 SWAP1 DUP2 MSTORE PUSH1 0x5 PUSH1 0x20 MSTORE PUSH1 0x40 DUP2 KECCAK256 SLOAD SWAP2 SWAP3 POP PUSH1 0xFF SWAP1 SWAP2 AND SWAP1 DUP4 ISZERO PUSH2 0xED5 JUMPI PUSH1 0x40 MLOAD PUSH4 0x2E21E28B PUSH1 0xE2 SHL DUP2 MSTORE PUSH1 0x0 SWAP1 PUSH1 0x1 PUSH1 0x1 PUSH1 0xA0 SHL SUB PUSH32 0x0 AND SWAP1 PUSH4 0xB8878A2C SWAP1 PUSH2 0xCB4 SWAP1 DUP15 SWAP1 DUP15 SWAP1 DUP15 SWAP1 PUSH1 0x4 ADD PUSH2 0x566D JUMP JUMPDEST PUSH2 0x1A0 PUSH1 0x40 MLOAD DUP1 DUP4 SUB DUP2 DUP7 DUP1 EXTCODESIZE ISZERO DUP1 ISZERO PUSH2 0xCCD JUMPI PUSH1 0x0 DUP1 REVERT JUMPDEST POP GAS STATICCALL ISZERO DUP1 ISZERO PUSH2 0xCE1 JUMPI RETURNDATASIZE PUSH1 0x0 DUP1 RETURNDATACOPY RETURNDATASIZE PUSH1 0x0 REVERT JUMPDEST POP POP POP POP PUSH1 0x40 MLOAD RETURNDATASIZE PUSH1 0x1F NOT PUSH1 0x1F DUP3 ADD AND DUP3 ADD DUP1 PUSH1 0x40 MSTORE POP DUP2 ADD SWAP1 PUSH2 0xD05 SWAP2 SWAP1 PUSH2 0x5126 JUMP JUMPDEST SWAP1 POP PUSH1 0x0 DUP2 PUSH1 0xC0 ADD MLOAD DUP3 PUSH1 0x60 ADD MLOAD PUSH2 0xD1D SWAP2 SWAP1 PUSH2 0x59F1 JUMP JUMPDEST PUSH1 0x20 DUP4 ADD MLOAD PUSH1 0xA0 DUP5 ADD MLOAD PUSH1 0x40 MLOAD PUSH4 0x3F54AF99 PUSH1 0xE1 SHL DUP2 MSTORE PUSH1 0x0 PUSH1 0x4 DUP3 ADD DUP2 SWAP1 MSTORE PUSH1 0x24 DUP3 ADD SWAP4 SWAP1 SWAP4 MSTORE SWAP1 ISZERO ISZERO PUSH1 0x44 DUP3 ADD MSTORE PUSH1 0x64 DUP2 ADD DUP4 SWAP1 MSTORE SWAP2 SWAP3 POP SWAP1 PUSH1 0x1 PUSH1 0x1 PUSH1 0xA0 SHL SUB PUSH32 0x0 AND SWAP1 PUSH4 0x7EA95F32 SWAP1 PUSH1 0x84 ADD PUSH1 0x40 DUP1 MLOAD DUP1 DUP4 SUB DUP2 DUP7 DUP1 EXTCODESIZE ISZERO DUP1 ISZERO PUSH2 0xDA3 JUMPI PUSH1 0x0 DUP1 REVERT JUMPDEST POP GAS STATICCALL ISZERO DUP1 ISZERO PUSH2 0xDB7 JUMPI RETURNDATASIZE PUSH1 0x0 DUP1 RETURNDATACOPY RETURNDATASIZE PUSH1 0x0 REVERT JUMPDEST POP POP POP POP PUSH1 0x40 MLOAD RETURNDATASIZE PUSH1 0x1F NOT PUSH1 0x1F DUP3 ADD AND DUP3 ADD DUP1 PUSH1 0x40 MSTORE POP DUP2 ADD SWAP1 PUSH2 0xDDB SWAP2 SWAP1 PUSH2 0x547C JUMP JUMPDEST POP SWAP1 POP PUSH32 0x0 PUSH1 0x1 PUSH1 0x1 PUSH1 0xA0 SHL SUB AND PUSH4 0x80F6CFC2 PUSH1 0x40 MLOAD DUP2 PUSH4 0xFFFFFFFF AND PUSH1 0xE0 SHL DUP2 MSTORE PUSH1 0x4 ADD PUSH1 0x20 PUSH1 0x40 MLOAD DUP1 DUP4 SUB DUP2 DUP7 DUP1 EXTCODESIZE ISZERO DUP1 ISZERO PUSH2 0xE37 JUMPI PUSH1 0x0 DUP1 REVERT JUMPDEST POP GAS STATICCALL ISZERO DUP1 ISZERO PUSH2 0xE4B JUMPI RETURNDATASIZE PUSH1 0x0 DUP1 RETURNDATACOPY RETURNDATASIZE PUSH1 0x0 REVERT JUMPDEST POP POP POP POP PUSH1 0x40 MLOAD RETURNDATASIZE PUSH1 0x1F NOT PUSH1 0x1F DUP3 ADD AND DUP3 ADD DUP1 PUSH1 0x40 MSTORE POP DUP2 ADD SWAP1 PUSH2 0xE6F SWAP2 SWAP1 PUSH2 0x53ED JUMP JUMPDEST PUSH1 0xC0 DUP5 ADD MLOAD PUSH2 0xE7E SWAP1 DUP4 PUSH2 0x59F1 JUMP JUMPDEST GT ISZERO PUSH2 0xEC4 JUMPI PUSH1 0x40 MLOAD PUSH3 0x461BCD PUSH1 0xE5 SHL DUP2 MSTORE PUSH1 0x20 PUSH1 0x4 DUP3 ADD MSTORE PUSH1 0x15 PUSH1 0x24 DUP3 ADD MSTORE PUSH21 0xA0A492868ABE929AA08286A8BEA89E9EBE90928E9 PUSH1 0x5B SHL PUSH1 0x44 DUP3 ADD MSTORE PUSH1 0x64 ADD PUSH2 0x58B JUMP JUMPDEST DUP5 PUSH2 0xECD JUMPI DUP2 SWAP4 POP JUMPDEST POP POP POP PUSH2 0xFAF JUMP JUMPDEST DUP2 PUSH2 0xFAF JUMPI PUSH5 0x2540BE400 DUP6 PUSH1 0xE0 ADD MLOAD PUSH32 0x0 PUSH1 0x1 PUSH1 0x1 PUSH1 0xA0 SHL SUB AND PUSH4 0x8C8FF1D5 DUP14 DUP14 DUP14 PUSH1 0x40 MLOAD DUP5 PUSH4 0xFFFFFFFF AND PUSH1 0xE0 SHL DUP2 MSTORE PUSH1 0x4 ADD PUSH2 0xF35 SWAP4 SWAP3 SWAP2 SWAP1 PUSH2 0x566D JUMP JUMPDEST PUSH1 0xC0 PUSH1 0x40 MLOAD DUP1 DUP4 SUB DUP2 DUP7 DUP1 EXTCODESIZE ISZERO DUP1 ISZERO PUSH2 0xF4D JUMPI PUSH1 0x0 DUP1 REVERT JUMPDEST POP GAS STATICCALL ISZERO DUP1 ISZERO PUSH2 0xF61 JUMPI RETURNDATASIZE PUSH1 0x0 DUP1 RETURNDATACOPY RETURNDATASIZE PUSH1 0x0 REVERT JUMPDEST POP POP POP POP PUSH1 0x40 MLOAD RETURNDATASIZE PUSH1 0x1F NOT PUSH1 0x1F DUP3 ADD AND DUP3 ADD DUP1 PUSH1 0x40 MSTORE POP DUP2 ADD SWAP1 PUSH2 0xF85 SWAP2 SWAP1 PUSH2 0x525C JUMP JUMPDEST PUSH1 0x20 ADD MLOAD DUP8 PUSH1 0x60 ADD MLOAD PUSH2 0xF98 SWAP2 SWAP1 PUSH2 0x59F1 JUMP JUMPDEST PUSH2 0xFA2 SWAP2 SWAP1 PUSH2 0x59F1 JUMP JUMPDEST PUSH2 0xFAC SWAP2 SWAP1 PUSH2 0x59CF JUMP JUMPDEST SWAP1 POP JUMPDEST DUP1 ISZERO PUSH2 0x1038 JUMPI PUSH1 0x40 MLOAD PUSH4 0x33485403 PUSH1 0xE1 SHL DUP2 MSTORE PUSH1 0x1 PUSH1 0x1 PUSH1 0xA0 SHL SUB PUSH32 0x0 AND SWAP1 PUSH4 0x6690A806 SWAP1 PUSH2 0x1005 SWAP1 DUP7 SWAP1 DUP14 SWAP1 DUP7 SWAP1 PUSH1 0x4 ADD PUSH2 0x566D JUMP JUMPDEST PUSH1 0x0 PUSH1 0x40 MLOAD DUP1 DUP4 SUB DUP2 PUSH1 0x0 DUP8 DUP1 EXTCODESIZE ISZERO DUP1 ISZERO PUSH2 0x101F JUMPI PUSH1 0x0 DUP1 REVERT JUMPDEST POP GAS CALL ISZERO DUP1 ISZERO PUSH2 0x1033 JUMPI RETURNDATASIZE PUSH1 0x0 DUP1 RETURNDATACOPY RETURNDATASIZE PUSH1 0x0 REVERT JUMPDEST POP POP POP POP JUMPDEST PUSH1 0x0 PUSH2 0x1057 DUP6 DUP13 DUP13 DUP13 DUP10 PUSH2 0x104D JUMPI PUSH1 0x0 PUSH2 0x1050 JUMP JUMPDEST PUSH1 0x1 JUMPDEST DUP14 DUP9 PUSH2 0x4926 JUMP JUMPDEST SWAP1 POP PUSH2 0x108F PUSH1 0x40 DUP1 MLOAD PUSH1 0xC0 DUP2 ADD DUP3 MSTORE PUSH1 0x0 DUP1 DUP3 MSTORE PUSH1 0x20 DUP3 ADD DUP2 SWAP1 MSTORE SWAP2 DUP2 ADD DUP3 SWAP1 MSTORE PUSH1 0x60 DUP2 ADD DUP3 SWAP1 MSTORE PUSH1 0x80 DUP2 ADD DUP3 SWAP1 MSTORE SWAP1 PUSH1 0xA0 DUP3 ADD MSTORE SWAP1 JUMP JUMPDEST PUSH1 0x1 PUSH1 0x1 PUSH1 0xA0 SHL SUB DUP1 DUP7 AND DUP3 MSTORE PUSH1 0x0 PUSH1 0x20 DUP4 ADD MSTORE DUP13 AND PUSH1 0x40 DUP3 ADD MSTORE PUSH1 0x60 DUP2 ADD DUP12 SWAP1 MSTORE PUSH1 0x80 DUP2 ADD DUP11 SWAP1 MSTORE PUSH1 0xA0 DUP2 ADD DUP10 PUSH1 0x3 DUP2 GT ISZERO PUSH2 0x10CE JUMPI PUSH2 0x10CE PUSH2 0x5A6D JUMP JUMPDEST SWAP1 DUP2 PUSH1 0x3 DUP2 GT ISZERO PUSH2 0x10E1 JUMPI PUSH2 0x10E1 PUSH2 0x5A6D JUMP JUMPDEST SWAP1 MSTORE POP PUSH1 0x40 MLOAD PUSH4 0x205FE869 PUSH1 0xE2 SHL DUP2 MSTORE PUSH1 0x1 PUSH1 0x1 PUSH1 0xA0 SHL SUB PUSH32 0x0 AND SWAP1 PUSH4 0x817FA1A4 SWAP1 PUSH2 0x1132 SWAP1 DUP5 SWAP1 DUP7 SWAP1 PUSH1 0x4 ADD PUSH2 0x586C JUMP JUMPDEST PUSH1 0x0 PUSH1 0x40 MLOAD DUP1 DUP4 SUB DUP2 PUSH1 0x0 DUP8 DUP1 EXTCODESIZE ISZERO DUP1 ISZERO PUSH2 0x114C JUMPI PUSH1 0x0 DUP1 REVERT JUMPDEST POP GAS CALL ISZERO DUP1 ISZERO PUSH2 0x1160 JUMPI RETURNDATASIZE PUSH1 0x0 DUP1 RETURNDATACOPY RETURNDATASIZE PUSH1 0x0 REVERT JUMPDEST POP POP PUSH1 0x40 MLOAD PUSH4 0xE72353D5 PUSH1 0xE0 SHL DUP2 MSTORE PUSH1 0x1 PUSH1 0x1 PUSH1 0xA0 SHL SUB PUSH32 0x0 AND SWAP3 POP PUSH4 0xE72353D5 SWAP2 POP PUSH2 0x11B0 SWAP1 DUP12 SWAP1 PUSH1 0x4 ADD PUSH2 0x58CC JUMP JUMPDEST PUSH1 0x0 PUSH1 0x40 MLOAD DUP1 DUP4 SUB DUP2 PUSH1 0x0 DUP8 DUP1 EXTCODESIZE ISZERO DUP1 ISZERO PUSH2 0x11CA JUMPI PUSH1 0x0 DUP1 REVERT JUMPDEST POP GAS CALL ISZERO DUP1 ISZERO PUSH2 0x11DE JUMPI RETURNDATASIZE PUSH1 0x0 DUP1 RETURNDATACOPY RETURNDATASIZE PUSH1 0x0 REVERT JUMPDEST POP POP POP POP DUP11 DUP13 PUSH1 0x1 PUSH1 0x1 PUSH1 0xA0 SHL SUB AND PUSH32 0x50A583B02839381DFF332433F1A37825291992D796B87483D7C51649EF504D43 DUP5 DUP8 PUSH1 0x40 MLOAD PUSH2 0x1229 SWAP3 SWAP2 SWAP1 SWAP2 DUP3 MSTORE ISZERO ISZERO PUSH1 0x20 DUP3 ADD MSTORE PUSH1 0x40 ADD SWAP1 JUMP JUMPDEST PUSH1 0x40 MLOAD DUP1 SWAP2 SUB SWAP1 LOG3 POP POP POP POP POP POP POP POP POP POP POP POP POP POP JUMP JUMPDEST PUSH32 0x0 PUSH1 0x1 PUSH1 0x1 PUSH1 0xA0 SHL SUB AND PUSH4 0x12D43A51 PUSH1 0x40 MLOAD DUP2 PUSH4 0xFFFFFFFF AND PUSH1 0xE0 SHL DUP2 MSTORE PUSH1 0x4 ADD PUSH1 0x20 PUSH1 0x40 MLOAD DUP1 DUP4 SUB DUP2 DUP7 DUP1 EXTCODESIZE ISZERO DUP1 ISZERO PUSH2 0x129A JUMPI PUSH1 0x0 DUP1 REVERT JUMPDEST POP GAS STATICCALL ISZERO DUP1 ISZERO PUSH2 0x12AE JUMPI RETURNDATASIZE PUSH1 0x0 DUP1 RETURNDATACOPY RETURNDATASIZE PUSH1 0x0 REVERT JUMPDEST POP POP POP POP PUSH1 0x40 MLOAD RETURNDATASIZE PUSH1 0x1F NOT PUSH1 0x1F DUP3 ADD AND DUP3 ADD DUP1 PUSH1 0x40 MSTORE POP DUP2 ADD SWAP1 PUSH2 0x12D2 SWAP2 SWAP1 PUSH2 0x4F04 JUMP JUMPDEST PUSH1 0x1 PUSH1 0x1 PUSH1 0xA0 SHL SUB AND CALLER PUSH1 0x1 PUSH1 0x1 PUSH1 0xA0 SHL SUB AND EQ PUSH2 0x1302 JUMPI PUSH1 0x40 MLOAD PUSH3 0x461BCD PUSH1 0xE5 SHL DUP2 MSTORE PUSH1 0x4 ADD PUSH2 0x58B SWAP1 PUSH2 0x5774 JUMP JUMPDEST PUSH1 0x4 DUP1 SLOAD PUSH1 0xFF DUP1 DUP3 AND ISZERO PUSH1 0xFF NOT SWAP1 SWAP3 AND DUP3 OR SWAP1 SWAP3 SSTORE PUSH1 0x40 MLOAD SWAP2 AND ISZERO ISZERO DUP2 MSTORE PUSH32 0xE2FB031EE032DC02D8011DC50B816EB450CF856ABD8261680DAC74F72165BD2 SWAP1 PUSH1 0x20 ADD JUMPDEST PUSH1 0x40 MLOAD DUP1 SWAP2 SUB SWAP1 LOG1 JUMP JUMPDEST ORIGIN CALLER EQ PUSH2 0x135C JUMPI PUSH1 0x0 DUP1 REVERT JUMPDEST PUSH1 0x4 SLOAD PUSH2 0x100 SWAP1 DIV PUSH1 0xFF AND ISZERO PUSH2 0x1384 JUMPI PUSH1 0x40 MLOAD PUSH3 0x461BCD PUSH1 0xE5 SHL DUP2 MSTORE PUSH1 0x4 ADD PUSH2 0x58B SWAP1 PUSH2 0x5756 JUMP JUMPDEST PUSH1 0x0 PUSH2 0x138E PUSH2 0x4A2 JUMP JUMPDEST PUSH1 0x40 MLOAD PUSH4 0xB66E6B05 PUSH1 0xE0 SHL DUP2 MSTORE PUSH1 0x4 DUP2 ADD DUP5 SWAP1 MSTORE SWAP1 SWAP2 POP PUSH1 0x0 SWAP1 PUSH1 0x1 PUSH1 0x1 PUSH1 0xA0 SHL SUB PUSH32 0x0 AND SWAP1 PUSH4 0xB66E6B05 SWAP1 PUSH1 0x24 ADD PUSH2 0x1E0 PUSH1 0x40 MLOAD DUP1 DUP4 SUB DUP2 DUP7 DUP1 EXTCODESIZE ISZERO DUP1 ISZERO PUSH2 0x13F5 JUMPI PUSH1 0x0 DUP1 REVERT JUMPDEST POP GAS STATICCALL ISZERO DUP1 ISZERO PUSH2 0x1409 JUMPI RETURNDATASIZE PUSH1 0x0 DUP1 RETURNDATACOPY RETURNDATASIZE PUSH1 0x0 REVERT JUMPDEST POP POP POP POP PUSH1 0x40 MLOAD RETURNDATASIZE PUSH1 0x1F NOT PUSH1 0x1F DUP3 ADD AND DUP3 ADD DUP1 PUSH1 0x40 MSTORE POP DUP2 ADD SWAP1 PUSH2 0x142D SWAP2 SWAP1 PUSH2 0x51D9 JUMP JUMPDEST DUP1 MLOAD PUSH1 0x20 DUP3 ADD MLOAD SWAP2 SWAP3 POP SWAP1 ISZERO DUP1 ISZERO SWAP1 PUSH2 0x1457 JUMPI POP PUSH1 0x3 SLOAD DUP3 PUSH1 0x20 ADD MLOAD PUSH2 0x1453 SWAP2 SWAP1 PUSH2 0x59B7 JUMP JUMPDEST NUMBER LT ISZERO JUMPDEST PUSH2 0x1492 JUMPI PUSH1 0x40 MLOAD PUSH3 0x461BCD PUSH1 0xE5 SHL DUP2 MSTORE PUSH1 0x20 PUSH1 0x4 DUP3 ADD MSTORE PUSH1 0xC PUSH1 0x24 DUP3 ADD MSTORE PUSH12 0x15D0525517D512535153D555 PUSH1 0xA2 SHL PUSH1 0x44 DUP3 ADD MSTORE PUSH1 0x64 ADD PUSH2 0x58B JUMP JUMPDEST DUP3 PUSH1 0x1 PUSH1 0x1 PUSH1 0xA0 SHL SUB AND DUP2 PUSH1 0x0 ADD MLOAD PUSH1 0x1 PUSH1 0x1 PUSH1 0xA0 SHL SUB AND EQ PUSH2 0x14E8 JUMPI PUSH1 0x40 MLOAD PUSH3 0x461BCD PUSH1 0xE5 SHL DUP2 MSTORE PUSH1 0x20 PUSH1 0x4 DUP3 ADD MSTORE PUSH1 0xE PUSH1 0x24 DUP3 ADD MSTORE PUSH14 0x2727AA2FACA7AAA92FA7A92222A9 PUSH1 0x91 SHL PUSH1 0x44 DUP3 ADD MSTORE PUSH1 0x64 ADD PUSH2 0x58B JUMP JUMPDEST PUSH1 0x0 DUP2 PUSH1 0xE0 ADD MLOAD GT PUSH2 0x1536 JUMPI PUSH1 0x40 MLOAD PUSH3 0x461BCD PUSH1 0xE5 SHL DUP2 MSTORE PUSH1 0x20 PUSH1 0x4 DUP3 ADD MSTORE PUSH1 0x17 PUSH1 0x24 DUP3 ADD MSTORE PUSH23 0x57524F4E475F4D41524B45545F4F524445525F54595045 PUSH1 0x48 SHL PUSH1 0x44 DUP3 ADD MSTORE PUSH1 0x64 ADD PUSH2 0x58B JUMP JUMPDEST PUSH1 0x40 MLOAD PUSH4 0x195728B PUSH1 0xE7 SHL DUP2 MSTORE PUSH1 0x4 DUP2 ADD DUP6 SWAP1 MSTORE PUSH1 0x1 PUSH1 0x24 DUP3 ADD MSTORE PUSH32 0x0 PUSH1 0x1 PUSH1 0x1 PUSH1 0xA0 SHL SUB AND SWAP1 PUSH4 0xCAB94580 SWAP1 PUSH1 0x44 ADD PUSH1 0x0 PUSH1 0x40 MLOAD DUP1 DUP4 SUB DUP2 PUSH1 0x0 DUP8 DUP1 EXTCODESIZE ISZERO DUP1 ISZERO PUSH2 0x159F JUMPI PUSH1 0x0 DUP1 REVERT JUMPDEST POP GAS CALL ISZERO DUP1 ISZERO PUSH2 0x15B3 JUMPI RETURNDATASIZE PUSH1 0x0 DUP1 RETURNDATACOPY RETURNDATASIZE PUSH1 0x0 REVERT JUMPDEST POP POP POP POP PUSH1 0x80 DUP2 ADD MLOAD PUSH1 0x40 MLOAD PUSH4 0x373873DB PUSH1 0xE1 SHL DUP2 MSTORE PUSH1 0x1 PUSH1 0x1 PUSH1 0xA0 SHL SUB PUSH32 0x0 DUP2 AND PUSH1 0x4 DUP4 ADD DUP2 SWAP1 MSTORE SWAP1 DUP7 AND PUSH1 0x24 DUP4 ADD MSTORE PUSH1 0x44 DUP3 ADD SWAP3 SWAP1 SWAP3 MSTORE PUSH4 0x6E70E7B6 SWAP1 PUSH1 0x64 ADD PUSH1 0x0 PUSH1 0x40 MLOAD DUP1 DUP4 SUB DUP2 PUSH1 0x0 DUP8 DUP1 EXTCODESIZE ISZERO DUP1 ISZERO PUSH2 0x162E JUMPI PUSH1 0x0 DUP1 REVERT JUMPDEST POP GAS CALL ISZERO DUP1 ISZERO PUSH2 0x1642 JUMPI RETURNDATASIZE PUSH1 0x0 DUP1 RETURNDATACOPY RETURNDATASIZE PUSH1 0x0 REVERT JUMPDEST POP POP POP POP DUP4 PUSH32 0x3ADAA586CDBE84DD24E45BD7DADA6DA933D7C2D1C7B4E4CD02FCE033356DECB1 DUP4 PUSH1 0x40 MLOAD PUSH2 0x1676 SWAP2 SWAP1 PUSH2 0x5836 JUMP JUMPDEST PUSH1 0x40 MLOAD DUP1 SWAP2 SUB SWAP1 LOG2 POP POP POP POP JUMP JUMPDEST PUSH32 0x0 PUSH1 0x1 PUSH1 0x1 PUSH1 0xA0 SHL SUB AND PUSH4 0x12D43A51 PUSH1 0x40 MLOAD DUP2 PUSH4 0xFFFFFFFF AND PUSH1 0xE0 SHL DUP2 MSTORE PUSH1 0x4 ADD PUSH1 0x20 PUSH1 0x40 MLOAD DUP1 DUP4 SUB DUP2 DUP7 DUP1 EXTCODESIZE ISZERO DUP1 ISZERO PUSH2 0x16DD JUMPI PUSH1 0x0 DUP1 REVERT JUMPDEST POP GAS STATICCALL ISZERO DUP1 ISZERO PUSH2 0x16F1 JUMPI RETURNDATASIZE PUSH1 0x0 DUP1 RETURNDATACOPY RETURNDATASIZE PUSH1 0x0 REVERT JUMPDEST POP POP POP POP PUSH1 0x40 MLOAD RETURNDATASIZE PUSH1 0x1F NOT PUSH1 0x1F DUP3 ADD AND DUP3 ADD DUP1 PUSH1 0x40 MSTORE POP DUP2 ADD SWAP1 PUSH2 0x1715 SWAP2 SWAP1 PUSH2 0x4F04 JUMP JUMPDEST PUSH1 0x1 PUSH1 0x1 PUSH1 0xA0 SHL SUB AND CALLER PUSH1 0x1 PUSH1 0x1 PUSH1 0xA0 SHL SUB AND EQ PUSH2 0x1745 JUMPI PUSH1 0x40 MLOAD PUSH3 0x461BCD PUSH1 0xE5 SHL DUP2 MSTORE PUSH1 0x4 ADD PUSH2 0x58B SWAP1 PUSH2 0x5774 JUMP JUMPDEST PUSH1 0x0 DUP2 GT PUSH2 0x177F JUMPI PUSH1 0x40 MLOAD PUSH3 0x461BCD PUSH1 0xE5 SHL DUP2 MSTORE PUSH1 0x20 PUSH1 0x4 DUP3 ADD MSTORE PUSH1 0x7 PUSH1 0x24 DUP3 ADD MSTORE PUSH7 0x56414C55455F3 PUSH1 0xCC SHL PUSH1 0x44 DUP3 ADD MSTORE PUSH1 0x64 ADD PUSH2 0x58B JUMP JUMPDEST PUSH1 0x2 DUP2 SWAP1 SSTORE PUSH1 0x40 DUP1 MLOAD DUP2 DUP2 MSTORE PUSH1 0x9 SWAP2 DUP2 ADD SWAP2 SWAP1 SWAP2 MSTORE PUSH9 0x6D6178506F73446169 PUSH1 0xB8 SHL PUSH1 0x60 DUP3 ADD MSTORE PUSH1 0x20 DUP2 ADD DUP3 SWAP1 MSTORE PUSH32 0x8CF3E35F6221B16E1670A3413180C9484BF5AA71787905909FA82A6A2662E9AB SWAP1 PUSH1 0x80 ADD JUMPDEST PUSH1 0x40 MLOAD DUP1 SWAP2 SUB SWAP1 LOG1 POP JUMP JUMPDEST ORIGIN CALLER EQ PUSH2 0x17EA JUMPI PUSH1 0x0 DUP1 REVERT JUMPDEST PUSH1 0x4 SLOAD PUSH2 0x100 SWAP1 DIV PUSH1 0xFF AND ISZERO PUSH2 0x1812 JUMPI PUSH1 0x40 MLOAD PUSH3 0x461BCD PUSH1 0xE5 SHL DUP2 MSTORE PUSH1 0x4 ADD PUSH2 0x58B SWAP1 PUSH2 0x5756 JUMP JUMPDEST PUSH1 0x0 PUSH2 0x181C PUSH2 0x4A2 JUMP JUMPDEST PUSH1 0x40 MLOAD PUSH4 0xB66E6B05 PUSH1 0xE0 SHL DUP2 MSTORE PUSH1 0x4 DUP2 ADD DUP5 SWAP1 MSTORE SWAP1 SWAP2 POP PUSH1 0x0 SWAP1 PUSH1 0x1 PUSH1 0x1 PUSH1 0xA0 SHL SUB PUSH32 0x0 AND SWAP1 PUSH4 0xB66E6B05 SWAP1 PUSH1 0x24 ADD PUSH2 0x1E0 PUSH1 0x40 MLOAD DUP1 DUP4 SUB DUP2 DUP7 DUP1 EXTCODESIZE ISZERO DUP1 ISZERO PUSH2 0x1883 JUMPI PUSH1 0x0 DUP1 REVERT JUMPDEST POP GAS STATICCALL ISZERO DUP1 ISZERO PUSH2 0x1897 JUMPI RETURNDATASIZE PUSH1 0x0 DUP1 RETURNDATACOPY RETURNDATASIZE PUSH1 0x0 REVERT JUMPDEST POP POP POP POP PUSH1 0x40 MLOAD RETURNDATASIZE PUSH1 0x1F NOT PUSH1 0x1F DUP3 ADD AND DUP3 ADD DUP1 PUSH1 0x40 MSTORE POP DUP2 ADD SWAP1 PUSH2 0x18BB SWAP2 SWAP1 PUSH2 0x51D9 JUMP JUMPDEST DUP1 MLOAD PUSH1 0x20 DUP3 ADD MLOAD SWAP2 SWAP3 POP SWAP1 ISZERO DUP1 ISZERO SWAP1 PUSH2 0x18E5 JUMPI POP PUSH1 0x3 SLOAD DUP3 PUSH1 0x20 ADD MLOAD PUSH2 0x18E1 SWAP2 SWAP1 PUSH2 0x59B7 JUMP JUMPDEST NUMBER LT ISZERO JUMPDEST PUSH2 0x1920 JUMPI PUSH1 0x40 MLOAD PUSH3 0x461BCD PUSH1 0xE5 SHL DUP2 MSTORE PUSH1 0x20 PUSH1 0x4 DUP3 ADD MSTORE PUSH1 0xC PUSH1 0x24 DUP3 ADD MSTORE PUSH12 0x15D0525517D512535153D555 PUSH1 0xA2 SHL PUSH1 0x44 DUP3 ADD MSTORE PUSH1 0x64 ADD PUSH2 0x58B JUMP JUMPDEST DUP3 PUSH1 0x1 PUSH1 0x1 PUSH1 0xA0 SHL SUB AND DUP2 PUSH1 0x0 ADD MLOAD PUSH1 0x1 PUSH1 0x1 PUSH1 0xA0 SHL SUB AND EQ PUSH2 0x1976 JUMPI PUSH1 0x40 MLOAD PUSH3 0x461BCD PUSH1 0xE5 SHL DUP2 MSTORE PUSH1 0x20 PUSH1 0x4 DUP3 ADD MSTORE PUSH1 0xE PUSH1 0x24 DUP3 ADD MSTORE PUSH14 0x2727AA2FACA7AAA92FA7A92222A9 PUSH1 0x91 SHL PUSH1 0x44 DUP3 ADD MSTORE PUSH1 0x64 ADD PUSH2 0x58B JUMP JUMPDEST PUSH1 0xE0 DUP2 ADD MLOAD ISZERO PUSH2 0x19C2 JUMPI PUSH1 0x40 MLOAD PUSH3 0x461BCD PUSH1 0xE5 SHL DUP2 MSTORE PUSH1 0x20 PUSH1 0x4 DUP3 ADD MSTORE PUSH1 0x17 PUSH1 0x24 DUP3 ADD MSTORE PUSH23 0x57524F4E475F4D41524B45545F4F524445525F54595045 PUSH1 0x48 SHL PUSH1 0x44 DUP3 ADD MSTORE PUSH1 0x64 ADD PUSH2 0x58B JUMP JUMPDEST PUSH1 0x40 MLOAD PUSH4 0x195728B PUSH1 0xE7 SHL DUP2 MSTORE PUSH1 0x4 DUP2 ADD DUP6 SWAP1 MSTORE PUSH1 0x0 PUSH1 0x24 DUP3 ADD MSTORE PUSH32 0x0 PUSH1 0x1 PUSH1 0x1 PUSH1 0xA0 SHL SUB AND SWAP1 PUSH4 0xCAB94580 SWAP1 PUSH1 0x44 ADD PUSH1 0x0 PUSH1 0x40 MLOAD DUP1 DUP4 SUB DUP2 PUSH1 0x0 DUP8 DUP1 EXTCODESIZE ISZERO DUP1 ISZERO PUSH2 0x1A2B JUMPI PUSH1 0x0 DUP1 REVERT JUMPDEST POP GAS CALL ISZERO DUP1 ISZERO PUSH2 0x1A3F JUMPI RETURNDATASIZE PUSH1 0x0 DUP1 RETURNDATACOPY RETURNDATASIZE PUSH1 0x0 REVERT JUMPDEST POP POP POP PUSH1 0x20 DUP3 ADD MLOAD PUSH1 0x40 DUP1 DUP5 ADD MLOAD SWAP1 MLOAD PUSH1 0x24 DUP2 ADD SWAP3 SWAP1 SWAP3 MSTORE PUSH1 0x44 DUP3 ADD MSTORE PUSH1 0x0 SWAP2 POP ADDRESS SWAP1 PUSH1 0x64 ADD PUSH1 0x40 DUP1 MLOAD PUSH1 0x1F NOT DUP2 DUP5 SUB ADD DUP2 MSTORE SWAP2 DUP2 MSTORE PUSH1 0x20 DUP3 ADD DUP1 MLOAD PUSH1 0x1 PUSH1 0x1 PUSH1 0xE0 SHL SUB AND PUSH4 0xA2A3C0CB PUSH1 0xE0 SHL OR SWAP1 MSTORE MLOAD PUSH2 0x1A9A SWAP2 SWAP1 PUSH2 0x560D JUMP JUMPDEST PUSH1 0x0 PUSH1 0x40 MLOAD DUP1 DUP4 SUB DUP2 DUP6 GAS DELEGATECALL SWAP2 POP POP RETURNDATASIZE DUP1 PUSH1 0x0 DUP2 EQ PUSH2 0x1AD5 JUMPI PUSH1 0x40 MLOAD SWAP2 POP PUSH1 0x1F NOT PUSH1 0x3F RETURNDATASIZE ADD AND DUP3 ADD PUSH1 0x40 MSTORE RETURNDATASIZE DUP3 MSTORE RETURNDATASIZE PUSH1 0x0 PUSH1 0x20 DUP5 ADD RETURNDATACOPY PUSH2 0x1ADA JUMP JUMPDEST PUSH1 0x60 SWAP2 POP JUMPDEST POP POP SWAP1 POP DUP1 PUSH2 0x1B30 JUMPI DUP2 PUSH1 0x20 ADD MLOAD DUP5 PUSH1 0x1 PUSH1 0x1 PUSH1 0xA0 SHL SUB AND PUSH32 0x60E497734DDABCD7293FD91739AAF65CF525EB539C97BE528125A235A89288D8 DUP5 PUSH1 0x40 ADD MLOAD PUSH1 0x40 MLOAD PUSH2 0x1B27 SWAP2 DUP2 MSTORE PUSH1 0x20 ADD SWAP1 JUMP JUMPDEST PUSH1 0x40 MLOAD DUP1 SWAP2 SUB SWAP1 LOG3 JUMPDEST DUP5 PUSH32 0x3ADAA586CDBE84DD24E45BD7DADA6DA933D7C2D1C7B4E4CD02FCE033356DECB1 DUP5 PUSH1 0x40 MLOAD PUSH2 0x1B60 SWAP2 SWAP1 PUSH2 0x5836 JUMP JUMPDEST PUSH1 0x40 MLOAD DUP1 SWAP2 SUB SWAP1 LOG2 POP POP POP POP POP JUMP JUMPDEST PUSH1 0x1 PUSH1 0x1 PUSH1 0xA0 SHL SUB DUP4 DUP2 AND PUSH1 0x0 SWAP1 DUP2 MSTORE PUSH1 0x20 DUP2 SWAP1 MSTORE PUSH1 0x40 SWAP1 KECCAK256 SLOAD PUSH1 0x60 SWAP2 AND CALLER EQ PUSH2 0x1BD3 JUMPI PUSH1 0x40 MLOAD PUSH3 0x461BCD PUSH1 0xE5 SHL DUP2 MSTORE PUSH1 0x20 PUSH1 0x4 DUP3 ADD MSTORE PUSH1 0x15 PUSH1 0x24 DUP3 ADD MSTORE PUSH21 0x1111531151D0551157D393D517D054141493D59151 PUSH1 0x5A SHL PUSH1 0x44 DUP3 ADD MSTORE PUSH1 0x64 ADD PUSH2 0x58B JUMP JUMPDEST PUSH1 0x1 DUP1 SLOAD PUSH1 0x1 PUSH1 0x1 PUSH1 0xA0 SHL SUB NOT AND PUSH1 0x1 PUSH1 0x1 PUSH1 0xA0 SHL SUB DUP7 AND OR SWAP1 SSTORE PUSH1 0x40 MLOAD PUSH1 0x0 SWAP1 DUP2 SWAP1 ADDRESS SWAP1 PUSH2 0x1C05 SWAP1 DUP8 SWAP1 DUP8 SWAP1 PUSH2 0x55FD JUMP JUMPDEST PUSH1 0x0 PUSH1 0x40 MLOAD DUP1 DUP4 SUB DUP2 DUP6 GAS DELEGATECALL SWAP2 POP POP RETURNDATASIZE DUP1 PUSH1 0x0 DUP2 EQ PUSH2 0x1C40 JUMPI PUSH1 0x40 MLOAD SWAP2 POP PUSH1 0x1F NOT PUSH1 0x3F RETURNDATASIZE ADD AND DUP3 ADD PUSH1 0x40 MSTORE RETURNDATASIZE DUP3 MSTORE RETURNDATASIZE PUSH1 0x0 PUSH1 0x20 DUP5 ADD RETURNDATACOPY PUSH2 0x1C45 JUMP JUMPDEST PUSH1 0x60 SWAP2 POP JUMPDEST POP SWAP2 POP SWAP2 POP DUP2 PUSH2 0x1C91 JUMPI PUSH1 0x44 DUP2 MLOAD LT ISZERO PUSH2 0x1C5E JUMPI PUSH1 0x0 DUP1 REVERT JUMPDEST PUSH1 0x4 DUP2 ADD SWAP1 POP DUP1 DUP1 PUSH1 0x20 ADD SWAP1 MLOAD DUP2 ADD SWAP1 PUSH2 0x1C78 SWAP2 SWAP1 PUSH2 0x4FFC JUMP JUMPDEST PUSH1 0x40 MLOAD PUSH3 0x461BCD PUSH1 0xE5 SHL DUP2 MSTORE PUSH1 0x4 ADD PUSH2 0x58B SWAP2 SWAP1 PUSH2 0x56FF JUMP JUMPDEST PUSH1 0x1 DUP1 SLOAD PUSH1 0x1 PUSH1 0x1 PUSH1 0xA0 SHL SUB NOT AND SWAP1 SSTORE SWAP6 SWAP5 POP POP POP POP POP JUMP JUMPDEST ORIGIN CALLER EQ PUSH2 0x1CB6 JUMPI PUSH1 0x0 DUP1 REVERT JUMPDEST PUSH1 0x4 SLOAD PUSH2 0x100 SWAP1 DIV PUSH1 0xFF AND ISZERO PUSH2 0x1CDE JUMPI PUSH1 0x40 MLOAD PUSH3 0x461BCD PUSH1 0xE5 SHL DUP2 MSTORE PUSH1 0x4 ADD PUSH2 0x58B SWAP1 PUSH2 0x5756 JUMP JUMPDEST PUSH1 0x0 PUSH2 0x1CE8 PUSH2 0x4A2 JUMP JUMPDEST SWAP1 POP PUSH1 0x0 PUSH32 0x0 PUSH1 0x1 PUSH1 0x1 PUSH1 0xA0 SHL SUB AND PUSH4 0xA3A80FFE DUP4 DUP7 DUP7 PUSH1 0x40 MLOAD DUP5 PUSH4 0xFFFFFFFF AND PUSH1 0xE0 SHL DUP2 MSTORE PUSH1 0x4 ADD PUSH2 0x1D3C SWAP4 SWAP3 SWAP2 SWAP1 PUSH2 0x566D JUMP JUMPDEST PUSH2 0x140 PUSH1 0x40 MLOAD DUP1 DUP4 SUB DUP2 DUP7 DUP1 EXTCODESIZE ISZERO DUP1 ISZERO PUSH2 0x1D55 JUMPI PUSH1 0x0 DUP1 REVERT JUMPDEST POP GAS STATICCALL ISZERO DUP1 ISZERO PUSH2 0x1D69 JUMPI RETURNDATASIZE PUSH1 0x0 DUP1 RETURNDATACOPY RETURNDATASIZE PUSH1 0x0 REVERT JUMPDEST POP POP POP POP PUSH1 0x40 MLOAD RETURNDATASIZE PUSH1 0x1F NOT PUSH1 0x1F DUP3 ADD AND DUP3 ADD DUP1 PUSH1 0x40 MSTORE POP DUP2 ADD SWAP1 PUSH2 0x1D8D SWAP2 SWAP1 PUSH2 0x52DC JUMP JUMPDEST SWAP1 POP PUSH1 0x0 PUSH32 0x0 PUSH1 0x1 PUSH1 0x1 PUSH1 0xA0 SHL SUB AND PUSH4 0x8C8FF1D5 DUP5 DUP8 DUP8 PUSH1 0x40 MLOAD DUP5 PUSH4 0xFFFFFFFF AND PUSH1 0xE0 SHL DUP2 MSTORE PUSH1 0x4 ADD PUSH2 0x1DE1 SWAP4 SWAP3 SWAP2 SWAP1 PUSH2 0x566D JUMP JUMPDEST PUSH1 0xC0 PUSH1 0x40 MLOAD DUP1 DUP4 SUB DUP2 DUP7 DUP1 EXTCODESIZE ISZERO DUP1 ISZERO PUSH2 0x1DF9 JUMPI PUSH1 0x0 DUP1 REVERT JUMPDEST POP GAS STATICCALL ISZERO DUP1 ISZERO PUSH2 0x1E0D JUMPI RETURNDATASIZE PUSH1 0x0 DUP1 RETURNDATACOPY RETURNDATASIZE PUSH1 0x0 REVERT JUMPDEST POP POP POP POP PUSH1 0x40 MLOAD RETURNDATASIZE PUSH1 0x1F NOT PUSH1 0x1F DUP3 ADD AND DUP3 ADD DUP1 PUSH1 0x40 MSTORE POP DUP2 ADD SWAP1 PUSH2 0x1E31 SWAP2 SWAP1 PUSH2 0x525C JUMP JUMPDEST SWAP1 POP PUSH32 0x0 PUSH1 0x1 PUSH1 0x1 PUSH1 0xA0 SHL SUB AND PUSH4 0x8049FDE7 PUSH1 0x40 MLOAD DUP2 PUSH4 0xFFFFFFFF AND PUSH1 0xE0 SHL DUP2 MSTORE PUSH1 0x4 ADD PUSH1 0x20 PUSH1 0x40 MLOAD DUP1 DUP4 SUB DUP2 DUP7 DUP1 EXTCODESIZE ISZERO DUP1 ISZERO PUSH2 0x1E8C JUMPI PUSH1 0x0 DUP1 REVERT JUMPDEST POP GAS STATICCALL ISZERO DUP1 ISZERO PUSH2 0x1EA0 JUMPI RETURNDATASIZE PUSH1 0x0 DUP1 RETURNDATACOPY RETURNDATASIZE PUSH1 0x0 REVERT JUMPDEST POP POP POP POP PUSH1 0x40 MLOAD RETURNDATASIZE PUSH1 0x1F NOT PUSH1 0x1F DUP3 ADD AND DUP3 ADD DUP1 PUSH1 0x40 MSTORE POP DUP2 ADD SWAP1 PUSH2 0x1EC4 SWAP2 SWAP1 PUSH2 0x53ED JUMP JUMPDEST PUSH1 0x40 MLOAD PUSH4 0xF7B3C6FD PUSH1 0xE0 SHL DUP2 MSTORE PUSH1 0x1 PUSH1 0x1 PUSH1 0xA0 SHL SUB DUP6 DUP2 AND PUSH1 0x4 DUP4 ADD MSTORE PUSH32 0x0 AND SWAP1 PUSH4 0xF7B3C6FD SWAP1 PUSH1 0x24 ADD PUSH1 0x20 PUSH1 0x40 MLOAD DUP1 DUP4 SUB DUP2 DUP7 DUP1 EXTCODESIZE ISZERO DUP1 ISZERO PUSH2 0x1F25 JUMPI PUSH1 0x0 DUP1 REVERT JUMPDEST POP GAS STATICCALL ISZERO DUP1 ISZERO PUSH2 0x1F39 JUMPI RETURNDATASIZE PUSH1 0x0 DUP1 RETURNDATACOPY RETURNDATASIZE PUSH1 0x0 REVERT JUMPDEST POP POP POP POP PUSH1 0x40 MLOAD RETURNDATASIZE PUSH1 0x1F NOT PUSH1 0x1F DUP3 ADD AND DUP3 ADD DUP1 PUSH1 0x40 MSTORE POP DUP2 ADD SWAP1 PUSH2 0x1F5D SWAP2 SWAP1 PUSH2 0x53ED JUMP JUMPDEST LT PUSH2 0x1F9F JUMPI PUSH1 0x40 MLOAD PUSH3 0x461BCD PUSH1 0xE5 SHL DUP2 MSTORE PUSH1 0x20 PUSH1 0x4 DUP3 ADD MSTORE PUSH1 0x12 PUSH1 0x24 DUP3 ADD MSTORE PUSH18 0x4D41585F50454E44494E475F4F5244455253 PUSH1 0x70 SHL PUSH1 0x44 DUP3 ADD MSTORE PUSH1 0x64 ADD PUSH2 0x58B JUMP JUMPDEST DUP1 PUSH1 0xA0 ADD MLOAD ISZERO PUSH2 0x1FE8 JUMPI PUSH1 0x40 MLOAD PUSH3 0x461BCD PUSH1 0xE5 SHL DUP2 MSTORE PUSH1 0x20 PUSH1 0x4 DUP3 ADD MSTORE PUSH1 0x14 PUSH1 0x24 DUP3 ADD MSTORE PUSH20 0x1053149150511657D091525391D7D0D313D4D151 PUSH1 0x62 SHL PUSH1 0x44 DUP3 ADD MSTORE PUSH1 0x64 ADD PUSH2 0x58B JUMP JUMPDEST PUSH1 0x0 DUP3 PUSH1 0xE0 ADD MLOAD GT PUSH2 0x200C JUMPI PUSH1 0x40 MLOAD PUSH3 0x461BCD PUSH1 0xE5 SHL DUP2 MSTORE PUSH1 0x4 ADD PUSH2 0x58B SWAP1 PUSH2 0x5712 JUMP JUMPDEST PUSH1 0x0 PUSH32 0x0 PUSH1 0x1 PUSH1 0x1 PUSH1 0xA0 SHL SUB AND PUSH4 0x3078FFF5 PUSH1 0x40 MLOAD DUP2 PUSH4 0xFFFFFFFF AND PUSH1 0xE0 SHL DUP2 MSTORE PUSH1 0x4 ADD PUSH1 0x20 PUSH1 0x40 MLOAD DUP1 DUP4 SUB DUP2 DUP7 DUP1 EXTCODESIZE ISZERO DUP1 ISZERO PUSH2 0x2067 JUMPI PUSH1 0x0 DUP1 REVERT JUMPDEST POP GAS STATICCALL ISZERO DUP1 ISZERO PUSH2 0x207B JUMPI RETURNDATASIZE PUSH1 0x0 DUP1 RETURNDATACOPY RETURNDATASIZE PUSH1 0x0 REVERT JUMPDEST POP POP POP POP PUSH1 0x40 MLOAD RETURNDATASIZE PUSH1 0x1F NOT PUSH1 0x1F DUP3 ADD AND DUP3 ADD DUP1 PUSH1 0x40 MSTORE POP DUP2 ADD SWAP1 PUSH2 0x209F SWAP2 SWAP1 PUSH2 0x4F04 JUMP JUMPDEST PUSH1 0x1 PUSH1 0x1 PUSH1 0xA0 SHL SUB AND PUSH4 0x6938C05D DUP8 PUSH1 0x1 PUSH5 0x2540BE400 DUP8 PUSH1 0xE0 ADD MLOAD DUP8 PUSH1 0x20 ADD MLOAD DUP10 PUSH1 0x60 ADD MLOAD PUSH2 0x20CF SWAP2 SWAP1 PUSH2 0x59F1 JUMP JUMPDEST PUSH2 0x20D9 SWAP2 SWAP1 PUSH2 0x59F1 JUMP JUMPDEST PUSH2 0x20E3 SWAP2 SWAP1 PUSH2 0x59CF JUMP JUMPDEST PUSH2 0x20EB PUSH2 0x4BC8 JUMP JUMPDEST PUSH1 0x40 MLOAD DUP6 PUSH4 0xFFFFFFFF AND PUSH1 0xE0 SHL DUP2 MSTORE PUSH1 0x4 ADD PUSH2 0x210A SWAP5 SWAP4 SWAP3 SWAP2 SWAP1 PUSH2 0x590D JUMP JUMPDEST PUSH1 0x20 PUSH1 0x40 MLOAD DUP1 DUP4 SUB DUP2 PUSH1 0x0 DUP8 DUP1 EXTCODESIZE ISZERO DUP1 ISZERO PUSH2 0x2124 JUMPI PUSH1 0x0 DUP1 REVERT JUMPDEST POP GAS CALL ISZERO DUP1 ISZERO PUSH2 0x2138 JUMPI RETURNDATASIZE PUSH1 0x0 DUP1 RETURNDATACOPY RETURNDATASIZE PUSH1 0x0 REVERT JUMPDEST POP POP POP POP PUSH1 0x40 MLOAD RETURNDATASIZE PUSH1 0x1F NOT PUSH1 0x1F DUP3 ADD AND DUP3 ADD DUP1 PUSH1 0x40 MSTORE POP DUP2 ADD SWAP1 PUSH2 0x215C SWAP2 SWAP1 PUSH2 0x53ED JUMP JUMPDEST SWAP1 POP PUSH32 0x0 PUSH1 0x1 PUSH1 0x1 PUSH1 0xA0 SHL SUB AND PUSH4 0xC76FAF78 PUSH1 0x40 MLOAD DUP1 PUSH1 0xC0 ADD PUSH1 0x40 MSTORE DUP1 PUSH1 0x40 MLOAD DUP1 PUSH2 0x140 ADD PUSH1 0x40 MSTORE DUP1 DUP10 PUSH1 0x1 PUSH1 0x1 PUSH1 0xA0 SHL SUB AND DUP2 MSTORE PUSH1 0x20 ADD DUP12 DUP2 MSTORE PUSH1 0x20 ADD DUP11 DUP2 MSTORE PUSH1 0x20 ADD PUSH1 0x0 DUP2 MSTORE PUSH1 0x20 ADD PUSH1 0x0 DUP2 MSTORE PUSH1 0x20 ADD PUSH1 0x0 DUP2 MSTORE PUSH1 0x20 ADD PUSH1 0x0 ISZERO ISZERO DUP2 MSTORE PUSH1 0x20 ADD PUSH1 0x0 DUP2 MSTORE PUSH1 0x20 ADD PUSH1 0x0 DUP2 MSTORE PUSH1 0x20 ADD PUSH1 0x0 DUP2 MSTORE POP DUP2 MSTORE PUSH1 0x20 ADD PUSH1 0x0 DUP2 MSTORE PUSH1 0x20 ADD PUSH1 0x0 DUP2 MSTORE PUSH1 0x20 ADD PUSH1 0x0 DUP2 MSTORE PUSH1 0x20 ADD PUSH1 0x0 DUP2 MSTORE PUSH1 0x20 ADD PUSH1 0x0 DUP2 MSTORE POP DUP4 PUSH1 0x0 PUSH1 0x40 MLOAD DUP5 PUSH4 0xFFFFFFFF AND PUSH1 0xE0 SHL DUP2 MSTORE PUSH1 0x4 ADD PUSH2 0x2237 SWAP4 SWAP3 SWAP2 SWAP1 PUSH2 0x5845 JUMP JUMPDEST PUSH1 0x0 PUSH1 0x40 MLOAD DUP1 DUP4 SUB DUP2 PUSH1 0x0 DUP8 DUP1 EXTCODESIZE ISZERO DUP1 ISZERO PUSH2 0x2251 JUMPI PUSH1 0x0 DUP1 REVERT JUMPDEST POP GAS CALL ISZERO DUP1 ISZERO PUSH2 0x2265 JUMPI RETURNDATASIZE PUSH1 0x0 DUP1 RETURNDATACOPY RETURNDATASIZE PUSH1 0x0 REVERT JUMPDEST POP POP POP POP DUP6 DUP5 PUSH1 0x1 PUSH1 0x1 PUSH1 0xA0 SHL SUB AND DUP3 PUSH32 0x3E544118C04E3BB18B669475695CD270BA0E41FB13177483F01C14222DE62A86 PUSH1 0x0 PUSH1 0x40 MLOAD PUSH2 0x22A9 SWAP2 ISZERO ISZERO DUP2 MSTORE PUSH1 0x20 ADD SWAP1 JUMP JUMPDEST PUSH1 0x40 MLOAD DUP1 SWAP2 SUB SWAP1 LOG4 POP POP POP POP POP POP JUMP JUMPDEST PUSH32 0x0 PUSH1 0x1 PUSH1 0x1 PUSH1 0xA0 SHL SUB AND PUSH4 0x12D43A51 PUSH1 0x40 MLOAD DUP2 PUSH4 0xFFFFFFFF AND PUSH1 0xE0 SHL DUP2 MSTORE PUSH1 0x4 ADD PUSH1 0x20 PUSH1 0x40 MLOAD DUP1 DUP4 SUB DUP2 DUP7 DUP1 EXTCODESIZE ISZERO DUP1 ISZERO PUSH2 0x2312 JUMPI PUSH1 0x0 DUP1 REVERT JUMPDEST POP GAS STATICCALL ISZERO DUP1 ISZERO PUSH2 0x2326 JUMPI RETURNDATASIZE PUSH1 0x0 DUP1 RETURNDATACOPY RETURNDATASIZE PUSH1 0x0 REVERT JUMPDEST POP POP POP POP PUSH1 0x40 MLOAD RETURNDATASIZE PUSH1 0x1F NOT PUSH1 0x1F DUP3 ADD AND DUP3 ADD DUP1 PUSH1 0x40 MSTORE POP DUP2 ADD SWAP1 PUSH2 0x234A SWAP2 SWAP1 PUSH2 0x4F04 JUMP JUMPDEST PUSH1 0x1 PUSH1 0x1 PUSH1 0xA0 SHL SUB AND CALLER PUSH1 0x1 PUSH1 0x1 PUSH1 0xA0 SHL SUB AND EQ PUSH2 0x237A JUMPI PUSH1 0x40 MLOAD PUSH3 0x461BCD PUSH1 0xE5 SHL DUP2 MSTORE PUSH1 0x4 ADD PUSH2 0x58B SWAP1 PUSH2 0x5774 JUMP JUMPDEST PUSH1 0x4 DUP1 SLOAD PUSH1 0xFF PUSH2 0x100 DUP1 DUP4 DIV DUP3 AND ISZERO DUP2 MUL PUSH2 0xFF00 NOT SWAP1 SWAP4 AND SWAP3 SWAP1 SWAP3 OR SWAP3 DUP4 SWAP1 SSTORE PUSH1 0x40 MLOAD PUSH32 0xC3A6F986261DE9467C2838C6DF8EF74F9107855159205600C0BC7A14CDFD3888 SWAP4 PUSH2 0x1346 SWAP4 SWAP1 DIV SWAP1 SWAP2 AND ISZERO ISZERO DUP2 MSTORE PUSH1 0x20 ADD SWAP1 JUMP JUMPDEST PUSH32 0x0 PUSH1 0x1 PUSH1 0x1 PUSH1 0xA0 SHL SUB AND PUSH4 0x12D43A51 PUSH1 0x40 MLOAD DUP2 PUSH4 0xFFFFFFFF AND PUSH1 0xE0 SHL DUP2 MSTORE PUSH1 0x4 ADD PUSH1 0x20 PUSH1 0x40 MLOAD DUP1 DUP4 SUB DUP2 DUP7 DUP1 EXTCODESIZE ISZERO DUP1 ISZERO PUSH2 0x242B JUMPI PUSH1 0x0 DUP1 REVERT JUMPDEST POP GAS STATICCALL ISZERO DUP1 ISZERO PUSH2 0x243F JUMPI RETURNDATASIZE PUSH1 0x0 DUP1 RETURNDATACOPY RETURNDATASIZE PUSH1 0x0 REVERT JUMPDEST POP POP POP POP PUSH1 0x40 MLOAD RETURNDATASIZE PUSH1 0x1F NOT PUSH1 0x1F DUP3 ADD AND DUP3 ADD DUP1 PUSH1 0x40 MSTORE POP DUP2 ADD SWAP1 PUSH2 0x2463 SWAP2 SWAP1 PUSH2 0x4F04 JUMP JUMPDEST PUSH1 0x1 PUSH1 0x1 PUSH1 0xA0 SHL SUB AND CALLER PUSH1 0x1 PUSH1 0x1 PUSH1 0xA0 SHL SUB AND EQ PUSH2 0x2493 JUMPI PUSH1 0x40 MLOAD PUSH3 0x461BCD PUSH1 0xE5 SHL DUP2 MSTORE PUSH1 0x4 ADD PUSH2 0x58B SWAP1 PUSH2 0x5774 JUMP JUMPDEST PUSH1 0x0 DUP2 GT PUSH2 0x24CD JUMPI PUSH1 0x40 MLOAD PUSH3 0x461BCD PUSH1 0xE5 SHL DUP2 MSTORE PUSH1 0x20 PUSH1 0x4 DUP3 ADD MSTORE PUSH1 0x7 PUSH1 0x24 DUP3 ADD MSTORE PUSH7 0x56414C55455F3 PUSH1 0xCC SHL PUSH1 0x44 DUP3 ADD MSTORE PUSH1 0x64 ADD PUSH2 0x58B JUMP JUMPDEST PUSH1 0x3 DUP2 SWAP1 SSTORE PUSH1 0x40 DUP1 MLOAD DUP2 DUP2 MSTORE PUSH1 0x13 SWAP2 DUP2 ADD SWAP2 SWAP1 SWAP2 MSTORE PUSH19 0x1B585C9AD95D13DC99195C9CD51A5B595BDD5D PUSH1 0x6A SHL PUSH1 0x60 DUP3 ADD MSTORE PUSH1 0x20 DUP2 ADD DUP3 SWAP1 MSTORE PUSH32 0x8CF3E35F6221B16E1670A3413180C9484BF5AA71787905909FA82A6A2662E9AB SWAP1 PUSH1 0x80 ADD PUSH2 0x17D3 JUMP JUMPDEST ORIGIN CALLER EQ PUSH2 0x253B JUMPI PUSH1 0x0 DUP1 REVERT JUMPDEST PUSH1 0x4 SLOAD PUSH2 0x100 SWAP1 DIV PUSH1 0xFF AND ISZERO PUSH2 0x2563 JUMPI PUSH1 0x40 MLOAD PUSH3 0x461BCD PUSH1 0xE5 SHL DUP2 MSTORE PUSH1 0x4 ADD PUSH2 0x58B SWAP1 PUSH2 0x5756 JUMP JUMPDEST PUSH1 0x0 PUSH2 0x256D PUSH2 0x4A2 JUMP JUMPDEST PUSH1 0x40 MLOAD PUSH4 0x6E6F99CD PUSH1 0xE1 SHL DUP2 MSTORE SWAP1 SWAP2 POP PUSH1 0x1 PUSH1 0x1 PUSH1 0xA0 SHL SUB PUSH32 0x0 AND SWAP1 PUSH4 0xDCDF339A SWAP1 PUSH2 0x25C0 SWAP1 DUP5 SWAP1 DUP8 SWAP1 DUP8 SWAP1 PUSH1 0x4 ADD PUSH2 0x566D JUMP JUMPDEST PUSH1 0x20 PUSH1 0x40 MLOAD DUP1 DUP4 SUB DUP2 DUP7 DUP1 EXTCODESIZE ISZERO DUP1 ISZERO PUSH2 0x25D8 JUMPI PUSH1 0x0 DUP1 REVERT JUMPDEST POP GAS STATICCALL ISZERO DUP1 ISZERO PUSH2 0x25EC JUMPI RETURNDATASIZE PUSH1 0x0 DUP1 RETURNDATACOPY RETURNDATASIZE PUSH1 0x0 REVERT JUMPDEST POP POP POP POP PUSH1 0x40 MLOAD RETURNDATASIZE PUSH1 0x1F NOT PUSH1 0x1F DUP3 ADD AND DUP3 ADD DUP1 PUSH1 0x40 MSTORE POP DUP2 ADD SWAP1 PUSH2 0x2610 SWAP2 SWAP1 PUSH2 0x4FDF JUMP JUMPDEST PUSH2 0x262C JUMPI PUSH1 0x40 MLOAD PUSH3 0x461BCD PUSH1 0xE5 SHL DUP2 MSTORE PUSH1 0x4 ADD PUSH2 0x58B SWAP1 PUSH2 0x5734 JUMP JUMPDEST PUSH1 0x40 MLOAD PUSH4 0x2E21E28B PUSH1 0xE2 SHL DUP2 MSTORE PUSH1 0x0 SWAP1 PUSH1 0x1 PUSH1 0x1 PUSH1 0xA0 SHL SUB PUSH32 0x0 AND SWAP1 PUSH4 0xB8878A2C SWAP1 PUSH2 0x267F SWAP1 DUP6 SWAP1 DUP9 SWAP1 DUP9 SWAP1 PUSH1 0x4 ADD PUSH2 0x566D JUMP JUMPDEST PUSH2 0x1A0 PUSH1 0x40 MLOAD DUP1 DUP4 SUB DUP2 DUP7 DUP1 EXTCODESIZE ISZERO DUP1 ISZERO PUSH2 0x2698 JUMPI PUSH1 0x0 DUP1 REVERT JUMPDEST POP GAS STATICCALL ISZERO DUP1 ISZERO PUSH2 0x26AC JUMPI RETURNDATASIZE PUSH1 0x0 DUP1 RETURNDATACOPY RETURNDATASIZE PUSH1 0x0 REVERT JUMPDEST POP POP POP POP PUSH1 0x40 MLOAD RETURNDATASIZE PUSH1 0x1F NOT PUSH1 0x1F DUP3 ADD AND DUP3 ADD DUP1 PUSH1 0x40 MSTORE POP DUP2 ADD SWAP1 PUSH2 0x26D0 SWAP2 SWAP1 PUSH2 0x5126 JUMP JUMPDEST SWAP1 POP PUSH2 0x26DF DUP3 DUP6 DUP6 PUSH1 0x3 PUSH2 0x473C JUMP JUMPDEST POP PUSH1 0x40 MLOAD PUSH4 0xB4B0F567 PUSH1 0xE0 SHL DUP2 MSTORE PUSH1 0x1 PUSH1 0x1 PUSH1 0xA0 SHL SUB PUSH32 0x0 AND SWAP1 PUSH4 0xB4B0F567 SWAP1 PUSH2 0x2730 SWAP1 DUP6 SWAP1 DUP9 SWAP1 DUP9 SWAP1 PUSH1 0x4 ADD PUSH2 0x566D JUMP JUMPDEST PUSH1 0x0 PUSH1 0x40 MLOAD DUP1 DUP4 SUB DUP2 PUSH1 0x0 DUP8 DUP1 EXTCODESIZE ISZERO DUP1 ISZERO PUSH2 0x274A JUMPI PUSH1 0x0 DUP1 REVERT JUMPDEST POP GAS CALL ISZERO DUP1 ISZERO PUSH2 0x275E JUMPI RETURNDATASIZE PUSH1 0x0 DUP1 RETURNDATACOPY RETURNDATASIZE PUSH1 0x0 REVERT JUMPDEST POP POP POP POP PUSH1 0x60 DUP2 ADD MLOAD PUSH1 0x40 MLOAD PUSH4 0x373873DB PUSH1 0xE1 SHL DUP2 MSTORE PUSH1 0x1 PUSH1 0x1 PUSH1 0xA0 SHL SUB PUSH32 0x0 DUP2 AND PUSH1 0x4 DUP4 ADD DUP2 SWAP1 MSTORE SWAP1 DUP6 AND PUSH1 0x24 DUP4 ADD MSTORE PUSH1 0x44 DUP3 ADD SWAP3 SWAP1 SWAP3 MSTORE PUSH4 0x6E70E7B6 SWAP1 PUSH1 0x64 ADD PUSH1 0x0 PUSH1 0x40 MLOAD DUP1 DUP4 SUB DUP2 PUSH1 0x0 DUP8 DUP1 EXTCODESIZE ISZERO DUP1 ISZERO PUSH2 0x27D9 JUMPI PUSH1 0x0 DUP1 REVERT JUMPDEST POP GAS CALL ISZERO DUP1 ISZERO PUSH2 0x27ED JUMPI RETURNDATASIZE PUSH1 0x0 DUP1 RETURNDATACOPY RETURNDATASIZE PUSH1 0x0 REVERT JUMPDEST POP POP POP POP DUP4 DUP3 PUSH1 0x1 PUSH1 0x1 PUSH1 0xA0 SHL SUB AND PUSH32 0xF1B38881D7F4B2B12141C5F39C5124545D6112532EB6AFBE9630CDBDE3EE53E9 DUP6 PUSH1 0x40 MLOAD PUSH2 0x282D SWAP2 DUP2 MSTORE PUSH1 0x20 ADD SWAP1 JUMP JUMPDEST PUSH1 0x40 MLOAD DUP1 SWAP2 SUB SWAP1 LOG3 POP POP POP POP JUMP JUMPDEST ORIGIN CALLER EQ PUSH2 0x2847 JUMPI PUSH1 0x0 DUP1 REVERT JUMPDEST PUSH1 0x4 SLOAD PUSH2 0x100 SWAP1 DIV PUSH1 0xFF AND ISZERO PUSH2 0x286F JUMPI PUSH1 0x40 MLOAD PUSH3 0x461BCD PUSH1 0xE5 SHL DUP2 MSTORE PUSH1 0x4 ADD PUSH2 0x58B SWAP1 PUSH2 0x5756 JUMP JUMPDEST PUSH1 0x0 PUSH2 0x2879 PUSH2 0x4A2 JUMP JUMPDEST SWAP1 POP PUSH2 0x2888 DUP2 DUP6 DUP6 PUSH1 0x1 PUSH2 0x473C JUMP JUMPDEST POP PUSH1 0x40 MLOAD PUSH4 0x51D407FF PUSH1 0xE1 SHL DUP2 MSTORE PUSH1 0x0 SWAP1 PUSH1 0x1 PUSH1 0x1 PUSH1 0xA0 SHL SUB PUSH32 0x0 AND SWAP1 PUSH4 0xA3A80FFE SWAP1 PUSH2 0x28DC SWAP1 DUP6 SWAP1 DUP10 SWAP1 DUP10 SWAP1 PUSH1 0x4 ADD PUSH2 0x566D JUMP JUMPDEST PUSH2 0x140 PUSH1 0x40 MLOAD DUP1 DUP4 SUB DUP2 DUP7 DUP1 EXTCODESIZE ISZERO DUP1 ISZERO PUSH2 0x28F5 JUMPI PUSH1 0x0 DUP1 REVERT JUMPDEST POP GAS STATICCALL ISZERO DUP1 ISZERO PUSH2 0x2909 JUMPI RETURNDATASIZE PUSH1 0x0 DUP1 RETURNDATACOPY RETURNDATASIZE PUSH1 0x0 REVERT JUMPDEST POP POP POP POP PUSH1 0x40 MLOAD RETURNDATASIZE PUSH1 0x1F NOT PUSH1 0x1F DUP3 ADD AND DUP3 ADD DUP1 PUSH1 0x40 MSTORE POP DUP2 ADD SWAP1 PUSH2 0x292D SWAP2 SWAP1 PUSH2 0x52DC JUMP JUMPDEST SWAP1 POP PUSH1 0x0 DUP2 PUSH1 0xE0 ADD MLOAD GT PUSH2 0x2953 JUMPI PUSH1 0x40 MLOAD PUSH3 0x461BCD PUSH1 0xE5 SHL DUP2 MSTORE PUSH1 0x4 ADD PUSH2 0x58B SWAP1 PUSH2 0x5712 JUMP JUMPDEST PUSH1 0x0 DUP2 PUSH1 0xE0 ADD MLOAD PUSH1 0x64 PUSH1 0x4B DUP5 PUSH1 0xA0 ADD MLOAD PUSH2 0x296D SWAP2 SWAP1 PUSH2 0x59F1 JUMP JUMPDEST PUSH2 0x2977 SWAP2 SWAP1 PUSH2 0x59CF JUMP JUMPDEST PUSH2 0x2981 SWAP2 SWAP1 PUSH2 0x59CF JUMP JUMPDEST SWAP1 POP DUP4 ISZERO DUP1 PUSH2 0x29C0 JUMPI POP DUP2 PUSH1 0xC0 ADD MLOAD PUSH2 0x29AC JUMPI DUP1 DUP3 PUSH1 0xA0 ADD MLOAD PUSH2 0x29A4 SWAP2 SWAP1 PUSH2 0x59B7 JUMP JUMPDEST DUP5 GT ISZERO PUSH2 0x29C0 JUMP JUMPDEST DUP1 DUP3 PUSH1 0xA0 ADD MLOAD PUSH2 0x29BC SWAP2 SWAP1 PUSH2 0x5A10 JUMP JUMPDEST DUP5 LT ISZERO JUMPDEST PUSH2 0x29F9 JUMPI PUSH1 0x40 MLOAD PUSH3 0x461BCD PUSH1 0xE5 SHL DUP2 MSTORE PUSH1 0x20 PUSH1 0x4 DUP3 ADD MSTORE PUSH1 0xA PUSH1 0x24 DUP3 ADD MSTORE PUSH10 0x534C5F544F4F5F424947 PUSH1 0xB0 SHL PUSH1 0x44 DUP3 ADD MSTORE PUSH1 0x64 ADD PUSH2 0x58B JUMP JUMPDEST PUSH1 0x40 MLOAD PUSH4 0xA3544181 PUSH1 0xE0 SHL DUP2 MSTORE PUSH1 0x1 PUSH1 0x1 PUSH1 0xA0 SHL SUB DUP5 DUP2 AND PUSH1 0x4 DUP4 ADD MSTORE PUSH1 0x24 DUP3 ADD DUP9 SWAP1 MSTORE PUSH1 0x44 DUP3 ADD DUP8 SWAP1 MSTORE PUSH1 0x64 DUP3 ADD DUP7 SWAP1 MSTORE PUSH32 0x0 AND SWAP1 PUSH4 0xA3544181 SWAP1 PUSH1 0x84 ADD PUSH1 0x0 PUSH1 0x40 MLOAD DUP1 DUP4 SUB DUP2 PUSH1 0x0 DUP8 DUP1 EXTCODESIZE ISZERO DUP1 ISZERO PUSH2 0x2A71 JUMPI PUSH1 0x0 DUP1 REVERT JUMPDEST POP GAS CALL ISZERO DUP1 ISZERO PUSH2 0x2A85 JUMPI RETURNDATASIZE PUSH1 0x0 DUP1 RETURNDATACOPY RETURNDATASIZE PUSH1 0x0 REVERT JUMPDEST POP POP POP POP PUSH32 0x0 PUSH1 0x1 PUSH1 0x1 PUSH1 0xA0 SHL SUB AND PUSH3 0xB12783 PUSH1 0x40 MLOAD DUP2 PUSH4 0xFFFFFFFF AND PUSH1 0xE0 SHL DUP2 MSTORE PUSH1 0x4 ADD PUSH1 0x20 PUSH1 0x40 MLOAD DUP1 DUP4 SUB DUP2 DUP7 DUP1 EXTCODESIZE ISZERO DUP1 ISZERO PUSH2 0x2AE1 JUMPI PUSH1 0x0 DUP1 REVERT JUMPDEST POP GAS STATICCALL ISZERO DUP1 ISZERO PUSH2 0x2AF5 JUMPI RETURNDATASIZE PUSH1 0x0 DUP1 RETURNDATACOPY RETURNDATASIZE PUSH1 0x0 REVERT JUMPDEST POP POP POP POP PUSH1 0x40 MLOAD RETURNDATASIZE PUSH1 0x1F NOT PUSH1 0x1F DUP3 ADD AND DUP3 ADD DUP1 PUSH1 0x40 MSTORE POP DUP2 ADD SWAP1 PUSH2 0x2B19 SWAP2 SWAP1 PUSH2 0x4F04 JUMP JUMPDEST PUSH1 0x1 PUSH1 0x1 PUSH1 0xA0 SHL SUB AND PUSH20 0x0 PUSH4 0xA6B8633D SWAP1 SWAP2 DUP6 DUP10 DUP10 PUSH1 0x0 PUSH2 0x2B4B PUSH2 0x4BC8 JUMP JUMPDEST PUSH1 0x40 MLOAD DUP8 PUSH4 0xFFFFFFFF AND PUSH1 0xE0 SHL DUP2 MSTORE PUSH1 0x4 ADD PUSH2 0x2B6C SWAP7 SWAP6 SWAP5 SWAP4 SWAP3 SWAP2 SWAP1 PUSH2 0x5629 JUMP JUMPDEST PUSH1 0x0 PUSH1 0x40 MLOAD DUP1 DUP4 SUB DUP2 DUP7 DUP1 EXTCODESIZE ISZERO DUP1 ISZERO PUSH2 0x2B84 JUMPI PUSH1 0x0 DUP1 REVERT JUMPDEST POP GAS DELEGATECALL ISZERO DUP1 ISZERO PUSH2 0x2B98 JUMPI RETURNDATASIZE PUSH1 0x0 DUP1 RETURNDATACOPY RETURNDATASIZE PUSH1 0x0 REVERT JUMPDEST POP POP PUSH1 0x40 DUP1 MLOAD DUP9 DUP2 MSTORE PUSH1 0x20 DUP2 ADD DUP9 SWAP1 MSTORE DUP10 SWAP4 POP PUSH1 0x1 PUSH1 0x1 PUSH1 0xA0 SHL SUB DUP8 AND SWAP3 POP PUSH32 0x1FC4A6C7FFE506697979B8ED54DC4135CD1ECD26A2745F70B760A2492222B316 SWAP2 ADD PUSH1 0x40 MLOAD DUP1 SWAP2 SUB SWAP1 LOG3 POP POP POP POP POP POP JUMP JUMPDEST ORIGIN CALLER EQ PUSH2 0x2BF6 JUMPI PUSH1 0x0 DUP1 REVERT JUMPDEST PUSH1 0x4 SLOAD PUSH2 0x100 SWAP1 DIV PUSH1 0xFF AND ISZERO PUSH2 0x2C1E JUMPI PUSH1 0x40 MLOAD PUSH3 0x461BCD PUSH1 0xE5 SHL DUP2 MSTORE PUSH1 0x4 ADD PUSH2 0x58B SWAP1 PUSH2 0x5756 JUMP JUMPDEST PUSH1 0x0 DUP5 GT PUSH2 0x2C5B JUMPI PUSH1 0x40 MLOAD PUSH3 0x461BCD PUSH1 0xE5 SHL DUP2 MSTORE PUSH1 0x20 PUSH1 0x4 DUP3 ADD MSTORE PUSH1 0xA PUSH1 0x24 DUP3 ADD MSTORE PUSH10 0x50524943455F5A45524F PUSH1 0xB0 SHL PUSH1 0x44 DUP3 ADD MSTORE PUSH1 0x64 ADD PUSH2 0x58B JUMP JUMPDEST PUSH1 0x0 PUSH2 0x2C65 PUSH2 0x4A2 JUMP JUMPDEST PUSH1 0x40 MLOAD PUSH4 0x6E6F99CD PUSH1 0xE1 SHL DUP2 MSTORE SWAP1 SWAP2 POP PUSH1 0x1 PUSH1 0x1 PUSH1 0xA0 SHL SUB PUSH32 0x0 AND SWAP1 PUSH4 0xDCDF339A SWAP1 PUSH2 0x2CB8 SWAP1 DUP5 SWAP1 DUP12 SWAP1 DUP12 SWAP1 PUSH1 0x4 ADD PUSH2 0x566D JUMP JUMPDEST PUSH1 0x20 PUSH1 0x40 MLOAD DUP1 DUP4 SUB DUP2 DUP7 DUP1 EXTCODESIZE ISZERO DUP1 ISZERO PUSH2 0x2CD0 JUMPI PUSH1 0x0 DUP1 REVERT JUMPDEST POP GAS STATICCALL ISZERO DUP1 ISZERO PUSH2 0x2CE4 JUMPI RETURNDATASIZE PUSH1 0x0 DUP1 RETURNDATACOPY RETURNDATASIZE PUSH1 0x0 REVERT JUMPDEST POP POP POP POP PUSH1 0x40 MLOAD RETURNDATASIZE PUSH1 0x1F NOT PUSH1 0x1F DUP3 ADD AND DUP3 ADD DUP1 PUSH1 0x40 MSTORE POP DUP2 ADD SWAP1 PUSH2 0x2D08 SWAP2 SWAP1 PUSH2 0x4FDF JUMP JUMPDEST PUSH2 0x2D24 JUMPI PUSH1 0x40 MLOAD PUSH3 0x461BCD PUSH1 0xE5 SHL DUP2 MSTORE PUSH1 0x4 ADD PUSH2 0x58B SWAP1 PUSH2 0x5734 JUMP JUMPDEST PUSH1 0x40 MLOAD PUSH4 0x2E21E28B PUSH1 0xE2 SHL DUP2 MSTORE PUSH1 0x0 SWAP1 PUSH1 0x1 PUSH1 0x1 PUSH1 0xA0 SHL SUB PUSH32 0x0 AND SWAP1 PUSH4 0xB8878A2C SWAP1 PUSH2 0x2D77 SWAP1 DUP6 SWAP1 DUP13 SWAP1 DUP13 SWAP1 PUSH1 0x4 ADD PUSH2 0x566D JUMP JUMPDEST PUSH2 0x1A0 PUSH1 0x40 MLOAD DUP1 DUP4 SUB DUP2 DUP7 DUP1 EXTCODESIZE ISZERO DUP1 ISZERO PUSH2 0x2D90 JUMPI PUSH1 0x0 DUP1 REVERT JUMPDEST POP GAS STATICCALL ISZERO DUP1 ISZERO PUSH2 0x2DA4 JUMPI RETURNDATASIZE PUSH1 0x0 DUP1 RETURNDATACOPY RETURNDATASIZE PUSH1 0x0 REVERT JUMPDEST POP POP POP POP PUSH1 0x40 MLOAD RETURNDATASIZE PUSH1 0x1F NOT PUSH1 0x1F DUP3 ADD AND DUP3 ADD DUP1 PUSH1 0x40 MSTORE POP DUP2 ADD SWAP1 PUSH2 0x2DC8 SWAP2 SWAP1 PUSH2 0x5126 JUMP JUMPDEST SWAP1 POP DUP5 ISZERO DUP1 PUSH2 0x2DE7 JUMPI POP DUP1 PUSH1 0xA0 ADD MLOAD PUSH2 0x2DE3 JUMPI DUP6 DUP6 LT PUSH2 0x2DE7 JUMP JUMPDEST DUP6 DUP6 GT JUMPDEST PUSH2 0x2E1E JUMPI PUSH1 0x40 MLOAD PUSH3 0x461BCD PUSH1 0xE5 SHL DUP2 MSTORE PUSH1 0x20 PUSH1 0x4 DUP3 ADD MSTORE PUSH1 0x8 PUSH1 0x24 DUP3 ADD MSTORE PUSH8 0x57524F4E475F545 PUSH1 0xC4 SHL PUSH1 0x44 DUP3 ADD MSTORE PUSH1 0x64 ADD PUSH2 0x58B JUMP JUMPDEST DUP4 ISZERO DUP1 PUSH2 0x2E3B JUMPI POP DUP1 PUSH1 0xA0 ADD MLOAD PUSH2 0x2E37 JUMPI DUP6 DUP5 GT PUSH2 0x2E3B JUMP JUMPDEST DUP6 DUP5 LT JUMPDEST PUSH2 0x2E72 JUMPI PUSH1 0x40 MLOAD PUSH3 0x461BCD PUSH1 0xE5 SHL DUP2 MSTORE PUSH1 0x20 PUSH1 0x4 DUP3 ADD MSTORE PUSH1 0x8 PUSH1 0x24 DUP3 ADD MSTORE PUSH8 0x15D493D391D7D4D3 PUSH1 0xC2 SHL PUSH1 0x44 DUP3 ADD MSTORE PUSH1 0x64 ADD PUSH2 0x58B JUMP JUMPDEST PUSH1 0x0 NOT PUSH2 0x2E7F DUP5 DUP9 PUSH2 0x59F1 JUMP JUMPDEST LT PUSH2 0x2EB7 JUMPI PUSH1 0x40 MLOAD PUSH3 0x461BCD PUSH1 0xE5 SHL DUP2 MSTORE PUSH1 0x20 PUSH1 0x4 DUP3 ADD MSTORE PUSH1 0x8 PUSH1 0x24 DUP3 ADD MSTORE PUSH8 0x4F564552464C4F57 PUSH1 0xC0 SHL PUSH1 0x44 DUP3 ADD MSTORE PUSH1 0x64 ADD PUSH2 0x58B JUMP JUMPDEST PUSH2 0x2EC4 DUP3 DUP10 DUP10 PUSH1 0x3 PUSH2 0x473C JUMP JUMPDEST POP PUSH2 0x120 DUP2 ADD DUP7 SWAP1 MSTORE PUSH2 0x140 DUP2 ADD DUP7 SWAP1 MSTORE PUSH1 0xE0 DUP2 ADD DUP6 SWAP1 MSTORE PUSH2 0x100 DUP2 ADD DUP5 SWAP1 MSTORE PUSH1 0x40 MLOAD PUSH4 0x5BB3B045 PUSH1 0xE1 SHL DUP2 MSTORE PUSH1 0x1 PUSH1 0x1 PUSH1 0xA0 SHL SUB PUSH32 0x0 AND SWAP1 PUSH4 0xB767608A SWAP1 PUSH2 0x2F30 SWAP1 DUP5 SWAP1 PUSH1 0x4 ADD PUSH2 0x5796 JUMP JUMPDEST PUSH1 0x0 PUSH1 0x40 MLOAD DUP1 DUP4 SUB DUP2 PUSH1 0x0 DUP8 DUP1 EXTCODESIZE ISZERO DUP1 ISZERO PUSH2 0x2F4A JUMPI PUSH1 0x0 DUP1 REVERT JUMPDEST POP GAS CALL ISZERO DUP1 ISZERO PUSH2 0x2F5E JUMPI RETURNDATASIZE PUSH1 0x0 DUP1 RETURNDATACOPY RETURNDATASIZE PUSH1 0x0 REVERT JUMPDEST POP POP POP POP PUSH1 0x0 PUSH32 0x0 PUSH1 0x1 PUSH1 0x1 PUSH1 0xA0 SHL SUB AND PUSH3 0xB12783 PUSH1 0x40 MLOAD DUP2 PUSH4 0xFFFFFFFF AND PUSH1 0xE0 SHL DUP2 MSTORE PUSH1 0x4 ADD PUSH1 0x20 PUSH1 0x40 MLOAD DUP1 DUP4 SUB DUP2 DUP7 DUP1 EXTCODESIZE ISZERO DUP1 ISZERO PUSH2 0x2FBC JUMPI PUSH1 0x0 DUP1 REVERT JUMPDEST POP GAS STATICCALL ISZERO DUP1 ISZERO PUSH2 0x2FD0 JUMPI RETURNDATASIZE PUSH1 0x0 DUP1 RETURNDATACOPY RETURNDATASIZE PUSH1 0x0 REVERT JUMPDEST POP POP POP POP PUSH1 0x40 MLOAD RETURNDATASIZE PUSH1 0x1F NOT PUSH1 0x1F DUP3 ADD AND DUP3 ADD DUP1 PUSH1 0x40 MSTORE POP DUP2 ADD SWAP1 PUSH2 0x2FF4 SWAP2 SWAP1 PUSH2 0x4F04 JUMP JUMPDEST SWAP1 POP PUSH20 0x0 PUSH4 0x95ECBBEA PUSH1 0x1 PUSH1 0x1 PUSH1 0xA0 SHL SUB DUP4 AND DUP6 DUP13 DUP13 PUSH1 0x1 PUSH2 0x3027 PUSH2 0x4BC8 JUMP JUMPDEST PUSH1 0x40 MLOAD DUP8 PUSH4 0xFFFFFFFF AND PUSH1 0xE0 SHL DUP2 MSTORE PUSH1 0x4 ADD PUSH2 0x3048 SWAP7 SWAP6 SWAP5 SWAP4 SWAP3 SWAP2 SWAP1 PUSH2 0x5629 JUMP JUMPDEST PUSH1 0x0 PUSH1 0x40 MLOAD DUP1 DUP4 SUB DUP2 DUP7 DUP1 EXTCODESIZE ISZERO DUP1 ISZERO PUSH2 0x3060 JUMPI PUSH1 0x0 DUP1 REVERT JUMPDEST POP GAS DELEGATECALL ISZERO DUP1 ISZERO PUSH2 0x3074 JUMPI RETURNDATASIZE PUSH1 0x0 DUP1 RETURNDATACOPY RETURNDATASIZE PUSH1 0x0 REVERT JUMPDEST POP POP PUSH1 0x40 MLOAD PUSH4 0x25F40EF9 PUSH1 0xE0 SHL DUP2 MSTORE PUSH20 0x0 SWAP3 POP PUSH4 0x25F40EF9 SWAP2 POP PUSH2 0x30C3 SWAP1 PUSH1 0x1 PUSH1 0x1 PUSH1 0xA0 SHL SUB DUP6 AND SWAP1 DUP8 SWAP1 DUP15 SWAP1 DUP15 SWAP1 PUSH1 0x1 SWAP1 DUP13 SWAP1 PUSH1 0x4 ADD PUSH2 0x5629 JUMP JUMPDEST PUSH1 0x0 PUSH1 0x40 MLOAD DUP1 DUP4 SUB DUP2 DUP7 DUP1 EXTCODESIZE ISZERO DUP1 ISZERO PUSH2 0x30DB JUMPI PUSH1 0x0 DUP1 REVERT JUMPDEST POP GAS DELEGATECALL ISZERO DUP1 ISZERO PUSH2 0x30EF JUMPI RETURNDATASIZE PUSH1 0x0 DUP1 RETURNDATACOPY RETURNDATASIZE PUSH1 0x0 REVERT JUMPDEST POP POP PUSH1 0x40 DUP1 MLOAD DUP12 DUP2 MSTORE PUSH1 0x20 DUP2 ADD DUP12 SWAP1 MSTORE SWAP1 DUP2 ADD DUP10 SWAP1 MSTORE PUSH1 0x60 DUP2 ADD DUP9 SWAP1 MSTORE PUSH1 0x80 DUP2 ADD DUP8 SWAP1 MSTORE DUP12 SWAP3 POP PUSH1 0x1 PUSH1 0x1 PUSH1 0xA0 SHL SUB DUP7 AND SWAP2 POP PUSH32 0x710A8DB87F04E82A9DE40076812593A965F4AA48693196D2144C07FF9710E890 SWAP1 PUSH1 0xA0 ADD PUSH1 0x40 MLOAD DUP1 SWAP2 SUB SWAP1 LOG3 POP POP POP POP POP POP POP POP POP JUMP JUMPDEST ORIGIN CALLER EQ PUSH2 0x3197 JUMPI PUSH1 0x40 MLOAD PUSH3 0x461BCD PUSH1 0xE5 SHL DUP2 MSTORE PUSH1 0x20 PUSH1 0x4 DUP3 ADD MSTORE PUSH1 0xB PUSH1 0x24 DUP3 ADD MSTORE PUSH11 0x1393D7D0D3D395149050D5 PUSH1 0xAA SHL PUSH1 0x44 DUP3 ADD MSTORE PUSH1 0x64 ADD PUSH2 0x58B JUMP JUMPDEST CALLER PUSH1 0x0 SWAP1 DUP2 MSTORE PUSH1 0x20 DUP2 SWAP1 MSTORE PUSH1 0x40 SWAP1 KECCAK256 DUP1 SLOAD PUSH1 0x1 PUSH1 0x1 PUSH1 0xA0 SHL SUB NOT AND PUSH1 0x1 PUSH1 0x1 PUSH1 0xA0 SHL SUB SWAP3 SWAP1 SWAP3 AND SWAP2 SWAP1 SWAP2 OR SWAP1 SSTORE JUMP JUMPDEST ORIGIN CALLER EQ PUSH2 0x31D2 JUMPI PUSH1 0x0 DUP1 REVERT JUMPDEST PUSH1 0x4 SLOAD PUSH2 0x100 SWAP1 DIV PUSH1 0xFF AND ISZERO PUSH2 0x31FA JUMPI PUSH1 0x40 MLOAD PUSH3 0x461BCD PUSH1 0xE5 SHL DUP2 MSTORE PUSH1 0x4 ADD PUSH2 0x58B SWAP1 PUSH2 0x5756 JUMP JUMPDEST PUSH1 0x0 PUSH2 0x3204 PUSH2 0x4A2 JUMP JUMPDEST SWAP1 POP PUSH2 0x3213 DUP2 DUP6 DUP6 PUSH1 0x0 PUSH2 0x473C JUMP JUMPDEST POP PUSH1 0x40 MLOAD PUSH4 0x51D407FF PUSH1 0xE1 SHL DUP2 MSTORE PUSH1 0x0 SWAP1 PUSH1 0x1 PUSH1 0x1 PUSH1 0xA0 SHL SUB PUSH32 0x0 AND SWAP1 PUSH4 0xA3A80FFE SWAP1 PUSH2 0x3267 SWAP1 DUP6 SWAP1 DUP10 SWAP1 DUP10 SWAP1 PUSH1 0x4 ADD PUSH2 0x566D JUMP JUMPDEST PUSH2 0x140 PUSH1 0x40 MLOAD DUP1 DUP4 SUB DUP2 DUP7 DUP1 EXTCODESIZE ISZERO DUP1 ISZERO PUSH2 0x3280 JUMPI PUSH1 0x0 DUP1 REVERT JUMPDEST POP GAS STATICCALL ISZERO DUP1 ISZERO PUSH2 0x3294 JUMPI RETURNDATASIZE PUSH1 0x0 DUP1 RETURNDATACOPY RETURNDATASIZE PUSH1 0x0 REVERT JUMPDEST POP POP POP POP PUSH1 0x40 MLOAD RETURNDATASIZE PUSH1 0x1F NOT PUSH1 0x1F DUP3 ADD AND DUP3 ADD DUP1 PUSH1 0x40 MSTORE POP DUP2 ADD SWAP1 PUSH2 0x32B8 SWAP2 SWAP1 PUSH2 0x52DC JUMP JUMPDEST SWAP1 POP PUSH1 0x0 DUP2 PUSH1 0xE0 ADD MLOAD GT PUSH2 0x32DE JUMPI PUSH1 0x40 MLOAD PUSH3 0x461BCD PUSH1 0xE5 SHL DUP2 MSTORE PUSH1 0x4 ADD PUSH2 0x58B SWAP1 PUSH2 0x5712 JUMP JUMPDEST PUSH1 0x40 MLOAD PUSH4 0x7FDB96F3 PUSH1 0xE0 SHL DUP2 MSTORE PUSH1 0x1 PUSH1 0x1 PUSH1 0xA0 SHL SUB DUP4 DUP2 AND PUSH1 0x4 DUP4 ADD MSTORE PUSH1 0x24 DUP3 ADD DUP8 SWAP1 MSTORE PUSH1 0x44 DUP3 ADD DUP7 SWAP1 MSTORE PUSH1 0x64 DUP3 ADD DUP6 SWAP1 MSTORE PUSH32 0x0 AND SWAP1 PUSH4 0x7FDB96F3 SWAP1 PUSH1 0x84 ADD PUSH1 0x0 PUSH1 0x40 MLOAD DUP1 DUP4 SUB DUP2 PUSH1 0x0 DUP8 DUP1 EXTCODESIZE ISZERO DUP1 ISZERO PUSH2 0x3356 JUMPI PUSH1 0x0 DUP1 REVERT JUMPDEST POP GAS CALL ISZERO DUP1 ISZERO PUSH2 0x336A JUMPI RETURNDATASIZE PUSH1 0x0 DUP1 RETURNDATACOPY RETURNDATASIZE PUSH1 0x0 REVERT JUMPDEST POP POP POP POP PUSH32 0x0 PUSH1 0x1 PUSH1 0x1 PUSH1 0xA0 SHL SUB AND PUSH3 0xB12783 PUSH1 0x40 MLOAD DUP2 PUSH4 0xFFFFFFFF AND PUSH1 0xE0 SHL DUP2 MSTORE PUSH1 0x4 ADD PUSH1 0x20 PUSH1 0x40 MLOAD DUP1 DUP4 SUB DUP2 DUP7 DUP1 EXTCODESIZE ISZERO DUP1 ISZERO PUSH2 0x33C6 JUMPI PUSH1 0x0 DUP1 REVERT JUMPDEST POP GAS STATICCALL ISZERO DUP1 ISZERO PUSH2 0x33DA JUMPI RETURNDATASIZE PUSH1 0x0 DUP1 RETURNDATACOPY RETURNDATASIZE PUSH1 0x0 REVERT JUMPDEST POP POP POP POP PUSH1 0x40 MLOAD RETURNDATASIZE PUSH1 0x1F NOT PUSH1 0x1F DUP3 ADD AND DUP3 ADD DUP1 PUSH1 0x40 MSTORE POP DUP2 ADD SWAP1 PUSH2 0x33FE SWAP2 SWAP1 PUSH2 0x4F04 JUMP JUMPDEST PUSH1 0x1 PUSH1 0x1 PUSH1 0xA0 SHL SUB AND PUSH20 0x0 PUSH4 0x39E765E4 SWAP1 SWAP2 DUP5 DUP9 DUP9 PUSH1 0x0 PUSH2 0x3430 PUSH2 0x4BC8 JUMP JUMPDEST PUSH1 0x40 MLOAD DUP8 PUSH4 0xFFFFFFFF AND PUSH1 0xE0 SHL DUP2 MSTORE PUSH1 0x4 ADD PUSH2 0x3451 SWAP7 SWAP6 SWAP5 SWAP4 SWAP3 SWAP2 SWAP1 PUSH2 0x5629 JUMP JUMPDEST PUSH1 0x0 PUSH1 0x40 MLOAD DUP1 DUP4 SUB DUP2 DUP7 DUP1 EXTCODESIZE ISZERO DUP1 ISZERO PUSH2 0x3469 JUMPI PUSH1 0x0 DUP1 REVERT JUMPDEST POP GAS DELEGATECALL ISZERO DUP1 ISZERO PUSH2 0x347D JUMPI RETURNDATASIZE PUSH1 0x0 DUP1 RETURNDATACOPY RETURNDATASIZE PUSH1 0x0 REVERT JUMPDEST POP POP PUSH1 0x40 DUP1 MLOAD DUP8 DUP2 MSTORE PUSH1 0x20 DUP2 ADD DUP8 SWAP1 MSTORE DUP9 SWAP4 POP PUSH1 0x1 PUSH1 0x1 PUSH1 0xA0 SHL SUB DUP7 AND SWAP3 POP PUSH32 0x7E06A81C7A47891CCC7455B5CCB2ED850E32BB655CCDA67EB3EBAAEED83242A4 SWAP2 ADD PUSH1 0x40 MLOAD DUP1 SWAP2 SUB SWAP1 LOG3 POP POP POP POP POP JUMP JUMPDEST ORIGIN CALLER EQ PUSH2 0x34DA JUMPI PUSH1 0x0 DUP1 REVERT JUMPDEST PUSH1 0x4 SLOAD PUSH2 0x100 SWAP1 DIV PUSH1 0xFF AND ISZERO PUSH2 0x3502 JUMPI PUSH1 0x40 MLOAD PUSH3 0x461BCD PUSH1 0xE5 SHL DUP2 MSTORE PUSH1 0x4 ADD PUSH2 0x58B SWAP1 PUSH2 0x5756 JUMP JUMPDEST PUSH1 0x4 SLOAD PUSH1 0xFF AND ISZERO PUSH2 0x353E JUMPI PUSH1 0x40 MLOAD PUSH3 0x461BCD PUSH1 0xE5 SHL DUP2 MSTORE PUSH1 0x20 PUSH1 0x4 DUP3 ADD MSTORE PUSH1 0x6 PUSH1 0x24 DUP3 ADD MSTORE PUSH6 0x14105554D151 PUSH1 0xD2 SHL PUSH1 0x44 DUP3 ADD MSTORE PUSH1 0x64 ADD PUSH2 0x58B JUMP JUMPDEST PUSH1 0x0 NOT DUP3 DUP6 PUSH1 0xA0 ADD MLOAD PUSH2 0x3551 SWAP2 SWAP1 PUSH2 0x59F1 JUMP JUMPDEST LT PUSH2 0x3589 JUMPI PUSH1 0x40 MLOAD PUSH3 0x461BCD PUSH1 0xE5 SHL DUP2 MSTORE PUSH1 0x20 PUSH1 0x4 DUP3 ADD MSTORE PUSH1 0x8 PUSH1 0x24 DUP3 ADD MSTORE PUSH8 0x4F564552464C4F57 PUSH1 0xC0 SHL PUSH1 0x44 DUP3 ADD MSTORE PUSH1 0x64 ADD PUSH2 0x58B JUMP JUMPDEST PUSH1 0x0 DUP5 PUSH1 0xA0 ADD MLOAD GT PUSH2 0x35CA JUMPI PUSH1 0x40 MLOAD PUSH3 0x461BCD PUSH1 0xE5 SHL DUP2 MSTORE PUSH1 0x20 PUSH1 0x4 DUP3 ADD MSTORE PUSH1 0xA PUSH1 0x24 DUP3 ADD MSTORE PUSH10 0x50524943455F5A45524F PUSH1 0xB0 SHL PUSH1 0x44 DUP3 ADD MSTORE PUSH1 0x64 ADD PUSH2 0x58B JUMP JUMPDEST PUSH1 0x0 PUSH32 0x0 PUSH1 0x1 PUSH1 0x1 PUSH1 0xA0 SHL SUB AND PUSH4 0x3078FFF5 PUSH1 0x40 MLOAD DUP2 PUSH4 0xFFFFFFFF AND PUSH1 0xE0 SHL DUP2 MSTORE PUSH1 0x4 ADD PUSH1 0x20 PUSH1 0x40 MLOAD DUP1 DUP4 SUB DUP2 DUP7 DUP1 EXTCODESIZE ISZERO DUP1 ISZERO PUSH2 0x3625 JUMPI PUSH1 0x0 DUP1 REVERT JUMPDEST POP GAS STATICCALL ISZERO DUP1 ISZERO PUSH2 0x3639 JUMPI RETURNDATASIZE PUSH1 0x0 DUP1 RETURNDATACOPY RETURNDATASIZE PUSH1 0x0 REVERT JUMPDEST POP POP POP POP PUSH1 0x40 MLOAD RETURNDATASIZE PUSH1 0x1F NOT PUSH1 0x1F DUP3 ADD AND DUP3 ADD DUP1 PUSH1 0x40 MSTORE POP DUP2 ADD SWAP1 PUSH2 0x365D SWAP2 SWAP1 PUSH2 0x4F04 JUMP JUMPDEST SWAP1 POP PUSH1 0x0 DUP2 PUSH1 0x1 PUSH1 0x1 PUSH1 0xA0 SHL SUB AND PUSH4 0x35B03C17 PUSH1 0x40 MLOAD DUP2 PUSH4 0xFFFFFFFF AND PUSH1 0xE0 SHL DUP2 MSTORE PUSH1 0x4 ADD PUSH1 0x20 PUSH1 0x40 MLOAD DUP1 DUP4 SUB DUP2 DUP7 DUP1 EXTCODESIZE ISZERO DUP1 ISZERO PUSH2 0x369A JUMPI PUSH1 0x0 DUP1 REVERT JUMPDEST POP GAS STATICCALL ISZERO DUP1 ISZERO PUSH2 0x36AE JUMPI RETURNDATASIZE PUSH1 0x0 DUP1 RETURNDATACOPY RETURNDATASIZE PUSH1 0x0 REVERT JUMPDEST POP POP POP POP PUSH1 0x40 MLOAD RETURNDATASIZE PUSH1 0x1F NOT PUSH1 0x1F DUP3 ADD AND DUP3 ADD DUP1 PUSH1 0x40 MSTORE POP DUP2 ADD SWAP1 PUSH2 0x36D2 SWAP2 SWAP1 PUSH2 0x4F04 JUMP JUMPDEST SWAP1 POP PUSH1 0x0 PUSH2 0x36DE PUSH2 0x4A2 JUMP JUMPDEST SWAP1 POP PUSH32 0x0 PUSH1 0x1 PUSH1 0x1 PUSH1 0xA0 SHL SUB AND PUSH4 0xF65D9DBE PUSH1 0x40 MLOAD DUP2 PUSH4 0xFFFFFFFF AND PUSH1 0xE0 SHL DUP2 MSTORE PUSH1 0x4 ADD PUSH1 0x20 PUSH1 0x40 MLOAD DUP1 DUP4 SUB DUP2 DUP7 DUP1 EXTCODESIZE ISZERO DUP1 ISZERO PUSH2 0x3739 JUMPI PUSH1 0x0 DUP1 REVERT JUMPDEST POP GAS STATICCALL ISZERO DUP1 ISZERO PUSH2 0x374D JUMPI RETURNDATASIZE PUSH1 0x0 DUP1 RETURNDATACOPY RETURNDATASIZE PUSH1 0x0 REVERT JUMPDEST POP POP POP POP PUSH1 0x40 MLOAD RETURNDATASIZE PUSH1 0x1F NOT PUSH1 0x1F DUP3 ADD AND DUP3 ADD DUP1 PUSH1 0x40 MSTORE POP DUP2 ADD SWAP1 PUSH2 0x3771 SWAP2 SWAP1 PUSH2 0x53ED JUMP JUMPDEST PUSH1 0x20 DUP9 ADD MLOAD PUSH1 0x40 MLOAD PUSH4 0x4BF3CCAD PUSH1 0xE1 SHL DUP2 MSTORE PUSH1 0x1 PUSH1 0x1 PUSH1 0xA0 SHL SUB DUP5 DUP2 AND PUSH1 0x4 DUP4 ADD MSTORE PUSH1 0x24 DUP3 ADD SWAP3 SWAP1 SWAP3 MSTORE PUSH32 0x0 SWAP1 SWAP2 AND SWAP1 PUSH4 0x97E7995A SWAP1 PUSH1 0x44 ADD PUSH1 0x20 PUSH1 0x40 MLOAD DUP1 DUP4 SUB DUP2 DUP7 DUP1 EXTCODESIZE ISZERO DUP1 ISZERO PUSH2 0x37E1 JUMPI PUSH1 0x0 DUP1 REVERT JUMPDEST POP GAS STATICCALL ISZERO DUP1 ISZERO PUSH2 0x37F5 JUMPI RETURNDATASIZE PUSH1 0x0 DUP1 RETURNDATACOPY RETURNDATASIZE PUSH1 0x0 REVERT JUMPDEST POP POP POP POP PUSH1 0x40 MLOAD RETURNDATASIZE PUSH1 0x1F NOT PUSH1 0x1F DUP3 ADD AND DUP3 ADD DUP1 PUSH1 0x40 MSTORE POP DUP2 ADD SWAP1 PUSH2 0x3819 SWAP2 SWAP1 PUSH2 0x53ED JUMP JUMPDEST PUSH1 0x20 DUP10 ADD MLOAD PUSH1 0x40 MLOAD PUSH4 0x9C8912F1 PUSH1 0xE0 SHL DUP2 MSTORE PUSH1 0x1 PUSH1 0x1 PUSH1 0xA0 SHL SUB DUP6 DUP2 AND PUSH1 0x4 DUP4 ADD MSTORE PUSH1 0x24 DUP3 ADD SWAP3 SWAP1 SWAP3 MSTORE PUSH32 0x0 SWAP1 SWAP2 AND SWAP1 PUSH4 0x9C8912F1 SWAP1 PUSH1 0x44 ADD PUSH1 0x20 PUSH1 0x40 MLOAD DUP1 DUP4 SUB DUP2 DUP7 DUP1 EXTCODESIZE ISZERO DUP1 ISZERO PUSH2 0x3889 JUMPI PUSH1 0x0 DUP1 REVERT JUMPDEST POP GAS STATICCALL ISZERO DUP1 ISZERO PUSH2 0x389D JUMPI RETURNDATASIZE PUSH1 0x0 DUP1 RETURNDATACOPY RETURNDATASIZE PUSH1 0x0 REVERT JUMPDEST POP POP POP POP PUSH1 0x40 MLOAD RETURNDATASIZE PUSH1 0x1F NOT PUSH1 0x1F DUP3 ADD AND DUP3 ADD DUP1 PUSH1 0x40 MSTORE POP DUP2 ADD SWAP1 PUSH2 0x38C1 SWAP2 SWAP1 PUSH2 0x53ED JUMP JUMPDEST PUSH1 0x20 DUP11 ADD MLOAD PUSH1 0x40 MLOAD PUSH4 0x7218DAD PUSH1 0xE2 SHL DUP2 MSTORE PUSH1 0x1 PUSH1 0x1 PUSH1 0xA0 SHL SUB DUP7 DUP2 AND PUSH1 0x4 DUP4 ADD MSTORE PUSH1 0x24 DUP3 ADD SWAP3 SWAP1 SWAP3 MSTORE PUSH32 0x0 SWAP1 SWAP2 AND SWAP1 PUSH4 0x1C8636B4 SWAP1 PUSH1 0x44 ADD PUSH1 0x20 PUSH1 0x40 MLOAD DUP1 DUP4 SUB DUP2 DUP7 DUP1 EXTCODESIZE ISZERO DUP1 ISZERO PUSH2 0x3931 JUMPI PUSH1 0x0 DUP1 REVERT JUMPDEST POP GAS STATICCALL ISZERO DUP1 ISZERO PUSH2 0x3945 JUMPI RETURNDATASIZE PUSH1 0x0 DUP1 RETURNDATACOPY RETURNDATASIZE PUSH1 0x0 REVERT JUMPDEST POP POP POP POP PUSH1 0x40 MLOAD RETURNDATASIZE PUSH1 0x1F NOT PUSH1 0x1F DUP3 ADD AND DUP3 ADD DUP1 PUSH1 0x40 MSTORE POP DUP2 ADD SWAP1 PUSH2 0x3969 SWAP2 SWAP1 PUSH2 0x53ED JUMP JUMPDEST PUSH2 0x3973 SWAP2 SWAP1 PUSH2 0x59B7 JUMP JUMPDEST PUSH2 0x397D SWAP2 SWAP1 PUSH2 0x59B7 JUMP JUMPDEST LT PUSH2 0x39C0 JUMPI PUSH1 0x40 MLOAD PUSH3 0x461BCD PUSH1 0xE5 SHL DUP2 MSTORE PUSH1 0x20 PUSH1 0x4 DUP3 ADD MSTORE PUSH1 0x13 PUSH1 0x24 DUP3 ADD MSTORE PUSH19 0x26A0AC2FAA2920A222A9AFA822A92FA820A4A9 PUSH1 0x69 SHL PUSH1 0x44 DUP3 ADD MSTORE PUSH1 0x64 ADD PUSH2 0x58B JUMP JUMPDEST PUSH32 0x0 PUSH1 0x1 PUSH1 0x1 PUSH1 0xA0 SHL SUB AND PUSH4 0x8049FDE7 PUSH1 0x40 MLOAD DUP2 PUSH4 0xFFFFFFFF AND PUSH1 0xE0 SHL DUP2 MSTORE PUSH1 0x4 ADD PUSH1 0x20 PUSH1 0x40 MLOAD DUP1 DUP4 SUB DUP2 DUP7 DUP1 EXTCODESIZE ISZERO DUP1 ISZERO PUSH2 0x3A19 JUMPI PUSH1 0x0 DUP1 REVERT JUMPDEST POP GAS STATICCALL ISZERO DUP1 ISZERO PUSH2 0x3A2D JUMPI RETURNDATASIZE PUSH1 0x0 DUP1 RETURNDATACOPY RETURNDATASIZE PUSH1 0x0 REVERT JUMPDEST POP POP POP POP PUSH1 0x40 MLOAD RETURNDATASIZE PUSH1 0x1F NOT PUSH1 0x1F DUP3 ADD AND DUP3 ADD DUP1 PUSH1 0x40 MSTORE POP DUP2 ADD SWAP1 PUSH2 0x3A51 SWAP2 SWAP1 PUSH2 0x53ED JUMP JUMPDEST PUSH1 0x40 MLOAD PUSH4 0xF7B3C6FD PUSH1 0xE0 SHL DUP2 MSTORE PUSH1 0x1 PUSH1 0x1 PUSH1 0xA0 SHL SUB DUP4 DUP2 AND PUSH1 0x4 DUP4 ADD MSTORE PUSH32 0x0 AND SWAP1 PUSH4 0xF7B3C6FD SWAP1 PUSH1 0x24 ADD PUSH1 0x20 PUSH1 0x40 MLOAD DUP1 DUP4 SUB DUP2 DUP7 DUP1 EXTCODESIZE ISZERO DUP1 ISZERO PUSH2 0x3AB2 JUMPI PUSH1 0x0 DUP1 REVERT JUMPDEST POP GAS STATICCALL ISZERO DUP1 ISZERO PUSH2 0x3AC6 JUMPI RETURNDATASIZE PUSH1 0x0 DUP1 RETURNDATACOPY RETURNDATASIZE PUSH1 0x0 REVERT JUMPDEST POP POP POP POP PUSH1 0x40 MLOAD RETURNDATASIZE PUSH1 0x1F NOT PUSH1 0x1F DUP3 ADD AND DUP3 ADD DUP1 PUSH1 0x40 MSTORE POP DUP2 ADD SWAP1 PUSH2 0x3AEA SWAP2 SWAP1 PUSH2 0x53ED JUMP JUMPDEST LT PUSH2 0x3B2C JUMPI PUSH1 0x40 MLOAD PUSH3 0x461BCD PUSH1 0xE5 SHL DUP2 MSTORE PUSH1 0x20 PUSH1 0x4 DUP3 ADD MSTORE PUSH1 0x12 PUSH1 0x24 DUP3 ADD MSTORE PUSH18 0x4D41585F50454E44494E475F4F5244455253 PUSH1 0x70 SHL PUSH1 0x44 DUP3 ADD MSTORE PUSH1 0x64 ADD PUSH2 0x58B JUMP JUMPDEST PUSH1 0x2 SLOAD DUP8 PUSH1 0x80 ADD MLOAD GT ISZERO PUSH2 0x3B72 JUMPI PUSH1 0x40 MLOAD PUSH3 0x461BCD PUSH1 0xE5 SHL DUP2 MSTORE PUSH1 0x20 PUSH1 0x4 DUP3 ADD MSTORE PUSH1 0xD PUSH1 0x24 DUP3 ADD MSTORE PUSH13 0x41424F56455F4D41585F504F53 PUSH1 0x98 SHL PUSH1 0x44 DUP3 ADD MSTORE PUSH1 0x64 ADD PUSH2 0x58B JUMP JUMPDEST PUSH1 0x20 DUP8 ADD MLOAD PUSH1 0x40 MLOAD PUSH4 0x66C5811 PUSH1 0xE1 SHL DUP2 MSTORE PUSH1 0x4 DUP2 ADD SWAP2 SWAP1 SWAP2 MSTORE PUSH1 0x1 PUSH1 0x1 PUSH1 0xA0 SHL SUB DUP4 AND SWAP1 PUSH4 0xCD8B022 SWAP1 PUSH1 0x24 ADD PUSH1 0x20 PUSH1 0x40 MLOAD DUP1 DUP4 SUB DUP2 DUP7 DUP1 EXTCODESIZE ISZERO DUP1 ISZERO PUSH2 0x3BB8 JUMPI PUSH1 0x0 DUP1 REVERT JUMPDEST POP GAS STATICCALL ISZERO DUP1 ISZERO PUSH2 0x3BCC JUMPI RETURNDATASIZE PUSH1 0x0 DUP1 RETURNDATACOPY RETURNDATASIZE PUSH1 0x0 REVERT JUMPDEST POP POP POP POP PUSH1 0x40 MLOAD RETURNDATASIZE PUSH1 0x1F NOT PUSH1 0x1F DUP3 ADD AND DUP3 ADD DUP1 PUSH1 0x40 MSTORE POP DUP2 ADD SWAP1 PUSH2 0x3BF0 SWAP2 SWAP1 PUSH2 0x53ED JUMP JUMPDEST DUP8 PUSH1 0xE0 ADD MLOAD DUP9 PUSH1 0x80 ADD MLOAD PUSH2 0x3C04 SWAP2 SWAP1 PUSH2 0x59F1 JUMP JUMPDEST LT ISZERO PUSH2 0x3C42 JUMPI PUSH1 0x40 MLOAD PUSH3 0x461BCD PUSH1 0xE5 SHL DUP2 MSTORE PUSH1 0x20 PUSH1 0x4 DUP3 ADD MSTORE PUSH1 0xD PUSH1 0x24 DUP3 ADD MSTORE PUSH13 0x42454C4F575F4D494E5F504F53 PUSH1 0x98 SHL PUSH1 0x44 DUP3 ADD MSTORE PUSH1 0x64 ADD PUSH2 0x58B JUMP JUMPDEST PUSH1 0x0 DUP8 PUSH1 0xE0 ADD MLOAD GT DUP1 ISZERO PUSH2 0x3CD7 JUMPI POP PUSH1 0x20 DUP8 ADD MLOAD PUSH1 0x40 MLOAD PUSH4 0x59A992D PUSH1 0xE4 SHL DUP2 MSTORE PUSH1 0x4 DUP2 ADD SWAP2 SWAP1 SWAP2 MSTORE PUSH1 0x1 PUSH1 0x1 PUSH1 0xA0 SHL SUB DUP4 AND SWAP1 PUSH4 0x59A992D0 SWAP1 PUSH1 0x24 ADD PUSH1 0x20 PUSH1 0x40 MLOAD DUP1 DUP4 SUB DUP2 DUP7 DUP1 EXTCODESIZE ISZERO DUP1 ISZERO PUSH2 0x3C97 JUMPI PUSH1 0x0 DUP1 REVERT JUMPDEST POP GAS STATICCALL ISZERO DUP1 ISZERO PUSH2 0x3CAB JUMPI RETURNDATASIZE PUSH1 0x0 DUP1 RETURNDATACOPY RETURNDATASIZE PUSH1 0x0 REVERT JUMPDEST POP POP POP POP PUSH1 0x40 MLOAD RETURNDATASIZE PUSH1 0x1F NOT PUSH1 0x1F DUP3 ADD AND DUP3 ADD DUP1 PUSH1 0x40 MSTORE POP DUP2 ADD SWAP1 PUSH2 0x3CCF SWAP2 SWAP1 PUSH2 0x53ED JUMP JUMPDEST DUP8 PUSH1 0xE0 ADD MLOAD LT ISZERO JUMPDEST DUP1 ISZERO PUSH2 0x3CF4 JUMPI POP PUSH2 0x3CEC DUP3 DUP9 PUSH1 0x20 ADD MLOAD PUSH2 0x4C5D JUMP JUMPDEST DUP8 PUSH1 0xE0 ADD MLOAD GT ISZERO JUMPDEST PUSH2 0x3D35 JUMPI PUSH1 0x40 MLOAD PUSH3 0x461BCD PUSH1 0xE5 SHL DUP2 MSTORE PUSH1 0x20 PUSH1 0x4 DUP3 ADD MSTORE PUSH1 0x12 PUSH1 0x24 DUP3 ADD MSTORE PUSH18 0x13115591549051D157D25390D3D4949150D5 PUSH1 0x72 SHL PUSH1 0x44 DUP3 ADD MSTORE PUSH1 0x64 ADD PUSH2 0x58B JUMP JUMPDEST PUSH2 0x100 DUP8 ADD MLOAD ISZERO DUP1 PUSH2 0x3D69 JUMPI POP DUP7 PUSH1 0xC0 ADD MLOAD PUSH2 0x3D5C JUMPI DUP7 PUSH1 0xA0 ADD MLOAD DUP8 PUSH2 0x100 ADD MLOAD LT PUSH2 0x3D69 JUMP JUMPDEST DUP7 PUSH1 0xA0 ADD MLOAD DUP8 PUSH2 0x100 ADD MLOAD GT JUMPDEST PUSH2 0x3DA0 JUMPI PUSH1 0x40 MLOAD PUSH3 0x461BCD PUSH1 0xE5 SHL DUP2 MSTORE PUSH1 0x20 PUSH1 0x4 DUP3 ADD MSTORE PUSH1 0x8 PUSH1 0x24 DUP3 ADD MSTORE PUSH8 0x57524F4E475F545 PUSH1 0xC4 SHL PUSH1 0x44 DUP3 ADD MSTORE PUSH1 0x64 ADD PUSH2 0x58B JUMP JUMPDEST PUSH2 0x120 DUP8 ADD MLOAD ISZERO DUP1 PUSH2 0x3DD4 JUMPI POP DUP7 PUSH1 0xC0 ADD MLOAD PUSH2 0x3DC7 JUMPI DUP7 PUSH1 0xA0 ADD MLOAD DUP8 PUSH2 0x120 ADD MLOAD GT PUSH2 0x3DD4 JUMP JUMPDEST DUP7 PUSH1 0xA0 ADD MLOAD DUP8 PUSH2 0x120 ADD MLOAD LT JUMPDEST PUSH2 0x3E0B JUMPI PUSH1 0x40 MLOAD PUSH3 0x461BCD PUSH1 0xE5 SHL DUP2 MSTORE PUSH1 0x20 PUSH1 0x4 DUP3 ADD MSTORE PUSH1 0x8 PUSH1 0x24 DUP3 ADD MSTORE PUSH8 0x15D493D391D7D4D3 PUSH1 0xC2 SHL PUSH1 0x44 DUP3 ADD MSTORE PUSH1 0x64 ADD PUSH2 0x58B JUMP JUMPDEST PUSH1 0x0 PUSH32 0x0 PUSH1 0x1 PUSH1 0x1 PUSH1 0xA0 SHL SUB AND PUSH4 0x7EA95F32 PUSH1 0x0 DUP11 PUSH1 0x20 ADD MLOAD DUP12 PUSH1 0xC0 ADD MLOAD DUP13 PUSH1 0xE0 ADD MLOAD DUP14 PUSH1 0x80 ADD MLOAD PUSH2 0x3E5C SWAP2 SWAP1 PUSH2 0x59F1 JUMP JUMPDEST PUSH1 0x40 MLOAD PUSH1 0x1 PUSH1 0x1 PUSH1 0xE0 SHL SUB NOT PUSH1 0xE0 DUP8 SWAP1 SHL AND DUP2 MSTORE PUSH1 0x4 DUP2 ADD SWAP5 SWAP1 SWAP5 MSTORE PUSH1 0x24 DUP5 ADD SWAP3 SWAP1 SWAP3 MSTORE ISZERO ISZERO PUSH1 0x44 DUP4 ADD MSTORE PUSH1 0x64 DUP3 ADD MSTORE PUSH1 0x84 ADD PUSH1 0x40 DUP1 MLOAD DUP1 DUP4 SUB DUP2 DUP7 DUP1 EXTCODESIZE ISZERO DUP1 ISZERO PUSH2 0x3EA6 JUMPI PUSH1 0x0 DUP1 REVERT JUMPDEST POP GAS STATICCALL ISZERO DUP1 ISZERO PUSH2 0x3EBA JUMPI RETURNDATASIZE PUSH1 0x0 DUP1 RETURNDATACOPY RETURNDATASIZE PUSH1 0x0 REVERT JUMPDEST POP POP POP POP PUSH1 0x40 MLOAD RETURNDATASIZE PUSH1 0x1F NOT PUSH1 0x1F DUP3 ADD AND DUP3 ADD DUP1 PUSH1 0x40 MSTORE POP DUP2 ADD SWAP1 PUSH2 0x3EDE SWAP2 SWAP1 PUSH2 0x547C JUMP JUMPDEST POP SWAP1 POP PUSH32 0x0 PUSH1 0x1 PUSH1 0x1 PUSH1 0xA0 SHL SUB AND PUSH4 0x80F6CFC2 PUSH1 0x40 MLOAD DUP2 PUSH4 0xFFFFFFFF AND PUSH1 0xE0 SHL DUP2 MSTORE PUSH1 0x4 ADD PUSH1 0x20 PUSH1 0x40 MLOAD DUP1 DUP4 SUB DUP2 DUP7 DUP1 EXTCODESIZE ISZERO DUP1 ISZERO PUSH2 0x3F3A JUMPI PUSH1 0x0 DUP1 REVERT JUMPDEST POP GAS STATICCALL ISZERO DUP1 ISZERO PUSH2 0x3F4E JUMPI RETURNDATASIZE PUSH1 0x0 DUP1 RETURNDATACOPY RETURNDATASIZE PUSH1 0x0 REVERT JUMPDEST POP POP POP POP PUSH1 0x40 MLOAD RETURNDATASIZE PUSH1 0x1F NOT PUSH1 0x1F DUP3 ADD AND DUP3 ADD DUP1 PUSH1 0x40 MSTORE POP DUP2 ADD SWAP1 PUSH2 0x3F72 SWAP2 SWAP1 PUSH2 0x53ED JUMP JUMPDEST PUSH1 0xE0 DUP10 ADD MLOAD PUSH2 0x3F81 SWAP1 DUP4 PUSH2 0x59F1 JUMP JUMPDEST GT ISZERO PUSH2 0x3FC7 JUMPI PUSH1 0x40 MLOAD PUSH3 0x461BCD PUSH1 0xE5 SHL DUP2 MSTORE PUSH1 0x20 PUSH1 0x4 DUP3 ADD MSTORE PUSH1 0x15 PUSH1 0x24 DUP3 ADD MSTORE PUSH21 0xA0A492868ABE929AA08286A8BEA89E9EBE90928E9 PUSH1 0x5B SHL PUSH1 0x44 DUP3 ADD MSTORE PUSH1 0x64 ADD PUSH2 0x58B JUMP JUMPDEST PUSH1 0x80 DUP9 ADD MLOAD PUSH1 0x40 MLOAD PUSH4 0x373873DB PUSH1 0xE1 SHL DUP2 MSTORE PUSH1 0x1 PUSH1 0x1 PUSH1 0xA0 SHL SUB DUP5 DUP2 AND PUSH1 0x4 DUP4 ADD MSTORE PUSH32 0x0 AND PUSH1 0x24 DUP3 ADD DUP2 SWAP1 MSTORE PUSH1 0x44 DUP3 ADD SWAP3 SWAP1 SWAP3 MSTORE PUSH4 0x6E70E7B6 SWAP1 PUSH1 0x64 ADD PUSH1 0x0 PUSH1 0x40 MLOAD DUP1 DUP4 SUB DUP2 PUSH1 0x0 DUP8 DUP1 EXTCODESIZE ISZERO DUP1 ISZERO PUSH2 0x403D JUMPI PUSH1 0x0 DUP1 REVERT JUMPDEST POP GAS CALL ISZERO DUP1 ISZERO PUSH2 0x4051 JUMPI RETURNDATASIZE PUSH1 0x0 DUP1 RETURNDATACOPY RETURNDATASIZE PUSH1 0x0 REVERT JUMPDEST POP PUSH1 0x0 SWAP3 POP PUSH2 0x405E SWAP2 POP POP JUMP JUMPDEST DUP8 PUSH1 0x2 DUP2 GT ISZERO PUSH2 0x4070 JUMPI PUSH2 0x4070 PUSH2 0x5A6D JUMP JUMPDEST EQ PUSH2 0x4497 JUMPI PUSH1 0x20 DUP9 ADD MLOAD PUSH1 0x40 MLOAD PUSH4 0x226A27AD PUSH1 0xE1 SHL DUP2 MSTORE PUSH1 0x1 PUSH1 0x1 PUSH1 0xA0 SHL SUB DUP5 DUP2 AND PUSH1 0x4 DUP4 ADD MSTORE PUSH1 0x24 DUP3 ADD SWAP3 SWAP1 SWAP3 MSTORE PUSH1 0x0 SWAP2 PUSH32 0x0 AND SWAP1 PUSH4 0x44D44F5A SWAP1 PUSH1 0x44 ADD PUSH1 0x20 PUSH1 0x40 MLOAD DUP1 DUP4 SUB DUP2 DUP7 DUP1 EXTCODESIZE ISZERO DUP1 ISZERO PUSH2 0x40E6 JUMPI PUSH1 0x0 DUP1 REVERT JUMPDEST POP GAS STATICCALL ISZERO DUP1 ISZERO PUSH2 0x40FA JUMPI RETURNDATASIZE PUSH1 0x0 DUP1 RETURNDATACOPY RETURNDATASIZE PUSH1 0x0 REVERT JUMPDEST POP POP POP POP PUSH1 0x40 MLOAD RETURNDATASIZE PUSH1 0x1F NOT PUSH1 0x1F DUP3 ADD AND DUP3 ADD DUP1 PUSH1 0x40 MSTORE POP DUP2 ADD SWAP1 PUSH2 0x411E SWAP2 SWAP1 PUSH2 0x53ED JUMP JUMPDEST SWAP1 POP PUSH32 0x0 PUSH1 0x1 PUSH1 0x1 PUSH1 0xA0 SHL SUB AND PUSH4 0xD3B5FE70 PUSH1 0x40 MLOAD DUP1 PUSH2 0x1A0 ADD PUSH1 0x40 MSTORE DUP1 DUP7 PUSH1 0x1 PUSH1 0x1 PUSH1 0xA0 SHL SUB AND DUP2 MSTORE PUSH1 0x20 ADD DUP13 PUSH1 0x20 ADD MLOAD DUP2 MSTORE PUSH1 0x20 ADD DUP5 DUP2 MSTORE PUSH1 0x20 ADD DUP13 PUSH1 0x80 ADD MLOAD DUP2 MSTORE PUSH1 0x20 ADD PUSH1 0x0 DUP2 MSTORE PUSH1 0x20 ADD DUP13 PUSH1 0xC0 ADD MLOAD ISZERO ISZERO DUP2 MSTORE PUSH1 0x20 ADD DUP13 PUSH1 0xE0 ADD MLOAD DUP2 MSTORE PUSH1 0x20 ADD DUP13 PUSH2 0x100 ADD MLOAD DUP2 MSTORE PUSH1 0x20 ADD DUP13 PUSH2 0x120 ADD MLOAD DUP2 MSTORE PUSH1 0x20 ADD DUP13 PUSH1 0xA0 ADD MLOAD DUP2 MSTORE PUSH1 0x20 ADD DUP13 PUSH1 0xA0 ADD MLOAD DUP2 MSTORE PUSH1 0x20 ADD NUMBER DUP2 MSTORE PUSH1 0x20 ADD PUSH1 0x0 DUP2 MSTORE POP PUSH1 0x40 MLOAD DUP3 PUSH4 0xFFFFFFFF AND PUSH1 0xE0 SHL DUP2 MSTORE PUSH1 0x4 ADD PUSH2 0x41F2 SWAP2 SWAP1 PUSH2 0x5796 JUMP JUMPDEST PUSH1 0x0 PUSH1 0x40 MLOAD DUP1 DUP4 SUB DUP2 PUSH1 0x0 DUP8 DUP1 EXTCODESIZE ISZERO DUP1 ISZERO PUSH2 0x420C JUMPI PUSH1 0x0 DUP1 REVERT JUMPDEST POP GAS CALL ISZERO DUP1 ISZERO PUSH2 0x4220 JUMPI RETURNDATASIZE PUSH1 0x0 DUP1 RETURNDATACOPY RETURNDATASIZE PUSH1 0x0 REVERT JUMPDEST POP POP POP POP PUSH1 0x20 DUP10 ADD MLOAD PUSH1 0x40 MLOAD PUSH4 0xEC57061 PUSH1 0xE4 SHL DUP2 MSTORE PUSH32 0x0 PUSH1 0x1 PUSH1 0x1 PUSH1 0xA0 SHL SUB AND SWAP2 PUSH4 0xEC570610 SWAP2 PUSH2 0x4279 SWAP2 DUP8 SWAP2 DUP7 SWAP1 DUP15 SWAP1 PUSH1 0x4 ADD PUSH2 0x568E JUMP JUMPDEST PUSH1 0x0 PUSH1 0x40 MLOAD DUP1 DUP4 SUB DUP2 PUSH1 0x0 DUP8 DUP1 EXTCODESIZE ISZERO DUP1 ISZERO PUSH2 0x4293 JUMPI PUSH1 0x0 DUP1 REVERT JUMPDEST POP GAS CALL ISZERO DUP1 ISZERO PUSH2 0x42A7 JUMPI RETURNDATASIZE PUSH1 0x0 DUP1 RETURNDATACOPY RETURNDATASIZE PUSH1 0x0 REVERT JUMPDEST POP POP POP POP PUSH1 0x0 PUSH32 0x0 PUSH1 0x1 PUSH1 0x1 PUSH1 0xA0 SHL SUB AND PUSH3 0xB12783 PUSH1 0x40 MLOAD DUP2 PUSH4 0xFFFFFFFF AND PUSH1 0xE0 SHL DUP2 MSTORE PUSH1 0x4 ADD PUSH1 0x20 PUSH1 0x40 MLOAD DUP1 DUP4 SUB DUP2 DUP7 DUP1 EXTCODESIZE ISZERO DUP1 ISZERO PUSH2 0x4305 JUMPI PUSH1 0x0 DUP1 REVERT JUMPDEST POP GAS STATICCALL ISZERO DUP1 ISZERO PUSH2 0x4319 JUMPI RETURNDATASIZE PUSH1 0x0 DUP1 RETURNDATACOPY RETURNDATASIZE PUSH1 0x0 REVERT JUMPDEST POP POP POP POP PUSH1 0x40 MLOAD RETURNDATASIZE PUSH1 0x1F NOT PUSH1 0x1F DUP3 ADD AND DUP3 ADD DUP1 PUSH1 0x40 MSTORE POP DUP2 ADD SWAP1 PUSH2 0x433D SWAP2 SWAP1 PUSH2 0x4F04 JUMP JUMPDEST SWAP1 POP DUP1 PUSH1 0x1 PUSH1 0x1 PUSH1 0xA0 SHL SUB AND PUSH20 0x0 PUSH4 0x95ECBBEA SWAP1 SWAP2 DUP7 DUP14 PUSH1 0x20 ADD MLOAD DUP7 PUSH1 0x1 PUSH2 0x4376 PUSH2 0x4BC8 JUMP JUMPDEST PUSH1 0x40 MLOAD DUP8 PUSH4 0xFFFFFFFF AND PUSH1 0xE0 SHL DUP2 MSTORE PUSH1 0x4 ADD PUSH2 0x4397 SWAP7 SWAP6 SWAP5 SWAP4 SWAP3 SWAP2 SWAP1 PUSH2 0x5629 JUMP JUMPDEST PUSH1 0x0 PUSH1 0x40 MLOAD DUP1 DUP4 SUB DUP2 DUP7 DUP1 EXTCODESIZE ISZERO DUP1 ISZERO PUSH2 0x43AF JUMPI PUSH1 0x0 DUP1 REVERT JUMPDEST POP GAS DELEGATECALL ISZERO DUP1 ISZERO PUSH2 0x43C3 JUMPI RETURNDATASIZE PUSH1 0x0 DUP1 RETURNDATACOPY RETURNDATASIZE PUSH1 0x0 REVERT JUMPDEST POP POP POP POP DUP1 PUSH1 0x1 PUSH1 0x1 PUSH1 0xA0 SHL SUB AND PUSH20 0x0 PUSH4 0x25F40EF9 SWAP1 SWAP2 DUP7 DUP14 PUSH1 0x20 ADD MLOAD DUP7 PUSH1 0x1 DUP15 PUSH1 0x40 MLOAD DUP8 PUSH4 0xFFFFFFFF AND PUSH1 0xE0 SHL DUP2 MSTORE PUSH1 0x4 ADD PUSH2 0x4418 SWAP7 SWAP6 SWAP5 SWAP4 SWAP3 SWAP2 SWAP1 PUSH2 0x5629 JUMP JUMPDEST PUSH1 0x0 PUSH1 0x40 MLOAD DUP1 DUP4 SUB DUP2 DUP7 DUP1 EXTCODESIZE ISZERO DUP1 ISZERO PUSH2 0x4430 JUMPI PUSH1 0x0 DUP1 REVERT JUMPDEST POP GAS DELEGATECALL ISZERO DUP1 ISZERO PUSH2 0x4444 JUMPI RETURNDATASIZE PUSH1 0x0 DUP1 RETURNDATACOPY RETURNDATASIZE PUSH1 0x0 REVERT JUMPDEST POP POP POP POP DUP10 PUSH1 0x20 ADD MLOAD DUP5 PUSH1 0x1 PUSH1 0x1 PUSH1 0xA0 SHL SUB AND PUSH32 0xDFABD6F206F17B7F2E1F9E0D33C40D30D1E8D7B6A4F520A03FDC1C1811059343 DUP5 PUSH1 0x40 MLOAD PUSH2 0x4488 SWAP2 DUP2 MSTORE PUSH1 0x20 ADD SWAP1 JUMP JUMPDEST PUSH1 0x40 MLOAD DUP1 SWAP2 SUB SWAP1 LOG3 POP POP PUSH2 0x46AF JUMP JUMPDEST PUSH1 0x0 DUP5 PUSH1 0x1 PUSH1 0x1 PUSH1 0xA0 SHL SUB AND PUSH4 0x6938C05D DUP11 PUSH1 0x20 ADD MLOAD PUSH1 0x0 DUP13 PUSH1 0xE0 ADD MLOAD DUP14 PUSH1 0x80 ADD MLOAD PUSH2 0x44C3 SWAP2 SWAP1 PUSH2 0x59F1 JUMP JUMPDEST PUSH2 0x44CB PUSH2 0x4BC8 JUMP JUMPDEST PUSH1 0x40 MLOAD DUP6 PUSH4 0xFFFFFFFF AND PUSH1 0xE0 SHL DUP2 MSTORE PUSH1 0x4 ADD PUSH2 0x44EA SWAP5 SWAP4 SWAP3 SWAP2 SWAP1 PUSH2 0x590D JUMP JUMPDEST PUSH1 0x20 PUSH1 0x40 MLOAD DUP1 DUP4 SUB DUP2 PUSH1 0x0 DUP8 DUP1 EXTCODESIZE ISZERO DUP1 ISZERO PUSH2 0x4504 JUMPI PUSH1 0x0 DUP1 REVERT JUMPDEST POP GAS CALL ISZERO DUP1 ISZERO PUSH2 0x4518 JUMPI RETURNDATASIZE PUSH1 0x0 DUP1 RETURNDATACOPY RETURNDATASIZE PUSH1 0x0 REVERT JUMPDEST POP POP POP POP PUSH1 0x40 MLOAD RETURNDATASIZE PUSH1 0x1F NOT PUSH1 0x1F DUP3 ADD AND DUP3 ADD DUP1 PUSH1 0x40 MSTORE POP DUP2 ADD SWAP1 PUSH2 0x453C SWAP2 SWAP1 PUSH2 0x53ED JUMP JUMPDEST SWAP1 POP PUSH32 0x0 PUSH1 0x1 PUSH1 0x1 PUSH1 0xA0 SHL SUB AND PUSH4 0xC76FAF78 PUSH1 0x40 MLOAD DUP1 PUSH1 0xC0 ADD PUSH1 0x40 MSTORE DUP1 PUSH1 0x40 MLOAD DUP1 PUSH2 0x140 ADD PUSH1 0x40 MSTORE DUP1 DUP9 PUSH1 0x1 PUSH1 0x1 PUSH1 0xA0 SHL SUB AND DUP2 MSTORE PUSH1 0x20 ADD DUP15 PUSH1 0x20 ADD MLOAD DUP2 MSTORE PUSH1 0x20 ADD PUSH1 0x0 DUP2 MSTORE PUSH1 0x20 ADD PUSH1 0x0 DUP2 MSTORE PUSH1 0x20 ADD DUP15 PUSH1 0x80 ADD MLOAD DUP2 MSTORE PUSH1 0x20 ADD PUSH1 0x0 DUP2 MSTORE PUSH1 0x20 ADD DUP15 PUSH1 0xC0 ADD MLOAD ISZERO ISZERO DUP2 MSTORE PUSH1 0x20 ADD DUP15 PUSH1 0xE0 ADD MLOAD DUP2 MSTORE PUSH1 0x20 ADD DUP15 PUSH2 0x100 ADD MLOAD DUP2 MSTORE PUSH1 0x20 ADD DUP15 PUSH2 0x120 ADD MLOAD DUP2 MSTORE POP DUP2 MSTORE PUSH1 0x20 ADD PUSH1 0x0 DUP2 MSTORE PUSH1 0x20 ADD DUP13 PUSH1 0xA0 ADD MLOAD DUP2 MSTORE PUSH1 0x20 ADD DUP11 DUP2 MSTORE PUSH1 0x20 ADD PUSH1 0x0 DUP2 MSTORE PUSH1 0x20 ADD PUSH1 0x0 DUP2 MSTORE POP DUP4 PUSH1 0x1 PUSH1 0x40 MLOAD DUP5 PUSH4 0xFFFFFFFF AND PUSH1 0xE0 SHL DUP2 MSTORE PUSH1 0x4 ADD PUSH2 0x462F SWAP4 SWAP3 SWAP2 SWAP1 PUSH2 0x5845 JUMP JUMPDEST PUSH1 0x0 PUSH1 0x40 MLOAD DUP1 DUP4 SUB DUP2 PUSH1 0x0 DUP8 DUP1 EXTCODESIZE ISZERO DUP1 ISZERO PUSH2 0x4649 JUMPI PUSH1 0x0 DUP1 REVERT JUMPDEST POP GAS CALL ISZERO DUP1 ISZERO PUSH2 0x465D JUMPI RETURNDATASIZE PUSH1 0x0 DUP1 RETURNDATACOPY RETURNDATASIZE PUSH1 0x0 REVERT JUMPDEST POP POP POP POP DUP9 PUSH1 0x20 ADD MLOAD DUP4 PUSH1 0x1 PUSH1 0x1 PUSH1 0xA0 SHL SUB AND DUP3 PUSH32 0x3E544118C04E3BB18B669475695CD270BA0E41FB13177483F01C14222DE62A86 PUSH1 0x1 PUSH1 0x40 MLOAD PUSH2 0x46A5 SWAP2 ISZERO ISZERO DUP2 MSTORE PUSH1 0x20 ADD SWAP1 JUMP JUMPDEST PUSH1 0x40 MLOAD DUP1 SWAP2 SUB SWAP1 LOG4 POP JUMPDEST PUSH1 0x40 MLOAD PUSH4 0x26E2ADA1 PUSH1 0xE2 SHL DUP2 MSTORE PUSH1 0x1 PUSH1 0x1 PUSH1 0xA0 SHL SUB DUP4 DUP2 AND PUSH1 0x4 DUP4 ADD MSTORE DUP7 DUP2 AND PUSH1 0x24 DUP4 ADD MSTORE PUSH32 0x0 AND SWAP1 PUSH4 0x9B8AB684 SWAP1 PUSH1 0x44 ADD PUSH1 0x0 PUSH1 0x40 MLOAD DUP1 DUP4 SUB DUP2 PUSH1 0x0 DUP8 DUP1 EXTCODESIZE ISZERO DUP1 ISZERO PUSH2 0x471A JUMPI PUSH1 0x0 DUP1 REVERT JUMPDEST POP GAS CALL ISZERO DUP1 ISZERO PUSH2 0x472E JUMPI RETURNDATASIZE PUSH1 0x0 DUP1 RETURNDATACOPY RETURNDATASIZE PUSH1 0x0 REVERT JUMPDEST POP POP POP POP POP POP POP POP POP POP POP POP JUMP JUMPDEST PUSH2 0x4764 PUSH1 0x40 DUP1 MLOAD PUSH1 0x80 DUP2 ADD DUP3 MSTORE PUSH1 0x0 DUP1 DUP3 MSTORE PUSH1 0x20 DUP3 ADD DUP2 SWAP1 MSTORE SWAP2 DUP2 ADD DUP3 SWAP1 MSTORE SWAP1 PUSH1 0x60 DUP3 ADD MSTORE SWAP1 JUMP JUMPDEST PUSH1 0x40 MLOAD DUP1 PUSH1 0x80 ADD PUSH1 0x40 MSTORE DUP1 DUP7 PUSH1 0x1 PUSH1 0x1 PUSH1 0xA0 SHL SUB AND DUP2 MSTORE PUSH1 0x20 ADD DUP6 DUP2 MSTORE PUSH1 0x20 ADD DUP5 DUP2 MSTORE PUSH1 0x20 ADD DUP4 PUSH1 0x3 DUP2 GT ISZERO PUSH2 0x479C JUMPI PUSH2 0x479C PUSH2 0x5A6D JUMP JUMPDEST SWAP1 MSTORE PUSH1 0x40 MLOAD PUSH4 0x108C3D49 PUSH1 0xE1 SHL DUP2 MSTORE SWAP1 SWAP2 POP PUSH1 0x1 PUSH1 0x1 PUSH1 0xA0 SHL SUB PUSH32 0x0 AND SWAP1 PUSH4 0x21187A92 SWAP1 PUSH2 0x47ED SWAP1 DUP5 SWAP1 PUSH1 0x4 ADD PUSH2 0x58CC JUMP JUMPDEST PUSH1 0x20 PUSH1 0x40 MLOAD DUP1 DUP4 SUB DUP2 DUP7 DUP1 EXTCODESIZE ISZERO DUP1 ISZERO PUSH2 0x4805 JUMPI PUSH1 0x0 DUP1 REVERT JUMPDEST POP GAS STATICCALL ISZERO DUP1 ISZERO PUSH2 0x4819 JUMPI RETURNDATASIZE PUSH1 0x0 DUP1 RETURNDATACOPY RETURNDATASIZE PUSH1 0x0 REVERT JUMPDEST POP POP POP POP PUSH1 0x40 MLOAD RETURNDATASIZE PUSH1 0x1F NOT PUSH1 0x1F DUP3 ADD AND DUP3 ADD DUP1 PUSH1 0x40 MSTORE POP DUP2 ADD SWAP1 PUSH2 0x483D SWAP2 SWAP1 PUSH2 0x4FDF JUMP JUMPDEST ISZERO DUP1 PUSH2 0x48E0 JUMPI POP PUSH1 0x40 MLOAD PUSH4 0x3F1B72BF PUSH1 0xE2 SHL DUP2 MSTORE PUSH1 0x1 PUSH1 0x1 PUSH1 0xA0 SHL SUB PUSH32 0x0 AND SWAP1 PUSH4 0xFC6DCAFC SWAP1 PUSH2 0x4890 SWAP1 DUP5 SWAP1 PUSH1 0x4 ADD PUSH2 0x58CC JUMP JUMPDEST PUSH1 0x20 PUSH1 0x40 MLOAD DUP1 DUP4 SUB DUP2 DUP7 DUP1 EXTCODESIZE ISZERO DUP1 ISZERO PUSH2 0x48A8 JUMPI PUSH1 0x0 DUP1 REVERT JUMPDEST POP GAS STATICCALL ISZERO DUP1 ISZERO PUSH2 0x48BC JUMPI RETURNDATASIZE PUSH1 0x0 DUP1 RETURNDATACOPY RETURNDATASIZE PUSH1 0x0 REVERT JUMPDEST POP POP POP POP PUSH1 0x40 MLOAD RETURNDATASIZE PUSH1 0x1F NOT PUSH1 0x1F DUP3 ADD AND DUP3 ADD DUP1 PUSH1 0x40 MSTORE POP DUP2 ADD SWAP1 PUSH2 0x48E0 SWAP2 SWAP1 PUSH2 0x4FDF JUMP JUMPDEST PUSH2 0x491E JUMPI PUSH1 0x40 MLOAD PUSH3 0x461BCD PUSH1 0xE5 SHL DUP2 MSTORE PUSH1 0x20 PUSH1 0x4 DUP3 ADD MSTORE PUSH1 0xF PUSH1 0x24 DUP3 ADD MSTORE PUSH15 0x2822A72224A723AFAA2924A3A3A2A9 PUSH1 0x89 SHL PUSH1 0x44 DUP3 ADD MSTORE PUSH1 0x64 ADD PUSH2 0x58B JUMP JUMPDEST SWAP5 SWAP4 POP POP POP POP JUMP JUMPDEST PUSH1 0x0 DUP1 PUSH32 0x0 PUSH1 0x1 PUSH1 0x1 PUSH1 0xA0 SHL SUB AND PUSH3 0xB12783 PUSH1 0x40 MLOAD DUP2 PUSH4 0xFFFFFFFF AND PUSH1 0xE0 SHL DUP2 MSTORE PUSH1 0x4 ADD PUSH1 0x20 PUSH1 0x40 MLOAD DUP1 DUP4 SUB DUP2 DUP7 DUP1 EXTCODESIZE ISZERO DUP1 ISZERO PUSH2 0x4981 JUMPI PUSH1 0x0 DUP1 REVERT JUMPDEST POP GAS STATICCALL ISZERO DUP1 ISZERO PUSH2 0x4995 JUMPI RETURNDATASIZE PUSH1 0x0 DUP1 RETURNDATACOPY RETURNDATASIZE PUSH1 0x0 REVERT JUMPDEST POP POP POP POP PUSH1 0x40 MLOAD RETURNDATASIZE PUSH1 0x1F NOT PUSH1 0x1F DUP3 ADD AND DUP3 ADD DUP1 PUSH1 0x40 MSTORE POP DUP2 ADD SWAP1 PUSH2 0x49B9 SWAP2 SWAP1 PUSH2 0x4F04 JUMP JUMPDEST PUSH1 0x1 PUSH1 0x1 PUSH1 0xA0 SHL SUB AND PUSH4 0x9BD24D83 DUP10 DUP10 DUP10 DUP10 PUSH1 0x40 MLOAD DUP6 PUSH4 0xFFFFFFFF AND PUSH1 0xE0 SHL DUP2 MSTORE PUSH1 0x4 ADD PUSH2 0x49EA SWAP5 SWAP4 SWAP3 SWAP2 SWAP1 PUSH2 0x56CB JUMP JUMPDEST PUSH1 0x80 PUSH1 0x40 MLOAD DUP1 DUP4 SUB DUP2 DUP7 DUP1 EXTCODESIZE ISZERO DUP1 ISZERO PUSH2 0x4A02 JUMPI PUSH1 0x0 DUP1 REVERT JUMPDEST POP GAS STATICCALL ISZERO DUP1 ISZERO PUSH2 0x4A16 JUMPI RETURNDATASIZE PUSH1 0x0 DUP1 RETURNDATACOPY RETURNDATASIZE PUSH1 0x0 REVERT JUMPDEST POP POP POP POP PUSH1 0x40 MLOAD RETURNDATASIZE PUSH1 0x1F NOT PUSH1 0x1F DUP3 ADD AND DUP3 ADD DUP1 PUSH1 0x40 MSTORE POP DUP2 ADD SWAP1 PUSH2 0x4A3A SWAP2 SWAP1 PUSH2 0x50A9 JUMP JUMPDEST SWAP1 POP PUSH1 0x0 PUSH32 0x0 PUSH1 0x1 PUSH1 0x1 PUSH1 0xA0 SHL SUB AND PUSH4 0x3078FFF5 PUSH1 0x40 MLOAD DUP2 PUSH4 0xFFFFFFFF AND PUSH1 0xE0 SHL DUP2 MSTORE PUSH1 0x4 ADD PUSH1 0x20 PUSH1 0x40 MLOAD DUP1 DUP4 SUB DUP2 DUP7 DUP1 EXTCODESIZE ISZERO DUP1 ISZERO PUSH2 0x4A97 JUMPI PUSH1 0x0 DUP1 REVERT JUMPDEST POP GAS STATICCALL ISZERO DUP1 ISZERO PUSH2 0x4AAB JUMPI RETURNDATASIZE PUSH1 0x0 DUP1 RETURNDATACOPY RETURNDATASIZE PUSH1 0x0 REVERT JUMPDEST POP POP POP POP PUSH1 0x40 MLOAD RETURNDATASIZE PUSH1 0x1F NOT PUSH1 0x1F DUP3 ADD AND DUP3 ADD DUP1 PUSH1 0x40 MSTORE POP DUP2 ADD SWAP1 PUSH2 0x4ACF SWAP2 SWAP1 PUSH2 0x4F04 JUMP JUMPDEST SWAP1 POP DUP1 PUSH1 0x1 PUSH1 0x1 PUSH1 0xA0 SHL SUB AND PUSH4 0x6938C05D DUP10 DUP13 PUSH2 0x4AED JUMPI PUSH1 0x3 PUSH2 0x4AF0 JUMP JUMPDEST PUSH1 0x2 JUMPDEST DUP8 DUP15 PUSH2 0x4B43 JUMPI PUSH1 0x1 DUP11 PUSH1 0x3 DUP2 GT ISZERO PUSH2 0x4B0A JUMPI PUSH2 0x4B0A PUSH2 0x5A6D JUMP JUMPDEST EQ PUSH2 0x4B39 JUMPI PUSH1 0x0 DUP11 PUSH1 0x3 DUP2 GT ISZERO PUSH2 0x4B23 JUMPI PUSH2 0x4B23 PUSH2 0x5A6D JUMP JUMPDEST EQ PUSH2 0x4B32 JUMPI DUP7 PUSH1 0x60 ADD MLOAD PUSH2 0x4B49 JUMP JUMPDEST DUP7 MLOAD PUSH2 0x4B49 JUMP JUMPDEST DUP7 PUSH1 0x20 ADD MLOAD PUSH2 0x4B49 JUMP JUMPDEST DUP7 PUSH1 0x40 ADD MLOAD JUMPDEST PUSH1 0x40 MLOAD DUP6 PUSH4 0xFFFFFFFF AND PUSH1 0xE0 SHL DUP2 MSTORE PUSH1 0x4 ADD PUSH2 0x4B68 SWAP5 SWAP4 SWAP3 SWAP2 SWAP1 PUSH2 0x5938 JUMP JUMPDEST PUSH1 0x20 PUSH1 0x40 MLOAD DUP1 DUP4 SUB DUP2 PUSH1 0x0 DUP8 DUP1 EXTCODESIZE ISZERO DUP1 ISZERO PUSH2 0x4B82 JUMPI PUSH1 0x0 DUP1 REVERT JUMPDEST POP GAS CALL ISZERO DUP1 ISZERO PUSH2 0x4B96 JUMPI RETURNDATASIZE PUSH1 0x0 DUP1 RETURNDATACOPY RETURNDATASIZE PUSH1 0x0 REVERT JUMPDEST POP POP POP POP PUSH1 0x40 MLOAD RETURNDATASIZE PUSH1 0x1F NOT PUSH1 0x1F DUP3 ADD AND DUP3 ADD DUP1 PUSH1 0x40 MSTORE POP DUP2 ADD SWAP1 PUSH2 0x4BBA SWAP2 SWAP1 PUSH2 0x53ED JUMP JUMPDEST SWAP11 SWAP10 POP POP POP POP POP POP POP POP POP POP JUMP JUMPDEST PUSH1 0x0 PUSH2 0xA4B1 CHAINID EQ DUP1 PUSH2 0x4BDC JUMPI POP PUSH3 0x66EED CHAINID EQ JUMPDEST ISZERO PUSH2 0x4C58 JUMPI PUSH1 0x64 PUSH1 0x1 PUSH1 0x1 PUSH1 0xA0 SHL SUB AND PUSH4 0xA3B1B31D PUSH1 0x40 MLOAD DUP2 PUSH4 0xFFFFFFFF AND PUSH1 0xE0 SHL DUP2 MSTORE PUSH1 0x4 ADD PUSH1 0x20 PUSH1 0x40 MLOAD DUP1 DUP4 SUB DUP2 DUP7 DUP1 EXTCODESIZE ISZERO DUP1 ISZERO PUSH2 0x4C1B JUMPI PUSH1 0x0 DUP1 REVERT JUMPDEST POP GAS STATICCALL ISZERO DUP1 ISZERO PUSH2 0x4C2F JUMPI RETURNDATASIZE PUSH1 0x0 DUP1 RETURNDATACOPY RETURNDATASIZE PUSH1 0x0 REVERT JUMPDEST POP POP POP POP PUSH1 0x40 MLOAD RETURNDATASIZE PUSH1 0x1F NOT PUSH1 0x1F DUP3 ADD AND DUP3 ADD DUP1 PUSH1 0x40 MSTORE POP DUP2 ADD SWAP1 PUSH2 0x4C53 SWAP2 SWAP1 PUSH2 0x53ED JUMP JUMPDEST SWAP1 POP SWAP1 JUMP JUMPDEST POP NUMBER SWAP1 JUMP JUMPDEST PUSH1 0x0 DUP1 PUSH32 0x0 PUSH1 0x1 PUSH1 0x1 PUSH1 0xA0 SHL SUB AND PUSH3 0xB12783 PUSH1 0x40 MLOAD DUP2 PUSH4 0xFFFFFFFF AND PUSH1 0xE0 SHL DUP2 MSTORE PUSH1 0x4 ADD PUSH1 0x20 PUSH1 0x40 MLOAD DUP1 DUP4 SUB DUP2 DUP7 DUP1 EXTCODESIZE ISZERO DUP1 ISZERO PUSH2 0x4CB8 JUMPI PUSH1 0x0 DUP1 REVERT JUMPDEST POP GAS STATICCALL ISZERO DUP1 ISZERO PUSH2 0x4CCC JUMPI RETURNDATASIZE PUSH1 0x0 DUP1 RETURNDATACOPY RETURNDATASIZE PUSH1 0x0 REVERT JUMPDEST POP POP POP POP PUSH1 0x40 MLOAD RETURNDATASIZE PUSH1 0x1F NOT PUSH1 0x1F DUP3 ADD AND DUP3 ADD DUP1 PUSH1 0x40 MSTORE POP DUP2 ADD SWAP1 PUSH2 0x4CF0 SWAP2 SWAP1 PUSH2 0x4F04 JUMP JUMPDEST PUSH1 0x1 PUSH1 0x1 PUSH1 0xA0 SHL SUB AND PUSH4 0x281B693C DUP5 PUSH1 0x40 MLOAD DUP3 PUSH4 0xFFFFFFFF AND PUSH1 0xE0 SHL DUP2 MSTORE PUSH1 0x4 ADD PUSH2 0x4D1D SWAP2 DUP2 MSTORE PUSH1 0x20 ADD SWAP1 JUMP JUMPDEST PUSH1 0x20 PUSH1 0x40 MLOAD DUP1 DUP4 SUB DUP2 DUP7 DUP1 EXTCODESIZE ISZERO DUP1 ISZERO PUSH2 0x4D35 JUMPI PUSH1 0x0 DUP1 REVERT JUMPDEST POP GAS STATICCALL ISZERO DUP1 ISZERO PUSH2 0x4D49 JUMPI RETURNDATASIZE PUSH1 0x0 DUP1 RETURNDATACOPY RETURNDATASIZE PUSH1 0x0 REVERT JUMPDEST POP POP POP POP PUSH1 0x40 MLOAD RETURNDATASIZE PUSH1 0x1F NOT PUSH1 0x1F DUP3 ADD AND DUP3 ADD DUP1 PUSH1 0x40 MSTORE POP DUP2 ADD SWAP1 PUSH2 0x4D6D SWAP2 SWAP1 PUSH2 0x53ED JUMP JUMPDEST SWAP1 POP PUSH1 0x0 DUP2 GT PUSH2 0x4DF4 JUMPI PUSH1 0x40 MLOAD PUSH4 0xA06DA4F PUSH1 0xE2 SHL DUP2 MSTORE PUSH1 0x4 DUP2 ADD DUP5 SWAP1 MSTORE PUSH1 0x1 PUSH1 0x1 PUSH1 0xA0 SHL SUB DUP6 AND SWAP1 PUSH4 0x281B693C SWAP1 PUSH1 0x24 ADD PUSH1 0x20 PUSH1 0x40 MLOAD DUP1 DUP4 SUB DUP2 DUP7 DUP1 EXTCODESIZE ISZERO DUP1 ISZERO PUSH2 0x4DB7 JUMPI PUSH1 0x0 DUP1 REVERT JUMPDEST POP GAS STATICCALL ISZERO DUP1 ISZERO PUSH2 0x4DCB JUMPI RETURNDATASIZE PUSH1 0x0 DUP1 RETURNDATACOPY RETURNDATASIZE PUSH1 0x0 REVERT JUMPDEST POP POP POP POP PUSH1 0x40 MLOAD RETURNDATASIZE PUSH1 0x1F NOT PUSH1 0x1F DUP3 ADD AND DUP3 ADD DUP1 PUSH1 0x40 MSTORE POP DUP2 ADD SWAP1 PUSH2 0x4DEF SWAP2 SWAP1 PUSH2 0x53ED JUMP JUMPDEST PUSH2 0x4DF6 JUMP JUMPDEST DUP1 JUMPDEST SWAP2 POP POP JUMPDEST SWAP3 SWAP2 POP POP JUMP JUMPDEST DUP1 CALLDATALOAD PUSH2 0x4E0B DUP2 PUSH2 0x5AAC JUMP JUMPDEST SWAP2 SWAP1 POP JUMP JUMPDEST DUP1 MLOAD PUSH2 0x4E0B DUP2 PUSH2 0x5AAC JUMP JUMPDEST DUP1 CALLDATALOAD PUSH2 0x4E0B DUP2 PUSH2 0x5AC1 JUMP JUMPDEST DUP1 MLOAD PUSH2 0x4E0B DUP2 PUSH2 0x5AC1 JUMP JUMPDEST DUP1 CALLDATALOAD PUSH1 0x3 DUP2 LT PUSH2 0x4E0B JUMPI PUSH1 0x0 DUP1 REVERT JUMPDEST PUSH1 0x0 PUSH2 0x140 DUP3 DUP5 SUB SLT ISZERO PUSH2 0x4E53 JUMPI PUSH1 0x0 DUP1 REVERT JUMPDEST PUSH2 0x4E5B PUSH2 0x5969 JUMP JUMPDEST SWAP1 POP PUSH2 0x4E66 DUP3 PUSH2 0x4E10 JUMP JUMPDEST DUP2 MSTORE PUSH1 0x20 DUP3 ADD MLOAD PUSH1 0x20 DUP3 ADD MSTORE PUSH1 0x40 DUP3 ADD MLOAD PUSH1 0x40 DUP3 ADD MSTORE PUSH1 0x60 DUP3 ADD MLOAD PUSH1 0x60 DUP3 ADD MSTORE PUSH1 0x80 DUP3 ADD MLOAD PUSH1 0x80 DUP3 ADD MSTORE PUSH1 0xA0 DUP3 ADD MLOAD PUSH1 0xA0 DUP3 ADD MSTORE PUSH2 0x4EA6 PUSH1 0xC0 DUP4 ADD PUSH2 0x4E26 JUMP JUMPDEST PUSH1 0xC0 DUP3 ADD MSTORE PUSH1 0xE0 DUP3 ADD MLOAD PUSH1 0xE0 DUP3 ADD MSTORE PUSH2 0x100 DUP1 DUP4 ADD MLOAD DUP2 DUP4 ADD MSTORE POP PUSH2 0x120 DUP1 DUP4 ADD MLOAD DUP2 DUP4 ADD MSTORE POP SWAP3 SWAP2 POP POP JUMP JUMPDEST DUP1 MLOAD PUSH4 0xFFFFFFFF DUP2 AND DUP2 EQ PUSH2 0x4E0B JUMPI PUSH1 0x0 DUP1 REVERT JUMPDEST PUSH1 0x0 PUSH1 0x20 DUP3 DUP5 SUB SLT ISZERO PUSH2 0x4EF9 JUMPI PUSH1 0x0 DUP1 REVERT JUMPDEST DUP2 CALLDATALOAD PUSH2 0x4DF4 DUP2 PUSH2 0x5AAC JUMP JUMPDEST PUSH1 0x0 PUSH1 0x20 DUP3 DUP5 SUB SLT ISZERO PUSH2 0x4F16 JUMPI PUSH1 0x0 DUP1 REVERT JUMPDEST DUP2 MLOAD PUSH2 0x4DF4 DUP2 PUSH2 0x5AAC JUMP JUMPDEST PUSH1 0x0 DUP1 PUSH1 0x40 DUP4 DUP6 SUB SLT ISZERO PUSH2 0x4F34 JUMPI PUSH1 0x0 DUP1 REVERT JUMPDEST DUP3 CALLDATALOAD PUSH2 0x4F3F DUP2 PUSH2 0x5AAC JUMP JUMPDEST SWAP2 POP PUSH1 0x20 DUP4 ADD CALLDATALOAD PUSH2 0x4F4F DUP2 PUSH2 0x5AC1 JUMP JUMPDEST DUP1 SWAP2 POP POP SWAP3 POP SWAP3 SWAP1 POP JUMP JUMPDEST PUSH1 0x0 DUP1 PUSH1 0x0 PUSH1 0x40 DUP5 DUP7 SUB SLT ISZERO PUSH2 0x4F6F JUMPI PUSH1 0x0 DUP1 REVERT JUMPDEST DUP4 CALLDATALOAD PUSH2 0x4F7A DUP2 PUSH2 0x5AAC JUMP JUMPDEST SWAP3 POP PUSH1 0x20 DUP5 ADD CALLDATALOAD PUSH8 0xFFFFFFFFFFFFFFFF DUP1 DUP3 GT ISZERO PUSH2 0x4F97 JUMPI PUSH1 0x0 DUP1 REVERT JUMPDEST DUP2 DUP7 ADD SWAP2 POP DUP7 PUSH1 0x1F DUP4 ADD SLT PUSH2 0x4FAB JUMPI PUSH1 0x0 DUP1 REVERT JUMPDEST DUP2 CALLDATALOAD DUP2 DUP2 GT ISZERO PUSH2 0x4FBA JUMPI PUSH1 0x0 DUP1 REVERT JUMPDEST DUP8 PUSH1 0x20 DUP3 DUP6 ADD ADD GT ISZERO PUSH2 0x4FCC JUMPI PUSH1 0x0 DUP1 REVERT JUMPDEST PUSH1 0x20 DUP4 ADD SWAP5 POP DUP1 SWAP4 POP POP POP POP SWAP3 POP SWAP3 POP SWAP3 JUMP JUMPDEST PUSH1 0x0 PUSH1 0x20 DUP3 DUP5 SUB SLT ISZERO PUSH2 0x4FF1 JUMPI PUSH1 0x0 DUP1 REVERT JUMPDEST DUP2 MLOAD PUSH2 0x4DF4 DUP2 PUSH2 0x5AC1 JUMP JUMPDEST PUSH1 0x0 PUSH1 0x20 DUP3 DUP5 SUB SLT ISZERO PUSH2 0x500E JUMPI PUSH1 0x0 DUP1 REVERT JUMPDEST DUP2 MLOAD PUSH8 0xFFFFFFFFFFFFFFFF DUP1 DUP3 GT ISZERO PUSH2 0x5026 JUMPI PUSH1 0x0 DUP1 REVERT JUMPDEST DUP2 DUP5 ADD SWAP2 POP DUP5 PUSH1 0x1F DUP4 ADD SLT PUSH2 0x503A JUMPI PUSH1 0x0 DUP1 REVERT JUMPDEST DUP2 MLOAD DUP2 DUP2 GT ISZERO PUSH2 0x504C JUMPI PUSH2 0x504C PUSH2 0x5A83 JUMP JUMPDEST PUSH1 0x40 MLOAD PUSH1 0x1F DUP3 ADD PUSH1 0x1F NOT SWAP1 DUP2 AND PUSH1 0x3F ADD AND DUP2 ADD SWAP1 DUP4 DUP3 GT DUP2 DUP4 LT OR ISZERO PUSH2 0x5074 JUMPI PUSH2 0x5074 PUSH2 0x5A83 JUMP JUMPDEST DUP2 PUSH1 0x40 MSTORE DUP3 DUP2 MSTORE DUP8 PUSH1 0x20 DUP5 DUP8 ADD ADD GT ISZERO PUSH2 0x508D JUMPI PUSH1 0x0 DUP1 REVERT JUMPDEST PUSH2 0x509E DUP4 PUSH1 0x20 DUP4 ADD PUSH1 0x20 DUP9 ADD PUSH2 0x5A27 JUMP JUMPDEST SWAP8 SWAP7 POP POP POP POP POP POP POP JUMP JUMPDEST PUSH1 0x0 PUSH1 0x80 DUP3 DUP5 SUB SLT ISZERO PUSH2 0x50BB JUMPI PUSH1 0x0 DUP1 REVERT JUMPDEST PUSH1 0x40 MLOAD PUSH1 0x80 DUP2 ADD DUP2 DUP2 LT PUSH8 0xFFFFFFFFFFFFFFFF DUP3 GT OR ISZERO PUSH2 0x50DE JUMPI PUSH2 0x50DE PUSH2 0x5A83 JUMP JUMPDEST PUSH1 0x40 MSTORE PUSH2 0x50EA DUP4 PUSH2 0x4ED3 JUMP JUMPDEST DUP2 MSTORE PUSH2 0x50F8 PUSH1 0x20 DUP5 ADD PUSH2 0x4ED3 JUMP JUMPDEST PUSH1 0x20 DUP3 ADD MSTORE PUSH2 0x5109 PUSH1 0x40 DUP5 ADD PUSH2 0x4ED3 JUMP JUMPDEST PUSH1 0x40 DUP3 ADD MSTORE PUSH2 0x511A PUSH1 0x60 DUP5 ADD PUSH2 0x4ED3 JUMP JUMPDEST PUSH1 0x60 DUP3 ADD MSTORE SWAP4 SWAP3 POP POP POP JUMP JUMPDEST PUSH1 0x0 PUSH2 0x1A0 DUP3 DUP5 SUB SLT ISZERO PUSH2 0x5139 JUMPI PUSH1 0x0 DUP1 REVERT JUMPDEST PUSH2 0x5141 PUSH2 0x5993 JUMP JUMPDEST PUSH2 0x514A DUP4 PUSH2 0x4E10 JUMP JUMPDEST DUP2 MSTORE PUSH1 0x20 DUP4 ADD MLOAD PUSH1 0x20 DUP3 ADD MSTORE PUSH1 0x40 DUP4 ADD MLOAD PUSH1 0x40 DUP3 ADD MSTORE PUSH1 0x60 DUP4 ADD MLOAD PUSH1 0x60 DUP3 ADD MSTORE PUSH1 0x80 DUP4 ADD MLOAD PUSH1 0x80 DUP3 ADD MSTORE PUSH2 0x5180 PUSH1 0xA0 DUP5 ADD PUSH2 0x4E26 JUMP JUMPDEST PUSH1 0xA0 DUP3 ADD MSTORE PUSH1 0xC0 DUP4 DUP2 ADD MLOAD SWAP1 DUP3 ADD MSTORE PUSH1 0xE0 DUP1 DUP5 ADD MLOAD SWAP1 DUP3 ADD MSTORE PUSH2 0x100 DUP1 DUP5 ADD MLOAD SWAP1 DUP3 ADD MSTORE PUSH2 0x120 DUP1 DUP5 ADD MLOAD SWAP1 DUP3 ADD MSTORE PUSH2 0x140 DUP1 DUP5 ADD MLOAD SWAP1 DUP3 ADD MSTORE PUSH2 0x160 DUP1 DUP5 ADD MLOAD SWAP1 DUP3 ADD MSTORE PUSH2 0x180 SWAP3 DUP4 ADD MLOAD SWAP3 DUP2 ADD SWAP3 SWAP1 SWAP3 MSTORE POP SWAP2 SWAP1 POP JUMP JUMPDEST PUSH1 0x0 PUSH2 0x1E0 DUP3 DUP5 SUB SLT ISZERO PUSH2 0x51EC JUMPI PUSH1 0x0 DUP1 REVERT JUMPDEST PUSH1 0x40 MLOAD PUSH1 0xC0 DUP2 ADD DUP2 DUP2 LT PUSH8 0xFFFFFFFFFFFFFFFF DUP3 GT OR ISZERO PUSH2 0x520F JUMPI PUSH2 0x520F PUSH2 0x5A83 JUMP JUMPDEST PUSH1 0x40 MSTORE PUSH2 0x521C DUP5 DUP5 PUSH2 0x4E40 JUMP JUMPDEST DUP2 MSTORE PUSH2 0x140 DUP4 ADD MLOAD PUSH1 0x20 DUP3 ADD MSTORE PUSH2 0x160 DUP4 ADD MLOAD PUSH1 0x40 DUP3 ADD MSTORE PUSH2 0x180 DUP4 ADD MLOAD PUSH1 0x60 DUP3 ADD MSTORE PUSH2 0x1A0 DUP4 ADD MLOAD PUSH1 0x80 DUP3 ADD MSTORE PUSH2 0x1C0 SWAP1 SWAP3 ADD MLOAD PUSH1 0xA0 DUP4 ADD MSTORE POP SWAP2 SWAP1 POP JUMP JUMPDEST PUSH1 0x0 PUSH1 0xC0 DUP3 DUP5 SUB SLT ISZERO PUSH2 0x526E JUMPI PUSH1 0x0 DUP1 REVERT JUMPDEST PUSH1 0x40 MLOAD PUSH1 0xC0 DUP2 ADD DUP2 DUP2 LT PUSH8 0xFFFFFFFFFFFFFFFF DUP3 GT OR ISZERO PUSH2 0x5291 JUMPI PUSH2 0x5291 PUSH2 0x5A83 JUMP JUMPDEST DUP1 PUSH1 0x40 MSTORE POP DUP3 MLOAD DUP2 MSTORE PUSH1 0x20 DUP4 ADD MLOAD PUSH1 0x20 DUP3 ADD MSTORE PUSH1 0x40 DUP4 ADD MLOAD PUSH1 0x40 DUP3 ADD MSTORE PUSH1 0x60 DUP4 ADD MLOAD PUSH1 0x60 DUP3 ADD MSTORE PUSH1 0x80 DUP4 ADD MLOAD PUSH1 0x80 DUP3 ADD MSTORE PUSH1 0xA0 DUP4 ADD MLOAD PUSH2 0x52D0 DUP2 PUSH2 0x5AC1 JUMP JUMPDEST PUSH1 0xA0 DUP3 ADD MSTORE SWAP4 SWAP3 POP POP POP JUMP JUMPDEST PUSH1 0x0 PUSH2 0x140 DUP3 DUP5 SUB SLT ISZERO PUSH2 0x52EF JUMPI PUSH1 0x0 DUP1 REVERT JUMPDEST PUSH2 0x52F9 DUP4 DUP4 PUSH2 0x4E40 JUMP JUMPDEST SWAP4 SWAP3 POP POP POP JUMP JUMPDEST PUSH1 0x0 DUP1 PUSH1 0x0 DUP1 DUP5 DUP7 SUB PUSH2 0x1A0 DUP2 SLT ISZERO PUSH2 0x5318 JUMPI PUSH1 0x0 DUP1 REVERT JUMPDEST PUSH2 0x140 DUP1 DUP3 SLT ISZERO PUSH2 0x5328 JUMPI PUSH1 0x0 DUP1 REVERT JUMPDEST PUSH2 0x5330 PUSH2 0x5969 JUMP JUMPDEST SWAP2 POP PUSH2 0x533B DUP8 PUSH2 0x4E00 JUMP JUMPDEST DUP3 MSTORE PUSH1 0x20 DUP8 ADD CALLDATALOAD PUSH1 0x20 DUP4 ADD MSTORE PUSH1 0x40 DUP8 ADD CALLDATALOAD PUSH1 0x40 DUP4 ADD MSTORE PUSH1 0x60 DUP8 ADD CALLDATALOAD PUSH1 0x60 DUP4 ADD MSTORE PUSH1 0x80 DUP8 ADD CALLDATALOAD PUSH1 0x80 DUP4 ADD MSTORE PUSH1 0xA0 DUP8 ADD CALLDATALOAD PUSH1 0xA0 DUP4 ADD MSTORE PUSH2 0x537B PUSH1 0xC0 DUP9 ADD PUSH2 0x4E1B JUMP JUMPDEST PUSH1 0xC0 DUP4 ADD MSTORE PUSH1 0xE0 DUP8 ADD CALLDATALOAD PUSH1 0xE0 DUP4 ADD MSTORE PUSH2 0x100 DUP1 DUP9 ADD CALLDATALOAD DUP2 DUP5 ADD MSTORE POP PUSH2 0x120 DUP1 DUP9 ADD CALLDATALOAD DUP2 DUP5 ADD MSTORE POP DUP2 SWAP6 POP PUSH2 0x53B0 DUP2 DUP9 ADD PUSH2 0x4E31 JUMP JUMPDEST SWAP5 POP POP POP PUSH2 0x160 DUP6 ADD CALLDATALOAD SWAP2 POP PUSH2 0x53C9 PUSH2 0x180 DUP7 ADD PUSH2 0x4E00 JUMP JUMPDEST SWAP1 POP SWAP3 SWAP6 SWAP2 SWAP5 POP SWAP3 POP JUMP JUMPDEST PUSH1 0x0 PUSH1 0x20 DUP3 DUP5 SUB SLT ISZERO PUSH2 0x53E6 JUMPI PUSH1 0x0 DUP1 REVERT JUMPDEST POP CALLDATALOAD SWAP2 SWAP1 POP JUMP JUMPDEST PUSH1 0x0 PUSH1 0x20 DUP3 DUP5 SUB SLT ISZERO PUSH2 0x53FF JUMPI PUSH1 0x0 DUP1 REVERT JUMPDEST POP MLOAD SWAP2 SWAP1 POP JUMP JUMPDEST PUSH1 0x0 DUP1 PUSH1 0x0 DUP1 PUSH1 0x0 DUP1 PUSH1 0xC0 DUP8 DUP10 SUB SLT ISZERO PUSH2 0x541F JUMPI PUSH1 0x0 DUP1 REVERT JUMPDEST DUP7 MLOAD SWAP6 POP PUSH1 0x20 DUP8 ADD MLOAD PUSH2 0x5431 DUP2 PUSH2 0x5AAC JUMP JUMPDEST PUSH1 0x40 DUP9 ADD MLOAD PUSH1 0x60 DUP10 ADD MLOAD PUSH1 0x80 DUP11 ADD MLOAD PUSH1 0xA0 SWAP1 SWAP11 ADD MLOAD SWAP9 SWAP12 SWAP3 SWAP11 POP SWAP1 SWAP9 SWAP1 SWAP8 SWAP1 SWAP7 POP SWAP5 POP SWAP3 POP POP POP JUMP JUMPDEST PUSH1 0x0 DUP1 PUSH1 0x40 DUP4 DUP6 SUB SLT ISZERO PUSH2 0x546D JUMPI PUSH1 0x0 DUP1 REVERT JUMPDEST POP POP DUP1 CALLDATALOAD SWAP3 PUSH1 0x20 SWAP1 SWAP2 ADD CALLDATALOAD SWAP2 POP JUMP JUMPDEST PUSH1 0x0 DUP1 PUSH1 0x40 DUP4 DUP6 SUB SLT ISZERO PUSH2 0x548F JUMPI PUSH1 0x0 DUP1 REVERT JUMPDEST POP POP DUP1 MLOAD PUSH1 0x20 SWAP1 SWAP2 ADD MLOAD SWAP1 SWAP3 SWAP1 SWAP2 POP JUMP JUMPDEST PUSH1 0x0 DUP1 PUSH1 0x0 PUSH1 0x60 DUP5 DUP7 SUB SLT ISZERO PUSH2 0x54B5 JUMPI PUSH1 0x0 DUP1 REVERT JUMPDEST POP POP DUP2 CALLDATALOAD SWAP4 PUSH1 0x20 DUP4 ADD CALLDATALOAD SWAP4 POP PUSH1 0x40 SWAP1 SWAP3 ADD CALLDATALOAD SWAP2 SWAP1 POP JUMP JUMPDEST PUSH1 0x0 DUP1 PUSH1 0x0 DUP1 PUSH1 0x0 DUP1 PUSH1 0xC0 DUP8 DUP10 SUB SLT ISZERO PUSH2 0x54E5 JUMPI PUSH1 0x0 DUP1 REVERT JUMPDEST POP POP DUP5 CALLDATALOAD SWAP7 PUSH1 0x20 DUP7 ADD CALLDATALOAD SWAP7 POP PUSH1 0x40 DUP7 ADD CALLDATALOAD SWAP6 PUSH1 0x60 DUP2 ADD CALLDATALOAD SWAP6 POP PUSH1 0x80 DUP2 ADD CALLDATALOAD SWAP5 POP PUSH1 0xA0 ADD CALLDATALOAD SWAP3 POP SWAP1 POP JUMP JUMPDEST PUSH1 0x0 DUP2 MLOAD DUP1 DUP5 MSTORE PUSH2 0x5527 DUP2 PUSH1 0x20 DUP7 ADD PUSH1 0x20 DUP7 ADD PUSH2 0x5A27 JUMP JUMPDEST PUSH1 0x1F ADD PUSH1 0x1F NOT AND SWAP3 SWAP1 SWAP3 ADD PUSH1 0x20 ADD SWAP3 SWAP2 POP POP JUMP JUMPDEST PUSH1 0x2 DUP2 LT PUSH2 0x554B JUMPI PUSH2 0x554B PUSH2 0x5A6D JUMP JUMPDEST SWAP1 MSTORE JUMP JUMPDEST DUP1 MLOAD DUP1 MLOAD PUSH1 0x1 PUSH1 0x1 PUSH1 0xA0 SHL SUB AND DUP4 MSTORE PUSH1 0x20 DUP2 ADD MLOAD PUSH1 0x20 DUP5 ADD MSTORE PUSH1 0x40 DUP2 ADD MLOAD PUSH1 0x40 DUP5 ADD MSTORE PUSH1 0x60 DUP2 ADD MLOAD PUSH1 0x60 DUP5 ADD MSTORE PUSH1 0x80 DUP2 ADD MLOAD PUSH1 0x80 DUP5 ADD MSTORE PUSH1 0xA0 DUP2 ADD MLOAD PUSH1 0xA0 DUP5 ADD MSTORE PUSH1 0xC0 DUP2 ADD MLOAD PUSH2 0x55A3 PUSH1 0xC0 DUP6 ADD DUP3 ISZERO ISZERO SWAP1 MSTORE JUMP JUMPDEST POP PUSH1 0xE0 DUP2 DUP2 ADD MLOAD SWAP1 DUP5 ADD MSTORE PUSH2 0x100 DUP1 DUP3 ADD MLOAD SWAP1 DUP5 ADD MSTORE PUSH2 0x120 SWAP1 DUP2 ADD MLOAD SWAP1 DUP4 ADD MSTORE PUSH1 0x20 DUP2 ADD MLOAD PUSH2 0x140 DUP4 ADD MSTORE PUSH1 0x40 DUP2 ADD MLOAD PUSH2 0x160 DUP4 ADD MSTORE PUSH1 0x60 DUP2 ADD MLOAD PUSH2 0x180 DUP4 ADD MSTORE PUSH1 0x80 DUP2 ADD MLOAD PUSH2 0x1A0 DUP4 ADD MSTORE PUSH1 0xA0 ADD MLOAD PUSH2 0x1C0 SWAP1 SWAP2 ADD MSTORE JUMP JUMPDEST DUP2 DUP4 DUP3 CALLDATACOPY PUSH1 0x0 SWAP2 ADD SWAP1 DUP2 MSTORE SWAP2 SWAP1 POP JUMP JUMPDEST PUSH1 0x0 DUP3 MLOAD PUSH2 0x561F DUP2 DUP5 PUSH1 0x20 DUP8 ADD PUSH2 0x5A27 JUMP JUMPDEST SWAP2 SWAP1 SWAP2 ADD SWAP3 SWAP2 POP POP JUMP JUMPDEST PUSH1 0x1 PUSH1 0x1 PUSH1 0xA0 SHL SUB DUP8 DUP2 AND DUP3 MSTORE DUP7 AND PUSH1 0x20 DUP3 ADD MSTORE PUSH1 0x40 DUP2 ADD DUP6 SWAP1 MSTORE PUSH1 0x60 DUP2 ADD DUP5 SWAP1 MSTORE PUSH1 0xC0 DUP2 ADD PUSH2 0x565C PUSH1 0x80 DUP4 ADD DUP6 PUSH2 0x553B JUMP JUMPDEST DUP3 PUSH1 0xA0 DUP4 ADD MSTORE SWAP8 SWAP7 POP POP POP POP POP POP POP JUMP JUMPDEST PUSH1 0x1 PUSH1 0x1 PUSH1 0xA0 SHL SUB SWAP4 SWAP1 SWAP4 AND DUP4 MSTORE PUSH1 0x20 DUP4 ADD SWAP2 SWAP1 SWAP2 MSTORE PUSH1 0x40 DUP3 ADD MSTORE PUSH1 0x60 ADD SWAP1 JUMP JUMPDEST PUSH1 0x1 PUSH1 0x1 PUSH1 0xA0 SHL SUB DUP6 AND DUP2 MSTORE PUSH1 0x20 DUP2 ADD DUP5 SWAP1 MSTORE PUSH1 0x40 DUP2 ADD DUP4 SWAP1 MSTORE PUSH1 0x80 DUP2 ADD PUSH1 0x3 DUP4 LT PUSH2 0x56BC JUMPI PUSH2 0x56BC PUSH2 0x5A6D JUMP JUMPDEST DUP3 PUSH1 0x60 DUP4 ADD MSTORE SWAP6 SWAP5 POP POP POP POP POP JUMP JUMPDEST PUSH1 0x1 PUSH1 0x1 PUSH1 0xA0 SHL SUB DUP6 AND DUP2 MSTORE PUSH1 0x20 DUP2 ADD DUP5 SWAP1 MSTORE PUSH1 0x40 DUP2 ADD DUP4 SWAP1 MSTORE PUSH1 0x80 DUP2 ADD PUSH2 0x56F6 PUSH1 0x60 DUP4 ADD DUP5 PUSH2 0x553B JUMP JUMPDEST SWAP6 SWAP5 POP POP POP POP POP JUMP JUMPDEST PUSH1 0x20 DUP2 MSTORE PUSH1 0x0 PUSH2 0x52F9 PUSH1 0x20 DUP4 ADD DUP5 PUSH2 0x550F JUMP JUMPDEST PUSH1 0x20 DUP1 DUP3 MSTORE PUSH1 0x8 SWAP1 DUP3 ADD MSTORE PUSH8 0x4E4F5F5452414445 PUSH1 0xC0 SHL PUSH1 0x40 DUP3 ADD MSTORE PUSH1 0x60 ADD SWAP1 JUMP JUMPDEST PUSH1 0x20 DUP1 DUP3 MSTORE PUSH1 0x8 SWAP1 DUP3 ADD MSTORE PUSH8 0x1393D7D312535255 PUSH1 0xC2 SHL PUSH1 0x40 DUP3 ADD MSTORE PUSH1 0x60 ADD SWAP1 JUMP JUMPDEST PUSH1 0x20 DUP1 DUP3 MSTORE PUSH1 0x4 SWAP1 DUP3 ADD MSTORE PUSH4 0x444F4E45 PUSH1 0xE0 SHL PUSH1 0x40 DUP3 ADD MSTORE PUSH1 0x60 ADD SWAP1 JUMP JUMPDEST PUSH1 0x20 DUP1 DUP3 MSTORE PUSH1 0x8 SWAP1 DUP3 ADD MSTORE PUSH8 0x474F565F4F4E4C59 PUSH1 0xC0 SHL PUSH1 0x40 DUP3 ADD MSTORE PUSH1 0x60 ADD SWAP1 JUMP JUMPDEST DUP2 MLOAD PUSH1 0x1 PUSH1 0x1 PUSH1 0xA0 SHL SUB AND DUP2 MSTORE PUSH2 0x1A0 DUP2 ADD PUSH1 0x20 DUP4 ADD MLOAD PUSH1 0x20 DUP4 ADD MSTORE PUSH1 0x40 DUP4 ADD MLOAD PUSH1 0x40 DUP4 ADD MSTORE PUSH1 0x60 DUP4 ADD MLOAD PUSH1 0x60 DUP4 ADD MSTORE PUSH1 0x80 DUP4 ADD MLOAD PUSH1 0x80 DUP4 ADD MSTORE PUSH1 0xA0 DUP4 ADD MLOAD PUSH2 0x57E3 PUSH1 0xA0 DUP5 ADD DUP3 ISZERO ISZERO SWAP1 MSTORE JUMP JUMPDEST POP PUSH1 0xC0 DUP4 DUP2 ADD MLOAD SWAP1 DUP4 ADD MSTORE PUSH1 0xE0 DUP1 DUP5 ADD MLOAD SWAP1 DUP4 ADD MSTORE PUSH2 0x100 DUP1 DUP5 ADD MLOAD SWAP1 DUP4 ADD MSTORE PUSH2 0x120 DUP1 DUP5 ADD MLOAD SWAP1 DUP4 ADD MSTORE PUSH2 0x140 DUP1 DUP5 ADD MLOAD SWAP1 DUP4 ADD MSTORE PUSH2 0x160 DUP1 DUP5 ADD MLOAD SWAP1 DUP4 ADD MSTORE PUSH2 0x180 SWAP3 DUP4 ADD MLOAD SWAP3 SWAP1 SWAP2 ADD SWAP2 SWAP1 SWAP2 MSTORE SWAP1 JUMP JUMPDEST PUSH2 0x1E0 DUP2 ADD PUSH2 0x4DFA DUP3 DUP5 PUSH2 0x554F JUMP JUMPDEST PUSH2 0x220 DUP2 ADD PUSH2 0x5854 DUP3 DUP7 PUSH2 0x554F JUMP JUMPDEST DUP4 PUSH2 0x1E0 DUP4 ADD MSTORE DUP3 ISZERO ISZERO PUSH2 0x200 DUP4 ADD MSTORE SWAP5 SWAP4 POP POP POP POP JUMP JUMPDEST DUP3 MLOAD PUSH1 0x1 PUSH1 0x1 PUSH1 0xA0 SHL SUB SWAP1 DUP2 AND DUP3 MSTORE PUSH1 0x20 DUP1 DUP6 ADD MLOAD SWAP1 DUP4 ADD MSTORE PUSH1 0x40 DUP1 DUP6 ADD MLOAD SWAP1 SWAP2 AND SWAP1 DUP3 ADD MSTORE PUSH1 0x60 DUP1 DUP5 ADD MLOAD SWAP1 DUP3 ADD MSTORE PUSH1 0x80 DUP1 DUP5 ADD MLOAD SWAP1 DUP3 ADD MSTORE PUSH1 0xA0 DUP4 ADD MLOAD PUSH1 0xE0 DUP3 ADD SWAP1 PUSH2 0x58B9 DUP2 PUSH2 0x5A99 JUMP JUMPDEST PUSH1 0xA0 DUP4 ADD MSTORE PUSH1 0xC0 SWAP1 SWAP2 ADD SWAP2 SWAP1 SWAP2 MSTORE SWAP2 SWAP1 POP JUMP JUMPDEST DUP2 MLOAD PUSH1 0x1 PUSH1 0x1 PUSH1 0xA0 SHL SUB AND DUP2 MSTORE PUSH1 0x20 DUP1 DUP4 ADD MLOAD SWAP1 DUP3 ADD MSTORE PUSH1 0x40 DUP1 DUP4 ADD MLOAD SWAP1 DUP3 ADD MSTORE PUSH1 0x60 DUP3 ADD MLOAD PUSH1 0x80 DUP3 ADD SWAP1 PUSH2 0x5900 DUP2 PUSH2 0x5A99 JUMP JUMPDEST DUP1 PUSH1 0x60 DUP5 ADD MSTORE POP SWAP3 SWAP2 POP POP JUMP JUMPDEST DUP5 DUP2 MSTORE PUSH1 0x80 DUP2 ADD PUSH2 0x591D DUP6 PUSH2 0x5A99 JUMP JUMPDEST DUP5 PUSH1 0x20 DUP4 ADD MSTORE DUP4 PUSH1 0x40 DUP4 ADD MSTORE DUP3 PUSH1 0x60 DUP4 ADD MSTORE SWAP6 SWAP5 POP POP POP POP POP JUMP JUMPDEST DUP5 DUP2 MSTORE PUSH1 0x80 DUP2 ADD PUSH2 0x5948 DUP6 PUSH2 0x5A99 JUMP JUMPDEST DUP5 PUSH1 0x20 DUP4 ADD MSTORE DUP4 PUSH1 0x40 DUP4 ADD MSTORE PUSH4 0xFFFFFFFF DUP4 AND PUSH1 0x60 DUP4 ADD MSTORE SWAP6 SWAP5 POP POP POP POP POP JUMP JUMPDEST PUSH1 0x40 MLOAD PUSH2 0x140 DUP2 ADD PUSH8 0xFFFFFFFFFFFFFFFF DUP2 GT DUP3 DUP3 LT OR ISZERO PUSH2 0x598D JUMPI PUSH2 0x598D PUSH2 0x5A83 JUMP JUMPDEST PUSH1 0x40 MSTORE SWAP1 JUMP JUMPDEST PUSH1 0x40 MLOAD PUSH2 0x1A0 DUP2 ADD PUSH8 0xFFFFFFFFFFFFFFFF DUP2 GT DUP3 DUP3 LT OR ISZERO PUSH2 0x598D JUMPI PUSH2 0x598D PUSH2 0x5A83 JUMP JUMPDEST PUSH1 0x0 DUP3 NOT DUP3 GT ISZERO PUSH2 0x59CA JUMPI PUSH2 0x59CA PUSH2 0x5A57 JUMP JUMPDEST POP ADD SWAP1 JUMP JUMPDEST PUSH1 0x0 DUP3 PUSH2 0x59EC JUMPI PUSH4 0x4E487B71 PUSH1 0xE0 SHL PUSH1 0x0 MSTORE PUSH1 0x12 PUSH1 0x4 MSTORE PUSH1 0x24 PUSH1 0x0 REVERT JUMPDEST POP DIV SWAP1 JUMP JUMPDEST PUSH1 0x0 DUP2 PUSH1 0x0 NOT DIV DUP4 GT DUP3 ISZERO ISZERO AND ISZERO PUSH2 0x5A0B JUMPI PUSH2 0x5A0B PUSH2 0x5A57 JUMP JUMPDEST POP MUL SWAP1 JUMP JUMPDEST PUSH1 0x0 DUP3 DUP3 LT ISZERO PUSH2 0x5A22 JUMPI PUSH2 0x5A22 PUSH2 0x5A57 JUMP JUMPDEST POP SUB SWAP1 JUMP JUMPDEST PUSH1 0x0 JUMPDEST DUP4 DUP2 LT ISZERO PUSH2 0x5A42 JUMPI DUP2 DUP2 ADD MLOAD DUP4 DUP3 ADD MSTORE PUSH1 0x20 ADD PUSH2 0x5A2A JUMP JUMPDEST DUP4 DUP2 GT ISZERO PUSH2 0x5A51 JUMPI PUSH1 0x0 DUP5 DUP5 ADD MSTORE JUMPDEST POP POP POP POP JUMP JUMPDEST PUSH4 0x4E487B71 PUSH1 0xE0 SHL PUSH1 0x0 MSTORE PUSH1 0x11 PUSH1 0x4 MSTORE PUSH1 0x24 PUSH1 0x0 REVERT JUMPDEST PUSH4 0x4E487B71 PUSH1 0xE0 SHL PUSH1 0x0 MSTORE PUSH1 0x21 PUSH1 0x4 MSTORE PUSH1 0x24 PUSH1 0x0 REVERT JUMPDEST PUSH4 0x4E487B71 PUSH1 0xE0 SHL PUSH1 0x0 MSTORE PUSH1 0x41 PUSH1 0x4 MSTORE PUSH1 0x24 PUSH1 0x0 REVERT JUMPDEST PUSH1 0x4 DUP2 LT PUSH2 0x5AA9 JUMPI PUSH2 0x5AA9 PUSH2 0x5A6D JUMP JUMPDEST POP JUMP JUMPDEST PUSH1 0x1 PUSH1 0x1 PUSH1 0xA0 SHL SUB DUP2 AND DUP2 EQ PUSH2 0x5AA9 JUMPI PUSH1 0x0 DUP1 REVERT JUMPDEST DUP1 ISZERO ISZERO DUP2 EQ PUSH2 0x5AA9 JUMPI PUSH1 0x0 DUP1 REVERT INVALID LOG2 PUSH5 0x6970667358 0x22 SLT KECCAK256 0xBF SELFDESTRUCT MSIZE 0xF9 0xF9 SWAP12 0xB9 PUSH27 0x7CF7D719048692267623A9C08AF0B859A93DCFE2DC3EF15A64736F PUSH13 0x63430008070033000000000000 "
		},
		"gasEstimates": {
			"creation": {
				"codeDepositCost": "4660200",
				"executionCost": "infinite",
				"totalCost": "infinite"
			},
			"external": {
				"_msgSender()": "4525",
				"borrowingFees()": "infinite",
				"bypassTriggerLink(address)": "2625",
				"cancelOpenLimitOrder(uint256,uint256)": "infinite",
				"closeTradeMarket(uint256,uint256)": "infinite",
				"closeTradeMarketTimeout(uint256)": "infinite",
				"delegatedAction(address,bytes)": "infinite",
				"delegations(address)": "2643",
				"done()": "infinite",
				"executeNftOrder(uint256)": "infinite",
				"isDone()": "2432",
				"isPaused()": "2399",
				"marketOrdersTimeout()": "2341",
				"maxPosDai()": "2363",
				"openTrade((address,uint256,uint256,uint256,uint256,uint256,bool,uint256,uint256,uint256),uint8,uint256,address)": "infinite",
				"openTradeMarketTimeout(uint256)": "infinite",
				"oracleRewards()": "infinite",
				"pairInfos()": "infinite",
				"pause()": "infinite",
				"referrals()": "infinite",
				"removeDelegate()": "24545",
				"setBypassTriggerLink(address,bool)": "infinite",
				"setDelegate(address)": "24711",
				"setMarketOrdersTimeout(uint256)": "infinite",
				"setMaxPosDai(uint256)": "infinite",
				"storageT()": "infinite",
				"updateOpenLimitOrder(uint256,uint256,uint256,uint256,uint256,uint256)": "infinite",
				"updateSl(uint256,uint256,uint256)": "infinite",
				"updateTp(uint256,uint256,uint256)": "infinite"
			},
			"internal": {
				"_checkNoPendingTrigger(address,uint256,uint256,enum StorageInterfaceV5.LimitOrder)": "infinite",
				"_getPriceNftOrder(bool,address,uint256,uint256,enum TradingCallbacksV6_4.TradeType,enum StorageInterfaceV5.LimitOrder,uint256)": "infinite",
				"_pairMaxLeverage(contract PairsStorageInterfaceV6,uint256)": "infinite"
			}
		},
		"methodIdentifiers": {
			"_msgSender()": "119df25f",
			"borrowingFees()": "531cc965",
			"bypassTriggerLink(address)": "2c7c8f4e",
			"cancelOpenLimitOrder(uint256,uint256)": "b9b6573a",
			"closeTradeMarket(uint256,uint256)": "a2a3c0cb",
			"closeTradeMarketTimeout(uint256)": "990382cf",
			"delegatedAction(address,bytes)": "9a10cc32",
			"delegations(address)": "bffe3486",
			"done()": "ae8421e1",
			"executeNftOrder(uint256)": "6c53cc1c",
			"isDone()": "8f062227",
			"isPaused()": "b187bd26",
			"marketOrdersTimeout()": "410c0b7c",
			"maxPosDai()": "279a165c",
			"openTrade((address,uint256,uint256,uint256,uint256,uint256,bool,uint256,uint256,uint256),uint8,uint256,address)": "fb4b71bb",
			"openTradeMarketTimeout(uint256)": "876d3abd",
			"oracleRewards()": "272300c9",
			"pairInfos()": "1346b0ff",
			"pause()": "8456cb59",
			"referrals()": "d3dc7539",
			"removeDelegate()": "36fb8b15",
			"setBypassTriggerLink(address,bool)": "4278bafe",
			"setDelegate(address)": "ca5eb5e1",
			"setMarketOrdersTimeout(uint256)": "b81bfa05",
			"setMaxPosDai(uint256)": "934d1cf4",
			"storageT()": "16fff074",
			"updateOpenLimitOrder(uint256,uint256,uint256,uint256,uint256,uint256)": "c641558e",
			"updateSl(uint256,uint256,uint256)": "be73fb99",
			"updateTp(uint256,uint256,uint256)": "d8defd15"
		}
	},
	"abi": [
		{
			"inputs": [
				{
					"internalType": "contract StorageInterfaceV5",
					"name": "_storageT",
					"type": "address"
				},
				{
					"internalType": "contract IGNSOracleRewardsV6_4_1",
					"name": "_oracleRewards",
					"type": "address"
				},
				{
					"internalType": "contract GNSPairInfosInterfaceV6",
					"name": "_pairInfos",
					"type": "address"
				},
				{
					"internalType": "contract GNSReferralsInterfaceV6_2",
					"name": "_referrals",
					"type": "address"
				},
				{
					"internalType": "contract GNSBorrowingFeesInterfaceV6_4",
					"name": "_borrowingFees",
					"type": "address"
				},
				{
					"internalType": "uint256",
					"name": "_maxPosDai",
					"type": "uint256"
				},
				{
					"internalType": "uint256",
					"name": "_marketOrdersTimeout",
					"type": "uint256"
				}
			],
			"stateMutability": "nonpayable",
			"type": "constructor"
		},
		{
			"anonymous": false,
			"inputs": [
				{
					"indexed": false,
					"internalType": "address",
					"name": "user",
					"type": "address"
				},
				{
					"indexed": false,
					"internalType": "bool",
					"name": "bypass",
					"type": "bool"
				}
			],
			"name": "BypassTriggerLinkUpdated",
			"type": "event"
		},
		{
			"anonymous": false,
			"inputs": [
				{
					"indexed": true,
					"internalType": "uint256",
					"name": "orderId",
					"type": "uint256"
				},
				{
					"components": [
						{
							"components": [
								{
									"internalType": "address",
									"name": "trader",
									"type": "address"
								},
								{
									"internalType": "uint256",
									"name": "pairIndex",
									"type": "uint256"
								},
								{
									"internalType": "uint256",
									"name": "index",
									"type": "uint256"
								},
								{
									"internalType": "uint256",
									"name": "initialPosToken",
									"type": "uint256"
								},
								{
									"internalType": "uint256",
									"name": "positionSizeDai",
									"type": "uint256"
								},
								{
									"internalType": "uint256",
									"name": "openPrice",
									"type": "uint256"
								},
								{
									"internalType": "bool",
									"name": "buy",
									"type": "bool"
								},
								{
									"internalType": "uint256",
									"name": "leverage",
									"type": "uint256"
								},
								{
									"internalType": "uint256",
									"name": "tp",
									"type": "uint256"
								},
								{
									"internalType": "uint256",
									"name": "sl",
									"type": "uint256"
								}
							],
							"internalType": "struct StorageInterfaceV5.Trade",
							"name": "trade",
							"type": "tuple"
						},
						{
							"internalType": "uint256",
							"name": "block",
							"type": "uint256"
						},
						{
							"internalType": "uint256",
							"name": "wantedPrice",
							"type": "uint256"
						},
						{
							"internalType": "uint256",
							"name": "slippageP",
							"type": "uint256"
						},
						{
							"internalType": "uint256",
							"name": "spreadReductionP",
							"type": "uint256"
						},
						{
							"internalType": "uint256",
							"name": "tokenId",
							"type": "uint256"
						}
					],
					"indexed": false,
					"internalType": "struct StorageInterfaceV5.PendingMarketOrder",
					"name": "order",
					"type": "tuple"
				}
			],
			"name": "ChainlinkCallbackTimeout",
			"type": "event"
		},
		{
			"anonymous": false,
			"inputs": [
				{
					"indexed": true,
					"internalType": "address",
					"name": "trader",
					"type": "address"
				},
				{
					"indexed": true,
					"internalType": "uint256",
					"name": "pairIndex",
					"type": "uint256"
				},
				{
					"indexed": false,
					"internalType": "uint256",
					"name": "index",
					"type": "uint256"
				}
			],
			"name": "CouldNotCloseTrade",
			"type": "event"
		},
		{
			"anonymous": false,
			"inputs": [
				{
					"indexed": false,
					"internalType": "bool",
					"name": "done",
					"type": "bool"
				}
			],
			"name": "Done",
			"type": "event"
		},
		{
			"anonymous": false,
			"inputs": [
				{
					"indexed": true,
					"internalType": "uint256",
					"name": "orderId",
					"type": "uint256"
				},
				{
					"indexed": true,
					"internalType": "address",
					"name": "trader",
					"type": "address"
				},
				{
					"indexed": true,
					"internalType": "uint256",
					"name": "pairIndex",
					"type": "uint256"
				},
				{
					"indexed": false,
					"internalType": "bool",
					"name": "open",
					"type": "bool"
				}
			],
			"name": "MarketOrderInitiated",
			"type": "event"
		},
		{
			"anonymous": false,
			"inputs": [
				{
					"indexed": false,
					"internalType": "uint256",
					"name": "orderId",
					"type": "uint256"
				},
				{
					"indexed": true,
					"internalType": "address",
					"name": "trader",
					"type": "address"
				},
				{
					"indexed": true,
					"internalType": "uint256",
					"name": "pairIndex",
					"type": "uint256"
				},
				{
					"indexed": false,
					"internalType": "bool",
					"name": "byPassesLinkCost",
					"type": "bool"
				}
			],
			"name": "NftOrderInitiated",
			"type": "event"
		},
		{
			"anonymous": false,
			"inputs": [
				{
					"indexed": false,
					"internalType": "string",
					"name": "name",
					"type": "string"
				},
				{
					"indexed": false,
					"internalType": "uint256",
					"name": "value",
					"type": "uint256"
				}
			],
			"name": "NumberUpdated",
			"type": "event"
		},
		{
			"anonymous": false,
			"inputs": [
				{
					"indexed": true,
					"internalType": "address",
					"name": "trader",
					"type": "address"
				},
				{
					"indexed": true,
					"internalType": "uint256",
					"name": "pairIndex",
					"type": "uint256"
				},
				{
					"indexed": false,
					"internalType": "uint256",
					"name": "index",
					"type": "uint256"
				}
			],
			"name": "OpenLimitCanceled",
			"type": "event"
		},
		{
			"anonymous": false,
			"inputs": [
				{
					"indexed": true,
					"internalType": "address",
					"name": "trader",
					"type": "address"
				},
				{
					"indexed": true,
					"internalType": "uint256",
					"name": "pairIndex",
					"type": "uint256"
				},
				{
					"indexed": false,
					"internalType": "uint256",
					"name": "index",
					"type": "uint256"
				}
			],
			"name": "OpenLimitPlaced",
			"type": "event"
		},
		{
			"anonymous": false,
			"inputs": [
				{
					"indexed": true,
					"internalType": "address",
					"name": "trader",
					"type": "address"
				},
				{
					"indexed": true,
					"internalType": "uint256",
					"name": "pairIndex",
					"type": "uint256"
				},
				{
					"indexed": false,
					"internalType": "uint256",
					"name": "index",
					"type": "uint256"
				},
				{
					"indexed": false,
					"internalType": "uint256",
					"name": "newPrice",
					"type": "uint256"
				},
				{
					"indexed": false,
					"internalType": "uint256",
					"name": "newTp",
					"type": "uint256"
				},
				{
					"indexed": false,
					"internalType": "uint256",
					"name": "newSl",
					"type": "uint256"
				},
				{
					"indexed": false,
					"internalType": "uint256",
					"name": "maxSlippageP",
					"type": "uint256"
				}
			],
			"name": "OpenLimitUpdated",
			"type": "event"
		},
		{
			"anonymous": false,
			"inputs": [
				{
					"indexed": false,
					"internalType": "bool",
					"name": "paused",
					"type": "bool"
				}
			],
			"name": "Paused",
			"type": "event"
		},
		{
			"anonymous": false,
			"inputs": [
				{
					"indexed": true,
					"internalType": "address",
					"name": "trader",
					"type": "address"
				},
				{
					"indexed": true,
					"internalType": "uint256",
					"name": "pairIndex",
					"type": "uint256"
				},
				{
					"indexed": false,
					"internalType": "uint256",
					"name": "index",
					"type": "uint256"
				},
				{
					"indexed": false,
					"internalType": "uint256",
					"name": "newSl",
					"type": "uint256"
				}
			],
			"name": "SlUpdated",
			"type": "event"
		},
		{
			"anonymous": false,
			"inputs": [
				{
					"indexed": true,
					"internalType": "address",
					"name": "trader",
					"type": "address"
				},
				{
					"indexed": true,
					"internalType": "uint256",
					"name": "pairIndex",
					"type": "uint256"
				},
				{
					"indexed": false,
					"internalType": "uint256",
					"name": "index",
					"type": "uint256"
				},
				{
					"indexed": false,
					"internalType": "uint256",
					"name": "newTp",
					"type": "uint256"
				}
			],
			"name": "TpUpdated",
			"type": "event"
		},
		{
			"inputs": [],
			"name": "_msgSender",
			"outputs": [
				{
					"internalType": "address",
					"name": "",
					"type": "address"
				}
			],
			"stateMutability": "view",
			"type": "function"
		},
		{
			"inputs": [],
			"name": "borrowingFees",
			"outputs": [
				{
					"internalType": "contract GNSBorrowingFeesInterfaceV6_4",
					"name": "",
					"type": "address"
				}
			],
			"stateMutability": "view",
			"type": "function"
		},
		{
			"inputs": [
				{
					"internalType": "address",
					"name": "",
					"type": "address"
				}
			],
			"name": "bypassTriggerLink",
			"outputs": [
				{
					"internalType": "bool",
					"name": "",
					"type": "bool"
				}
			],
			"stateMutability": "view",
			"type": "function"
		},
		{
			"inputs": [
				{
					"internalType": "uint256",
					"name": "pairIndex",
					"type": "uint256"
				},
				{
					"internalType": "uint256",
					"name": "index",
					"type": "uint256"
				}
			],
			"name": "cancelOpenLimitOrder",
			"outputs": [],
			"stateMutability": "nonpayable",
			"type": "function"
		},
		{
			"inputs": [
				{
					"internalType": "uint256",
					"name": "pairIndex",
					"type": "uint256"
				},
				{
					"internalType": "uint256",
					"name": "index",
					"type": "uint256"
				}
			],
			"name": "closeTradeMarket",
			"outputs": [],
			"stateMutability": "nonpayable",
			"type": "function"
		},
		{
			"inputs": [
				{
					"internalType": "uint256",
					"name": "_order",
					"type": "uint256"
				}
			],
			"name": "closeTradeMarketTimeout",
			"outputs": [],
			"stateMutability": "nonpayable",
			"type": "function"
		},
		{
			"inputs": [
				{
					"internalType": "address",
					"name": "trader",
					"type": "address"
				},
				{
					"internalType": "bytes",
					"name": "call_data",
					"type": "bytes"
				}
			],
			"name": "delegatedAction",
			"outputs": [
				{
					"internalType": "bytes",
					"name": "",
					"type": "bytes"
				}
			],
			"stateMutability": "nonpayable",
			"type": "function"
		},
		{
			"inputs": [
				{
					"internalType": "address",
					"name": "",
					"type": "address"
				}
			],
			"name": "delegations",
			"outputs": [
				{
					"internalType": "address",
					"name": "",
					"type": "address"
				}
			],
			"stateMutability": "view",
			"type": "function"
		},
		{
			"inputs": [],
			"name": "done",
			"outputs": [],
			"stateMutability": "nonpayable",
			"type": "function"
		},
		{
			"inputs": [
				{
					"internalType": "uint256",
					"name": "packed",
					"type": "uint256"
				}
			],
			"name": "executeNftOrder",
			"outputs": [],
			"stateMutability": "nonpayable",
			"type": "function"
		},
		{
			"inputs": [],
			"name": "isDone",
			"outputs": [
				{
					"internalType": "bool",
					"name": "",
					"type": "bool"
				}
			],
			"stateMutability": "view",
			"type": "function"
		},
		{
			"inputs": [],
			"name": "isPaused",
			"outputs": [
				{
					"internalType": "bool",
					"name": "",
					"type": "bool"
				}
			],
			"stateMutability": "view",
			"type": "function"
		},
		{
			"inputs": [],
			"name": "marketOrdersTimeout",
			"outputs": [
				{
					"internalType": "uint256",
					"name": "",
					"type": "uint256"
				}
			],
			"stateMutability": "view",
			"type": "function"
		},
		{
			"inputs": [],
			"name": "maxPosDai",
			"outputs": [
				{
					"internalType": "uint256",
					"name": "",
					"type": "uint256"
				}
			],
			"stateMutability": "view",
			"type": "function"
		},
		{
			"inputs": [
				{
					"components": [
						{
							"internalType": "address",
							"name": "trader",
							"type": "address"
						},
						{
							"internalType": "uint256",
							"name": "pairIndex",
							"type": "uint256"
						},
						{
							"internalType": "uint256",
							"name": "index",
							"type": "uint256"
						},
						{
							"internalType": "uint256",
							"name": "initialPosToken",
							"type": "uint256"
						},
						{
							"internalType": "uint256",
							"name": "positionSizeDai",
							"type": "uint256"
						},
						{
							"internalType": "uint256",
							"name": "openPrice",
							"type": "uint256"
						},
						{
							"internalType": "bool",
							"name": "buy",
							"type": "bool"
						},
						{
							"internalType": "uint256",
							"name": "leverage",
							"type": "uint256"
						},
						{
							"internalType": "uint256",
							"name": "tp",
							"type": "uint256"
						},
						{
							"internalType": "uint256",
							"name": "sl",
							"type": "uint256"
						}
					],
					"internalType": "struct StorageInterfaceV5.Trade",
					"name": "t",
					"type": "tuple"
				},
				{
					"internalType": "enum IGNSOracleRewardsV6_4_1.OpenLimitOrderType",
					"name": "orderType",
					"type": "uint8"
				},
				{
					"internalType": "uint256",
					"name": "slippageP",
					"type": "uint256"
				},
				{
					"internalType": "address",
					"name": "referrer",
					"type": "address"
				}
			],
			"name": "openTrade",
			"outputs": [],
			"stateMutability": "nonpayable",
			"type": "function"
		},
		{
			"inputs": [
				{
					"internalType": "uint256",
					"name": "_order",
					"type": "uint256"
				}
			],
			"name": "openTradeMarketTimeout",
			"outputs": [],
			"stateMutability": "nonpayable",
			"type": "function"
		},
		{
			"inputs": [],
			"name": "oracleRewards",
			"outputs": [
				{
					"internalType": "contract IGNSOracleRewardsV6_4_1",
					"name": "",
					"type": "address"
				}
			],
			"stateMutability": "view",
			"type": "function"
		},
		{
			"inputs": [],
			"name": "pairInfos",
			"outputs": [
				{
					"internalType": "contract GNSPairInfosInterfaceV6",
					"name": "",
					"type": "address"
				}
			],
			"stateMutability": "view",
			"type": "function"
		},
		{
			"inputs": [],
			"name": "pause",
			"outputs": [],
			"stateMutability": "nonpayable",
			"type": "function"
		},
		{
			"inputs": [],
			"name": "referrals",
			"outputs": [
				{
					"internalType": "contract GNSReferralsInterfaceV6_2",
					"name": "",
					"type": "address"
				}
			],
			"stateMutability": "view",
			"type": "function"
		},
		{
			"inputs": [],
			"name": "removeDelegate",
			"outputs": [],
			"stateMutability": "nonpayable",
			"type": "function"
		},
		{
			"inputs": [
				{
					"internalType": "address",
					"name": "user",
					"type": "address"
				},
				{
					"internalType": "bool",
					"name": "bypass",
					"type": "bool"
				}
			],
			"name": "setBypassTriggerLink",
			"outputs": [],
			"stateMutability": "nonpayable",
			"type": "function"
		},
		{
			"inputs": [
				{
					"internalType": "address",
					"name": "delegate",
					"type": "address"
				}
			],
			"name": "setDelegate",
			"outputs": [],
			"stateMutability": "nonpayable",
			"type": "function"
		},
		{
			"inputs": [
				{
					"internalType": "uint256",
					"name": "value",
					"type": "uint256"
				}
			],
			"name": "setMarketOrdersTimeout",
			"outputs": [],
			"stateMutability": "nonpayable",
			"type": "function"
		},
		{
			"inputs": [
				{
					"internalType": "uint256",
					"name": "value",
					"type": "uint256"
				}
			],
			"name": "setMaxPosDai",
			"outputs": [],
			"stateMutability": "nonpayable",
			"type": "function"
		},
		{
			"inputs": [],
			"name": "storageT",
			"outputs": [
				{
					"internalType": "contract StorageInterfaceV5",
					"name": "",
					"type": "address"
				}
			],
			"stateMutability": "view",
			"type": "function"
		},
		{
			"inputs": [
				{
					"internalType": "uint256",
					"name": "pairIndex",
					"type": "uint256"
				},
				{
					"internalType": "uint256",
					"name": "index",
					"type": "uint256"
				},
				{
					"internalType": "uint256",
					"name": "price",
					"type": "uint256"
				},
				{
					"internalType": "uint256",
					"name": "tp",
					"type": "uint256"
				},
				{
					"internalType": "uint256",
					"name": "sl",
					"type": "uint256"
				},
				{
					"internalType": "uint256",
					"name": "maxSlippageP",
					"type": "uint256"
				}
			],
			"name": "updateOpenLimitOrder",
			"outputs": [],
			"stateMutability": "nonpayable",
			"type": "function"
		},
		{
			"inputs": [
				{
					"internalType": "uint256",
					"name": "pairIndex",
					"type": "uint256"
				},
				{
					"internalType": "uint256",
					"name": "index",
					"type": "uint256"
				},
				{
					"internalType": "uint256",
					"name": "newSl",
					"type": "uint256"
				}
			],
			"name": "updateSl",
			"outputs": [],
			"stateMutability": "nonpayable",
			"type": "function"
		},
		{
			"inputs": [
				{
					"internalType": "uint256",
					"name": "pairIndex",
					"type": "uint256"
				},
				{
					"internalType": "uint256",
					"name": "index",
					"type": "uint256"
				},
				{
					"internalType": "uint256",
					"name": "newTp",
					"type": "uint256"
				}
			],
			"name": "updateTp",
			"outputs": [],
			"stateMutability": "nonpayable",
			"type": "function"
		}
	]
}