{
  "address": "0xF779D2E196C0A92452b67f5Ce4B1Ed9770692000",
  "abi": [
    {
      "inputs": [
        {
          "internalType": "address",
          "name": "admin",
          "type": "address"
        }
      ],
      "stateMutability": "nonpayable",
      "type": "constructor"
    },
    {
      "anonymous": false,
      "inputs": [
        {
          "indexed": true,
          "internalType": "address",
          "name": "owner",
          "type": "address"
        },
        {
          "indexed": true,
          "internalType": "address",
          "name": "spender",
          "type": "address"
        },
        {
          "indexed": false,
          "internalType": "uint256",
          "name": "value",
          "type": "uint256"
        }
      ],
      "name": "Approval",
      "type": "event"
    },
    {
      "anonymous": false,
      "inputs": [
        {
          "indexed": true,
          "internalType": "bytes32",
          "name": "role",
          "type": "bytes32"
        },
        {
          "indexed": true,
          "internalType": "bytes32",
          "name": "previousAdminRole",
          "type": "bytes32"
        },
        {
          "indexed": true,
          "internalType": "bytes32",
          "name": "newAdminRole",
          "type": "bytes32"
        }
      ],
      "name": "RoleAdminChanged",
      "type": "event"
    },
    {
      "anonymous": false,
      "inputs": [
        {
          "indexed": true,
          "internalType": "bytes32",
          "name": "role",
          "type": "bytes32"
        },
        {
          "indexed": true,
          "internalType": "address",
          "name": "account",
          "type": "address"
        },
        {
          "indexed": true,
          "internalType": "address",
          "name": "sender",
          "type": "address"
        }
      ],
      "name": "RoleGranted",
      "type": "event"
    },
    {
      "anonymous": false,
      "inputs": [
        {
          "indexed": true,
          "internalType": "bytes32",
          "name": "role",
          "type": "bytes32"
        },
        {
          "indexed": true,
          "internalType": "address",
          "name": "account",
          "type": "address"
        },
        {
          "indexed": true,
          "internalType": "address",
          "name": "sender",
          "type": "address"
        }
      ],
      "name": "RoleRevoked",
      "type": "event"
    },
    {
      "anonymous": false,
      "inputs": [
        {
          "indexed": true,
          "internalType": "address",
          "name": "from",
          "type": "address"
        },
        {
          "indexed": true,
          "internalType": "address",
          "name": "to",
          "type": "address"
        },
        {
          "indexed": false,
          "internalType": "uint256",
          "name": "value",
          "type": "uint256"
        }
      ],
      "name": "Transfer",
      "type": "event"
    },
    {
      "inputs": [],
      "name": "BURNER_ROLE",
      "outputs": [
        {
          "internalType": "bytes32",
          "name": "",
          "type": "bytes32"
        }
      ],
      "stateMutability": "view",
      "type": "function"
    },
    {
      "inputs": [],
      "name": "DEFAULT_ADMIN_ROLE",
      "outputs": [
        {
          "internalType": "bytes32",
          "name": "",
          "type": "bytes32"
        }
      ],
      "stateMutability": "view",
      "type": "function"
    },
    {
      "inputs": [],
      "name": "MINTER_ROLE",
      "outputs": [
        {
          "internalType": "bytes32",
          "name": "",
          "type": "bytes32"
        }
      ],
      "stateMutability": "view",
      "type": "function"
    },
    {
      "inputs": [
        {
          "internalType": "address",
          "name": "owner",
          "type": "address"
        },
        {
          "internalType": "address",
          "name": "spender",
          "type": "address"
        }
      ],
      "name": "allowance",
      "outputs": [
        {
          "internalType": "uint256",
          "name": "",
          "type": "uint256"
        }
      ],
      "stateMutability": "view",
      "type": "function"
    },
    {
      "inputs": [
        {
          "internalType": "address",
          "name": "spender",
          "type": "address"
        },
        {
          "internalType": "uint256",
          "name": "amount",
          "type": "uint256"
        }
      ],
      "name": "approve",
      "outputs": [
        {
          "internalType": "bool",
          "name": "",
          "type": "bool"
        }
      ],
      "stateMutability": "nonpayable",
      "type": "function"
    },
    {
      "inputs": [
        {
          "internalType": "address",
          "name": "account",
          "type": "address"
        }
      ],
      "name": "balanceOf",
      "outputs": [
        {
          "internalType": "uint256",
          "name": "",
          "type": "uint256"
        }
      ],
      "stateMutability": "view",
      "type": "function"
    },
    {
      "inputs": [
        {
          "internalType": "address",
          "name": "from",
          "type": "address"
        },
        {
          "internalType": "uint256",
          "name": "amount",
          "type": "uint256"
        }
      ],
      "name": "burn",
      "outputs": [],
      "stateMutability": "nonpayable",
      "type": "function"
    },
    {
      "inputs": [],
      "name": "cap",
      "outputs": [
        {
          "internalType": "uint256",
          "name": "",
          "type": "uint256"
        }
      ],
      "stateMutability": "view",
      "type": "function"
    },
    {
      "inputs": [],
      "name": "decimals",
      "outputs": [
        {
          "internalType": "uint8",
          "name": "",
          "type": "uint8"
        }
      ],
      "stateMutability": "view",
      "type": "function"
    },
    {
      "inputs": [
        {
          "internalType": "address",
          "name": "spender",
          "type": "address"
        },
        {
          "internalType": "uint256",
          "name": "subtractedValue",
          "type": "uint256"
        }
      ],
      "name": "decreaseAllowance",
      "outputs": [
        {
          "internalType": "bool",
          "name": "",
          "type": "bool"
        }
      ],
      "stateMutability": "nonpayable",
      "type": "function"
    },
    {
      "inputs": [
        {
          "internalType": "bytes32",
          "name": "role",
          "type": "bytes32"
        }
      ],
      "name": "getRoleAdmin",
      "outputs": [
        {
          "internalType": "bytes32",
          "name": "",
          "type": "bytes32"
        }
      ],
      "stateMutability": "view",
      "type": "function"
    },
    {
      "inputs": [
        {
          "internalType": "bytes32",
          "name": "role",
          "type": "bytes32"
        },
        {
          "internalType": "uint256",
          "name": "index",
          "type": "uint256"
        }
      ],
      "name": "getRoleMember",
      "outputs": [
        {
          "internalType": "address",
          "name": "",
          "type": "address"
        }
      ],
      "stateMutability": "view",
      "type": "function"
    },
    {
      "inputs": [
        {
          "internalType": "bytes32",
          "name": "role",
          "type": "bytes32"
        }
      ],
      "name": "getRoleMemberCount",
      "outputs": [
        {
          "internalType": "uint256",
          "name": "",
          "type": "uint256"
        }
      ],
      "stateMutability": "view",
      "type": "function"
    },
    {
      "inputs": [
        {
          "internalType": "bytes32",
          "name": "role",
          "type": "bytes32"
        },
        {
          "internalType": "address",
          "name": "account",
          "type": "address"
        }
      ],
      "name": "grantRole",
      "outputs": [],
      "stateMutability": "nonpayable",
      "type": "function"
    },
    {
      "inputs": [
        {
          "internalType": "bytes32",
          "name": "role",
          "type": "bytes32"
        },
        {
          "internalType": "address",
          "name": "account",
          "type": "address"
        }
      ],
      "name": "hasRole",
      "outputs": [
        {
          "internalType": "bool",
          "name": "",
          "type": "bool"
        }
      ],
      "stateMutability": "view",
      "type": "function"
    },
    {
      "inputs": [
        {
          "internalType": "address",
          "name": "spender",
          "type": "address"
        },
        {
          "internalType": "uint256",
          "name": "addedValue",
          "type": "uint256"
        }
      ],
      "name": "increaseAllowance",
      "outputs": [
        {
          "internalType": "bool",
          "name": "",
          "type": "bool"
        }
      ],
      "stateMutability": "nonpayable",
      "type": "function"
    },
    {
      "inputs": [],
      "name": "initialized",
      "outputs": [
        {
          "internalType": "bool",
          "name": "",
          "type": "bool"
        }
      ],
      "stateMutability": "view",
      "type": "function"
    },
    {
      "inputs": [
        {
          "internalType": "address",
          "name": "to",
          "type": "address"
        },
        {
          "internalType": "uint256",
          "name": "amount",
          "type": "uint256"
        }
      ],
      "name": "mint",
      "outputs": [],
      "stateMutability": "nonpayable",
      "type": "function"
    },
    {
      "inputs": [],
      "name": "name",
      "outputs": [
        {
          "internalType": "string",
          "name": "",
          "type": "string"
        }
      ],
      "stateMutability": "view",
      "type": "function"
    },
    {
      "inputs": [
        {
          "internalType": "bytes32",
          "name": "role",
          "type": "bytes32"
        },
        {
          "internalType": "address",
          "name": "account",
          "type": "address"
        }
      ],
      "name": "renounceRole",
      "outputs": [],
      "stateMutability": "nonpayable",
      "type": "function"
    },
    {
      "inputs": [
        {
          "internalType": "bytes32",
          "name": "role",
          "type": "bytes32"
        },
        {
          "internalType": "address",
          "name": "account",
          "type": "address"
        }
      ],
      "name": "revokeRole",
      "outputs": [],
      "stateMutability": "nonpayable",
      "type": "function"
    },
    {
      "inputs": [
        {
          "internalType": "address",
          "name": "tradingStorage",
          "type": "address"
        },
        {
          "internalType": "address",
          "name": "nftRewards",
          "type": "address"
        },
        {
          "internalType": "address",
          "name": "referralRewards",
          "type": "address"
        },
        {
          "internalType": "address",
          "name": "trading",
          "type": "address"
        },
        {
          "internalType": "address",
          "name": "callbacks",
          "type": "address"
        },
        {
          "internalType": "address",
          "name": "vault",
          "type": "address"
        }
      ],
      "name": "setupRoles",
      "outputs": [],
      "stateMutability": "nonpayable",
      "type": "function"
    },
    {
      "inputs": [
        {
          "internalType": "bytes4",
          "name": "interfaceId",
          "type": "bytes4"
        }
      ],
      "name": "supportsInterface",
      "outputs": [
        {
          "internalType": "bool",
          "name": "",
          "type": "bool"
        }
      ],
      "stateMutability": "view",
      "type": "function"
    },
    {
      "inputs": [],
      "name": "symbol",
      "outputs": [
        {
          "internalType": "string",
          "name": "",
          "type": "string"
        }
      ],
      "stateMutability": "view",
      "type": "function"
    },
    {
      "inputs": [],
      "name": "totalSupply",
      "outputs": [
        {
          "internalType": "uint256",
          "name": "",
          "type": "uint256"
        }
      ],
      "stateMutability": "view",
      "type": "function"
    },
    {
      "inputs": [
        {
          "internalType": "address",
          "name": "to",
          "type": "address"
        },
        {
          "internalType": "uint256",
          "name": "amount",
          "type": "uint256"
        }
      ],
      "name": "transfer",
      "outputs": [
        {
          "internalType": "bool",
          "name": "",
          "type": "bool"
        }
      ],
      "stateMutability": "nonpayable",
      "type": "function"
    },
    {
      "inputs": [
        {
          "internalType": "address",
          "name": "from",
          "type": "address"
        },
        {
          "internalType": "address",
          "name": "to",
          "type": "address"
        },
        {
          "internalType": "uint256",
          "name": "amount",
          "type": "uint256"
        }
      ],
      "name": "transferFrom",
      "outputs": [
        {
          "internalType": "bool",
          "name": "",
          "type": "bool"
        }
      ],
      "stateMutability": "nonpayable",
      "type": "function"
    }
  ],
  "transactionHash": "0x693159ac37ef64203d7d780d682f569469d50e406e028a5682f38392233bc278",
  "args": [
    "0xE5f1Eb09e0d23c453FD787b21E6d082CDEE6b7B3"
  ],
  "numDeployments": 1,
  "solcInputHash": "f7a9b91dc44ee5e79c1a5d5aff87db1f",
  "bytecode": "0x60a06040526007805460ff191690553480156200001b57600080fd5b5060405162001be038038062001be08339810160408190526200003e916200032f565b604080518082018252600d81526c4761696e73204e6574776f726b60981b60208083019182528351808501909452600380855262474e5360e81b9185019190915282516a52b7d2dcc80cd2e400000094926200009b929162000289565b508051620000b190600490602084019062000289565b50505060008111620001095760405162461bcd60e51b815260206004820152601560248201527f45524332304361707065643a2063617020697320300000000000000000000000604482015260640160405180910390fd5b6080526200011960008262000120565b506200039e565b6200012c828262000130565b5050565b6200014782826200017360201b620009211760201c565b60008281526006602090815260409091206200016e918390620009a762000217821b17901c565b505050565b60008281526005602090815260408083206001600160a01b038516845290915290205460ff166200012c5760008281526005602090815260408083206001600160a01b03851684529091529020805460ff19166001179055620001d33390565b6001600160a01b0316816001600160a01b0316837f2f8788117e7eff1d82e926ec794901d17c78024a50270940304540a733656f0d60405160405180910390a45050565b60006200022e836001600160a01b03841662000237565b90505b92915050565b6000818152600183016020526040812054620002805750815460018181018455600084815260208082209093018490558454848252828601909352604090209190915562000231565b50600062000231565b828054620002979062000361565b90600052602060002090601f016020900481019282620002bb576000855562000306565b82601f10620002d657805160ff191683800117855562000306565b8280016001018555821562000306579182015b8281111562000306578251825591602001919060010190620002e9565b506200031492915062000318565b5090565b5b8082111562000314576000815560010162000319565b6000602082840312156200034257600080fd5b81516001600160a01b03811681146200035a57600080fd5b9392505050565b600181811c908216806200037657607f821691505b602082108114156200039857634e487b7160e01b600052602260045260246000fd5b50919050565b60805161181f620003c16000396000818161028e0152610d86015261181f6000f3fe608060405234801561001057600080fd5b50600436106101a95760003560e01c806340c10f19116100f9578063a217fddf11610097578063ca15c87311610071578063ca15c873146103ae578063d5391393146103c1578063d547741f146103d6578063dd62ed3e146103e957600080fd5b8063a217fddf14610380578063a457c2d714610388578063a9059cbb1461039b57600080fd5b80639010d07c116100d35780639010d07c1461032757806391d148541461035257806395d89b41146103655780639dc29fac1461036d57600080fd5b806340c10f19146102d857806370a08231146102eb57806379065af41461031457600080fd5b8063248a9ca311610166578063313ce56711610140578063313ce5671461027d578063355274ea1461028c57806336568abe146102b257806339509351146102c557600080fd5b8063248a9ca314610230578063282c51f3146102535780632f2ff15d1461026857600080fd5b806301ffc9a7146101ae57806306fdde03146101d6578063095ea7b3146101eb578063158ef93e146101fe57806318160ddd1461020b57806323b872dd1461021d575b600080fd5b6101c16101bc3660046115b3565b6103fc565b60405190151581526020015b60405180910390f35b6101de610427565b6040516101cd9190611652565b6101c16101f936600461152b565b6104b9565b6007546101c19060ff1681565b6002545b6040519081526020016101cd565b6101c161022b3660046114ef565b6104d1565b61020f61023e366004611555565b60009081526005602052604090206001015490565b61020f6000805160206117aa83398151915281565b61027b61027636600461156e565b6104f5565b005b604051601281526020016101cd565b7f000000000000000000000000000000000000000000000000000000000000000061020f565b61027b6102c036600461156e565b61051f565b6101c16102d336600461152b565b6105a2565b61027b6102e636600461152b565b6105c4565b61020f6102f936600461142d565b6001600160a01b031660009081526020819052604090205490565b61027b61032236600461147b565b6105e6565b61033a610335366004611591565b6107b6565b6040516001600160a01b0390911681526020016101cd565b6101c161036036600461156e565b6107d5565b6101de610800565b61027b61037b36600461152b565b61080f565b61020f600081565b6101c161039636600461152b565b610831565b6101c16103a936600461152b565b6108ac565b61020f6103bc366004611555565b6108ba565b61020f6000805160206117ca83398151915281565b61027b6103e436600461156e565b6108d1565b61020f6103f7366004611448565b6108f6565b60006001600160e01b03198216635a05180f60e01b14806104215750610421826109bc565b92915050565b60606003805461043690611716565b80601f016020809104026020016040519081016040528092919081815260200182805461046290611716565b80156104af5780601f10610484576101008083540402835291602001916104af565b820191906000526020600020905b81548152906001019060200180831161049257829003601f168201915b5050505050905090565b6000336104c78185856109f1565b5060019392505050565b6000336104df858285610b15565b6104ea858585610b8f565b506001949350505050565b60008281526005602052604090206001015461051081610d33565b61051a8383610d40565b505050565b6001600160a01b03811633146105945760405162461bcd60e51b815260206004820152602f60248201527f416363657373436f6e74726f6c3a2063616e206f6e6c792072656e6f756e636560448201526e103937b632b9903337b91039b2b63360891b60648201526084015b60405180910390fd5b61059e8282610d62565b5050565b6000336104c78185856105b583836108f6565b6105bf9190611685565b6109f1565b6000805160206117ca8339815191526105dc81610d33565b61051a8383610d84565b60006105f181610d33565b6001600160a01b0387161580159061061157506001600160a01b03861615155b801561062557506001600160a01b03851615155b801561063957506001600160a01b03841615155b801561064d57506001600160a01b03831615155b801561066157506001600160a01b03821615155b61069f5760405162461bcd60e51b815260206004820152600f60248201526e57524f4e475f41444452455353455360881b604482015260640161058b565b60075460ff16156106e05760405162461bcd60e51b815260206004820152600b60248201526a125392551250531256915160aa1b604482015260640161058b565b6007805460ff191660011790556107056000805160206117ca83398151915288610e11565b61071d6000805160206117aa83398151915288610e11565b6107356000805160206117ca83398151915287610e11565b61074d6000805160206117ca83398151915286610e11565b6107656000805160206117ca83398151915285610e11565b61077d6000805160206117ca83398151915284610e11565b6107956000805160206117ca83398151915283610e11565b6107ad6000805160206117aa83398151915283610e11565b50505050505050565b60008281526006602052604081206107ce9083610e1b565b9392505050565b60009182526005602090815260408084206001600160a01b0393909316845291905290205460ff1690565b60606004805461043690611716565b6000805160206117aa83398151915261082781610d33565b61051a8383610e27565b6000338161083f82866108f6565b90508381101561089f5760405162461bcd60e51b815260206004820152602560248201527f45524332303a2064656372656173656420616c6c6f77616e63652062656c6f77604482015264207a65726f60d81b606482015260840161058b565b6104ea82868684036109f1565b6000336104c7818585610b8f565b600081815260066020526040812061042190610f59565b6000828152600560205260409020600101546108ec81610d33565b61051a8383610d62565b6001600160a01b03918216600090815260016020908152604080832093909416825291909152205490565b61092b82826107d5565b61059e5760008281526005602090815260408083206001600160a01b03851684529091529020805460ff191660011790556109633390565b6001600160a01b0316816001600160a01b0316837f2f8788117e7eff1d82e926ec794901d17c78024a50270940304540a733656f0d60405160405180910390a45050565b60006107ce836001600160a01b038416610f63565b60006001600160e01b03198216637965db0b60e01b148061042157506301ffc9a760e01b6001600160e01b0319831614610421565b6001600160a01b038316610a535760405162461bcd60e51b8152602060048201526024808201527f45524332303a20617070726f76652066726f6d20746865207a65726f206164646044820152637265737360e01b606482015260840161058b565b6001600160a01b038216610ab45760405162461bcd60e51b815260206004820152602260248201527f45524332303a20617070726f766520746f20746865207a65726f206164647265604482015261737360f01b606482015260840161058b565b6001600160a01b0383811660008181526001602090815260408083209487168084529482529182902085905590518481527f8c5be1e5ebec7d5bd14f71427d1e84f3dd0314c0f7b2291e5b200ac8c7c3b925910160405180910390a3505050565b6000610b2184846108f6565b90506000198114610b895781811015610b7c5760405162461bcd60e51b815260206004820152601d60248201527f45524332303a20696e73756666696369656e7420616c6c6f77616e6365000000604482015260640161058b565b610b8984848484036109f1565b50505050565b6001600160a01b038316610bf35760405162461bcd60e51b815260206004820152602560248201527f45524332303a207472616e736665722066726f6d20746865207a65726f206164604482015264647265737360d81b606482015260840161058b565b6001600160a01b038216610c555760405162461bcd60e51b815260206004820152602360248201527f45524332303a207472616e7366657220746f20746865207a65726f206164647260448201526265737360e81b606482015260840161058b565b6001600160a01b03831660009081526020819052604090205481811015610ccd5760405162461bcd60e51b815260206004820152602660248201527f45524332303a207472616e7366657220616d6f756e7420657863656564732062604482015265616c616e636560d01b606482015260840161058b565b6001600160a01b03848116600081815260208181526040808320878703905593871680835291849020805487019055925185815290927fddf252ad1be2c89b69c2b068fc378daa952ba7f163c4a11628f55a4df523b3ef910160405180910390a3610b89565b610d3d8133610fb2565b50565b610d4a8282610921565b600082815260066020526040902061051a90826109a7565b610d6c828261100b565b600082815260066020526040902061051a9082611072565b7f000000000000000000000000000000000000000000000000000000000000000081610daf60025490565b610db99190611685565b1115610e075760405162461bcd60e51b815260206004820152601960248201527f45524332304361707065643a2063617020657863656564656400000000000000604482015260640161058b565b61059e8282611087565b61059e8282610d40565b60006107ce8383611146565b6001600160a01b038216610e875760405162461bcd60e51b815260206004820152602160248201527f45524332303a206275726e2066726f6d20746865207a65726f206164647265736044820152607360f81b606482015260840161058b565b6001600160a01b03821660009081526020819052604090205481811015610efb5760405162461bcd60e51b815260206004820152602260248201527f45524332303a206275726e20616d6f756e7420657863656564732062616c616e604482015261636560f01b606482015260840161058b565b6001600160a01b0383166000818152602081815260408083208686039055600280548790039055518581529192917fddf252ad1be2c89b69c2b068fc378daa952ba7f163c4a11628f55a4df523b3ef910160405180910390a3505050565b6000610421825490565b6000818152600183016020526040812054610faa57508154600181810184556000848152602080822090930184905584548482528286019093526040902091909155610421565b506000610421565b610fbc82826107d5565b61059e57610fc981611170565b610fd4836020611182565b604051602001610fe59291906115dd565b60408051601f198184030181529082905262461bcd60e51b825261058b91600401611652565b61101582826107d5565b1561059e5760008281526005602090815260408083206001600160a01b0385168085529252808320805460ff1916905551339285917ff6391f5c32d9c69d2a47ea670b442974b53935d1edc7fd64eb21e047a839171b9190a45050565b60006107ce836001600160a01b03841661131e565b6001600160a01b0382166110dd5760405162461bcd60e51b815260206004820152601f60248201527f45524332303a206d696e7420746f20746865207a65726f206164647265737300604482015260640161058b565b80600260008282546110ef9190611685565b90915550506001600160a01b038216600081815260208181526040808320805486019055518481527fddf252ad1be2c89b69c2b068fc378daa952ba7f163c4a11628f55a4df523b3ef910160405180910390a35050565b600082600001828154811061115d5761115d61177d565b9060005260206000200154905092915050565b60606104216001600160a01b03831660145b6060600061119183600261169d565b61119c906002611685565b67ffffffffffffffff8111156111b4576111b4611793565b6040519080825280601f01601f1916602001820160405280156111de576020820181803683370190505b509050600360fc1b816000815181106111f9576111f961177d565b60200101906001600160f81b031916908160001a905350600f60fb1b816001815181106112285761122861177d565b60200101906001600160f81b031916908160001a905350600061124c84600261169d565b611257906001611685565b90505b60018111156112cf576f181899199a1a9b1b9c1cb0b131b232b360811b85600f166010811061128b5761128b61177d565b1a60f81b8282815181106112a1576112a161177d565b60200101906001600160f81b031916908160001a90535060049490941c936112c8816116ff565b905061125a565b5083156107ce5760405162461bcd60e51b815260206004820181905260248201527f537472696e67733a20686578206c656e67746820696e73756666696369656e74604482015260640161058b565b600081815260018301602052604081205480156114075760006113426001836116bc565b8554909150600090611356906001906116bc565b90508181146113bb5760008660000182815481106113765761137661177d565b90600052602060002001549050808760000184815481106113995761139961177d565b6000918252602080832090910192909255918252600188019052604090208390555b85548690806113cc576113cc611767565b600190038181906000526020600020016000905590558560010160008681526020019081526020016000206000905560019350505050610421565b6000915050610421565b80356001600160a01b038116811461142857600080fd5b919050565b60006020828403121561143f57600080fd5b6107ce82611411565b6000806040838503121561145b57600080fd5b61146483611411565b915061147260208401611411565b90509250929050565b60008060008060008060c0878903121561149457600080fd5b61149d87611411565b95506114ab60208801611411565b94506114b960408801611411565b93506114c760608801611411565b92506114d560808801611411565b91506114e360a08801611411565b90509295509295509295565b60008060006060848603121561150457600080fd5b61150d84611411565b925061151b60208501611411565b9150604084013590509250925092565b6000806040838503121561153e57600080fd5b61154783611411565b946020939093013593505050565b60006020828403121561156757600080fd5b5035919050565b6000806040838503121561158157600080fd5b8235915061147260208401611411565b600080604083850312156115a457600080fd5b50508035926020909101359150565b6000602082840312156115c557600080fd5b81356001600160e01b0319811681146107ce57600080fd5b7f416363657373436f6e74726f6c3a206163636f756e74200000000000000000008152600083516116158160178501602088016116d3565b7001034b99036b4b9b9b4b733903937b6329607d1b60179184019182015283516116468160288401602088016116d3565b01602801949350505050565b60208152600082518060208401526116718160408501602087016116d3565b601f01601f19169190910160400192915050565b6000821982111561169857611698611751565b500190565b60008160001904831182151516156116b7576116b7611751565b500290565b6000828210156116ce576116ce611751565b500390565b60005b838110156116ee5781810151838201526020016116d6565b83811115610b895750506000910152565b60008161170e5761170e611751565b506000190190565b600181811c9082168061172a57607f821691505b6020821081141561174b57634e487b7160e01b600052602260045260246000fd5b50919050565b634e487b7160e01b600052601160045260246000fd5b634e487b7160e01b600052603160045260246000fd5b634e487b7160e01b600052603260045260246000fd5b634e487b7160e01b600052604160045260246000fdfe3c11d16cbaffd01df69ce1c404f6340ee057498f5f00246190ea54220576a8489f2df0fed2c77648de5860a4cc508cd0818c85b8b8a1ab4ceeef8d981c8956a6a2646970667358221220e6c8cc66da22f08b003b078f71ce0b85af9b1308713b4a6b99d45beb11c8097664736f6c63430008070033",
  "libraries": {},
  "devdoc": {
    "kind": "dev",
    "methods": {
      "allowance(address,address)": {
        "details": "See {IERC20-allowance}."
      },
      "approve(address,uint256)": {
        "details": "See {IERC20-approve}. NOTE: If `amount` is the maximum `uint256`, the allowance is not updated on `transferFrom`. This is semantically equivalent to an infinite approval. Requirements: - `spender` cannot be the zero address."
      },
      "balanceOf(address)": {
        "details": "See {IERC20-balanceOf}."
      },
      "cap()": {
        "details": "Returns the cap on the token's total supply."
      },
      "decimals()": {
        "details": "Returns the number of decimals used to get its user representation. For example, if `decimals` equals `2`, a balance of `505` tokens should be displayed to a user as `5.05` (`505 / 10 ** 2`). Tokens usually opt for a value of 18, imitating the relationship between Ether and Wei. This is the value {ERC20} uses, unless this function is overridden; NOTE: This information is only used for _display_ purposes: it in no way affects any of the arithmetic of the contract, including {IERC20-balanceOf} and {IERC20-transfer}."
      },
      "decreaseAllowance(address,uint256)": {
        "details": "Atomically decreases the allowance granted to `spender` by the caller. This is an alternative to {approve} that can be used as a mitigation for problems described in {IERC20-approve}. Emits an {Approval} event indicating the updated allowance. Requirements: - `spender` cannot be the zero address. - `spender` must have allowance for the caller of at least `subtractedValue`."
      },
      "getRoleAdmin(bytes32)": {
        "details": "Returns the admin role that controls `role`. See {grantRole} and {revokeRole}. To change a role's admin, use {_setRoleAdmin}."
      },
      "getRoleMember(bytes32,uint256)": {
        "details": "Returns one of the accounts that have `role`. `index` must be a value between 0 and {getRoleMemberCount}, non-inclusive. Role bearers are not sorted in any particular way, and their ordering may change at any point. WARNING: When using {getRoleMember} and {getRoleMemberCount}, make sure you perform all queries on the same block. See the following https://forum.openzeppelin.com/t/iterating-over-elements-on-enumerableset-in-openzeppelin-contracts/2296[forum post] for more information."
      },
      "getRoleMemberCount(bytes32)": {
        "details": "Returns the number of accounts that have `role`. Can be used together with {getRoleMember} to enumerate all bearers of a role."
      },
      "grantRole(bytes32,address)": {
        "details": "Grants `role` to `account`. If `account` had not been already granted `role`, emits a {RoleGranted} event. Requirements: - the caller must have ``role``'s admin role. May emit a {RoleGranted} event."
      },
      "hasRole(bytes32,address)": {
        "details": "Returns `true` if `account` has been granted `role`."
      },
      "increaseAllowance(address,uint256)": {
        "details": "Atomically increases the allowance granted to `spender` by the caller. This is an alternative to {approve} that can be used as a mitigation for problems described in {IERC20-approve}. Emits an {Approval} event indicating the updated allowance. Requirements: - `spender` cannot be the zero address."
      },
      "name()": {
        "details": "Returns the name of the token."
      },
      "renounceRole(bytes32,address)": {
        "details": "Revokes `role` from the calling account. Roles are often managed via {grantRole} and {revokeRole}: this function's purpose is to provide a mechanism for accounts to lose their privileges if they are compromised (such as when a trusted device is misplaced). If the calling account had been revoked `role`, emits a {RoleRevoked} event. Requirements: - the caller must be `account`. May emit a {RoleRevoked} event."
      },
      "revokeRole(bytes32,address)": {
        "details": "Revokes `role` from `account`. If `account` had been granted `role`, emits a {RoleRevoked} event. Requirements: - the caller must have ``role``'s admin role. May emit a {RoleRevoked} event."
      },
      "supportsInterface(bytes4)": {
        "details": "See {IERC165-supportsInterface}."
      },
      "symbol()": {
        "details": "Returns the symbol of the token, usually a shorter version of the name."
      },
      "totalSupply()": {
        "details": "See {IERC20-totalSupply}."
      },
      "transfer(address,uint256)": {
        "details": "See {IERC20-transfer}. Requirements: - `to` cannot be the zero address. - the caller must have a balance of at least `amount`."
      },
      "transferFrom(address,address,uint256)": {
        "details": "See {IERC20-transferFrom}. Emits an {Approval} event indicating the updated allowance. This is not required by the EIP. See the note at the beginning of {ERC20}. NOTE: Does not update the allowance if the current allowance is the maximum `uint256`. Requirements: - `from` and `to` cannot be the zero address. - `from` must have a balance of at least `amount`. - the caller must have allowance for ``from``'s tokens of at least `amount`."
      }
    },
    "version": 1
  },
  "userdoc": {
    "kind": "user",
    "methods": {},
    "version": 1
  },
  "storageLayout": {
    "storage": [
      {
        "astId": 6279,
        "contract": "contracts/contracts/GNS.sol:GainsNetworkToken",
        "label": "_balances",
        "offset": 0,
        "slot": "0",
        "type": "t_mapping(t_address,t_uint256)"
      },
      {
        "astId": 6285,
        "contract": "contracts/contracts/GNS.sol:GainsNetworkToken",
        "label": "_allowances",
        "offset": 0,
        "slot": "1",
        "type": "t_mapping(t_address,t_mapping(t_address,t_uint256))"
      },
      {
        "astId": 6287,
        "contract": "contracts/contracts/GNS.sol:GainsNetworkToken",
        "label": "_totalSupply",
        "offset": 0,
        "slot": "2",
        "type": "t_uint256"
      },
      {
        "astId": 6289,
        "contract": "contracts/contracts/GNS.sol:GainsNetworkToken",
        "label": "_name",
        "offset": 0,
        "slot": "3",
        "type": "t_string_storage"
      },
      {
        "astId": 6291,
        "contract": "contracts/contracts/GNS.sol:GainsNetworkToken",
        "label": "_symbol",
        "offset": 0,
        "slot": "4",
        "type": "t_string_storage"
      },
      {
        "astId": 5847,
        "contract": "contracts/contracts/GNS.sol:GainsNetworkToken",
        "label": "_roles",
        "offset": 0,
        "slot": "5",
        "type": "t_mapping(t_bytes32,t_struct(RoleData)5842_storage)"
      },
      {
        "astId": 6157,
        "contract": "contracts/contracts/GNS.sol:GainsNetworkToken",
        "label": "_roleMembers",
        "offset": 0,
        "slot": "6",
        "type": "t_mapping(t_bytes32,t_struct(AddressSet)28494_storage)"
      },
      {
        "astId": 9464,
        "contract": "contracts/contracts/GNS.sol:GainsNetworkToken",
        "label": "initialized",
        "offset": 0,
        "slot": "7",
        "type": "t_bool"
      }
    ],
    "types": {
      "t_address": {
        "encoding": "inplace",
        "label": "address",
        "numberOfBytes": "20"
      },
      "t_array(t_bytes32)dyn_storage": {
        "base": "t_bytes32",
        "encoding": "dynamic_array",
        "label": "bytes32[]",
        "numberOfBytes": "32"
      },
      "t_bool": {
        "encoding": "inplace",
        "label": "bool",
        "numberOfBytes": "1"
      },
      "t_bytes32": {
        "encoding": "inplace",
        "label": "bytes32",
        "numberOfBytes": "32"
      },
      "t_mapping(t_address,t_bool)": {
        "encoding": "mapping",
        "key": "t_address",
        "label": "mapping(address => bool)",
        "numberOfBytes": "32",
        "value": "t_bool"
      },
      "t_mapping(t_address,t_mapping(t_address,t_uint256))": {
        "encoding": "mapping",
        "key": "t_address",
        "label": "mapping(address => mapping(address => uint256))",
        "numberOfBytes": "32",
        "value": "t_mapping(t_address,t_uint256)"
      },
      "t_mapping(t_address,t_uint256)": {
        "encoding": "mapping",
        "key": "t_address",
        "label": "mapping(address => uint256)",
        "numberOfBytes": "32",
        "value": "t_uint256"
      },
      "t_mapping(t_bytes32,t_struct(AddressSet)28494_storage)": {
        "encoding": "mapping",
        "key": "t_bytes32",
        "label": "mapping(bytes32 => struct EnumerableSet.AddressSet)",
        "numberOfBytes": "32",
        "value": "t_struct(AddressSet)28494_storage"
      },
      "t_mapping(t_bytes32,t_struct(RoleData)5842_storage)": {
        "encoding": "mapping",
        "key": "t_bytes32",
        "label": "mapping(bytes32 => struct AccessControl.RoleData)",
        "numberOfBytes": "32",
        "value": "t_struct(RoleData)5842_storage"
      },
      "t_mapping(t_bytes32,t_uint256)": {
        "encoding": "mapping",
        "key": "t_bytes32",
        "label": "mapping(bytes32 => uint256)",
        "numberOfBytes": "32",
        "value": "t_uint256"
      },
      "t_string_storage": {
        "encoding": "bytes",
        "label": "string",
        "numberOfBytes": "32"
      },
      "t_struct(AddressSet)28494_storage": {
        "encoding": "inplace",
        "label": "struct EnumerableSet.AddressSet",
        "members": [
          {
            "astId": 28493,
            "contract": "contracts/contracts/GNS.sol:GainsNetworkToken",
            "label": "_inner",
            "offset": 0,
            "slot": "0",
            "type": "t_struct(Set)28179_storage"
          }
        ],
        "numberOfBytes": "64"
      },
      "t_struct(RoleData)5842_storage": {
        "encoding": "inplace",
        "label": "struct AccessControl.RoleData",
        "members": [
          {
            "astId": 5839,
            "contract": "contracts/contracts/GNS.sol:GainsNetworkToken",
            "label": "members",
            "offset": 0,
            "slot": "0",
            "type": "t_mapping(t_address,t_bool)"
          },
          {
            "astId": 5841,
            "contract": "contracts/contracts/GNS.sol:GainsNetworkToken",
            "label": "adminRole",
            "offset": 0,
            "slot": "1",
            "type": "t_bytes32"
          }
        ],
        "numberOfBytes": "64"
      },
      "t_struct(Set)28179_storage": {
        "encoding": "inplace",
        "label": "struct EnumerableSet.Set",
        "members": [
          {
            "astId": 28174,
            "contract": "contracts/contracts/GNS.sol:GainsNetworkToken",
            "label": "_values",
            "offset": 0,
            "slot": "0",
            "type": "t_array(t_bytes32)dyn_storage"
          },
          {
            "astId": 28178,
            "contract": "contracts/contracts/GNS.sol:GainsNetworkToken",
            "label": "_indexes",
            "offset": 0,
            "slot": "1",
            "type": "t_mapping(t_bytes32,t_uint256)"
          }
        ],
        "numberOfBytes": "64"
      },
      "t_uint256": {
        "encoding": "inplace",
        "label": "uint256",
        "numberOfBytes": "32"
      }
    }
  }
}