{
  "address": "0xca238f26Bd81C1d7874A37e0bF470F6b5a759A13",
  "abi": [
    {
      "inputs": [
        {
          "internalType": "address",
          "name": "admin",
          "type": "address"
        }
      ],
      "stateMutability": "nonpayable",
      "type": "constructor"
    },
    {
      "anonymous": false,
      "inputs": [
        {
          "indexed": true,
          "internalType": "address",
          "name": "owner",
          "type": "address"
        },
        {
          "indexed": true,
          "internalType": "address",
          "name": "spender",
          "type": "address"
        },
        {
          "indexed": false,
          "internalType": "uint256",
          "name": "value",
          "type": "uint256"
        }
      ],
      "name": "Approval",
      "type": "event"
    },
    {
      "anonymous": false,
      "inputs": [
        {
          "indexed": true,
          "internalType": "bytes32",
          "name": "role",
          "type": "bytes32"
        },
        {
          "indexed": true,
          "internalType": "bytes32",
          "name": "previousAdminRole",
          "type": "bytes32"
        },
        {
          "indexed": true,
          "internalType": "bytes32",
          "name": "newAdminRole",
          "type": "bytes32"
        }
      ],
      "name": "RoleAdminChanged",
      "type": "event"
    },
    {
      "anonymous": false,
      "inputs": [
        {
          "indexed": true,
          "internalType": "bytes32",
          "name": "role",
          "type": "bytes32"
        },
        {
          "indexed": true,
          "internalType": "address",
          "name": "account",
          "type": "address"
        },
        {
          "indexed": true,
          "internalType": "address",
          "name": "sender",
          "type": "address"
        }
      ],
      "name": "RoleGranted",
      "type": "event"
    },
    {
      "anonymous": false,
      "inputs": [
        {
          "indexed": true,
          "internalType": "bytes32",
          "name": "role",
          "type": "bytes32"
        },
        {
          "indexed": true,
          "internalType": "address",
          "name": "account",
          "type": "address"
        },
        {
          "indexed": true,
          "internalType": "address",
          "name": "sender",
          "type": "address"
        }
      ],
      "name": "RoleRevoked",
      "type": "event"
    },
    {
      "anonymous": false,
      "inputs": [
        {
          "indexed": true,
          "internalType": "address",
          "name": "from",
          "type": "address"
        },
        {
          "indexed": true,
          "internalType": "address",
          "name": "to",
          "type": "address"
        },
        {
          "indexed": false,
          "internalType": "uint256",
          "name": "value",
          "type": "uint256"
        }
      ],
      "name": "Transfer",
      "type": "event"
    },
    {
      "inputs": [],
      "name": "BURNER_ROLE",
      "outputs": [
        {
          "internalType": "bytes32",
          "name": "",
          "type": "bytes32"
        }
      ],
      "stateMutability": "view",
      "type": "function"
    },
    {
      "inputs": [],
      "name": "DEFAULT_ADMIN_ROLE",
      "outputs": [
        {
          "internalType": "bytes32",
          "name": "",
          "type": "bytes32"
        }
      ],
      "stateMutability": "view",
      "type": "function"
    },
    {
      "inputs": [],
      "name": "MINTER_ROLE",
      "outputs": [
        {
          "internalType": "bytes32",
          "name": "",
          "type": "bytes32"
        }
      ],
      "stateMutability": "view",
      "type": "function"
    },
    {
      "inputs": [
        {
          "internalType": "address",
          "name": "owner",
          "type": "address"
        },
        {
          "internalType": "address",
          "name": "spender",
          "type": "address"
        }
      ],
      "name": "allowance",
      "outputs": [
        {
          "internalType": "uint256",
          "name": "",
          "type": "uint256"
        }
      ],
      "stateMutability": "view",
      "type": "function"
    },
    {
      "inputs": [
        {
          "internalType": "address",
          "name": "spender",
          "type": "address"
        },
        {
          "internalType": "uint256",
          "name": "amount",
          "type": "uint256"
        }
      ],
      "name": "approve",
      "outputs": [
        {
          "internalType": "bool",
          "name": "",
          "type": "bool"
        }
      ],
      "stateMutability": "nonpayable",
      "type": "function"
    },
    {
      "inputs": [
        {
          "internalType": "address",
          "name": "account",
          "type": "address"
        }
      ],
      "name": "balanceOf",
      "outputs": [
        {
          "internalType": "uint256",
          "name": "",
          "type": "uint256"
        }
      ],
      "stateMutability": "view",
      "type": "function"
    },
    {
      "inputs": [
        {
          "internalType": "address",
          "name": "from",
          "type": "address"
        },
        {
          "internalType": "uint256",
          "name": "amount",
          "type": "uint256"
        }
      ],
      "name": "burn",
      "outputs": [],
      "stateMutability": "nonpayable",
      "type": "function"
    },
    {
      "inputs": [],
      "name": "cap",
      "outputs": [
        {
          "internalType": "uint256",
          "name": "",
          "type": "uint256"
        }
      ],
      "stateMutability": "view",
      "type": "function"
    },
    {
      "inputs": [],
      "name": "decimals",
      "outputs": [
        {
          "internalType": "uint8",
          "name": "",
          "type": "uint8"
        }
      ],
      "stateMutability": "view",
      "type": "function"
    },
    {
      "inputs": [
        {
          "internalType": "address",
          "name": "spender",
          "type": "address"
        },
        {
          "internalType": "uint256",
          "name": "subtractedValue",
          "type": "uint256"
        }
      ],
      "name": "decreaseAllowance",
      "outputs": [
        {
          "internalType": "bool",
          "name": "",
          "type": "bool"
        }
      ],
      "stateMutability": "nonpayable",
      "type": "function"
    },
    {
      "inputs": [
        {
          "internalType": "bytes32",
          "name": "role",
          "type": "bytes32"
        }
      ],
      "name": "getRoleAdmin",
      "outputs": [
        {
          "internalType": "bytes32",
          "name": "",
          "type": "bytes32"
        }
      ],
      "stateMutability": "view",
      "type": "function"
    },
    {
      "inputs": [
        {
          "internalType": "bytes32",
          "name": "role",
          "type": "bytes32"
        },
        {
          "internalType": "uint256",
          "name": "index",
          "type": "uint256"
        }
      ],
      "name": "getRoleMember",
      "outputs": [
        {
          "internalType": "address",
          "name": "",
          "type": "address"
        }
      ],
      "stateMutability": "view",
      "type": "function"
    },
    {
      "inputs": [
        {
          "internalType": "bytes32",
          "name": "role",
          "type": "bytes32"
        }
      ],
      "name": "getRoleMemberCount",
      "outputs": [
        {
          "internalType": "uint256",
          "name": "",
          "type": "uint256"
        }
      ],
      "stateMutability": "view",
      "type": "function"
    },
    {
      "inputs": [
        {
          "internalType": "bytes32",
          "name": "role",
          "type": "bytes32"
        },
        {
          "internalType": "address",
          "name": "account",
          "type": "address"
        }
      ],
      "name": "grantRole",
      "outputs": [],
      "stateMutability": "nonpayable",
      "type": "function"
    },
    {
      "inputs": [
        {
          "internalType": "bytes32",
          "name": "role",
          "type": "bytes32"
        },
        {
          "internalType": "address",
          "name": "account",
          "type": "address"
        }
      ],
      "name": "hasRole",
      "outputs": [
        {
          "internalType": "bool",
          "name": "",
          "type": "bool"
        }
      ],
      "stateMutability": "view",
      "type": "function"
    },
    {
      "inputs": [
        {
          "internalType": "address",
          "name": "spender",
          "type": "address"
        },
        {
          "internalType": "uint256",
          "name": "addedValue",
          "type": "uint256"
        }
      ],
      "name": "increaseAllowance",
      "outputs": [
        {
          "internalType": "bool",
          "name": "",
          "type": "bool"
        }
      ],
      "stateMutability": "nonpayable",
      "type": "function"
    },
    {
      "inputs": [],
      "name": "initialized",
      "outputs": [
        {
          "internalType": "bool",
          "name": "",
          "type": "bool"
        }
      ],
      "stateMutability": "view",
      "type": "function"
    },
    {
      "inputs": [
        {
          "internalType": "address",
          "name": "to",
          "type": "address"
        },
        {
          "internalType": "uint256",
          "name": "amount",
          "type": "uint256"
        }
      ],
      "name": "mint",
      "outputs": [],
      "stateMutability": "nonpayable",
      "type": "function"
    },
    {
      "inputs": [],
      "name": "name",
      "outputs": [
        {
          "internalType": "string",
          "name": "",
          "type": "string"
        }
      ],
      "stateMutability": "view",
      "type": "function"
    },
    {
      "inputs": [
        {
          "internalType": "bytes32",
          "name": "role",
          "type": "bytes32"
        },
        {
          "internalType": "address",
          "name": "account",
          "type": "address"
        }
      ],
      "name": "renounceRole",
      "outputs": [],
      "stateMutability": "nonpayable",
      "type": "function"
    },
    {
      "inputs": [
        {
          "internalType": "bytes32",
          "name": "role",
          "type": "bytes32"
        },
        {
          "internalType": "address",
          "name": "account",
          "type": "address"
        }
      ],
      "name": "revokeRole",
      "outputs": [],
      "stateMutability": "nonpayable",
      "type": "function"
    },
    {
      "inputs": [
        {
          "internalType": "address",
          "name": "tradingStorage",
          "type": "address"
        },
        {
          "internalType": "address",
          "name": "nftRewards",
          "type": "address"
        },
        {
          "internalType": "address",
          "name": "referralRewards",
          "type": "address"
        },
        {
          "internalType": "address",
          "name": "trading",
          "type": "address"
        },
        {
          "internalType": "address",
          "name": "callbacks",
          "type": "address"
        },
        {
          "internalType": "address",
          "name": "vault",
          "type": "address"
        }
      ],
      "name": "setupRoles",
      "outputs": [],
      "stateMutability": "nonpayable",
      "type": "function"
    },
    {
      "inputs": [
        {
          "internalType": "bytes4",
          "name": "interfaceId",
          "type": "bytes4"
        }
      ],
      "name": "supportsInterface",
      "outputs": [
        {
          "internalType": "bool",
          "name": "",
          "type": "bool"
        }
      ],
      "stateMutability": "view",
      "type": "function"
    },
    {
      "inputs": [],
      "name": "symbol",
      "outputs": [
        {
          "internalType": "string",
          "name": "",
          "type": "string"
        }
      ],
      "stateMutability": "view",
      "type": "function"
    },
    {
      "inputs": [],
      "name": "totalSupply",
      "outputs": [
        {
          "internalType": "uint256",
          "name": "",
          "type": "uint256"
        }
      ],
      "stateMutability": "view",
      "type": "function"
    },
    {
      "inputs": [
        {
          "internalType": "address",
          "name": "to",
          "type": "address"
        },
        {
          "internalType": "uint256",
          "name": "amount",
          "type": "uint256"
        }
      ],
      "name": "transfer",
      "outputs": [
        {
          "internalType": "bool",
          "name": "",
          "type": "bool"
        }
      ],
      "stateMutability": "nonpayable",
      "type": "function"
    },
    {
      "inputs": [
        {
          "internalType": "address",
          "name": "from",
          "type": "address"
        },
        {
          "internalType": "address",
          "name": "to",
          "type": "address"
        },
        {
          "internalType": "uint256",
          "name": "amount",
          "type": "uint256"
        }
      ],
      "name": "transferFrom",
      "outputs": [
        {
          "internalType": "bool",
          "name": "",
          "type": "bool"
        }
      ],
      "stateMutability": "nonpayable",
      "type": "function"
    }
  ],
  "transactionHash": "0x3f955cdc48a9f57240c6a8b738df3bb8600c1af350685a901db3f27c0dd263cd",
  "args": [
    "0xE5f1Eb09e0d23c453FD787b21E6d082CDEE6b7B3"
  ],
  "numDeployments": 1,
  "solcInputHash": "e77fc03a384758b106b9406281978b2e",
  "bytecode": "0x60a0346200040257601f6200268538819003828101601f199081168501946001600160401b039490939092858711858810176200030657808592604098895283396020948591810103126200040257516001600160a01b038116949085900362000402576200006d62000407565b92600d84526c4761696e73204e6574776f726b60981b858501526200009162000407565b9060039182815262474e5360e81b878201528551848111620003065783546001978882811c92168015620003f7575b8a831014620003e15781858493116200038b575b50899085831160011462000328576000926200031c575b505060001982861b1c191690871b1783555b8051938411620003065760049485548781811c91168015620002fb575b89821014620002e6578381116200029b575b508792851160011462000229575092620001b1979694928192600697956000936200021d575b505082851b92600019911b1c19161790555b6a52b7d2dcc80cd2e400000060805260ff1990816007541660075560008052600583528660002085600052835260ff87600020541615620001d0575b505060008052528260002062000427565b50516121d09081620004b58239608051818181611181015261146f0152f35b6000805260058352866000208560005283528660002091825416179055338360007f2f8788117e7eff1d82e926ec794901d17c78024a50270940304540a733656f0d8180a43880620001a0565b01519150388062000152565b6000868152888120949392918616905b818110620002855750928592620001b19a99979592899760069a96106200026a575b50505050811b01905562000164565b01519060f884600019921b161c19169055388080806200025b565b8284015186559488019492890192890162000239565b86600052886000208480880160051c8201928b8910620002dc575b0160051c019088905b828110620002cf5750506200012c565b60008155018890620002bf565b92508192620002b6565b602287634e487b7160e01b6000525260246000fd5b90607f16906200011a565b634e487b7160e01b600052604160045260246000fd5b015190503880620000eb565b90888a941691876000528b6000209260005b8d8282106200037457505084116200035b575b505050811b018355620000fd565b015160001983881b60f8161c191690553880806200034d565b8385015186558d979095019493840193016200033a565b90915085600052896000208580850160051c8201928c8610620003d7575b918b91869594930160051c01915b828110620003c7575050620000d4565b600081558594508b9101620003b7565b92508192620003a9565b634e487b7160e01b600052602260045260246000fd5b91607f1691620000c0565b600080fd5b60408051919082016001600160401b038111838210176200030657604052565b91906001830160009082825280602052604082205415600014620004ae57845494680100000000000000008610156200049a57600186018082558610156200048657836040949596828552602085200155549382526020522055600190565b634e487b7160e01b83526032600452602483fd5b634e487b7160e01b83526041600452602483fd5b5092505056fe60808060405260048036101561001457600080fd5b60003560e01c91826301ffc9a7146117fa5750816306fdde0314611706578163095ea7b3146116e0578163158ef93e146116bd57816318160ddd1461169f57816323b872dd146115de578163248a9ca3146115b1578163282c51f3146115765781632f2ff15d146114ae578163313ce56714611492578163355274ea1461145757816336568abe146113ba578163395093511461136857816340c10f19146110f157816370a08231146110b757816379065af41461085c5781639010d07c1461081857816391d14854146107cb57816395d89b41146106c65781639dc29fac14610351578163a217fddf14610335578163a457c2d714610277578163a9059cbb14610246578163ca15c8731461021c578163d5391393146101e1578163d547741f146101a1575063dd62ed3e1461014a57600080fd5b3461019c57604036600319011261019c57610163611919565b61016b61192f565b906001600160a01b038091166000526001602052604060002091166000526020526020604060002054604051908152f35b600080fd5b3461019c57604036600319011261019c576101df90356101bf61192f565b908060005260056020526101da600160406000200154611945565b611b3d565b005b3461019c57600036600319011261019c5760206040517f9f2df0fed2c77648de5860a4cc508cd0818c85b8b8a1ab4ceeef8d981c8956a68152f35b3461019c57602036600319011261019c573560005260066020526020604060002054604051908152f35b3461019c57604036600319011261019c5761026c610262611919565b6024359033611bea565b602060405160018152f35b3461019c57604036600319011261019c57610290611919565b60243533600052600160205260406000206001600160a01b0383166000526020526040600020548181106102cb5761026c9350039033611d9e565b60848460206040519162461bcd60e51b8352820152602560248201527f45524332303a2064656372656173656420616c6c6f77616e63652062656c6f7760448201527f207a65726f0000000000000000000000000000000000000000000000000000006064820152fd5b3461019c57600036600319011261019c57602060405160008152f35b3461019c57604036600319011261019c5761036a611919565b9060248035907f3c11d16cbaffd01df69ce1c404f6340ee057498f5f00246190ea54220576a848938460005260209460058652604060002033600052865260ff60406000205416156104f157506001600160a01b031692831561048a57836000526000855260406000205491838310610422576000857fddf252ad1be2c89b69c2b068fc378daa952ba7f163c4a11628f55a4df523b3ef888780888587528684520360408620558060025403600255604051908152a3005b906022608492876040519362461bcd60e51b85528401528201527f45524332303a206275726e20616d6f756e7420657863656564732062616c616e60448201527f63650000000000000000000000000000000000000000000000000000000000006064820152fd5b6021608492866040519362461bcd60e51b85528401528201527f45524332303a206275726e2066726f6d20746865207a65726f2061646472657360448201527f73000000000000000000000000000000000000000000000000000000000000006064820152fd5b8486846104fd3361208b565b6040519161050a83611ae9565b604283528383019560603688378351156106b25760308753835160019081101561069e57607860218601536041905b8082116106335750506105f2575091610591946048926105c66105d59560405198857f416363657373436f6e74726f6c3a206163636f756e74200000000000000000008b9788015282519283916037890191016118ca565b8401917f206973206d697373696e6720726f6c65200000000000000000000000000000006037840152518093868401906118ca565b01036028810185520183611b1b565b6105ee60405192839262461bcd60e51b845283016118ed565b0390fd5b8484606492816040519362461bcd60e51b85528401528201527f537472696e67733a20686578206c656e67746820696e73756666696369656e746044820152fd5b9091600f8116601081101561068a576f181899199a1a9b1b9c1cb0b131b232b360811b901a610662848861207a565b53871c918015610676576000190190610539565b83601189634e487b7160e01b600052526000fd5b8460328a634e487b7160e01b600052526000fd5b82603288634e487b7160e01b600052526000fd5b50603285634e487b7160e01b600052526000fd5b3461019c57600036600319011261019c57604051600091805490600182811c918184169384156107c1575b60209485851081146107ac5784875290811561078a5750600114610730575b61072c8561072081890382611b1b565b604051918291826118ed565b0390f35b60009081529294507f8a35acfbc15ff81a39ae7d344fd709f28e8600b4aa8c65c6b64bfe7fe36bd19b5b828410610777575050508161072c93610720928201019385610710565b805485850187015292850192810161075a565b60ff191686860152505050151560051b82010191506107208161072c85610710565b602283634e487b7160e01b6000525260246000fd5b92607f16926106f1565b3461019c57604036600319011261019c576107e461192f565b903560005260056020526001600160a01b0360406000209116600052602052602060ff604060002054166040519015158152f35b3461019c57604036600319011261019c5735600052600660205260206001600160a01b0361084c6024356040600020611ed2565b9190546040519260031b1c168152f35b3461019c5760c036600319011261019c57610875611919565b9061087e61192f565b6044356001600160a01b038116810361019c57606435916001600160a01b038316830361019c57608435946001600160a01b038616860361019c5760a435946001600160a01b038616860361019c573360009081527f05b8ccbb9d4d8fb16ea74ce3c29a41f1b461fbdaff4714a0d9a8eb05499746bc602052604090205460ff1615610f3c576001600160a01b038216151580610f2a575b80610f18575b80610f06575b80610ef4575b80610ee2575b15610e9e576007549060ff8216610e5a57506001600160a01b03809695610b1e82610ba997610b1e8298610a95846101df9f9a6001610b1e9b60ff1916176007557f9f2df0fed2c77648de5860a4cc508cd0818c85b8b8a1ab4ceeef8d981c8956a66000526005602052604060002082821660005260205260ff6040600020541615610cc1575b7f9f2df0fed2c77648de5860a4cc508cd0818c85b8b8a1ab4ceeef8d981c8956a66000526006602052610a0a8183167f3195c024b2ddd6d9b8f6c836aa52f67fe69376c8903d009b80229b3ce4425f51611f00565b5080821660009081527f847f481f687befb06ed3511f1a8dcef57e83007c0147ae5047583d7056170937602052604090205460ff1615610c38575b7f3c11d16cbaffd01df69ce1c404f6340ee057498f5f00246190ea54220576a8486000526006602052167f42d20fd6db25ea5a8e33f43724ad72f2ebd9488257fa78c86176b8175fc383fa611f00565b50831660008181527f15a28d26fa1bf736cf7edc9922607171ccb09c3c73b808e7772a3013e068a522602052604090205460ff1615610dd3575b7f9f2df0fed2c77648de5860a4cc508cd0818c85b8b8a1ab4ceeef8d981c8956a660005260066020527f3195c024b2ddd6d9b8f6c836aa52f67fe69376c8903d009b80229b3ce4425f51611f00565b5080821660009081527f15a28d26fa1bf736cf7edc9922607171ccb09c3c73b808e7772a3013e068a522602052604090205460ff1615610d4a575b7f9f2df0fed2c77648de5860a4cc508cd0818c85b8b8a1ab4ceeef8d981c8956a66000526006602052167f3195c024b2ddd6d9b8f6c836aa52f67fe69376c8903d009b80229b3ce4425f51611f00565b5080821660009081527f15a28d26fa1bf736cf7edc9922607171ccb09c3c73b808e7772a3013e068a522602052604090205460ff1615610cc1577f9f2df0fed2c77648de5860a4cc508cd0818c85b8b8a1ab4ceeef8d981c8956a66000526006602052610a0a8183167f3195c024b2ddd6d9b8f6c836aa52f67fe69376c8903d009b80229b3ce4425f51611f00565b80821660008181527f847f481f687befb06ed3511f1a8dcef57e83007c0147ae5047583d705617093760205260408120805460ff191660011790553391907f3c11d16cbaffd01df69ce1c404f6340ee057498f5f00246190ea54220576a848907f2f8788117e7eff1d82e926ec794901d17c78024a50270940304540a733656f0d9080a4610a45565b80821660008181527f15a28d26fa1bf736cf7edc9922607171ccb09c3c73b808e7772a3013e068a52260205260408120805460ff191660011790553391907f9f2df0fed2c77648de5860a4cc508cd0818c85b8b8a1ab4ceeef8d981c8956a6907f2f8788117e7eff1d82e926ec794901d17c78024a50270940304540a733656f0d9080a46109b5565b80821660008181527f15a28d26fa1bf736cf7edc9922607171ccb09c3c73b808e7772a3013e068a52260205260408120805460ff191660011790553391907f9f2df0fed2c77648de5860a4cc508cd0818c85b8b8a1ab4ceeef8d981c8956a6907f2f8788117e7eff1d82e926ec794901d17c78024a50270940304540a733656f0d9080a4610b59565b60008181527f15a28d26fa1bf736cf7edc9922607171ccb09c3c73b808e7772a3013e068a52260205260408120805460ff19166001179055339082907f9f2df0fed2c77648de5860a4cc508cd0818c85b8b8a1ab4ceeef8d981c8956a6907f2f8788117e7eff1d82e926ec794901d17c78024a50270940304540a733656f0d9080a4610acf565b60649060206040519162461bcd60e51b8352820152600b60248201527f494e495449414c495a45440000000000000000000000000000000000000000006044820152fd5b60649060206040519162461bcd60e51b8352820152600f60248201527f57524f4e475f41444452455353455300000000000000000000000000000000006044820152fd5b506001600160a01b038616151561092e565b506001600160a01b0387161515610928565b506001600160a01b0385161515610922565b506001600160a01b038416151561091c565b506001600160a01b0383161515610916565b610f453361208b565b906000604051610f5481611ae9565b60428152602081019160603684378151156110a25760308353815160019081101561108d57607860218401536041905b808211611020575050610fdc576105c6936105d5926048926040519687937f416363657373436f6e74726f6c3a206163636f756e742000000000000000000060208601526105918151809260206037890191016118ca565b60648360206040519162461bcd60e51b8352820152602060248201527f537472696e67733a20686578206c656e67746820696e73756666696369656e746044820152fd5b9091600f81166010811015611078576f181899199a1a9b1b9c1cb0b131b232b360811b901a61104f848661207a565b53851c918015611063576000190190610f84565b601186634e487b7160e01b6000525260246000fd5b603287634e487b7160e01b6000525260246000fd5b603285634e487b7160e01b6000525260246000fd5b603284634e487b7160e01b6000525260246000fd5b3461019c57602036600319011261019c576001600160a01b036110d8611919565b1660005260006020526020604060002054604051908152f35b3461019c57604036600319011261019c5761110a611919565b3360009081527f15a28d26fa1bf736cf7edc9922607171ccb09c3c73b808e7772a3013e068a5226020908152604090912054602493919284359290917f9f2df0fed2c77648de5860a4cc508cd0818c85b8b8a1ab4ceeef8d981c8956a69060ff161561128557506002549161117f8484611bc7565b7f000000000000000000000000000000000000000000000000000000000000000010611243576001600160a01b0316948515611201578560007fddf252ad1be2c89b69c2b068fc378daa952ba7f163c4a11628f55a4df523b3ef87876111e58189611bc7565b60025584845283825260408420818154019055604051908152a3005b90601f606492866040519362461bcd60e51b85528401528201527f45524332303a206d696e7420746f20746865207a65726f2061646472657373006044820152fd5b606482601988886040519362461bcd60e51b85528401528201527f45524332304361707065643a20636170206578636565646564000000000000006044820152fd5b9084866112913361208b565b6040519161129e83611ae9565b604283528383019560603688378351156106b25760308753835160019081101561069e57607860218601536041905b8082116113255750506105f2575091610591946048926105c66105d59560405198857f416363657373436f6e74726f6c3a206163636f756e74200000000000000000008b9788015282519283916037890191016118ca565b9091600f8116601081101561068a576f181899199a1a9b1b9c1cb0b131b232b360811b901a611354848861207a565b53871c9180156106765760001901906112cd565b3461019c57604036600319011261019c5761026c611384611919565b33600052600160205260406000206001600160a01b0382166000526020526113b3602435604060002054611bc7565b9033611d9e565b3461019c57604036600319011261019c576113d361192f565b336001600160a01b038216036113ed576101df9135611b3d565b60848260206040519162461bcd60e51b8352820152602f60248201527f416363657373436f6e74726f6c3a2063616e206f6e6c792072656e6f756e636560448201527f20726f6c657320666f722073656c6600000000000000000000000000000000006064820152fd5b3461019c57600036600319011261019c5760206040517f00000000000000000000000000000000000000000000000000000000000000008152f35b3461019c57600036600319011261019c57602060405160128152f35b3461019c57604036600319011261019c576101df903560066114ce61192f565b9180600052602090600582526114eb600160406000200154611945565b80600052600582526001600160a01b03604060002094169384600052825260ff6040600020541615611526575b600052526040600020611f00565b806000526005825260406000208460005282526040600020600160ff198254161790553384827f2f8788117e7eff1d82e926ec794901d17c78024a50270940304540a733656f0d600080a4611518565b3461019c57600036600319011261019c5760206040517f3c11d16cbaffd01df69ce1c404f6340ee057498f5f00246190ea54220576a8488152f35b3461019c57602036600319011261019c573560005260056020526020600160406000200154604051908152f35b3461019c57606036600319011261019c576115f7611919565b6115ff61192f565b604435916001600160a01b038116600052600160205260406000203360005260205260406000205493600019850361163d575b5061026c9350611bea565b83851061165b57506116558361026c95033383611d9e565b84611632565b60649060206040519162461bcd60e51b8352820152601d60248201527f45524332303a20696e73756666696369656e7420616c6c6f77616e63650000006044820152fd5b3461019c57600036600319011261019c576020600254604051908152f35b3461019c57600036600319011261019c57602060ff600754166040519015158152f35b3461019c57604036600319011261019c5761026c6116fc611919565b6024359033611d9e565b3461019c57600036600319011261019c57604051600091600354600181811c9181811680156117f0575b60209485851082146117db57508386529081156117bb5750600114611760575b61072c8461072081880382611b1b565b600360009081529294507fc2575a0e9e593c00f959f8c92f12db2869c3395a3b0502d05e2516446f71f85b5b8284106117a8575050508161072c936107209282010193611750565b805485850187015292850192810161178c565b60ff1916858501525050151560051b82010191506107208161072c611750565b602290634e487b7160e01b6000525260246000fd5b92607f1692611730565b903461019c57602036600319011261019c5735907fffffffff00000000000000000000000000000000000000000000000000000000821680920361019c57817f5a05180f000000000000000000000000000000000000000000000000000000006020931490811561186d575b5015158152f35b7f7965db0b000000000000000000000000000000000000000000000000000000008114915081156118a0575b5083611866565b7f01ffc9a70000000000000000000000000000000000000000000000000000000091501483611899565b60005b8381106118dd5750506000910152565b81810151838201526020016118cd565b6040916020825261190d81518092816020860152602086860191016118ca565b601f01601f1916010190565b600435906001600160a01b038216820361019c57565b602435906001600160a01b038216820361019c57565b600081815260209060058252604092838220338352835260ff84832054161561196e5750505050565b6119773361208b565b84519161198383611ae9565b60428352848301936060368637835115611ad55760308553835190600191821015611ad55790607860218601536041915b818311611a6757505050611a2557610591938593611a0f936105c66048946105ee995198857f416363657373436f6e74726f6c3a206163636f756e74200000000000000000008b9788015282519283916037890191016118ca565b5191829162461bcd60e51b8352600483016118ed565b60648486519062461bcd60e51b825280600483015260248201527f537472696e67733a20686578206c656e67746820696e73756666696369656e746044820152fd5b909192600f81166010811015611ac1576f181899199a1a9b1b9c1cb0b131b232b360811b901a611a97858861207a565b5360041c928015611aad576000190191906119b4565b602482634e487b7160e01b81526011600452fd5b602483634e487b7160e01b81526032600452fd5b80634e487b7160e01b602492526032600452fd5b6080810190811067ffffffffffffffff821117611b0557604052565b634e487b7160e01b600052604160045260246000fd5b90601f8019910116810190811067ffffffffffffffff821117611b0557604052565b906040611b7c9260009080825260056020526001600160a01b0383832094169384835260205260ff8383205416611b7f575b8152600660205220611f8a565b50565b808252600560205282822084835260205282822060ff1981541690553384827ff6391f5c32d9c69d2a47ea670b442974b53935d1edc7fd64eb21e047a839171b8580a4611b6f565b91908201809211611bd457565b634e487b7160e01b600052601160045260246000fd5b6001600160a01b03809116918215611d345716918215611cca57600082815280602052604081205491808310611c6057604082827fddf252ad1be2c89b69c2b068fc378daa952ba7f163c4a11628f55a4df523b3ef958760209652828652038282205586815220818154019055604051908152a3565b608460405162461bcd60e51b815260206004820152602660248201527f45524332303a207472616e7366657220616d6f756e742065786365656473206260448201527f616c616e636500000000000000000000000000000000000000000000000000006064820152fd5b608460405162461bcd60e51b815260206004820152602360248201527f45524332303a207472616e7366657220746f20746865207a65726f206164647260448201527f65737300000000000000000000000000000000000000000000000000000000006064820152fd5b608460405162461bcd60e51b815260206004820152602560248201527f45524332303a207472616e736665722066726f6d20746865207a65726f20616460448201527f64726573730000000000000000000000000000000000000000000000000000006064820152fd5b6001600160a01b03809116918215611e695716918215611dff5760207f8c5be1e5ebec7d5bd14f71427d1e84f3dd0314c0f7b2291e5b200ac8c7c3b925918360005260018252604060002085600052825280604060002055604051908152a3565b608460405162461bcd60e51b815260206004820152602260248201527f45524332303a20617070726f766520746f20746865207a65726f20616464726560448201527f73730000000000000000000000000000000000000000000000000000000000006064820152fd5b608460405162461bcd60e51b8152602060048201526024808201527f45524332303a20617070726f76652066726f6d20746865207a65726f2061646460448201527f72657373000000000000000000000000000000000000000000000000000000006064820152fd5b8054821015611eea5760005260206000200190600090565b634e487b7160e01b600052603260045260246000fd5b91906001830160009082825280602052604082205415600014611f845784549468010000000000000000861015611f705783611f60611f49886001604098999a01855584611ed2565b819391549060031b91821b91600019901b19161790565b9055549382526020522055600190565b602483634e487b7160e01b81526041600452fd5b50925050565b90600182019060009281845282602052604084205490811515600014612073576000199180830181811161205f5782549084820191821161204b57808203612016575b5050508054801561200257820191611fe58383611ed2565b909182549160031b1b191690555582526020526040812055600190565b602486634e487b7160e01b81526031600452fd5b612036612026611f499386611ed2565b90549060031b1c92839286611ed2565b90558652846020526040862055388080611fcd565b602488634e487b7160e01b81526011600452fd5b602487634e487b7160e01b81526011600452fd5b5050505090565b908151811015611eea570160200190565b604051906060820182811067ffffffffffffffff821117611b0557604052602a8252602082016040368237825115611eea57603090538151600190811015611eea57607860218401536029905b80821161212c5750506120e85790565b606460405162461bcd60e51b815260206004820152602060248201527f537472696e67733a20686578206c656e67746820696e73756666696369656e746044820152fd5b9091600f81166010811015612185576f181899199a1a9b1b9c1cb0b131b232b360811b901a61215b848661207a565b5360041c9180156121705760001901906120d8565b60246000634e487b7160e01b81526011600452fd5b60246000634e487b7160e01b81526032600452fdfea26469706673582212208d8c8a21ee181c6fd430e961d24cec1a9b8230433c98543f55c13fd070bab6ff64736f6c63430008140033",
  "libraries": {},
  "devdoc": {
    "events": {
      "Approval(address,address,uint256)": {
        "details": "Emitted when the allowance of a `spender` for an `owner` is set by a call to {approve}. `value` is the new allowance."
      },
      "RoleAdminChanged(bytes32,bytes32,bytes32)": {
        "details": "Emitted when `newAdminRole` is set as ``role``'s admin role, replacing `previousAdminRole` `DEFAULT_ADMIN_ROLE` is the starting admin for all roles, despite {RoleAdminChanged} not being emitted signaling this. _Available since v3.1._"
      },
      "RoleGranted(bytes32,address,address)": {
        "details": "Emitted when `account` is granted `role`. `sender` is the account that originated the contract call, an admin role bearer except when using {AccessControl-_setupRole}."
      },
      "RoleRevoked(bytes32,address,address)": {
        "details": "Emitted when `account` is revoked `role`. `sender` is the account that originated the contract call:   - if using `revokeRole`, it is the admin role bearer   - if using `renounceRole`, it is the role bearer (i.e. `account`)"
      },
      "Transfer(address,address,uint256)": {
        "details": "Emitted when `value` tokens are moved from one account (`from`) to another (`to`). Note that `value` may be zero."
      }
    },
    "kind": "dev",
    "methods": {
      "allowance(address,address)": {
        "details": "See {IERC20-allowance}."
      },
      "approve(address,uint256)": {
        "details": "See {IERC20-approve}. NOTE: If `amount` is the maximum `uint256`, the allowance is not updated on `transferFrom`. This is semantically equivalent to an infinite approval. Requirements: - `spender` cannot be the zero address."
      },
      "balanceOf(address)": {
        "details": "See {IERC20-balanceOf}."
      },
      "cap()": {
        "details": "Returns the cap on the token's total supply."
      },
      "decimals()": {
        "details": "Returns the number of decimals used to get its user representation. For example, if `decimals` equals `2`, a balance of `505` tokens should be displayed to a user as `5.05` (`505 / 10 ** 2`). Tokens usually opt for a value of 18, imitating the relationship between Ether and Wei. This is the value {ERC20} uses, unless this function is overridden; NOTE: This information is only used for _display_ purposes: it in no way affects any of the arithmetic of the contract, including {IERC20-balanceOf} and {IERC20-transfer}."
      },
      "decreaseAllowance(address,uint256)": {
        "details": "Atomically decreases the allowance granted to `spender` by the caller. This is an alternative to {approve} that can be used as a mitigation for problems described in {IERC20-approve}. Emits an {Approval} event indicating the updated allowance. Requirements: - `spender` cannot be the zero address. - `spender` must have allowance for the caller of at least `subtractedValue`."
      },
      "getRoleAdmin(bytes32)": {
        "details": "Returns the admin role that controls `role`. See {grantRole} and {revokeRole}. To change a role's admin, use {_setRoleAdmin}."
      },
      "getRoleMember(bytes32,uint256)": {
        "details": "Returns one of the accounts that have `role`. `index` must be a value between 0 and {getRoleMemberCount}, non-inclusive. Role bearers are not sorted in any particular way, and their ordering may change at any point. WARNING: When using {getRoleMember} and {getRoleMemberCount}, make sure you perform all queries on the same block. See the following https://forum.openzeppelin.com/t/iterating-over-elements-on-enumerableset-in-openzeppelin-contracts/2296[forum post] for more information."
      },
      "getRoleMemberCount(bytes32)": {
        "details": "Returns the number of accounts that have `role`. Can be used together with {getRoleMember} to enumerate all bearers of a role."
      },
      "grantRole(bytes32,address)": {
        "details": "Grants `role` to `account`. If `account` had not been already granted `role`, emits a {RoleGranted} event. Requirements: - the caller must have ``role``'s admin role. May emit a {RoleGranted} event."
      },
      "hasRole(bytes32,address)": {
        "details": "Returns `true` if `account` has been granted `role`."
      },
      "increaseAllowance(address,uint256)": {
        "details": "Atomically increases the allowance granted to `spender` by the caller. This is an alternative to {approve} that can be used as a mitigation for problems described in {IERC20-approve}. Emits an {Approval} event indicating the updated allowance. Requirements: - `spender` cannot be the zero address."
      },
      "name()": {
        "details": "Returns the name of the token."
      },
      "renounceRole(bytes32,address)": {
        "details": "Revokes `role` from the calling account. Roles are often managed via {grantRole} and {revokeRole}: this function's purpose is to provide a mechanism for accounts to lose their privileges if they are compromised (such as when a trusted device is misplaced). If the calling account had been revoked `role`, emits a {RoleRevoked} event. Requirements: - the caller must be `account`. May emit a {RoleRevoked} event."
      },
      "revokeRole(bytes32,address)": {
        "details": "Revokes `role` from `account`. If `account` had been granted `role`, emits a {RoleRevoked} event. Requirements: - the caller must have ``role``'s admin role. May emit a {RoleRevoked} event."
      },
      "supportsInterface(bytes4)": {
        "details": "See {IERC165-supportsInterface}."
      },
      "symbol()": {
        "details": "Returns the symbol of the token, usually a shorter version of the name."
      },
      "totalSupply()": {
        "details": "See {IERC20-totalSupply}."
      },
      "transfer(address,uint256)": {
        "details": "See {IERC20-transfer}. Requirements: - `to` cannot be the zero address. - the caller must have a balance of at least `amount`."
      },
      "transferFrom(address,address,uint256)": {
        "details": "See {IERC20-transferFrom}. Emits an {Approval} event indicating the updated allowance. This is not required by the EIP. See the note at the beginning of {ERC20}. NOTE: Does not update the allowance if the current allowance is the maximum `uint256`. Requirements: - `from` and `to` cannot be the zero address. - `from` must have a balance of at least `amount`. - the caller must have allowance for ``from``'s tokens of at least `amount`."
      }
    },
    "version": 1
  },
  "userdoc": {
    "kind": "user",
    "methods": {},
    "version": 1
  },
  "storageLayout": {
    "storage": [
      {
        "astId": 456,
        "contract": "contracts/contracts/GNS.sol:GainsNetworkToken",
        "label": "_balances",
        "offset": 0,
        "slot": "0",
        "type": "t_mapping(t_address,t_uint256)"
      },
      {
        "astId": 462,
        "contract": "contracts/contracts/GNS.sol:GainsNetworkToken",
        "label": "_allowances",
        "offset": 0,
        "slot": "1",
        "type": "t_mapping(t_address,t_mapping(t_address,t_uint256))"
      },
      {
        "astId": 464,
        "contract": "contracts/contracts/GNS.sol:GainsNetworkToken",
        "label": "_totalSupply",
        "offset": 0,
        "slot": "2",
        "type": "t_uint256"
      },
      {
        "astId": 466,
        "contract": "contracts/contracts/GNS.sol:GainsNetworkToken",
        "label": "_name",
        "offset": 0,
        "slot": "3",
        "type": "t_string_storage"
      },
      {
        "astId": 468,
        "contract": "contracts/contracts/GNS.sol:GainsNetworkToken",
        "label": "_symbol",
        "offset": 0,
        "slot": "4",
        "type": "t_string_storage"
      },
      {
        "astId": 24,
        "contract": "contracts/contracts/GNS.sol:GainsNetworkToken",
        "label": "_roles",
        "offset": 0,
        "slot": "5",
        "type": "t_mapping(t_bytes32,t_struct(RoleData)19_storage)"
      },
      {
        "astId": 334,
        "contract": "contracts/contracts/GNS.sol:GainsNetworkToken",
        "label": "_roleMembers",
        "offset": 0,
        "slot": "6",
        "type": "t_mapping(t_bytes32,t_struct(AddressSet)1853_storage)"
      },
      {
        "astId": 1113,
        "contract": "contracts/contracts/GNS.sol:GainsNetworkToken",
        "label": "initialized",
        "offset": 0,
        "slot": "7",
        "type": "t_bool"
      }
    ],
    "types": {
      "t_address": {
        "encoding": "inplace",
        "label": "address",
        "numberOfBytes": "20"
      },
      "t_array(t_bytes32)dyn_storage": {
        "base": "t_bytes32",
        "encoding": "dynamic_array",
        "label": "bytes32[]",
        "numberOfBytes": "32"
      },
      "t_bool": {
        "encoding": "inplace",
        "label": "bool",
        "numberOfBytes": "1"
      },
      "t_bytes32": {
        "encoding": "inplace",
        "label": "bytes32",
        "numberOfBytes": "32"
      },
      "t_mapping(t_address,t_bool)": {
        "encoding": "mapping",
        "key": "t_address",
        "label": "mapping(address => bool)",
        "numberOfBytes": "32",
        "value": "t_bool"
      },
      "t_mapping(t_address,t_mapping(t_address,t_uint256))": {
        "encoding": "mapping",
        "key": "t_address",
        "label": "mapping(address => mapping(address => uint256))",
        "numberOfBytes": "32",
        "value": "t_mapping(t_address,t_uint256)"
      },
      "t_mapping(t_address,t_uint256)": {
        "encoding": "mapping",
        "key": "t_address",
        "label": "mapping(address => uint256)",
        "numberOfBytes": "32",
        "value": "t_uint256"
      },
      "t_mapping(t_bytes32,t_struct(AddressSet)1853_storage)": {
        "encoding": "mapping",
        "key": "t_bytes32",
        "label": "mapping(bytes32 => struct EnumerableSet.AddressSet)",
        "numberOfBytes": "32",
        "value": "t_struct(AddressSet)1853_storage"
      },
      "t_mapping(t_bytes32,t_struct(RoleData)19_storage)": {
        "encoding": "mapping",
        "key": "t_bytes32",
        "label": "mapping(bytes32 => struct AccessControl.RoleData)",
        "numberOfBytes": "32",
        "value": "t_struct(RoleData)19_storage"
      },
      "t_mapping(t_bytes32,t_uint256)": {
        "encoding": "mapping",
        "key": "t_bytes32",
        "label": "mapping(bytes32 => uint256)",
        "numberOfBytes": "32",
        "value": "t_uint256"
      },
      "t_string_storage": {
        "encoding": "bytes",
        "label": "string",
        "numberOfBytes": "32"
      },
      "t_struct(AddressSet)1853_storage": {
        "encoding": "inplace",
        "label": "struct EnumerableSet.AddressSet",
        "members": [
          {
            "astId": 1852,
            "contract": "contracts/contracts/GNS.sol:GainsNetworkToken",
            "label": "_inner",
            "offset": 0,
            "slot": "0",
            "type": "t_struct(Set)1538_storage"
          }
        ],
        "numberOfBytes": "64"
      },
      "t_struct(RoleData)19_storage": {
        "encoding": "inplace",
        "label": "struct AccessControl.RoleData",
        "members": [
          {
            "astId": 16,
            "contract": "contracts/contracts/GNS.sol:GainsNetworkToken",
            "label": "members",
            "offset": 0,
            "slot": "0",
            "type": "t_mapping(t_address,t_bool)"
          },
          {
            "astId": 18,
            "contract": "contracts/contracts/GNS.sol:GainsNetworkToken",
            "label": "adminRole",
            "offset": 0,
            "slot": "1",
            "type": "t_bytes32"
          }
        ],
        "numberOfBytes": "64"
      },
      "t_struct(Set)1538_storage": {
        "encoding": "inplace",
        "label": "struct EnumerableSet.Set",
        "members": [
          {
            "astId": 1533,
            "contract": "contracts/contracts/GNS.sol:GainsNetworkToken",
            "label": "_values",
            "offset": 0,
            "slot": "0",
            "type": "t_array(t_bytes32)dyn_storage"
          },
          {
            "astId": 1537,
            "contract": "contracts/contracts/GNS.sol:GainsNetworkToken",
            "label": "_indexes",
            "offset": 0,
            "slot": "1",
            "type": "t_mapping(t_bytes32,t_uint256)"
          }
        ],
        "numberOfBytes": "64"
      },
      "t_uint256": {
        "encoding": "inplace",
        "label": "uint256",
        "numberOfBytes": "32"
      }
    }
  }
}