{
  "address": "0x8a28637be34be5c3BBdF893be8B8A387C2843cbc",
  "abi": [
    {
      "inputs": [],
      "stateMutability": "nonpayable",
      "type": "constructor"
    },
    {
      "anonymous": false,
      "inputs": [
        {
          "indexed": false,
          "internalType": "string",
          "name": "name",
          "type": "string"
        },
        {
          "indexed": false,
          "internalType": "address",
          "name": "a",
          "type": "address"
        }
      ],
      "name": "AddressUpdated",
      "type": "event"
    },
    {
      "anonymous": false,
      "inputs": [
        {
          "indexed": false,
          "internalType": "contract NftInterfaceV5[5]",
          "name": "nfts",
          "type": "address[5]"
        }
      ],
      "name": "NftsUpdated",
      "type": "event"
    },
    {
      "anonymous": false,
      "inputs": [
        {
          "indexed": false,
          "internalType": "string",
          "name": "name",
          "type": "string"
        },
        {
          "indexed": false,
          "internalType": "uint256",
          "name": "value",
          "type": "uint256"
        }
      ],
      "name": "NumberUpdated",
      "type": "event"
    },
    {
      "anonymous": false,
      "inputs": [
        {
          "indexed": false,
          "internalType": "string",
          "name": "name",
          "type": "string"
        },
        {
          "indexed": false,
          "internalType": "uint256",
          "name": "pairIndex",
          "type": "uint256"
        },
        {
          "indexed": false,
          "internalType": "uint256",
          "name": "value",
          "type": "uint256"
        }
      ],
      "name": "NumberUpdatedPair",
      "type": "event"
    },
    {
      "anonymous": false,
      "inputs": [
        {
          "indexed": false,
          "internalType": "uint256[5]",
          "name": "",
          "type": "uint256[5]"
        }
      ],
      "name": "SpreadReductionsUpdated",
      "type": "event"
    },
    {
      "anonymous": false,
      "inputs": [
        {
          "indexed": false,
          "internalType": "address",
          "name": "a",
          "type": "address"
        }
      ],
      "name": "SupportedTokenAdded",
      "type": "event"
    },
    {
      "anonymous": false,
      "inputs": [
        {
          "indexed": false,
          "internalType": "address",
          "name": "a",
          "type": "address"
        }
      ],
      "name": "TradingContractAdded",
      "type": "event"
    },
    {
      "anonymous": false,
      "inputs": [
        {
          "indexed": false,
          "internalType": "address",
          "name": "a",
          "type": "address"
        }
      ],
      "name": "TradingContractRemoved",
      "type": "event"
    },
    {
      "inputs": [],
      "name": "MINTER_ROLE",
      "outputs": [
        {
          "internalType": "bytes32",
          "name": "",
          "type": "bytes32"
        }
      ],
      "stateMutability": "view",
      "type": "function"
    },
    {
      "inputs": [],
      "name": "PRECISION",
      "outputs": [
        {
          "internalType": "uint256",
          "name": "",
          "type": "uint256"
        }
      ],
      "stateMutability": "view",
      "type": "function"
    },
    {
      "inputs": [
        {
          "internalType": "address",
          "name": "_token",
          "type": "address"
        }
      ],
      "name": "addSupportedToken",
      "outputs": [],
      "stateMutability": "nonpayable",
      "type": "function"
    },
    {
      "inputs": [
        {
          "internalType": "address",
          "name": "_trading",
          "type": "address"
        }
      ],
      "name": "addTradingContract",
      "outputs": [],
      "stateMutability": "nonpayable",
      "type": "function"
    },
    {
      "inputs": [],
      "name": "callbacks",
      "outputs": [
        {
          "internalType": "contract PausableInterfaceV5",
          "name": "",
          "type": "address"
        }
      ],
      "stateMutability": "view",
      "type": "function"
    },
    {
      "inputs": [],
      "name": "claimFees",
      "outputs": [],
      "stateMutability": "nonpayable",
      "type": "function"
    },
    {
      "inputs": [],
      "name": "dai",
      "outputs": [
        {
          "internalType": "contract TokenInterfaceV5",
          "name": "",
          "type": "address"
        }
      ],
      "stateMutability": "view",
      "type": "function"
    },
    {
      "inputs": [],
      "name": "defaultLeverageUnlocked",
      "outputs": [
        {
          "internalType": "uint256",
          "name": "",
          "type": "uint256"
        }
      ],
      "stateMutability": "view",
      "type": "function"
    },
    {
      "inputs": [],
      "name": "dev",
      "outputs": [
        {
          "internalType": "address",
          "name": "",
          "type": "address"
        }
      ],
      "stateMutability": "view",
      "type": "function"
    },
    {
      "inputs": [],
      "name": "devFeesDai",
      "outputs": [
        {
          "internalType": "uint256",
          "name": "",
          "type": "uint256"
        }
      ],
      "stateMutability": "view",
      "type": "function"
    },
    {
      "inputs": [],
      "name": "devFeesToken",
      "outputs": [
        {
          "internalType": "uint256",
          "name": "",
          "type": "uint256"
        }
      ],
      "stateMutability": "view",
      "type": "function"
    },
    {
      "inputs": [
        {
          "internalType": "uint256",
          "name": "_amount",
          "type": "uint256"
        }
      ],
      "name": "distributeLpRewards",
      "outputs": [],
      "stateMutability": "nonpayable",
      "type": "function"
    },
    {
      "inputs": [
        {
          "internalType": "address",
          "name": "trader",
          "type": "address"
        },
        {
          "internalType": "uint256",
          "name": "pairIndex",
          "type": "uint256"
        }
      ],
      "name": "firstEmptyOpenLimitIndex",
      "outputs": [
        {
          "internalType": "uint256",
          "name": "index",
          "type": "uint256"
        }
      ],
      "stateMutability": "view",
      "type": "function"
    },
    {
      "inputs": [
        {
          "internalType": "address",
          "name": "trader",
          "type": "address"
        },
        {
          "internalType": "uint256",
          "name": "pairIndex",
          "type": "uint256"
        }
      ],
      "name": "firstEmptyTradeIndex",
      "outputs": [
        {
          "internalType": "uint256",
          "name": "index",
          "type": "uint256"
        }
      ],
      "stateMutability": "view",
      "type": "function"
    },
    {
      "inputs": [
        {
          "internalType": "address",
          "name": "_trader",
          "type": "address"
        }
      ],
      "name": "getLeverageUnlocked",
      "outputs": [
        {
          "internalType": "uint256",
          "name": "",
          "type": "uint256"
        }
      ],
      "stateMutability": "view",
      "type": "function"
    },
    {
      "inputs": [
        {
          "internalType": "address",
          "name": "_trader",
          "type": "address"
        },
        {
          "internalType": "uint256",
          "name": "_pairIndex",
          "type": "uint256"
        },
        {
          "internalType": "uint256",
          "name": "_index",
          "type": "uint256"
        }
      ],
      "name": "getOpenLimitOrder",
      "outputs": [
        {
          "components": [
            {
              "internalType": "address",
              "name": "trader",
              "type": "address"
            },
            {
              "internalType": "uint256",
              "name": "pairIndex",
              "type": "uint256"
            },
            {
              "internalType": "uint256",
              "name": "index",
              "type": "uint256"
            },
            {
              "internalType": "uint256",
              "name": "positionSize",
              "type": "uint256"
            },
            {
              "internalType": "uint256",
              "name": "spreadReductionP",
              "type": "uint256"
            },
            {
              "internalType": "bool",
              "name": "buy",
              "type": "bool"
            },
            {
              "internalType": "uint256",
              "name": "leverage",
              "type": "uint256"
            },
            {
              "internalType": "uint256",
              "name": "tp",
              "type": "uint256"
            },
            {
              "internalType": "uint256",
              "name": "sl",
              "type": "uint256"
            },
            {
              "internalType": "uint256",
              "name": "minPrice",
              "type": "uint256"
            },
            {
              "internalType": "uint256",
              "name": "maxPrice",
              "type": "uint256"
            },
            {
              "internalType": "uint256",
              "name": "block",
              "type": "uint256"
            },
            {
              "internalType": "uint256",
              "name": "tokenId",
              "type": "uint256"
            }
          ],
          "internalType": "struct GFarmTradingStorageV5.OpenLimitOrder",
          "name": "",
          "type": "tuple"
        }
      ],
      "stateMutability": "view",
      "type": "function"
    },
    {
      "inputs": [],
      "name": "getOpenLimitOrders",
      "outputs": [
        {
          "components": [
            {
              "internalType": "address",
              "name": "trader",
              "type": "address"
            },
            {
              "internalType": "uint256",
              "name": "pairIndex",
              "type": "uint256"
            },
            {
              "internalType": "uint256",
              "name": "index",
              "type": "uint256"
            },
            {
              "internalType": "uint256",
              "name": "positionSize",
              "type": "uint256"
            },
            {
              "internalType": "uint256",
              "name": "spreadReductionP",
              "type": "uint256"
            },
            {
              "internalType": "bool",
              "name": "buy",
              "type": "bool"
            },
            {
              "internalType": "uint256",
              "name": "leverage",
              "type": "uint256"
            },
            {
              "internalType": "uint256",
              "name": "tp",
              "type": "uint256"
            },
            {
              "internalType": "uint256",
              "name": "sl",
              "type": "uint256"
            },
            {
              "internalType": "uint256",
              "name": "minPrice",
              "type": "uint256"
            },
            {
              "internalType": "uint256",
              "name": "maxPrice",
              "type": "uint256"
            },
            {
              "internalType": "uint256",
              "name": "block",
              "type": "uint256"
            },
            {
              "internalType": "uint256",
              "name": "tokenId",
              "type": "uint256"
            }
          ],
          "internalType": "struct GFarmTradingStorageV5.OpenLimitOrder[]",
          "name": "",
          "type": "tuple[]"
        }
      ],
      "stateMutability": "view",
      "type": "function"
    },
    {
      "inputs": [
        {
          "internalType": "address",
          "name": "_trader",
          "type": "address"
        }
      ],
      "name": "getPendingOrderIds",
      "outputs": [
        {
          "internalType": "uint256[]",
          "name": "",
          "type": "uint256[]"
        }
      ],
      "stateMutability": "view",
      "type": "function"
    },
    {
      "inputs": [
        {
          "internalType": "address",
          "name": "_trader",
          "type": "address"
        }
      ],
      "name": "getReferral",
      "outputs": [
        {
          "internalType": "address",
          "name": "",
          "type": "address"
        }
      ],
      "stateMutability": "view",
      "type": "function"
    },
    {
      "inputs": [],
      "name": "getSpreadReductionsArray",
      "outputs": [
        {
          "internalType": "uint256[5]",
          "name": "",
          "type": "uint256[5]"
        }
      ],
      "stateMutability": "view",
      "type": "function"
    },
    {
      "inputs": [],
      "name": "getSupportedTokens",
      "outputs": [
        {
          "internalType": "address[]",
          "name": "",
          "type": "address[]"
        }
      ],
      "stateMutability": "view",
      "type": "function"
    },
    {
      "inputs": [],
      "name": "gov",
      "outputs": [
        {
          "internalType": "address",
          "name": "",
          "type": "address"
        }
      ],
      "stateMutability": "view",
      "type": "function"
    },
    {
      "inputs": [],
      "name": "govFeesDai",
      "outputs": [
        {
          "internalType": "uint256",
          "name": "",
          "type": "uint256"
        }
      ],
      "stateMutability": "view",
      "type": "function"
    },
    {
      "inputs": [],
      "name": "govFeesToken",
      "outputs": [
        {
          "internalType": "uint256",
          "name": "",
          "type": "uint256"
        }
      ],
      "stateMutability": "view",
      "type": "function"
    },
    {
      "inputs": [
        {
          "internalType": "uint256",
          "name": "_pairIndex",
          "type": "uint256"
        },
        {
          "internalType": "uint256",
          "name": "_leveragedPositionSize",
          "type": "uint256"
        },
        {
          "internalType": "bool",
          "name": "_dai",
          "type": "bool"
        },
        {
          "internalType": "bool",
          "name": "_fullFee",
          "type": "bool"
        }
      ],
      "name": "handleDevGovFees",
      "outputs": [
        {
          "internalType": "uint256",
          "name": "fee",
          "type": "uint256"
        }
      ],
      "stateMutability": "nonpayable",
      "type": "function"
    },
    {
      "inputs": [
        {
          "internalType": "address",
          "name": "_a",
          "type": "address"
        },
        {
          "internalType": "uint256",
          "name": "_amount",
          "type": "uint256"
        },
        {
          "internalType": "bool",
          "name": "_mint",
          "type": "bool"
        }
      ],
      "name": "handleTokens",
      "outputs": [],
      "stateMutability": "nonpayable",
      "type": "function"
    },
    {
      "inputs": [
        {
          "internalType": "address",
          "name": "trader",
          "type": "address"
        },
        {
          "internalType": "uint256",
          "name": "pairIndex",
          "type": "uint256"
        },
        {
          "internalType": "uint256",
          "name": "index",
          "type": "uint256"
        }
      ],
      "name": "hasOpenLimitOrder",
      "outputs": [
        {
          "internalType": "bool",
          "name": "",
          "type": "bool"
        }
      ],
      "stateMutability": "view",
      "type": "function"
    },
    {
      "inputs": [
        {
          "internalType": "uint256",
          "name": "_nftId",
          "type": "uint256"
        },
        {
          "internalType": "uint256",
          "name": "_amount",
          "type": "uint256"
        }
      ],
      "name": "increaseNftRewards",
      "outputs": [],
      "stateMutability": "nonpayable",
      "type": "function"
    },
    {
      "inputs": [
        {
          "internalType": "address",
          "name": "_referral",
          "type": "address"
        },
        {
          "internalType": "uint256",
          "name": "_amount",
          "type": "uint256"
        }
      ],
      "name": "increaseReferralRewards",
      "outputs": [],
      "stateMutability": "nonpayable",
      "type": "function"
    },
    {
      "inputs": [
        {
          "internalType": "address",
          "name": "",
          "type": "address"
        }
      ],
      "name": "isTradingContract",
      "outputs": [
        {
          "internalType": "bool",
          "name": "",
          "type": "bool"
        }
      ],
      "stateMutability": "view",
      "type": "function"
    },
    {
      "inputs": [],
      "name": "linkErc677",
      "outputs": [
        {
          "internalType": "contract TokenInterfaceV5",
          "name": "",
          "type": "address"
        }
      ],
      "stateMutability": "view",
      "type": "function"
    },
    {
      "inputs": [],
      "name": "maxGainP",
      "outputs": [
        {
          "internalType": "uint256",
          "name": "",
          "type": "uint256"
        }
      ],
      "stateMutability": "view",
      "type": "function"
    },
    {
      "inputs": [],
      "name": "maxPendingMarketOrders",
      "outputs": [
        {
          "internalType": "uint256",
          "name": "",
          "type": "uint256"
        }
      ],
      "stateMutability": "view",
      "type": "function"
    },
    {
      "inputs": [],
      "name": "maxSlP",
      "outputs": [
        {
          "internalType": "uint256",
          "name": "",
          "type": "uint256"
        }
      ],
      "stateMutability": "view",
      "type": "function"
    },
    {
      "inputs": [],
      "name": "maxTradesPerBlock",
      "outputs": [
        {
          "internalType": "uint256",
          "name": "",
          "type": "uint256"
        }
      ],
      "stateMutability": "view",
      "type": "function"
    },
    {
      "inputs": [],
      "name": "maxTradesPerPair",
      "outputs": [
        {
          "internalType": "uint256",
          "name": "",
          "type": "uint256"
        }
      ],
      "stateMutability": "view",
      "type": "function"
    },
    {
      "inputs": [
        {
          "internalType": "uint256",
          "name": "",
          "type": "uint256"
        }
      ],
      "name": "nftLastSuccess",
      "outputs": [
        {
          "internalType": "uint256",
          "name": "",
          "type": "uint256"
        }
      ],
      "stateMutability": "view",
      "type": "function"
    },
    {
      "inputs": [],
      "name": "nftRewards",
      "outputs": [
        {
          "internalType": "uint256",
          "name": "",
          "type": "uint256"
        }
      ],
      "stateMutability": "view",
      "type": "function"
    },
    {
      "inputs": [],
      "name": "nftSuccessTimelock",
      "outputs": [
        {
          "internalType": "uint256",
          "name": "",
          "type": "uint256"
        }
      ],
      "stateMutability": "view",
      "type": "function"
    },
    {
      "inputs": [
        {
          "internalType": "uint256",
          "name": "",
          "type": "uint256"
        }
      ],
      "name": "nfts",
      "outputs": [
        {
          "internalType": "contract NftInterfaceV5",
          "name": "",
          "type": "address"
        }
      ],
      "stateMutability": "view",
      "type": "function"
    },
    {
      "inputs": [
        {
          "internalType": "uint256",
          "name": "",
          "type": "uint256"
        },
        {
          "internalType": "uint256",
          "name": "",
          "type": "uint256"
        }
      ],
      "name": "openInterestDai",
      "outputs": [
        {
          "internalType": "uint256",
          "name": "",
          "type": "uint256"
        }
      ],
      "stateMutability": "view",
      "type": "function"
    },
    {
      "inputs": [
        {
          "internalType": "address",
          "name": "",
          "type": "address"
        },
        {
          "internalType": "uint256",
          "name": "",
          "type": "uint256"
        },
        {
          "internalType": "uint256",
          "name": "",
          "type": "uint256"
        }
      ],
      "name": "openLimitOrderIds",
      "outputs": [
        {
          "internalType": "uint256",
          "name": "",
          "type": "uint256"
        }
      ],
      "stateMutability": "view",
      "type": "function"
    },
    {
      "inputs": [
        {
          "internalType": "uint256",
          "name": "",
          "type": "uint256"
        }
      ],
      "name": "openLimitOrders",
      "outputs": [
        {
          "internalType": "address",
          "name": "trader",
          "type": "address"
        },
        {
          "internalType": "uint256",
          "name": "pairIndex",
          "type": "uint256"
        },
        {
          "internalType": "uint256",
          "name": "index",
          "type": "uint256"
        },
        {
          "internalType": "uint256",
          "name": "positionSize",
          "type": "uint256"
        },
        {
          "internalType": "uint256",
          "name": "spreadReductionP",
          "type": "uint256"
        },
        {
          "internalType": "bool",
          "name": "buy",
          "type": "bool"
        },
        {
          "internalType": "uint256",
          "name": "leverage",
          "type": "uint256"
        },
        {
          "internalType": "uint256",
          "name": "tp",
          "type": "uint256"
        },
        {
          "internalType": "uint256",
          "name": "sl",
          "type": "uint256"
        },
        {
          "internalType": "uint256",
          "name": "minPrice",
          "type": "uint256"
        },
        {
          "internalType": "uint256",
          "name": "maxPrice",
          "type": "uint256"
        },
        {
          "internalType": "uint256",
          "name": "block",
          "type": "uint256"
        },
        {
          "internalType": "uint256",
          "name": "tokenId",
          "type": "uint256"
        }
      ],
      "stateMutability": "view",
      "type": "function"
    },
    {
      "inputs": [
        {
          "internalType": "address",
          "name": "",
          "type": "address"
        },
        {
          "internalType": "uint256",
          "name": "",
          "type": "uint256"
        }
      ],
      "name": "openLimitOrdersCount",
      "outputs": [
        {
          "internalType": "uint256",
          "name": "",
          "type": "uint256"
        }
      ],
      "stateMutability": "view",
      "type": "function"
    },
    {
      "inputs": [
        {
          "internalType": "address",
          "name": "",
          "type": "address"
        },
        {
          "internalType": "uint256",
          "name": "",
          "type": "uint256"
        },
        {
          "internalType": "uint256",
          "name": "",
          "type": "uint256"
        }
      ],
      "name": "openTrades",
      "outputs": [
        {
          "internalType": "address",
          "name": "trader",
          "type": "address"
        },
        {
          "internalType": "uint256",
          "name": "pairIndex",
          "type": "uint256"
        },
        {
          "internalType": "uint256",
          "name": "index",
          "type": "uint256"
        },
        {
          "internalType": "uint256",
          "name": "initialPosToken",
          "type": "uint256"
        },
        {
          "internalType": "uint256",
          "name": "positionSizeDai",
          "type": "uint256"
        },
        {
          "internalType": "uint256",
          "name": "openPrice",
          "type": "uint256"
        },
        {
          "internalType": "bool",
          "name": "buy",
          "type": "bool"
        },
        {
          "internalType": "uint256",
          "name": "leverage",
          "type": "uint256"
        },
        {
          "internalType": "uint256",
          "name": "tp",
          "type": "uint256"
        },
        {
          "internalType": "uint256",
          "name": "sl",
          "type": "uint256"
        }
      ],
      "stateMutability": "view",
      "type": "function"
    },
    {
      "inputs": [
        {
          "internalType": "address",
          "name": "",
          "type": "address"
        },
        {
          "internalType": "uint256",
          "name": "",
          "type": "uint256"
        }
      ],
      "name": "openTradesCount",
      "outputs": [
        {
          "internalType": "uint256",
          "name": "",
          "type": "uint256"
        }
      ],
      "stateMutability": "view",
      "type": "function"
    },
    {
      "inputs": [
        {
          "internalType": "address",
          "name": "",
          "type": "address"
        },
        {
          "internalType": "uint256",
          "name": "",
          "type": "uint256"
        },
        {
          "internalType": "uint256",
          "name": "",
          "type": "uint256"
        }
      ],
      "name": "openTradesInfo",
      "outputs": [
        {
          "internalType": "uint256",
          "name": "tokenId",
          "type": "uint256"
        },
        {
          "internalType": "uint256",
          "name": "tokenPriceDai",
          "type": "uint256"
        },
        {
          "internalType": "uint256",
          "name": "openInterestDai",
          "type": "uint256"
        },
        {
          "internalType": "uint256",
          "name": "tpLastUpdated",
          "type": "uint256"
        },
        {
          "internalType": "uint256",
          "name": "slLastUpdated",
          "type": "uint256"
        },
        {
          "internalType": "bool",
          "name": "beingMarketClosed",
          "type": "bool"
        }
      ],
      "stateMutability": "view",
      "type": "function"
    },
    {
      "inputs": [
        {
          "internalType": "uint256",
          "name": "",
          "type": "uint256"
        },
        {
          "internalType": "uint256",
          "name": "",
          "type": "uint256"
        }
      ],
      "name": "pairTraders",
      "outputs": [
        {
          "internalType": "address",
          "name": "",
          "type": "address"
        }
      ],
      "stateMutability": "view",
      "type": "function"
    },
    {
      "inputs": [
        {
          "internalType": "uint256",
          "name": "_pairIndex",
          "type": "uint256"
        }
      ],
      "name": "pairTradersArray",
      "outputs": [
        {
          "internalType": "address[]",
          "name": "",
          "type": "address[]"
        }
      ],
      "stateMutability": "view",
      "type": "function"
    },
    {
      "inputs": [
        {
          "internalType": "address",
          "name": "",
          "type": "address"
        },
        {
          "internalType": "uint256",
          "name": "",
          "type": "uint256"
        }
      ],
      "name": "pairTradersId",
      "outputs": [
        {
          "internalType": "uint256",
          "name": "",
          "type": "uint256"
        }
      ],
      "stateMutability": "view",
      "type": "function"
    },
    {
      "inputs": [
        {
          "internalType": "address",
          "name": "",
          "type": "address"
        },
        {
          "internalType": "uint256",
          "name": "",
          "type": "uint256"
        }
      ],
      "name": "pendingMarketCloseCount",
      "outputs": [
        {
          "internalType": "uint256",
          "name": "",
          "type": "uint256"
        }
      ],
      "stateMutability": "view",
      "type": "function"
    },
    {
      "inputs": [
        {
          "internalType": "address",
          "name": "",
          "type": "address"
        },
        {
          "internalType": "uint256",
          "name": "",
          "type": "uint256"
        }
      ],
      "name": "pendingMarketOpenCount",
      "outputs": [
        {
          "internalType": "uint256",
          "name": "",
          "type": "uint256"
        }
      ],
      "stateMutability": "view",
      "type": "function"
    },
    {
      "inputs": [
        {
          "internalType": "address",
          "name": "",
          "type": "address"
        },
        {
          "internalType": "uint256",
          "name": "",
          "type": "uint256"
        }
      ],
      "name": "pendingOrderIds",
      "outputs": [
        {
          "internalType": "uint256",
          "name": "",
          "type": "uint256"
        }
      ],
      "stateMutability": "view",
      "type": "function"
    },
    {
      "inputs": [
        {
          "internalType": "address",
          "name": "_trader",
          "type": "address"
        }
      ],
      "name": "pendingOrderIdsCount",
      "outputs": [
        {
          "internalType": "uint256",
          "name": "",
          "type": "uint256"
        }
      ],
      "stateMutability": "view",
      "type": "function"
    },
    {
      "inputs": [],
      "name": "pool",
      "outputs": [
        {
          "internalType": "contract PoolInterfaceV5",
          "name": "",
          "type": "address"
        }
      ],
      "stateMutability": "view",
      "type": "function"
    },
    {
      "inputs": [],
      "name": "priceAggregator",
      "outputs": [
        {
          "internalType": "contract AggregatorInterfaceV5",
          "name": "",
          "type": "address"
        }
      ],
      "stateMutability": "view",
      "type": "function"
    },
    {
      "inputs": [
        {
          "internalType": "address",
          "name": "_trading",
          "type": "address"
        }
      ],
      "name": "removeTradingContract",
      "outputs": [],
      "stateMutability": "nonpayable",
      "type": "function"
    },
    {
      "inputs": [
        {
          "internalType": "uint256",
          "name": "",
          "type": "uint256"
        }
      ],
      "name": "reqID_pendingMarketOrder",
      "outputs": [
        {
          "components": [
            {
              "internalType": "address",
              "name": "trader",
              "type": "address"
            },
            {
              "internalType": "uint256",
              "name": "pairIndex",
              "type": "uint256"
            },
            {
              "internalType": "uint256",
              "name": "index",
              "type": "uint256"
            },
            {
              "internalType": "uint256",
              "name": "initialPosToken",
              "type": "uint256"
            },
            {
              "internalType": "uint256",
              "name": "positionSizeDai",
              "type": "uint256"
            },
            {
              "internalType": "uint256",
              "name": "openPrice",
              "type": "uint256"
            },
            {
              "internalType": "bool",
              "name": "buy",
              "type": "bool"
            },
            {
              "internalType": "uint256",
              "name": "leverage",
              "type": "uint256"
            },
            {
              "internalType": "uint256",
              "name": "tp",
              "type": "uint256"
            },
            {
              "internalType": "uint256",
              "name": "sl",
              "type": "uint256"
            }
          ],
          "internalType": "struct GFarmTradingStorageV5.Trade",
          "name": "trade",
          "type": "tuple"
        },
        {
          "internalType": "uint256",
          "name": "block",
          "type": "uint256"
        },
        {
          "internalType": "uint256",
          "name": "wantedPrice",
          "type": "uint256"
        },
        {
          "internalType": "uint256",
          "name": "slippageP",
          "type": "uint256"
        },
        {
          "internalType": "uint256",
          "name": "spreadReductionP",
          "type": "uint256"
        },
        {
          "internalType": "uint256",
          "name": "tokenId",
          "type": "uint256"
        }
      ],
      "stateMutability": "view",
      "type": "function"
    },
    {
      "inputs": [
        {
          "internalType": "uint256",
          "name": "",
          "type": "uint256"
        }
      ],
      "name": "reqID_pendingNftOrder",
      "outputs": [
        {
          "internalType": "address",
          "name": "nftHolder",
          "type": "address"
        },
        {
          "internalType": "uint256",
          "name": "nftId",
          "type": "uint256"
        },
        {
          "internalType": "address",
          "name": "trader",
          "type": "address"
        },
        {
          "internalType": "uint256",
          "name": "pairIndex",
          "type": "uint256"
        },
        {
          "internalType": "uint256",
          "name": "index",
          "type": "uint256"
        },
        {
          "internalType": "enum GFarmTradingStorageV5.LimitOrder",
          "name": "orderType",
          "type": "uint8"
        }
      ],
      "stateMutability": "view",
      "type": "function"
    },
    {
      "inputs": [
        {
          "internalType": "address",
          "name": "_callbacks",
          "type": "address"
        }
      ],
      "name": "setCallbacks",
      "outputs": [],
      "stateMutability": "nonpayable",
      "type": "function"
    },
    {
      "inputs": [
        {
          "internalType": "uint256",
          "name": "_lev",
          "type": "uint256"
        }
      ],
      "name": "setDefaultLeverageUnlocked",
      "outputs": [],
      "stateMutability": "nonpayable",
      "type": "function"
    },
    {
      "inputs": [
        {
          "internalType": "address",
          "name": "_dev",
          "type": "address"
        }
      ],
      "name": "setDev",
      "outputs": [],
      "stateMutability": "nonpayable",
      "type": "function"
    },
    {
      "inputs": [
        {
          "internalType": "address",
          "name": "_gov",
          "type": "address"
        }
      ],
      "name": "setGov",
      "outputs": [],
      "stateMutability": "nonpayable",
      "type": "function"
    },
    {
      "inputs": [
        {
          "internalType": "address",
          "name": "_trader",
          "type": "address"
        },
        {
          "internalType": "uint256",
          "name": "_newLeverage",
          "type": "uint256"
        }
      ],
      "name": "setLeverageUnlocked",
      "outputs": [],
      "stateMutability": "nonpayable",
      "type": "function"
    },
    {
      "inputs": [
        {
          "internalType": "uint256",
          "name": "_max",
          "type": "uint256"
        }
      ],
      "name": "setMaxGainP",
      "outputs": [],
      "stateMutability": "nonpayable",
      "type": "function"
    },
    {
      "inputs": [
        {
          "internalType": "uint256",
          "name": "_pairIndex",
          "type": "uint256"
        },
        {
          "internalType": "uint256",
          "name": "_newMaxOpenInterest",
          "type": "uint256"
        }
      ],
      "name": "setMaxOpenInterestDai",
      "outputs": [],
      "stateMutability": "nonpayable",
      "type": "function"
    },
    {
      "inputs": [
        {
          "internalType": "uint256",
          "name": "_maxPendingMarketOrders",
          "type": "uint256"
        }
      ],
      "name": "setMaxPendingMarketOrders",
      "outputs": [],
      "stateMutability": "nonpayable",
      "type": "function"
    },
    {
      "inputs": [
        {
          "internalType": "uint256",
          "name": "_max",
          "type": "uint256"
        }
      ],
      "name": "setMaxSlP",
      "outputs": [],
      "stateMutability": "nonpayable",
      "type": "function"
    },
    {
      "inputs": [
        {
          "internalType": "uint256",
          "name": "_maxTradesPerBlock",
          "type": "uint256"
        }
      ],
      "name": "setMaxTradesPerBlock",
      "outputs": [],
      "stateMutability": "nonpayable",
      "type": "function"
    },
    {
      "inputs": [
        {
          "internalType": "uint256",
          "name": "_maxTradesPerPair",
          "type": "uint256"
        }
      ],
      "name": "setMaxTradesPerPair",
      "outputs": [],
      "stateMutability": "nonpayable",
      "type": "function"
    },
    {
      "inputs": [
        {
          "internalType": "uint256",
          "name": "_blocks",
          "type": "uint256"
        }
      ],
      "name": "setNftSuccessTimelock",
      "outputs": [],
      "stateMutability": "nonpayable",
      "type": "function"
    },
    {
      "inputs": [
        {
          "internalType": "address",
          "name": "_pool",
          "type": "address"
        }
      ],
      "name": "setPool",
      "outputs": [],
      "stateMutability": "nonpayable",
      "type": "function"
    },
    {
      "inputs": [
        {
          "internalType": "address",
          "name": "_aggregator",
          "type": "address"
        }
      ],
      "name": "setPriceAggregator",
      "outputs": [],
      "stateMutability": "nonpayable",
      "type": "function"
    },
    {
      "inputs": [
        {
          "internalType": "uint256[5]",
          "name": "_r",
          "type": "uint256[5]"
        }
      ],
      "name": "setSpreadReductionsP",
      "outputs": [],
      "stateMutability": "nonpayable",
      "type": "function"
    },
    {
      "inputs": [
        {
          "internalType": "address",
          "name": "_tokenDaiRouter",
          "type": "address"
        }
      ],
      "name": "setTokenDaiRouter",
      "outputs": [],
      "stateMutability": "nonpayable",
      "type": "function"
    },
    {
      "inputs": [
        {
          "internalType": "address",
          "name": "_trading",
          "type": "address"
        }
      ],
      "name": "setTrading",
      "outputs": [],
      "stateMutability": "nonpayable",
      "type": "function"
    },
    {
      "inputs": [
        {
          "internalType": "address",
          "name": "_vault",
          "type": "address"
        }
      ],
      "name": "setVault",
      "outputs": [],
      "stateMutability": "nonpayable",
      "type": "function"
    },
    {
      "inputs": [
        {
          "internalType": "uint256",
          "name": "",
          "type": "uint256"
        }
      ],
      "name": "spreadReductionsP",
      "outputs": [
        {
          "internalType": "uint256",
          "name": "",
          "type": "uint256"
        }
      ],
      "stateMutability": "view",
      "type": "function"
    },
    {
      "inputs": [
        {
          "components": [
            {
              "internalType": "address",
              "name": "trader",
              "type": "address"
            },
            {
              "internalType": "uint256",
              "name": "pairIndex",
              "type": "uint256"
            },
            {
              "internalType": "uint256",
              "name": "index",
              "type": "uint256"
            },
            {
              "internalType": "uint256",
              "name": "positionSize",
              "type": "uint256"
            },
            {
              "internalType": "uint256",
              "name": "spreadReductionP",
              "type": "uint256"
            },
            {
              "internalType": "bool",
              "name": "buy",
              "type": "bool"
            },
            {
              "internalType": "uint256",
              "name": "leverage",
              "type": "uint256"
            },
            {
              "internalType": "uint256",
              "name": "tp",
              "type": "uint256"
            },
            {
              "internalType": "uint256",
              "name": "sl",
              "type": "uint256"
            },
            {
              "internalType": "uint256",
              "name": "minPrice",
              "type": "uint256"
            },
            {
              "internalType": "uint256",
              "name": "maxPrice",
              "type": "uint256"
            },
            {
              "internalType": "uint256",
              "name": "block",
              "type": "uint256"
            },
            {
              "internalType": "uint256",
              "name": "tokenId",
              "type": "uint256"
            }
          ],
          "internalType": "struct GFarmTradingStorageV5.OpenLimitOrder",
          "name": "o",
          "type": "tuple"
        }
      ],
      "name": "storeOpenLimitOrder",
      "outputs": [],
      "stateMutability": "nonpayable",
      "type": "function"
    },
    {
      "inputs": [
        {
          "components": [
            {
              "components": [
                {
                  "internalType": "address",
                  "name": "trader",
                  "type": "address"
                },
                {
                  "internalType": "uint256",
                  "name": "pairIndex",
                  "type": "uint256"
                },
                {
                  "internalType": "uint256",
                  "name": "index",
                  "type": "uint256"
                },
                {
                  "internalType": "uint256",
                  "name": "initialPosToken",
                  "type": "uint256"
                },
                {
                  "internalType": "uint256",
                  "name": "positionSizeDai",
                  "type": "uint256"
                },
                {
                  "internalType": "uint256",
                  "name": "openPrice",
                  "type": "uint256"
                },
                {
                  "internalType": "bool",
                  "name": "buy",
                  "type": "bool"
                },
                {
                  "internalType": "uint256",
                  "name": "leverage",
                  "type": "uint256"
                },
                {
                  "internalType": "uint256",
                  "name": "tp",
                  "type": "uint256"
                },
                {
                  "internalType": "uint256",
                  "name": "sl",
                  "type": "uint256"
                }
              ],
              "internalType": "struct GFarmTradingStorageV5.Trade",
              "name": "trade",
              "type": "tuple"
            },
            {
              "internalType": "uint256",
              "name": "block",
              "type": "uint256"
            },
            {
              "internalType": "uint256",
              "name": "wantedPrice",
              "type": "uint256"
            },
            {
              "internalType": "uint256",
              "name": "slippageP",
              "type": "uint256"
            },
            {
              "internalType": "uint256",
              "name": "spreadReductionP",
              "type": "uint256"
            },
            {
              "internalType": "uint256",
              "name": "tokenId",
              "type": "uint256"
            }
          ],
          "internalType": "struct GFarmTradingStorageV5.PendingMarketOrder",
          "name": "_order",
          "type": "tuple"
        },
        {
          "internalType": "uint256",
          "name": "_id",
          "type": "uint256"
        },
        {
          "internalType": "bool",
          "name": "_open",
          "type": "bool"
        }
      ],
      "name": "storePendingMarketOrder",
      "outputs": [],
      "stateMutability": "nonpayable",
      "type": "function"
    },
    {
      "inputs": [
        {
          "components": [
            {
              "internalType": "address",
              "name": "nftHolder",
              "type": "address"
            },
            {
              "internalType": "uint256",
              "name": "nftId",
              "type": "uint256"
            },
            {
              "internalType": "address",
              "name": "trader",
              "type": "address"
            },
            {
              "internalType": "uint256",
              "name": "pairIndex",
              "type": "uint256"
            },
            {
              "internalType": "uint256",
              "name": "index",
              "type": "uint256"
            },
            {
              "internalType": "enum GFarmTradingStorageV5.LimitOrder",
              "name": "orderType",
              "type": "uint8"
            }
          ],
          "internalType": "struct GFarmTradingStorageV5.PendingNftOrder",
          "name": "_nftOrder",
          "type": "tuple"
        },
        {
          "internalType": "uint256",
          "name": "_orderId",
          "type": "uint256"
        }
      ],
      "name": "storePendingNftOrder",
      "outputs": [],
      "stateMutability": "nonpayable",
      "type": "function"
    },
    {
      "inputs": [
        {
          "internalType": "address",
          "name": "_trader",
          "type": "address"
        },
        {
          "internalType": "address",
          "name": "_referral",
          "type": "address"
        }
      ],
      "name": "storeReferral",
      "outputs": [],
      "stateMutability": "nonpayable",
      "type": "function"
    },
    {
      "inputs": [
        {
          "components": [
            {
              "internalType": "address",
              "name": "trader",
              "type": "address"
            },
            {
              "internalType": "uint256",
              "name": "pairIndex",
              "type": "uint256"
            },
            {
              "internalType": "uint256",
              "name": "index",
              "type": "uint256"
            },
            {
              "internalType": "uint256",
              "name": "initialPosToken",
              "type": "uint256"
            },
            {
              "internalType": "uint256",
              "name": "positionSizeDai",
              "type": "uint256"
            },
            {
              "internalType": "uint256",
              "name": "openPrice",
              "type": "uint256"
            },
            {
              "internalType": "bool",
              "name": "buy",
              "type": "bool"
            },
            {
              "internalType": "uint256",
              "name": "leverage",
              "type": "uint256"
            },
            {
              "internalType": "uint256",
              "name": "tp",
              "type": "uint256"
            },
            {
              "internalType": "uint256",
              "name": "sl",
              "type": "uint256"
            }
          ],
          "internalType": "struct GFarmTradingStorageV5.Trade",
          "name": "_trade",
          "type": "tuple"
        },
        {
          "components": [
            {
              "internalType": "uint256",
              "name": "tokenId",
              "type": "uint256"
            },
            {
              "internalType": "uint256",
              "name": "tokenPriceDai",
              "type": "uint256"
            },
            {
              "internalType": "uint256",
              "name": "openInterestDai",
              "type": "uint256"
            },
            {
              "internalType": "uint256",
              "name": "tpLastUpdated",
              "type": "uint256"
            },
            {
              "internalType": "uint256",
              "name": "slLastUpdated",
              "type": "uint256"
            },
            {
              "internalType": "bool",
              "name": "beingMarketClosed",
              "type": "bool"
            }
          ],
          "internalType": "struct GFarmTradingStorageV5.TradeInfo",
          "name": "_tradeInfo",
          "type": "tuple"
        }
      ],
      "name": "storeTrade",
      "outputs": [],
      "stateMutability": "nonpayable",
      "type": "function"
    },
    {
      "inputs": [
        {
          "internalType": "uint256",
          "name": "",
          "type": "uint256"
        }
      ],
      "name": "supportedTokens",
      "outputs": [
        {
          "internalType": "address",
          "name": "",
          "type": "address"
        }
      ],
      "stateMutability": "view",
      "type": "function"
    },
    {
      "inputs": [],
      "name": "token",
      "outputs": [
        {
          "internalType": "contract TokenInterfaceV5",
          "name": "",
          "type": "address"
        }
      ],
      "stateMutability": "view",
      "type": "function"
    },
    {
      "inputs": [],
      "name": "tokenDaiRouter",
      "outputs": [
        {
          "internalType": "address",
          "name": "",
          "type": "address"
        }
      ],
      "stateMutability": "view",
      "type": "function"
    },
    {
      "inputs": [],
      "name": "tokensBurned",
      "outputs": [
        {
          "internalType": "uint256",
          "name": "",
          "type": "uint256"
        }
      ],
      "stateMutability": "view",
      "type": "function"
    },
    {
      "inputs": [],
      "name": "tokensMinted",
      "outputs": [
        {
          "internalType": "uint256",
          "name": "",
          "type": "uint256"
        }
      ],
      "stateMutability": "view",
      "type": "function"
    },
    {
      "inputs": [
        {
          "internalType": "address",
          "name": "",
          "type": "address"
        }
      ],
      "name": "traders",
      "outputs": [
        {
          "internalType": "uint256",
          "name": "leverageUnlocked",
          "type": "uint256"
        },
        {
          "internalType": "address",
          "name": "referral",
          "type": "address"
        },
        {
          "internalType": "uint256",
          "name": "referralRewardsTotal",
          "type": "uint256"
        }
      ],
      "stateMutability": "view",
      "type": "function"
    },
    {
      "inputs": [
        {
          "internalType": "uint256",
          "name": "",
          "type": "uint256"
        }
      ],
      "name": "tradesPerBlock",
      "outputs": [
        {
          "internalType": "uint256",
          "name": "",
          "type": "uint256"
        }
      ],
      "stateMutability": "view",
      "type": "function"
    },
    {
      "inputs": [],
      "name": "trading",
      "outputs": [
        {
          "internalType": "contract PausableInterfaceV5",
          "name": "",
          "type": "address"
        }
      ],
      "stateMutability": "view",
      "type": "function"
    },
    {
      "inputs": [
        {
          "internalType": "address",
          "name": "_from",
          "type": "address"
        },
        {
          "internalType": "address",
          "name": "_to",
          "type": "address"
        },
        {
          "internalType": "uint256",
          "name": "_amount",
          "type": "uint256"
        }
      ],
      "name": "transferDai",
      "outputs": [],
      "stateMutability": "nonpayable",
      "type": "function"
    },
    {
      "inputs": [
        {
          "internalType": "address",
          "name": "_from",
          "type": "address"
        },
        {
          "internalType": "uint256",
          "name": "_pairIndex",
          "type": "uint256"
        },
        {
          "internalType": "uint256",
          "name": "_leveragedPosDai",
          "type": "uint256"
        }
      ],
      "name": "transferLinkToAggregator",
      "outputs": [],
      "stateMutability": "nonpayable",
      "type": "function"
    },
    {
      "inputs": [
        {
          "internalType": "address",
          "name": "_trader",
          "type": "address"
        },
        {
          "internalType": "uint256",
          "name": "_pairIndex",
          "type": "uint256"
        },
        {
          "internalType": "uint256",
          "name": "_index",
          "type": "uint256"
        }
      ],
      "name": "unregisterOpenLimitOrder",
      "outputs": [],
      "stateMutability": "nonpayable",
      "type": "function"
    },
    {
      "inputs": [
        {
          "internalType": "uint256",
          "name": "_id",
          "type": "uint256"
        },
        {
          "internalType": "bool",
          "name": "_open",
          "type": "bool"
        }
      ],
      "name": "unregisterPendingMarketOrder",
      "outputs": [],
      "stateMutability": "nonpayable",
      "type": "function"
    },
    {
      "inputs": [
        {
          "internalType": "uint256",
          "name": "_order",
          "type": "uint256"
        }
      ],
      "name": "unregisterPendingNftOrder",
      "outputs": [],
      "stateMutability": "nonpayable",
      "type": "function"
    },
    {
      "inputs": [
        {
          "internalType": "address",
          "name": "trader",
          "type": "address"
        },
        {
          "internalType": "uint256",
          "name": "pairIndex",
          "type": "uint256"
        },
        {
          "internalType": "uint256",
          "name": "index",
          "type": "uint256"
        }
      ],
      "name": "unregisterTrade",
      "outputs": [],
      "stateMutability": "nonpayable",
      "type": "function"
    },
    {
      "inputs": [
        {
          "internalType": "contract NftInterfaceV5[5]",
          "name": "_nfts",
          "type": "address[5]"
        }
      ],
      "name": "updateNfts",
      "outputs": [],
      "stateMutability": "nonpayable",
      "type": "function"
    },
    {
      "inputs": [
        {
          "components": [
            {
              "internalType": "address",
              "name": "trader",
              "type": "address"
            },
            {
              "internalType": "uint256",
              "name": "pairIndex",
              "type": "uint256"
            },
            {
              "internalType": "uint256",
              "name": "index",
              "type": "uint256"
            },
            {
              "internalType": "uint256",
              "name": "positionSize",
              "type": "uint256"
            },
            {
              "internalType": "uint256",
              "name": "spreadReductionP",
              "type": "uint256"
            },
            {
              "internalType": "bool",
              "name": "buy",
              "type": "bool"
            },
            {
              "internalType": "uint256",
              "name": "leverage",
              "type": "uint256"
            },
            {
              "internalType": "uint256",
              "name": "tp",
              "type": "uint256"
            },
            {
              "internalType": "uint256",
              "name": "sl",
              "type": "uint256"
            },
            {
              "internalType": "uint256",
              "name": "minPrice",
              "type": "uint256"
            },
            {
              "internalType": "uint256",
              "name": "maxPrice",
              "type": "uint256"
            },
            {
              "internalType": "uint256",
              "name": "block",
              "type": "uint256"
            },
            {
              "internalType": "uint256",
              "name": "tokenId",
              "type": "uint256"
            }
          ],
          "internalType": "struct GFarmTradingStorageV5.OpenLimitOrder",
          "name": "_o",
          "type": "tuple"
        }
      ],
      "name": "updateOpenLimitOrder",
      "outputs": [],
      "stateMutability": "nonpayable",
      "type": "function"
    },
    {
      "inputs": [
        {
          "internalType": "address",
          "name": "_trader",
          "type": "address"
        },
        {
          "internalType": "uint256",
          "name": "_pairIndex",
          "type": "uint256"
        },
        {
          "internalType": "uint256",
          "name": "_index",
          "type": "uint256"
        },
        {
          "internalType": "uint256",
          "name": "_newSl",
          "type": "uint256"
        }
      ],
      "name": "updateSl",
      "outputs": [],
      "stateMutability": "nonpayable",
      "type": "function"
    },
    {
      "inputs": [
        {
          "internalType": "contract TokenInterfaceV5",
          "name": "_newToken",
          "type": "address"
        }
      ],
      "name": "updateToken",
      "outputs": [],
      "stateMutability": "nonpayable",
      "type": "function"
    },
    {
      "inputs": [
        {
          "internalType": "address",
          "name": "_trader",
          "type": "address"
        },
        {
          "internalType": "uint256",
          "name": "_pairIndex",
          "type": "uint256"
        },
        {
          "internalType": "uint256",
          "name": "_index",
          "type": "uint256"
        },
        {
          "internalType": "uint256",
          "name": "_newTp",
          "type": "uint256"
        }
      ],
      "name": "updateTp",
      "outputs": [],
      "stateMutability": "nonpayable",
      "type": "function"
    },
    {
      "inputs": [
        {
          "components": [
            {
              "internalType": "address",
              "name": "trader",
              "type": "address"
            },
            {
              "internalType": "uint256",
              "name": "pairIndex",
              "type": "uint256"
            },
            {
              "internalType": "uint256",
              "name": "index",
              "type": "uint256"
            },
            {
              "internalType": "uint256",
              "name": "initialPosToken",
              "type": "uint256"
            },
            {
              "internalType": "uint256",
              "name": "positionSizeDai",
              "type": "uint256"
            },
            {
              "internalType": "uint256",
              "name": "openPrice",
              "type": "uint256"
            },
            {
              "internalType": "bool",
              "name": "buy",
              "type": "bool"
            },
            {
              "internalType": "uint256",
              "name": "leverage",
              "type": "uint256"
            },
            {
              "internalType": "uint256",
              "name": "tp",
              "type": "uint256"
            },
            {
              "internalType": "uint256",
              "name": "sl",
              "type": "uint256"
            }
          ],
          "internalType": "struct GFarmTradingStorageV5.Trade",
          "name": "_t",
          "type": "tuple"
        }
      ],
      "name": "updateTrade",
      "outputs": [],
      "stateMutability": "nonpayable",
      "type": "function"
    },
    {
      "inputs": [],
      "name": "vault",
      "outputs": [
        {
          "internalType": "address",
          "name": "",
          "type": "address"
        }
      ],
      "stateMutability": "view",
      "type": "function"
    }
  ],
  "transactionHash": "0x887e64d4120d2dfa55e8664cdf7547a0160f1da698a5eff7b5a7f102cf110348",
  "args": [],
  "numDeployments": 1,
  "solcInputHash": "62ead6fd019c01c7f32a188a2b283d94",
  "bytecode": "0x608060405234620001a957600480546001600160a01b0319908116737075cab6bcca06613e2d071bd918d1a0241379e2179091556200003d620001ae565b73f9a4c522e327935bd1f5a338c121e14e4cc1f89881526020907377cd42b925e1a82f41d852d6be727cfc88fddbbc82820152733378ad81d09de23725ee9b9270635c97ed60192160408201527302e2c5825c1a3b69c0417706dbe1327c2af3e6c26060820152732d266a94469d05c9e06d52a4d0d9c23b157767c260808201526000905b60059182811015620000e9576001918185848060a01b0383511692019401550190620000c2565b5050506003600c5560059081600d5581600e55610384600f556050601055603260115560326012556200011b620001ae565b600f815260148282015260196040820152601e6060820152602360808201529060005b838110620001925773d39a38bd2d2d552f3908ff698a5530aa397fb92d8573c66fbe50dd33c9aadd65707f7088d597c86fe00f816018541617601855601954161760195560405161517f9081620001e58239f35b825160ff166013820155918101916001016200013e565b600080fd5b6040519060a082016001600160401b03811183821017620001ce57604052565b634e487b7160e01b600052604160045260246000fdfe608080604052600436101561001357600080fd5b600090813560e01c908162b127831461431e5750806306aef7de14614229578063099fa9341461419457806312d43a511461416d57806313b36ff6146140d757806316f0115b146140b057806318407fe0146140925780631c8636b414614050578063201d8bdb14613f8557806321f7a30b14613ebc578063265aa62114613e8557806328b1f88714613dc557806328daca2114613d84578063292c161714613d5c5780633078fff514613d365780633214959214613c6d5780633b0f0f2f14613c2f5780633dae10a014613c0257806343b8fab514613b6f5780634415b36914613b2d5780634437152a14613a8457806344d44f5a14613a545780634daf04b1146139ab5780635070e8371461390457806352e5398f146138da5780635378143e1461371957806356a6796f1461369a5780635a9125511461367c5780635ad9f9931461365f5780635b621e32146135e95780635c76ac9e1461353b5780635fbfe8cc146134cd5780636690a806146133375780636817031b1461328e57806368ca199d146132565780636d69fcaf146131825780636d81d981146131455780636de9f32b146131275780636e70e7b614612fbc5780637395d79e14612f0a578063796d82d914612eec5780637ad3def214612d405780637fdb96f314612c9c5780638049fde714612c7e578063817fa1a414612b1d5780638a0bd7021461299e5780638bbb644c146129805780638bf7f5f9146128ed5780638c8ff1d51461286e57806390d112b9146127ca57806391cca3db146127a357806392a88fa21461275057806397e7995a1461270e57806399794d351461267f5780639c8912f11461263d5780639d1a107314612518578063a354418114612474578063a3a80ffe146123c3578063a553906c1461231a578063aa3b7d77146122f0578063aaf5eb68146122d0578063b4b0f56714612221578063b66e6b0514612149578063b767608a146120a3578063b7682d5414612061578063b8878a2c14611f11578063bcc9f1d314611ebb578063c122fea614611e9d578063c311ab3114611ac4578063c625562614611a68578063c76faf78146117b3578063cab94580146116fe578063cfad57a214611654578063cfbacc1414611463578063d294f0931461124d578063d3b5fe7014610f77578063d3c7c2c714610ee8578063d477f05f14610e3f578063d4bda90814610d81578063d539139314610d58578063dc2123ff14610cc5578063dcdf339a14610ca1578063e212991a14610c14578063e378b36714610b7a578063e3cbe3a714610b30578063e3f04eba14610a1b578063e7873b58146109fd578063ea5c3c33146109df578063ec44acf2146109b8578063ecf56a1f14610925578063eda00d54146108e5578063ee92a4ff146108c7578063f013d278146107f2578063f2c13bdf146107cb578063f4b9fa751461079c578063f65d9dbe1461077e578063f7b3c6fd14610746578063f823e2ae14610604578063f8d24b48146105e6578063fbfa77cf146105bf578063fc0c546a14610598578063fdb594131461057a578063fe0fc8d6146104c95763fece4eac1461049857600080fd5b346104c657806003193601126104c657602060405173b0897686c545045afc77cf20ec7a532e3120e0f18152f35b80fd5b50346104c65760203660031901126104c6576104e36143eb565b6001600160a01b03908160185416330361057657168015610572576080817f943e9d45a11aaae5d87503e3bc248665d9807856e5cf2bdb4a988bee44422781926001600160a01b031960035416176003556040519060408252600960408301527f63616c6c6261636b73000000000000000000000000000000000000000000000060608301526020820152a180f35b5080fd5b8280fd5b50346104c657806003193601126104c6576020601c54604051908152f35b50346104c657806003193601126104c65760206001600160a01b0360045416604051908152f35b50346104c657806003193601126104c65760206001600160a01b03600a5416604051908152f35b50346104c657806003193601126104c6576020601254604051908152f35b50346104c6576020806003193601126105725761061f6143eb565b906001600160a01b03806018541633036107425781816004541693604460405180948193632474521560e21b835260008051602061512a833981519152600484015216968760248301525afa90811561073757849161070a575b50156106c657811561057657818352603381526040808420805460ff19166001179055519182527fb692fa98cbec9bd705572b4c7e0927e3f7698e9fe526dcef6f40f3d4d4980ca391a180f35b6064906040519062461bcd60e51b82526004820152600a60248201527f4e4f545f4d494e544552000000000000000000000000000000000000000000006044820152fd5b61072a9150823d8411610730575b61072281836143c9565b810190614640565b38610679565b503d610718565b6040513d86823e3d90fd5b8380fd5b50346104c65760203660031901126104c65760406020916001600160a01b0361076d6143eb565b168152602b83522054604051908152f35b50346104c657806003193601126104c6576020600c54604051908152f35b50346104c657806003193601126104c6576020604051738f3cf7ad23cd3cadbd9735aff958023239c6a0638152f35b50346104c657806003193601126104c65760206001600160a01b03600b5416604051908152f35b50346104c65760a03660031901126104c6573660a4116104c6576001600160a01b036018541633036104c65760043580151590816108bb575b50806108ae575b806108a1575b80610894575b156104c6576004815b6005811061087f57827fdaae5e047a75b6f38ad4e279cdefe910fc35d5a99a91b8303bd948c0a999372a60a06040518160048237a180f35b60019060208335930192816013015501610847565b506064356084351161083e565b5060443560643511610838565b5060243560443511610832565b9050602435113861082b565b50346104c657806003193601126104c6576020601a54604051908152f35b50346104c65760406020916001600160a01b03610901366144cb565b92909116835260268552838320908352845282822090825283522054604051908152f35b50346104c65760203660031901126104c6576004356001600160a01b03601854163303610572578015610572576080817f8cf3e35f6221b16e1670a3413180c9484bf5aa71787905909fa82a6a2662e9ab92600e556040519060408252601660408301527f6d617850656e64696e674d61726b65744f72646572730000000000000000000060608301526020820152a180f35b50346104c657806003193601126104c65760206001600160a01b0360025416604051908152f35b50346104c657806003193601126104c6576020601b54604051908152f35b50346104c657806003193601126104c6576020601e54604051908152f35b50346104c65760203660031901126104c657338152603360205260ff60408220541680610ac0575b156104c657806001600160a01b0360015416803b15610abd578180916024604051809481937fc412dcfc00000000000000000000000000000000000000000000000000000000835260043560048401525af18015610ab257610aa25750f35b610aab90614343565b6104c65780f35b6040513d84823e3d90fd5b50fd5b50604460206001600160a01b036004541660405192838092632474521560e21b825260008051602061512a83398151915260048301523360248301525afa908115610ab2578291610b12575b50610a43565b610b2a915060203d81116107305761072281836143c9565b38610b0c565b50346104c657610b3f36614417565b91908152602e602052604081209081548310156104c65760206001600160a01b03610b6a85856145a1565b9190546040519260031b1c168152f35b50346104c657610b8936614417565b6001600160a01b03601854163303610576578160a0917f957cd67ea49f3e1ee953cdd23a1ba1f11d973e842411220d5c24ef0e24e1c95693855260306020528060026040872001556040519160608352601260608401527f6d61784f70656e496e7465726573744461690000000000000000000000000000608084015260208301526040820152a180f35b50346104c65760203660031901126104c6576004356001600160a01b03601854163303610572576080817f8cf3e35f6221b16e1670a3413180c9484bf5aa71787905909fa82a6a2662e9ab926012556040519060408252601260408301527f6e66745375636365737354696d656c6f636b000000000000000000000000000060608301526020820152a180f35b50346104c6576020610cbb610cb5366144cb565b91615014565b6040519015158152f35b50346104c65760203660031901126104c6576004356001600160a01b03601854163303610572578015610572576080817f8cf3e35f6221b16e1670a3413180c9484bf5aa71787905909fa82a6a2662e9ab92600c556040519060408252601060408301527f6d6178547261646573506572506169720000000000000000000000000000000060608301526020820152a180f35b50346104c657806003193601126104c657602060405160008051602061512a8339815191528152f35b50346104c6576101403660031901126104c657610d9d366145b9565b338252603360205260ff60408320541680610dc4575b1561057257610dc190614efd565b80f35b50604460206001600160a01b036004541660405192838092632474521560e21b825260008051602061512a83398151915260048301523360248301525afa908115610e34578391610e16575b50610db3565b610e2e915060203d81116107305761072281836143c9565b38610e10565b6040513d85823e3d90fd5b50346104c65760203660031901126104c657610e596143eb565b6001600160a01b03908160185416330361057657168015610572576080817f943e9d45a11aaae5d87503e3bc248665d9807856e5cf2bdb4a988bee44422781926001600160a01b031960195416176019556040519060408252600360408301527f646576000000000000000000000000000000000000000000000000000000000060608301526020820152a180f35b50346104c657806003193601126104c657604051602180548083529083526020808301937f3a6357012c1a3ae0a17d304c9920310382d968ebcc4b1771f41c6b304205b57092915b828210610f5757610f5385610f47818903826143c9565b60405191829182614487565b0390f35b83546001600160a01b031686529485019460019384019390910190610f30565b50346104c6576101a03660031901126104c657604051610f9681614373565b610f9e6143eb565b8152602435602082015260443560408201526064356060820152608435608082015260a43580151581036112485760a082015260c43560c082015260e43560e08201526101043561010082015261012435610120820152610144356101408201526101643561016082015261018435610180820152338252603360205260ff604083205416806111d7575b15610572576110476001600160a01b03825116602083015190614fcd565b604082015243610160820152602854680100000000000000008110156111c357806001611077920160285561443d565b6111b0576001600160a01b038251166001600160a01b0319825416178155602082015160018201556040820151600282015560608201516003820155608082015160048201556110dc60a08301511515600583019060ff801983541691151516179055565b60c0820151600682015560e0820151600782015561010082015160088201556101208201516009820155610140820151600a820155610160820151600b820155600c610180830151910155602854600019810190811161119c576001600160a01b03825116835260266020526040832060208301518452602052604083206040830151845260205260408320556001600160a01b03815116825260276020526020604083209101518252602052604081206111978154614658565b905580f35b602483634e487b7160e01b81526011600452fd5b602483634e487b7160e01b815280600452fd5b602483634e487b7160e01b81526041600452fd5b50604460206001600160a01b036004541660405192838092632474521560e21b825260008051602061512a83398151915260048301523360248301525afa908115610e34578391611229575b50611029565b611242915060203d6020116107305761072281836143c9565b38611223565b600080fd5b50346104c657806003193601126104c6576001600160a01b038060185416330361057257818160045416826019541690601a5490803b15610742576040516340c10f1960e01b8082526001600160a01b03949094166004820152602481019290925283908290604490829084905af1908115610e3457839161144f575b5050826004541690836018541691601c5490803b1561144b576040519283526001600160a01b0393909316600483015260248201529082908290604490829084905af18015610ab257611437575b505061133461132c601a54601c5490614b40565b601f54614b40565b601f55601854601d5460405163a9059cbb60e01b8082529284166001600160a01b0316600482015260248101919091526020929091738f3cf7ad23cd3cadbd9735aff958023239c6a063848460448189855af192831561142c576113ce94869461140f575b506019541686601b549360405196879586948593845260048401602090939291936001600160a01b0360408201951681520152565b03925af18015610e34576113f1575b8280601a5580601c5580601b5580601d5580f35b8161140792903d106107305761072281836143c9565b5038806113dd565b61142590853d87116107305761072281836143c9565b5038611399565b6040513d88823e3d90fd5b61144090614343565b610572578138611318565b8480fd5b61145890614343565b6105725781386112ca565b50346104c65760803660031901126104c65760243590611481614478565b9060643591821592831503611248573382526020936033855260ff604084205416806115e6575b1561057657602490856001600160a01b03855416604051938480927fe21e5fe000000000000000000000000000000000000000000000000000000000825260043560048301525afa9182156107375784926115b7575b508181029181830414901517156115a1576402540be400606491040492611597575b156115745761153182601d54614b40565b601d5561154082601b54614b40565b601b555b8160011b91808304600214901517156115605750604051908152f35b80634e487b7160e01b602492526011600452fd5b61158082601c54614b40565b601c5561158f82601a54614b40565b601a55611544565b9160011c91611520565b634e487b7160e01b600052601160045260246000fd5b9091508581813d83116115df575b6115cf81836143c9565b81010312611248575190386114fe565b503d6115c5565b506044856001600160a01b036004541660405192838092632474521560e21b825260008051602061512a83398151915260048301523360248301525afa908115610737578491611637575b506114a8565b61164e9150863d88116107305761072281836143c9565b38611631565b50346104c65760203660031901126104c65761166e6143eb565b601854906001600160a01b03908183163303610742571690811561057657817f943e9d45a11aaae5d87503e3bc248665d9807856e5cf2bdb4a988bee44422781926001600160a01b031960809316176018556040519060408252600360408301527f676f76000000000000000000000000000000000000000000000000000000000060608301526020820152a180f35b50346104c65760403660031901126104c657602435801515810361124857338252603360205260ff60408320541680611743575b1561057257610dc190600435614903565b50604460206001600160a01b036004541660405192838092632474521560e21b825260008051602061512a83398151915260048301523360248301525afa908115610e34578391611795575b50611732565b6117ad915060203d81116107305761072281836143c9565b3861178f565b50346104c65736600319016102208112610572576101e0136104c6576040516117db81614357565b6117e4366145b9565b815260206101443581830152604082016101643581526060830190610184358252608084016101a435815260a08501926101c43584526101e4359361020435928315158403611248573389526033875260ff60408a205416806119ef575b156119eb576001600160a01b039586895151168a52602b885260408a20805490680100000000000000008210156119d75761188782849260016118a0950181556145a1565b90919082549060031b91821b91600019901b1916179055565b89526029875260408920928851956101208888511697886001600160a01b03198854161787558a810151600188015560408101516002880155606081015160038801556080810151600488015560a0810151600588015561191660c08201511515600689019060ff801983541691151516179055565b60e0810151600788015561010081015160088801550151600986015551600b85015551600c84015551600d83015551600e820155600a4391015560001461197c5750825151168352602c8152806040842092510151835252604081206111978154614658565b8452602d8252604084208284510151855282526040842061199d8154614658565b9055825151168352602481526040832081835101518452815260408084209251015183525260056040822001600160ff1982541617905580f35b60248c634e487b7160e01b81526041600452fd5b8880fd5b506044876001600160a01b036004541660405192838092632474521560e21b825260008051602061512a83398151915260048301523360248301525afa908115611a5d578a91611a40575b50611842565b611a579150883d8a116107305761072281836143c9565b38611a3a565b6040513d8c823e3d90fd5b50346104c65760203660031901126104c657600435906021548210156104c65760206001600160a01b038360216000527f3a6357012c1a3ae0a17d304c9920310382d968ebcc4b1771f41c6b304205b570015416604051908152f35b50346104c6576102003660031901126104c657611ae0366145b9565b60c03661014319011261057257604051611af981614357565b6101443581526101643560208201526101843560408201526101a43560608201526101c43560808201526101e43580151581036112485760a0820152338352603360205260ff60408420541680611e2c575b1561057657611b696001600160a01b03835116602084015190614f61565b60408301526001600160a01b038251168352602360205260408320602083015184526020526040832060408301518452602052604083206001600160a01b0383511690816001600160a01b03198254161781556020840151600182015560408401516002820155606084015160038201556080840151600482015560a08401516005820155611c0d60c08501511515600683019060ff801983541691151516179055565b60e084015160078201556101008401516008820155600961012085015191015583526025602052604083206020830151845260205260408320611c508154614658565b9055438352603160205260408320611c688154614658565b90556001600160a01b038251168352602560205260408320602083015184526020526001604084205414611d6f575b611887610dc1928460a08401526001600160a01b038151168552602460205260408520602082015186526020526040852060408201518652602052611d22604086208451815560208501516001820155600560a060408701519687600285015560608101516003850155608081015160048501550151151591019060ff801983541691151516179055565b602081015160c09091015115611d665760ff60005b16906000526030602052611d60604060002093611d54838661442d565b90549060031b1c614b40565b9261442d565b60ff6001611d37565b60208201518352602e60205260408320546001600160a01b038351168452602f6020526040842060208401518552602052604084205560208201518352602e602052604083206001600160a01b0383511692815468010000000000000000811015611e1657610dc194611dee82611887956001611e0e950181556145a1565b90919082549060031b916001600160a01b03809116831b921b1916179055565b925050611c97565b634e487b7160e01b600052604160045260246000fd5b50604460206001600160a01b036004541660405192838092632474521560e21b825260008051602061512a83398151915260048301523360248301525afa908115610737578491611e7e575b50611b4b565b611e97915060203d6020116107305761072281836143c9565b38611e78565b50346104c657806003193601126104c6576020600f54604051908152f35b50346104c65760403660031901126104c657611ed56143eb565b6001600160a01b03168152602b60205260408120805460243592908310156104c6576020611f0384846145a1565b90546040519160031b1c8152f35b50346104c657611f20366144cb565b9183610180604051611f3181614373565b8281528260208201528260408201528260608201528260808201528260a08201528260c08201528260e0820152826101008201528261012082015282610140820152826101608201520152611f87838383615014565b15610742576101a093611fca93611fc4936001600160a01b036040941683526026602052838320908352602052828220908252602052205461443d565b5061508a565b61205f60405180926001600160a01b0381511682526020810151602083015260408101516040830152606081015160608301526080810151608083015260a0810151151560a083015260c081015160c083015260e081015160e0830152610100808201519083015261012080820151908301526101408082015190830152610160808201519083015261018080910151910152565bf35b50346104c65760403660031901126104c65760406020916001600160a01b036120886143eb565b168152602d8352818120602435825283522054604051908152f35b50346104c6576101a03660031901126104c657338152603360205260ff604082205416806120d9575b156104c657610dc1614b4d565b50604460206001600160a01b036004541660405192838092632474521560e21b825260008051602061512a83398151915260048301523360248301525afa908115610ab257829161212b575b506120cc565b612143915060203d81116107305761072281836143c9565b38612125565b50346104c65760203660031901126104c65760406101e091600435815260296020522061217581614523565b90600a81015490600b810154600c82015490600e600d84015493015493604051956001600160a01b0381511687526020810151602088015260408101516040880152606081015160608801526080810151608088015260a081015160a088015260c0810151151560c088015260e081015160e0880152610100808201519088015261012080910151908701526101408601526101608501526101808401526101a08301526101c0820152f35b50346104c657612230366144cb565b90338452603360205260ff60408520541680612255575b1561074257610dc192614c10565b50604460206001600160a01b036004541660405192838092632474521560e21b825260008051602061512a83398151915260048301523360248301525afa9081156122c55785916122a7575b50612247565b6122bf915060203d81116107305761072281836143c9565b386122a1565b6040513d87823e3d90fd5b50346104c657806003193601126104c65760206040516402540be4008152f35b50346104c65760203660031901126104c65760406020916004358152603283522054604051908152f35b50346104c65760203660031901126104c6576123346143eb565b6001600160a01b03908160185416330361057657168015610572576080817f943e9d45a11aaae5d87503e3bc248665d9807856e5cf2bdb4a988bee44422781926001600160a01b031960025416176002556040519060408252600760408301527f74726164696e670000000000000000000000000000000000000000000000000060608301526020820152a180f35b50346104c6576101409060406123d8366144cb565b906001600160a01b039492948095168352602360205283832090835260205282822090825260205220908154169060018101549060028101546003820154600483015460058401549060ff600686015416926007860154946009600888015497015497604051998a5260208a015260408901526060880152608087015260a0860152151560c085015260e0840152610100830152610120820152f35b50346104c657612483366144f5565b91338552603360205260ff604086205416806124a8575b1561144b57610dc193614e41565b50604460206001600160a01b036004541660405192838092632474521560e21b825260008051602061512a83398151915260048301523360248301525afa90811561142c5786916124fa575b5061249a565b612512915060203d81116107305761072281836143c9565b386124f4565b50346104c65760403660031901126104c6576125326143eb565b61253a614401565b90338352603360205260ff604084205416806125cd575b15610576576001600160a01b0380911691828452602260205260408420928282169081151591826125be575b826125b3575b5050156125a457600190925b0191166001600160a01b031982541617905580f35b5060018181840154169261258f565b141590503880612583565b6001860154851615925061257d565b50604460206001600160a01b036004541660405192838092632474521560e21b825260008051602061512a83398151915260048301523360248301525afa90811561073757849161261f575b50612551565b612637915060203d81116107305761072281836143c9565b38612619565b50346104c65760403660031901126104c65760406020916001600160a01b036126646143eb565b168152602c8352818120602435825283522054604051908152f35b50346104c65760203660031901126104c6576004358152602a602052604081206001600160a01b03808254169160018101549160028201541660038201549060ff600560048501549401541693604051958652602086015260408501526060840152608083015260048110156126fa5760c0925060a0820152f35b602483634e487b7160e01b81526021600452fd5b50346104c65760403660031901126104c65760406020916001600160a01b036127356143eb565b16815260278352818120602435825283522054604051908152f35b50346104c65760203660031901126104c65760609060406001600160a01b0391826127796143eb565b16815260226020522060028154926001830154169101549060405192835260208301526040820152f35b50346104c657806003193601126104c65760206001600160a01b0360195416604051908152f35b50346104c6576127d9366144cb565b90338452603360205260ff604085205416806127fe575b1561074257610dc192614674565b50604460206001600160a01b036004541660405192838092632474521560e21b825260008051602061512a83398151915260048301523360248301525afa9081156122c5578591612850575b506127f0565b612868915060203d81116107305761072281836143c9565b3861284a565b50346104c657604060c0916001600160a01b0361288a366144cb565b929091168352602460205283832090835260205282822090825260205220805490600181015490600281015460038201549060ff6005600485015494015416936040519586526020860152604085015260608401526080830152151560a0820152f35b50346104c65760203660031901126104c6576004356001600160a01b03601854163303610572578015610572576080817f8cf3e35f6221b16e1670a3413180c9484bf5aa71787905909fa82a6a2662e9ab92600d556040519060408252601160408301527f6d6178547261646573506572426c6f636b00000000000000000000000000000060608301526020820152a180f35b50346104c657806003193601126104c6576020601154604051908152f35b50346104c657806003193601126104c6576028549067ffffffffffffffff8211612b095790604051906020916129d9838360051b01826143c9565b8181526028845282810191847fe16da923a2d88192e5070f37b4571d58682c0d66212ec634d495f33de3f77ab5845b838310612ae257505050506040519280840191818552518092526040840192945b828110612a365784840385f35b909192826101a082612ad36001948a516001600160a01b0381511682526020810151602083015260408101516040830152606081015160608301526080810151608083015260a0810151151560a083015260c081015160c083015260e081015160e0830152610100808201519083015261012080820151908301526101408082015190830152610160808201519083015261018080910151910152565b01960191019492919094612a29565b600d87600192612af6859b9a98999b61508a565b8152019201920191909694939596612a08565b80634e487b7160e01b602492526041600452fd5b50346104c657366003190160e081126105725760c0136104c657604051612b4381614357565b612b4b6143eb565b81526020808201916024358352604435926001600160a01b039384811681036112485760408301908152606083019060643582526080840192608435845260a4359660048810156119eb5760a086019788523389526033875260ff60408a20541680612c17575b156119eb57602a60059760c4358b52528060408a20965116916001600160a01b03199283885416178755516001870155600286019251169082541617905551600383015551600482015501905160048110156126fa5760ff8019835416911617905580f35b50604487826004541660405192838092632474521560e21b825260008051602061512a83398151915260048301523360248301525afa908115611a5d578a91612c61575b50612bb2565b612c789150883d8a116107305761072281836143c9565b38612c5b565b50346104c657806003193601126104c6576020600e54604051908152f35b50346104c657612cab366144f5565b91338552603360205260ff60408620541680612cd0575b1561144b57610dc193614e9f565b50604460206001600160a01b036004541660405192838092632474521560e21b825260008051602061512a83398151915260048301523360248301525afa90811561142c578691612d22575b50612cc2565b612d3a915060203d81116107305761072281836143c9565b38612d1c565b50346104c657602080600319360112610572576004356001600160a01b03808216809203610742578060185416330361074257806002541660405184816004817fb187bd2600000000000000000000000000000000000000000000000000000000958682525afa92831561142c5785918794612ecd575b5083612e83575b50505015612e3f578015610576577f943e9d45a11aaae5d87503e3bc248665d9807856e5cf2bdb4a988bee4442278191816080926001600160a01b031960045416176004556040519160408352600560408401527f746f6b656e0000000000000000000000000000000000000000000000000000006060840152820152a180f35b6064826040519062461bcd60e51b82526004820152600a60248201527f4e4f545f504155534544000000000000000000000000000000000000000000006044820152fd5b90919250600354169160046040518094819382525afa908115610737578491612eb0575b50388381612dbe565b612ec79150833d85116107305761072281836143c9565b38612ea7565b612ee5919450823d84116107305761072281836143c9565b9238612db7565b50346104c657806003193601126104c6576020600d54604051908152f35b50346104c657612f1936614417565b903383526020916033835260ff60408520541680612f4e575b1561074257611197918452603283524360408520558254614b40565b506044836001600160a01b036004541660405192838092632474521560e21b825260008051602061512a83398151915260048301523360248301525afa9081156122c5578591612f9f575b50612f32565b612fb69150843d86116107305761072281836143c9565b38612f99565b50346104c65760603660031901126104c657612fd66143eb565b612fde614401565b90604435903384526020926033845260ff604086205416806130b9575b1561144b5783916001600160a01b0381163003613082575060405163a9059cbb60e01b81526001600160a01b03909116600482015260248101929092528180604481015b038186738f3cf7ad23cd3cadbd9735aff958023239c6a0635af18015610e345761306857505080f35b8161307e92903d106107305761072281836143c9565b5080f35b6040516323b872dd60e01b81526001600160a01b03918216600482015291166024820152604481019290925281806064810161303f565b506044846001600160a01b036004541660405192838092632474521560e21b825260008051602061512a83398151915260048301523360248301525afa90811561142c57869161310a575b50612ffb565b6131219150853d87116107305761072281836143c9565b38613104565b50346104c657806003193601126104c6576020601f54604051908152f35b50346104c65760203660031901126104c65760ff60406020926001600160a01b0361316e6143eb565b168152603384522054166040519015158152f35b50346104c65760203660031901126104c65761319c6143eb565b6001600160a01b039081601854163303610576571680156105725760215468010000000000000000811015611e16576001810180602155811015613240577fd1be2e90bd3d24839d9dd94ad871068e1f9688b02fa43f2a62c9975dfa9de2d79160209160216000527f3a6357012c1a3ae0a17d304c9920310382d968ebcc4b1771f41c6b304205b57001816001600160a01b0319825416179055604051908152a180f35b634e487b7160e01b600052603260045260246000fd5b50346104c65760203660031901126104c65760406020916001600160a01b0361327d6143eb565b168152602283522054604051908152f35b50346104c65760203660031901126104c6576132a86143eb565b6001600160a01b03908160185416330361057657168015610572576080817f943e9d45a11aaae5d87503e3bc248665d9807856e5cf2bdb4a988bee44422781926001600160a01b0319600a541617600a556040519060408252600560408301527f7661756c7400000000000000000000000000000000000000000000000000000060608301526020820152a180f35b50346104c657613346366144cb565b91903384526020926033845260ff6040862054168061345f575b1561144b576001600160a01b0385541690604051927fb9e0336f000000000000000000000000000000000000000000000000000000008452600484015260248301528382604481845afa9283156122c5578492869461342e575b506040516323b872dd60e01b81526001600160a01b039182166004820152911660248201526044810192909252816064818673b0897686c545045afc77cf20ec7a532e3120e0f15af18015610e3457613411578280f35b8161342792903d106107305761072281836143c9565b5038808280f35b8381949295503d8311613458575b61344681836143c9565b810103126112485783915192386133ba565b503d61343c565b506044846001600160a01b036004541660405192838092632474521560e21b825260008051602061512a83398151915260048301523360248301525afa90811561142c5786916134b0575b50613360565b6134c79150853d87116107305761072281836143c9565b386134aa565b50346104c657602080600319360112610572576004358252602e815260408220916040518092808554928381520194835280832092905b82821061351b57610f5385610f47818903826143c9565b83546001600160a01b031686529485019460019384019390910190613504565b50346104c657602080600319360112610572576001600160a01b0361355e6143eb565b168252602b81526040822060405192838383549182815201908193835284832090835b8181106135d557505050846135979103856143c9565b60405193838594850191818652518092526040850193925b8281106135be57505050500390f35b8351855286955093810193928101926001016135af565b825484529286019260019283019201613581565b50346104c65760203660031901126104c6576136036143eb565b6001600160a01b03908160185416330361057657168015610572576020817ff9cf924d7d98e6e0a27ec523cd7214b0bbdfaba197018b33b41a702f5238190e928452603382526040842060ff198154169055604051908152a180f35b50346104c657806003193601126104c65760208054604051908152f35b50346104c657806003193601126104c6576020601054604051908152f35b50346104c657806003193601126104c65760a06040516136b9816143ad565b36903760405190601381835b600582106137035783856136d8816143ad565b6040519190825b600583106136ec5760a084f35b6001908251815260208091019201920191906136df565b60016020819285548152019301910190916136c5565b50346104c65760603660031901126104c6576137336143eb565b8160243591613740614478565b338352603360205260ff6040842054168061386a575b1561057657156137d8576001600160a01b0360045416803b15610576576040516340c10f1960e01b81526001600160a01b039290921660048301526024820184905282908290604490829084905af18015610ab2576137c4575b50506137be90601f54614b40565b601f5580f35b6137cd90614343565b6105725781386137b0565b906001600160a01b036004541691823b15610572576040517f9dc29fac0000000000000000000000000000000000000000000000000000000081526001600160a01b0391909116600482015260248101849052918290604490829084905af18015610e3457613855575b5061384f90601e54614b40565b601e5580f35b9161386361384f9293614343565b9190613842565b50604460206001600160a01b036004541660405192838092632474521560e21b825260008051602061512a83398151915260048301523360248301525afa9081156107375784916138bc575b50613756565b6138d4915060203d81116107305761072281836143c9565b386138b6565b50346104c65760203660031901126104c65760406020916004358152603183522054604051908152f35b50346104c65760203660031901126104c65761391e6143eb565b6001600160a01b03908160185416330361057657168015610572576080817f943e9d45a11aaae5d87503e3bc248665d9807856e5cf2bdb4a988bee44422781926001600160a01b03198554161784556040519060408252600f60408301527f707269636541676772656761746f72000000000000000000000000000000000060608301526020820152a180f35b50346104c65760203660031901126104c6576139c56143eb565b6001600160a01b03908160185416330361057657168015610572576080817f943e9d45a11aaae5d87503e3bc248665d9807856e5cf2bdb4a988bee44422781926001600160a01b0319600b541617600b556040519060408252600e60408301527f746f6b656e446169526f7574657200000000000000000000000000000000000060608301526020820152a180f35b50346104c65760403660031901126104c6576020613a7c613a736143eb565b60243590614fcd565b604051908152f35b50346104c65760203660031901126104c657613a9e6143eb565b6001600160a01b03908160185416330361057657168015610572576080817f943e9d45a11aaae5d87503e3bc248665d9807856e5cf2bdb4a988bee44422781926001600160a01b031960015416176001556040519060408252600460408301527f706f6f6c0000000000000000000000000000000000000000000000000000000060608301526020820152a180f35b50346104c65760403660031901126104c65760406020916001600160a01b03613b546143eb565b168152602f8352818120602435825283522054604051908152f35b50346104c65760203660031901126104c6576004356001600160a01b03601854163303610572578015610572576080817f8cf3e35f6221b16e1670a3413180c9484bf5aa71787905909fa82a6a2662e9ab926011556040519060408252601760408301527f64656661756c744c65766572616765556e6c6f636b656400000000000000000060608301526020820152a180f35b50346104c65760203660031901126104c65760043560058110156105725760209060130154604051908152f35b50346104c65760203660031901126104c657602090600160406001600160a01b039283613c5a6143eb565b1681526022855220015416604051908152f35b50346104c65760203660031901126104c657600435906028548210156104c6576101a0613c998361443d565b506001600160a01b038154169060018101549060028101546003820154600483015460ff6005850154166006850154600786015491600887015493600988015495600a89015497600c600b8b01549a01549a6040519c8d5260208d015260408c015260608b015260808a0152151560a089015260c088015260e0870152610100860152610120850152610140840152610160830152610180820152f35b50346104c657806003193601126104c6576001600160a01b036020915416604051908152f35b50346104c65760403660031901126104c6576020613a7c613d7b6143eb565b60243590614f61565b50346104c657613d9336614417565b919081526030602052604081209060038310156104c6576020613db6848461442d565b90549060031b1c604051908152f35b50346104c65760403660031901126104c657613ddf6143eb565b338252603360205260ff60408320541680613e15575b15610572576001600160a01b031681526022602052602435604082205580f35b50604460206001600160a01b036004541660405192838092632474521560e21b825260008051602061512a83398151915260048301523360248301525afa908115610e34578391613e67575b50613df5565b613e7f915060203d81116107305761072281836143c9565b38613e61565b50346104c65760203660031901126104c6576004359060058210156104c65760206001600160a01b03836005015416604051908152f35b50346104c65760403660031901126104c657613ed66143eb565b338252603360205260ff60408320541680613f15575b15610572576001600160a01b031681526022602052600260408220016111976024358254614b40565b50604460206001600160a01b036004541660405192838092632474521560e21b825260008051602061512a83398151915260048301523360248301525afa908115610e34578391613f67575b50613eec565b613f7f915060203d81116107305761072281836143c9565b38613f61565b50346104c657602080600319360112610572573382526033815260ff60408320541680613fe2575b1561057257602a9060043583525280600560408220828155826001820155826002820155826003820155826004820155015580f35b506044816001600160a01b036004541660405192838092632474521560e21b825260008051602061512a83398151915260048301523360248301525afa908115610e34578391614033575b50613fad565b61404a9150823d84116107305761072281836143c9565b3861402d565b50346104c65760403660031901126104c65760406020916001600160a01b036140776143eb565b16815260258352818120602435825283522054604051908152f35b50346104c657806003193601126104c6576020601d54604051908152f35b50346104c657806003193601126104c65760206001600160a01b0360015416604051908152f35b50346104c65760203660031901126104c6576004356001600160a01b036018541633036105725761012c8110610572576080817f8cf3e35f6221b16e1670a3413180c9484bf5aa71787905909fa82a6a2662e9ab92600f556040519060408252600860408301527f6d61784761696e5000000000000000000000000000000000000000000000000060608301526020820152a180f35b50346104c657806003193601126104c65760206001600160a01b0360185416604051908152f35b50346104c65760203660031901126104c6576004356001600160a01b036018541633036105725760328110610572576080817f8cf3e35f6221b16e1670a3413180c9484bf5aa71787905909fa82a6a2662e9ab926010556040519060408252600660408301527f6d6178536c50000000000000000000000000000000000000000000000000000060608301526020820152a180f35b50346104c65760a03660031901126104c65736602312156104c65760405190614251826143ad565b8160a4368111610576576004915b8183106142fe575050506001600160a01b0380601854163303610572578083511615610572578290825b600592838210156142aa579081816020856001955116920195015501614289565b6040518590848883835b600582106142e557857f89a3bfeda71ede5f8735aa09127c97cd56aa3803356c52f7c30caf418238b46460a087a180f35b60019084845116815260208091019301910190916142b4565b82356001600160a01b038116810361144b5781526020928301920161425f565b9050346105725781600319360112610572576020906001600160a01b03600354168152f35b67ffffffffffffffff8111611e1657604052565b60c0810190811067ffffffffffffffff821117611e1657604052565b6101a0810190811067ffffffffffffffff821117611e1657604052565b610140810190811067ffffffffffffffff821117611e1657604052565b60a0810190811067ffffffffffffffff821117611e1657604052565b90601f8019910116810190811067ffffffffffffffff821117611e1657604052565b600435906001600160a01b038216820361124857565b602435906001600160a01b038216820361124857565b6040906003190112611248576004359060243590565b6003821015613240570190600090565b60285481101561324057600d906028600052027fe16da923a2d88192e5070f37b4571d58682c0d66212ec634d495f33de3f77ab50190600090565b60443590811515820361124857565b6020908160408183019282815285518094520193019160005b8281106144ae575050505090565b83516001600160a01b0316855293810193928101926001016144a0565b6060906003190112611248576004356001600160a01b038116810361124857906024359060443590565b6080906003190112611248576004356001600160a01b03811681036112485790602435906044359060643590565b9060405161453081614390565b610120600982946001600160a01b03815416845260018101546020850152600281015460408501526003810154606085015260048101546080850152600581015460a085015260ff600682015416151560c0850152600781015460e085015260088101546101008501520154910152565b80548210156132405760005260206000200190600090565b61014090600319011261124857604051906145d382614390565b816004356001600160a01b0381168103611248578152602435602082015260443560408201526064356060820152608435608082015260a43560a082015260c43580151581036112485760c082015260e43560e08201526101043561010082015261012061012435910152565b90816020910312611248575180151581036112485790565b60001981146115a15760010190565b80156115a1576000190190565b9291906001600160a01b03809416600091818352602091602383526040948585208386528452858520818652845285852082865260248552868620848752855286862082875285528686206007820154156148f7576006600260ff920154920154166000146148ee5760ff865b16848752603086528787206146f6828261442d565b90549060031b1c9283039283116148da5761471592916118879161442d565b818552602584528585208386528452600186862054146147fa575b84959697508160319552602384528686208387528452868620818752845261479087872060096000918281558260018201558260028201558260038201558260048201558260058201558260068201558260078201558260088201550155565b8186526024845286862083875284528686209086528352846005878220828155826001820155826002820155826003820155826004820155015584526025825284842090845281528383206147e58154614667565b905543835252206147f68154614658565b9055565b818552602f8452858520838652845285852054602e855286862080546000199a92908b81019081116148c6578361483461484692856145a1565b90549060031b1c16611dee83856145a1565b8261485182846145a1565b90549060031b1c168852602f8752888820868952875288882055838752602f8652878720858852865286888120558054998a156148b25760319798999a019161489a83836145a1565b909182549160031b1b19169055558796959450614730565b602488634e487b7160e01b81526031600452fd5b602489634e487b7160e01b81526011600452fd5b602488634e487b7160e01b81526011600452fd5b60ff60016146e1565b50505050505050509050565b6000908082526029926020908482526040908185209382519261492584614357565b61492e86614523565b97888552600a958688015481870152600b938489015484880152600c95868a01546060890152600d97888b01546080820152600e809b015460a08201526001600160a01b03809d51168c52602b8452858c20908c5b8254811015614b2f578461499782856145a1565b919054600392831b1c146149b457506149af90614658565b614983565b9495969798999a9b9c9d9e8f9193948a90600014614ad25750825151169052602c86528d868982209251015190528552868d206149f18154614667565b90555b81546000199190828101908111614abe5790611887614a16614a2393866145a1565b905490871b1c91856145a1565b81548015614aaa57938d9a9997938b99969293848b99958a980192614a4884846145a1565b81939154921b1b1916905555845252812097614a9a8960096000918281558260018201558260028201558260038201558260048201558260058201558260068201558260078201558260088201550155565b8801558601558401558201550155565b60248e634e487b7160e01b81526031600452fd5b60248f634e487b7160e01b81526011600452fd5b91909283600594825151168352602d8a528383208a8351015184528a52838320614afc8154614667565b90558151511682526024895282822081518a0151835289528282209051830151825288522001805460ff191690556149f4565b505050505050505050505050505050565b919082018092116115a157565b6004356001600160a01b0381169081810361124857614b7790602435918291604435938491615014565b15614c0b57600092835260266020526040832090835260205260408220908252602052614ba7604082205461443d565b5090606435600383015560a4359081151582036104c65750614bd890600583019060ff801983541691151516179055565b60c435600682015560e435600782015561010435600882015561012435600982015561014435600a820155600b43910155565b505050565b90614c1c838284615014565b15614c0b576001600160a01b038092169160009280845260209160268352604095868620858752845286862081875284528686205460285492600019938481019081116148c657614c6c9061443d565b50614c768361443d565b919091614e2e57808203614d87575b5050614c908261443d565b5054168752602685528787206001614ca78361443d565b500154885285528787206002614cbc8361443d565b5001548852855287872055828652602684528686208587528452868620908652835284868120556028548015614d735701614cf68161443d565b614d6057600c818780935582600182015582600282015582600382015582600482015582600582015582600682015582600782015582600882015582600982015582600a82015582600b820155015560285583526027815283832091835252206147f68154614667565b602486634e487b7160e01b815280600452fd5b602486634e487b7160e01b81526031600452fd5b600c8184829354166001600160a01b031985541617845560018101546001850155600281015460028501556003810154600385015560048101546004850155614de660ff600583015416600586019060ff801983541691151516179055565b60068101546006850155600781015460078501556008810154600885015560098101546009850155600a810154600a850155600b810154600b85015501549101553880614c85565b60248a634e487b7160e01b815280600452fd5b6001600160a01b0390939293169260009084825260206023815260409384842081855282528484208385528252848420968452602482528484209084528152838320918352522091600781015415614c0b5760090155600443910155565b6001600160a01b0390939293169260009084825260206023815260409384842081855282528484208385528252848420968452602482528484209084528152838320918352522091600781015415614c0b5760080155600343910155565b60406001600160a01b038251166000908152602360205281812060208401518252602052818120828401518252602052206007810191825415614c0b5760e0916060820151600382015560808201516004820155600560a083015191015501519055565b600c546000939290918490815b848110614f7d575b5050505050565b6001600160a01b03821683526007602060238152604090818620878752815281862090848752528420015415614fbb57614fb690614658565b614f6e565b94955050505050903880808080614f76565b600c54600093929091845b838110614fe6575b50505050565b614ff1818484615014565b1561500457614fff90614658565b614fd8565b9394505050509038808080614fe0565b91909160285415615082576001600160a01b03809116615052604060008381526026602052818120878252602052818120868252602052205461443d565b5091825416149283615074575b508261506a57505090565b6002015414919050565b60018201541492503861505f565b505050600090565b9060405161509781614373565b610180600c82946001600160a01b0381541684526001810154602085015260028101546040850152600381015460608501526004810154608085015260ff600582015416151560a0850152600681015460c0850152600781015460e085015260088101546101008501526009810154610120850152600a810154610140850152600b810154610160850152015491015256fe9f2df0fed2c77648de5860a4cc508cd0818c85b8b8a1ab4ceeef8d981c8956a6a2646970667358221220638646cd72ebba5485dfff7bc819811ec3e604796b892bb31660177c5590dc9864736f6c63430008140033",
  "libraries": {},
  "devdoc": {
    "kind": "dev",
    "methods": {},
    "version": 1
  },
  "userdoc": {
    "kind": "user",
    "methods": {},
    "version": 1
  },
  "storageLayout": {
    "storage": [
      {
        "astId": 6944,
        "contract": "contracts/contracts/GFarmTradingStorageV5.sol:GFarmTradingStorageV5",
        "label": "priceAggregator",
        "offset": 0,
        "slot": "0",
        "type": "t_contract(AggregatorInterfaceV5)19911"
      },
      {
        "astId": 6947,
        "contract": "contracts/contracts/GFarmTradingStorageV5.sol:GFarmTradingStorageV5",
        "label": "pool",
        "offset": 0,
        "slot": "1",
        "type": "t_contract(PoolInterfaceV5)21201"
      },
      {
        "astId": 6950,
        "contract": "contracts/contracts/GFarmTradingStorageV5.sol:GFarmTradingStorageV5",
        "label": "trading",
        "offset": 0,
        "slot": "2",
        "type": "t_contract(PausableInterfaceV5)21193"
      },
      {
        "astId": 6953,
        "contract": "contracts/contracts/GFarmTradingStorageV5.sol:GFarmTradingStorageV5",
        "label": "callbacks",
        "offset": 0,
        "slot": "3",
        "type": "t_contract(PausableInterfaceV5)21193"
      },
      {
        "astId": 6959,
        "contract": "contracts/contracts/GFarmTradingStorageV5.sol:GFarmTradingStorageV5",
        "label": "token",
        "offset": 0,
        "slot": "4",
        "type": "t_contract(TokenInterfaceV5)22061"
      },
      {
        "astId": 6980,
        "contract": "contracts/contracts/GFarmTradingStorageV5.sol:GFarmTradingStorageV5",
        "label": "nfts",
        "offset": 0,
        "slot": "5",
        "type": "t_array(t_contract(NftInterfaceV5)21045)5_storage"
      },
      {
        "astId": 6982,
        "contract": "contracts/contracts/GFarmTradingStorageV5.sol:GFarmTradingStorageV5",
        "label": "vault",
        "offset": 0,
        "slot": "10",
        "type": "t_address"
      },
      {
        "astId": 6984,
        "contract": "contracts/contracts/GFarmTradingStorageV5.sol:GFarmTradingStorageV5",
        "label": "tokenDaiRouter",
        "offset": 0,
        "slot": "11",
        "type": "t_address"
      },
      {
        "astId": 6987,
        "contract": "contracts/contracts/GFarmTradingStorageV5.sol:GFarmTradingStorageV5",
        "label": "maxTradesPerPair",
        "offset": 0,
        "slot": "12",
        "type": "t_uint256"
      },
      {
        "astId": 6990,
        "contract": "contracts/contracts/GFarmTradingStorageV5.sol:GFarmTradingStorageV5",
        "label": "maxTradesPerBlock",
        "offset": 0,
        "slot": "13",
        "type": "t_uint256"
      },
      {
        "astId": 6993,
        "contract": "contracts/contracts/GFarmTradingStorageV5.sol:GFarmTradingStorageV5",
        "label": "maxPendingMarketOrders",
        "offset": 0,
        "slot": "14",
        "type": "t_uint256"
      },
      {
        "astId": 6996,
        "contract": "contracts/contracts/GFarmTradingStorageV5.sol:GFarmTradingStorageV5",
        "label": "maxGainP",
        "offset": 0,
        "slot": "15",
        "type": "t_uint256"
      },
      {
        "astId": 6999,
        "contract": "contracts/contracts/GFarmTradingStorageV5.sol:GFarmTradingStorageV5",
        "label": "maxSlP",
        "offset": 0,
        "slot": "16",
        "type": "t_uint256"
      },
      {
        "astId": 7002,
        "contract": "contracts/contracts/GFarmTradingStorageV5.sol:GFarmTradingStorageV5",
        "label": "defaultLeverageUnlocked",
        "offset": 0,
        "slot": "17",
        "type": "t_uint256"
      },
      {
        "astId": 7005,
        "contract": "contracts/contracts/GFarmTradingStorageV5.sol:GFarmTradingStorageV5",
        "label": "nftSuccessTimelock",
        "offset": 0,
        "slot": "18",
        "type": "t_uint256"
      },
      {
        "astId": 7015,
        "contract": "contracts/contracts/GFarmTradingStorageV5.sol:GFarmTradingStorageV5",
        "label": "spreadReductionsP",
        "offset": 0,
        "slot": "19",
        "type": "t_array(t_uint256)5_storage"
      },
      {
        "astId": 7018,
        "contract": "contracts/contracts/GFarmTradingStorageV5.sol:GFarmTradingStorageV5",
        "label": "gov",
        "offset": 0,
        "slot": "24",
        "type": "t_address"
      },
      {
        "astId": 7021,
        "contract": "contracts/contracts/GFarmTradingStorageV5.sol:GFarmTradingStorageV5",
        "label": "dev",
        "offset": 0,
        "slot": "25",
        "type": "t_address"
      },
      {
        "astId": 7023,
        "contract": "contracts/contracts/GFarmTradingStorageV5.sol:GFarmTradingStorageV5",
        "label": "devFeesToken",
        "offset": 0,
        "slot": "26",
        "type": "t_uint256"
      },
      {
        "astId": 7025,
        "contract": "contracts/contracts/GFarmTradingStorageV5.sol:GFarmTradingStorageV5",
        "label": "devFeesDai",
        "offset": 0,
        "slot": "27",
        "type": "t_uint256"
      },
      {
        "astId": 7027,
        "contract": "contracts/contracts/GFarmTradingStorageV5.sol:GFarmTradingStorageV5",
        "label": "govFeesToken",
        "offset": 0,
        "slot": "28",
        "type": "t_uint256"
      },
      {
        "astId": 7029,
        "contract": "contracts/contracts/GFarmTradingStorageV5.sol:GFarmTradingStorageV5",
        "label": "govFeesDai",
        "offset": 0,
        "slot": "29",
        "type": "t_uint256"
      },
      {
        "astId": 7031,
        "contract": "contracts/contracts/GFarmTradingStorageV5.sol:GFarmTradingStorageV5",
        "label": "tokensBurned",
        "offset": 0,
        "slot": "30",
        "type": "t_uint256"
      },
      {
        "astId": 7033,
        "contract": "contracts/contracts/GFarmTradingStorageV5.sol:GFarmTradingStorageV5",
        "label": "tokensMinted",
        "offset": 0,
        "slot": "31",
        "type": "t_uint256"
      },
      {
        "astId": 7035,
        "contract": "contracts/contracts/GFarmTradingStorageV5.sol:GFarmTradingStorageV5",
        "label": "nftRewards",
        "offset": 0,
        "slot": "32",
        "type": "t_uint256"
      },
      {
        "astId": 7139,
        "contract": "contracts/contracts/GFarmTradingStorageV5.sol:GFarmTradingStorageV5",
        "label": "supportedTokens",
        "offset": 0,
        "slot": "33",
        "type": "t_array(t_address)dyn_storage"
      },
      {
        "astId": 7144,
        "contract": "contracts/contracts/GFarmTradingStorageV5.sol:GFarmTradingStorageV5",
        "label": "traders",
        "offset": 0,
        "slot": "34",
        "type": "t_mapping(t_address,t_struct(Trader)7047_storage)"
      },
      {
        "astId": 7153,
        "contract": "contracts/contracts/GFarmTradingStorageV5.sol:GFarmTradingStorageV5",
        "label": "openTrades",
        "offset": 0,
        "slot": "35",
        "type": "t_mapping(t_address,t_mapping(t_uint256,t_mapping(t_uint256,t_struct(Trade)7068_storage)))"
      },
      {
        "astId": 7162,
        "contract": "contracts/contracts/GFarmTradingStorageV5.sol:GFarmTradingStorageV5",
        "label": "openTradesInfo",
        "offset": 0,
        "slot": "36",
        "type": "t_mapping(t_address,t_mapping(t_uint256,t_mapping(t_uint256,t_struct(TradeInfo)7081_storage)))"
      },
      {
        "astId": 7168,
        "contract": "contracts/contracts/GFarmTradingStorageV5.sol:GFarmTradingStorageV5",
        "label": "openTradesCount",
        "offset": 0,
        "slot": "37",
        "type": "t_mapping(t_address,t_mapping(t_uint256,t_uint256))"
      },
      {
        "astId": 7176,
        "contract": "contracts/contracts/GFarmTradingStorageV5.sol:GFarmTradingStorageV5",
        "label": "openLimitOrderIds",
        "offset": 0,
        "slot": "38",
        "type": "t_mapping(t_address,t_mapping(t_uint256,t_mapping(t_uint256,t_uint256)))"
      },
      {
        "astId": 7182,
        "contract": "contracts/contracts/GFarmTradingStorageV5.sol:GFarmTradingStorageV5",
        "label": "openLimitOrdersCount",
        "offset": 0,
        "slot": "39",
        "type": "t_mapping(t_address,t_mapping(t_uint256,t_uint256))"
      },
      {
        "astId": 7186,
        "contract": "contracts/contracts/GFarmTradingStorageV5.sol:GFarmTradingStorageV5",
        "label": "openLimitOrders",
        "offset": 0,
        "slot": "40",
        "type": "t_array(t_struct(OpenLimitOrder)7108_storage)dyn_storage"
      },
      {
        "astId": 7191,
        "contract": "contracts/contracts/GFarmTradingStorageV5.sol:GFarmTradingStorageV5",
        "label": "reqID_pendingMarketOrder",
        "offset": 0,
        "slot": "41",
        "type": "t_mapping(t_uint256,t_struct(PendingMarketOrder)7122_storage)"
      },
      {
        "astId": 7196,
        "contract": "contracts/contracts/GFarmTradingStorageV5.sol:GFarmTradingStorageV5",
        "label": "reqID_pendingNftOrder",
        "offset": 0,
        "slot": "42",
        "type": "t_mapping(t_uint256,t_struct(PendingNftOrder)7136_storage)"
      },
      {
        "astId": 7201,
        "contract": "contracts/contracts/GFarmTradingStorageV5.sol:GFarmTradingStorageV5",
        "label": "pendingOrderIds",
        "offset": 0,
        "slot": "43",
        "type": "t_mapping(t_address,t_array(t_uint256)dyn_storage)"
      },
      {
        "astId": 7207,
        "contract": "contracts/contracts/GFarmTradingStorageV5.sol:GFarmTradingStorageV5",
        "label": "pendingMarketOpenCount",
        "offset": 0,
        "slot": "44",
        "type": "t_mapping(t_address,t_mapping(t_uint256,t_uint256))"
      },
      {
        "astId": 7213,
        "contract": "contracts/contracts/GFarmTradingStorageV5.sol:GFarmTradingStorageV5",
        "label": "pendingMarketCloseCount",
        "offset": 0,
        "slot": "45",
        "type": "t_mapping(t_address,t_mapping(t_uint256,t_uint256))"
      },
      {
        "astId": 7218,
        "contract": "contracts/contracts/GFarmTradingStorageV5.sol:GFarmTradingStorageV5",
        "label": "pairTraders",
        "offset": 0,
        "slot": "46",
        "type": "t_mapping(t_uint256,t_array(t_address)dyn_storage)"
      },
      {
        "astId": 7224,
        "contract": "contracts/contracts/GFarmTradingStorageV5.sol:GFarmTradingStorageV5",
        "label": "pairTradersId",
        "offset": 0,
        "slot": "47",
        "type": "t_mapping(t_address,t_mapping(t_uint256,t_uint256))"
      },
      {
        "astId": 7230,
        "contract": "contracts/contracts/GFarmTradingStorageV5.sol:GFarmTradingStorageV5",
        "label": "openInterestDai",
        "offset": 0,
        "slot": "48",
        "type": "t_mapping(t_uint256,t_array(t_uint256)3_storage)"
      },
      {
        "astId": 7234,
        "contract": "contracts/contracts/GFarmTradingStorageV5.sol:GFarmTradingStorageV5",
        "label": "tradesPerBlock",
        "offset": 0,
        "slot": "49",
        "type": "t_mapping(t_uint256,t_uint256)"
      },
      {
        "astId": 7238,
        "contract": "contracts/contracts/GFarmTradingStorageV5.sol:GFarmTradingStorageV5",
        "label": "nftLastSuccess",
        "offset": 0,
        "slot": "50",
        "type": "t_mapping(t_uint256,t_uint256)"
      },
      {
        "astId": 7242,
        "contract": "contracts/contracts/GFarmTradingStorageV5.sol:GFarmTradingStorageV5",
        "label": "isTradingContract",
        "offset": 0,
        "slot": "51",
        "type": "t_mapping(t_address,t_bool)"
      }
    ],
    "types": {
      "t_address": {
        "encoding": "inplace",
        "label": "address",
        "numberOfBytes": "20"
      },
      "t_array(t_address)dyn_storage": {
        "base": "t_address",
        "encoding": "dynamic_array",
        "label": "address[]",
        "numberOfBytes": "32"
      },
      "t_array(t_contract(NftInterfaceV5)21045)5_storage": {
        "base": "t_contract(NftInterfaceV5)21045",
        "encoding": "inplace",
        "label": "contract NftInterfaceV5[5]",
        "numberOfBytes": "160"
      },
      "t_array(t_struct(OpenLimitOrder)7108_storage)dyn_storage": {
        "base": "t_struct(OpenLimitOrder)7108_storage",
        "encoding": "dynamic_array",
        "label": "struct GFarmTradingStorageV5.OpenLimitOrder[]",
        "numberOfBytes": "32"
      },
      "t_array(t_uint256)3_storage": {
        "base": "t_uint256",
        "encoding": "inplace",
        "label": "uint256[3]",
        "numberOfBytes": "96"
      },
      "t_array(t_uint256)5_storage": {
        "base": "t_uint256",
        "encoding": "inplace",
        "label": "uint256[5]",
        "numberOfBytes": "160"
      },
      "t_array(t_uint256)dyn_storage": {
        "base": "t_uint256",
        "encoding": "dynamic_array",
        "label": "uint256[]",
        "numberOfBytes": "32"
      },
      "t_bool": {
        "encoding": "inplace",
        "label": "bool",
        "numberOfBytes": "1"
      },
      "t_contract(AggregatorInterfaceV5)19911": {
        "encoding": "inplace",
        "label": "contract AggregatorInterfaceV5",
        "numberOfBytes": "20"
      },
      "t_contract(NftInterfaceV5)21045": {
        "encoding": "inplace",
        "label": "contract NftInterfaceV5",
        "numberOfBytes": "20"
      },
      "t_contract(PausableInterfaceV5)21193": {
        "encoding": "inplace",
        "label": "contract PausableInterfaceV5",
        "numberOfBytes": "20"
      },
      "t_contract(PoolInterfaceV5)21201": {
        "encoding": "inplace",
        "label": "contract PoolInterfaceV5",
        "numberOfBytes": "20"
      },
      "t_contract(TokenInterfaceV5)22061": {
        "encoding": "inplace",
        "label": "contract TokenInterfaceV5",
        "numberOfBytes": "20"
      },
      "t_enum(LimitOrder)7040": {
        "encoding": "inplace",
        "label": "enum GFarmTradingStorageV5.LimitOrder",
        "numberOfBytes": "1"
      },
      "t_mapping(t_address,t_array(t_uint256)dyn_storage)": {
        "encoding": "mapping",
        "key": "t_address",
        "label": "mapping(address => uint256[])",
        "numberOfBytes": "32",
        "value": "t_array(t_uint256)dyn_storage"
      },
      "t_mapping(t_address,t_bool)": {
        "encoding": "mapping",
        "key": "t_address",
        "label": "mapping(address => bool)",
        "numberOfBytes": "32",
        "value": "t_bool"
      },
      "t_mapping(t_address,t_mapping(t_uint256,t_mapping(t_uint256,t_struct(Trade)7068_storage)))": {
        "encoding": "mapping",
        "key": "t_address",
        "label": "mapping(address => mapping(uint256 => mapping(uint256 => struct GFarmTradingStorageV5.Trade)))",
        "numberOfBytes": "32",
        "value": "t_mapping(t_uint256,t_mapping(t_uint256,t_struct(Trade)7068_storage))"
      },
      "t_mapping(t_address,t_mapping(t_uint256,t_mapping(t_uint256,t_struct(TradeInfo)7081_storage)))": {
        "encoding": "mapping",
        "key": "t_address",
        "label": "mapping(address => mapping(uint256 => mapping(uint256 => struct GFarmTradingStorageV5.TradeInfo)))",
        "numberOfBytes": "32",
        "value": "t_mapping(t_uint256,t_mapping(t_uint256,t_struct(TradeInfo)7081_storage))"
      },
      "t_mapping(t_address,t_mapping(t_uint256,t_mapping(t_uint256,t_uint256)))": {
        "encoding": "mapping",
        "key": "t_address",
        "label": "mapping(address => mapping(uint256 => mapping(uint256 => uint256)))",
        "numberOfBytes": "32",
        "value": "t_mapping(t_uint256,t_mapping(t_uint256,t_uint256))"
      },
      "t_mapping(t_address,t_mapping(t_uint256,t_uint256))": {
        "encoding": "mapping",
        "key": "t_address",
        "label": "mapping(address => mapping(uint256 => uint256))",
        "numberOfBytes": "32",
        "value": "t_mapping(t_uint256,t_uint256)"
      },
      "t_mapping(t_address,t_struct(Trader)7047_storage)": {
        "encoding": "mapping",
        "key": "t_address",
        "label": "mapping(address => struct GFarmTradingStorageV5.Trader)",
        "numberOfBytes": "32",
        "value": "t_struct(Trader)7047_storage"
      },
      "t_mapping(t_uint256,t_array(t_address)dyn_storage)": {
        "encoding": "mapping",
        "key": "t_uint256",
        "label": "mapping(uint256 => address[])",
        "numberOfBytes": "32",
        "value": "t_array(t_address)dyn_storage"
      },
      "t_mapping(t_uint256,t_array(t_uint256)3_storage)": {
        "encoding": "mapping",
        "key": "t_uint256",
        "label": "mapping(uint256 => uint256[3])",
        "numberOfBytes": "32",
        "value": "t_array(t_uint256)3_storage"
      },
      "t_mapping(t_uint256,t_mapping(t_uint256,t_struct(Trade)7068_storage))": {
        "encoding": "mapping",
        "key": "t_uint256",
        "label": "mapping(uint256 => mapping(uint256 => struct GFarmTradingStorageV5.Trade))",
        "numberOfBytes": "32",
        "value": "t_mapping(t_uint256,t_struct(Trade)7068_storage)"
      },
      "t_mapping(t_uint256,t_mapping(t_uint256,t_struct(TradeInfo)7081_storage))": {
        "encoding": "mapping",
        "key": "t_uint256",
        "label": "mapping(uint256 => mapping(uint256 => struct GFarmTradingStorageV5.TradeInfo))",
        "numberOfBytes": "32",
        "value": "t_mapping(t_uint256,t_struct(TradeInfo)7081_storage)"
      },
      "t_mapping(t_uint256,t_mapping(t_uint256,t_uint256))": {
        "encoding": "mapping",
        "key": "t_uint256",
        "label": "mapping(uint256 => mapping(uint256 => uint256))",
        "numberOfBytes": "32",
        "value": "t_mapping(t_uint256,t_uint256)"
      },
      "t_mapping(t_uint256,t_struct(PendingMarketOrder)7122_storage)": {
        "encoding": "mapping",
        "key": "t_uint256",
        "label": "mapping(uint256 => struct GFarmTradingStorageV5.PendingMarketOrder)",
        "numberOfBytes": "32",
        "value": "t_struct(PendingMarketOrder)7122_storage"
      },
      "t_mapping(t_uint256,t_struct(PendingNftOrder)7136_storage)": {
        "encoding": "mapping",
        "key": "t_uint256",
        "label": "mapping(uint256 => struct GFarmTradingStorageV5.PendingNftOrder)",
        "numberOfBytes": "32",
        "value": "t_struct(PendingNftOrder)7136_storage"
      },
      "t_mapping(t_uint256,t_struct(Trade)7068_storage)": {
        "encoding": "mapping",
        "key": "t_uint256",
        "label": "mapping(uint256 => struct GFarmTradingStorageV5.Trade)",
        "numberOfBytes": "32",
        "value": "t_struct(Trade)7068_storage"
      },
      "t_mapping(t_uint256,t_struct(TradeInfo)7081_storage)": {
        "encoding": "mapping",
        "key": "t_uint256",
        "label": "mapping(uint256 => struct GFarmTradingStorageV5.TradeInfo)",
        "numberOfBytes": "32",
        "value": "t_struct(TradeInfo)7081_storage"
      },
      "t_mapping(t_uint256,t_uint256)": {
        "encoding": "mapping",
        "key": "t_uint256",
        "label": "mapping(uint256 => uint256)",
        "numberOfBytes": "32",
        "value": "t_uint256"
      },
      "t_struct(OpenLimitOrder)7108_storage": {
        "encoding": "inplace",
        "label": "struct GFarmTradingStorageV5.OpenLimitOrder",
        "members": [
          {
            "astId": 7083,
            "contract": "contracts/contracts/GFarmTradingStorageV5.sol:GFarmTradingStorageV5",
            "label": "trader",
            "offset": 0,
            "slot": "0",
            "type": "t_address"
          },
          {
            "astId": 7085,
            "contract": "contracts/contracts/GFarmTradingStorageV5.sol:GFarmTradingStorageV5",
            "label": "pairIndex",
            "offset": 0,
            "slot": "1",
            "type": "t_uint256"
          },
          {
            "astId": 7087,
            "contract": "contracts/contracts/GFarmTradingStorageV5.sol:GFarmTradingStorageV5",
            "label": "index",
            "offset": 0,
            "slot": "2",
            "type": "t_uint256"
          },
          {
            "astId": 7089,
            "contract": "contracts/contracts/GFarmTradingStorageV5.sol:GFarmTradingStorageV5",
            "label": "positionSize",
            "offset": 0,
            "slot": "3",
            "type": "t_uint256"
          },
          {
            "astId": 7091,
            "contract": "contracts/contracts/GFarmTradingStorageV5.sol:GFarmTradingStorageV5",
            "label": "spreadReductionP",
            "offset": 0,
            "slot": "4",
            "type": "t_uint256"
          },
          {
            "astId": 7093,
            "contract": "contracts/contracts/GFarmTradingStorageV5.sol:GFarmTradingStorageV5",
            "label": "buy",
            "offset": 0,
            "slot": "5",
            "type": "t_bool"
          },
          {
            "astId": 7095,
            "contract": "contracts/contracts/GFarmTradingStorageV5.sol:GFarmTradingStorageV5",
            "label": "leverage",
            "offset": 0,
            "slot": "6",
            "type": "t_uint256"
          },
          {
            "astId": 7097,
            "contract": "contracts/contracts/GFarmTradingStorageV5.sol:GFarmTradingStorageV5",
            "label": "tp",
            "offset": 0,
            "slot": "7",
            "type": "t_uint256"
          },
          {
            "astId": 7099,
            "contract": "contracts/contracts/GFarmTradingStorageV5.sol:GFarmTradingStorageV5",
            "label": "sl",
            "offset": 0,
            "slot": "8",
            "type": "t_uint256"
          },
          {
            "astId": 7101,
            "contract": "contracts/contracts/GFarmTradingStorageV5.sol:GFarmTradingStorageV5",
            "label": "minPrice",
            "offset": 0,
            "slot": "9",
            "type": "t_uint256"
          },
          {
            "astId": 7103,
            "contract": "contracts/contracts/GFarmTradingStorageV5.sol:GFarmTradingStorageV5",
            "label": "maxPrice",
            "offset": 0,
            "slot": "10",
            "type": "t_uint256"
          },
          {
            "astId": 7105,
            "contract": "contracts/contracts/GFarmTradingStorageV5.sol:GFarmTradingStorageV5",
            "label": "block",
            "offset": 0,
            "slot": "11",
            "type": "t_uint256"
          },
          {
            "astId": 7107,
            "contract": "contracts/contracts/GFarmTradingStorageV5.sol:GFarmTradingStorageV5",
            "label": "tokenId",
            "offset": 0,
            "slot": "12",
            "type": "t_uint256"
          }
        ],
        "numberOfBytes": "416"
      },
      "t_struct(PendingMarketOrder)7122_storage": {
        "encoding": "inplace",
        "label": "struct GFarmTradingStorageV5.PendingMarketOrder",
        "members": [
          {
            "astId": 7111,
            "contract": "contracts/contracts/GFarmTradingStorageV5.sol:GFarmTradingStorageV5",
            "label": "trade",
            "offset": 0,
            "slot": "0",
            "type": "t_struct(Trade)7068_storage"
          },
          {
            "astId": 7113,
            "contract": "contracts/contracts/GFarmTradingStorageV5.sol:GFarmTradingStorageV5",
            "label": "block",
            "offset": 0,
            "slot": "10",
            "type": "t_uint256"
          },
          {
            "astId": 7115,
            "contract": "contracts/contracts/GFarmTradingStorageV5.sol:GFarmTradingStorageV5",
            "label": "wantedPrice",
            "offset": 0,
            "slot": "11",
            "type": "t_uint256"
          },
          {
            "astId": 7117,
            "contract": "contracts/contracts/GFarmTradingStorageV5.sol:GFarmTradingStorageV5",
            "label": "slippageP",
            "offset": 0,
            "slot": "12",
            "type": "t_uint256"
          },
          {
            "astId": 7119,
            "contract": "contracts/contracts/GFarmTradingStorageV5.sol:GFarmTradingStorageV5",
            "label": "spreadReductionP",
            "offset": 0,
            "slot": "13",
            "type": "t_uint256"
          },
          {
            "astId": 7121,
            "contract": "contracts/contracts/GFarmTradingStorageV5.sol:GFarmTradingStorageV5",
            "label": "tokenId",
            "offset": 0,
            "slot": "14",
            "type": "t_uint256"
          }
        ],
        "numberOfBytes": "480"
      },
      "t_struct(PendingNftOrder)7136_storage": {
        "encoding": "inplace",
        "label": "struct GFarmTradingStorageV5.PendingNftOrder",
        "members": [
          {
            "astId": 7124,
            "contract": "contracts/contracts/GFarmTradingStorageV5.sol:GFarmTradingStorageV5",
            "label": "nftHolder",
            "offset": 0,
            "slot": "0",
            "type": "t_address"
          },
          {
            "astId": 7126,
            "contract": "contracts/contracts/GFarmTradingStorageV5.sol:GFarmTradingStorageV5",
            "label": "nftId",
            "offset": 0,
            "slot": "1",
            "type": "t_uint256"
          },
          {
            "astId": 7128,
            "contract": "contracts/contracts/GFarmTradingStorageV5.sol:GFarmTradingStorageV5",
            "label": "trader",
            "offset": 0,
            "slot": "2",
            "type": "t_address"
          },
          {
            "astId": 7130,
            "contract": "contracts/contracts/GFarmTradingStorageV5.sol:GFarmTradingStorageV5",
            "label": "pairIndex",
            "offset": 0,
            "slot": "3",
            "type": "t_uint256"
          },
          {
            "astId": 7132,
            "contract": "contracts/contracts/GFarmTradingStorageV5.sol:GFarmTradingStorageV5",
            "label": "index",
            "offset": 0,
            "slot": "4",
            "type": "t_uint256"
          },
          {
            "astId": 7135,
            "contract": "contracts/contracts/GFarmTradingStorageV5.sol:GFarmTradingStorageV5",
            "label": "orderType",
            "offset": 0,
            "slot": "5",
            "type": "t_enum(LimitOrder)7040"
          }
        ],
        "numberOfBytes": "192"
      },
      "t_struct(Trade)7068_storage": {
        "encoding": "inplace",
        "label": "struct GFarmTradingStorageV5.Trade",
        "members": [
          {
            "astId": 7049,
            "contract": "contracts/contracts/GFarmTradingStorageV5.sol:GFarmTradingStorageV5",
            "label": "trader",
            "offset": 0,
            "slot": "0",
            "type": "t_address"
          },
          {
            "astId": 7051,
            "contract": "contracts/contracts/GFarmTradingStorageV5.sol:GFarmTradingStorageV5",
            "label": "pairIndex",
            "offset": 0,
            "slot": "1",
            "type": "t_uint256"
          },
          {
            "astId": 7053,
            "contract": "contracts/contracts/GFarmTradingStorageV5.sol:GFarmTradingStorageV5",
            "label": "index",
            "offset": 0,
            "slot": "2",
            "type": "t_uint256"
          },
          {
            "astId": 7055,
            "contract": "contracts/contracts/GFarmTradingStorageV5.sol:GFarmTradingStorageV5",
            "label": "initialPosToken",
            "offset": 0,
            "slot": "3",
            "type": "t_uint256"
          },
          {
            "astId": 7057,
            "contract": "contracts/contracts/GFarmTradingStorageV5.sol:GFarmTradingStorageV5",
            "label": "positionSizeDai",
            "offset": 0,
            "slot": "4",
            "type": "t_uint256"
          },
          {
            "astId": 7059,
            "contract": "contracts/contracts/GFarmTradingStorageV5.sol:GFarmTradingStorageV5",
            "label": "openPrice",
            "offset": 0,
            "slot": "5",
            "type": "t_uint256"
          },
          {
            "astId": 7061,
            "contract": "contracts/contracts/GFarmTradingStorageV5.sol:GFarmTradingStorageV5",
            "label": "buy",
            "offset": 0,
            "slot": "6",
            "type": "t_bool"
          },
          {
            "astId": 7063,
            "contract": "contracts/contracts/GFarmTradingStorageV5.sol:GFarmTradingStorageV5",
            "label": "leverage",
            "offset": 0,
            "slot": "7",
            "type": "t_uint256"
          },
          {
            "astId": 7065,
            "contract": "contracts/contracts/GFarmTradingStorageV5.sol:GFarmTradingStorageV5",
            "label": "tp",
            "offset": 0,
            "slot": "8",
            "type": "t_uint256"
          },
          {
            "astId": 7067,
            "contract": "contracts/contracts/GFarmTradingStorageV5.sol:GFarmTradingStorageV5",
            "label": "sl",
            "offset": 0,
            "slot": "9",
            "type": "t_uint256"
          }
        ],
        "numberOfBytes": "320"
      },
      "t_struct(TradeInfo)7081_storage": {
        "encoding": "inplace",
        "label": "struct GFarmTradingStorageV5.TradeInfo",
        "members": [
          {
            "astId": 7070,
            "contract": "contracts/contracts/GFarmTradingStorageV5.sol:GFarmTradingStorageV5",
            "label": "tokenId",
            "offset": 0,
            "slot": "0",
            "type": "t_uint256"
          },
          {
            "astId": 7072,
            "contract": "contracts/contracts/GFarmTradingStorageV5.sol:GFarmTradingStorageV5",
            "label": "tokenPriceDai",
            "offset": 0,
            "slot": "1",
            "type": "t_uint256"
          },
          {
            "astId": 7074,
            "contract": "contracts/contracts/GFarmTradingStorageV5.sol:GFarmTradingStorageV5",
            "label": "openInterestDai",
            "offset": 0,
            "slot": "2",
            "type": "t_uint256"
          },
          {
            "astId": 7076,
            "contract": "contracts/contracts/GFarmTradingStorageV5.sol:GFarmTradingStorageV5",
            "label": "tpLastUpdated",
            "offset": 0,
            "slot": "3",
            "type": "t_uint256"
          },
          {
            "astId": 7078,
            "contract": "contracts/contracts/GFarmTradingStorageV5.sol:GFarmTradingStorageV5",
            "label": "slLastUpdated",
            "offset": 0,
            "slot": "4",
            "type": "t_uint256"
          },
          {
            "astId": 7080,
            "contract": "contracts/contracts/GFarmTradingStorageV5.sol:GFarmTradingStorageV5",
            "label": "beingMarketClosed",
            "offset": 0,
            "slot": "5",
            "type": "t_bool"
          }
        ],
        "numberOfBytes": "192"
      },
      "t_struct(Trader)7047_storage": {
        "encoding": "inplace",
        "label": "struct GFarmTradingStorageV5.Trader",
        "members": [
          {
            "astId": 7042,
            "contract": "contracts/contracts/GFarmTradingStorageV5.sol:GFarmTradingStorageV5",
            "label": "leverageUnlocked",
            "offset": 0,
            "slot": "0",
            "type": "t_uint256"
          },
          {
            "astId": 7044,
            "contract": "contracts/contracts/GFarmTradingStorageV5.sol:GFarmTradingStorageV5",
            "label": "referral",
            "offset": 0,
            "slot": "1",
            "type": "t_address"
          },
          {
            "astId": 7046,
            "contract": "contracts/contracts/GFarmTradingStorageV5.sol:GFarmTradingStorageV5",
            "label": "referralRewardsTotal",
            "offset": 0,
            "slot": "2",
            "type": "t_uint256"
          }
        ],
        "numberOfBytes": "96"
      },
      "t_uint256": {
        "encoding": "inplace",
        "label": "uint256",
        "numberOfBytes": "32"
      }
    }
  }
}