{
  "address": "0x2036014Fe2a567217a9b7E1a82df7360287A83E6",
  "abi": [
    {
      "inputs": [],
      "stateMutability": "nonpayable",
      "type": "constructor"
    },
    {
      "anonymous": false,
      "inputs": [
        {
          "indexed": false,
          "internalType": "string",
          "name": "name",
          "type": "string"
        },
        {
          "indexed": false,
          "internalType": "address",
          "name": "a",
          "type": "address"
        }
      ],
      "name": "AddressUpdated",
      "type": "event"
    },
    {
      "anonymous": false,
      "inputs": [
        {
          "indexed": false,
          "internalType": "contract NftInterfaceV5[5]",
          "name": "nfts",
          "type": "address[5]"
        }
      ],
      "name": "NftsUpdated",
      "type": "event"
    },
    {
      "anonymous": false,
      "inputs": [
        {
          "indexed": false,
          "internalType": "string",
          "name": "name",
          "type": "string"
        },
        {
          "indexed": false,
          "internalType": "uint256",
          "name": "value",
          "type": "uint256"
        }
      ],
      "name": "NumberUpdated",
      "type": "event"
    },
    {
      "anonymous": false,
      "inputs": [
        {
          "indexed": false,
          "internalType": "string",
          "name": "name",
          "type": "string"
        },
        {
          "indexed": false,
          "internalType": "uint256",
          "name": "pairIndex",
          "type": "uint256"
        },
        {
          "indexed": false,
          "internalType": "uint256",
          "name": "value",
          "type": "uint256"
        }
      ],
      "name": "NumberUpdatedPair",
      "type": "event"
    },
    {
      "anonymous": false,
      "inputs": [
        {
          "indexed": false,
          "internalType": "uint256[5]",
          "name": "",
          "type": "uint256[5]"
        }
      ],
      "name": "SpreadReductionsUpdated",
      "type": "event"
    },
    {
      "anonymous": false,
      "inputs": [
        {
          "indexed": false,
          "internalType": "address",
          "name": "a",
          "type": "address"
        }
      ],
      "name": "SupportedTokenAdded",
      "type": "event"
    },
    {
      "anonymous": false,
      "inputs": [
        {
          "indexed": false,
          "internalType": "address",
          "name": "a",
          "type": "address"
        }
      ],
      "name": "TradingContractAdded",
      "type": "event"
    },
    {
      "anonymous": false,
      "inputs": [
        {
          "indexed": false,
          "internalType": "address",
          "name": "a",
          "type": "address"
        }
      ],
      "name": "TradingContractRemoved",
      "type": "event"
    },
    {
      "inputs": [],
      "name": "MINTER_ROLE",
      "outputs": [
        {
          "internalType": "bytes32",
          "name": "",
          "type": "bytes32"
        }
      ],
      "stateMutability": "view",
      "type": "function"
    },
    {
      "inputs": [],
      "name": "PRECISION",
      "outputs": [
        {
          "internalType": "uint256",
          "name": "",
          "type": "uint256"
        }
      ],
      "stateMutability": "view",
      "type": "function"
    },
    {
      "inputs": [
        {
          "internalType": "address",
          "name": "_token",
          "type": "address"
        }
      ],
      "name": "addSupportedToken",
      "outputs": [],
      "stateMutability": "nonpayable",
      "type": "function"
    },
    {
      "inputs": [
        {
          "internalType": "address",
          "name": "_trading",
          "type": "address"
        }
      ],
      "name": "addTradingContract",
      "outputs": [],
      "stateMutability": "nonpayable",
      "type": "function"
    },
    {
      "inputs": [],
      "name": "callbacks",
      "outputs": [
        {
          "internalType": "contract PausableInterfaceV5",
          "name": "",
          "type": "address"
        }
      ],
      "stateMutability": "view",
      "type": "function"
    },
    {
      "inputs": [],
      "name": "claimFees",
      "outputs": [],
      "stateMutability": "nonpayable",
      "type": "function"
    },
    {
      "inputs": [],
      "name": "dai",
      "outputs": [
        {
          "internalType": "contract TokenInterfaceV5",
          "name": "",
          "type": "address"
        }
      ],
      "stateMutability": "view",
      "type": "function"
    },
    {
      "inputs": [],
      "name": "defaultLeverageUnlocked",
      "outputs": [
        {
          "internalType": "uint256",
          "name": "",
          "type": "uint256"
        }
      ],
      "stateMutability": "view",
      "type": "function"
    },
    {
      "inputs": [],
      "name": "dev",
      "outputs": [
        {
          "internalType": "address",
          "name": "",
          "type": "address"
        }
      ],
      "stateMutability": "view",
      "type": "function"
    },
    {
      "inputs": [],
      "name": "devFeesDai",
      "outputs": [
        {
          "internalType": "uint256",
          "name": "",
          "type": "uint256"
        }
      ],
      "stateMutability": "view",
      "type": "function"
    },
    {
      "inputs": [],
      "name": "devFeesToken",
      "outputs": [
        {
          "internalType": "uint256",
          "name": "",
          "type": "uint256"
        }
      ],
      "stateMutability": "view",
      "type": "function"
    },
    {
      "inputs": [
        {
          "internalType": "uint256",
          "name": "_amount",
          "type": "uint256"
        }
      ],
      "name": "distributeLpRewards",
      "outputs": [],
      "stateMutability": "nonpayable",
      "type": "function"
    },
    {
      "inputs": [
        {
          "internalType": "address",
          "name": "trader",
          "type": "address"
        },
        {
          "internalType": "uint256",
          "name": "pairIndex",
          "type": "uint256"
        }
      ],
      "name": "firstEmptyOpenLimitIndex",
      "outputs": [
        {
          "internalType": "uint256",
          "name": "index",
          "type": "uint256"
        }
      ],
      "stateMutability": "view",
      "type": "function"
    },
    {
      "inputs": [
        {
          "internalType": "address",
          "name": "trader",
          "type": "address"
        },
        {
          "internalType": "uint256",
          "name": "pairIndex",
          "type": "uint256"
        }
      ],
      "name": "firstEmptyTradeIndex",
      "outputs": [
        {
          "internalType": "uint256",
          "name": "index",
          "type": "uint256"
        }
      ],
      "stateMutability": "view",
      "type": "function"
    },
    {
      "inputs": [
        {
          "internalType": "address",
          "name": "_trader",
          "type": "address"
        }
      ],
      "name": "getLeverageUnlocked",
      "outputs": [
        {
          "internalType": "uint256",
          "name": "",
          "type": "uint256"
        }
      ],
      "stateMutability": "view",
      "type": "function"
    },
    {
      "inputs": [
        {
          "internalType": "address",
          "name": "_trader",
          "type": "address"
        },
        {
          "internalType": "uint256",
          "name": "_pairIndex",
          "type": "uint256"
        },
        {
          "internalType": "uint256",
          "name": "_index",
          "type": "uint256"
        }
      ],
      "name": "getOpenLimitOrder",
      "outputs": [
        {
          "components": [
            {
              "internalType": "address",
              "name": "trader",
              "type": "address"
            },
            {
              "internalType": "uint256",
              "name": "pairIndex",
              "type": "uint256"
            },
            {
              "internalType": "uint256",
              "name": "index",
              "type": "uint256"
            },
            {
              "internalType": "uint256",
              "name": "positionSize",
              "type": "uint256"
            },
            {
              "internalType": "uint256",
              "name": "spreadReductionP",
              "type": "uint256"
            },
            {
              "internalType": "bool",
              "name": "buy",
              "type": "bool"
            },
            {
              "internalType": "uint256",
              "name": "leverage",
              "type": "uint256"
            },
            {
              "internalType": "uint256",
              "name": "tp",
              "type": "uint256"
            },
            {
              "internalType": "uint256",
              "name": "sl",
              "type": "uint256"
            },
            {
              "internalType": "uint256",
              "name": "minPrice",
              "type": "uint256"
            },
            {
              "internalType": "uint256",
              "name": "maxPrice",
              "type": "uint256"
            },
            {
              "internalType": "uint256",
              "name": "block",
              "type": "uint256"
            },
            {
              "internalType": "uint256",
              "name": "tokenId",
              "type": "uint256"
            }
          ],
          "internalType": "struct GFarmTradingStorageV5.OpenLimitOrder",
          "name": "",
          "type": "tuple"
        }
      ],
      "stateMutability": "view",
      "type": "function"
    },
    {
      "inputs": [],
      "name": "getOpenLimitOrders",
      "outputs": [
        {
          "components": [
            {
              "internalType": "address",
              "name": "trader",
              "type": "address"
            },
            {
              "internalType": "uint256",
              "name": "pairIndex",
              "type": "uint256"
            },
            {
              "internalType": "uint256",
              "name": "index",
              "type": "uint256"
            },
            {
              "internalType": "uint256",
              "name": "positionSize",
              "type": "uint256"
            },
            {
              "internalType": "uint256",
              "name": "spreadReductionP",
              "type": "uint256"
            },
            {
              "internalType": "bool",
              "name": "buy",
              "type": "bool"
            },
            {
              "internalType": "uint256",
              "name": "leverage",
              "type": "uint256"
            },
            {
              "internalType": "uint256",
              "name": "tp",
              "type": "uint256"
            },
            {
              "internalType": "uint256",
              "name": "sl",
              "type": "uint256"
            },
            {
              "internalType": "uint256",
              "name": "minPrice",
              "type": "uint256"
            },
            {
              "internalType": "uint256",
              "name": "maxPrice",
              "type": "uint256"
            },
            {
              "internalType": "uint256",
              "name": "block",
              "type": "uint256"
            },
            {
              "internalType": "uint256",
              "name": "tokenId",
              "type": "uint256"
            }
          ],
          "internalType": "struct GFarmTradingStorageV5.OpenLimitOrder[]",
          "name": "",
          "type": "tuple[]"
        }
      ],
      "stateMutability": "view",
      "type": "function"
    },
    {
      "inputs": [
        {
          "internalType": "address",
          "name": "_trader",
          "type": "address"
        }
      ],
      "name": "getPendingOrderIds",
      "outputs": [
        {
          "internalType": "uint256[]",
          "name": "",
          "type": "uint256[]"
        }
      ],
      "stateMutability": "view",
      "type": "function"
    },
    {
      "inputs": [
        {
          "internalType": "address",
          "name": "_trader",
          "type": "address"
        }
      ],
      "name": "getReferral",
      "outputs": [
        {
          "internalType": "address",
          "name": "",
          "type": "address"
        }
      ],
      "stateMutability": "view",
      "type": "function"
    },
    {
      "inputs": [],
      "name": "getSpreadReductionsArray",
      "outputs": [
        {
          "internalType": "uint256[5]",
          "name": "",
          "type": "uint256[5]"
        }
      ],
      "stateMutability": "view",
      "type": "function"
    },
    {
      "inputs": [],
      "name": "getSupportedTokens",
      "outputs": [
        {
          "internalType": "address[]",
          "name": "",
          "type": "address[]"
        }
      ],
      "stateMutability": "view",
      "type": "function"
    },
    {
      "inputs": [],
      "name": "gov",
      "outputs": [
        {
          "internalType": "address",
          "name": "",
          "type": "address"
        }
      ],
      "stateMutability": "view",
      "type": "function"
    },
    {
      "inputs": [],
      "name": "govFeesDai",
      "outputs": [
        {
          "internalType": "uint256",
          "name": "",
          "type": "uint256"
        }
      ],
      "stateMutability": "view",
      "type": "function"
    },
    {
      "inputs": [],
      "name": "govFeesToken",
      "outputs": [
        {
          "internalType": "uint256",
          "name": "",
          "type": "uint256"
        }
      ],
      "stateMutability": "view",
      "type": "function"
    },
    {
      "inputs": [
        {
          "internalType": "uint256",
          "name": "_pairIndex",
          "type": "uint256"
        },
        {
          "internalType": "uint256",
          "name": "_leveragedPositionSize",
          "type": "uint256"
        },
        {
          "internalType": "bool",
          "name": "_dai",
          "type": "bool"
        },
        {
          "internalType": "bool",
          "name": "_fullFee",
          "type": "bool"
        }
      ],
      "name": "handleDevGovFees",
      "outputs": [
        {
          "internalType": "uint256",
          "name": "fee",
          "type": "uint256"
        }
      ],
      "stateMutability": "nonpayable",
      "type": "function"
    },
    {
      "inputs": [
        {
          "internalType": "address",
          "name": "_a",
          "type": "address"
        },
        {
          "internalType": "uint256",
          "name": "_amount",
          "type": "uint256"
        },
        {
          "internalType": "bool",
          "name": "_mint",
          "type": "bool"
        }
      ],
      "name": "handleTokens",
      "outputs": [],
      "stateMutability": "nonpayable",
      "type": "function"
    },
    {
      "inputs": [
        {
          "internalType": "address",
          "name": "trader",
          "type": "address"
        },
        {
          "internalType": "uint256",
          "name": "pairIndex",
          "type": "uint256"
        },
        {
          "internalType": "uint256",
          "name": "index",
          "type": "uint256"
        }
      ],
      "name": "hasOpenLimitOrder",
      "outputs": [
        {
          "internalType": "bool",
          "name": "",
          "type": "bool"
        }
      ],
      "stateMutability": "view",
      "type": "function"
    },
    {
      "inputs": [
        {
          "internalType": "uint256",
          "name": "_nftId",
          "type": "uint256"
        },
        {
          "internalType": "uint256",
          "name": "_amount",
          "type": "uint256"
        }
      ],
      "name": "increaseNftRewards",
      "outputs": [],
      "stateMutability": "nonpayable",
      "type": "function"
    },
    {
      "inputs": [
        {
          "internalType": "address",
          "name": "_referral",
          "type": "address"
        },
        {
          "internalType": "uint256",
          "name": "_amount",
          "type": "uint256"
        }
      ],
      "name": "increaseReferralRewards",
      "outputs": [],
      "stateMutability": "nonpayable",
      "type": "function"
    },
    {
      "inputs": [
        {
          "internalType": "address",
          "name": "",
          "type": "address"
        }
      ],
      "name": "isTradingContract",
      "outputs": [
        {
          "internalType": "bool",
          "name": "",
          "type": "bool"
        }
      ],
      "stateMutability": "view",
      "type": "function"
    },
    {
      "inputs": [],
      "name": "linkErc677",
      "outputs": [
        {
          "internalType": "contract TokenInterfaceV5",
          "name": "",
          "type": "address"
        }
      ],
      "stateMutability": "view",
      "type": "function"
    },
    {
      "inputs": [],
      "name": "maxGainP",
      "outputs": [
        {
          "internalType": "uint256",
          "name": "",
          "type": "uint256"
        }
      ],
      "stateMutability": "view",
      "type": "function"
    },
    {
      "inputs": [],
      "name": "maxPendingMarketOrders",
      "outputs": [
        {
          "internalType": "uint256",
          "name": "",
          "type": "uint256"
        }
      ],
      "stateMutability": "view",
      "type": "function"
    },
    {
      "inputs": [],
      "name": "maxSlP",
      "outputs": [
        {
          "internalType": "uint256",
          "name": "",
          "type": "uint256"
        }
      ],
      "stateMutability": "view",
      "type": "function"
    },
    {
      "inputs": [],
      "name": "maxTradesPerBlock",
      "outputs": [
        {
          "internalType": "uint256",
          "name": "",
          "type": "uint256"
        }
      ],
      "stateMutability": "view",
      "type": "function"
    },
    {
      "inputs": [],
      "name": "maxTradesPerPair",
      "outputs": [
        {
          "internalType": "uint256",
          "name": "",
          "type": "uint256"
        }
      ],
      "stateMutability": "view",
      "type": "function"
    },
    {
      "inputs": [
        {
          "internalType": "uint256",
          "name": "",
          "type": "uint256"
        }
      ],
      "name": "nftLastSuccess",
      "outputs": [
        {
          "internalType": "uint256",
          "name": "",
          "type": "uint256"
        }
      ],
      "stateMutability": "view",
      "type": "function"
    },
    {
      "inputs": [],
      "name": "nftRewards",
      "outputs": [
        {
          "internalType": "uint256",
          "name": "",
          "type": "uint256"
        }
      ],
      "stateMutability": "view",
      "type": "function"
    },
    {
      "inputs": [],
      "name": "nftSuccessTimelock",
      "outputs": [
        {
          "internalType": "uint256",
          "name": "",
          "type": "uint256"
        }
      ],
      "stateMutability": "view",
      "type": "function"
    },
    {
      "inputs": [
        {
          "internalType": "uint256",
          "name": "",
          "type": "uint256"
        }
      ],
      "name": "nfts",
      "outputs": [
        {
          "internalType": "contract NftInterfaceV5",
          "name": "",
          "type": "address"
        }
      ],
      "stateMutability": "view",
      "type": "function"
    },
    {
      "inputs": [
        {
          "internalType": "uint256",
          "name": "",
          "type": "uint256"
        },
        {
          "internalType": "uint256",
          "name": "",
          "type": "uint256"
        }
      ],
      "name": "openInterestDai",
      "outputs": [
        {
          "internalType": "uint256",
          "name": "",
          "type": "uint256"
        }
      ],
      "stateMutability": "view",
      "type": "function"
    },
    {
      "inputs": [
        {
          "internalType": "address",
          "name": "",
          "type": "address"
        },
        {
          "internalType": "uint256",
          "name": "",
          "type": "uint256"
        },
        {
          "internalType": "uint256",
          "name": "",
          "type": "uint256"
        }
      ],
      "name": "openLimitOrderIds",
      "outputs": [
        {
          "internalType": "uint256",
          "name": "",
          "type": "uint256"
        }
      ],
      "stateMutability": "view",
      "type": "function"
    },
    {
      "inputs": [
        {
          "internalType": "uint256",
          "name": "",
          "type": "uint256"
        }
      ],
      "name": "openLimitOrders",
      "outputs": [
        {
          "internalType": "address",
          "name": "trader",
          "type": "address"
        },
        {
          "internalType": "uint256",
          "name": "pairIndex",
          "type": "uint256"
        },
        {
          "internalType": "uint256",
          "name": "index",
          "type": "uint256"
        },
        {
          "internalType": "uint256",
          "name": "positionSize",
          "type": "uint256"
        },
        {
          "internalType": "uint256",
          "name": "spreadReductionP",
          "type": "uint256"
        },
        {
          "internalType": "bool",
          "name": "buy",
          "type": "bool"
        },
        {
          "internalType": "uint256",
          "name": "leverage",
          "type": "uint256"
        },
        {
          "internalType": "uint256",
          "name": "tp",
          "type": "uint256"
        },
        {
          "internalType": "uint256",
          "name": "sl",
          "type": "uint256"
        },
        {
          "internalType": "uint256",
          "name": "minPrice",
          "type": "uint256"
        },
        {
          "internalType": "uint256",
          "name": "maxPrice",
          "type": "uint256"
        },
        {
          "internalType": "uint256",
          "name": "block",
          "type": "uint256"
        },
        {
          "internalType": "uint256",
          "name": "tokenId",
          "type": "uint256"
        }
      ],
      "stateMutability": "view",
      "type": "function"
    },
    {
      "inputs": [
        {
          "internalType": "address",
          "name": "",
          "type": "address"
        },
        {
          "internalType": "uint256",
          "name": "",
          "type": "uint256"
        }
      ],
      "name": "openLimitOrdersCount",
      "outputs": [
        {
          "internalType": "uint256",
          "name": "",
          "type": "uint256"
        }
      ],
      "stateMutability": "view",
      "type": "function"
    },
    {
      "inputs": [
        {
          "internalType": "address",
          "name": "",
          "type": "address"
        },
        {
          "internalType": "uint256",
          "name": "",
          "type": "uint256"
        },
        {
          "internalType": "uint256",
          "name": "",
          "type": "uint256"
        }
      ],
      "name": "openTrades",
      "outputs": [
        {
          "internalType": "address",
          "name": "trader",
          "type": "address"
        },
        {
          "internalType": "uint256",
          "name": "pairIndex",
          "type": "uint256"
        },
        {
          "internalType": "uint256",
          "name": "index",
          "type": "uint256"
        },
        {
          "internalType": "uint256",
          "name": "initialPosToken",
          "type": "uint256"
        },
        {
          "internalType": "uint256",
          "name": "positionSizeDai",
          "type": "uint256"
        },
        {
          "internalType": "uint256",
          "name": "openPrice",
          "type": "uint256"
        },
        {
          "internalType": "bool",
          "name": "buy",
          "type": "bool"
        },
        {
          "internalType": "uint256",
          "name": "leverage",
          "type": "uint256"
        },
        {
          "internalType": "uint256",
          "name": "tp",
          "type": "uint256"
        },
        {
          "internalType": "uint256",
          "name": "sl",
          "type": "uint256"
        }
      ],
      "stateMutability": "view",
      "type": "function"
    },
    {
      "inputs": [
        {
          "internalType": "address",
          "name": "",
          "type": "address"
        },
        {
          "internalType": "uint256",
          "name": "",
          "type": "uint256"
        }
      ],
      "name": "openTradesCount",
      "outputs": [
        {
          "internalType": "uint256",
          "name": "",
          "type": "uint256"
        }
      ],
      "stateMutability": "view",
      "type": "function"
    },
    {
      "inputs": [
        {
          "internalType": "address",
          "name": "",
          "type": "address"
        },
        {
          "internalType": "uint256",
          "name": "",
          "type": "uint256"
        },
        {
          "internalType": "uint256",
          "name": "",
          "type": "uint256"
        }
      ],
      "name": "openTradesInfo",
      "outputs": [
        {
          "internalType": "uint256",
          "name": "tokenId",
          "type": "uint256"
        },
        {
          "internalType": "uint256",
          "name": "tokenPriceDai",
          "type": "uint256"
        },
        {
          "internalType": "uint256",
          "name": "openInterestDai",
          "type": "uint256"
        },
        {
          "internalType": "uint256",
          "name": "tpLastUpdated",
          "type": "uint256"
        },
        {
          "internalType": "uint256",
          "name": "slLastUpdated",
          "type": "uint256"
        },
        {
          "internalType": "bool",
          "name": "beingMarketClosed",
          "type": "bool"
        }
      ],
      "stateMutability": "view",
      "type": "function"
    },
    {
      "inputs": [
        {
          "internalType": "uint256",
          "name": "",
          "type": "uint256"
        },
        {
          "internalType": "uint256",
          "name": "",
          "type": "uint256"
        }
      ],
      "name": "pairTraders",
      "outputs": [
        {
          "internalType": "address",
          "name": "",
          "type": "address"
        }
      ],
      "stateMutability": "view",
      "type": "function"
    },
    {
      "inputs": [
        {
          "internalType": "uint256",
          "name": "_pairIndex",
          "type": "uint256"
        }
      ],
      "name": "pairTradersArray",
      "outputs": [
        {
          "internalType": "address[]",
          "name": "",
          "type": "address[]"
        }
      ],
      "stateMutability": "view",
      "type": "function"
    },
    {
      "inputs": [
        {
          "internalType": "address",
          "name": "",
          "type": "address"
        },
        {
          "internalType": "uint256",
          "name": "",
          "type": "uint256"
        }
      ],
      "name": "pairTradersId",
      "outputs": [
        {
          "internalType": "uint256",
          "name": "",
          "type": "uint256"
        }
      ],
      "stateMutability": "view",
      "type": "function"
    },
    {
      "inputs": [
        {
          "internalType": "address",
          "name": "",
          "type": "address"
        },
        {
          "internalType": "uint256",
          "name": "",
          "type": "uint256"
        }
      ],
      "name": "pendingMarketCloseCount",
      "outputs": [
        {
          "internalType": "uint256",
          "name": "",
          "type": "uint256"
        }
      ],
      "stateMutability": "view",
      "type": "function"
    },
    {
      "inputs": [
        {
          "internalType": "address",
          "name": "",
          "type": "address"
        },
        {
          "internalType": "uint256",
          "name": "",
          "type": "uint256"
        }
      ],
      "name": "pendingMarketOpenCount",
      "outputs": [
        {
          "internalType": "uint256",
          "name": "",
          "type": "uint256"
        }
      ],
      "stateMutability": "view",
      "type": "function"
    },
    {
      "inputs": [
        {
          "internalType": "address",
          "name": "",
          "type": "address"
        },
        {
          "internalType": "uint256",
          "name": "",
          "type": "uint256"
        }
      ],
      "name": "pendingOrderIds",
      "outputs": [
        {
          "internalType": "uint256",
          "name": "",
          "type": "uint256"
        }
      ],
      "stateMutability": "view",
      "type": "function"
    },
    {
      "inputs": [
        {
          "internalType": "address",
          "name": "_trader",
          "type": "address"
        }
      ],
      "name": "pendingOrderIdsCount",
      "outputs": [
        {
          "internalType": "uint256",
          "name": "",
          "type": "uint256"
        }
      ],
      "stateMutability": "view",
      "type": "function"
    },
    {
      "inputs": [],
      "name": "pool",
      "outputs": [
        {
          "internalType": "contract PoolInterfaceV5",
          "name": "",
          "type": "address"
        }
      ],
      "stateMutability": "view",
      "type": "function"
    },
    {
      "inputs": [],
      "name": "priceAggregator",
      "outputs": [
        {
          "internalType": "contract AggregatorInterfaceV5",
          "name": "",
          "type": "address"
        }
      ],
      "stateMutability": "view",
      "type": "function"
    },
    {
      "inputs": [
        {
          "internalType": "address",
          "name": "_trading",
          "type": "address"
        }
      ],
      "name": "removeTradingContract",
      "outputs": [],
      "stateMutability": "nonpayable",
      "type": "function"
    },
    {
      "inputs": [
        {
          "internalType": "uint256",
          "name": "",
          "type": "uint256"
        }
      ],
      "name": "reqID_pendingMarketOrder",
      "outputs": [
        {
          "components": [
            {
              "internalType": "address",
              "name": "trader",
              "type": "address"
            },
            {
              "internalType": "uint256",
              "name": "pairIndex",
              "type": "uint256"
            },
            {
              "internalType": "uint256",
              "name": "index",
              "type": "uint256"
            },
            {
              "internalType": "uint256",
              "name": "initialPosToken",
              "type": "uint256"
            },
            {
              "internalType": "uint256",
              "name": "positionSizeDai",
              "type": "uint256"
            },
            {
              "internalType": "uint256",
              "name": "openPrice",
              "type": "uint256"
            },
            {
              "internalType": "bool",
              "name": "buy",
              "type": "bool"
            },
            {
              "internalType": "uint256",
              "name": "leverage",
              "type": "uint256"
            },
            {
              "internalType": "uint256",
              "name": "tp",
              "type": "uint256"
            },
            {
              "internalType": "uint256",
              "name": "sl",
              "type": "uint256"
            }
          ],
          "internalType": "struct GFarmTradingStorageV5.Trade",
          "name": "trade",
          "type": "tuple"
        },
        {
          "internalType": "uint256",
          "name": "block",
          "type": "uint256"
        },
        {
          "internalType": "uint256",
          "name": "wantedPrice",
          "type": "uint256"
        },
        {
          "internalType": "uint256",
          "name": "slippageP",
          "type": "uint256"
        },
        {
          "internalType": "uint256",
          "name": "spreadReductionP",
          "type": "uint256"
        },
        {
          "internalType": "uint256",
          "name": "tokenId",
          "type": "uint256"
        }
      ],
      "stateMutability": "view",
      "type": "function"
    },
    {
      "inputs": [
        {
          "internalType": "uint256",
          "name": "",
          "type": "uint256"
        }
      ],
      "name": "reqID_pendingNftOrder",
      "outputs": [
        {
          "internalType": "address",
          "name": "nftHolder",
          "type": "address"
        },
        {
          "internalType": "uint256",
          "name": "nftId",
          "type": "uint256"
        },
        {
          "internalType": "address",
          "name": "trader",
          "type": "address"
        },
        {
          "internalType": "uint256",
          "name": "pairIndex",
          "type": "uint256"
        },
        {
          "internalType": "uint256",
          "name": "index",
          "type": "uint256"
        },
        {
          "internalType": "enum GFarmTradingStorageV5.LimitOrder",
          "name": "orderType",
          "type": "uint8"
        }
      ],
      "stateMutability": "view",
      "type": "function"
    },
    {
      "inputs": [
        {
          "internalType": "address",
          "name": "_callbacks",
          "type": "address"
        }
      ],
      "name": "setCallbacks",
      "outputs": [],
      "stateMutability": "nonpayable",
      "type": "function"
    },
    {
      "inputs": [
        {
          "internalType": "uint256",
          "name": "_lev",
          "type": "uint256"
        }
      ],
      "name": "setDefaultLeverageUnlocked",
      "outputs": [],
      "stateMutability": "nonpayable",
      "type": "function"
    },
    {
      "inputs": [
        {
          "internalType": "address",
          "name": "_dev",
          "type": "address"
        }
      ],
      "name": "setDev",
      "outputs": [],
      "stateMutability": "nonpayable",
      "type": "function"
    },
    {
      "inputs": [
        {
          "internalType": "address",
          "name": "_gov",
          "type": "address"
        }
      ],
      "name": "setGov",
      "outputs": [],
      "stateMutability": "nonpayable",
      "type": "function"
    },
    {
      "inputs": [
        {
          "internalType": "address",
          "name": "_trader",
          "type": "address"
        },
        {
          "internalType": "uint256",
          "name": "_newLeverage",
          "type": "uint256"
        }
      ],
      "name": "setLeverageUnlocked",
      "outputs": [],
      "stateMutability": "nonpayable",
      "type": "function"
    },
    {
      "inputs": [
        {
          "internalType": "uint256",
          "name": "_max",
          "type": "uint256"
        }
      ],
      "name": "setMaxGainP",
      "outputs": [],
      "stateMutability": "nonpayable",
      "type": "function"
    },
    {
      "inputs": [
        {
          "internalType": "uint256",
          "name": "_pairIndex",
          "type": "uint256"
        },
        {
          "internalType": "uint256",
          "name": "_newMaxOpenInterest",
          "type": "uint256"
        }
      ],
      "name": "setMaxOpenInterestDai",
      "outputs": [],
      "stateMutability": "nonpayable",
      "type": "function"
    },
    {
      "inputs": [
        {
          "internalType": "uint256",
          "name": "_maxPendingMarketOrders",
          "type": "uint256"
        }
      ],
      "name": "setMaxPendingMarketOrders",
      "outputs": [],
      "stateMutability": "nonpayable",
      "type": "function"
    },
    {
      "inputs": [
        {
          "internalType": "uint256",
          "name": "_max",
          "type": "uint256"
        }
      ],
      "name": "setMaxSlP",
      "outputs": [],
      "stateMutability": "nonpayable",
      "type": "function"
    },
    {
      "inputs": [
        {
          "internalType": "uint256",
          "name": "_maxTradesPerBlock",
          "type": "uint256"
        }
      ],
      "name": "setMaxTradesPerBlock",
      "outputs": [],
      "stateMutability": "nonpayable",
      "type": "function"
    },
    {
      "inputs": [
        {
          "internalType": "uint256",
          "name": "_maxTradesPerPair",
          "type": "uint256"
        }
      ],
      "name": "setMaxTradesPerPair",
      "outputs": [],
      "stateMutability": "nonpayable",
      "type": "function"
    },
    {
      "inputs": [
        {
          "internalType": "uint256",
          "name": "_blocks",
          "type": "uint256"
        }
      ],
      "name": "setNftSuccessTimelock",
      "outputs": [],
      "stateMutability": "nonpayable",
      "type": "function"
    },
    {
      "inputs": [
        {
          "internalType": "address",
          "name": "_pool",
          "type": "address"
        }
      ],
      "name": "setPool",
      "outputs": [],
      "stateMutability": "nonpayable",
      "type": "function"
    },
    {
      "inputs": [
        {
          "internalType": "address",
          "name": "_aggregator",
          "type": "address"
        }
      ],
      "name": "setPriceAggregator",
      "outputs": [],
      "stateMutability": "nonpayable",
      "type": "function"
    },
    {
      "inputs": [
        {
          "internalType": "uint256[5]",
          "name": "_r",
          "type": "uint256[5]"
        }
      ],
      "name": "setSpreadReductionsP",
      "outputs": [],
      "stateMutability": "nonpayable",
      "type": "function"
    },
    {
      "inputs": [
        {
          "internalType": "address",
          "name": "_tokenDaiRouter",
          "type": "address"
        }
      ],
      "name": "setTokenDaiRouter",
      "outputs": [],
      "stateMutability": "nonpayable",
      "type": "function"
    },
    {
      "inputs": [
        {
          "internalType": "address",
          "name": "_trading",
          "type": "address"
        }
      ],
      "name": "setTrading",
      "outputs": [],
      "stateMutability": "nonpayable",
      "type": "function"
    },
    {
      "inputs": [
        {
          "internalType": "address",
          "name": "_vault",
          "type": "address"
        }
      ],
      "name": "setVault",
      "outputs": [],
      "stateMutability": "nonpayable",
      "type": "function"
    },
    {
      "inputs": [
        {
          "internalType": "uint256",
          "name": "",
          "type": "uint256"
        }
      ],
      "name": "spreadReductionsP",
      "outputs": [
        {
          "internalType": "uint256",
          "name": "",
          "type": "uint256"
        }
      ],
      "stateMutability": "view",
      "type": "function"
    },
    {
      "inputs": [
        {
          "components": [
            {
              "internalType": "address",
              "name": "trader",
              "type": "address"
            },
            {
              "internalType": "uint256",
              "name": "pairIndex",
              "type": "uint256"
            },
            {
              "internalType": "uint256",
              "name": "index",
              "type": "uint256"
            },
            {
              "internalType": "uint256",
              "name": "positionSize",
              "type": "uint256"
            },
            {
              "internalType": "uint256",
              "name": "spreadReductionP",
              "type": "uint256"
            },
            {
              "internalType": "bool",
              "name": "buy",
              "type": "bool"
            },
            {
              "internalType": "uint256",
              "name": "leverage",
              "type": "uint256"
            },
            {
              "internalType": "uint256",
              "name": "tp",
              "type": "uint256"
            },
            {
              "internalType": "uint256",
              "name": "sl",
              "type": "uint256"
            },
            {
              "internalType": "uint256",
              "name": "minPrice",
              "type": "uint256"
            },
            {
              "internalType": "uint256",
              "name": "maxPrice",
              "type": "uint256"
            },
            {
              "internalType": "uint256",
              "name": "block",
              "type": "uint256"
            },
            {
              "internalType": "uint256",
              "name": "tokenId",
              "type": "uint256"
            }
          ],
          "internalType": "struct GFarmTradingStorageV5.OpenLimitOrder",
          "name": "o",
          "type": "tuple"
        }
      ],
      "name": "storeOpenLimitOrder",
      "outputs": [],
      "stateMutability": "nonpayable",
      "type": "function"
    },
    {
      "inputs": [
        {
          "components": [
            {
              "components": [
                {
                  "internalType": "address",
                  "name": "trader",
                  "type": "address"
                },
                {
                  "internalType": "uint256",
                  "name": "pairIndex",
                  "type": "uint256"
                },
                {
                  "internalType": "uint256",
                  "name": "index",
                  "type": "uint256"
                },
                {
                  "internalType": "uint256",
                  "name": "initialPosToken",
                  "type": "uint256"
                },
                {
                  "internalType": "uint256",
                  "name": "positionSizeDai",
                  "type": "uint256"
                },
                {
                  "internalType": "uint256",
                  "name": "openPrice",
                  "type": "uint256"
                },
                {
                  "internalType": "bool",
                  "name": "buy",
                  "type": "bool"
                },
                {
                  "internalType": "uint256",
                  "name": "leverage",
                  "type": "uint256"
                },
                {
                  "internalType": "uint256",
                  "name": "tp",
                  "type": "uint256"
                },
                {
                  "internalType": "uint256",
                  "name": "sl",
                  "type": "uint256"
                }
              ],
              "internalType": "struct GFarmTradingStorageV5.Trade",
              "name": "trade",
              "type": "tuple"
            },
            {
              "internalType": "uint256",
              "name": "block",
              "type": "uint256"
            },
            {
              "internalType": "uint256",
              "name": "wantedPrice",
              "type": "uint256"
            },
            {
              "internalType": "uint256",
              "name": "slippageP",
              "type": "uint256"
            },
            {
              "internalType": "uint256",
              "name": "spreadReductionP",
              "type": "uint256"
            },
            {
              "internalType": "uint256",
              "name": "tokenId",
              "type": "uint256"
            }
          ],
          "internalType": "struct GFarmTradingStorageV5.PendingMarketOrder",
          "name": "_order",
          "type": "tuple"
        },
        {
          "internalType": "uint256",
          "name": "_id",
          "type": "uint256"
        },
        {
          "internalType": "bool",
          "name": "_open",
          "type": "bool"
        }
      ],
      "name": "storePendingMarketOrder",
      "outputs": [],
      "stateMutability": "nonpayable",
      "type": "function"
    },
    {
      "inputs": [
        {
          "components": [
            {
              "internalType": "address",
              "name": "nftHolder",
              "type": "address"
            },
            {
              "internalType": "uint256",
              "name": "nftId",
              "type": "uint256"
            },
            {
              "internalType": "address",
              "name": "trader",
              "type": "address"
            },
            {
              "internalType": "uint256",
              "name": "pairIndex",
              "type": "uint256"
            },
            {
              "internalType": "uint256",
              "name": "index",
              "type": "uint256"
            },
            {
              "internalType": "enum GFarmTradingStorageV5.LimitOrder",
              "name": "orderType",
              "type": "uint8"
            }
          ],
          "internalType": "struct GFarmTradingStorageV5.PendingNftOrder",
          "name": "_nftOrder",
          "type": "tuple"
        },
        {
          "internalType": "uint256",
          "name": "_orderId",
          "type": "uint256"
        }
      ],
      "name": "storePendingNftOrder",
      "outputs": [],
      "stateMutability": "nonpayable",
      "type": "function"
    },
    {
      "inputs": [
        {
          "internalType": "address",
          "name": "_trader",
          "type": "address"
        },
        {
          "internalType": "address",
          "name": "_referral",
          "type": "address"
        }
      ],
      "name": "storeReferral",
      "outputs": [],
      "stateMutability": "nonpayable",
      "type": "function"
    },
    {
      "inputs": [
        {
          "components": [
            {
              "internalType": "address",
              "name": "trader",
              "type": "address"
            },
            {
              "internalType": "uint256",
              "name": "pairIndex",
              "type": "uint256"
            },
            {
              "internalType": "uint256",
              "name": "index",
              "type": "uint256"
            },
            {
              "internalType": "uint256",
              "name": "initialPosToken",
              "type": "uint256"
            },
            {
              "internalType": "uint256",
              "name": "positionSizeDai",
              "type": "uint256"
            },
            {
              "internalType": "uint256",
              "name": "openPrice",
              "type": "uint256"
            },
            {
              "internalType": "bool",
              "name": "buy",
              "type": "bool"
            },
            {
              "internalType": "uint256",
              "name": "leverage",
              "type": "uint256"
            },
            {
              "internalType": "uint256",
              "name": "tp",
              "type": "uint256"
            },
            {
              "internalType": "uint256",
              "name": "sl",
              "type": "uint256"
            }
          ],
          "internalType": "struct GFarmTradingStorageV5.Trade",
          "name": "_trade",
          "type": "tuple"
        },
        {
          "components": [
            {
              "internalType": "uint256",
              "name": "tokenId",
              "type": "uint256"
            },
            {
              "internalType": "uint256",
              "name": "tokenPriceDai",
              "type": "uint256"
            },
            {
              "internalType": "uint256",
              "name": "openInterestDai",
              "type": "uint256"
            },
            {
              "internalType": "uint256",
              "name": "tpLastUpdated",
              "type": "uint256"
            },
            {
              "internalType": "uint256",
              "name": "slLastUpdated",
              "type": "uint256"
            },
            {
              "internalType": "bool",
              "name": "beingMarketClosed",
              "type": "bool"
            }
          ],
          "internalType": "struct GFarmTradingStorageV5.TradeInfo",
          "name": "_tradeInfo",
          "type": "tuple"
        }
      ],
      "name": "storeTrade",
      "outputs": [],
      "stateMutability": "nonpayable",
      "type": "function"
    },
    {
      "inputs": [
        {
          "internalType": "uint256",
          "name": "",
          "type": "uint256"
        }
      ],
      "name": "supportedTokens",
      "outputs": [
        {
          "internalType": "address",
          "name": "",
          "type": "address"
        }
      ],
      "stateMutability": "view",
      "type": "function"
    },
    {
      "inputs": [],
      "name": "token",
      "outputs": [
        {
          "internalType": "contract TokenInterfaceV5",
          "name": "",
          "type": "address"
        }
      ],
      "stateMutability": "view",
      "type": "function"
    },
    {
      "inputs": [],
      "name": "tokenDaiRouter",
      "outputs": [
        {
          "internalType": "address",
          "name": "",
          "type": "address"
        }
      ],
      "stateMutability": "view",
      "type": "function"
    },
    {
      "inputs": [],
      "name": "tokensBurned",
      "outputs": [
        {
          "internalType": "uint256",
          "name": "",
          "type": "uint256"
        }
      ],
      "stateMutability": "view",
      "type": "function"
    },
    {
      "inputs": [],
      "name": "tokensMinted",
      "outputs": [
        {
          "internalType": "uint256",
          "name": "",
          "type": "uint256"
        }
      ],
      "stateMutability": "view",
      "type": "function"
    },
    {
      "inputs": [
        {
          "internalType": "address",
          "name": "",
          "type": "address"
        }
      ],
      "name": "traders",
      "outputs": [
        {
          "internalType": "uint256",
          "name": "leverageUnlocked",
          "type": "uint256"
        },
        {
          "internalType": "address",
          "name": "referral",
          "type": "address"
        },
        {
          "internalType": "uint256",
          "name": "referralRewardsTotal",
          "type": "uint256"
        }
      ],
      "stateMutability": "view",
      "type": "function"
    },
    {
      "inputs": [
        {
          "internalType": "uint256",
          "name": "",
          "type": "uint256"
        }
      ],
      "name": "tradesPerBlock",
      "outputs": [
        {
          "internalType": "uint256",
          "name": "",
          "type": "uint256"
        }
      ],
      "stateMutability": "view",
      "type": "function"
    },
    {
      "inputs": [],
      "name": "trading",
      "outputs": [
        {
          "internalType": "contract PausableInterfaceV5",
          "name": "",
          "type": "address"
        }
      ],
      "stateMutability": "view",
      "type": "function"
    },
    {
      "inputs": [
        {
          "internalType": "address",
          "name": "_from",
          "type": "address"
        },
        {
          "internalType": "address",
          "name": "_to",
          "type": "address"
        },
        {
          "internalType": "uint256",
          "name": "_amount",
          "type": "uint256"
        }
      ],
      "name": "transferDai",
      "outputs": [],
      "stateMutability": "nonpayable",
      "type": "function"
    },
    {
      "inputs": [
        {
          "internalType": "address",
          "name": "_from",
          "type": "address"
        },
        {
          "internalType": "uint256",
          "name": "_pairIndex",
          "type": "uint256"
        },
        {
          "internalType": "uint256",
          "name": "_leveragedPosDai",
          "type": "uint256"
        }
      ],
      "name": "transferLinkToAggregator",
      "outputs": [],
      "stateMutability": "nonpayable",
      "type": "function"
    },
    {
      "inputs": [
        {
          "internalType": "address",
          "name": "_trader",
          "type": "address"
        },
        {
          "internalType": "uint256",
          "name": "_pairIndex",
          "type": "uint256"
        },
        {
          "internalType": "uint256",
          "name": "_index",
          "type": "uint256"
        }
      ],
      "name": "unregisterOpenLimitOrder",
      "outputs": [],
      "stateMutability": "nonpayable",
      "type": "function"
    },
    {
      "inputs": [
        {
          "internalType": "uint256",
          "name": "_id",
          "type": "uint256"
        },
        {
          "internalType": "bool",
          "name": "_open",
          "type": "bool"
        }
      ],
      "name": "unregisterPendingMarketOrder",
      "outputs": [],
      "stateMutability": "nonpayable",
      "type": "function"
    },
    {
      "inputs": [
        {
          "internalType": "uint256",
          "name": "_order",
          "type": "uint256"
        }
      ],
      "name": "unregisterPendingNftOrder",
      "outputs": [],
      "stateMutability": "nonpayable",
      "type": "function"
    },
    {
      "inputs": [
        {
          "internalType": "address",
          "name": "trader",
          "type": "address"
        },
        {
          "internalType": "uint256",
          "name": "pairIndex",
          "type": "uint256"
        },
        {
          "internalType": "uint256",
          "name": "index",
          "type": "uint256"
        }
      ],
      "name": "unregisterTrade",
      "outputs": [],
      "stateMutability": "nonpayable",
      "type": "function"
    },
    {
      "inputs": [
        {
          "internalType": "contract NftInterfaceV5[5]",
          "name": "_nfts",
          "type": "address[5]"
        }
      ],
      "name": "updateNfts",
      "outputs": [],
      "stateMutability": "nonpayable",
      "type": "function"
    },
    {
      "inputs": [
        {
          "components": [
            {
              "internalType": "address",
              "name": "trader",
              "type": "address"
            },
            {
              "internalType": "uint256",
              "name": "pairIndex",
              "type": "uint256"
            },
            {
              "internalType": "uint256",
              "name": "index",
              "type": "uint256"
            },
            {
              "internalType": "uint256",
              "name": "positionSize",
              "type": "uint256"
            },
            {
              "internalType": "uint256",
              "name": "spreadReductionP",
              "type": "uint256"
            },
            {
              "internalType": "bool",
              "name": "buy",
              "type": "bool"
            },
            {
              "internalType": "uint256",
              "name": "leverage",
              "type": "uint256"
            },
            {
              "internalType": "uint256",
              "name": "tp",
              "type": "uint256"
            },
            {
              "internalType": "uint256",
              "name": "sl",
              "type": "uint256"
            },
            {
              "internalType": "uint256",
              "name": "minPrice",
              "type": "uint256"
            },
            {
              "internalType": "uint256",
              "name": "maxPrice",
              "type": "uint256"
            },
            {
              "internalType": "uint256",
              "name": "block",
              "type": "uint256"
            },
            {
              "internalType": "uint256",
              "name": "tokenId",
              "type": "uint256"
            }
          ],
          "internalType": "struct GFarmTradingStorageV5.OpenLimitOrder",
          "name": "_o",
          "type": "tuple"
        }
      ],
      "name": "updateOpenLimitOrder",
      "outputs": [],
      "stateMutability": "nonpayable",
      "type": "function"
    },
    {
      "inputs": [
        {
          "internalType": "address",
          "name": "_trader",
          "type": "address"
        },
        {
          "internalType": "uint256",
          "name": "_pairIndex",
          "type": "uint256"
        },
        {
          "internalType": "uint256",
          "name": "_index",
          "type": "uint256"
        },
        {
          "internalType": "uint256",
          "name": "_newSl",
          "type": "uint256"
        }
      ],
      "name": "updateSl",
      "outputs": [],
      "stateMutability": "nonpayable",
      "type": "function"
    },
    {
      "inputs": [
        {
          "internalType": "contract TokenInterfaceV5",
          "name": "_newToken",
          "type": "address"
        }
      ],
      "name": "updateToken",
      "outputs": [],
      "stateMutability": "nonpayable",
      "type": "function"
    },
    {
      "inputs": [
        {
          "internalType": "address",
          "name": "_trader",
          "type": "address"
        },
        {
          "internalType": "uint256",
          "name": "_pairIndex",
          "type": "uint256"
        },
        {
          "internalType": "uint256",
          "name": "_index",
          "type": "uint256"
        },
        {
          "internalType": "uint256",
          "name": "_newTp",
          "type": "uint256"
        }
      ],
      "name": "updateTp",
      "outputs": [],
      "stateMutability": "nonpayable",
      "type": "function"
    },
    {
      "inputs": [
        {
          "components": [
            {
              "internalType": "address",
              "name": "trader",
              "type": "address"
            },
            {
              "internalType": "uint256",
              "name": "pairIndex",
              "type": "uint256"
            },
            {
              "internalType": "uint256",
              "name": "index",
              "type": "uint256"
            },
            {
              "internalType": "uint256",
              "name": "initialPosToken",
              "type": "uint256"
            },
            {
              "internalType": "uint256",
              "name": "positionSizeDai",
              "type": "uint256"
            },
            {
              "internalType": "uint256",
              "name": "openPrice",
              "type": "uint256"
            },
            {
              "internalType": "bool",
              "name": "buy",
              "type": "bool"
            },
            {
              "internalType": "uint256",
              "name": "leverage",
              "type": "uint256"
            },
            {
              "internalType": "uint256",
              "name": "tp",
              "type": "uint256"
            },
            {
              "internalType": "uint256",
              "name": "sl",
              "type": "uint256"
            }
          ],
          "internalType": "struct GFarmTradingStorageV5.Trade",
          "name": "_t",
          "type": "tuple"
        }
      ],
      "name": "updateTrade",
      "outputs": [],
      "stateMutability": "nonpayable",
      "type": "function"
    },
    {
      "inputs": [],
      "name": "vault",
      "outputs": [
        {
          "internalType": "address",
          "name": "",
          "type": "address"
        }
      ],
      "stateMutability": "view",
      "type": "function"
    }
  ],
  "transactionHash": "0x66c2ac27092b1c66040dc70d6b70e701a6c16ce71df00ac4923d67a420289649",
  "args": [],
  "numDeployments": 1,
  "solcInputHash": "f7a9b91dc44ee5e79c1a5d5aff87db1f",
  "bytecode": "0x600480546001600160a01b031916737075cab6bcca06613e2d071bd918d1a0241379e217905561012060405273f9a4c522e327935bd1f5a338c121e14e4cc1f89860809081527377cd42b925e1a82f41d852d6be727cfc88fddbbc60a052733378ad81d09de23725ee9b9270635c97ed60192160c0527302e2c5825c1a3b69c0417706dbe1327c2af3e6c260e052732d266a94469d05c9e06d52a4d0d9c23b157767c261010052620000b5906005908162000172565b506003600c556005600d819055600e819055610384600f9081556050601055603260118190556012556040805160a08101825291825260146020830152601990820152601e606082015260236080820152620001159160139190620001cf565b50601880546001600160a01b031990811673c66fbe50dd33c9aadd65707f7088d597c86fe00f179091556019805490911673d39a38bd2d2d552f3908ff698a5530aa397fb92d1790553480156200016b57600080fd5b506200021c565b8260058101928215620001bd579160200282015b82811115620001bd57825182546001600160a01b0319166001600160a01b0390911617825560209092019160019091019062000186565b50620001cb92915062000205565b5090565b8260058101928215620001bd579160200282015b82811115620001bd578251829060ff16905591602001919060010190620001e3565b5b80821115620001cb576000815560010162000206565b615b70806200022c6000396000f3fe608060405234801561001057600080fd5b50600436106106075760003560e01c806397e7995a1161031b578063d4bda908116101a8578063ee92a4ff116100f4578063f823e2ae116100ad578063fc0c546a11610087578063fc0c546a1461114b578063fdb594131461115e578063fe0fc8d614611167578063fece4eac1461117a57600080fd5b8063f823e2ae1461111c578063f8d24b481461112f578063fbfa77cf1461113857600080fd5b8063ee92a4ff146110a0578063f013d278146110a9578063f2c13bdf146110bc578063f4b9fa75146110cf578063f65d9dbe146110ea578063f7b3c6fd146110f357600080fd5b8063e3cbe3a711610161578063ea5c3c331161013b578063ea5c3c3314611040578063ec44acf214611049578063ecf56a1f1461105c578063eda00d541461106f57600080fd5b8063e3cbe3a714611011578063e3f04eba14611024578063e7873b581461103757600080fd5b8063d4bda90814610f9d578063d539139314610fb0578063dc2123ff14610fc5578063dcdf339a14610fd8578063e212991a14610feb578063e378b36714610ffe57600080fd5b8063b8878a2c11610267578063cab9458011610220578063d294f093116101fa578063d294f09314610f67578063d3b5fe7014610f6f578063d3c7c2c714610f82578063d477f05f14610f8a57600080fd5b8063cab9458014610f2e578063cfad57a214610f41578063cfbacc1414610f5457600080fd5b8063b8878a2c14610eb9578063bcc9f1d314610ed9578063c122fea614610eec578063c311ab3114610ef5578063c625562614610f08578063c76faf7814610f1b57600080fd5b8063a553906c116102d4578063b4b0f567116102ae578063b4b0f56714610d96578063b66e6b0514610da9578063b767608a14610e7b578063b7682d5414610e8e57600080fd5b8063a553906c14610d57578063aa3b7d7714610d6a578063aaf5eb6814610d8a57600080fd5b806397e7995a14610ba357806399794d3514610bce5780639c8912f114610c325780639d1a107314610c5d578063a354418114610c70578063a3a80ffe14610c8357600080fd5b806356a6796f116104995780637395d79e116103e55780638a0bd7021161039e5780638c8ff1d5116103785780638c8ff1d514610a9c57806390d112b914610b2257806391cca3db14610b3557806392a88fa214610b4857600080fd5b80638a0bd70214610a6b5780638bbb644c14610a805780638bf7f5f914610a8957600080fd5b80637395d79e14610a0d578063796d82d914610a205780637ad3def214610a295780637fdb96f314610a3c5780638049fde714610a4f578063817fa1a414610a5857600080fd5b80636690a806116104525780636d69fcaf1161042c5780636d69fcaf146109ab5780636d81d981146109be5780636de9f32b146109f15780636e70e7b6146109fa57600080fd5b80636690a8061461095c5780636817031b1461096f57806368ca199d1461098257600080fd5b806356a6796f146108e25780635a912551146108f75780635ad9f993146109005780635b621e32146109095780635c76ac9e1461091c5780635fbfe8cc1461093c57600080fd5b8063292c1617116105585780634415b369116105115780634daf04b1116104eb5780634daf04b1146108895780635070e8371461089c57806352e5398f146108af5780635378143e146108cf57600080fd5b80634415b369146108385780634437152a1461086357806344d44f5a1461087657600080fd5b8063292c16171461073e5780633078fff51461075157806332149592146107645780633b0f0f2f146107e35780633dae10a01461081257806343b8fab51461082557600080fd5b806318407fe0116105c557806321f7a30b1161059f57806321f7a30b146106f2578063265aa6211461070557806328b1f8871461071857806328daca211461072b57600080fd5b806318407fe01461069d5780631c8636b4146106b4578063201d8bdb146106df57600080fd5b8062b127831461060c57806306aef7de1461063c578063099fa9341461065157806312d43a511461066457806313b36ff61461067757806316f0115b1461068a575b600080fd5b60035461061f906001600160a01b031681565b6040516001600160a01b0390911681526020015b60405180910390f35b61064f61064a3660046151ec565b611195565b005b61064f61065f366004615573565b611207565b60185461061f906001600160a01b031681565b61064f610685366004615573565b61126f565b60015461061f906001600160a01b031681565b6106a6601d5481565b604051908152602001610633565b6106a66106c236600461510e565b602560209081526000928352604080842090915290825290205481565b61064f6106ed366004615573565b6112da565b61064f61070036600461510e565b6113d8565b61061f610713366004615573565b6114be565b61064f61072636600461510e565b6114de565b6106a66107393660046155ca565b6115ac565b6106a661074c36600461510e565b6115d1565b60005461061f906001600160a01b031681565b610777610772366004615573565b611633565b604080516001600160a01b03909e168e5260208e019c909c529a8c019990995260608b019790975260808a019590955292151560a089015260c088019190915260e08701526101008601526101208501526101408401526101608301526101808201526101a001610633565b61061f6107f1366004615077565b6001600160a01b039081166000908152602260205260409020600101541690565b6106a6610820366004615573565b6116ba565b61064f610833366004615573565b6116d1565b6106a661084636600461510e565b602f60209081526000928352604080842090915290825290205481565b61064f610871366004615077565b61174f565b6106a661088436600461510e565b6117d4565b61064f610897366004615077565b61180b565b61064f6108aa366004615077565b61189a565b6106a66108bd366004615573565b60316020526000908152604090205481565b61064f6108dd36600461513a565b61192a565b6108ea611aec565b6040516106339190615804565b6106a660105481565b6106a660205481565b61064f610917366004615077565b611b28565b61092f61092a366004615077565b611ba3565b604051610633919061582c565b61094f61094a366004615573565b611c0f565b6040516106339190615727565b61064f61096a36600461517c565b611c7a565b61064f61097d366004615077565b611e5b565b6106a6610990366004615077565b6001600160a01b031660009081526022602052604090205490565b61064f6109b9366004615077565b611ee1565b6109e16109cc366004615077565b60336020526000908152604090205460ff1681565b6040519015158152602001610633565b6106a6601f5481565b61064f610a083660046150cd565b611f89565b61064f610a1b3660046155ca565b6120e2565b6106a6600d5481565b61064f610a37366004615077565b6121b7565b61064f610a4a3660046151b1565b61238e565b6106a6600e5481565b61064f610a66366004615436565b6124aa565b610a736125f8565b60405161063391906157ae565b6106a660115481565b61064f610a97366004615573565b6126e7565b610af3610aaa36600461517c565b6024602090815260009384526040808520825292845282842090528252902080546001820154600283015460038401546004850154600590950154939492939192909160ff1686565b6040805196875260208701959095529385019290925260608401526080830152151560a082015260c001610633565b61064f610b3036600461517c565b612759565b60195461061f906001600160a01b031681565b610b80610b56366004615077565b60226020526000908152604090208054600182015460029092015490916001600160a01b03169083565b604080519384526001600160a01b03909216602084015290820152606001610633565b6106a6610bb136600461510e565b602760209081526000928352604080842090915290825290205481565b610c20610bdc366004615573565b602a602052600090815260409020805460018201546002830154600384015460048501546005909501546001600160a01b0394851695939490921692909160ff1686565b604051610633969594939291906156cb565b6106a6610c4036600461510e565b602c60209081526000928352604080842090915290825290205481565b61064f610c6b366004615094565b612af5565b61064f610c7e3660046151b1565b612c3a565b610d01610c9136600461517c565b602360209081526000938452604080852082529284528284209052825290208054600182015460028301546003840154600485015460058601546006870154600788015460088901546009909901546001600160a01b03909816989697959694959394929360ff9092169290918a565b604080516001600160a01b03909b168b5260208b0199909952978901969096526060880194909452608087019290925260a0860152151560c085015260e084015261010083015261012082015261014001610633565b61064f610d65366004615077565b612d56565b6106a6610d78366004615573565b60326020526000908152604090205481565b6106a66402540be40081565b61064f610da436600461517c565b612dde565b610e69610db7366004615573565b60296020908152600091825260409182902082516101408101845281546001600160a01b031681526001820154928101929092526002810154928201929092526003820154606082015260048201546080820152600582015460a0820152600682015460ff16151560c0820152600782015460e082015260088201546101008201526009820154610120820152600a820154600b830154600c840154600d850154600e90950154939492939192909186565b60405161063396959493929190615890565b61064f610e893660046152de565b613171565b6106a6610e9c36600461510e565b602d60209081526000928352604080842090915290825290205481565b610ecc610ec736600461517c565b613325565b604051610633919061587b565b6106a6610ee736600461510e565b6134a9565b6106a6600f5481565b61064f610f033660046154e3565b6134da565b61061f610f16366004615573565b6137cf565b61064f610f293660046153a4565b6137f9565b61064f610f3c3660046155a5565b613a5f565b61064f610f4f366004615077565b613de6565b6106a6610f623660046155ec565b613e6a565b61064f614056565b61064f610f7d3660046152f1565b6142b3565b61094f61464c565b61064f610f98366004615077565b6146ad565b61064f610fab3660046154c6565b614731565b6106a6600080516020615b1b83398151915281565b61064f610fd3366004615573565b61484e565b6109e1610fe636600461517c565b6148bf565b61064f610ff9366004615573565b614959565b61064f61100c3660046155ca565b6149bd565b61061f61101f3660046155ca565b614a50565b61064f611032366004615573565b614a88565b6106a6601e5481565b6106a6601b5481565b60025461061f906001600160a01b031681565b61064f61106a366004615573565b614b94565b6106a661107d36600461517c565b602660209081526000938452604080852082529284528284209052825290205481565b6106a6601a5481565b61064f6110b736600461527c565b614c0b565b600b5461061f906001600160a01b031681565b61061f738f3cf7ad23cd3cadbd9735aff958023239c6a06381565b6106a6600c5481565b6106a6611101366004615077565b6001600160a01b03166000908152602b602052604090205490565b61064f61112a366004615077565b614cb5565b6106a660125481565b600a5461061f906001600160a01b031681565b60045461061f906001600160a01b031681565b6106a6601c5481565b61064f611175366004615077565b614dfb565b61061f73b0897686c545045afc77cf20ec7a532e3120e0f181565b6018546001600160a01b031633146111ac57600080fd5b80516001600160a01b03166111c057600080fd5b6111cc60058281614f10565b507f89a3bfeda71ede5f8735aa09127c97cd56aa3803356c52f7c30caf418238b464816040516111fc9190615774565b60405180910390a150565b6018546001600160a01b0316331461121e57600080fd5b603281101561122c57600080fd5b6010819055604080518181526006918101919091526506d6178536c560d41b606082015260208101829052600080516020615adb833981519152906080016111fc565b6018546001600160a01b0316331461128657600080fd5b61012c81101561129557600080fd5b600f819055604080518181526008918101919091526706d61784761696e560c41b606082015260208101829052600080516020615adb833981519152906080016111fc565b3360009081526033602052604090205460ff168015611383575060048054604051632474521560e21b81526001600160a01b03909116916391d148549161133391600080516020615b1b83398151915291339101615864565b60206040518083038186803b15801561134b57600080fd5b505afa15801561135f573d6000803e3d6000fd5b505050506040513d601f19601f8201168201806040525081019061138391906152c1565b61138c57600080fd5b6000908152602a6020526040812080546001600160a01b03199081168255600182018390556002820180549091169055600381018290556004810191909155600501805460ff19169055565b3360009081526033602052604090205460ff168015611481575060048054604051632474521560e21b81526001600160a01b03909116916391d148549161143191600080516020615b1b83398151915291339101615864565b60206040518083038186803b15801561144957600080fd5b505afa15801561145d573d6000803e3d6000fd5b505050506040513d601f19601f8201168201806040525081019061148191906152c1565b61148a57600080fd5b6001600160a01b038216600090815260226020526040812060020180548392906114b59084906159a7565b90915550505050565b600581600581106114ce57600080fd5b01546001600160a01b0316905081565b3360009081526033602052604090205460ff168015611587575060048054604051632474521560e21b81526001600160a01b03909116916391d148549161153791600080516020615b1b83398151915291339101615864565b60206040518083038186803b15801561154f57600080fd5b505afa158015611563573d6000803e3d6000fd5b505050506040513d601f19601f8201168201806040525081019061158791906152c1565b61159057600080fd5b6001600160a01b03909116600090815260226020526040902055565b603060205281600052604060002081600381106115c857600080fd5b01549150829050565b6000805b600c5481101561162c576001600160a01b0384166000908152602360209081526040808320868452825280832084845290915290206007015461161a5780915061162c565b8061162481615a2e565b9150506115d5565b5092915050565b6028818154811061164357600080fd5b60009182526020909120600d9091020180546001820154600283015460038401546004850154600586015460068701546007880154600889015460098a0154600a8b0154600b8c0154600c909c01546001600160a01b03909b169c50989a97999698959760ff90951696939592949193909291908d565b601381600581106116ca57600080fd5b0154905081565b6018546001600160a01b031633146116e857600080fd5b600081116116f557600080fd5b6011819055604080518181526017918101919091527f64656661756c744c65766572616765556e6c6f636b6564000000000000000000606082015260208101829052600080516020615adb833981519152906080016111fc565b6018546001600160a01b0316331461176657600080fd5b6001600160a01b03811661177957600080fd5b600180546001600160a01b0319166001600160a01b03831690811790915560408051818152600491810191909152631c1bdbdb60e21b60608201526020810191909152600080516020615afb833981519152906080016111fc565b6000805b600c5481101561162c576117ed8484836148bf565b6117f95780915061162c565b8061180381615a2e565b9150506117d8565b6018546001600160a01b0316331461182257600080fd5b6001600160a01b03811661183557600080fd5b600b80546001600160a01b0319166001600160a01b03831690811790915560408051818152600e918101919091526d3a37b5b2b72230b4a937baba32b960911b60608201526020810191909152600080516020615afb833981519152906080016111fc565b6018546001600160a01b031633146118b157600080fd5b6001600160a01b0381166118c457600080fd5b600080546001600160a01b0319166001600160a01b03831690811790915560408051818152600f918101919091526e383934b1b2a0b3b3b932b3b0ba37b960891b60608201526020810191909152600080516020615afb833981519152906080016111fc565b3360009081526033602052604090205460ff1680156119d3575060048054604051632474521560e21b81526001600160a01b03909116916391d148549161198391600080516020615b1b83398151915291339101615864565b60206040518083038186803b15801561199b57600080fd5b505afa1580156119af573d6000803e3d6000fd5b505050506040513d601f19601f820116820180604052508101906119d391906152c1565b6119dc57600080fd5b8015611a6757600480546040516340c10f1960e01b81526001600160a01b0386811693820193909352602481018590529116906340c10f1990604401600060405180830381600087803b158015611a3257600080fd5b505af1158015611a46573d6000803e3d6000fd5b5050505081601f6000828254611a5c91906159a7565b90915550611ae79050565b60048054604051632770a7eb60e21b81526001600160a01b038681169382019390935260248101859052911690639dc29fac90604401600060405180830381600087803b158015611ab757600080fd5b505af1158015611acb573d6000803e3d6000fd5b5050505081601e6000828254611ae191906159a7565b90915550505b505050565b611af4614f68565b6040805160a08101918290529060139060059082845b815481526020019060010190808311611b0a575b5050505050905090565b6018546001600160a01b03163314611b3f57600080fd5b6001600160a01b038116611b5257600080fd5b6001600160a01b038116600081815260336020908152604091829020805460ff1916905590519182527ff9cf924d7d98e6e0a27ec523cd7214b0bbdfaba197018b33b41a702f5238190e91016111fc565b6001600160a01b0381166000908152602b6020908152604091829020805483518184028101840190945280845260609392830182828015611c0357602002820191906000526020600020905b815481526020019060010190808311611bef575b50505050509050919050565b6000818152602e6020908152604091829020805483518184028101840190945280845260609392830182828015611c0357602002820191906000526020600020905b81546001600160a01b03168152600190910190602001808311611c515750505050509050919050565b3360009081526033602052604090205460ff168015611d23575060048054604051632474521560e21b81526001600160a01b03909116916391d1485491611cd391600080516020615b1b83398151915291339101615864565b60206040518083038186803b158015611ceb57600080fd5b505afa158015611cff573d6000803e3d6000fd5b505050506040513d601f19601f82011682018060405250810190611d2391906152c1565b611d2c57600080fd5b60005460405163b9e0336f60e01b8152600481018490526024810183905273b0897686c545045afc77cf20ec7a532e3120e0f1916323b872dd9186916001600160a01b031690819063b9e0336f9060440160206040518083038186803b158015611d9557600080fd5b505afa158015611da9573d6000803e3d6000fd5b505050506040513d601f19601f82011682018060405250810190611dcd919061558c565b6040516001600160e01b031960e086901b1681526001600160a01b03938416600482015292909116602483015260448201526064015b602060405180830381600087803b158015611e1d57600080fd5b505af1158015611e31573d6000803e3d6000fd5b505050506040513d601f19601f82011682018060405250810190611e5591906152c1565b50505050565b6018546001600160a01b03163314611e7257600080fd5b6001600160a01b038116611e8557600080fd5b600a80546001600160a01b0319166001600160a01b03831690811790915560408051818152600591810191909152641d985d5b1d60da1b60608201526020810191909152600080516020615afb833981519152906080016111fc565b6018546001600160a01b03163314611ef857600080fd5b6001600160a01b038116611f0b57600080fd5b602180546001810182556000919091527f3a6357012c1a3ae0a17d304c9920310382d968ebcc4b1771f41c6b304205b5700180546001600160a01b0319166001600160a01b0383169081179091556040519081527fd1be2e90bd3d24839d9dd94ad871068e1f9688b02fa43f2a62c9975dfa9de2d7906020016111fc565b3360009081526033602052604090205460ff168015612032575060048054604051632474521560e21b81526001600160a01b03909116916391d1485491611fe291600080516020615b1b83398151915291339101615864565b60206040518083038186803b158015611ffa57600080fd5b505afa15801561200e573d6000803e3d6000fd5b505050506040513d601f19601f8201168201806040525081019061203291906152c1565b61203b57600080fd5b6001600160a01b0383163014156120935760405163a9059cbb60e01b81526001600160a01b038316600482015260248101829052738f3cf7ad23cd3cadbd9735aff958023239c6a0639063a9059cbb90604401611e03565b6040516323b872dd60e01b81526001600160a01b0380851660048301528316602482015260448101829052738f3cf7ad23cd3cadbd9735aff958023239c6a063906323b872dd90606401611e03565b3360009081526033602052604090205460ff16801561218b575060048054604051632474521560e21b81526001600160a01b03909116916391d148549161213b91600080516020615b1b83398151915291339101615864565b60206040518083038186803b15801561215357600080fd5b505afa158015612167573d6000803e3d6000fd5b505050506040513d601f19601f8201168201806040525081019061218b91906152c1565b61219457600080fd5b6000828152603260209081526040822043905580548392906114b59084906159a7565b6018546001600160a01b031633146121ce57600080fd5b600260009054906101000a90046001600160a01b03166001600160a01b031663b187bd266040518163ffffffff1660e01b815260040160206040518083038186803b15801561221c57600080fd5b505afa158015612230573d6000803e3d6000fd5b505050506040513d601f19601f8201168201806040525081019061225491906152c1565b80156122e15750600360009054906101000a90046001600160a01b03166001600160a01b031663b187bd266040518163ffffffff1660e01b815260040160206040518083038186803b1580156122a957600080fd5b505afa1580156122bd573d6000803e3d6000fd5b505050506040513d601f19601f820116820180604052508101906122e191906152c1565b61231f5760405162461bcd60e51b815260206004820152600a6024820152691393d517d4105554d15160b21b60448201526064015b60405180910390fd5b6001600160a01b03811661233257600080fd5b600480546001600160a01b0319166001600160a01b03831690811790915560408051818152600591810191909152643a37b5b2b760d91b60608201526020810191909152600080516020615afb833981519152906080016111fc565b3360009081526033602052604090205460ff168015612437575060048054604051632474521560e21b81526001600160a01b03909116916391d14854916123e791600080516020615b1b83398151915291339101615864565b60206040518083038186803b1580156123ff57600080fd5b505afa158015612413573d6000803e3d6000fd5b505050506040513d601f19601f8201168201806040525081019061243791906152c1565b61244057600080fd5b6001600160a01b03841660008181526023602090815260408083208784528252808320868452825280832093835260248252808320878452825280832086845290915290206007820154612495575050611e55565b60089091018290554360039091015550505050565b3360009081526033602052604090205460ff168015612553575060048054604051632474521560e21b81526001600160a01b03909116916391d148549161250391600080516020615b1b83398151915291339101615864565b60206040518083038186803b15801561251b57600080fd5b505afa15801561252f573d6000803e3d6000fd5b505050506040513d601f19601f8201168201806040525081019061255391906152c1565b61255c57600080fd5b6000818152602a6020908152604091829020845181546001600160a01b03199081166001600160a01b03928316178355928601516001808401919091559386015160028301805490941691161790915560608401516003808301919091556080850151600483015560a085015160058301805487959293919260ff199091169184908111156125ed576125ed615a5f565b021790555050505050565b60606028805480602002602001604051908101604052809291908181526020016000905b828210156126de576000848152602090819020604080516101a081018252600d860290920180546001600160a01b03168352600180820154848601526002820154928401929092526003810154606084015260048101546080840152600581015460ff16151560a0840152600681015460c0840152600781015460e084015260088101546101008401526009810154610120840152600a810154610140840152600b810154610160840152600c0154610180830152908352909201910161261c565b50505050905090565b6018546001600160a01b031633146126fe57600080fd5b6000811161270b57600080fd5b600d81905560408051818152601191810191909152706d6178547261646573506572426c6f636b60781b606082015260208101829052600080516020615adb833981519152906080016111fc565b3360009081526033602052604090205460ff168015612802575060048054604051632474521560e21b81526001600160a01b03909116916391d14854916127b291600080516020615b1b83398151915291339101615864565b60206040518083038186803b1580156127ca57600080fd5b505afa1580156127de573d6000803e3d6000fd5b505050506040513d601f19601f8201168201806040525081019061280291906152c1565b61280b57600080fd5b6001600160a01b03831660008181526023602090815260408083208684528252808320858452825280832093835260248252808320868452825280832085845290915290206007820154612860575050505050565b6002810154600683015461287b91869160009060ff16614e85565b6001600160a01b0385166000908152602560209081526040808320878452909152902054600114156129e9576001600160a01b0385166000908152602f60209081526040808320878452825280832054602e909252909120805481906128e390600190615a00565b815481106128f3576128f3615a8b565b9060005260206000200160009054906101000a90046001600160a01b031681838154811061292357612923615a8b565b9060005260206000200160006101000a8154816001600160a01b0302191690836001600160a01b0316021790555081602f600083858154811061296857612968615a8b565b60009182526020808320909101546001600160a01b03908116845283820194909452604092830182208b8352815282822094909455918a168252602f83528082208983529092529081205580548190806129c4576129c4615a75565b600082815260209020810160001990810180546001600160a01b031916905501905550505b6001600160a01b03851660008181526023602090815260408083208884528252808320878452825280832080546001600160a01b03191681556001808201859055600280830186905560038084018790556004808501889055600580860189905560068601805460ff19908116909155600787018a9055600887018a90556009909601899055898952602488528689208e8a5288528689208d8a52885286892089815594850189905592840188905590830187905582018690550180549091169055928252602581528282208783529052908120805491612ac983615a17565b9091555050436000908152603160205260408120805491612ae983615a2e565b91905055505050505050565b3360009081526033602052604090205460ff168015612b9e575060048054604051632474521560e21b81526001600160a01b03909116916391d1485491612b4e91600080516020615b1b83398151915291339101615864565b60206040518083038186803b158015612b6657600080fd5b505afa158015612b7a573d6000803e3d6000fd5b505050506040513d601f19601f82011682018060405250810190612b9e91906152c1565b612ba757600080fd5b6001600160a01b03808316600090815260226020526040902090821615801590612bdc575060018101546001600160a01b0316155b8015612bfa5750826001600160a01b0316826001600160a01b031614155b612c115760018101546001600160a01b0316612c13565b815b60019190910180546001600160a01b0319166001600160a01b039092169190911790555050565b3360009081526033602052604090205460ff168015612ce3575060048054604051632474521560e21b81526001600160a01b03909116916391d1485491612c9391600080516020615b1b83398151915291339101615864565b60206040518083038186803b158015612cab57600080fd5b505afa158015612cbf573d6000803e3d6000fd5b505050506040513d601f19601f82011682018060405250810190612ce391906152c1565b612cec57600080fd5b6001600160a01b03841660008181526023602090815260408083208784528252808320868452825280832093835260248252808320878452825280832086845290915290206007820154612d41575050611e55565b60099091018290554360049091015550505050565b6018546001600160a01b03163314612d6d57600080fd5b6001600160a01b038116612d8057600080fd5b600280546001600160a01b0319166001600160a01b038316908117909155604080518181526007918101919091526674726164696e6760c81b60608201526020810191909152600080516020615afb833981519152906080016111fc565b3360009081526033602052604090205460ff168015612e87575060048054604051632474521560e21b81526001600160a01b03909116916391d1485491612e3791600080516020615b1b83398151915291339101615864565b60206040518083038186803b158015612e4f57600080fd5b505afa158015612e63573d6000803e3d6000fd5b505050506040513d601f19601f82011682018060405250810190612e8791906152c1565b612e9057600080fd5b612e9b8383836148bf565b612ea457505050565b6001600160a01b0383166000908152602660209081526040808320858452825280832084845290915290205460288054612ee090600190615a00565b81548110612ef057612ef0615a8b565b90600052602060002090600d020160288281548110612f1157612f11615a8b565b6000918252602082208354600d9092020180546001600160a01b0319166001600160a01b0390921691909117815560018084015490820155600280840154908201556003808401549082015560048084015490820155600580840154908201805460ff909216151560ff1990921691909117905560068084015490820155600780840154908201556008808401549082015560098084015490820155600a8084015490820155600b8084015490820155600c92830154920191909155602880548392602692909184908110612fe857612fe8615a8b565b60009182526020808320600d909202909101546001600160a01b031683528201929092526040018120602880549192918590811061302857613028615a8b565b90600052602060002090600d020160010154815260200190815260200160002060006028848154811061305d5761305d615a8b565b600091825260208083206002600d90930201919091015483528281019390935260409182018120939093556001600160a01b038716835260268252808320868452825280832085845290915281205560288054806130bd576130bd615a75565b60008281526020808220600d6000199094019384020180546001600160a01b03191681556001810183905560028101839055600381018390556004810183905560058101805460ff1916905560068101839055600781018390556008810183905560098101839055600a8101839055600b8101839055600c01829055919092556001600160a01b0386168252602781526040808320868452909152812080549161316683615a17565b919050555050505050565b3360009081526033602052604090205460ff16801561321a575060048054604051632474521560e21b81526001600160a01b03909116916391d14854916131ca91600080516020615b1b83398151915291339101615864565b60206040518083038186803b1580156131e257600080fd5b505afa1580156131f6573d6000803e3d6000fd5b505050506040513d601f19601f8201168201806040525081019061321a91906152c1565b61322357600080fd5b6132426132336020830183615077565b826020013583604001356148bf565b6132495750565b6000602860268261325d6020860186615077565b6001600160a01b03168152602080820192909252604090810160009081208684013582528352818120868301358252909252902054815481106132a2576132a2615a8b565b90600052602060002090600d02019050816060013581600301819055508160a00160208101906132d291906152a4565b60058201805460ff191691151591909117905560c0820135600682015560e0820135600782015561010082013560088201556101208201356009820155610140820135600a82015543600b909101555b50565b61339b604051806101a0016040528060006001600160a01b0316815260200160008152602001600081526020016000815260200160008152602001600015158152602001600081526020016000815260200160008152602001600081526020016000815260200160008152602001600081525090565b6133a68484846148bf565b6133af57600080fd5b6001600160a01b038416600090815260266020908152604080832086845282528083208584529091529020546028805490919081106133f0576133f0615a8b565b6000918252602091829020604080516101a081018252600d90930290910180546001600160a01b031683526001810154938301939093526002830154908201526003820154606082015260048201546080820152600582015460ff16151560a0820152600682015460c0820152600782015460e082015260088201546101008201526009820154610120820152600a820154610140820152600b820154610160820152600c9091015461018082015290505b9392505050565b602b60205281600052604060002081815481106134c557600080fd5b90600052602060002001600091509150505481565b3360009081526033602052604090205460ff168015613583575060048054604051632474521560e21b81526001600160a01b03909116916391d148549161353391600080516020615b1b83398151915291339101615864565b60206040518083038186803b15801561354b57600080fd5b505afa15801561355f573d6000803e3d6000fd5b505050506040513d601f19601f8201168201806040525081019061358391906152c1565b61358c57600080fd5b61359e826000015183602001516115d1565b604083810191825283516001600160a01b0390811660009081526023602090815283822081880180518452908252848320865184528252848320885181546001600160a01b031916951694851781558151600182015595516002870155606088015160038701556080880151600487015560a0880151600587015560c088015160068701805460ff191691151591909117905560e0880151600787015561010088015160088701556101208801516009909601959095559181526025825282812093518152929052812080549161367483615a2e565b909155505043600090815260316020526040812080549161369483615a2e565b909155505081516001600160a01b031660009081526025602090815260408083208286015184529091529020546001141561373557602082810180516000908152602e80845260408083205487516001600160a01b039081168552602f87528285208651865287528285209190915593518352908452812085518154600181018355918352939091200180546001600160a01b031916929091169190911790555b600060a0820181815283516001600160a01b031682526024602090815260408084208287018051865290835281852082880151865283529381902085518155918501516001808401919091559085015160028301819055606086015160038401556080860151600484015592516005909201805460ff191692151592909217909155915160c08501516137cb9391929190614e85565b5050565b602181815481106137df57600080fd5b6000918252602090912001546001600160a01b0316905081565b3360009081526033602052604090205460ff1680156138a2575060048054604051632474521560e21b81526001600160a01b03909116916391d148549161385291600080516020615b1b83398151915291339101615864565b60206040518083038186803b15801561386a57600080fd5b505afa15801561387e573d6000803e3d6000fd5b505050506040513d601f19601f820116820180604052508101906138a291906152c1565b6138ab57600080fd5b8251516001600160a01b039081166000908152602b602090815260408083208054600180820183559185528385200187905586845260298352928190208751805182546001600160a01b031916961695909517815591840151928201929092558282015160028201556060808401516003830155608080850151600484015560a080860151600585015560c086015160068501805460ff191691151591909117905560e08601516007850155610100860151600885015561012090950151600984015592870151600b830155860151600c82015590850151600d82015590840151600e82015543600a9091015580156139dd578251516001600160a01b03166000908152602c602090815260408083208651830151845290915281208054916139d383615a2e565b9190505550505050565b8251516001600160a01b03166000908152602d60209081526040808320865183015184529091528120805491613a1283615a2e565b90915550508251516001600160a01b03166000908152602460209081526040808320865183015184528252808320865182015184529091529020600501805460ff19166001179055505050565b3360009081526033602052604090205460ff168015613b08575060048054604051632474521560e21b81526001600160a01b03909116916391d1485491613ab891600080516020615b1b83398151915291339101615864565b60206040518083038186803b158015613ad057600080fd5b505afa158015613ae4573d6000803e3d6000fd5b505050506040513d601f19601f82011682018060405250810190613b0891906152c1565b613b1157600080fd5b600082815260296020908152604080832081516102008101835281546001600160a01b031660c08201818152600184015460e08401526002840154610100840152600384015461012084015260048401546101408401526005840154610160840152600684015460ff16151561018084015260078401546101a084015260088401546101c084015260098401546101e08401528252600a83015482860152600b83015482850152600c8301546060830152600d8301546080830152600e9092015460a0820152908452602b909252822090915b8154811015613ddf5784828281548110613c0057613c00615a8b565b90600052602060002001541415613dcd578315613c56578251516001600160a01b03166000908152602c60209081526040808320865183015184529091528120805491613c4c83615a17565b9190505550613cd1565b8251516001600160a01b03166000908152602d60209081526040808320865183015184529091528120805491613c8b83615a17565b90915550508251516001600160a01b03166000908152602460209081526040808320865183015184528252808320865182015184529091529020600501805460ff191690555b81548290613ce190600190615a00565b81548110613cf157613cf1615a8b565b9060005260206000200154828281548110613d0e57613d0e615a8b565b906000526020600020018190555081805480613d2c57613d2c615a75565b600082815260208082208301600019908101839055909201909255868252602990526040812080546001600160a01b0319168155600181018290556002810182905560038101829055600481018290556005810182905560068101805460ff19169055600781018290556008810182905560098101829055600a8101829055600b8101829055600c8101829055600d8101829055600e0155506137cb915050565b80613dd781615a2e565b915050613be4565b5050505050565b6018546001600160a01b03163314613dfd57600080fd5b6001600160a01b038116613e1057600080fd5b601880546001600160a01b0319166001600160a01b038316908117909155604080518181526003918101919091526233b7bb60e91b60608201526020810191909152600080516020615afb833981519152906080016111fc565b3360009081526033602052604081205460ff168015613f13575060048054604051632474521560e21b81526001600160a01b03909116916391d1485491613ec391600080516020615b1b83398151915291339101615864565b60206040518083038186803b158015613edb57600080fd5b505afa158015613eef573d6000803e3d6000fd5b505050506040513d601f19601f82011682018060405250810190613f1391906152c1565b613f1c57600080fd5b600054604051630710f2ff60e51b8152600481018790526064916402540be400916001600160a01b039091169063e21e5fe09060240160206040518083038186803b158015613f6a57600080fd5b505afa158015613f7e573d6000803e3d6000fd5b505050506040513d601f19601f82011682018060405250810190613fa2919061558c565b613fac90876159e1565b613fb691906159bf565b613fc091906159bf565b905081613fd557613fd26002826159bf565b90505b82156140115780601d6000828254613fed91906159a7565b9250508190555080601b600082825461400691906159a7565b909155506140429050565b80601c600082825461402391906159a7565b9250508190555080601a600082825461403c91906159a7565b90915550505b61404d6002826159e1565b95945050505050565b6018546001600160a01b0316331461406d57600080fd5b60048054601954601a546040516340c10f1960e01b81526001600160a01b0392831694810194909452602484015216906340c10f1990604401600060405180830381600087803b1580156140c057600080fd5b505af11580156140d4573d6000803e3d6000fd5b505060048054601854601c546040516340c10f1960e01b81526001600160a01b039283169481019490945260248401521692506340c10f199150604401600060405180830381600087803b15801561412b57600080fd5b505af115801561413f573d6000803e3d6000fd5b50505050601c54601a5461415391906159a7565b601f600082825461416491906159a7565b9091555050601854601d5460405163a9059cbb60e01b81526001600160a01b0390921660048301526024820152738f3cf7ad23cd3cadbd9735aff958023239c6a0639063a9059cbb90604401602060405180830381600087803b1580156141ca57600080fd5b505af11580156141de573d6000803e3d6000fd5b505050506040513d601f19601f8201168201806040525081019061420291906152c1565b50601954601b5460405163a9059cbb60e01b81526001600160a01b0390921660048301526024820152738f3cf7ad23cd3cadbd9735aff958023239c6a0639063a9059cbb90604401602060405180830381600087803b15801561426457600080fd5b505af1158015614278573d6000803e3d6000fd5b505050506040513d601f19601f8201168201806040525081019061429c91906152c1565b506000601a819055601c819055601b819055601d55565b3360009081526033602052604090205460ff16801561435c575060048054604051632474521560e21b81526001600160a01b03909116916391d148549161430c91600080516020615b1b83398151915291339101615864565b60206040518083038186803b15801561432457600080fd5b505afa158015614338573d6000803e3d6000fd5b505050506040513d601f19601f8201168201806040525081019061435c91906152c1565b61436557600080fd5b614377816000015182602001516117d4565b604082019081524361016083019081526028805460018082018355600083905285517fe16da923a2d88192e5070f37b4571d58682c0d66212ec634d495f33de3f77ab5600d90930292830180546001600160a01b0319166001600160a01b0390921691909117905560208601517fe16da923a2d88192e5070f37b4571d58682c0d66212ec634d495f33de3f77ab683015593517fe16da923a2d88192e5070f37b4571d58682c0d66212ec634d495f33de3f77ab782015560608501517fe16da923a2d88192e5070f37b4571d58682c0d66212ec634d495f33de3f77ab882015560808501517fe16da923a2d88192e5070f37b4571d58682c0d66212ec634d495f33de3f77ab982015560a08501517fe16da923a2d88192e5070f37b4571d58682c0d66212ec634d495f33de3f77aba8201805460ff191691151591909117905560c08501517fe16da923a2d88192e5070f37b4571d58682c0d66212ec634d495f33de3f77abb82015560e08501517fe16da923a2d88192e5070f37b4571d58682c0d66212ec634d495f33de3f77abc8201556101008501517fe16da923a2d88192e5070f37b4571d58682c0d66212ec634d495f33de3f77abd8201556101208501517fe16da923a2d88192e5070f37b4571d58682c0d66212ec634d495f33de3f77abe8201556101408501517fe16da923a2d88192e5070f37b4571d58682c0d66212ec634d495f33de3f77abf82015591517fe16da923a2d88192e5070f37b4571d58682c0d66212ec634d495f33de3f77ac08301556101808401517fe16da923a2d88192e5070f37b4571d58682c0d66212ec634d495f33de3f77ac190920191909155546145e69190615a00565b81516001600160a01b0390811660009081526026602090815260408083208287018051855290835281842082880151855283528184209590955585519093168252602781528282209351825292909252812080549161464483615a2e565b919050555050565b60606021805480602002602001604051908101604052809291908181526020018280548015611b1e57602002820191906000526020600020905b81546001600160a01b03168152600190910190602001808311614686575050505050905090565b6018546001600160a01b031633146146c457600080fd5b6001600160a01b0381166146d757600080fd5b601980546001600160a01b0319166001600160a01b03831690811790915560408051818152600391810191909152623232bb60e91b60608201526020810191909152600080516020615afb833981519152906080016111fc565b3360009081526033602052604090205460ff1680156147da575060048054604051632474521560e21b81526001600160a01b03909116916391d148549161478a91600080516020615b1b83398151915291339101615864565b60206040518083038186803b1580156147a257600080fd5b505afa1580156147b6573d6000803e3d6000fd5b505050506040513d601f19601f820116820180604052508101906147da91906152c1565b6147e357600080fd5b80516001600160a01b03166000908152602360209081526040808320828501518452825280832081850151845290915290206007810154614822575050565b606082015160038201556080820151600482015560a0820151600582015560e082015160079091015550565b6018546001600160a01b0316331461486557600080fd5b6000811161487257600080fd5b600c819055604080518181526010918101919091526f36b0bc2a3930b232b9a832b92830b4b960811b606082015260208101829052600080516020615adb833981519152906080016111fc565b6028546000906148d1575060006134a2565b6001600160a01b0384166000908152602660209081526040808320868452825280832085845290915281205460288054909190811061491257614912615a8b565b60009182526020909120600d9091020180549091506001600160a01b0386811691161480156149445750838160010154145b801561404d5750600201549091149392505050565b6018546001600160a01b0316331461497057600080fd5b60128181556040805181815290810191909152716e66745375636365737354696d656c6f636b60701b606082015260208101829052600080516020615adb833981519152906080016111fc565b6018546001600160a01b031633146149d457600080fd5b6000828152603060205260409020819060020155604080516060808252601290820152716d61784f70656e496e74657265737444616960701b6080820152602081018490529081018290527f957cd67ea49f3e1ee953cdd23a1ba1f11d973e842411220d5c24ef0e24e1c9569060a00160405180910390a15050565b602e6020528160005260406000208181548110614a6c57600080fd5b6000918252602090912001546001600160a01b03169150829050565b3360009081526033602052604090205460ff168015614b31575060048054604051632474521560e21b81526001600160a01b03909116916391d1485491614ae191600080516020615b1b83398151915291339101615864565b60206040518083038186803b158015614af957600080fd5b505afa158015614b0d573d6000803e3d6000fd5b505050506040513d601f19601f82011682018060405250810190614b3191906152c1565b614b3a57600080fd5b600154604051633104b73f60e21b8152600481018390526001600160a01b039091169063c412dcfc90602401600060405180830381600087803b158015614b8057600080fd5b505af1158015613ddf573d6000803e3d6000fd5b6018546001600160a01b03163314614bab57600080fd5b60008111614bb857600080fd5b600e81905560408051818152601691810191909152756d617850656e64696e674d61726b65744f726465727360501b606082015260208101829052600080516020615adb833981519152906080016111fc565b6018546001600160a01b03163314614c2257600080fd5b803515801590614c36575080356020820135115b8015614c49575060208101356040820135115b8015614c5c575060408101356060820135115b8015614c6f575060608101356080820135115b614c7857600080fd5b614c856013826005614f86565b507fdaae5e047a75b6f38ad4e279cdefe910fc35d5a99a91b8303bd948c0a999372a816040516111fc91906157f1565b6018546001600160a01b03163314614ccc57600080fd5b60048054604051632474521560e21b81526001600160a01b03909116916391d1485491614d0b91600080516020615b1b83398151915291869101615864565b60206040518083038186803b158015614d2357600080fd5b505afa158015614d37573d6000803e3d6000fd5b505050506040513d601f19601f82011682018060405250810190614d5b91906152c1565b614d945760405162461bcd60e51b815260206004820152600a6024820152692727aa2fa6a4a72a22a960b11b6044820152606401612316565b6001600160a01b038116614da757600080fd5b6001600160a01b038116600081815260336020908152604091829020805460ff1916600117905590519182527fb692fa98cbec9bd705572b4c7e0927e3f7698e9fe526dcef6f40f3d4d4980ca391016111fc565b6018546001600160a01b03163314614e1257600080fd5b6001600160a01b038116614e2557600080fd5b600380546001600160a01b0319166001600160a01b038316908117909155604080518181526009918101919091526863616c6c6261636b7360b81b60608201526020810191909152600080516020615afb833981519152906080016111fc565b600081614e93576001614e96565b60005b600086815260306020526040902060ff91909116915083614ed55784818360038110614ec457614ec4615a8b565b0154614ed09190615a00565b614ef4565b84818360038110614ee857614ee8615a8b565b0154614ef491906159a7565b818360038110614f0657614f06615a8b565b0155505050505050565b8260058101928215614f58579160200282015b82811115614f5857825182546001600160a01b0319166001600160a01b03909116178255602090920191600190910190614f23565b50614f64929150614fb4565b5090565b6040518060a001604052806005906020820280368337509192915050565b8260058101928215614f58579160200282015b82811115614f58578235825591602001919060010190614f99565b5b80821115614f645760008155600101614fb5565b8035614fd481615ab7565b919050565b8035614fd481615acc565b60006101408284031215614ff757600080fd5b614fff615936565b905061500a82614fc9565b81526020820135602082015260408201356040820152606082013560608201526080820135608082015260a082013560a082015261504a60c08301614fd9565b60c082015260e082013560e082015261010080830135818301525061012080830135818301525092915050565b60006020828403121561508957600080fd5b81356134a281615ab7565b600080604083850312156150a757600080fd5b82356150b281615ab7565b915060208301356150c281615ab7565b809150509250929050565b6000806000606084860312156150e257600080fd5b83356150ed81615ab7565b925060208401356150fd81615ab7565b929592945050506040919091013590565b6000806040838503121561512157600080fd5b823561512c81615ab7565b946020939093013593505050565b60008060006060848603121561514f57600080fd5b833561515a81615ab7565b925060208401359150604084013561517181615acc565b809150509250925092565b60008060006060848603121561519157600080fd5b833561519c81615ab7565b95602085013595506040909401359392505050565b600080600080608085870312156151c757600080fd5b84356151d281615ab7565b966020860135965060408601359560600135945092505050565b600060a082840312156151fe57600080fd5b82601f83011261520d57600080fd5b60405160a0810181811067ffffffffffffffff8211171561523057615230615aa1565b604052808360a0810186101561524557600080fd5b60005b600581101561527157813561525c81615ab7565b83526020928301929190910190600101615248565b509195945050505050565b600060a0828403121561528e57600080fd5b8260a08301111561529e57600080fd5b50919050565b6000602082840312156152b657600080fd5b81356134a281615acc565b6000602082840312156152d357600080fd5b81516134a281615acc565b60006101a0828403121561529e57600080fd5b60006101a0828403121561530457600080fd5b61530c615960565b61531583614fc9565b81526020830135602082015260408301356040820152606083013560608201526080830135608082015261534b60a08401614fd9565b60a082015260c0838101359082015260e080840135908201526101008084013590820152610120808401359082015261014080840135908201526101608084013590820152610180928301359281019290925250919050565b60008060008385036102208112156153bb57600080fd5b6101e0808212156153cb57600080fd5b6153d3615984565b91506153df8787614fe4565b82526101408601356020830152610160860135604083015261018086013560608301526101a086013560808301526101c086013560a0830152909350840135915061542d6102008501614fd9565b90509250925092565b60008082840360e081121561544a57600080fd5b60c081121561545857600080fd5b50615461615984565b833561546c81615ab7565b815260208481013590820152604084013561548681615ab7565b80604083015250606084013560608201526080840135608082015260a0840135600481106154b357600080fd5b60a08201529460c0939093013593505050565b600061014082840312156154d957600080fd5b6134a28383614fe4565b6000808284036102008112156154f857600080fd5b6155028585614fe4565b925060c061013f198201121561551757600080fd5b50615520615984565b6101408401358152610160840135602082015261018084013560408201526101a084013560608201526101c084013560808201526101e084013561556381615acc565b60a0820152919491935090915050565b60006020828403121561558557600080fd5b5035919050565b60006020828403121561559e57600080fd5b5051919050565b600080604083850312156155b857600080fd5b8235915060208301356150c281615acc565b600080604083850312156155dd57600080fd5b50508035926020909101359150565b6000806000806080858703121561560257600080fd5b8435935060208501359250604085013561561b81615acc565b9150606085013561562b81615acc565b939692955090935050565b80516001600160a01b031682526020810151602083015260408101516040830152606081015160608301526080810151608083015260a081015161567e60a084018215159052565b5060c0818101519083015260e08082015190830152610100808201519083015261012080820151908301526101408082015190830152610160808201519083015261018090810151910152565b6001600160a01b0387811682526020820187905285166040820152606081018490526080810183905260c081016004831061571657634e487b7160e01b600052602160045260246000fd5b8260a0830152979650505050505050565b6020808252825182820181905260009190848201906040850190845b818110156157685783516001600160a01b031683529284019291840191600101615743565b50909695505050505050565b60a08101818360005b60058110156157a55781516001600160a01b031683526020928301929091019060010161577d565b50505092915050565b6020808252825182820181905260009190848201906040850190845b81811015615768576157dd838551615636565b928401926101a092909201916001016157ca565b60a0818101908383376000815292915050565b60a08101818360005b60058110156157a557815183526020928301929091019060010161580d565b6020808252825182820181905260009190848201906040850190845b8181101561576857835183529284019291840191600101615848565b9182526001600160a01b0316602082015260400190565b6101a0810161588a8284615636565b92915050565b86516001600160a01b031681526101e081016020880151602083015260408801516040830152606088015160608301526080880151608083015260a088015160a083015260c08801516158e760c084018215159052565b5060e08881015190830152610100808901519083015261012097880151978201979097526101408101959095526101608501939093526101808401919091526101a08301526101c09091015290565b604051610140810167ffffffffffffffff8111828210171561595a5761595a615aa1565b60405290565b6040516101a0810167ffffffffffffffff8111828210171561595a5761595a615aa1565b60405160c0810167ffffffffffffffff8111828210171561595a5761595a615aa1565b600082198211156159ba576159ba615a49565b500190565b6000826159dc57634e487b7160e01b600052601260045260246000fd5b500490565b60008160001904831182151516156159fb576159fb615a49565b500290565b600082821015615a1257615a12615a49565b500390565b600081615a2657615a26615a49565b506000190190565b6000600019821415615a4257615a42615a49565b5060010190565b634e487b7160e01b600052601160045260246000fd5b634e487b7160e01b600052602160045260246000fd5b634e487b7160e01b600052603160045260246000fd5b634e487b7160e01b600052603260045260246000fd5b634e487b7160e01b600052604160045260246000fd5b6001600160a01b038116811461332257600080fd5b801515811461332257600080fdfe8cf3e35f6221b16e1670a3413180c9484bf5aa71787905909fa82a6a2662e9ab943e9d45a11aaae5d87503e3bc248665d9807856e5cf2bdb4a988bee444227819f2df0fed2c77648de5860a4cc508cd0818c85b8b8a1ab4ceeef8d981c8956a6a2646970667358221220f2bfde8d1bf1fb29c8302937521df562a0863457b01ffb712c7d50b6fae7a8d464736f6c63430008070033",
  "libraries": {},
  "devdoc": {
    "kind": "dev",
    "methods": {},
    "version": 1
  },
  "userdoc": {
    "kind": "user",
    "methods": {},
    "version": 1
  },
  "storageLayout": {
    "storage": [
      {
        "astId": 6943,
        "contract": "contracts/contracts/GFarmTradingStorageV5.sol:GFarmTradingStorageV5",
        "label": "priceAggregator",
        "offset": 0,
        "slot": "0",
        "type": "t_contract(AggregatorInterfaceV5)22871"
      },
      {
        "astId": 6946,
        "contract": "contracts/contracts/GFarmTradingStorageV5.sol:GFarmTradingStorageV5",
        "label": "pool",
        "offset": 0,
        "slot": "1",
        "type": "t_contract(PoolInterfaceV5)24161"
      },
      {
        "astId": 6949,
        "contract": "contracts/contracts/GFarmTradingStorageV5.sol:GFarmTradingStorageV5",
        "label": "trading",
        "offset": 0,
        "slot": "2",
        "type": "t_contract(PausableInterfaceV5)24153"
      },
      {
        "astId": 6952,
        "contract": "contracts/contracts/GFarmTradingStorageV5.sol:GFarmTradingStorageV5",
        "label": "callbacks",
        "offset": 0,
        "slot": "3",
        "type": "t_contract(PausableInterfaceV5)24153"
      },
      {
        "astId": 6958,
        "contract": "contracts/contracts/GFarmTradingStorageV5.sol:GFarmTradingStorageV5",
        "label": "token",
        "offset": 0,
        "slot": "4",
        "type": "t_contract(TokenInterfaceV5)25021"
      },
      {
        "astId": 6979,
        "contract": "contracts/contracts/GFarmTradingStorageV5.sol:GFarmTradingStorageV5",
        "label": "nfts",
        "offset": 0,
        "slot": "5",
        "type": "t_array(t_contract(NftInterfaceV5)24005)5_storage"
      },
      {
        "astId": 6981,
        "contract": "contracts/contracts/GFarmTradingStorageV5.sol:GFarmTradingStorageV5",
        "label": "vault",
        "offset": 0,
        "slot": "10",
        "type": "t_address"
      },
      {
        "astId": 6983,
        "contract": "contracts/contracts/GFarmTradingStorageV5.sol:GFarmTradingStorageV5",
        "label": "tokenDaiRouter",
        "offset": 0,
        "slot": "11",
        "type": "t_address"
      },
      {
        "astId": 6986,
        "contract": "contracts/contracts/GFarmTradingStorageV5.sol:GFarmTradingStorageV5",
        "label": "maxTradesPerPair",
        "offset": 0,
        "slot": "12",
        "type": "t_uint256"
      },
      {
        "astId": 6989,
        "contract": "contracts/contracts/GFarmTradingStorageV5.sol:GFarmTradingStorageV5",
        "label": "maxTradesPerBlock",
        "offset": 0,
        "slot": "13",
        "type": "t_uint256"
      },
      {
        "astId": 6992,
        "contract": "contracts/contracts/GFarmTradingStorageV5.sol:GFarmTradingStorageV5",
        "label": "maxPendingMarketOrders",
        "offset": 0,
        "slot": "14",
        "type": "t_uint256"
      },
      {
        "astId": 6995,
        "contract": "contracts/contracts/GFarmTradingStorageV5.sol:GFarmTradingStorageV5",
        "label": "maxGainP",
        "offset": 0,
        "slot": "15",
        "type": "t_uint256"
      },
      {
        "astId": 6998,
        "contract": "contracts/contracts/GFarmTradingStorageV5.sol:GFarmTradingStorageV5",
        "label": "maxSlP",
        "offset": 0,
        "slot": "16",
        "type": "t_uint256"
      },
      {
        "astId": 7001,
        "contract": "contracts/contracts/GFarmTradingStorageV5.sol:GFarmTradingStorageV5",
        "label": "defaultLeverageUnlocked",
        "offset": 0,
        "slot": "17",
        "type": "t_uint256"
      },
      {
        "astId": 7004,
        "contract": "contracts/contracts/GFarmTradingStorageV5.sol:GFarmTradingStorageV5",
        "label": "nftSuccessTimelock",
        "offset": 0,
        "slot": "18",
        "type": "t_uint256"
      },
      {
        "astId": 7014,
        "contract": "contracts/contracts/GFarmTradingStorageV5.sol:GFarmTradingStorageV5",
        "label": "spreadReductionsP",
        "offset": 0,
        "slot": "19",
        "type": "t_array(t_uint256)5_storage"
      },
      {
        "astId": 7017,
        "contract": "contracts/contracts/GFarmTradingStorageV5.sol:GFarmTradingStorageV5",
        "label": "gov",
        "offset": 0,
        "slot": "24",
        "type": "t_address"
      },
      {
        "astId": 7020,
        "contract": "contracts/contracts/GFarmTradingStorageV5.sol:GFarmTradingStorageV5",
        "label": "dev",
        "offset": 0,
        "slot": "25",
        "type": "t_address"
      },
      {
        "astId": 7022,
        "contract": "contracts/contracts/GFarmTradingStorageV5.sol:GFarmTradingStorageV5",
        "label": "devFeesToken",
        "offset": 0,
        "slot": "26",
        "type": "t_uint256"
      },
      {
        "astId": 7024,
        "contract": "contracts/contracts/GFarmTradingStorageV5.sol:GFarmTradingStorageV5",
        "label": "devFeesDai",
        "offset": 0,
        "slot": "27",
        "type": "t_uint256"
      },
      {
        "astId": 7026,
        "contract": "contracts/contracts/GFarmTradingStorageV5.sol:GFarmTradingStorageV5",
        "label": "govFeesToken",
        "offset": 0,
        "slot": "28",
        "type": "t_uint256"
      },
      {
        "astId": 7028,
        "contract": "contracts/contracts/GFarmTradingStorageV5.sol:GFarmTradingStorageV5",
        "label": "govFeesDai",
        "offset": 0,
        "slot": "29",
        "type": "t_uint256"
      },
      {
        "astId": 7030,
        "contract": "contracts/contracts/GFarmTradingStorageV5.sol:GFarmTradingStorageV5",
        "label": "tokensBurned",
        "offset": 0,
        "slot": "30",
        "type": "t_uint256"
      },
      {
        "astId": 7032,
        "contract": "contracts/contracts/GFarmTradingStorageV5.sol:GFarmTradingStorageV5",
        "label": "tokensMinted",
        "offset": 0,
        "slot": "31",
        "type": "t_uint256"
      },
      {
        "astId": 7034,
        "contract": "contracts/contracts/GFarmTradingStorageV5.sol:GFarmTradingStorageV5",
        "label": "nftRewards",
        "offset": 0,
        "slot": "32",
        "type": "t_uint256"
      },
      {
        "astId": 7138,
        "contract": "contracts/contracts/GFarmTradingStorageV5.sol:GFarmTradingStorageV5",
        "label": "supportedTokens",
        "offset": 0,
        "slot": "33",
        "type": "t_array(t_address)dyn_storage"
      },
      {
        "astId": 7143,
        "contract": "contracts/contracts/GFarmTradingStorageV5.sol:GFarmTradingStorageV5",
        "label": "traders",
        "offset": 0,
        "slot": "34",
        "type": "t_mapping(t_address,t_struct(Trader)7046_storage)"
      },
      {
        "astId": 7152,
        "contract": "contracts/contracts/GFarmTradingStorageV5.sol:GFarmTradingStorageV5",
        "label": "openTrades",
        "offset": 0,
        "slot": "35",
        "type": "t_mapping(t_address,t_mapping(t_uint256,t_mapping(t_uint256,t_struct(Trade)7067_storage)))"
      },
      {
        "astId": 7161,
        "contract": "contracts/contracts/GFarmTradingStorageV5.sol:GFarmTradingStorageV5",
        "label": "openTradesInfo",
        "offset": 0,
        "slot": "36",
        "type": "t_mapping(t_address,t_mapping(t_uint256,t_mapping(t_uint256,t_struct(TradeInfo)7080_storage)))"
      },
      {
        "astId": 7167,
        "contract": "contracts/contracts/GFarmTradingStorageV5.sol:GFarmTradingStorageV5",
        "label": "openTradesCount",
        "offset": 0,
        "slot": "37",
        "type": "t_mapping(t_address,t_mapping(t_uint256,t_uint256))"
      },
      {
        "astId": 7175,
        "contract": "contracts/contracts/GFarmTradingStorageV5.sol:GFarmTradingStorageV5",
        "label": "openLimitOrderIds",
        "offset": 0,
        "slot": "38",
        "type": "t_mapping(t_address,t_mapping(t_uint256,t_mapping(t_uint256,t_uint256)))"
      },
      {
        "astId": 7181,
        "contract": "contracts/contracts/GFarmTradingStorageV5.sol:GFarmTradingStorageV5",
        "label": "openLimitOrdersCount",
        "offset": 0,
        "slot": "39",
        "type": "t_mapping(t_address,t_mapping(t_uint256,t_uint256))"
      },
      {
        "astId": 7185,
        "contract": "contracts/contracts/GFarmTradingStorageV5.sol:GFarmTradingStorageV5",
        "label": "openLimitOrders",
        "offset": 0,
        "slot": "40",
        "type": "t_array(t_struct(OpenLimitOrder)7107_storage)dyn_storage"
      },
      {
        "astId": 7190,
        "contract": "contracts/contracts/GFarmTradingStorageV5.sol:GFarmTradingStorageV5",
        "label": "reqID_pendingMarketOrder",
        "offset": 0,
        "slot": "41",
        "type": "t_mapping(t_uint256,t_struct(PendingMarketOrder)7121_storage)"
      },
      {
        "astId": 7195,
        "contract": "contracts/contracts/GFarmTradingStorageV5.sol:GFarmTradingStorageV5",
        "label": "reqID_pendingNftOrder",
        "offset": 0,
        "slot": "42",
        "type": "t_mapping(t_uint256,t_struct(PendingNftOrder)7135_storage)"
      },
      {
        "astId": 7200,
        "contract": "contracts/contracts/GFarmTradingStorageV5.sol:GFarmTradingStorageV5",
        "label": "pendingOrderIds",
        "offset": 0,
        "slot": "43",
        "type": "t_mapping(t_address,t_array(t_uint256)dyn_storage)"
      },
      {
        "astId": 7206,
        "contract": "contracts/contracts/GFarmTradingStorageV5.sol:GFarmTradingStorageV5",
        "label": "pendingMarketOpenCount",
        "offset": 0,
        "slot": "44",
        "type": "t_mapping(t_address,t_mapping(t_uint256,t_uint256))"
      },
      {
        "astId": 7212,
        "contract": "contracts/contracts/GFarmTradingStorageV5.sol:GFarmTradingStorageV5",
        "label": "pendingMarketCloseCount",
        "offset": 0,
        "slot": "45",
        "type": "t_mapping(t_address,t_mapping(t_uint256,t_uint256))"
      },
      {
        "astId": 7217,
        "contract": "contracts/contracts/GFarmTradingStorageV5.sol:GFarmTradingStorageV5",
        "label": "pairTraders",
        "offset": 0,
        "slot": "46",
        "type": "t_mapping(t_uint256,t_array(t_address)dyn_storage)"
      },
      {
        "astId": 7223,
        "contract": "contracts/contracts/GFarmTradingStorageV5.sol:GFarmTradingStorageV5",
        "label": "pairTradersId",
        "offset": 0,
        "slot": "47",
        "type": "t_mapping(t_address,t_mapping(t_uint256,t_uint256))"
      },
      {
        "astId": 7229,
        "contract": "contracts/contracts/GFarmTradingStorageV5.sol:GFarmTradingStorageV5",
        "label": "openInterestDai",
        "offset": 0,
        "slot": "48",
        "type": "t_mapping(t_uint256,t_array(t_uint256)3_storage)"
      },
      {
        "astId": 7233,
        "contract": "contracts/contracts/GFarmTradingStorageV5.sol:GFarmTradingStorageV5",
        "label": "tradesPerBlock",
        "offset": 0,
        "slot": "49",
        "type": "t_mapping(t_uint256,t_uint256)"
      },
      {
        "astId": 7237,
        "contract": "contracts/contracts/GFarmTradingStorageV5.sol:GFarmTradingStorageV5",
        "label": "nftLastSuccess",
        "offset": 0,
        "slot": "50",
        "type": "t_mapping(t_uint256,t_uint256)"
      },
      {
        "astId": 7241,
        "contract": "contracts/contracts/GFarmTradingStorageV5.sol:GFarmTradingStorageV5",
        "label": "isTradingContract",
        "offset": 0,
        "slot": "51",
        "type": "t_mapping(t_address,t_bool)"
      }
    ],
    "types": {
      "t_address": {
        "encoding": "inplace",
        "label": "address",
        "numberOfBytes": "20"
      },
      "t_array(t_address)dyn_storage": {
        "base": "t_address",
        "encoding": "dynamic_array",
        "label": "address[]",
        "numberOfBytes": "32"
      },
      "t_array(t_contract(NftInterfaceV5)24005)5_storage": {
        "base": "t_contract(NftInterfaceV5)24005",
        "encoding": "inplace",
        "label": "contract NftInterfaceV5[5]",
        "numberOfBytes": "160"
      },
      "t_array(t_struct(OpenLimitOrder)7107_storage)dyn_storage": {
        "base": "t_struct(OpenLimitOrder)7107_storage",
        "encoding": "dynamic_array",
        "label": "struct GFarmTradingStorageV5.OpenLimitOrder[]",
        "numberOfBytes": "32"
      },
      "t_array(t_uint256)3_storage": {
        "base": "t_uint256",
        "encoding": "inplace",
        "label": "uint256[3]",
        "numberOfBytes": "96"
      },
      "t_array(t_uint256)5_storage": {
        "base": "t_uint256",
        "encoding": "inplace",
        "label": "uint256[5]",
        "numberOfBytes": "160"
      },
      "t_array(t_uint256)dyn_storage": {
        "base": "t_uint256",
        "encoding": "dynamic_array",
        "label": "uint256[]",
        "numberOfBytes": "32"
      },
      "t_bool": {
        "encoding": "inplace",
        "label": "bool",
        "numberOfBytes": "1"
      },
      "t_contract(AggregatorInterfaceV5)22871": {
        "encoding": "inplace",
        "label": "contract AggregatorInterfaceV5",
        "numberOfBytes": "20"
      },
      "t_contract(NftInterfaceV5)24005": {
        "encoding": "inplace",
        "label": "contract NftInterfaceV5",
        "numberOfBytes": "20"
      },
      "t_contract(PausableInterfaceV5)24153": {
        "encoding": "inplace",
        "label": "contract PausableInterfaceV5",
        "numberOfBytes": "20"
      },
      "t_contract(PoolInterfaceV5)24161": {
        "encoding": "inplace",
        "label": "contract PoolInterfaceV5",
        "numberOfBytes": "20"
      },
      "t_contract(TokenInterfaceV5)25021": {
        "encoding": "inplace",
        "label": "contract TokenInterfaceV5",
        "numberOfBytes": "20"
      },
      "t_enum(LimitOrder)7039": {
        "encoding": "inplace",
        "label": "enum GFarmTradingStorageV5.LimitOrder",
        "numberOfBytes": "1"
      },
      "t_mapping(t_address,t_array(t_uint256)dyn_storage)": {
        "encoding": "mapping",
        "key": "t_address",
        "label": "mapping(address => uint256[])",
        "numberOfBytes": "32",
        "value": "t_array(t_uint256)dyn_storage"
      },
      "t_mapping(t_address,t_bool)": {
        "encoding": "mapping",
        "key": "t_address",
        "label": "mapping(address => bool)",
        "numberOfBytes": "32",
        "value": "t_bool"
      },
      "t_mapping(t_address,t_mapping(t_uint256,t_mapping(t_uint256,t_struct(Trade)7067_storage)))": {
        "encoding": "mapping",
        "key": "t_address",
        "label": "mapping(address => mapping(uint256 => mapping(uint256 => struct GFarmTradingStorageV5.Trade)))",
        "numberOfBytes": "32",
        "value": "t_mapping(t_uint256,t_mapping(t_uint256,t_struct(Trade)7067_storage))"
      },
      "t_mapping(t_address,t_mapping(t_uint256,t_mapping(t_uint256,t_struct(TradeInfo)7080_storage)))": {
        "encoding": "mapping",
        "key": "t_address",
        "label": "mapping(address => mapping(uint256 => mapping(uint256 => struct GFarmTradingStorageV5.TradeInfo)))",
        "numberOfBytes": "32",
        "value": "t_mapping(t_uint256,t_mapping(t_uint256,t_struct(TradeInfo)7080_storage))"
      },
      "t_mapping(t_address,t_mapping(t_uint256,t_mapping(t_uint256,t_uint256)))": {
        "encoding": "mapping",
        "key": "t_address",
        "label": "mapping(address => mapping(uint256 => mapping(uint256 => uint256)))",
        "numberOfBytes": "32",
        "value": "t_mapping(t_uint256,t_mapping(t_uint256,t_uint256))"
      },
      "t_mapping(t_address,t_mapping(t_uint256,t_uint256))": {
        "encoding": "mapping",
        "key": "t_address",
        "label": "mapping(address => mapping(uint256 => uint256))",
        "numberOfBytes": "32",
        "value": "t_mapping(t_uint256,t_uint256)"
      },
      "t_mapping(t_address,t_struct(Trader)7046_storage)": {
        "encoding": "mapping",
        "key": "t_address",
        "label": "mapping(address => struct GFarmTradingStorageV5.Trader)",
        "numberOfBytes": "32",
        "value": "t_struct(Trader)7046_storage"
      },
      "t_mapping(t_uint256,t_array(t_address)dyn_storage)": {
        "encoding": "mapping",
        "key": "t_uint256",
        "label": "mapping(uint256 => address[])",
        "numberOfBytes": "32",
        "value": "t_array(t_address)dyn_storage"
      },
      "t_mapping(t_uint256,t_array(t_uint256)3_storage)": {
        "encoding": "mapping",
        "key": "t_uint256",
        "label": "mapping(uint256 => uint256[3])",
        "numberOfBytes": "32",
        "value": "t_array(t_uint256)3_storage"
      },
      "t_mapping(t_uint256,t_mapping(t_uint256,t_struct(Trade)7067_storage))": {
        "encoding": "mapping",
        "key": "t_uint256",
        "label": "mapping(uint256 => mapping(uint256 => struct GFarmTradingStorageV5.Trade))",
        "numberOfBytes": "32",
        "value": "t_mapping(t_uint256,t_struct(Trade)7067_storage)"
      },
      "t_mapping(t_uint256,t_mapping(t_uint256,t_struct(TradeInfo)7080_storage))": {
        "encoding": "mapping",
        "key": "t_uint256",
        "label": "mapping(uint256 => mapping(uint256 => struct GFarmTradingStorageV5.TradeInfo))",
        "numberOfBytes": "32",
        "value": "t_mapping(t_uint256,t_struct(TradeInfo)7080_storage)"
      },
      "t_mapping(t_uint256,t_mapping(t_uint256,t_uint256))": {
        "encoding": "mapping",
        "key": "t_uint256",
        "label": "mapping(uint256 => mapping(uint256 => uint256))",
        "numberOfBytes": "32",
        "value": "t_mapping(t_uint256,t_uint256)"
      },
      "t_mapping(t_uint256,t_struct(PendingMarketOrder)7121_storage)": {
        "encoding": "mapping",
        "key": "t_uint256",
        "label": "mapping(uint256 => struct GFarmTradingStorageV5.PendingMarketOrder)",
        "numberOfBytes": "32",
        "value": "t_struct(PendingMarketOrder)7121_storage"
      },
      "t_mapping(t_uint256,t_struct(PendingNftOrder)7135_storage)": {
        "encoding": "mapping",
        "key": "t_uint256",
        "label": "mapping(uint256 => struct GFarmTradingStorageV5.PendingNftOrder)",
        "numberOfBytes": "32",
        "value": "t_struct(PendingNftOrder)7135_storage"
      },
      "t_mapping(t_uint256,t_struct(Trade)7067_storage)": {
        "encoding": "mapping",
        "key": "t_uint256",
        "label": "mapping(uint256 => struct GFarmTradingStorageV5.Trade)",
        "numberOfBytes": "32",
        "value": "t_struct(Trade)7067_storage"
      },
      "t_mapping(t_uint256,t_struct(TradeInfo)7080_storage)": {
        "encoding": "mapping",
        "key": "t_uint256",
        "label": "mapping(uint256 => struct GFarmTradingStorageV5.TradeInfo)",
        "numberOfBytes": "32",
        "value": "t_struct(TradeInfo)7080_storage"
      },
      "t_mapping(t_uint256,t_uint256)": {
        "encoding": "mapping",
        "key": "t_uint256",
        "label": "mapping(uint256 => uint256)",
        "numberOfBytes": "32",
        "value": "t_uint256"
      },
      "t_struct(OpenLimitOrder)7107_storage": {
        "encoding": "inplace",
        "label": "struct GFarmTradingStorageV5.OpenLimitOrder",
        "members": [
          {
            "astId": 7082,
            "contract": "contracts/contracts/GFarmTradingStorageV5.sol:GFarmTradingStorageV5",
            "label": "trader",
            "offset": 0,
            "slot": "0",
            "type": "t_address"
          },
          {
            "astId": 7084,
            "contract": "contracts/contracts/GFarmTradingStorageV5.sol:GFarmTradingStorageV5",
            "label": "pairIndex",
            "offset": 0,
            "slot": "1",
            "type": "t_uint256"
          },
          {
            "astId": 7086,
            "contract": "contracts/contracts/GFarmTradingStorageV5.sol:GFarmTradingStorageV5",
            "label": "index",
            "offset": 0,
            "slot": "2",
            "type": "t_uint256"
          },
          {
            "astId": 7088,
            "contract": "contracts/contracts/GFarmTradingStorageV5.sol:GFarmTradingStorageV5",
            "label": "positionSize",
            "offset": 0,
            "slot": "3",
            "type": "t_uint256"
          },
          {
            "astId": 7090,
            "contract": "contracts/contracts/GFarmTradingStorageV5.sol:GFarmTradingStorageV5",
            "label": "spreadReductionP",
            "offset": 0,
            "slot": "4",
            "type": "t_uint256"
          },
          {
            "astId": 7092,
            "contract": "contracts/contracts/GFarmTradingStorageV5.sol:GFarmTradingStorageV5",
            "label": "buy",
            "offset": 0,
            "slot": "5",
            "type": "t_bool"
          },
          {
            "astId": 7094,
            "contract": "contracts/contracts/GFarmTradingStorageV5.sol:GFarmTradingStorageV5",
            "label": "leverage",
            "offset": 0,
            "slot": "6",
            "type": "t_uint256"
          },
          {
            "astId": 7096,
            "contract": "contracts/contracts/GFarmTradingStorageV5.sol:GFarmTradingStorageV5",
            "label": "tp",
            "offset": 0,
            "slot": "7",
            "type": "t_uint256"
          },
          {
            "astId": 7098,
            "contract": "contracts/contracts/GFarmTradingStorageV5.sol:GFarmTradingStorageV5",
            "label": "sl",
            "offset": 0,
            "slot": "8",
            "type": "t_uint256"
          },
          {
            "astId": 7100,
            "contract": "contracts/contracts/GFarmTradingStorageV5.sol:GFarmTradingStorageV5",
            "label": "minPrice",
            "offset": 0,
            "slot": "9",
            "type": "t_uint256"
          },
          {
            "astId": 7102,
            "contract": "contracts/contracts/GFarmTradingStorageV5.sol:GFarmTradingStorageV5",
            "label": "maxPrice",
            "offset": 0,
            "slot": "10",
            "type": "t_uint256"
          },
          {
            "astId": 7104,
            "contract": "contracts/contracts/GFarmTradingStorageV5.sol:GFarmTradingStorageV5",
            "label": "block",
            "offset": 0,
            "slot": "11",
            "type": "t_uint256"
          },
          {
            "astId": 7106,
            "contract": "contracts/contracts/GFarmTradingStorageV5.sol:GFarmTradingStorageV5",
            "label": "tokenId",
            "offset": 0,
            "slot": "12",
            "type": "t_uint256"
          }
        ],
        "numberOfBytes": "416"
      },
      "t_struct(PendingMarketOrder)7121_storage": {
        "encoding": "inplace",
        "label": "struct GFarmTradingStorageV5.PendingMarketOrder",
        "members": [
          {
            "astId": 7110,
            "contract": "contracts/contracts/GFarmTradingStorageV5.sol:GFarmTradingStorageV5",
            "label": "trade",
            "offset": 0,
            "slot": "0",
            "type": "t_struct(Trade)7067_storage"
          },
          {
            "astId": 7112,
            "contract": "contracts/contracts/GFarmTradingStorageV5.sol:GFarmTradingStorageV5",
            "label": "block",
            "offset": 0,
            "slot": "10",
            "type": "t_uint256"
          },
          {
            "astId": 7114,
            "contract": "contracts/contracts/GFarmTradingStorageV5.sol:GFarmTradingStorageV5",
            "label": "wantedPrice",
            "offset": 0,
            "slot": "11",
            "type": "t_uint256"
          },
          {
            "astId": 7116,
            "contract": "contracts/contracts/GFarmTradingStorageV5.sol:GFarmTradingStorageV5",
            "label": "slippageP",
            "offset": 0,
            "slot": "12",
            "type": "t_uint256"
          },
          {
            "astId": 7118,
            "contract": "contracts/contracts/GFarmTradingStorageV5.sol:GFarmTradingStorageV5",
            "label": "spreadReductionP",
            "offset": 0,
            "slot": "13",
            "type": "t_uint256"
          },
          {
            "astId": 7120,
            "contract": "contracts/contracts/GFarmTradingStorageV5.sol:GFarmTradingStorageV5",
            "label": "tokenId",
            "offset": 0,
            "slot": "14",
            "type": "t_uint256"
          }
        ],
        "numberOfBytes": "480"
      },
      "t_struct(PendingNftOrder)7135_storage": {
        "encoding": "inplace",
        "label": "struct GFarmTradingStorageV5.PendingNftOrder",
        "members": [
          {
            "astId": 7123,
            "contract": "contracts/contracts/GFarmTradingStorageV5.sol:GFarmTradingStorageV5",
            "label": "nftHolder",
            "offset": 0,
            "slot": "0",
            "type": "t_address"
          },
          {
            "astId": 7125,
            "contract": "contracts/contracts/GFarmTradingStorageV5.sol:GFarmTradingStorageV5",
            "label": "nftId",
            "offset": 0,
            "slot": "1",
            "type": "t_uint256"
          },
          {
            "astId": 7127,
            "contract": "contracts/contracts/GFarmTradingStorageV5.sol:GFarmTradingStorageV5",
            "label": "trader",
            "offset": 0,
            "slot": "2",
            "type": "t_address"
          },
          {
            "astId": 7129,
            "contract": "contracts/contracts/GFarmTradingStorageV5.sol:GFarmTradingStorageV5",
            "label": "pairIndex",
            "offset": 0,
            "slot": "3",
            "type": "t_uint256"
          },
          {
            "astId": 7131,
            "contract": "contracts/contracts/GFarmTradingStorageV5.sol:GFarmTradingStorageV5",
            "label": "index",
            "offset": 0,
            "slot": "4",
            "type": "t_uint256"
          },
          {
            "astId": 7134,
            "contract": "contracts/contracts/GFarmTradingStorageV5.sol:GFarmTradingStorageV5",
            "label": "orderType",
            "offset": 0,
            "slot": "5",
            "type": "t_enum(LimitOrder)7039"
          }
        ],
        "numberOfBytes": "192"
      },
      "t_struct(Trade)7067_storage": {
        "encoding": "inplace",
        "label": "struct GFarmTradingStorageV5.Trade",
        "members": [
          {
            "astId": 7048,
            "contract": "contracts/contracts/GFarmTradingStorageV5.sol:GFarmTradingStorageV5",
            "label": "trader",
            "offset": 0,
            "slot": "0",
            "type": "t_address"
          },
          {
            "astId": 7050,
            "contract": "contracts/contracts/GFarmTradingStorageV5.sol:GFarmTradingStorageV5",
            "label": "pairIndex",
            "offset": 0,
            "slot": "1",
            "type": "t_uint256"
          },
          {
            "astId": 7052,
            "contract": "contracts/contracts/GFarmTradingStorageV5.sol:GFarmTradingStorageV5",
            "label": "index",
            "offset": 0,
            "slot": "2",
            "type": "t_uint256"
          },
          {
            "astId": 7054,
            "contract": "contracts/contracts/GFarmTradingStorageV5.sol:GFarmTradingStorageV5",
            "label": "initialPosToken",
            "offset": 0,
            "slot": "3",
            "type": "t_uint256"
          },
          {
            "astId": 7056,
            "contract": "contracts/contracts/GFarmTradingStorageV5.sol:GFarmTradingStorageV5",
            "label": "positionSizeDai",
            "offset": 0,
            "slot": "4",
            "type": "t_uint256"
          },
          {
            "astId": 7058,
            "contract": "contracts/contracts/GFarmTradingStorageV5.sol:GFarmTradingStorageV5",
            "label": "openPrice",
            "offset": 0,
            "slot": "5",
            "type": "t_uint256"
          },
          {
            "astId": 7060,
            "contract": "contracts/contracts/GFarmTradingStorageV5.sol:GFarmTradingStorageV5",
            "label": "buy",
            "offset": 0,
            "slot": "6",
            "type": "t_bool"
          },
          {
            "astId": 7062,
            "contract": "contracts/contracts/GFarmTradingStorageV5.sol:GFarmTradingStorageV5",
            "label": "leverage",
            "offset": 0,
            "slot": "7",
            "type": "t_uint256"
          },
          {
            "astId": 7064,
            "contract": "contracts/contracts/GFarmTradingStorageV5.sol:GFarmTradingStorageV5",
            "label": "tp",
            "offset": 0,
            "slot": "8",
            "type": "t_uint256"
          },
          {
            "astId": 7066,
            "contract": "contracts/contracts/GFarmTradingStorageV5.sol:GFarmTradingStorageV5",
            "label": "sl",
            "offset": 0,
            "slot": "9",
            "type": "t_uint256"
          }
        ],
        "numberOfBytes": "320"
      },
      "t_struct(TradeInfo)7080_storage": {
        "encoding": "inplace",
        "label": "struct GFarmTradingStorageV5.TradeInfo",
        "members": [
          {
            "astId": 7069,
            "contract": "contracts/contracts/GFarmTradingStorageV5.sol:GFarmTradingStorageV5",
            "label": "tokenId",
            "offset": 0,
            "slot": "0",
            "type": "t_uint256"
          },
          {
            "astId": 7071,
            "contract": "contracts/contracts/GFarmTradingStorageV5.sol:GFarmTradingStorageV5",
            "label": "tokenPriceDai",
            "offset": 0,
            "slot": "1",
            "type": "t_uint256"
          },
          {
            "astId": 7073,
            "contract": "contracts/contracts/GFarmTradingStorageV5.sol:GFarmTradingStorageV5",
            "label": "openInterestDai",
            "offset": 0,
            "slot": "2",
            "type": "t_uint256"
          },
          {
            "astId": 7075,
            "contract": "contracts/contracts/GFarmTradingStorageV5.sol:GFarmTradingStorageV5",
            "label": "tpLastUpdated",
            "offset": 0,
            "slot": "3",
            "type": "t_uint256"
          },
          {
            "astId": 7077,
            "contract": "contracts/contracts/GFarmTradingStorageV5.sol:GFarmTradingStorageV5",
            "label": "slLastUpdated",
            "offset": 0,
            "slot": "4",
            "type": "t_uint256"
          },
          {
            "astId": 7079,
            "contract": "contracts/contracts/GFarmTradingStorageV5.sol:GFarmTradingStorageV5",
            "label": "beingMarketClosed",
            "offset": 0,
            "slot": "5",
            "type": "t_bool"
          }
        ],
        "numberOfBytes": "192"
      },
      "t_struct(Trader)7046_storage": {
        "encoding": "inplace",
        "label": "struct GFarmTradingStorageV5.Trader",
        "members": [
          {
            "astId": 7041,
            "contract": "contracts/contracts/GFarmTradingStorageV5.sol:GFarmTradingStorageV5",
            "label": "leverageUnlocked",
            "offset": 0,
            "slot": "0",
            "type": "t_uint256"
          },
          {
            "astId": 7043,
            "contract": "contracts/contracts/GFarmTradingStorageV5.sol:GFarmTradingStorageV5",
            "label": "referral",
            "offset": 0,
            "slot": "1",
            "type": "t_address"
          },
          {
            "astId": 7045,
            "contract": "contracts/contracts/GFarmTradingStorageV5.sol:GFarmTradingStorageV5",
            "label": "referralRewardsTotal",
            "offset": 0,
            "slot": "2",
            "type": "t_uint256"
          }
        ],
        "numberOfBytes": "96"
      },
      "t_uint256": {
        "encoding": "inplace",
        "label": "uint256",
        "numberOfBytes": "32"
      }
    }
  }
}