{
  "address": "0xD49da8F943744D1BdF4c57c190f8c71c20f134aD",
  "abi": [
    {
      "anonymous": false,
      "inputs": [
        {
          "indexed": true,
          "internalType": "uint16",
          "name": "groupIndex",
          "type": "uint16"
        },
        {
          "indexed": false,
          "internalType": "uint256",
          "name": "currentBlock",
          "type": "uint256"
        },
        {
          "indexed": false,
          "internalType": "uint64",
          "name": "accFeeLong",
          "type": "uint64"
        },
        {
          "indexed": false,
          "internalType": "uint64",
          "name": "accFeeShort",
          "type": "uint64"
        }
      ],
      "name": "GroupAccFeesUpdated",
      "type": "event"
    },
    {
      "anonymous": false,
      "inputs": [
        {
          "indexed": true,
          "internalType": "uint16",
          "name": "groupIndex",
          "type": "uint16"
        },
        {
          "indexed": true,
          "internalType": "bool",
          "name": "long",
          "type": "bool"
        },
        {
          "indexed": true,
          "internalType": "bool",
          "name": "increase",
          "type": "bool"
        },
        {
          "indexed": false,
          "internalType": "uint112",
          "name": "amount",
          "type": "uint112"
        },
        {
          "indexed": false,
          "internalType": "uint112",
          "name": "oiLong",
          "type": "uint112"
        },
        {
          "indexed": false,
          "internalType": "uint112",
          "name": "oiShort",
          "type": "uint112"
        }
      ],
      "name": "GroupOiUpdated",
      "type": "event"
    },
    {
      "anonymous": false,
      "inputs": [
        {
          "indexed": true,
          "internalType": "uint16",
          "name": "groupIndex",
          "type": "uint16"
        },
        {
          "indexed": false,
          "internalType": "uint32",
          "name": "feePerBlock",
          "type": "uint32"
        },
        {
          "indexed": false,
          "internalType": "uint72",
          "name": "maxOi",
          "type": "uint72"
        },
        {
          "indexed": false,
          "internalType": "uint48",
          "name": "feeExponent",
          "type": "uint48"
        }
      ],
      "name": "GroupUpdated",
      "type": "event"
    },
    {
      "anonymous": false,
      "inputs": [
        {
          "indexed": false,
          "internalType": "uint8",
          "name": "version",
          "type": "uint8"
        }
      ],
      "name": "Initialized",
      "type": "event"
    },
    {
      "anonymous": false,
      "inputs": [
        {
          "indexed": true,
          "internalType": "uint256",
          "name": "pairIndex",
          "type": "uint256"
        },
        {
          "indexed": false,
          "internalType": "uint256",
          "name": "currentBlock",
          "type": "uint256"
        },
        {
          "indexed": false,
          "internalType": "uint64",
          "name": "accFeeLong",
          "type": "uint64"
        },
        {
          "indexed": false,
          "internalType": "uint64",
          "name": "accFeeShort",
          "type": "uint64"
        }
      ],
      "name": "PairAccFeesUpdated",
      "type": "event"
    },
    {
      "anonymous": false,
      "inputs": [
        {
          "indexed": true,
          "internalType": "uint256",
          "name": "pairIndex",
          "type": "uint256"
        },
        {
          "indexed": true,
          "internalType": "uint16",
          "name": "prevGroupIndex",
          "type": "uint16"
        },
        {
          "indexed": true,
          "internalType": "uint16",
          "name": "newGroupIndex",
          "type": "uint16"
        }
      ],
      "name": "PairGroupUpdated",
      "type": "event"
    },
    {
      "anonymous": false,
      "inputs": [
        {
          "indexed": true,
          "internalType": "uint256",
          "name": "pairIndex",
          "type": "uint256"
        },
        {
          "indexed": true,
          "internalType": "uint16",
          "name": "groupIndex",
          "type": "uint16"
        },
        {
          "indexed": false,
          "internalType": "uint32",
          "name": "feePerBlock",
          "type": "uint32"
        },
        {
          "indexed": false,
          "internalType": "uint48",
          "name": "feeExponent",
          "type": "uint48"
        },
        {
          "indexed": false,
          "internalType": "uint72",
          "name": "maxOi",
          "type": "uint72"
        }
      ],
      "name": "PairParamsUpdated",
      "type": "event"
    },
    {
      "anonymous": false,
      "inputs": [
        {
          "indexed": true,
          "internalType": "address",
          "name": "trader",
          "type": "address"
        },
        {
          "indexed": true,
          "internalType": "uint256",
          "name": "pairIndex",
          "type": "uint256"
        },
        {
          "indexed": false,
          "internalType": "uint256",
          "name": "index",
          "type": "uint256"
        },
        {
          "indexed": false,
          "internalType": "bool",
          "name": "open",
          "type": "bool"
        },
        {
          "indexed": false,
          "internalType": "bool",
          "name": "long",
          "type": "bool"
        },
        {
          "indexed": false,
          "internalType": "uint256",
          "name": "positionSizeDai",
          "type": "uint256"
        }
      ],
      "name": "TradeActionHandled",
      "type": "event"
    },
    {
      "anonymous": false,
      "inputs": [
        {
          "indexed": true,
          "internalType": "address",
          "name": "trader",
          "type": "address"
        },
        {
          "indexed": true,
          "internalType": "uint256",
          "name": "pairIndex",
          "type": "uint256"
        },
        {
          "indexed": false,
          "internalType": "uint256",
          "name": "index",
          "type": "uint256"
        },
        {
          "indexed": false,
          "internalType": "uint64",
          "name": "initialPairAccFee",
          "type": "uint64"
        },
        {
          "indexed": false,
          "internalType": "uint64",
          "name": "initialGroupAccFee",
          "type": "uint64"
        }
      ],
      "name": "TradeInitialAccFeesStored",
      "type": "event"
    },
    {
      "inputs": [
        {
          "internalType": "uint16",
          "name": "groupIndex",
          "type": "uint16"
        }
      ],
      "name": "getGroup",
      "outputs": [
        {
          "components": [
            {
              "internalType": "uint112",
              "name": "oiLong",
              "type": "uint112"
            },
            {
              "internalType": "uint112",
              "name": "oiShort",
              "type": "uint112"
            },
            {
              "internalType": "uint32",
              "name": "feePerBlock",
              "type": "uint32"
            },
            {
              "internalType": "uint64",
              "name": "accFeeLong",
              "type": "uint64"
            },
            {
              "internalType": "uint64",
              "name": "accFeeShort",
              "type": "uint64"
            },
            {
              "internalType": "uint48",
              "name": "accLastUpdatedBlock",
              "type": "uint48"
            },
            {
              "internalType": "uint80",
              "name": "maxOi",
              "type": "uint80"
            },
            {
              "internalType": "uint256",
              "name": "lastAccBlockWeightedMarketCap",
              "type": "uint256"
            }
          ],
          "internalType": "struct GNSBorrowingFeesInterfaceV6_4.Group",
          "name": "",
          "type": "tuple"
        },
        {
          "internalType": "uint48",
          "name": "",
          "type": "uint48"
        }
      ],
      "stateMutability": "view",
      "type": "function"
    },
    {
      "inputs": [
        {
          "internalType": "uint16",
          "name": "groupIndex",
          "type": "uint16"
        },
        {
          "internalType": "uint256",
          "name": "currentBlock",
          "type": "uint256"
        },
        {
          "internalType": "bool",
          "name": "long",
          "type": "bool"
        }
      ],
      "name": "getGroupPendingAccFee",
      "outputs": [
        {
          "internalType": "uint64",
          "name": "accFee",
          "type": "uint64"
        }
      ],
      "stateMutability": "view",
      "type": "function"
    },
    {
      "inputs": [
        {
          "internalType": "uint16",
          "name": "groupIndex",
          "type": "uint16"
        },
        {
          "internalType": "uint256",
          "name": "currentBlock",
          "type": "uint256"
        }
      ],
      "name": "getGroupPendingAccFees",
      "outputs": [
        {
          "internalType": "uint64",
          "name": "accFeeLong",
          "type": "uint64"
        },
        {
          "internalType": "uint64",
          "name": "accFeeShort",
          "type": "uint64"
        },
        {
          "internalType": "uint64",
          "name": "groupAccFeeDelta",
          "type": "uint64"
        }
      ],
      "stateMutability": "view",
      "type": "function"
    },
    {
      "inputs": [
        {
          "internalType": "uint16[]",
          "name": "indices",
          "type": "uint16[]"
        }
      ],
      "name": "getGroups",
      "outputs": [
        {
          "components": [
            {
              "internalType": "uint112",
              "name": "oiLong",
              "type": "uint112"
            },
            {
              "internalType": "uint112",
              "name": "oiShort",
              "type": "uint112"
            },
            {
              "internalType": "uint32",
              "name": "feePerBlock",
              "type": "uint32"
            },
            {
              "internalType": "uint64",
              "name": "accFeeLong",
              "type": "uint64"
            },
            {
              "internalType": "uint64",
              "name": "accFeeShort",
              "type": "uint64"
            },
            {
              "internalType": "uint48",
              "name": "accLastUpdatedBlock",
              "type": "uint48"
            },
            {
              "internalType": "uint80",
              "name": "maxOi",
              "type": "uint80"
            },
            {
              "internalType": "uint256",
              "name": "lastAccBlockWeightedMarketCap",
              "type": "uint256"
            }
          ],
          "internalType": "struct GNSBorrowingFeesInterfaceV6_4.Group[]",
          "name": "",
          "type": "tuple[]"
        },
        {
          "internalType": "uint48[]",
          "name": "",
          "type": "uint48[]"
        }
      ],
      "stateMutability": "view",
      "type": "function"
    },
    {
      "inputs": [
        {
          "internalType": "uint256",
          "name": "pairIndex",
          "type": "uint256"
        }
      ],
      "name": "getPair",
      "outputs": [
        {
          "components": [
            {
              "components": [
                {
                  "internalType": "uint16",
                  "name": "groupIndex",
                  "type": "uint16"
                },
                {
                  "internalType": "uint48",
                  "name": "block",
                  "type": "uint48"
                },
                {
                  "internalType": "uint64",
                  "name": "initialAccFeeLong",
                  "type": "uint64"
                },
                {
                  "internalType": "uint64",
                  "name": "initialAccFeeShort",
                  "type": "uint64"
                },
                {
                  "internalType": "uint64",
                  "name": "prevGroupAccFeeLong",
                  "type": "uint64"
                },
                {
                  "internalType": "uint64",
                  "name": "prevGroupAccFeeShort",
                  "type": "uint64"
                },
                {
                  "internalType": "uint64",
                  "name": "pairAccFeeLong",
                  "type": "uint64"
                },
                {
                  "internalType": "uint64",
                  "name": "pairAccFeeShort",
                  "type": "uint64"
                },
                {
                  "internalType": "uint64",
                  "name": "_placeholder",
                  "type": "uint64"
                }
              ],
              "internalType": "struct GNSBorrowingFeesInterfaceV6_4.PairGroup[]",
              "name": "groups",
              "type": "tuple[]"
            },
            {
              "internalType": "uint32",
              "name": "feePerBlock",
              "type": "uint32"
            },
            {
              "internalType": "uint64",
              "name": "accFeeLong",
              "type": "uint64"
            },
            {
              "internalType": "uint64",
              "name": "accFeeShort",
              "type": "uint64"
            },
            {
              "internalType": "uint48",
              "name": "accLastUpdatedBlock",
              "type": "uint48"
            },
            {
              "internalType": "uint48",
              "name": "feeExponent",
              "type": "uint48"
            },
            {
              "internalType": "uint256",
              "name": "lastAccBlockWeightedMarketCap",
              "type": "uint256"
            }
          ],
          "internalType": "struct GNSBorrowingFeesInterfaceV6_4.Pair",
          "name": "",
          "type": "tuple"
        },
        {
          "components": [
            {
              "internalType": "uint72",
              "name": "long",
              "type": "uint72"
            },
            {
              "internalType": "uint72",
              "name": "short",
              "type": "uint72"
            },
            {
              "internalType": "uint72",
              "name": "max",
              "type": "uint72"
            },
            {
              "internalType": "uint40",
              "name": "_placeholder",
              "type": "uint40"
            }
          ],
          "internalType": "struct GNSBorrowingFeesInterfaceV6_4.PairOi",
          "name": "",
          "type": "tuple"
        }
      ],
      "stateMutability": "view",
      "type": "function"
    },
    {
      "inputs": [
        {
          "internalType": "uint256",
          "name": "i",
          "type": "uint256"
        },
        {
          "components": [
            {
              "internalType": "uint16",
              "name": "groupIndex",
              "type": "uint16"
            },
            {
              "internalType": "uint48",
              "name": "block",
              "type": "uint48"
            },
            {
              "internalType": "uint64",
              "name": "initialAccFeeLong",
              "type": "uint64"
            },
            {
              "internalType": "uint64",
              "name": "initialAccFeeShort",
              "type": "uint64"
            },
            {
              "internalType": "uint64",
              "name": "prevGroupAccFeeLong",
              "type": "uint64"
            },
            {
              "internalType": "uint64",
              "name": "prevGroupAccFeeShort",
              "type": "uint64"
            },
            {
              "internalType": "uint64",
              "name": "pairAccFeeLong",
              "type": "uint64"
            },
            {
              "internalType": "uint64",
              "name": "pairAccFeeShort",
              "type": "uint64"
            },
            {
              "internalType": "uint64",
              "name": "_placeholder",
              "type": "uint64"
            }
          ],
          "internalType": "struct GNSBorrowingFeesInterfaceV6_4.PairGroup[]",
          "name": "pairGroups",
          "type": "tuple[]"
        },
        {
          "components": [
            {
              "internalType": "uint64",
              "name": "accPairFee",
              "type": "uint64"
            },
            {
              "internalType": "uint64",
              "name": "accGroupFee",
              "type": "uint64"
            },
            {
              "internalType": "uint48",
              "name": "block",
              "type": "uint48"
            },
            {
              "internalType": "uint80",
              "name": "_placeholder",
              "type": "uint80"
            }
          ],
          "internalType": "struct GNSBorrowingFeesInterfaceV6_4.InitialAccFees",
          "name": "initialFees",
          "type": "tuple"
        },
        {
          "internalType": "uint256",
          "name": "pairIndex",
          "type": "uint256"
        },
        {
          "internalType": "bool",
          "name": "long",
          "type": "bool"
        },
        {
          "internalType": "uint256",
          "name": "currentBlock",
          "type": "uint256"
        }
      ],
      "name": "getPairGroupAccFeesDeltas",
      "outputs": [
        {
          "internalType": "uint64",
          "name": "deltaGroup",
          "type": "uint64"
        },
        {
          "internalType": "uint64",
          "name": "deltaPair",
          "type": "uint64"
        },
        {
          "internalType": "bool",
          "name": "beforeTradeOpen",
          "type": "bool"
        }
      ],
      "stateMutability": "view",
      "type": "function"
    },
    {
      "inputs": [
        {
          "internalType": "uint256",
          "name": "pairIndex",
          "type": "uint256"
        }
      ],
      "name": "getPairGroupIndex",
      "outputs": [
        {
          "internalType": "uint16",
          "name": "groupIndex",
          "type": "uint16"
        }
      ],
      "stateMutability": "view",
      "type": "function"
    },
    {
      "inputs": [
        {
          "internalType": "uint256",
          "name": "pairIndex",
          "type": "uint256"
        }
      ],
      "name": "getPairMaxOi",
      "outputs": [
        {
          "internalType": "uint256",
          "name": "",
          "type": "uint256"
        }
      ],
      "stateMutability": "view",
      "type": "function"
    },
    {
      "inputs": [
        {
          "internalType": "uint256",
          "name": "pairIndex",
          "type": "uint256"
        }
      ],
      "name": "getPairOpenInterestDai",
      "outputs": [
        {
          "internalType": "uint256",
          "name": "",
          "type": "uint256"
        },
        {
          "internalType": "uint256",
          "name": "",
          "type": "uint256"
        }
      ],
      "stateMutability": "view",
      "type": "function"
    },
    {
      "inputs": [
        {
          "internalType": "uint256",
          "name": "pairIndex",
          "type": "uint256"
        },
        {
          "internalType": "uint256",
          "name": "currentBlock",
          "type": "uint256"
        },
        {
          "internalType": "bool",
          "name": "long",
          "type": "bool"
        }
      ],
      "name": "getPairPendingAccFee",
      "outputs": [
        {
          "internalType": "uint64",
          "name": "accFee",
          "type": "uint64"
        }
      ],
      "stateMutability": "view",
      "type": "function"
    },
    {
      "inputs": [
        {
          "internalType": "uint256",
          "name": "pairIndex",
          "type": "uint256"
        },
        {
          "internalType": "uint256",
          "name": "currentBlock",
          "type": "uint256"
        }
      ],
      "name": "getPairPendingAccFees",
      "outputs": [
        {
          "internalType": "uint64",
          "name": "accFeeLong",
          "type": "uint64"
        },
        {
          "internalType": "uint64",
          "name": "accFeeShort",
          "type": "uint64"
        },
        {
          "internalType": "uint64",
          "name": "pairAccFeeDelta",
          "type": "uint64"
        }
      ],
      "stateMutability": "view",
      "type": "function"
    },
    {
      "inputs": [
        {
          "components": [
            {
              "internalType": "uint64",
              "name": "accFeeLong",
              "type": "uint64"
            },
            {
              "internalType": "uint64",
              "name": "accFeeShort",
              "type": "uint64"
            },
            {
              "internalType": "uint256",
              "name": "oiLong",
              "type": "uint256"
            },
            {
              "internalType": "uint256",
              "name": "oiShort",
              "type": "uint256"
            },
            {
              "internalType": "uint32",
              "name": "feePerBlock",
              "type": "uint32"
            },
            {
              "internalType": "uint256",
              "name": "currentBlock",
              "type": "uint256"
            },
            {
              "internalType": "uint256",
              "name": "accLastUpdatedBlock",
              "type": "uint256"
            },
            {
              "internalType": "uint72",
              "name": "maxOi",
              "type": "uint72"
            },
            {
              "internalType": "uint48",
              "name": "feeExponent",
              "type": "uint48"
            }
          ],
          "internalType": "struct GNSBorrowingFeesInterfaceV6_4.PendingAccFeesInput",
          "name": "input",
          "type": "tuple"
        }
      ],
      "name": "getPendingAccFees",
      "outputs": [
        {
          "internalType": "uint64",
          "name": "newAccFeeLong",
          "type": "uint64"
        },
        {
          "internalType": "uint64",
          "name": "newAccFeeShort",
          "type": "uint64"
        },
        {
          "internalType": "uint64",
          "name": "delta",
          "type": "uint64"
        }
      ],
      "stateMutability": "pure",
      "type": "function"
    },
    {
      "inputs": [
        {
          "components": [
            {
              "internalType": "address",
              "name": "trader",
              "type": "address"
            },
            {
              "internalType": "uint256",
              "name": "pairIndex",
              "type": "uint256"
            },
            {
              "internalType": "uint256",
              "name": "index",
              "type": "uint256"
            },
            {
              "internalType": "bool",
              "name": "long",
              "type": "bool"
            },
            {
              "internalType": "uint256",
              "name": "collateral",
              "type": "uint256"
            },
            {
              "internalType": "uint256",
              "name": "leverage",
              "type": "uint256"
            }
          ],
          "internalType": "struct GNSBorrowingFeesInterfaceV6_4.BorrowingFeeInput",
          "name": "input",
          "type": "tuple"
        }
      ],
      "name": "getTradeBorrowingFee",
      "outputs": [
        {
          "internalType": "uint256",
          "name": "fee",
          "type": "uint256"
        }
      ],
      "stateMutability": "view",
      "type": "function"
    },
    {
      "inputs": [
        {
          "internalType": "address",
          "name": "trader",
          "type": "address"
        },
        {
          "internalType": "uint256",
          "name": "pairIndex",
          "type": "uint256"
        },
        {
          "internalType": "uint256",
          "name": "index",
          "type": "uint256"
        }
      ],
      "name": "getTradeInitialAccFees",
      "outputs": [
        {
          "components": [
            {
              "internalType": "uint64",
              "name": "accPairFee",
              "type": "uint64"
            },
            {
              "internalType": "uint64",
              "name": "accGroupFee",
              "type": "uint64"
            },
            {
              "internalType": "uint48",
              "name": "block",
              "type": "uint48"
            },
            {
              "internalType": "uint80",
              "name": "_placeholder",
              "type": "uint80"
            }
          ],
          "internalType": "struct GNSBorrowingFeesInterfaceV6_4.InitialAccFees",
          "name": "borrowingFees",
          "type": "tuple"
        },
        {
          "components": [
            {
              "internalType": "uint256",
              "name": "rollover",
              "type": "uint256"
            },
            {
              "internalType": "int256",
              "name": "funding",
              "type": "int256"
            },
            {
              "internalType": "bool",
              "name": "openedAfterUpdate",
              "type": "bool"
            }
          ],
          "internalType": "struct GNSPairInfosInterfaceV6.TradeInitialAccFees",
          "name": "otherFees",
          "type": "tuple"
        }
      ],
      "stateMutability": "view",
      "type": "function"
    },
    {
      "inputs": [
        {
          "components": [
            {
              "internalType": "address",
              "name": "trader",
              "type": "address"
            },
            {
              "internalType": "uint256",
              "name": "pairIndex",
              "type": "uint256"
            },
            {
              "internalType": "uint256",
              "name": "index",
              "type": "uint256"
            },
            {
              "internalType": "uint256",
              "name": "openPrice",
              "type": "uint256"
            },
            {
              "internalType": "bool",
              "name": "long",
              "type": "bool"
            },
            {
              "internalType": "uint256",
              "name": "collateral",
              "type": "uint256"
            },
            {
              "internalType": "uint256",
              "name": "leverage",
              "type": "uint256"
            }
          ],
          "internalType": "struct GNSBorrowingFeesInterfaceV6_4.LiqPriceInput",
          "name": "input",
          "type": "tuple"
        }
      ],
      "name": "getTradeLiquidationPrice",
      "outputs": [
        {
          "internalType": "uint256",
          "name": "",
          "type": "uint256"
        }
      ],
      "stateMutability": "view",
      "type": "function"
    },
    {
      "inputs": [
        {
          "internalType": "uint256",
          "name": "",
          "type": "uint256"
        }
      ],
      "name": "groupFeeExponents",
      "outputs": [
        {
          "internalType": "uint48",
          "name": "",
          "type": "uint48"
        }
      ],
      "stateMutability": "view",
      "type": "function"
    },
    {
      "inputs": [
        {
          "internalType": "uint16",
          "name": "",
          "type": "uint16"
        }
      ],
      "name": "groups",
      "outputs": [
        {
          "internalType": "uint112",
          "name": "oiLong",
          "type": "uint112"
        },
        {
          "internalType": "uint112",
          "name": "oiShort",
          "type": "uint112"
        },
        {
          "internalType": "uint32",
          "name": "feePerBlock",
          "type": "uint32"
        },
        {
          "internalType": "uint64",
          "name": "accFeeLong",
          "type": "uint64"
        },
        {
          "internalType": "uint64",
          "name": "accFeeShort",
          "type": "uint64"
        },
        {
          "internalType": "uint48",
          "name": "accLastUpdatedBlock",
          "type": "uint48"
        },
        {
          "internalType": "uint80",
          "name": "maxOi",
          "type": "uint80"
        },
        {
          "internalType": "uint256",
          "name": "lastAccBlockWeightedMarketCap",
          "type": "uint256"
        }
      ],
      "stateMutability": "view",
      "type": "function"
    },
    {
      "inputs": [
        {
          "internalType": "address",
          "name": "trader",
          "type": "address"
        },
        {
          "internalType": "uint256",
          "name": "pairIndex",
          "type": "uint256"
        },
        {
          "internalType": "uint256",
          "name": "index",
          "type": "uint256"
        },
        {
          "internalType": "uint256",
          "name": "positionSizeDai",
          "type": "uint256"
        },
        {
          "internalType": "bool",
          "name": "open",
          "type": "bool"
        },
        {
          "internalType": "bool",
          "name": "long",
          "type": "bool"
        }
      ],
      "name": "handleTradeAction",
      "outputs": [],
      "stateMutability": "nonpayable",
      "type": "function"
    },
    {
      "inputs": [
        {
          "internalType": "address",
          "name": "",
          "type": "address"
        },
        {
          "internalType": "uint256",
          "name": "",
          "type": "uint256"
        },
        {
          "internalType": "uint256",
          "name": "",
          "type": "uint256"
        }
      ],
      "name": "initialAccFees",
      "outputs": [
        {
          "internalType": "uint64",
          "name": "accPairFee",
          "type": "uint64"
        },
        {
          "internalType": "uint64",
          "name": "accGroupFee",
          "type": "uint64"
        },
        {
          "internalType": "uint48",
          "name": "block",
          "type": "uint48"
        },
        {
          "internalType": "uint80",
          "name": "_placeholder",
          "type": "uint80"
        }
      ],
      "stateMutability": "view",
      "type": "function"
    },
    {
      "inputs": [
        {
          "internalType": "contract StorageInterfaceV5",
          "name": "_storageT",
          "type": "address"
        },
        {
          "internalType": "contract GNSPairInfosInterfaceV6",
          "name": "_pairInfos",
          "type": "address"
        }
      ],
      "name": "initialize",
      "outputs": [],
      "stateMutability": "nonpayable",
      "type": "function"
    },
    {
      "inputs": [],
      "name": "pairInfos",
      "outputs": [
        {
          "internalType": "contract GNSPairInfosInterfaceV6",
          "name": "",
          "type": "address"
        }
      ],
      "stateMutability": "view",
      "type": "function"
    },
    {
      "inputs": [
        {
          "internalType": "uint256",
          "name": "",
          "type": "uint256"
        }
      ],
      "name": "pairOis",
      "outputs": [
        {
          "internalType": "uint72",
          "name": "long",
          "type": "uint72"
        },
        {
          "internalType": "uint72",
          "name": "short",
          "type": "uint72"
        },
        {
          "internalType": "uint72",
          "name": "max",
          "type": "uint72"
        },
        {
          "internalType": "uint40",
          "name": "_placeholder",
          "type": "uint40"
        }
      ],
      "stateMutability": "view",
      "type": "function"
    },
    {
      "inputs": [
        {
          "internalType": "uint256",
          "name": "",
          "type": "uint256"
        }
      ],
      "name": "pairs",
      "outputs": [
        {
          "internalType": "uint32",
          "name": "feePerBlock",
          "type": "uint32"
        },
        {
          "internalType": "uint64",
          "name": "accFeeLong",
          "type": "uint64"
        },
        {
          "internalType": "uint64",
          "name": "accFeeShort",
          "type": "uint64"
        },
        {
          "internalType": "uint48",
          "name": "accLastUpdatedBlock",
          "type": "uint48"
        },
        {
          "internalType": "uint48",
          "name": "feeExponent",
          "type": "uint48"
        },
        {
          "internalType": "uint256",
          "name": "lastAccBlockWeightedMarketCap",
          "type": "uint256"
        }
      ],
      "stateMutability": "view",
      "type": "function"
    },
    {
      "inputs": [
        {
          "internalType": "uint16",
          "name": "groupIndex",
          "type": "uint16"
        },
        {
          "components": [
            {
              "internalType": "uint32",
              "name": "feePerBlock",
              "type": "uint32"
            },
            {
              "internalType": "uint72",
              "name": "maxOi",
              "type": "uint72"
            },
            {
              "internalType": "uint48",
              "name": "feeExponent",
              "type": "uint48"
            }
          ],
          "internalType": "struct GNSBorrowingFeesInterfaceV6_4.GroupParams",
          "name": "value",
          "type": "tuple"
        }
      ],
      "name": "setGroupParams",
      "outputs": [],
      "stateMutability": "nonpayable",
      "type": "function"
    },
    {
      "inputs": [
        {
          "internalType": "uint16[]",
          "name": "indices",
          "type": "uint16[]"
        },
        {
          "components": [
            {
              "internalType": "uint32",
              "name": "feePerBlock",
              "type": "uint32"
            },
            {
              "internalType": "uint72",
              "name": "maxOi",
              "type": "uint72"
            },
            {
              "internalType": "uint48",
              "name": "feeExponent",
              "type": "uint48"
            }
          ],
          "internalType": "struct GNSBorrowingFeesInterfaceV6_4.GroupParams[]",
          "name": "values",
          "type": "tuple[]"
        }
      ],
      "name": "setGroupParamsArray",
      "outputs": [],
      "stateMutability": "nonpayable",
      "type": "function"
    },
    {
      "inputs": [
        {
          "internalType": "uint256",
          "name": "pairIndex",
          "type": "uint256"
        },
        {
          "components": [
            {
              "internalType": "uint16",
              "name": "groupIndex",
              "type": "uint16"
            },
            {
              "internalType": "uint32",
              "name": "feePerBlock",
              "type": "uint32"
            },
            {
              "internalType": "uint48",
              "name": "feeExponent",
              "type": "uint48"
            },
            {
              "internalType": "uint72",
              "name": "maxOi",
              "type": "uint72"
            }
          ],
          "internalType": "struct GNSBorrowingFeesInterfaceV6_4.PairParams",
          "name": "value",
          "type": "tuple"
        }
      ],
      "name": "setPairParams",
      "outputs": [],
      "stateMutability": "nonpayable",
      "type": "function"
    },
    {
      "inputs": [
        {
          "internalType": "uint256[]",
          "name": "indices",
          "type": "uint256[]"
        },
        {
          "components": [
            {
              "internalType": "uint16",
              "name": "groupIndex",
              "type": "uint16"
            },
            {
              "internalType": "uint32",
              "name": "feePerBlock",
              "type": "uint32"
            },
            {
              "internalType": "uint48",
              "name": "feeExponent",
              "type": "uint48"
            },
            {
              "internalType": "uint72",
              "name": "maxOi",
              "type": "uint72"
            }
          ],
          "internalType": "struct GNSBorrowingFeesInterfaceV6_4.PairParams[]",
          "name": "values",
          "type": "tuple[]"
        }
      ],
      "name": "setPairParamsArray",
      "outputs": [],
      "stateMutability": "nonpayable",
      "type": "function"
    },
    {
      "inputs": [],
      "name": "storageT",
      "outputs": [
        {
          "internalType": "contract StorageInterfaceV5",
          "name": "",
          "type": "address"
        }
      ],
      "stateMutability": "view",
      "type": "function"
    },
    {
      "inputs": [
        {
          "internalType": "uint256",
          "name": "pairIndex",
          "type": "uint256"
        },
        {
          "internalType": "bool",
          "name": "long",
          "type": "bool"
        },
        {
          "internalType": "uint256",
          "name": "positionSizeDai",
          "type": "uint256"
        }
      ],
      "name": "withinMaxGroupOi",
      "outputs": [
        {
          "internalType": "bool",
          "name": "",
          "type": "bool"
        }
      ],
      "stateMutability": "view",
      "type": "function"
    }
  ],
  "transactionHash": "0xaa72810bbaed46ea7e21c5fffdeb623e7cde3246611b19f43ec9df118100ee65",
  "args": [],
  "numDeployments": 1,
  "solcInputHash": "f7a9b91dc44ee5e79c1a5d5aff87db1f",
  "bytecode": "0x608060405234801561001057600080fd5b506146cb806100206000396000f3fe608060405234801561001057600080fd5b50600436106101cf5760003560e01c80638f69423811610104578063b94ffa1c116100a2578063ce67edfb11610071578063ce67edfb146107a3578063d6274505146107b6578063e3e98a75146107d9578063ff933fc41461081857600080fd5b8063b94ffa1c146106bb578063bb219c75146106eb578063bcb788711461076f578063bdf391cc1461078257600080fd5b806393e0e533116100de57806393e0e533146105cb578063b0baf5d4146105de578063b2c9dd8b146105f1578063b91ac7881461060457600080fd5b80638f694238146104e957806390895ff11461050f578063930842aa146105b857600080fd5b8063485cc95511610171578063706faf3a1161014b578063706faf3a1461040c5780637b64112b1461041f5780637cbd3c98146104325780638ee1caa7146104ac57600080fd5b8063485cc955146103bc5780634c67cfa0146103d1578063651501b5146103f957600080fd5b80631ab5911a116101ad5780631ab5911a1461025857806322005202146102835780632d28a817146102a45780633979324d146102c557600080fd5b80630f8df7e0146101d45780631346b0ff1461021457806316fff0741461023f575b600080fd5b6101e76101e2366004613e3e565b610839565b604080516001600160401b0394851681529390921660208401521515908201526060015b60405180910390f35b600154610227906001600160a01b031681565b6040516001600160a01b03909116815260200161020b565b600054610227906201000090046001600160a01b031681565b61026b610266366004613de5565b6109ba565b6040516001600160401b03909116815260200161020b565b6102966102913660046139f1565b6109e5565b60405161020b929190614162565b6102b76102b2366004613bc4565b610c11565b60405190815260200161020b565b6103516102d3366004613d61565b60026020819052600091825260409091208054600182015491909201546001600160701b0380841693600160701b810490911692600160e01b90910463ffffffff16916001600160401b0380831692600160401b810490911691600160801b820465ffffffffffff1691600160b01b90046001600160501b03169088565b604080516001600160701b03998a16815298909716602089015263ffffffff909516958701959095526001600160401b0392831660608701529116608085015265ffffffffffff1660a08401526001600160501b0390911660c083015260e08201526101000161020b565b6103cf6103ca366004613b72565b610f21565b005b6103e46103df366004613e25565b6110cd565b6040805192835260208301919091520161020b565b6103cf610407366004613acb565b6111e8565b6102b761041a366004613c4e565b611331565b61026b61042d36600461405d565b6115ff565b610445610440366004613955565b61160e565b6040805183516001600160401b039081168252602080860151909116818301528483015165ffffffffffff16828401526060948501516001600160501b031694820194909452825160808201529282015160a08401520151151560c082015260e00161020b565b6104bf6104ba36600461403b565b611752565b604080516001600160401b039485168152928416602084015292169181019190915260600161020b565b6104fc6104f7366004613e25565b611982565b60405161ffff909116815260200161020b565b61057761051d366004613955565b60046020908152600093845260408085208252928452828420905282529020546001600160401b0380821691600160401b810490911690600160801b810465ffffffffffff1690600160b01b90046001600160501b031684565b604080516001600160401b03958616815294909316602085015265ffffffffffff909116918301919091526001600160501b0316606082015260800161020b565b6103cf6105c6366004613d7c565b611aa5565b6104bf6105d9366004613c66565b611b69565b6103cf6105ec366004614011565b611d2a565b6103cf6105ff366004613a32565b611dea565b61066f610612366004613e25565b6003602052600090815260409020600181015460029091015463ffffffff8216916001600160401b036401000000008204811692600160601b83049091169165ffffffffffff600160a01b8204811692600160d01b909204169086565b6040805163ffffffff9790971687526001600160401b039586166020880152939094169285019290925265ffffffffffff908116606085015216608083015260a082015260c00161020b565b6102b76106c9366004613e25565b600090815260056020526040902054600160901b90046001600160481b031690565b6107386106f9366004613e25565b6005602052600090815260409020546001600160481b0380821691600160481b8104821691600160901b82041690600160d81b900464ffffffffff1684565b604080516001600160481b0395861681529385166020850152919093169082015264ffffffffff909116606082015260800161020b565b6104bf61077d366004613dbb565b611f39565b610795610790366004613e25565b6120d8565b60405161020b92919061425d565b6103cf6107b136600461398a565b6122f5565b6107c96107c4366004613fd9565b612656565b604051901515815260200161020b565b6108016107e7366004613e25565b60066020526000908152604090205465ffffffffffff1681565b60405165ffffffffffff909116815260200161020b565b61082b610826366004613d61565b61277c565b60405161020b929190614238565b600080600080888a8151811061085157610851614643565b60200260200101519050876040015165ffffffffffff16816020015165ffffffffffff161091506001895161088691906145fa565b8a14156108ae57805161089a9086886109ba565b93506108a78786886115ff565b925061093e565b6000896108bc8c6001614464565b815181106108cc576108cc614643565b602002602001015190508280156108fb5750886040015165ffffffffffff16816020015165ffffffffffff1611155b1561090e576000809450945050506109ae565b8661091d578060a00151610923565b80608001515b945086610934578060e0015161093a565b8060c001515b9350505b81156109695760208801516109539085614611565b88519094506109629084614611565b92506109ac565b8561097857806060015161097e565b80604001515b6109889085614611565b935085610999578060e0015161099f565b8060c001515b6109a99084614611565b92505b505b96509650969350505050565b60008060006109c98686611f39565b5091509150836109d957806109db565b815b9695505050505050565b6060806000836001600160401b03811115610a0257610a02614659565b604051908082528060200260200182016040528015610a3b57816020015b610a2861378b565b815260200190600190039081610a205790505b5090506000846001600160401b03811115610a5857610a58614659565b604051908082528060200260200182016040528015610a81578160200160208202803683370190505b5090508460005b81811015610c025760026000898984818110610aa657610aa6614643565b9050602002016020810190610abb9190613d61565b61ffff168152602080820192909252604090810160002081516101008101835281546001600160701b038082168352600160701b82041694820194909452600160e01b90930463ffffffff169183019190915260018101546001600160401b038082166060850152600160401b8204166080840152600160801b810465ffffffffffff1660a0840152600160b01b90046001600160501b031660c08301526002015460e08201528451859083908110610b7657610b76614643565b602002602001018190525060066000898984818110610b9757610b97614643565b9050602002016020810190610bac9190613d61565b61ffff16815260200190815260200160002060009054906101000a900465ffffffffffff16838281518110610be357610be3614643565b65ffffffffffff90921660209283029190910190910152600101610a88565b509193509150505b9250929050565b80516001600160a01b03166000908152600460209081526040808320828501805185529083528184208286015185528352818420825160808101845290546001600160401b038082168352600160401b82041682860152600160801b810465ffffffffffff1682850152600160b01b90046001600160501b0316606082015290518452600383528184208054835181860281018601909452808452919385939290849084015b82821015610d68576000848152602090819020604080516101208101825260028602909201805461ffff8116845265ffffffffffff62010000820416848601526001600160401b03600160401b808304821694860194909452600160801b80830482166060870152600160c01b928390048216608087015260019384015480831660a0880152948504821660c08701528404811660e086015292049091166101008301529083529092019101610cb7565b5050505090506000610d7861283c565b6040805161012081018252600080825260208201819052918101829052606081018290526080810182905260a0810182905260c0810182905260e08101829052610100810191909152909150825115610de95782600081518110610dde57610dde614643565b602002602001015190505b82511580610e0e5750836040015165ffffffffffff16816020015165ffffffffffff16115b15610e62578351835115610e39578660600151610e2f578160e00151610e4c565b8160c00151610e4c565b610e4c87602001518489606001516115ff565b610e569190614611565b6001600160401b031694505b82515b8015610ee55760008080610e8f610e7d6001866145fa565b888a8d602001518e606001518b610839565b925092509250816001600160401b0316836001600160401b031611610eb45781610eb6565b825b610ec9906001600160401b03168a614464565b98508015610ed957505050610ee5565b50505060001901610e65565b5060646402540be400868860a001518960800151610f0391906145b3565b610f0d91906145b3565b610f17919061449e565b6109db919061449e565b600054610100900460ff1615808015610f415750600054600160ff909116105b80610f5b5750303b158015610f5b575060005460ff166001145b610fc35760405162461bcd60e51b815260206004820152602e60248201527f496e697469616c697a61626c653a20636f6e747261637420697320616c72656160448201526d191e481a5b9a5d1a585b1a5e995960921b60648201526084015b60405180910390fd5b6000805460ff191660011790558015610fe6576000805461ff0019166101001790555b6001600160a01b0383161580159061100657506001600160a01b03821615155b6110415760405162461bcd60e51b815260206004820152600c60248201526b57524f4e475f504152414d5360a01b6044820152606401610fba565b6000805462010000600160b01b031916620100006001600160a01b038681169190910291909117909155600180546001600160a01b03191691841691909117905580156110c8576000805461ff0019169055604051600181527f7f26b83ff96e1f2b6a682f133852f6798a09c465da95921460cefb38474024989060200160405180910390a15b505050565b600080546040516328daca2160e01b8152600481018490526024810183905282916201000090046001600160a01b0316906328daca219060440160206040518083038186803b15801561111f57600080fd5b505afa158015611133573d6000803e3d6000fd5b505050506040513d601f19601f820116820180604052508101906111579190613bab565b6000546040516328daca2160e01b81526004810186905260016024820152620100009091046001600160a01b0316906328daca219060440160206040518083038186803b1580156111a757600080fd5b505afa1580156111bb573d6000803e3d6000fd5b505050506040513d601f19601f820116820180604052508101906111df9190613bab565b91509150915091565b600160009054906101000a90046001600160a01b03166001600160a01b031663481c6a756040518163ffffffff1660e01b815260040160206040518083038186803b15801561123657600080fd5b505afa15801561124a573d6000803e3d6000fd5b505050506040513d601f19601f8201168201806040525081019061126e9190613938565b6001600160a01b0316336001600160a01b03161461129e5760405162461bcd60e51b8152600401610fba906141f0565b828181146112dd5760405162461bcd60e51b815260206004820152600c60248201526b0aea49e9c8ebe988a9c8ea8960a31b6044820152606401610fba565b60005b81811015611329576113218686838181106112fd576112fd614643565b9050602002013585858481811061131657611316614643565b9050608002016128d1565b6001016112e0565b505050505050565b6001546000906001600160a01b0316636bcbe860606084013561135a60a0860160808701613b55565b8560a001358660c001356113d56040518060c001604052808a6000016020810190611385919061391b565b6001600160a01b0316815260208b810135908201526040808c0135908201526060016113b760a08c0160808d01613b55565b151581526020018a60a0013581526020018a60c00135815250610c11565b6001546001600160a01b03166358f796bc6113f360208c018c61391b565b604080516001600160e01b031960e085901b1681526001600160a01b03909216600483015260208d013560248301528c0135604482015260a08c0135606482015260840160206040518083038186803b15801561144f57600080fd5b505afa158015611463573d6000803e3d6000fd5b505050506040513d601f19601f820116820180604052508101906114879190613bab565b6114919190614464565b6001546001600160a01b031663f6c50efe6114af60208c018c61391b565b8b602001358c604001358d60800160208101906114cc9190613b55565b6040516001600160e01b031960e087901b1681526001600160a01b039094166004850152602484019290925260448301521515606482015260a08c0135608482015260c08c013560a482015260c40160206040518083038186803b15801561153357600080fd5b505afa158015611547573d6000803e3d6000fd5b505050506040513d601f19601f8201168201806040525081019061156b9190613bab565b6040516001600160e01b031960e089901b1681526004810196909652931515602486015260448501929092526064840152608483015260a482015260c40160206040518083038186803b1580156115c157600080fd5b505afa1580156115d5573d6000803e3d6000fd5b505050506040513d601f19601f820116820180604052508101906115f99190613bab565b92915050565b60008060006109c98686611752565b604080516080810182526000808252602080830182905282840182905260608084018390528451908101855282815290810182905292830152906001600160a01b0385811660008181526004602081815260408084208a85528252808420898552825292839020835160808101855290546001600160401b038082168352600160401b82041692820192909252600160801b820465ffffffffffff1681850152600160b01b9091046001600160501b031660608201526001549251632f6ac02760e11b815291820193909352602481018890526044810187905291945090911690635ed5804e9060640160606040518083038186803b15801561171057600080fd5b505afa158015611724573d6000803e3d6000fd5b505050506040513d601f19601f820116820180604052508101906117489190613d00565b9050935093915050565b6000828152600360209081526040808320815181546101009481028201850190935260e0810183815285948594859492849290918491879085015b8282101561183e576000848152602090819020604080516101208101825260028602909201805461ffff8116845265ffffffffffff62010000820416848601526001600160401b03600160401b808304821694860194909452600160801b80830482166060870152600160c01b928390048216608087015260019384015480831660a0880152948504821660c08701528404811660e08601529204909116610100830152908352909201910161178d565b50505090825250600182015463ffffffff811660208301526001600160401b03640100000000820481166040840152600160601b820416606083015265ffffffffffff600160a01b820481166080840152600160d01b9091041660a082015260029091015460c09091015290506000806118b7886110cd565b9150915061197160405180610120016040528085604001516001600160401b0316815260200185606001516001600160401b03168152602001848152602001838152602001856020015163ffffffff168152602001898152602001856080015165ffffffffffff168152602001600560008c815260200190815260200160002060000160129054906101000a90046001600160481b03166001600160481b031681526020018560a0015165ffffffffffff16815250611b69565b919a90995090975095505050505050565b600081815260036020908152604080832080548251818502810185019093528083528493849084015b82821015611a5c576000848152602090819020604080516101208101825260028602909201805461ffff8116845265ffffffffffff62010000820416848601526001600160401b03600160401b808304821694860194909452600160801b80830482166060870152600160c01b928390048216608087015260019384015480831660a0880152948504821660c08701528404811660e0860152920490911661010083015290835290920191016119ab565b5050505090508051600014611a9b578060018251611a7a91906145fa565b81518110611a8a57611a8a614643565b602002602001015160000151611a9e565b60005b9392505050565b600160009054906101000a90046001600160a01b03166001600160a01b031663481c6a756040518163ffffffff1660e01b815260040160206040518083038186803b158015611af357600080fd5b505afa158015611b07573d6000803e3d6000fd5b505050506040513d601f19601f82011682018060405250810190611b2b9190613938565b6001600160a01b0316336001600160a01b031614611b5b5760405162461bcd60e51b8152600401610fba906141f0565b611b658282613147565b5050565b60008060008360c001518460a001511015611bb45760405162461bcd60e51b815260206004820152600b60248201526a212627a1a5afa7a92222a960a91b6044820152606401610fba565b6060840151604085015110600081611bdf5785606001518660400151611bda91906145fa565b611bf3565b85604001518660600151611bf391906145fa565b90506000808760e001516001600160481b0316118015611c205750600087610100015165ffffffffffff16115b611c2b576000611cb7565b610100870151611c4390670de0b6b3a7640000614503565b61010088015160e08901516001600160481b0316611c66856402540be4006145b3565b611c70919061449e565b611c7a9190614503565b886080015163ffffffff168960c001518a60a00151611c9991906145fa565b611ca391906145b3565b611cad91906145b3565b611cb7919061449e565b90506001600160401b03811115611ce05760405162461bcd60e51b8152600401610fba90614216565b80935082611cfa578651611cf590859061447c565b611cfd565b86515b955082611d0e578660200151611d1e565b838760200151611d1e919061447c565b94505050509193909250565b600160009054906101000a90046001600160a01b03166001600160a01b031663481c6a756040518163ffffffff1660e01b815260040160206040518083038186803b158015611d7857600080fd5b505afa158015611d8c573d6000803e3d6000fd5b505050506040513d601f19601f82011682018060405250810190611db09190613938565b6001600160a01b0316336001600160a01b031614611de05760405162461bcd60e51b8152600401610fba906141f0565b611b6582826128d1565b600160009054906101000a90046001600160a01b03166001600160a01b031663481c6a756040518163ffffffff1660e01b815260040160206040518083038186803b158015611e3857600080fd5b505afa158015611e4c573d6000803e3d6000fd5b505050506040513d601f19601f82011682018060405250810190611e709190613938565b6001600160a01b0316336001600160a01b031614611ea05760405162461bcd60e51b8152600401610fba906141f0565b82818114611edf5760405162461bcd60e51b815260206004820152600c60248201526b0aea49e9c8ebe988a9c8ea8960a31b6044820152606401610fba565b60005b8181101561132957611f31868683818110611eff57611eff614643565b9050602002016020810190611f149190613d61565b858584818110611f2657611f26614643565b905060600201613147565b600101611ee2565b61ffff8216600090815260026020818152604080842081516101008101835281546001600160701b038082168352600160701b8204811683870152600160e01b90910463ffffffff168285015260018301546001600160401b0380821660608501908152600160401b8304821660808601908152600160801b840465ffffffffffff1660a0870152600160b01b9093046001600160501b031660c0860152949097015460e08401528451610120810186529351871684525190951693820193909352825185948594936120c99392908301916402540be400916120259116670de0b6b3a76400006145b3565b61202f919061449e565b81526020016402540be40084602001516001600160701b0316670de0b6b3a764000061205b91906145b3565b612065919061449e565b815260408085015163ffffffff166020808401919091528183018a905260a08087015165ffffffffffff908116606086015260c08801516001600160481b0316608086015261ffff8d16600090815260069093529290912054909116910152611b69565b91989097509095509350505050565b6040805160e08082018352606080835260006020808501829052848601829052828501829052608080860183905260a0860183905260c0860183905286519081018752828152808201839052808701839052928301829052868252600381528582206005825286832087518254938402810161010090810190995295860183815296979496919590949093869385939285929085015b8282101561221f576000848152602090819020604080516101208101825260028602909201805461ffff8116845265ffffffffffff62010000820416848601526001600160401b03600160401b808304821694860194909452600160801b80830482166060870152600160c01b928390048216608087015260019384015480831660a0880152948504821660c08701528404811660e08601529204909116610100830152908352909201910161216e565b50505090825250600182015463ffffffff811660208084019190915264010000000082046001600160401b03908116604080860191909152600160601b8404909116606080860191909152600160a01b840465ffffffffffff908116608080880191909152600160d01b9095041660a086015260029095015460c0909401939093528251918201835294546001600160481b038082168352600160481b8204811696830196909652600160901b810490951691810191909152600160d81b90930464ffffffffff16908301529590945092505050565b600060029054906101000a90046001600160a01b03166001600160a01b031662b127836040518163ffffffff1660e01b815260040160206040518083038186803b15801561234257600080fd5b505afa158015612356573d6000803e3d6000fd5b505050506040513d601f19601f8201168201806040525081019061237a9190613938565b6001600160a01b0316336001600160a01b0316146123cb5760405162461bcd60e51b815260206004820152600e60248201526d43414c4c4241434b535f4f4e4c5960901b6044820152606401610fba565b60006123d686611982565b905060006123e261283c565b90506000806123f1898461335a565b915091506000806124028686613469565b9150915061241286888a8c61355f565b87156125e85760006040518060800160405280896124305785612432565b865b6001600160401b031681526020018961244b578361244d565b845b6001600160401b031681526020016124648861375f565b65ffffffffffff16815260200160006001600160501b0316815250905080600460008f6001600160a01b03166001600160a01b0316815260200190815260200160002060008e815260200190815260200160002060008d815260200190815260200160002060008201518160000160006101000a8154816001600160401b0302191690836001600160401b0316021790555060208201518160000160086101000a8154816001600160401b0302191690836001600160401b0316021790555060408201518160000160106101000a81548165ffffffffffff021916908365ffffffffffff16021790555060608201518160000160166101000a8154816001600160501b0302191690836001600160501b031602179055509050508b8d6001600160a01b03167faa00ca5c6f282cb9f35953ecb0eaf8e39c95b7c8df114efac12162a85c085e608d846000015185602001516040516125de939291909283526001600160401b03918216602084015216604082015260600190565b60405180910390a3505b8a8c6001600160a01b03167f66baa1848f5d4d14567e9bc527e5608778c86e512490d413cfafc9250327308f8c8b8b8e6040516126409493929190938452911515602084015215156040830152606082015260800190565b60405180910390a3505050505050505050505050565b6000806002600061266687611982565b61ffff168152602080820192909252604090810160002081516101008101835281546001600160701b038082168352600160701b82041694820194909452600160e01b90930463ffffffff169183019190915260018101546001600160401b038082166060850152600160401b8204166080840152600160801b810465ffffffffffff1660a0840152600160b01b90046001600160501b031660c0830181905260029091015460e08301529091501580612773575060c08101516001600160501b0316670de0b6b3a76400006127416402540be400866145b3565b61274b919061449e565b8561275a57826020015161275d565b82515b6001600160701b03166127709190614464565b11155b95945050505050565b61278461378b565b5061ffff16600090815260026020818152604080842060068352938190205481516101008101835285546001600160701b038082168352600160701b82041694820194909452600160e01b90930463ffffffff169183019190915260018401546001600160401b038082166060850152600160401b820416608084015265ffffffffffff600160801b8204811660a0850152600160b01b9091046001600160501b031660c0840152939092015460e082015292911690565b600061a4b1461480612850575062066eed46145b156128cc5760646001600160a01b031663a3b1b31d6040518163ffffffff1660e01b815260040160206040518083038186803b15801561288f57600080fd5b505afa1580156128a3573d6000803e3d6000fd5b505050506040513d601f19601f820116820180604052508101906128c79190613bab565b905090565b504390565b60016128e360608301604084016140a6565b65ffffffffffff16101580156129115750600361290660608301604084016140a6565b65ffffffffffff1611155b61294e5760405162461bcd60e51b815260206004820152600e60248201526d15d493d391d7d1561413d391539560921b6044820152606401610fba565b60008281526003602052604081209061296684611982565b9050600061297261283c565b905061297e858261335a565b505061ffff82166129926020860186613d61565b61ffff1614612ff8576129a58282613469565b506129be90506129b86020860186613d61565b82613469565b50506000806129cc876110cd565b915091506129de84600160008561355f565b6129eb846000808461355f565b612a046129fb6020880188613d61565b6001808561355f565b612a1e612a146020880188613d61565b600060018461355f565b6000600281612a3060208a018a613d61565b61ffff1661ffff168152602001908152602001600020604051806101000160405290816000820160009054906101000a90046001600160701b03166001600160701b03166001600160701b0316815260200160008201600e9054906101000a90046001600160701b03166001600160701b03166001600160701b0316815260200160008201601c9054906101000a900463ffffffff1663ffffffff1663ffffffff1681526020016001820160009054906101000a90046001600160401b03166001600160401b03166001600160401b031681526020016001820160089054906101000a90046001600160401b03166001600160401b03166001600160401b031681526020016001820160109054906101000a900465ffffffffffff1665ffffffffffff1665ffffffffffff1681526020016001820160169054906101000a90046001600160501b03166001600160501b03166001600160501b0316815260200160028201548152505090506000600260008761ffff1661ffff168152602001908152602001600020604051806101000160405290816000820160009054906101000a90046001600160701b03166001600160701b03166001600160701b0316815260200160008201600e9054906101000a90046001600160701b03166001600160701b03166001600160701b0316815260200160008201601c9054906101000a900463ffffffff1663ffffffff1663ffffffff1681526020016001820160009054906101000a90046001600160401b03166001600160401b03166001600160401b031681526020016001820160089054906101000a90046001600160401b03166001600160401b03166001600160401b031681526020016001820160109054906101000a900465ffffffffffff1665ffffffffffff1665ffffffffffff1681526020016001820160169054906101000a90046001600160501b03166001600160501b03166001600160501b031681526020016002820154815250509050866000016040518061012001604052808a6000016020810190612d309190613d61565b61ffff168152602001612d428861375f565b65ffffffffffff16815260200184606001516001600160401b0316815260200184608001516001600160401b0316815260200183606001516001600160401b0316815260200183608001516001600160401b031681526020018960010160049054906101000a90046001600160401b03166001600160401b0316815260200189600101600c9054906101000a90046001600160401b03166001600160401b0316815260200160006001600160401b0316815250908060018154018082558091505060019003906000526020600020906002020160009091909190915060008201518160000160006101000a81548161ffff021916908361ffff16021790555060208201518160000160026101000a81548165ffffffffffff021916908365ffffffffffff16021790555060408201518160000160086101000a8154816001600160401b0302191690836001600160401b0316021790555060608201518160000160106101000a8154816001600160401b0302191690836001600160401b0316021790555060808201518160000160186101000a8154816001600160401b0302191690836001600160401b0316021790555060a08201518160010160006101000a8154816001600160401b0302191690836001600160401b0316021790555060c08201518160010160086101000a8154816001600160401b0302191690836001600160401b0316021790555060e08201518160010160106101000a8154816001600160401b0302191690836001600160401b031602179055506101008201518160010160186101000a8154816001600160401b0302191690836001600160401b031602179055505050876000016020810190612fbd9190613d61565b61ffff168661ffff168a7f5beb7d73e1c3cd532d47c9e896931df26d9be450a833bd5fe1ace6bf5690d46860405160405180910390a4505050505b613008604085016020860161408b565b60018401805463ffffffff191663ffffffff9290921691909117905561303460608501604086016140a6565b60018401805465ffffffffffff92909216600160d01b026001600160d01b0390921691909117905561306c60808501606086016140c1565b600086815260056020908152604090912080546001600160481b0393909316600160901b0268ffffffffffffffffff60901b19909316929092179091556130b590850185613d61565b61ffff16857f1caa8de744ea74fb9e0c2f32b7fed3b30ea426105a6b73926010be6372458ef46130eb604088016020890161408b565b6130fb6060890160408a016140a6565b61310b60808a0160608b016140c1565b6040805163ffffffff909416845265ffffffffffff90921660208401526001600160481b03169082015260600160405180910390a35050505050565b60008261ffff16116131855760405162461bcd60e51b8152602060048201526007602482015266047524f55505f360cc1b6044820152606401610fba565b600161319760608301604084016140a6565b65ffffffffffff16101580156131c5575060036131ba60608301604084016140a6565b65ffffffffffff1611155b6132025760405162461bcd60e51b815260206004820152600e60248201526d15d493d391d7d1561413d391539560921b6044820152606401610fba565b6132138261320e61283c565b613469565b505061ffff82166000908152600260209081526040909120906132389083018361408b565b815463ffffffff91909116600160e01b026001600160e01b0390911617815561326760408301602084016140c1565b6001820180546001600160b01b03166001600160481b0392909216600160b01b0291909117905561329e60608301604084016140a6565b61ffff84166000818152600660209081526040909120805465ffffffffffff191665ffffffffffff9490941693909317909255907ffe3f382c07994321b091a508fb27d2cec41f6dfa9f52b97a01af5b992fdc1681906133009085018561408b565b61331060408601602087016140c1565b61332060608701604088016140a6565b6040805163ffffffff90941684526001600160481b03909216602084015265ffffffffffff169082015260600160405180910390a2505050565b6000806133678484611752565b5060008681526003602052604090206001810180546001600160401b03808616640100000000026bffffffffffffffff0000000019918616600160601b029190911673ffffffffffffffffffffffffffffffff00000000199092169190911717905591935091506133d78461375f565b60018201805465ffffffffffff92909216600160a01b0265ffffffffffff60a01b199092169190911790819055604080518681526001600160401b03640100000000840481166020830152600160601b9093049092169082015285907ffc346088168e874385f54275cfc143d52a459a0fdc016c1bb6c237097ef27bf4906060015b60405180910390a2509250929050565b6000806134768484611f39565b5061ffff861660009081526002602052604090206001810180546fffffffffffffffffffffffffffffffff1916600160401b6001600160401b038581169190910267ffffffffffffffff19169190911790851617905591935091506134da8461375f565b60018201805465ffffffffffff92909216600160801b0265ffffffffffff60801b198316811791829055604080518881526001600160401b03928316948316949094176020850152600160401b909204169082015261ffff8616907fd246da22fc6064e2fae4f4affdb9425eac12bebcf4f08fb3892f08480513752e90606001613459565b61ffff8416600081815260026020526040812091156136f257670de0b6b3a76400006135906402540be400856145b3565b61359a919061449e565b92506001600160701b038311156135c35760405162461bcd60e51b8152600401610fba90614216565b5081841561364d57836136105781546001600160701b038083169116116135f45781546001600160701b03166135f6565b805b825461360b91906001600160701b03166145d2565b613626565b81546136269082906001600160701b0316614439565b82546dffffffffffffffffffffffffffff19166001600160701b03919091161782556136f2565b836136a75781546001600160701b03808316600160701b9092041611613684578154600160701b90046001600160701b0316613686565b805b82546136a29190600160701b90046001600160701b03166145d2565b6136c4565b81546136c4908290600160701b90046001600160701b0316614439565b82546001600160701b0391909116600160701b026dffffffffffffffffffffffffffff60701b199091161782555b8154604080516001600160701b0380851682528084166020830152600160701b90930490921690820152841515908615159061ffff8916907f946036ec838a96db6089510038e2de4a934fb985f2ba9ef85dd4166f622db2339060600160405180910390a4505050505050565b600065ffffffffffff8211156137875760405162461bcd60e51b8152600401610fba90614216565b5090565b6040805161010081018252600080825260208201819052918101829052606081018290526080810182905260a0810182905260c0810182905260e081019190915290565b60008083601f8401126137e157600080fd5b5081356001600160401b038111156137f857600080fd5b6020830191508360208260051b8501011115610c0a57600080fd5b803561381e81614687565b919050565b60006080828403121561383557600080fd5b604051608081018181106001600160401b038211171561385757613857614659565b604052905080613866836138ed565b8152613874602084016138ed565b6020820152613885604084016138d7565b604082015260608301356001600160501b03811681146138a457600080fd5b6060919091015292915050565b803561ffff8116811461381e57600080fd5b803563ffffffff8116811461381e57600080fd5b803565ffffffffffff8116811461381e57600080fd5b80356001600160401b038116811461381e57600080fd5b80356001600160481b038116811461381e57600080fd5b60006020828403121561392d57600080fd5b8135611a9e8161466f565b60006020828403121561394a57600080fd5b8151611a9e8161466f565b60008060006060848603121561396a57600080fd5b83356139758161466f565b95602085013595506040909401359392505050565b60008060008060008060c087890312156139a357600080fd5b86356139ae8161466f565b955060208701359450604087013593506060870135925060808701356139d381614687565b915060a08701356139e381614687565b809150509295509295509295565b60008060208385031215613a0457600080fd5b82356001600160401b03811115613a1a57600080fd5b613a26858286016137cf565b90969095509350505050565b60008060008060408587031215613a4857600080fd5b84356001600160401b0380821115613a5f57600080fd5b613a6b888389016137cf565b90965094506020870135915080821115613a8457600080fd5b818701915087601f830112613a9857600080fd5b813581811115613aa757600080fd5b886020606083028501011115613abc57600080fd5b95989497505060200194505050565b60008060008060408587031215613ae157600080fd5b84356001600160401b0380821115613af857600080fd5b613b04888389016137cf565b90965094506020870135915080821115613b1d57600080fd5b818701915087601f830112613b3157600080fd5b813581811115613b4057600080fd5b8860208260071b8501011115613abc57600080fd5b600060208284031215613b6757600080fd5b8135611a9e81614687565b60008060408385031215613b8557600080fd5b8235613b908161466f565b91506020830135613ba08161466f565b809150509250929050565b600060208284031215613bbd57600080fd5b5051919050565b600060c08284031215613bd657600080fd5b60405160c081018181106001600160401b0382111715613bf857613bf8614659565b6040528235613c068161466f565b8082525060208301356020820152604083013560408201526060830135613c2c81614687565b60608201526080838101359082015260a0928301359281019290925250919050565b600060e08284031215613c6057600080fd5b50919050565b60006101208284031215613c7957600080fd5b613c816143e0565b613c8a836138ed565b8152613c98602084016138ed565b60208201526040830135604082015260608301356060820152613cbd608084016138c3565b608082015260a083013560a082015260c083013560c0820152613ce260e08401613904565b60e0820152610100613cf58185016138d7565b908201529392505050565b600060608284031215613d1257600080fd5b604051606081018181106001600160401b0382111715613d3457613d34614659565b806040525082518152602083015160208201526040830151613d5581614687565b60408201529392505050565b600060208284031215613d7357600080fd5b611a9e826138b1565b6000808284036080811215613d9057600080fd5b613d99846138b1565b92506060601f1982011215613dad57600080fd5b506020830190509250929050565b60008060408385031215613dce57600080fd5b613dd7836138b1565b946020939093013593505050565b600080600060608486031215613dfa57600080fd5b613e03846138b1565b9250602084013591506040840135613e1a81614687565b809150509250925092565b600060208284031215613e3757600080fd5b5035919050565b6000806000806000806101208789031215613e5857600080fd5b863595506020808801356001600160401b0380821115613e7757600080fd5b818a0191508a601f830112613e8b57600080fd5b813581811115613e9d57613e9d614659565b613eab848260051b01614409565b81815284810192508385016101208302850186018e1015613ecb57600080fd5b600094505b82851015613f9a57610120818f031215613ee957600080fd5b613ef16143e0565b613efa826138b1565b8152613f078783016138d7565b87820152613f17604083016138ed565b6040820152613f28606083016138ed565b6060820152613f39608083016138ed565b6080820152613f4a60a083016138ed565b60a0820152613f5b60c083016138ed565b60c0820152613f6c60e083016138ed565b60e0820152613f7e61010083016138ed565b6101008201528452600194909401939285019261012001613ed0565b508099505050505050613fb08860408901613823565b935060c08701359250613fc560e08801613813565b915061010087013590509295509295509295565b600080600060608486031215613fee57600080fd5b83359250602084013561400081614687565b929592945050506040919091013590565b60008082840360a081121561402557600080fd5b833592506080601f1982011215613dad57600080fd5b6000806040838503121561404e57600080fd5b50508035926020909101359150565b60008060006060848603121561407257600080fd5b83359250602084013591506040840135613e1a81614687565b60006020828403121561409d57600080fd5b611a9e826138c3565b6000602082840312156140b857600080fd5b611a9e826138d7565b6000602082840312156140d357600080fd5b611a9e82613904565b6001600160701b038082511683528060208301511660208401525063ffffffff604082015116604083015260608101516001600160401b038082166060850152806080840151166080850152505065ffffffffffff60a08201511660a083015260c081015161415660c08401826001600160501b03169052565b5060e090810151910152565b604080825283519082018190526000906020906060840190828701845b828110156141a6576141928483516140dc565b61010093909301929084019060010161417f565b5050508381038285015284518082528583019183019060005b818110156141e357835165ffffffffffff16835292840192918401916001016141bf565b5090979650505050505050565b6020808252600c908201526b4d414e414745525f4f4e4c5960a01b604082015260600190565b6020808252600890820152674f564552464c4f5760c01b604082015260600190565b610120810161424782856140dc565b65ffffffffffff83166101008301529392505050565b60a0808252835160e08383018190528151610180850181905260009392602092908301916101a0870190865b8181101561431a578451805161ffff1684528681015165ffffffffffff16878501526040808201516001600160401b03908116918601919091526060808301518216908601526080808301518216908601528882015181168986015260c080830151821690860152858201518116868601526101009182015116908401529385019361012090920191600101614289565b50508884015163ffffffff811660c0890152925060408901516001600160401b03811688840152925060608901516001600160401b0381166101008901529250608089015165ffffffffffff811661012089015292509388015165ffffffffffff81166101408801529360c089015161016088015294506143d7915050818501866001600160481b038082511683528060208301511660208401528060408301511660408401525064ffffffffff60608201511660608301525050565b50509392505050565b60405161012081016001600160401b038111828210171561440357614403614659565b60405290565b604051601f8201601f191681016001600160401b038111828210171561443157614431614659565b604052919050565b60006001600160701b0380831681851680830382111561445b5761445b61462d565b01949350505050565b600082198211156144775761447761462d565b500190565b60006001600160401b0380831681851680830382111561445b5761445b61462d565b6000826144bb57634e487b7160e01b600052601260045260246000fd5b500490565b600181815b808511156144fb5781600019048211156144e1576144e161462d565b808516156144ee57918102915b93841c93908002906144c5565b509250929050565b6000611a9e65ffffffffffff841683600082614521575060016115f9565b8161452e575060006115f9565b8160018114614544576002811461454e5761456a565b60019150506115f9565b60ff84111561455f5761455f61462d565b50506001821b6115f9565b5060208310610133831016604e8410600b841016171561458d575081810a6115f9565b61459783836144c0565b80600019048211156145ab576145ab61462d565b029392505050565b60008160001904831182151516156145cd576145cd61462d565b500290565b60006001600160701b03838116908316818110156145f2576145f261462d565b039392505050565b60008282101561460c5761460c61462d565b500390565b60006001600160401b03838116908316818110156145f2576145f25b634e487b7160e01b600052601160045260246000fd5b634e487b7160e01b600052603260045260246000fd5b634e487b7160e01b600052604160045260246000fd5b6001600160a01b038116811461468457600080fd5b50565b801515811461468457600080fdfea26469706673582212202115ceb4b3685c3144fa1aa3e419ffe383db43d9ebf1679cc1a81a9aeab0a85b64736f6c63430008070033",
  "libraries": {},
  "devdoc": {
    "kind": "dev",
    "methods": {},
    "version": 1
  },
  "userdoc": {
    "kind": "user",
    "methods": {},
    "version": 1
  },
  "storageLayout": {
    "storage": [
      {
        "astId": 25464,
        "contract": "contracts/contracts/GNSBorrowingFeesV6_4.sol:GNSBorrowingFeesV6_4",
        "label": "_initialized",
        "offset": 0,
        "slot": "0",
        "type": "t_uint8"
      },
      {
        "astId": 25467,
        "contract": "contracts/contracts/GNSBorrowingFeesV6_4.sol:GNSBorrowingFeesV6_4",
        "label": "_initializing",
        "offset": 1,
        "slot": "0",
        "type": "t_bool"
      },
      {
        "astId": 9650,
        "contract": "contracts/contracts/GNSBorrowingFeesV6_4.sol:GNSBorrowingFeesV6_4",
        "label": "storageT",
        "offset": 2,
        "slot": "0",
        "type": "t_contract(StorageInterfaceV5)24663"
      },
      {
        "astId": 9653,
        "contract": "contracts/contracts/GNSBorrowingFeesV6_4.sol:GNSBorrowingFeesV6_4",
        "label": "pairInfos",
        "offset": 0,
        "slot": "1",
        "type": "t_contract(GNSPairInfosInterfaceV6)23349"
      },
      {
        "astId": 9658,
        "contract": "contracts/contracts/GNSBorrowingFeesV6_4.sol:GNSBorrowingFeesV6_4",
        "label": "groups",
        "offset": 0,
        "slot": "2",
        "type": "t_mapping(t_uint16,t_struct(Group)22992_storage)"
      },
      {
        "astId": 9663,
        "contract": "contracts/contracts/GNSBorrowingFeesV6_4.sol:GNSBorrowingFeesV6_4",
        "label": "pairs",
        "offset": 0,
        "slot": "3",
        "type": "t_mapping(t_uint256,t_struct(Pair)22966_storage)"
      },
      {
        "astId": 9672,
        "contract": "contracts/contracts/GNSBorrowingFeesV6_4.sol:GNSBorrowingFeesV6_4",
        "label": "initialAccFees",
        "offset": 0,
        "slot": "4",
        "type": "t_mapping(t_address,t_mapping(t_uint256,t_mapping(t_uint256,t_struct(InitialAccFees)23001_storage)))"
      },
      {
        "astId": 9677,
        "contract": "contracts/contracts/GNSBorrowingFeesV6_4.sol:GNSBorrowingFeesV6_4",
        "label": "pairOis",
        "offset": 0,
        "slot": "5",
        "type": "t_mapping(t_uint256,t_struct(PairOi)22975_storage)"
      },
      {
        "astId": 9681,
        "contract": "contracts/contracts/GNSBorrowingFeesV6_4.sol:GNSBorrowingFeesV6_4",
        "label": "groupFeeExponents",
        "offset": 0,
        "slot": "6",
        "type": "t_mapping(t_uint256,t_uint48)"
      }
    ],
    "types": {
      "t_address": {
        "encoding": "inplace",
        "label": "address",
        "numberOfBytes": "20"
      },
      "t_array(t_struct(PairGroup)22949_storage)dyn_storage": {
        "base": "t_struct(PairGroup)22949_storage",
        "encoding": "dynamic_array",
        "label": "struct GNSBorrowingFeesInterfaceV6_4.PairGroup[]",
        "numberOfBytes": "32"
      },
      "t_bool": {
        "encoding": "inplace",
        "label": "bool",
        "numberOfBytes": "1"
      },
      "t_contract(GNSPairInfosInterfaceV6)23349": {
        "encoding": "inplace",
        "label": "contract GNSPairInfosInterfaceV6",
        "numberOfBytes": "20"
      },
      "t_contract(StorageInterfaceV5)24663": {
        "encoding": "inplace",
        "label": "contract StorageInterfaceV5",
        "numberOfBytes": "20"
      },
      "t_mapping(t_address,t_mapping(t_uint256,t_mapping(t_uint256,t_struct(InitialAccFees)23001_storage)))": {
        "encoding": "mapping",
        "key": "t_address",
        "label": "mapping(address => mapping(uint256 => mapping(uint256 => struct GNSBorrowingFeesInterfaceV6_4.InitialAccFees)))",
        "numberOfBytes": "32",
        "value": "t_mapping(t_uint256,t_mapping(t_uint256,t_struct(InitialAccFees)23001_storage))"
      },
      "t_mapping(t_uint16,t_struct(Group)22992_storage)": {
        "encoding": "mapping",
        "key": "t_uint16",
        "label": "mapping(uint16 => struct GNSBorrowingFeesInterfaceV6_4.Group)",
        "numberOfBytes": "32",
        "value": "t_struct(Group)22992_storage"
      },
      "t_mapping(t_uint256,t_mapping(t_uint256,t_struct(InitialAccFees)23001_storage))": {
        "encoding": "mapping",
        "key": "t_uint256",
        "label": "mapping(uint256 => mapping(uint256 => struct GNSBorrowingFeesInterfaceV6_4.InitialAccFees))",
        "numberOfBytes": "32",
        "value": "t_mapping(t_uint256,t_struct(InitialAccFees)23001_storage)"
      },
      "t_mapping(t_uint256,t_struct(InitialAccFees)23001_storage)": {
        "encoding": "mapping",
        "key": "t_uint256",
        "label": "mapping(uint256 => struct GNSBorrowingFeesInterfaceV6_4.InitialAccFees)",
        "numberOfBytes": "32",
        "value": "t_struct(InitialAccFees)23001_storage"
      },
      "t_mapping(t_uint256,t_struct(Pair)22966_storage)": {
        "encoding": "mapping",
        "key": "t_uint256",
        "label": "mapping(uint256 => struct GNSBorrowingFeesInterfaceV6_4.Pair)",
        "numberOfBytes": "32",
        "value": "t_struct(Pair)22966_storage"
      },
      "t_mapping(t_uint256,t_struct(PairOi)22975_storage)": {
        "encoding": "mapping",
        "key": "t_uint256",
        "label": "mapping(uint256 => struct GNSBorrowingFeesInterfaceV6_4.PairOi)",
        "numberOfBytes": "32",
        "value": "t_struct(PairOi)22975_storage"
      },
      "t_mapping(t_uint256,t_uint48)": {
        "encoding": "mapping",
        "key": "t_uint256",
        "label": "mapping(uint256 => uint48)",
        "numberOfBytes": "32",
        "value": "t_uint48"
      },
      "t_struct(Group)22992_storage": {
        "encoding": "inplace",
        "label": "struct GNSBorrowingFeesInterfaceV6_4.Group",
        "members": [
          {
            "astId": 22977,
            "contract": "contracts/contracts/GNSBorrowingFeesV6_4.sol:GNSBorrowingFeesV6_4",
            "label": "oiLong",
            "offset": 0,
            "slot": "0",
            "type": "t_uint112"
          },
          {
            "astId": 22979,
            "contract": "contracts/contracts/GNSBorrowingFeesV6_4.sol:GNSBorrowingFeesV6_4",
            "label": "oiShort",
            "offset": 14,
            "slot": "0",
            "type": "t_uint112"
          },
          {
            "astId": 22981,
            "contract": "contracts/contracts/GNSBorrowingFeesV6_4.sol:GNSBorrowingFeesV6_4",
            "label": "feePerBlock",
            "offset": 28,
            "slot": "0",
            "type": "t_uint32"
          },
          {
            "astId": 22983,
            "contract": "contracts/contracts/GNSBorrowingFeesV6_4.sol:GNSBorrowingFeesV6_4",
            "label": "accFeeLong",
            "offset": 0,
            "slot": "1",
            "type": "t_uint64"
          },
          {
            "astId": 22985,
            "contract": "contracts/contracts/GNSBorrowingFeesV6_4.sol:GNSBorrowingFeesV6_4",
            "label": "accFeeShort",
            "offset": 8,
            "slot": "1",
            "type": "t_uint64"
          },
          {
            "astId": 22987,
            "contract": "contracts/contracts/GNSBorrowingFeesV6_4.sol:GNSBorrowingFeesV6_4",
            "label": "accLastUpdatedBlock",
            "offset": 16,
            "slot": "1",
            "type": "t_uint48"
          },
          {
            "astId": 22989,
            "contract": "contracts/contracts/GNSBorrowingFeesV6_4.sol:GNSBorrowingFeesV6_4",
            "label": "maxOi",
            "offset": 22,
            "slot": "1",
            "type": "t_uint80"
          },
          {
            "astId": 22991,
            "contract": "contracts/contracts/GNSBorrowingFeesV6_4.sol:GNSBorrowingFeesV6_4",
            "label": "lastAccBlockWeightedMarketCap",
            "offset": 0,
            "slot": "2",
            "type": "t_uint256"
          }
        ],
        "numberOfBytes": "96"
      },
      "t_struct(InitialAccFees)23001_storage": {
        "encoding": "inplace",
        "label": "struct GNSBorrowingFeesInterfaceV6_4.InitialAccFees",
        "members": [
          {
            "astId": 22994,
            "contract": "contracts/contracts/GNSBorrowingFeesV6_4.sol:GNSBorrowingFeesV6_4",
            "label": "accPairFee",
            "offset": 0,
            "slot": "0",
            "type": "t_uint64"
          },
          {
            "astId": 22996,
            "contract": "contracts/contracts/GNSBorrowingFeesV6_4.sol:GNSBorrowingFeesV6_4",
            "label": "accGroupFee",
            "offset": 8,
            "slot": "0",
            "type": "t_uint64"
          },
          {
            "astId": 22998,
            "contract": "contracts/contracts/GNSBorrowingFeesV6_4.sol:GNSBorrowingFeesV6_4",
            "label": "block",
            "offset": 16,
            "slot": "0",
            "type": "t_uint48"
          },
          {
            "astId": 23000,
            "contract": "contracts/contracts/GNSBorrowingFeesV6_4.sol:GNSBorrowingFeesV6_4",
            "label": "_placeholder",
            "offset": 22,
            "slot": "0",
            "type": "t_uint80"
          }
        ],
        "numberOfBytes": "32"
      },
      "t_struct(Pair)22966_storage": {
        "encoding": "inplace",
        "label": "struct GNSBorrowingFeesInterfaceV6_4.Pair",
        "members": [
          {
            "astId": 22953,
            "contract": "contracts/contracts/GNSBorrowingFeesV6_4.sol:GNSBorrowingFeesV6_4",
            "label": "groups",
            "offset": 0,
            "slot": "0",
            "type": "t_array(t_struct(PairGroup)22949_storage)dyn_storage"
          },
          {
            "astId": 22955,
            "contract": "contracts/contracts/GNSBorrowingFeesV6_4.sol:GNSBorrowingFeesV6_4",
            "label": "feePerBlock",
            "offset": 0,
            "slot": "1",
            "type": "t_uint32"
          },
          {
            "astId": 22957,
            "contract": "contracts/contracts/GNSBorrowingFeesV6_4.sol:GNSBorrowingFeesV6_4",
            "label": "accFeeLong",
            "offset": 4,
            "slot": "1",
            "type": "t_uint64"
          },
          {
            "astId": 22959,
            "contract": "contracts/contracts/GNSBorrowingFeesV6_4.sol:GNSBorrowingFeesV6_4",
            "label": "accFeeShort",
            "offset": 12,
            "slot": "1",
            "type": "t_uint64"
          },
          {
            "astId": 22961,
            "contract": "contracts/contracts/GNSBorrowingFeesV6_4.sol:GNSBorrowingFeesV6_4",
            "label": "accLastUpdatedBlock",
            "offset": 20,
            "slot": "1",
            "type": "t_uint48"
          },
          {
            "astId": 22963,
            "contract": "contracts/contracts/GNSBorrowingFeesV6_4.sol:GNSBorrowingFeesV6_4",
            "label": "feeExponent",
            "offset": 26,
            "slot": "1",
            "type": "t_uint48"
          },
          {
            "astId": 22965,
            "contract": "contracts/contracts/GNSBorrowingFeesV6_4.sol:GNSBorrowingFeesV6_4",
            "label": "lastAccBlockWeightedMarketCap",
            "offset": 0,
            "slot": "2",
            "type": "t_uint256"
          }
        ],
        "numberOfBytes": "96"
      },
      "t_struct(PairGroup)22949_storage": {
        "encoding": "inplace",
        "label": "struct GNSBorrowingFeesInterfaceV6_4.PairGroup",
        "members": [
          {
            "astId": 22932,
            "contract": "contracts/contracts/GNSBorrowingFeesV6_4.sol:GNSBorrowingFeesV6_4",
            "label": "groupIndex",
            "offset": 0,
            "slot": "0",
            "type": "t_uint16"
          },
          {
            "astId": 22934,
            "contract": "contracts/contracts/GNSBorrowingFeesV6_4.sol:GNSBorrowingFeesV6_4",
            "label": "block",
            "offset": 2,
            "slot": "0",
            "type": "t_uint48"
          },
          {
            "astId": 22936,
            "contract": "contracts/contracts/GNSBorrowingFeesV6_4.sol:GNSBorrowingFeesV6_4",
            "label": "initialAccFeeLong",
            "offset": 8,
            "slot": "0",
            "type": "t_uint64"
          },
          {
            "astId": 22938,
            "contract": "contracts/contracts/GNSBorrowingFeesV6_4.sol:GNSBorrowingFeesV6_4",
            "label": "initialAccFeeShort",
            "offset": 16,
            "slot": "0",
            "type": "t_uint64"
          },
          {
            "astId": 22940,
            "contract": "contracts/contracts/GNSBorrowingFeesV6_4.sol:GNSBorrowingFeesV6_4",
            "label": "prevGroupAccFeeLong",
            "offset": 24,
            "slot": "0",
            "type": "t_uint64"
          },
          {
            "astId": 22942,
            "contract": "contracts/contracts/GNSBorrowingFeesV6_4.sol:GNSBorrowingFeesV6_4",
            "label": "prevGroupAccFeeShort",
            "offset": 0,
            "slot": "1",
            "type": "t_uint64"
          },
          {
            "astId": 22944,
            "contract": "contracts/contracts/GNSBorrowingFeesV6_4.sol:GNSBorrowingFeesV6_4",
            "label": "pairAccFeeLong",
            "offset": 8,
            "slot": "1",
            "type": "t_uint64"
          },
          {
            "astId": 22946,
            "contract": "contracts/contracts/GNSBorrowingFeesV6_4.sol:GNSBorrowingFeesV6_4",
            "label": "pairAccFeeShort",
            "offset": 16,
            "slot": "1",
            "type": "t_uint64"
          },
          {
            "astId": 22948,
            "contract": "contracts/contracts/GNSBorrowingFeesV6_4.sol:GNSBorrowingFeesV6_4",
            "label": "_placeholder",
            "offset": 24,
            "slot": "1",
            "type": "t_uint64"
          }
        ],
        "numberOfBytes": "64"
      },
      "t_struct(PairOi)22975_storage": {
        "encoding": "inplace",
        "label": "struct GNSBorrowingFeesInterfaceV6_4.PairOi",
        "members": [
          {
            "astId": 22968,
            "contract": "contracts/contracts/GNSBorrowingFeesV6_4.sol:GNSBorrowingFeesV6_4",
            "label": "long",
            "offset": 0,
            "slot": "0",
            "type": "t_uint72"
          },
          {
            "astId": 22970,
            "contract": "contracts/contracts/GNSBorrowingFeesV6_4.sol:GNSBorrowingFeesV6_4",
            "label": "short",
            "offset": 9,
            "slot": "0",
            "type": "t_uint72"
          },
          {
            "astId": 22972,
            "contract": "contracts/contracts/GNSBorrowingFeesV6_4.sol:GNSBorrowingFeesV6_4",
            "label": "max",
            "offset": 18,
            "slot": "0",
            "type": "t_uint72"
          },
          {
            "astId": 22974,
            "contract": "contracts/contracts/GNSBorrowingFeesV6_4.sol:GNSBorrowingFeesV6_4",
            "label": "_placeholder",
            "offset": 27,
            "slot": "0",
            "type": "t_uint40"
          }
        ],
        "numberOfBytes": "32"
      },
      "t_uint112": {
        "encoding": "inplace",
        "label": "uint112",
        "numberOfBytes": "14"
      },
      "t_uint16": {
        "encoding": "inplace",
        "label": "uint16",
        "numberOfBytes": "2"
      },
      "t_uint256": {
        "encoding": "inplace",
        "label": "uint256",
        "numberOfBytes": "32"
      },
      "t_uint32": {
        "encoding": "inplace",
        "label": "uint32",
        "numberOfBytes": "4"
      },
      "t_uint40": {
        "encoding": "inplace",
        "label": "uint40",
        "numberOfBytes": "5"
      },
      "t_uint48": {
        "encoding": "inplace",
        "label": "uint48",
        "numberOfBytes": "6"
      },
      "t_uint64": {
        "encoding": "inplace",
        "label": "uint64",
        "numberOfBytes": "8"
      },
      "t_uint72": {
        "encoding": "inplace",
        "label": "uint72",
        "numberOfBytes": "9"
      },
      "t_uint8": {
        "encoding": "inplace",
        "label": "uint8",
        "numberOfBytes": "1"
      },
      "t_uint80": {
        "encoding": "inplace",
        "label": "uint80",
        "numberOfBytes": "10"
      }
    }
  }
}