{
  "address": "0xD70Afa272D0F3B9bA6E986EA09D6aeE87FAA6396",
  "abi": [
    {
      "anonymous": false,
      "inputs": [
        {
          "indexed": false,
          "internalType": "uint8",
          "name": "version",
          "type": "uint8"
        }
      ],
      "name": "Initialized",
      "type": "event"
    },
    {
      "anonymous": false,
      "inputs": [
        {
          "indexed": false,
          "internalType": "address",
          "name": "trader",
          "type": "address"
        },
        {
          "indexed": false,
          "internalType": "uint256",
          "name": "pairIndex",
          "type": "uint256"
        },
        {
          "indexed": false,
          "internalType": "uint256",
          "name": "index",
          "type": "uint256"
        },
        {
          "indexed": false,
          "internalType": "enum GNSOracleRewardsV6_4_1.OpenLimitOrderType",
          "name": "value",
          "type": "uint8"
        }
      ],
      "name": "OpenLimitOrderTypeSet",
      "type": "event"
    },
    {
      "anonymous": false,
      "inputs": [
        {
          "indexed": false,
          "internalType": "uint256",
          "name": "oraclesCount",
          "type": "uint256"
        }
      ],
      "name": "OraclesUpdated",
      "type": "event"
    },
    {
      "anonymous": false,
      "inputs": [
        {
          "indexed": false,
          "internalType": "address",
          "name": "oracle",
          "type": "address"
        },
        {
          "indexed": false,
          "internalType": "uint256",
          "name": "amountGns",
          "type": "uint256"
        }
      ],
      "name": "RewardsClaimed",
      "type": "event"
    },
    {
      "anonymous": false,
      "inputs": [
        {
          "components": [
            {
              "internalType": "address",
              "name": "trader",
              "type": "address"
            },
            {
              "internalType": "uint256",
              "name": "pairIndex",
              "type": "uint256"
            },
            {
              "internalType": "uint256",
              "name": "index",
              "type": "uint256"
            },
            {
              "internalType": "enum StorageInterfaceV5.LimitOrder",
              "name": "order",
              "type": "uint8"
            }
          ],
          "indexed": false,
          "internalType": "struct GNSOracleRewardsV6_4_1.TriggeredLimitId",
          "name": "id",
          "type": "tuple"
        },
        {
          "indexed": false,
          "internalType": "uint256",
          "name": "rewardGns",
          "type": "uint256"
        },
        {
          "indexed": false,
          "internalType": "uint256",
          "name": "rewardGnsPerOracle",
          "type": "uint256"
        },
        {
          "indexed": false,
          "internalType": "uint256",
          "name": "oraclesCount",
          "type": "uint256"
        }
      ],
      "name": "TriggerRewarded",
      "type": "event"
    },
    {
      "anonymous": false,
      "inputs": [
        {
          "indexed": false,
          "internalType": "uint256",
          "name": "value",
          "type": "uint256"
        }
      ],
      "name": "TriggerTimeoutUpdated",
      "type": "event"
    },
    {
      "anonymous": false,
      "inputs": [
        {
          "components": [
            {
              "internalType": "address",
              "name": "trader",
              "type": "address"
            },
            {
              "internalType": "uint256",
              "name": "pairIndex",
              "type": "uint256"
            },
            {
              "internalType": "uint256",
              "name": "index",
              "type": "uint256"
            },
            {
              "internalType": "enum StorageInterfaceV5.LimitOrder",
              "name": "order",
              "type": "uint8"
            }
          ],
          "indexed": false,
          "internalType": "struct GNSOracleRewardsV6_4_1.TriggeredLimitId",
          "name": "id",
          "type": "tuple"
        }
      ],
      "name": "TriggerUnregistered",
      "type": "event"
    },
    {
      "anonymous": false,
      "inputs": [
        {
          "components": [
            {
              "internalType": "address",
              "name": "trader",
              "type": "address"
            },
            {
              "internalType": "uint256",
              "name": "pairIndex",
              "type": "uint256"
            },
            {
              "internalType": "uint256",
              "name": "index",
              "type": "uint256"
            },
            {
              "internalType": "enum StorageInterfaceV5.LimitOrder",
              "name": "order",
              "type": "uint8"
            }
          ],
          "indexed": false,
          "internalType": "struct GNSOracleRewardsV6_4_1.TriggeredLimitId",
          "name": "id",
          "type": "tuple"
        }
      ],
      "name": "TriggeredFirst",
      "type": "event"
    },
    {
      "inputs": [
        {
          "internalType": "address",
          "name": "_oracle",
          "type": "address"
        }
      ],
      "name": "claimRewards",
      "outputs": [],
      "stateMutability": "nonpayable",
      "type": "function"
    },
    {
      "inputs": [
        {
          "components": [
            {
              "internalType": "address",
              "name": "trader",
              "type": "address"
            },
            {
              "internalType": "uint256",
              "name": "pairIndex",
              "type": "uint256"
            },
            {
              "internalType": "uint256",
              "name": "index",
              "type": "uint256"
            },
            {
              "internalType": "enum StorageInterfaceV5.LimitOrder",
              "name": "order",
              "type": "uint8"
            }
          ],
          "internalType": "struct GNSOracleRewardsV6_4_1.TriggeredLimitId",
          "name": "_id",
          "type": "tuple"
        },
        {
          "internalType": "uint256",
          "name": "_reward",
          "type": "uint256"
        }
      ],
      "name": "distributeOracleReward",
      "outputs": [],
      "stateMutability": "nonpayable",
      "type": "function"
    },
    {
      "inputs": [],
      "name": "getOracles",
      "outputs": [
        {
          "internalType": "address[]",
          "name": "",
          "type": "address[]"
        }
      ],
      "stateMutability": "view",
      "type": "function"
    },
    {
      "inputs": [
        {
          "internalType": "contract StorageInterfaceV5",
          "name": "_storageT",
          "type": "address"
        },
        {
          "internalType": "uint256",
          "name": "_triggerTimeout",
          "type": "uint256"
        },
        {
          "internalType": "uint256",
          "name": "_oraclesCount",
          "type": "uint256"
        }
      ],
      "name": "initialize",
      "outputs": [],
      "stateMutability": "nonpayable",
      "type": "function"
    },
    {
      "inputs": [
        {
          "internalType": "address",
          "name": "",
          "type": "address"
        },
        {
          "internalType": "uint256",
          "name": "",
          "type": "uint256"
        },
        {
          "internalType": "uint256",
          "name": "",
          "type": "uint256"
        }
      ],
      "name": "openLimitOrderTypes",
      "outputs": [
        {
          "internalType": "enum GNSOracleRewardsV6_4_1.OpenLimitOrderType",
          "name": "",
          "type": "uint8"
        }
      ],
      "stateMutability": "view",
      "type": "function"
    },
    {
      "inputs": [
        {
          "internalType": "uint256",
          "name": "",
          "type": "uint256"
        }
      ],
      "name": "oracles",
      "outputs": [
        {
          "internalType": "address",
          "name": "",
          "type": "address"
        }
      ],
      "stateMutability": "view",
      "type": "function"
    },
    {
      "inputs": [
        {
          "internalType": "address",
          "name": "",
          "type": "address"
        }
      ],
      "name": "pendingRewardsGns",
      "outputs": [
        {
          "internalType": "uint256",
          "name": "",
          "type": "uint256"
        }
      ],
      "stateMutability": "view",
      "type": "function"
    },
    {
      "inputs": [
        {
          "internalType": "address",
          "name": "_trader",
          "type": "address"
        },
        {
          "internalType": "uint256",
          "name": "_pairIndex",
          "type": "uint256"
        },
        {
          "internalType": "uint256",
          "name": "_index",
          "type": "uint256"
        },
        {
          "internalType": "enum GNSOracleRewardsV6_4_1.OpenLimitOrderType",
          "name": "_type",
          "type": "uint8"
        }
      ],
      "name": "setOpenLimitOrderType",
      "outputs": [],
      "stateMutability": "nonpayable",
      "type": "function"
    },
    {
      "inputs": [],
      "name": "stateCopied",
      "outputs": [
        {
          "internalType": "bool",
          "name": "",
          "type": "bool"
        }
      ],
      "stateMutability": "view",
      "type": "function"
    },
    {
      "inputs": [],
      "name": "storageT",
      "outputs": [
        {
          "internalType": "contract StorageInterfaceV5",
          "name": "",
          "type": "address"
        }
      ],
      "stateMutability": "view",
      "type": "function"
    },
    {
      "inputs": [
        {
          "components": [
            {
              "internalType": "address",
              "name": "trader",
              "type": "address"
            },
            {
              "internalType": "uint256",
              "name": "pairIndex",
              "type": "uint256"
            },
            {
              "internalType": "uint256",
              "name": "index",
              "type": "uint256"
            },
            {
              "internalType": "enum StorageInterfaceV5.LimitOrder",
              "name": "order",
              "type": "uint8"
            }
          ],
          "internalType": "struct GNSOracleRewardsV6_4_1.TriggeredLimitId",
          "name": "_id",
          "type": "tuple"
        }
      ],
      "name": "storeTrigger",
      "outputs": [],
      "stateMutability": "nonpayable",
      "type": "function"
    },
    {
      "inputs": [
        {
          "components": [
            {
              "internalType": "address",
              "name": "trader",
              "type": "address"
            },
            {
              "internalType": "uint256",
              "name": "pairIndex",
              "type": "uint256"
            },
            {
              "internalType": "uint256",
              "name": "index",
              "type": "uint256"
            },
            {
              "internalType": "enum StorageInterfaceV5.LimitOrder",
              "name": "order",
              "type": "uint8"
            }
          ],
          "internalType": "struct GNSOracleRewardsV6_4_1.TriggeredLimitId",
          "name": "_id",
          "type": "tuple"
        }
      ],
      "name": "timedOut",
      "outputs": [
        {
          "internalType": "bool",
          "name": "",
          "type": "bool"
        }
      ],
      "stateMutability": "view",
      "type": "function"
    },
    {
      "inputs": [],
      "name": "triggerTimeout",
      "outputs": [
        {
          "internalType": "uint256",
          "name": "",
          "type": "uint256"
        }
      ],
      "stateMutability": "view",
      "type": "function"
    },
    {
      "inputs": [
        {
          "components": [
            {
              "internalType": "address",
              "name": "trader",
              "type": "address"
            },
            {
              "internalType": "uint256",
              "name": "pairIndex",
              "type": "uint256"
            },
            {
              "internalType": "uint256",
              "name": "index",
              "type": "uint256"
            },
            {
              "internalType": "enum StorageInterfaceV5.LimitOrder",
              "name": "order",
              "type": "uint8"
            }
          ],
          "internalType": "struct GNSOracleRewardsV6_4_1.TriggeredLimitId",
          "name": "_id",
          "type": "tuple"
        }
      ],
      "name": "triggered",
      "outputs": [
        {
          "internalType": "bool",
          "name": "",
          "type": "bool"
        }
      ],
      "stateMutability": "view",
      "type": "function"
    },
    {
      "inputs": [
        {
          "internalType": "address",
          "name": "",
          "type": "address"
        },
        {
          "internalType": "uint256",
          "name": "",
          "type": "uint256"
        },
        {
          "internalType": "uint256",
          "name": "",
          "type": "uint256"
        },
        {
          "internalType": "enum StorageInterfaceV5.LimitOrder",
          "name": "",
          "type": "uint8"
        }
      ],
      "name": "triggeredLimits",
      "outputs": [
        {
          "internalType": "uint256",
          "name": "",
          "type": "uint256"
        }
      ],
      "stateMutability": "view",
      "type": "function"
    },
    {
      "inputs": [
        {
          "components": [
            {
              "internalType": "address",
              "name": "trader",
              "type": "address"
            },
            {
              "internalType": "uint256",
              "name": "pairIndex",
              "type": "uint256"
            },
            {
              "internalType": "uint256",
              "name": "index",
              "type": "uint256"
            },
            {
              "internalType": "enum StorageInterfaceV5.LimitOrder",
              "name": "order",
              "type": "uint8"
            }
          ],
          "internalType": "struct GNSOracleRewardsV6_4_1.TriggeredLimitId",
          "name": "_id",
          "type": "tuple"
        }
      ],
      "name": "unregisterTrigger",
      "outputs": [],
      "stateMutability": "nonpayable",
      "type": "function"
    },
    {
      "inputs": [
        {
          "internalType": "uint256",
          "name": "_oraclesCount",
          "type": "uint256"
        }
      ],
      "name": "updateOracles",
      "outputs": [],
      "stateMutability": "nonpayable",
      "type": "function"
    },
    {
      "inputs": [
        {
          "internalType": "uint256",
          "name": "_triggerTimeout",
          "type": "uint256"
        }
      ],
      "name": "updateTriggerTimeout",
      "outputs": [],
      "stateMutability": "nonpayable",
      "type": "function"
    }
  ],
  "transactionHash": "0xf4f319fb448887db37fe4318ee7c57acfc046574708d6c18e1cac3810b739eda",
  "args": [],
  "numDeployments": 1,
  "solcInputHash": "62ead6fd019c01c7f32a188a2b283d94",
  "bytecode": "0x6080806040523461001657611573908161001c8239f35b600080fdfe608060408181526004918236101561001657600080fd5b600092833560e01c9182630a22faf414610f365750816316fff07414610f0d57816321187a9214610ee65781632bf4854414610e5e57816340884c5214610d995781635b69a7d814610d57578163613e666e14610c5d5781637a1ac61e14610a64578163ab5d5c2214610a40578163bf654d2b14610972578163d15ccfaa14610911578163d4de65ea146108bc578163df83935214610697578163e72353d5146105aa578163ec5706101461049a578163ef5cfb8c146101bb578163fc6dcafc1461010c575063fc8b2698146100eb57600080fd5b346101085781600319360112610108576020906001549051908152f35b5080fd5b838334610108576080366003190112610108576001600160a01b0361012f611396565b168252826020528082206024358352602052808220604435835260205280822060643590848210156101b7579061016591610fd2565b54801515928361017c575b60208484519015158152f35b909192506101886114a1565b9182039182116101a45750602092506001541115908380610170565b80601185634e487b7160e01b6024945252fd5b8380fd5b9050346103a8576020806003193601126101b7576101d7610f6a565b906001600160a01b0380831685517f8da5cb5b00000000000000000000000000000000000000000000000000000000815283818781855afa90811561046357889161046d575b508216331480156103ff575b156103bd5786526003825285858120948186549655808484845460101c168951938480927ffc0c546a0000000000000000000000000000000000000000000000000000000082525afa9081156103b35783889387959361036b575b506102d3958a518097819682957fa9059cbb00000000000000000000000000000000000000000000000000000000845233908401602090939291936001600160a01b0360408201951681520152565b0393165af1801561036157917ffc30cddea38e2bf4d6ea7d3f9ed3b6ad7f176419f4963bd81318067a4aee73fe959161032d93610333575b50505192839283602090939291936001600160a01b0360408201951681520152565b0390a180f35b8161035292903d1061035a575b61034a818361100d565b810190611430565b50388061030b565b503d610340565b85513d88823e3d90fd5b9250939094925081813d83116103ac575b610386818361100d565b810103126103a857519080821682036103a8576102d393859388939295610284565b8280fd5b503d61037c565b88513d85823e3d90fd5b6064858488519162461bcd60e51b8352820152600e60248201527f4e4f545f415554484f52495a45440000000000000000000000000000000000006044820152fd5b5085517fd3e9c31400000000000000000000000000000000000000000000000000000000815233868201528381602481855afa908115610463578891610446575b50610229565b61045d9150843d861161035a5761034a818361100d565b38610440565b87513d8a823e3d90fd5b61048d9150843d8611610493575b610485818361100d565b810190611045565b3861021d565b503d61047b565b9050346103a85760803660031901126103a8576104b5610f6a565b602435604435906064359260038410156105a6576001600160a01b039081885460101c1695875196878092637622567960e11b82526020998a935afa9089821561059b579261053c8560809a99979461057a9997947f02f07f1e288a734d5a0a9a192d4b1ac263c35e822875c00ee8a9df42870e5a199d979161057e575b5016331461134b565b1695868a5260058152828a20828b528152828a20848b528152828a2060ff1981541660ff871617905582519687528601528401526060830190611000565ba180f35b61059591508b3d8d1161049357610485818361100d565b38610533565b8951903d90823e3d90fd5b8680fd5b9050346103a85760803660031901126103a8576001600160a01b039182845460101c1681518091637622567960e11b8252818560209485935afa90811561068d576106009186918891610676575016331461134b565b6106086114a1565b93610611611396565b16855282815281852060243586528152818520906044358652528084209260643592831015610672576106676080937f68ad7c7e25b3d9ce225c8f7f8e54268c16ad38a5b3f47e8a5aecc5876cc2289895610fd2565b555161057a816113ac565b8480fd5b6105959150843d861161049357610485818361100d565b83513d88823e3d90fd5b919050346103a857366003190160a081126101b7576080136103a8576084359183549180519162b1278360e01b8352602092838183816001600160a01b03809960101c165afa9081156107f3576106fa918691899161089f575b501633146113e5565b610702611448565b1561085e5760025493841561084b5790869185870494835b8781106107fd575050825460101c16803b156103a857829060648551809581937f5378143e00000000000000000000000000000000000000000000000000000000835230878401528b6024840152600160448401525af180156107f3576107c2575b867fa454cbe4fae943b78304768a76bb0f63c49a18d4654501cfbb0e13eb771b0eac60e08888888851926107af846113ac565b608084015260a083015260c0820152a180f35b67ffffffffffffffff82979397116107e057508552938160e061077c565b826041602492634e487b7160e01b835252fd5b83513d89823e3d90fd5b90918093945061080c82610f85565b919054600392831b1c168a5282528489208054908782018092116108385755889392919060010161071a565b60248b601188634e487b7160e01b835252fd5b602487601284634e487b7160e01b835252fd5b82606492519162461bcd60e51b8352820152600d60248201527f4e4f545f545249474745524544000000000000000000000000000000000000006044820152fd5b6108b69150863d881161049357610485818361100d565b386106f1565b5050346101085760603660031901126101085761090f60ff826020946001600160a01b036108e8610f6a565b16815260058652818120602435825286528181206044358252865220541691518092611000565bf35b9050346103a85760803660031901126103a85761092c610f6a565b9060643591818310156106725760209461096a93926001600160a01b0386931682528652818120602435825286528181206044358252865220610fd2565b549051908152f35b9050346103a85760803660031901126103a8576001600160a01b0380845460101c16908351809262b1278360e01b8252818560209586935afa908115610361576109c79183918891610a2957501633146113e5565b6109cf611396565b1684528181528284206024358552815282842090604435855252818320918360643592831015610a26576106676080937fbc446f372d672d41df09bf965eb61c029a34d21d04ebcd4c0ec9c7ee54f2cd8495610fd2565b80fd5b6108b69150853d871161049357610485818361100d565b50503461010857816003193601126101085760209060ff6006541690519015158152f35b9050346103a85760603660031901126103a8578035906001600160a01b0382169182810361067257602435906044359286549460ff8660081c161595868097610c50575b8015610c39575b15610bd05760ff198116600117895586610bbf575b50151580610bb4575b80610bab575b15610b68575085547fffffffffffffffffffff0000000000000000000000000000000000000000ffff1660109190911b75ffffffffffffffffffffffffffffffffffffffff000016178555600155610b2a906110af565b610b32575080f35b60207f7f26b83ff96e1f2b6a682f133852f6798a09c465da95921460cefb38474024989161ff001984541684555160018152a180f35b606490602087519162461bcd60e51b8352820152600c60248201527f57524f4e475f504152414d5300000000000000000000000000000000000000006044820152fd5b50831515610ad3565b506001831015610acd565b61ffff191661010117885538610ac4565b60848360208a519162461bcd60e51b8352820152602e60248201527f496e697469616c697a61626c653a20636f6e747261637420697320616c72656160448201527f647920696e697469616c697a65640000000000000000000000000000000000006064820152fd5b50303b158015610aaf5750600160ff821614610aaf565b50600160ff821610610aa8565b8391503461010857602090816003193601126103a8578035906001600160a01b03818482875460101c168851928380926312d43a5160e01b82525afa908115610d4d5790610cb692918791610d30575b50163314611064565b60018210610cee57507fdaab030e018e5ad3fedc57669f63d80212488b43901ba12e15b02a77c8fee4d192938160015551908152a180f35b6064908386519162461bcd60e51b8352820152600960248201527f42454c4f575f4d494e00000000000000000000000000000000000000000000006044820152fd5b610d479150863d881161049357610485818361100d565b88610cad565b87513d88823e3d90fd5b9050346103a85760203660031901126103a8573591600254831015610a2657506001600160a01b03610d8a602093610f85565b92905490519260031b1c168152f35b828434610a265780600319360112610a26579080519182906002549182855260208095018093600284527f405787fa12a823e0f2b7631cc41b3ba8828b3321ca811111fa75cd3aa3bb5ace90845b818110610e415750505081610dfd91038261100d565b83519485948186019282875251809352850193925b828110610e2157505050500390f35b83516001600160a01b031685528695509381019392810192600101610e12565b82546001600160a01b031684529288019260019283019201610de7565b9050346103a85760203660031901126103a8576001600160a01b039181602084865460101c168351928380926312d43a5160e01b82525afa918215610edd575092610eb691610ebc948691610ebf5750163314611064565b356110af565b80f35b610ed7915060203d811161049357610485818361100d565b38610cad565b513d86823e3d90fd5b50503461010857608036600319011261010857602090610f04611448565b90519015158152f35b5050346101085781600319360112610108576001600160a01b036020925460101c169051908152f35b849084346103a85760203660031901126103a8576020926001600160a01b03610f5d610f6a565b1681526003845220548152f35b600435906001600160a01b0382168203610f8057565b600080fd5b600254811015610fbc5760026000527f405787fa12a823e0f2b7631cc41b3ba8828b3321ca811111fa75cd3aa3bb5ace0190600090565b634e487b7160e01b600052603260045260246000fd5b906004811015610fea57600052602052604060002090565b634e487b7160e01b600052602160045260246000fd5b906003821015610fea5752565b90601f8019910116810190811067ffffffffffffffff82111761102f57604052565b634e487b7160e01b600052604160045260246000fd5b90816020910312610f8057516001600160a01b0381168103610f805790565b1561106b57565b606460405162461bcd60e51b815260206004820152600860248201527f474f565f4f4e4c590000000000000000000000000000000000000000000000006044820152fd5b80156113075760028054600090818355806112c6575b50805b8381106110ff5750505060207fc9ab6bc878a64f4b5522b0e5e96ab7a0a6404e810b9dc05e7406f0d61a828d1691604051908152a1565b6001600160a01b039081835460101c169160408051937f3078fff50000000000000000000000000000000000000000000000000000000080865260209060049682818981875afa9081156112bc579086918a9161129f575b50161561125d5781908785518095819382525afa9182156107f35790849291889261123e575b5080845180937f1c53c280000000000000000000000000000000000000000000000000000000008252888a830152816024968792165afa93841561123557508793611216575b5050865494680100000000000000008610156112055750506111eb6001948581018855610f85565b90928084549260031b9316831b921b1916179055016110c8565b60418791634e487b7160e01b835252fd5b61122d929350803d1061049357610485818361100d565b9038806111c3565b513d89823e3d90fd5b816112569293503d841161049357610485818361100d565b903861117d565b6064878386519162461bcd60e51b8352820152601260248201527f41474752454741544f525f4d495353494e4700000000000000000000000000006044820152fd5b6112b69150843d861161049357610485818361100d565b38611157565b85513d8b823e3d90fd5b8282527f405787fa12a823e0f2b7631cc41b3ba8828b3321ca811111fa75cd3aa3bb5ace908101905b8181106112fc57506110c5565b8281556001016112ef565b606460405162461bcd60e51b815260206004820152600a60248201527f56414c55455f5a45524f000000000000000000000000000000000000000000006044820152fd5b1561135257565b606460405162461bcd60e51b815260206004820152600c60248201527f54524144494e475f4f4e4c5900000000000000000000000000000000000000006044820152fd5b6004356001600160a01b0381168103610f805790565b6004356001600160a01b038116809103610f8057815260243560208201526044356040820152606435906004821015610f805760600152565b156113ec57565b606460405162461bcd60e51b815260206004820152600e60248201527f43414c4c4241434b535f4f4e4c590000000000000000000000000000000000006044820152fd5b90816020910312610f8057518015158103610f805790565b600435906001600160a01b038216809203610f805760009182526004602052604082206024358352602052604082206044358352602052604082206064359060048210156101b75761149b929350610fd2565b54151590565b61a4b146148015611531575b6114b5574390565b6040517fa3b1b31d00000000000000000000000000000000000000000000000000000000815260208160048160645afa908115611525576000916114f7575090565b906020823d821161151d575b816115106020938361100d565b81010312610a2657505190565b3d9150611503565b6040513d6000823e3d90fd5b5062066eed46146114ad56fea26469706673582212207ed6f6f84e3c88555a4cc12a22f908987d58ea9bdd607577c609b8a9fc36950864736f6c63430008140033",
  "libraries": {},
  "devdoc": {
    "events": {
      "Initialized(uint8)": {
        "details": "Triggered when the contract has been initialized or reinitialized."
      }
    },
    "kind": "dev",
    "methods": {},
    "version": 1
  },
  "userdoc": {
    "kind": "user",
    "methods": {},
    "version": 1
  },
  "storageLayout": {
    "storage": [
      {
        "astId": 22504,
        "contract": "contracts/contracts/GNSOracleRewardsV6_4_1.sol:GNSOracleRewardsV6_4_1",
        "label": "_initialized",
        "offset": 0,
        "slot": "0",
        "type": "t_uint8"
      },
      {
        "astId": 22507,
        "contract": "contracts/contracts/GNSOracleRewardsV6_4_1.sol:GNSOracleRewardsV6_4_1",
        "label": "_initializing",
        "offset": 1,
        "slot": "0",
        "type": "t_bool"
      },
      {
        "astId": 11428,
        "contract": "contracts/contracts/GNSOracleRewardsV6_4_1.sol:GNSOracleRewardsV6_4_1",
        "label": "storageT",
        "offset": 2,
        "slot": "0",
        "type": "t_contract(StorageInterfaceV5)21703"
      },
      {
        "astId": 11430,
        "contract": "contracts/contracts/GNSOracleRewardsV6_4_1.sol:GNSOracleRewardsV6_4_1",
        "label": "triggerTimeout",
        "offset": 0,
        "slot": "1",
        "type": "t_uint256"
      },
      {
        "astId": 11433,
        "contract": "contracts/contracts/GNSOracleRewardsV6_4_1.sol:GNSOracleRewardsV6_4_1",
        "label": "oracles",
        "offset": 0,
        "slot": "2",
        "type": "t_array(t_address)dyn_storage"
      },
      {
        "astId": 11451,
        "contract": "contracts/contracts/GNSOracleRewardsV6_4_1.sol:GNSOracleRewardsV6_4_1",
        "label": "pendingRewardsGns",
        "offset": 0,
        "slot": "3",
        "type": "t_mapping(t_address,t_uint256)"
      },
      {
        "astId": 11462,
        "contract": "contracts/contracts/GNSOracleRewardsV6_4_1.sol:GNSOracleRewardsV6_4_1",
        "label": "triggeredLimits",
        "offset": 0,
        "slot": "4",
        "type": "t_mapping(t_address,t_mapping(t_uint256,t_mapping(t_uint256,t_mapping(t_enum(LimitOrder)21226,t_uint256))))"
      },
      {
        "astId": 11471,
        "contract": "contracts/contracts/GNSOracleRewardsV6_4_1.sol:GNSOracleRewardsV6_4_1",
        "label": "openLimitOrderTypes",
        "offset": 0,
        "slot": "5",
        "type": "t_mapping(t_address,t_mapping(t_uint256,t_mapping(t_uint256,t_enum(OpenLimitOrderType)11447)))"
      },
      {
        "astId": 11473,
        "contract": "contracts/contracts/GNSOracleRewardsV6_4_1.sol:GNSOracleRewardsV6_4_1",
        "label": "stateCopied",
        "offset": 0,
        "slot": "6",
        "type": "t_bool"
      }
    ],
    "types": {
      "t_address": {
        "encoding": "inplace",
        "label": "address",
        "numberOfBytes": "20"
      },
      "t_array(t_address)dyn_storage": {
        "base": "t_address",
        "encoding": "dynamic_array",
        "label": "address[]",
        "numberOfBytes": "32"
      },
      "t_bool": {
        "encoding": "inplace",
        "label": "bool",
        "numberOfBytes": "1"
      },
      "t_contract(StorageInterfaceV5)21703": {
        "encoding": "inplace",
        "label": "contract StorageInterfaceV5",
        "numberOfBytes": "20"
      },
      "t_enum(LimitOrder)21226": {
        "encoding": "inplace",
        "label": "enum StorageInterfaceV5.LimitOrder",
        "numberOfBytes": "1"
      },
      "t_enum(OpenLimitOrderType)11447": {
        "encoding": "inplace",
        "label": "enum GNSOracleRewardsV6_4_1.OpenLimitOrderType",
        "numberOfBytes": "1"
      },
      "t_mapping(t_address,t_mapping(t_uint256,t_mapping(t_uint256,t_enum(OpenLimitOrderType)11447)))": {
        "encoding": "mapping",
        "key": "t_address",
        "label": "mapping(address => mapping(uint256 => mapping(uint256 => enum GNSOracleRewardsV6_4_1.OpenLimitOrderType)))",
        "numberOfBytes": "32",
        "value": "t_mapping(t_uint256,t_mapping(t_uint256,t_enum(OpenLimitOrderType)11447))"
      },
      "t_mapping(t_address,t_mapping(t_uint256,t_mapping(t_uint256,t_mapping(t_enum(LimitOrder)21226,t_uint256))))": {
        "encoding": "mapping",
        "key": "t_address",
        "label": "mapping(address => mapping(uint256 => mapping(uint256 => mapping(enum StorageInterfaceV5.LimitOrder => uint256))))",
        "numberOfBytes": "32",
        "value": "t_mapping(t_uint256,t_mapping(t_uint256,t_mapping(t_enum(LimitOrder)21226,t_uint256)))"
      },
      "t_mapping(t_address,t_uint256)": {
        "encoding": "mapping",
        "key": "t_address",
        "label": "mapping(address => uint256)",
        "numberOfBytes": "32",
        "value": "t_uint256"
      },
      "t_mapping(t_enum(LimitOrder)21226,t_uint256)": {
        "encoding": "mapping",
        "key": "t_enum(LimitOrder)21226",
        "label": "mapping(enum StorageInterfaceV5.LimitOrder => uint256)",
        "numberOfBytes": "32",
        "value": "t_uint256"
      },
      "t_mapping(t_uint256,t_enum(OpenLimitOrderType)11447)": {
        "encoding": "mapping",
        "key": "t_uint256",
        "label": "mapping(uint256 => enum GNSOracleRewardsV6_4_1.OpenLimitOrderType)",
        "numberOfBytes": "32",
        "value": "t_enum(OpenLimitOrderType)11447"
      },
      "t_mapping(t_uint256,t_mapping(t_enum(LimitOrder)21226,t_uint256))": {
        "encoding": "mapping",
        "key": "t_uint256",
        "label": "mapping(uint256 => mapping(enum StorageInterfaceV5.LimitOrder => uint256))",
        "numberOfBytes": "32",
        "value": "t_mapping(t_enum(LimitOrder)21226,t_uint256)"
      },
      "t_mapping(t_uint256,t_mapping(t_uint256,t_enum(OpenLimitOrderType)11447))": {
        "encoding": "mapping",
        "key": "t_uint256",
        "label": "mapping(uint256 => mapping(uint256 => enum GNSOracleRewardsV6_4_1.OpenLimitOrderType))",
        "numberOfBytes": "32",
        "value": "t_mapping(t_uint256,t_enum(OpenLimitOrderType)11447)"
      },
      "t_mapping(t_uint256,t_mapping(t_uint256,t_mapping(t_enum(LimitOrder)21226,t_uint256)))": {
        "encoding": "mapping",
        "key": "t_uint256",
        "label": "mapping(uint256 => mapping(uint256 => mapping(enum StorageInterfaceV5.LimitOrder => uint256)))",
        "numberOfBytes": "32",
        "value": "t_mapping(t_uint256,t_mapping(t_enum(LimitOrder)21226,t_uint256))"
      },
      "t_uint256": {
        "encoding": "inplace",
        "label": "uint256",
        "numberOfBytes": "32"
      },
      "t_uint8": {
        "encoding": "inplace",
        "label": "uint8",
        "numberOfBytes": "1"
      }
    }
  }
}