{
  "address": "0x77fbc83602932F4e1023E2B16eeEf0C3026CE6da",
  "abi": [
    {
      "anonymous": false,
      "inputs": [
        {
          "indexed": false,
          "internalType": "uint8",
          "name": "version",
          "type": "uint8"
        }
      ],
      "name": "Initialized",
      "type": "event"
    },
    {
      "anonymous": false,
      "inputs": [
        {
          "indexed": false,
          "internalType": "address",
          "name": "trader",
          "type": "address"
        },
        {
          "indexed": false,
          "internalType": "uint256",
          "name": "pairIndex",
          "type": "uint256"
        },
        {
          "indexed": false,
          "internalType": "uint256",
          "name": "index",
          "type": "uint256"
        },
        {
          "indexed": false,
          "internalType": "enum GNSOracleRewardsV6_4_1.OpenLimitOrderType",
          "name": "value",
          "type": "uint8"
        }
      ],
      "name": "OpenLimitOrderTypeSet",
      "type": "event"
    },
    {
      "anonymous": false,
      "inputs": [
        {
          "indexed": false,
          "internalType": "uint256",
          "name": "oraclesCount",
          "type": "uint256"
        }
      ],
      "name": "OraclesUpdated",
      "type": "event"
    },
    {
      "anonymous": false,
      "inputs": [
        {
          "indexed": false,
          "internalType": "address",
          "name": "oracle",
          "type": "address"
        },
        {
          "indexed": false,
          "internalType": "uint256",
          "name": "amountGns",
          "type": "uint256"
        }
      ],
      "name": "RewardsClaimed",
      "type": "event"
    },
    {
      "anonymous": false,
      "inputs": [
        {
          "components": [
            {
              "internalType": "address",
              "name": "trader",
              "type": "address"
            },
            {
              "internalType": "uint256",
              "name": "pairIndex",
              "type": "uint256"
            },
            {
              "internalType": "uint256",
              "name": "index",
              "type": "uint256"
            },
            {
              "internalType": "enum StorageInterfaceV5.LimitOrder",
              "name": "order",
              "type": "uint8"
            }
          ],
          "indexed": false,
          "internalType": "struct GNSOracleRewardsV6_4_1.TriggeredLimitId",
          "name": "id",
          "type": "tuple"
        },
        {
          "indexed": false,
          "internalType": "uint256",
          "name": "rewardGns",
          "type": "uint256"
        },
        {
          "indexed": false,
          "internalType": "uint256",
          "name": "rewardGnsPerOracle",
          "type": "uint256"
        },
        {
          "indexed": false,
          "internalType": "uint256",
          "name": "oraclesCount",
          "type": "uint256"
        }
      ],
      "name": "TriggerRewarded",
      "type": "event"
    },
    {
      "anonymous": false,
      "inputs": [
        {
          "indexed": false,
          "internalType": "uint256",
          "name": "value",
          "type": "uint256"
        }
      ],
      "name": "TriggerTimeoutUpdated",
      "type": "event"
    },
    {
      "anonymous": false,
      "inputs": [
        {
          "components": [
            {
              "internalType": "address",
              "name": "trader",
              "type": "address"
            },
            {
              "internalType": "uint256",
              "name": "pairIndex",
              "type": "uint256"
            },
            {
              "internalType": "uint256",
              "name": "index",
              "type": "uint256"
            },
            {
              "internalType": "enum StorageInterfaceV5.LimitOrder",
              "name": "order",
              "type": "uint8"
            }
          ],
          "indexed": false,
          "internalType": "struct GNSOracleRewardsV6_4_1.TriggeredLimitId",
          "name": "id",
          "type": "tuple"
        }
      ],
      "name": "TriggerUnregistered",
      "type": "event"
    },
    {
      "anonymous": false,
      "inputs": [
        {
          "components": [
            {
              "internalType": "address",
              "name": "trader",
              "type": "address"
            },
            {
              "internalType": "uint256",
              "name": "pairIndex",
              "type": "uint256"
            },
            {
              "internalType": "uint256",
              "name": "index",
              "type": "uint256"
            },
            {
              "internalType": "enum StorageInterfaceV5.LimitOrder",
              "name": "order",
              "type": "uint8"
            }
          ],
          "indexed": false,
          "internalType": "struct GNSOracleRewardsV6_4_1.TriggeredLimitId",
          "name": "id",
          "type": "tuple"
        }
      ],
      "name": "TriggeredFirst",
      "type": "event"
    },
    {
      "inputs": [
        {
          "internalType": "address",
          "name": "_oracle",
          "type": "address"
        }
      ],
      "name": "claimRewards",
      "outputs": [],
      "stateMutability": "nonpayable",
      "type": "function"
    },
    {
      "inputs": [
        {
          "components": [
            {
              "internalType": "address",
              "name": "trader",
              "type": "address"
            },
            {
              "internalType": "uint256",
              "name": "pairIndex",
              "type": "uint256"
            },
            {
              "internalType": "uint256",
              "name": "index",
              "type": "uint256"
            },
            {
              "internalType": "enum StorageInterfaceV5.LimitOrder",
              "name": "order",
              "type": "uint8"
            }
          ],
          "internalType": "struct GNSOracleRewardsV6_4_1.TriggeredLimitId",
          "name": "_id",
          "type": "tuple"
        },
        {
          "internalType": "uint256",
          "name": "_reward",
          "type": "uint256"
        }
      ],
      "name": "distributeOracleReward",
      "outputs": [],
      "stateMutability": "nonpayable",
      "type": "function"
    },
    {
      "inputs": [],
      "name": "getOracles",
      "outputs": [
        {
          "internalType": "address[]",
          "name": "",
          "type": "address[]"
        }
      ],
      "stateMutability": "view",
      "type": "function"
    },
    {
      "inputs": [
        {
          "internalType": "contract StorageInterfaceV5",
          "name": "_storageT",
          "type": "address"
        },
        {
          "internalType": "uint256",
          "name": "_triggerTimeout",
          "type": "uint256"
        },
        {
          "internalType": "uint256",
          "name": "_oraclesCount",
          "type": "uint256"
        }
      ],
      "name": "initialize",
      "outputs": [],
      "stateMutability": "nonpayable",
      "type": "function"
    },
    {
      "inputs": [
        {
          "internalType": "address",
          "name": "",
          "type": "address"
        },
        {
          "internalType": "uint256",
          "name": "",
          "type": "uint256"
        },
        {
          "internalType": "uint256",
          "name": "",
          "type": "uint256"
        }
      ],
      "name": "openLimitOrderTypes",
      "outputs": [
        {
          "internalType": "enum GNSOracleRewardsV6_4_1.OpenLimitOrderType",
          "name": "",
          "type": "uint8"
        }
      ],
      "stateMutability": "view",
      "type": "function"
    },
    {
      "inputs": [
        {
          "internalType": "uint256",
          "name": "",
          "type": "uint256"
        }
      ],
      "name": "oracles",
      "outputs": [
        {
          "internalType": "address",
          "name": "",
          "type": "address"
        }
      ],
      "stateMutability": "view",
      "type": "function"
    },
    {
      "inputs": [
        {
          "internalType": "address",
          "name": "",
          "type": "address"
        }
      ],
      "name": "pendingRewardsGns",
      "outputs": [
        {
          "internalType": "uint256",
          "name": "",
          "type": "uint256"
        }
      ],
      "stateMutability": "view",
      "type": "function"
    },
    {
      "inputs": [
        {
          "internalType": "address",
          "name": "_trader",
          "type": "address"
        },
        {
          "internalType": "uint256",
          "name": "_pairIndex",
          "type": "uint256"
        },
        {
          "internalType": "uint256",
          "name": "_index",
          "type": "uint256"
        },
        {
          "internalType": "enum GNSOracleRewardsV6_4_1.OpenLimitOrderType",
          "name": "_type",
          "type": "uint8"
        }
      ],
      "name": "setOpenLimitOrderType",
      "outputs": [],
      "stateMutability": "nonpayable",
      "type": "function"
    },
    {
      "inputs": [],
      "name": "stateCopied",
      "outputs": [
        {
          "internalType": "bool",
          "name": "",
          "type": "bool"
        }
      ],
      "stateMutability": "view",
      "type": "function"
    },
    {
      "inputs": [],
      "name": "storageT",
      "outputs": [
        {
          "internalType": "contract StorageInterfaceV5",
          "name": "",
          "type": "address"
        }
      ],
      "stateMutability": "view",
      "type": "function"
    },
    {
      "inputs": [
        {
          "components": [
            {
              "internalType": "address",
              "name": "trader",
              "type": "address"
            },
            {
              "internalType": "uint256",
              "name": "pairIndex",
              "type": "uint256"
            },
            {
              "internalType": "uint256",
              "name": "index",
              "type": "uint256"
            },
            {
              "internalType": "enum StorageInterfaceV5.LimitOrder",
              "name": "order",
              "type": "uint8"
            }
          ],
          "internalType": "struct GNSOracleRewardsV6_4_1.TriggeredLimitId",
          "name": "_id",
          "type": "tuple"
        }
      ],
      "name": "storeTrigger",
      "outputs": [],
      "stateMutability": "nonpayable",
      "type": "function"
    },
    {
      "inputs": [
        {
          "components": [
            {
              "internalType": "address",
              "name": "trader",
              "type": "address"
            },
            {
              "internalType": "uint256",
              "name": "pairIndex",
              "type": "uint256"
            },
            {
              "internalType": "uint256",
              "name": "index",
              "type": "uint256"
            },
            {
              "internalType": "enum StorageInterfaceV5.LimitOrder",
              "name": "order",
              "type": "uint8"
            }
          ],
          "internalType": "struct GNSOracleRewardsV6_4_1.TriggeredLimitId",
          "name": "_id",
          "type": "tuple"
        }
      ],
      "name": "timedOut",
      "outputs": [
        {
          "internalType": "bool",
          "name": "",
          "type": "bool"
        }
      ],
      "stateMutability": "view",
      "type": "function"
    },
    {
      "inputs": [],
      "name": "triggerTimeout",
      "outputs": [
        {
          "internalType": "uint256",
          "name": "",
          "type": "uint256"
        }
      ],
      "stateMutability": "view",
      "type": "function"
    },
    {
      "inputs": [
        {
          "components": [
            {
              "internalType": "address",
              "name": "trader",
              "type": "address"
            },
            {
              "internalType": "uint256",
              "name": "pairIndex",
              "type": "uint256"
            },
            {
              "internalType": "uint256",
              "name": "index",
              "type": "uint256"
            },
            {
              "internalType": "enum StorageInterfaceV5.LimitOrder",
              "name": "order",
              "type": "uint8"
            }
          ],
          "internalType": "struct GNSOracleRewardsV6_4_1.TriggeredLimitId",
          "name": "_id",
          "type": "tuple"
        }
      ],
      "name": "triggered",
      "outputs": [
        {
          "internalType": "bool",
          "name": "",
          "type": "bool"
        }
      ],
      "stateMutability": "view",
      "type": "function"
    },
    {
      "inputs": [
        {
          "internalType": "address",
          "name": "",
          "type": "address"
        },
        {
          "internalType": "uint256",
          "name": "",
          "type": "uint256"
        },
        {
          "internalType": "uint256",
          "name": "",
          "type": "uint256"
        },
        {
          "internalType": "enum StorageInterfaceV5.LimitOrder",
          "name": "",
          "type": "uint8"
        }
      ],
      "name": "triggeredLimits",
      "outputs": [
        {
          "internalType": "uint256",
          "name": "",
          "type": "uint256"
        }
      ],
      "stateMutability": "view",
      "type": "function"
    },
    {
      "inputs": [
        {
          "components": [
            {
              "internalType": "address",
              "name": "trader",
              "type": "address"
            },
            {
              "internalType": "uint256",
              "name": "pairIndex",
              "type": "uint256"
            },
            {
              "internalType": "uint256",
              "name": "index",
              "type": "uint256"
            },
            {
              "internalType": "enum StorageInterfaceV5.LimitOrder",
              "name": "order",
              "type": "uint8"
            }
          ],
          "internalType": "struct GNSOracleRewardsV6_4_1.TriggeredLimitId",
          "name": "_id",
          "type": "tuple"
        }
      ],
      "name": "unregisterTrigger",
      "outputs": [],
      "stateMutability": "nonpayable",
      "type": "function"
    },
    {
      "inputs": [
        {
          "internalType": "uint256",
          "name": "_oraclesCount",
          "type": "uint256"
        }
      ],
      "name": "updateOracles",
      "outputs": [],
      "stateMutability": "nonpayable",
      "type": "function"
    },
    {
      "inputs": [
        {
          "internalType": "uint256",
          "name": "_triggerTimeout",
          "type": "uint256"
        }
      ],
      "name": "updateTriggerTimeout",
      "outputs": [],
      "stateMutability": "nonpayable",
      "type": "function"
    }
  ],
  "transactionHash": "0x3008cc384f6e7d328837ed01fda6389b320c4e3c766c4e0b5b43ae646d732042",
  "args": [],
  "numDeployments": 1,
  "solcInputHash": "f7a9b91dc44ee5e79c1a5d5aff87db1f",
  "bytecode": "0x608060405234801561001057600080fd5b50611958806100206000396000f3fe608060405234801561001057600080fd5b50600436106101165760003560e01c8063bf654d2b116100a2578063e72353d511610071578063e72353d5146102b3578063ec570610146102c6578063ef5cfb8c146102d9578063fc6dcafc146102ec578063fc8b2698146102ff57600080fd5b8063bf654d2b14610212578063d15ccfaa14610225578063d4de65ea1461025f578063df839352146102a057600080fd5b806340884c52116100e957806340884c52146101b75780635b69a7d8146101cc578063613e666e146101df5780637a1ac61e146101f2578063ab5d5c221461020557600080fd5b80630a22faf41461011b57806316fff0741461014e57806321187a921461017f5780632bf48544146101a2575b600080fd5b61013b61012936600461158e565b60036020526000908152604090205481565b6040519081526020015b60405180910390f35b600054610167906201000090046001600160a01b031681565b6040516001600160a01b039091168152602001610145565b61019261018d3660046116d0565b610308565b6040519015158152602001610145565b6101b56101b0366004611717565b610399565b005b6101bf61047b565b60405161014591906117e2565b6101676101da366004611717565b6104dd565b6101b56101ed366004611717565b610507565b6101b56102003660046115c8565b610651565b6006546101929060ff1681565b6101b56102203660046116d0565b6107ee565b61013b6102333660046115fd565b600460209081526000948552604080862082529385528385208152918452828420909152825290205481565b61029361026d3660046115c8565b600560209081526000938452604080852082529284528284209052825290205460ff1681565b604051610145919061182f565b6101b56102ae3660046116ec565b61097d565b6101b56102c13660046116d0565b610bb3565b6101b56102d4366004611645565b610d49565b6101b56102e736600461158e565b610ea0565b6101926102fa3660046116d0565b611146565b61013b60015481565b60008060048161031b602086018661158e565b6001600160a01b0316815260208082019290925260409081016000908120868401358252835281812086830135825290925281209061036060808601606087016116b5565b6003811115610371576103716118e1565b6003811115610382576103826118e1565b815260200190815260200160002054119050919050565b600060029054906101000a90046001600160a01b03166001600160a01b03166312d43a516040518163ffffffff1660e01b815260040160206040518083038186803b1580156103e757600080fd5b505afa1580156103fb573d6000803e3d6000fd5b505050506040513d601f19601f8201168201806040525081019061041f91906115ab565b6001600160a01b0316336001600160a01b03161461046f5760405162461bcd60e51b8152602060048201526008602482015267474f565f4f4e4c5960c01b60448201526064015b60405180910390fd5b610478816111fc565b50565b606060028054806020026020016040519081016040528092919081815260200182805480156104d357602002820191906000526020600020905b81546001600160a01b031681526001909101906020018083116104b5575b5050505050905090565b600281815481106104ed57600080fd5b6000918252602090912001546001600160a01b0316905081565b600060029054906101000a90046001600160a01b03166001600160a01b03166312d43a516040518163ffffffff1660e01b815260040160206040518083038186803b15801561055557600080fd5b505afa158015610569573d6000803e3d6000fd5b505050506040513d601f19601f8201168201806040525081019061058d91906115ab565b6001600160a01b0316336001600160a01b0316146105d85760405162461bcd60e51b8152602060048201526008602482015267474f565f4f4e4c5960c01b6044820152606401610466565b60018110156106155760405162461bcd60e51b81526020600482015260096024820152682122a627abafa6a4a760b91b6044820152606401610466565b60018190556040518181527fdaab030e018e5ad3fedc57669f63d80212488b43901ba12e15b02a77c8fee4d1906020015b60405180910390a150565b600054610100900460ff16158080156106715750600054600160ff909116105b8061068b5750303b15801561068b575060005460ff166001145b6106ee5760405162461bcd60e51b815260206004820152602e60248201527f496e697469616c697a61626c653a20636f6e747261637420697320616c72656160448201526d191e481a5b9a5d1a585b1a5e995960921b6064820152608401610466565b6000805460ff191660011790558015610711576000805461ff0019166101001790555b6001600160a01b0384161580159061072a575060018310155b80156107365750600082115b6107715760405162461bcd60e51b815260206004820152600c60248201526b57524f4e475f504152414d5360a01b6044820152606401610466565b6000805462010000600160b01b031916620100006001600160a01b0387160217905560018390556107a1826111fc565b80156107e8576000805461ff0019169055604051600181527f7f26b83ff96e1f2b6a682f133852f6798a09c465da95921460cefb3847402498906020015b60405180910390a15b50505050565b600060029054906101000a90046001600160a01b03166001600160a01b031662b127836040518163ffffffff1660e01b815260040160206040518083038186803b15801561083b57600080fd5b505afa15801561084f573d6000803e3d6000fd5b505050506040513d601f19601f8201168201806040525081019061087391906115ab565b6001600160a01b0316336001600160a01b0316146108c45760405162461bcd60e51b815260206004820152600e60248201526d43414c4c4241434b535f4f4e4c5960901b6044820152606401610466565b600460006108d5602084018461158e565b6001600160a01b0316815260208082019290925260409081016000908120848401358252835281812084830135825290925281209061091a60808401606085016116b5565b600381111561092b5761092b6118e1565b600381111561093c5761093c6118e1565b8152602001908152602001600020600090557fbc446f372d672d41df09bf965eb61c029a34d21d04ebcd4c0ec9c7ee54f2cd84816040516106469190611843565b600060029054906101000a90046001600160a01b03166001600160a01b031662b127836040518163ffffffff1660e01b815260040160206040518083038186803b1580156109ca57600080fd5b505afa1580156109de573d6000803e3d6000fd5b505050506040513d601f19601f82011682018060405250810190610a0291906115ab565b6001600160a01b0316336001600160a01b031614610a535760405162461bcd60e51b815260206004820152600e60248201526d43414c4c4241434b535f4f4e4c5960901b6044820152606401610466565b610a5c82610308565b610a985760405162461bcd60e51b815260206004820152600d60248201526c1393d517d5149251d1d1549151609a1b6044820152606401610466565b6002546000610aa78284611892565b905060005b82811015610b0d57816003600060028481548110610acc57610acc6118f7565b60009182526020808320909101546001600160a01b0316835282019290925260400181208054909190610b0090849061187a565b9091555050600101610aac565b506000546040516329bc0a1f60e11b81523060048201526024810185905260016044820152620100009091046001600160a01b031690635378143e90606401600060405180830381600087803b158015610b6657600080fd5b505af1158015610b7a573d6000803e3d6000fd5b505050507fa454cbe4fae943b78304768a76bb0f63c49a18d4654501cfbb0e13eb771b0eac848483856040516107df9493929190611851565b600060029054906101000a90046001600160a01b03166001600160a01b031663ec44acf26040518163ffffffff1660e01b815260040160206040518083038186803b158015610c0157600080fd5b505afa158015610c15573d6000803e3d6000fd5b505050506040513d601f19601f82011682018060405250810190610c3991906115ab565b6001600160a01b0316336001600160a01b031614610c885760405162461bcd60e51b815260206004820152600c60248201526b54524144494e475f4f4e4c5960a01b6044820152606401610466565b610c9061149b565b60046000610ca1602085018561158e565b6001600160a01b03168152602080820192909252604090810160009081208584013582528352818120858301358252909252812090610ce660808501606086016116b5565b6003811115610cf757610cf76118e1565b6003811115610d0857610d086118e1565b8152602001908152602001600020819055507f68ad7c7e25b3d9ce225c8f7f8e54268c16ad38a5b3f47e8a5aecc5876cc22898816040516106469190611843565b600060029054906101000a90046001600160a01b03166001600160a01b031663ec44acf26040518163ffffffff1660e01b815260040160206040518083038186803b158015610d9757600080fd5b505afa158015610dab573d6000803e3d6000fd5b505050506040513d601f19601f82011682018060405250810190610dcf91906115ab565b6001600160a01b0316336001600160a01b031614610e1e5760405162461bcd60e51b815260206004820152600c60248201526b54524144494e475f4f4e4c5960a01b6044820152606401610466565b6001600160a01b038416600090815260056020908152604080832086845282528083208584529091529020805482919060ff19166001836002811115610e6657610e666118e1565b02179055507f02f07f1e288a734d5a0a9a192d4b1ac263c35e822875c00ee8a9df42870e5a19848484846040516107df94939291906117ae565b6000819050336001600160a01b0316816001600160a01b0316638da5cb5b6040518163ffffffff1660e01b815260040160206040518083038186803b158015610ee857600080fd5b505afa158015610efc573d6000803e3d6000fd5b505050506040513d601f19601f82011682018060405250810190610f2091906115ab565b6001600160a01b03161480610fa757506040516334fa70c560e21b81523360048201526001600160a01b0382169063d3e9c3149060240160206040518083038186803b158015610f6f57600080fd5b505afa158015610f83573d6000803e3d6000fd5b505050506040513d601f19601f82011682018060405250810190610fa79190611693565b610fe45760405162461bcd60e51b815260206004820152600e60248201526d1393d517d055551213d49256915160921b6044820152606401610466565b6001600160a01b03808316600090815260036020908152604080832080549084905592548151637e062a3560e11b81529151939462010000909104169263fc0c546a92600480840193919291829003018186803b15801561104457600080fd5b505afa158015611058573d6000803e3d6000fd5b505050506040513d601f19601f8201168201806040525081019061107c91906115ab565b60405163a9059cbb60e01b8152336004820152602481018390526001600160a01b03919091169063a9059cbb90604401602060405180830381600087803b1580156110c657600080fd5b505af11580156110da573d6000803e3d6000fd5b505050506040513d601f19601f820116820180604052508101906110fe9190611693565b50604080516001600160a01b0385168152602081018390527ffc30cddea38e2bf4d6ea7d3f9ed3b6ad7f176419f4963bd81318067a4aee73fe910160405180910390a1505050565b600080600481611159602086018661158e565b6001600160a01b0316815260208082019290925260409081016000908120868401358252835281812086830135825290925281209061119e60808601606087016116b5565b60038111156111af576111af6118e1565b60038111156111c0576111c06118e1565b81526020019081526020016000205490506000811180156111f55750600154816111e861149b565b6111f291906118b4565b10155b9392505050565b600081116112395760405162461bcd60e51b815260206004820152600a60248201526956414c55455f5a45524f60b01b6044820152606401610466565b61124560026000611530565b60005b8181101561146a5760006001600160a01b0316600060029054906101000a90046001600160a01b03166001600160a01b0316633078fff56040518163ffffffff1660e01b815260040160206040518083038186803b1580156112a957600080fd5b505afa1580156112bd573d6000803e3d6000fd5b505050506040513d601f19601f820116820180604052508101906112e191906115ab565b6001600160a01b0316141561132d5760405162461bcd60e51b815260206004820152601260248201527141474752454741544f525f4d495353494e4760701b6044820152606401610466565b6002600060029054906101000a90046001600160a01b03166001600160a01b0316633078fff56040518163ffffffff1660e01b815260040160206040518083038186803b15801561137d57600080fd5b505afa158015611391573d6000803e3d6000fd5b505050506040513d601f19601f820116820180604052508101906113b591906115ab565b6001600160a01b0316631c53c280836040518263ffffffff1660e01b81526004016113e291815260200190565b60206040518083038186803b1580156113fa57600080fd5b505afa15801561140e573d6000803e3d6000fd5b505050506040513d601f19601f8201168201806040525081019061143291906115ab565b815460018082018455600093845260209093200180546001600160a01b0319166001600160a01b039290921691909117905501611248565b506040518181527fc9ab6bc878a64f4b5522b0e5e96ab7a0a6404e810b9dc05e7406f0d61a828d1690602001610646565b600061a4b14614806114af575062066eed46145b1561152b5760646001600160a01b031663a3b1b31d6040518163ffffffff1660e01b815260040160206040518083038186803b1580156114ee57600080fd5b505afa158015611502573d6000803e3d6000fd5b505050506040513d601f19601f820116820180604052508101906115269190611730565b905090565b504390565b508054600082559060005260206000209081019061047891905b8082111561155e576000815560010161154a565b5090565b80356004811061157157600080fd5b919050565b60006080828403121561158857600080fd5b50919050565b6000602082840312156115a057600080fd5b81356111f58161190d565b6000602082840312156115bd57600080fd5b81516111f58161190d565b6000806000606084860312156115dd57600080fd5b83356115e88161190d565b95602085013595506040909401359392505050565b6000806000806080858703121561161357600080fd5b843561161e8161190d565b9350602085013592506040850135915061163a60608601611562565b905092959194509250565b6000806000806080858703121561165b57600080fd5b84356116668161190d565b9350602085013592506040850135915060608501356003811061168857600080fd5b939692955090935050565b6000602082840312156116a557600080fd5b815180151581146111f557600080fd5b6000602082840312156116c757600080fd5b6111f582611562565b6000608082840312156116e257600080fd5b6111f58383611576565b60008060a083850312156116ff57600080fd5b6117098484611576565b946080939093013593505050565b60006020828403121561172957600080fd5b5035919050565b60006020828403121561174257600080fd5b5051919050565b60038110611759576117596118e1565b9052565b80356117688161190d565b6001600160a01b03168252602081810135908301526040808201359083015261179360608201611562565b600481106117a3576117a36118e1565b806060840152505050565b6001600160a01b03851681526020810184905260408101839052608081016117d96060830184611749565b95945050505050565b6020808252825182820181905260009190848201906040850190845b818110156118235783516001600160a01b0316835292840192918401916001016117fe565b50909695505050505050565b6020810161183d8284611749565b92915050565b6080810161183d828461175d565b60e0810161185f828761175d565b8460808301528360a08301528260c083015295945050505050565b6000821982111561188d5761188d6118cb565b500190565b6000826118af57634e487b7160e01b600052601260045260246000fd5b500490565b6000828210156118c6576118c66118cb565b500390565b634e487b7160e01b600052601160045260246000fd5b634e487b7160e01b600052602160045260246000fd5b634e487b7160e01b600052603260045260246000fd5b6001600160a01b038116811461047857600080fdfea2646970667358221220505d1eb649fec654062c638e52260b21112082bd1ca5cf0342a2bc4ca9a5bda164736f6c63430008070033",
  "libraries": {},
  "devdoc": {
    "kind": "dev",
    "methods": {},
    "version": 1
  },
  "userdoc": {
    "kind": "user",
    "methods": {},
    "version": 1
  },
  "storageLayout": {
    "storage": [
      {
        "astId": 25464,
        "contract": "contracts/contracts/GNSOracleRewardsV6_4_1.sol:GNSOracleRewardsV6_4_1",
        "label": "_initialized",
        "offset": 0,
        "slot": "0",
        "type": "t_uint8"
      },
      {
        "astId": 25467,
        "contract": "contracts/contracts/GNSOracleRewardsV6_4_1.sol:GNSOracleRewardsV6_4_1",
        "label": "_initializing",
        "offset": 1,
        "slot": "0",
        "type": "t_bool"
      },
      {
        "astId": 11427,
        "contract": "contracts/contracts/GNSOracleRewardsV6_4_1.sol:GNSOracleRewardsV6_4_1",
        "label": "storageT",
        "offset": 2,
        "slot": "0",
        "type": "t_contract(StorageInterfaceV5)24663"
      },
      {
        "astId": 11429,
        "contract": "contracts/contracts/GNSOracleRewardsV6_4_1.sol:GNSOracleRewardsV6_4_1",
        "label": "triggerTimeout",
        "offset": 0,
        "slot": "1",
        "type": "t_uint256"
      },
      {
        "astId": 11432,
        "contract": "contracts/contracts/GNSOracleRewardsV6_4_1.sol:GNSOracleRewardsV6_4_1",
        "label": "oracles",
        "offset": 0,
        "slot": "2",
        "type": "t_array(t_address)dyn_storage"
      },
      {
        "astId": 11450,
        "contract": "contracts/contracts/GNSOracleRewardsV6_4_1.sol:GNSOracleRewardsV6_4_1",
        "label": "pendingRewardsGns",
        "offset": 0,
        "slot": "3",
        "type": "t_mapping(t_address,t_uint256)"
      },
      {
        "astId": 11461,
        "contract": "contracts/contracts/GNSOracleRewardsV6_4_1.sol:GNSOracleRewardsV6_4_1",
        "label": "triggeredLimits",
        "offset": 0,
        "slot": "4",
        "type": "t_mapping(t_address,t_mapping(t_uint256,t_mapping(t_uint256,t_mapping(t_enum(LimitOrder)24186,t_uint256))))"
      },
      {
        "astId": 11470,
        "contract": "contracts/contracts/GNSOracleRewardsV6_4_1.sol:GNSOracleRewardsV6_4_1",
        "label": "openLimitOrderTypes",
        "offset": 0,
        "slot": "5",
        "type": "t_mapping(t_address,t_mapping(t_uint256,t_mapping(t_uint256,t_enum(OpenLimitOrderType)11446)))"
      },
      {
        "astId": 11472,
        "contract": "contracts/contracts/GNSOracleRewardsV6_4_1.sol:GNSOracleRewardsV6_4_1",
        "label": "stateCopied",
        "offset": 0,
        "slot": "6",
        "type": "t_bool"
      }
    ],
    "types": {
      "t_address": {
        "encoding": "inplace",
        "label": "address",
        "numberOfBytes": "20"
      },
      "t_array(t_address)dyn_storage": {
        "base": "t_address",
        "encoding": "dynamic_array",
        "label": "address[]",
        "numberOfBytes": "32"
      },
      "t_bool": {
        "encoding": "inplace",
        "label": "bool",
        "numberOfBytes": "1"
      },
      "t_contract(StorageInterfaceV5)24663": {
        "encoding": "inplace",
        "label": "contract StorageInterfaceV5",
        "numberOfBytes": "20"
      },
      "t_enum(LimitOrder)24186": {
        "encoding": "inplace",
        "label": "enum StorageInterfaceV5.LimitOrder",
        "numberOfBytes": "1"
      },
      "t_enum(OpenLimitOrderType)11446": {
        "encoding": "inplace",
        "label": "enum GNSOracleRewardsV6_4_1.OpenLimitOrderType",
        "numberOfBytes": "1"
      },
      "t_mapping(t_address,t_mapping(t_uint256,t_mapping(t_uint256,t_enum(OpenLimitOrderType)11446)))": {
        "encoding": "mapping",
        "key": "t_address",
        "label": "mapping(address => mapping(uint256 => mapping(uint256 => enum GNSOracleRewardsV6_4_1.OpenLimitOrderType)))",
        "numberOfBytes": "32",
        "value": "t_mapping(t_uint256,t_mapping(t_uint256,t_enum(OpenLimitOrderType)11446))"
      },
      "t_mapping(t_address,t_mapping(t_uint256,t_mapping(t_uint256,t_mapping(t_enum(LimitOrder)24186,t_uint256))))": {
        "encoding": "mapping",
        "key": "t_address",
        "label": "mapping(address => mapping(uint256 => mapping(uint256 => mapping(enum StorageInterfaceV5.LimitOrder => uint256))))",
        "numberOfBytes": "32",
        "value": "t_mapping(t_uint256,t_mapping(t_uint256,t_mapping(t_enum(LimitOrder)24186,t_uint256)))"
      },
      "t_mapping(t_address,t_uint256)": {
        "encoding": "mapping",
        "key": "t_address",
        "label": "mapping(address => uint256)",
        "numberOfBytes": "32",
        "value": "t_uint256"
      },
      "t_mapping(t_enum(LimitOrder)24186,t_uint256)": {
        "encoding": "mapping",
        "key": "t_enum(LimitOrder)24186",
        "label": "mapping(enum StorageInterfaceV5.LimitOrder => uint256)",
        "numberOfBytes": "32",
        "value": "t_uint256"
      },
      "t_mapping(t_uint256,t_enum(OpenLimitOrderType)11446)": {
        "encoding": "mapping",
        "key": "t_uint256",
        "label": "mapping(uint256 => enum GNSOracleRewardsV6_4_1.OpenLimitOrderType)",
        "numberOfBytes": "32",
        "value": "t_enum(OpenLimitOrderType)11446"
      },
      "t_mapping(t_uint256,t_mapping(t_enum(LimitOrder)24186,t_uint256))": {
        "encoding": "mapping",
        "key": "t_uint256",
        "label": "mapping(uint256 => mapping(enum StorageInterfaceV5.LimitOrder => uint256))",
        "numberOfBytes": "32",
        "value": "t_mapping(t_enum(LimitOrder)24186,t_uint256)"
      },
      "t_mapping(t_uint256,t_mapping(t_uint256,t_enum(OpenLimitOrderType)11446))": {
        "encoding": "mapping",
        "key": "t_uint256",
        "label": "mapping(uint256 => mapping(uint256 => enum GNSOracleRewardsV6_4_1.OpenLimitOrderType))",
        "numberOfBytes": "32",
        "value": "t_mapping(t_uint256,t_enum(OpenLimitOrderType)11446)"
      },
      "t_mapping(t_uint256,t_mapping(t_uint256,t_mapping(t_enum(LimitOrder)24186,t_uint256)))": {
        "encoding": "mapping",
        "key": "t_uint256",
        "label": "mapping(uint256 => mapping(uint256 => mapping(enum StorageInterfaceV5.LimitOrder => uint256)))",
        "numberOfBytes": "32",
        "value": "t_mapping(t_uint256,t_mapping(t_enum(LimitOrder)24186,t_uint256))"
      },
      "t_uint256": {
        "encoding": "inplace",
        "label": "uint256",
        "numberOfBytes": "32"
      },
      "t_uint8": {
        "encoding": "inplace",
        "label": "uint8",
        "numberOfBytes": "1"
      }
    }
  }
}