{
  "address": "0xe1e0fD73578af664Bc44238Ff4A41c8f9EE91f51",
  "abi": [
    {
      "inputs": [
        {
          "internalType": "contract StorageInterfaceV5",
          "name": "_storageT",
          "type": "address"
        }
      ],
      "stateMutability": "nonpayable",
      "type": "constructor"
    },
    {
      "anonymous": false,
      "inputs": [
        {
          "indexed": false,
          "internalType": "uint256",
          "name": "pairIndex",
          "type": "uint256"
        },
        {
          "indexed": false,
          "internalType": "int256",
          "name": "valueLong",
          "type": "int256"
        },
        {
          "indexed": false,
          "internalType": "int256",
          "name": "valueShort",
          "type": "int256"
        }
      ],
      "name": "AccFundingFeesStored",
      "type": "event"
    },
    {
      "anonymous": false,
      "inputs": [
        {
          "indexed": false,
          "internalType": "uint256",
          "name": "pairIndex",
          "type": "uint256"
        },
        {
          "indexed": false,
          "internalType": "uint256",
          "name": "value",
          "type": "uint256"
        }
      ],
      "name": "AccRolloverFeesStored",
      "type": "event"
    },
    {
      "anonymous": false,
      "inputs": [
        {
          "indexed": false,
          "internalType": "uint256",
          "name": "pairIndex",
          "type": "uint256"
        },
        {
          "indexed": false,
          "internalType": "bool",
          "name": "long",
          "type": "bool"
        },
        {
          "indexed": false,
          "internalType": "uint256",
          "name": "collateral",
          "type": "uint256"
        },
        {
          "indexed": false,
          "internalType": "uint256",
          "name": "leverage",
          "type": "uint256"
        },
        {
          "indexed": false,
          "internalType": "int256",
          "name": "percentProfit",
          "type": "int256"
        },
        {
          "indexed": false,
          "internalType": "uint256",
          "name": "rolloverFees",
          "type": "uint256"
        },
        {
          "indexed": false,
          "internalType": "int256",
          "name": "fundingFees",
          "type": "int256"
        }
      ],
      "name": "FeesCharged",
      "type": "event"
    },
    {
      "anonymous": false,
      "inputs": [
        {
          "indexed": false,
          "internalType": "uint256",
          "name": "pairIndex",
          "type": "uint256"
        },
        {
          "indexed": false,
          "internalType": "uint256",
          "name": "value",
          "type": "uint256"
        }
      ],
      "name": "FundingFeePerBlockPUpdated",
      "type": "event"
    },
    {
      "anonymous": false,
      "inputs": [
        {
          "indexed": false,
          "internalType": "address",
          "name": "value",
          "type": "address"
        }
      ],
      "name": "ManagerUpdated",
      "type": "event"
    },
    {
      "anonymous": false,
      "inputs": [
        {
          "indexed": false,
          "internalType": "uint256",
          "name": "value",
          "type": "uint256"
        }
      ],
      "name": "MaxNegativePnlOnOpenPUpdated",
      "type": "event"
    },
    {
      "anonymous": false,
      "inputs": [
        {
          "indexed": false,
          "internalType": "uint256",
          "name": "pairIndex",
          "type": "uint256"
        },
        {
          "indexed": false,
          "internalType": "uint256",
          "name": "valueAbove",
          "type": "uint256"
        },
        {
          "indexed": false,
          "internalType": "uint256",
          "name": "valueBelow",
          "type": "uint256"
        }
      ],
      "name": "OnePercentDepthUpdated",
      "type": "event"
    },
    {
      "anonymous": false,
      "inputs": [
        {
          "indexed": false,
          "internalType": "uint256",
          "name": "pairIndex",
          "type": "uint256"
        },
        {
          "components": [
            {
              "internalType": "uint256",
              "name": "onePercentDepthAbove",
              "type": "uint256"
            },
            {
              "internalType": "uint256",
              "name": "onePercentDepthBelow",
              "type": "uint256"
            },
            {
              "internalType": "uint256",
              "name": "rolloverFeePerBlockP",
              "type": "uint256"
            },
            {
              "internalType": "uint256",
              "name": "fundingFeePerBlockP",
              "type": "uint256"
            }
          ],
          "indexed": false,
          "internalType": "struct GNSPairInfosV6_1.PairParams",
          "name": "value",
          "type": "tuple"
        }
      ],
      "name": "PairParamsUpdated",
      "type": "event"
    },
    {
      "anonymous": false,
      "inputs": [
        {
          "indexed": false,
          "internalType": "uint256",
          "name": "pairIndex",
          "type": "uint256"
        },
        {
          "indexed": false,
          "internalType": "uint256",
          "name": "value",
          "type": "uint256"
        }
      ],
      "name": "RolloverFeePerBlockPUpdated",
      "type": "event"
    },
    {
      "anonymous": false,
      "inputs": [
        {
          "indexed": false,
          "internalType": "address",
          "name": "trader",
          "type": "address"
        },
        {
          "indexed": false,
          "internalType": "uint256",
          "name": "pairIndex",
          "type": "uint256"
        },
        {
          "indexed": false,
          "internalType": "uint256",
          "name": "index",
          "type": "uint256"
        },
        {
          "indexed": false,
          "internalType": "uint256",
          "name": "rollover",
          "type": "uint256"
        },
        {
          "indexed": false,
          "internalType": "int256",
          "name": "funding",
          "type": "int256"
        }
      ],
      "name": "TradeInitialAccFeesStored",
      "type": "event"
    },
    {
      "inputs": [
        {
          "internalType": "uint256",
          "name": "pairIndex",
          "type": "uint256"
        }
      ],
      "name": "getAccFundingFeesLong",
      "outputs": [
        {
          "internalType": "int256",
          "name": "",
          "type": "int256"
        }
      ],
      "stateMutability": "view",
      "type": "function"
    },
    {
      "inputs": [
        {
          "internalType": "uint256",
          "name": "pairIndex",
          "type": "uint256"
        }
      ],
      "name": "getAccFundingFeesShort",
      "outputs": [
        {
          "internalType": "int256",
          "name": "",
          "type": "int256"
        }
      ],
      "stateMutability": "view",
      "type": "function"
    },
    {
      "inputs": [
        {
          "internalType": "uint256",
          "name": "pairIndex",
          "type": "uint256"
        }
      ],
      "name": "getAccFundingFeesUpdateBlock",
      "outputs": [
        {
          "internalType": "uint256",
          "name": "",
          "type": "uint256"
        }
      ],
      "stateMutability": "view",
      "type": "function"
    },
    {
      "inputs": [
        {
          "internalType": "uint256",
          "name": "pairIndex",
          "type": "uint256"
        }
      ],
      "name": "getAccRolloverFees",
      "outputs": [
        {
          "internalType": "uint256",
          "name": "",
          "type": "uint256"
        }
      ],
      "stateMutability": "view",
      "type": "function"
    },
    {
      "inputs": [
        {
          "internalType": "uint256",
          "name": "pairIndex",
          "type": "uint256"
        }
      ],
      "name": "getAccRolloverFeesUpdateBlock",
      "outputs": [
        {
          "internalType": "uint256",
          "name": "",
          "type": "uint256"
        }
      ],
      "stateMutability": "view",
      "type": "function"
    },
    {
      "inputs": [
        {
          "internalType": "uint256",
          "name": "pairIndex",
          "type": "uint256"
        }
      ],
      "name": "getFundingFeePerBlockP",
      "outputs": [
        {
          "internalType": "uint256",
          "name": "",
          "type": "uint256"
        }
      ],
      "stateMutability": "view",
      "type": "function"
    },
    {
      "inputs": [
        {
          "internalType": "uint256",
          "name": "pairIndex",
          "type": "uint256"
        }
      ],
      "name": "getOnePercentDepthAbove",
      "outputs": [
        {
          "internalType": "uint256",
          "name": "",
          "type": "uint256"
        }
      ],
      "stateMutability": "view",
      "type": "function"
    },
    {
      "inputs": [
        {
          "internalType": "uint256",
          "name": "pairIndex",
          "type": "uint256"
        }
      ],
      "name": "getOnePercentDepthBelow",
      "outputs": [
        {
          "internalType": "uint256",
          "name": "",
          "type": "uint256"
        }
      ],
      "stateMutability": "view",
      "type": "function"
    },
    {
      "inputs": [
        {
          "internalType": "uint256[]",
          "name": "indices",
          "type": "uint256[]"
        }
      ],
      "name": "getPairInfos",
      "outputs": [
        {
          "components": [
            {
              "internalType": "uint256",
              "name": "onePercentDepthAbove",
              "type": "uint256"
            },
            {
              "internalType": "uint256",
              "name": "onePercentDepthBelow",
              "type": "uint256"
            },
            {
              "internalType": "uint256",
              "name": "rolloverFeePerBlockP",
              "type": "uint256"
            },
            {
              "internalType": "uint256",
              "name": "fundingFeePerBlockP",
              "type": "uint256"
            }
          ],
          "internalType": "struct GNSPairInfosV6_1.PairParams[]",
          "name": "",
          "type": "tuple[]"
        },
        {
          "components": [
            {
              "internalType": "uint256",
              "name": "accPerCollateral",
              "type": "uint256"
            },
            {
              "internalType": "uint256",
              "name": "lastUpdateBlock",
              "type": "uint256"
            }
          ],
          "internalType": "struct GNSPairInfosV6_1.PairRolloverFees[]",
          "name": "",
          "type": "tuple[]"
        },
        {
          "components": [
            {
              "internalType": "int256",
              "name": "accPerOiLong",
              "type": "int256"
            },
            {
              "internalType": "int256",
              "name": "accPerOiShort",
              "type": "int256"
            },
            {
              "internalType": "uint256",
              "name": "lastUpdateBlock",
              "type": "uint256"
            }
          ],
          "internalType": "struct GNSPairInfosV6_1.PairFundingFees[]",
          "name": "",
          "type": "tuple[]"
        }
      ],
      "stateMutability": "view",
      "type": "function"
    },
    {
      "inputs": [
        {
          "internalType": "uint256",
          "name": "pairIndex",
          "type": "uint256"
        }
      ],
      "name": "getPendingAccFundingFees",
      "outputs": [
        {
          "internalType": "int256",
          "name": "valueLong",
          "type": "int256"
        },
        {
          "internalType": "int256",
          "name": "valueShort",
          "type": "int256"
        }
      ],
      "stateMutability": "view",
      "type": "function"
    },
    {
      "inputs": [
        {
          "internalType": "uint256",
          "name": "pairIndex",
          "type": "uint256"
        }
      ],
      "name": "getPendingAccRolloverFees",
      "outputs": [
        {
          "internalType": "uint256",
          "name": "",
          "type": "uint256"
        }
      ],
      "stateMutability": "view",
      "type": "function"
    },
    {
      "inputs": [
        {
          "internalType": "uint256",
          "name": "pairIndex",
          "type": "uint256"
        }
      ],
      "name": "getRolloverFeePerBlockP",
      "outputs": [
        {
          "internalType": "uint256",
          "name": "",
          "type": "uint256"
        }
      ],
      "stateMutability": "view",
      "type": "function"
    },
    {
      "inputs": [
        {
          "internalType": "address",
          "name": "trader",
          "type": "address"
        },
        {
          "internalType": "uint256",
          "name": "pairIndex",
          "type": "uint256"
        },
        {
          "internalType": "uint256",
          "name": "index",
          "type": "uint256"
        },
        {
          "internalType": "bool",
          "name": "long",
          "type": "bool"
        },
        {
          "internalType": "uint256",
          "name": "collateral",
          "type": "uint256"
        },
        {
          "internalType": "uint256",
          "name": "leverage",
          "type": "uint256"
        }
      ],
      "name": "getTradeFundingFee",
      "outputs": [
        {
          "internalType": "int256",
          "name": "",
          "type": "int256"
        }
      ],
      "stateMutability": "view",
      "type": "function"
    },
    {
      "inputs": [
        {
          "internalType": "int256",
          "name": "accFundingFeesPerOi",
          "type": "int256"
        },
        {
          "internalType": "int256",
          "name": "endAccFundingFeesPerOi",
          "type": "int256"
        },
        {
          "internalType": "uint256",
          "name": "collateral",
          "type": "uint256"
        },
        {
          "internalType": "uint256",
          "name": "leverage",
          "type": "uint256"
        }
      ],
      "name": "getTradeFundingFeePure",
      "outputs": [
        {
          "internalType": "int256",
          "name": "",
          "type": "int256"
        }
      ],
      "stateMutability": "pure",
      "type": "function"
    },
    {
      "inputs": [
        {
          "internalType": "address",
          "name": "trader",
          "type": "address"
        },
        {
          "internalType": "uint256",
          "name": "pairIndex",
          "type": "uint256"
        },
        {
          "internalType": "uint256",
          "name": "index",
          "type": "uint256"
        }
      ],
      "name": "getTradeInitialAccFundingFeesPerOi",
      "outputs": [
        {
          "internalType": "int256",
          "name": "",
          "type": "int256"
        }
      ],
      "stateMutability": "view",
      "type": "function"
    },
    {
      "inputs": [
        {
          "internalType": "address",
          "name": "trader",
          "type": "address"
        },
        {
          "internalType": "uint256",
          "name": "pairIndex",
          "type": "uint256"
        },
        {
          "internalType": "uint256",
          "name": "index",
          "type": "uint256"
        }
      ],
      "name": "getTradeInitialAccRolloverFeesPerCollateral",
      "outputs": [
        {
          "internalType": "uint256",
          "name": "",
          "type": "uint256"
        }
      ],
      "stateMutability": "view",
      "type": "function"
    },
    {
      "inputs": [
        {
          "internalType": "address",
          "name": "trader",
          "type": "address"
        },
        {
          "internalType": "uint256",
          "name": "pairIndex",
          "type": "uint256"
        },
        {
          "internalType": "uint256",
          "name": "index",
          "type": "uint256"
        },
        {
          "internalType": "uint256",
          "name": "openPrice",
          "type": "uint256"
        },
        {
          "internalType": "bool",
          "name": "long",
          "type": "bool"
        },
        {
          "internalType": "uint256",
          "name": "collateral",
          "type": "uint256"
        },
        {
          "internalType": "uint256",
          "name": "leverage",
          "type": "uint256"
        }
      ],
      "name": "getTradeLiquidationPrice",
      "outputs": [
        {
          "internalType": "uint256",
          "name": "",
          "type": "uint256"
        }
      ],
      "stateMutability": "view",
      "type": "function"
    },
    {
      "inputs": [
        {
          "internalType": "uint256",
          "name": "openPrice",
          "type": "uint256"
        },
        {
          "internalType": "bool",
          "name": "long",
          "type": "bool"
        },
        {
          "internalType": "uint256",
          "name": "collateral",
          "type": "uint256"
        },
        {
          "internalType": "uint256",
          "name": "leverage",
          "type": "uint256"
        },
        {
          "internalType": "uint256",
          "name": "rolloverFee",
          "type": "uint256"
        },
        {
          "internalType": "int256",
          "name": "fundingFee",
          "type": "int256"
        }
      ],
      "name": "getTradeLiquidationPricePure",
      "outputs": [
        {
          "internalType": "uint256",
          "name": "",
          "type": "uint256"
        }
      ],
      "stateMutability": "pure",
      "type": "function"
    },
    {
      "inputs": [
        {
          "internalType": "address",
          "name": "trader",
          "type": "address"
        },
        {
          "internalType": "uint256",
          "name": "pairIndex",
          "type": "uint256"
        },
        {
          "internalType": "uint256",
          "name": "index",
          "type": "uint256"
        }
      ],
      "name": "getTradeOpenedAfterUpdate",
      "outputs": [
        {
          "internalType": "bool",
          "name": "",
          "type": "bool"
        }
      ],
      "stateMutability": "view",
      "type": "function"
    },
    {
      "inputs": [
        {
          "internalType": "uint256",
          "name": "openPrice",
          "type": "uint256"
        },
        {
          "internalType": "uint256",
          "name": "pairIndex",
          "type": "uint256"
        },
        {
          "internalType": "bool",
          "name": "long",
          "type": "bool"
        },
        {
          "internalType": "uint256",
          "name": "tradeOpenInterest",
          "type": "uint256"
        }
      ],
      "name": "getTradePriceImpact",
      "outputs": [
        {
          "internalType": "uint256",
          "name": "priceImpactP",
          "type": "uint256"
        },
        {
          "internalType": "uint256",
          "name": "priceAfterImpact",
          "type": "uint256"
        }
      ],
      "stateMutability": "view",
      "type": "function"
    },
    {
      "inputs": [
        {
          "internalType": "uint256",
          "name": "openPrice",
          "type": "uint256"
        },
        {
          "internalType": "bool",
          "name": "long",
          "type": "bool"
        },
        {
          "internalType": "uint256",
          "name": "startOpenInterest",
          "type": "uint256"
        },
        {
          "internalType": "uint256",
          "name": "tradeOpenInterest",
          "type": "uint256"
        },
        {
          "internalType": "uint256",
          "name": "onePercentDepth",
          "type": "uint256"
        }
      ],
      "name": "getTradePriceImpactPure",
      "outputs": [
        {
          "internalType": "uint256",
          "name": "priceImpactP",
          "type": "uint256"
        },
        {
          "internalType": "uint256",
          "name": "priceAfterImpact",
          "type": "uint256"
        }
      ],
      "stateMutability": "pure",
      "type": "function"
    },
    {
      "inputs": [
        {
          "internalType": "address",
          "name": "trader",
          "type": "address"
        },
        {
          "internalType": "uint256",
          "name": "pairIndex",
          "type": "uint256"
        },
        {
          "internalType": "uint256",
          "name": "index",
          "type": "uint256"
        },
        {
          "internalType": "uint256",
          "name": "collateral",
          "type": "uint256"
        }
      ],
      "name": "getTradeRolloverFee",
      "outputs": [
        {
          "internalType": "uint256",
          "name": "",
          "type": "uint256"
        }
      ],
      "stateMutability": "view",
      "type": "function"
    },
    {
      "inputs": [
        {
          "internalType": "uint256",
          "name": "accRolloverFeesPerCollateral",
          "type": "uint256"
        },
        {
          "internalType": "uint256",
          "name": "endAccRolloverFeesPerCollateral",
          "type": "uint256"
        },
        {
          "internalType": "uint256",
          "name": "collateral",
          "type": "uint256"
        }
      ],
      "name": "getTradeRolloverFeePure",
      "outputs": [
        {
          "internalType": "uint256",
          "name": "",
          "type": "uint256"
        }
      ],
      "stateMutability": "pure",
      "type": "function"
    },
    {
      "inputs": [
        {
          "internalType": "address",
          "name": "trader",
          "type": "address"
        },
        {
          "internalType": "uint256",
          "name": "pairIndex",
          "type": "uint256"
        },
        {
          "internalType": "uint256",
          "name": "index",
          "type": "uint256"
        },
        {
          "internalType": "bool",
          "name": "long",
          "type": "bool"
        },
        {
          "internalType": "uint256",
          "name": "collateral",
          "type": "uint256"
        },
        {
          "internalType": "uint256",
          "name": "leverage",
          "type": "uint256"
        },
        {
          "internalType": "int256",
          "name": "percentProfit",
          "type": "int256"
        },
        {
          "internalType": "uint256",
          "name": "closingFee",
          "type": "uint256"
        }
      ],
      "name": "getTradeValue",
      "outputs": [
        {
          "internalType": "uint256",
          "name": "amount",
          "type": "uint256"
        }
      ],
      "stateMutability": "nonpayable",
      "type": "function"
    },
    {
      "inputs": [
        {
          "internalType": "uint256",
          "name": "collateral",
          "type": "uint256"
        },
        {
          "internalType": "int256",
          "name": "percentProfit",
          "type": "int256"
        },
        {
          "internalType": "uint256",
          "name": "rolloverFee",
          "type": "uint256"
        },
        {
          "internalType": "int256",
          "name": "fundingFee",
          "type": "int256"
        },
        {
          "internalType": "uint256",
          "name": "closingFee",
          "type": "uint256"
        }
      ],
      "name": "getTradeValuePure",
      "outputs": [
        {
          "internalType": "uint256",
          "name": "",
          "type": "uint256"
        }
      ],
      "stateMutability": "pure",
      "type": "function"
    },
    {
      "inputs": [],
      "name": "manager",
      "outputs": [
        {
          "internalType": "address",
          "name": "",
          "type": "address"
        }
      ],
      "stateMutability": "view",
      "type": "function"
    },
    {
      "inputs": [],
      "name": "maxNegativePnlOnOpenP",
      "outputs": [
        {
          "internalType": "uint256",
          "name": "",
          "type": "uint256"
        }
      ],
      "stateMutability": "view",
      "type": "function"
    },
    {
      "inputs": [
        {
          "internalType": "uint256",
          "name": "",
          "type": "uint256"
        }
      ],
      "name": "pairFundingFees",
      "outputs": [
        {
          "internalType": "int256",
          "name": "accPerOiLong",
          "type": "int256"
        },
        {
          "internalType": "int256",
          "name": "accPerOiShort",
          "type": "int256"
        },
        {
          "internalType": "uint256",
          "name": "lastUpdateBlock",
          "type": "uint256"
        }
      ],
      "stateMutability": "view",
      "type": "function"
    },
    {
      "inputs": [
        {
          "internalType": "uint256",
          "name": "",
          "type": "uint256"
        }
      ],
      "name": "pairParams",
      "outputs": [
        {
          "internalType": "uint256",
          "name": "onePercentDepthAbove",
          "type": "uint256"
        },
        {
          "internalType": "uint256",
          "name": "onePercentDepthBelow",
          "type": "uint256"
        },
        {
          "internalType": "uint256",
          "name": "rolloverFeePerBlockP",
          "type": "uint256"
        },
        {
          "internalType": "uint256",
          "name": "fundingFeePerBlockP",
          "type": "uint256"
        }
      ],
      "stateMutability": "view",
      "type": "function"
    },
    {
      "inputs": [
        {
          "internalType": "uint256",
          "name": "",
          "type": "uint256"
        }
      ],
      "name": "pairRolloverFees",
      "outputs": [
        {
          "internalType": "uint256",
          "name": "accPerCollateral",
          "type": "uint256"
        },
        {
          "internalType": "uint256",
          "name": "lastUpdateBlock",
          "type": "uint256"
        }
      ],
      "stateMutability": "view",
      "type": "function"
    },
    {
      "inputs": [
        {
          "internalType": "uint256",
          "name": "pairIndex",
          "type": "uint256"
        },
        {
          "internalType": "uint256",
          "name": "value",
          "type": "uint256"
        }
      ],
      "name": "setFundingFeePerBlockP",
      "outputs": [],
      "stateMutability": "nonpayable",
      "type": "function"
    },
    {
      "inputs": [
        {
          "internalType": "uint256[]",
          "name": "indices",
          "type": "uint256[]"
        },
        {
          "internalType": "uint256[]",
          "name": "values",
          "type": "uint256[]"
        }
      ],
      "name": "setFundingFeePerBlockPArray",
      "outputs": [],
      "stateMutability": "nonpayable",
      "type": "function"
    },
    {
      "inputs": [
        {
          "internalType": "address",
          "name": "_manager",
          "type": "address"
        }
      ],
      "name": "setManager",
      "outputs": [],
      "stateMutability": "nonpayable",
      "type": "function"
    },
    {
      "inputs": [
        {
          "internalType": "uint256",
          "name": "value",
          "type": "uint256"
        }
      ],
      "name": "setMaxNegativePnlOnOpenP",
      "outputs": [],
      "stateMutability": "nonpayable",
      "type": "function"
    },
    {
      "inputs": [
        {
          "internalType": "uint256",
          "name": "pairIndex",
          "type": "uint256"
        },
        {
          "internalType": "uint256",
          "name": "valueAbove",
          "type": "uint256"
        },
        {
          "internalType": "uint256",
          "name": "valueBelow",
          "type": "uint256"
        }
      ],
      "name": "setOnePercentDepth",
      "outputs": [],
      "stateMutability": "nonpayable",
      "type": "function"
    },
    {
      "inputs": [
        {
          "internalType": "uint256[]",
          "name": "indices",
          "type": "uint256[]"
        },
        {
          "internalType": "uint256[]",
          "name": "valuesAbove",
          "type": "uint256[]"
        },
        {
          "internalType": "uint256[]",
          "name": "valuesBelow",
          "type": "uint256[]"
        }
      ],
      "name": "setOnePercentDepthArray",
      "outputs": [],
      "stateMutability": "nonpayable",
      "type": "function"
    },
    {
      "inputs": [
        {
          "internalType": "uint256",
          "name": "pairIndex",
          "type": "uint256"
        },
        {
          "components": [
            {
              "internalType": "uint256",
              "name": "onePercentDepthAbove",
              "type": "uint256"
            },
            {
              "internalType": "uint256",
              "name": "onePercentDepthBelow",
              "type": "uint256"
            },
            {
              "internalType": "uint256",
              "name": "rolloverFeePerBlockP",
              "type": "uint256"
            },
            {
              "internalType": "uint256",
              "name": "fundingFeePerBlockP",
              "type": "uint256"
            }
          ],
          "internalType": "struct GNSPairInfosV6_1.PairParams",
          "name": "value",
          "type": "tuple"
        }
      ],
      "name": "setPairParams",
      "outputs": [],
      "stateMutability": "nonpayable",
      "type": "function"
    },
    {
      "inputs": [
        {
          "internalType": "uint256[]",
          "name": "indices",
          "type": "uint256[]"
        },
        {
          "components": [
            {
              "internalType": "uint256",
              "name": "onePercentDepthAbove",
              "type": "uint256"
            },
            {
              "internalType": "uint256",
              "name": "onePercentDepthBelow",
              "type": "uint256"
            },
            {
              "internalType": "uint256",
              "name": "rolloverFeePerBlockP",
              "type": "uint256"
            },
            {
              "internalType": "uint256",
              "name": "fundingFeePerBlockP",
              "type": "uint256"
            }
          ],
          "internalType": "struct GNSPairInfosV6_1.PairParams[]",
          "name": "values",
          "type": "tuple[]"
        }
      ],
      "name": "setPairParamsArray",
      "outputs": [],
      "stateMutability": "nonpayable",
      "type": "function"
    },
    {
      "inputs": [
        {
          "internalType": "uint256",
          "name": "pairIndex",
          "type": "uint256"
        },
        {
          "internalType": "uint256",
          "name": "value",
          "type": "uint256"
        }
      ],
      "name": "setRolloverFeePerBlockP",
      "outputs": [],
      "stateMutability": "nonpayable",
      "type": "function"
    },
    {
      "inputs": [
        {
          "internalType": "uint256[]",
          "name": "indices",
          "type": "uint256[]"
        },
        {
          "internalType": "uint256[]",
          "name": "values",
          "type": "uint256[]"
        }
      ],
      "name": "setRolloverFeePerBlockPArray",
      "outputs": [],
      "stateMutability": "nonpayable",
      "type": "function"
    },
    {
      "inputs": [
        {
          "internalType": "address",
          "name": "trader",
          "type": "address"
        },
        {
          "internalType": "uint256",
          "name": "pairIndex",
          "type": "uint256"
        },
        {
          "internalType": "uint256",
          "name": "index",
          "type": "uint256"
        },
        {
          "internalType": "bool",
          "name": "long",
          "type": "bool"
        }
      ],
      "name": "storeTradeInitialAccFees",
      "outputs": [],
      "stateMutability": "nonpayable",
      "type": "function"
    },
    {
      "inputs": [
        {
          "internalType": "address",
          "name": "",
          "type": "address"
        },
        {
          "internalType": "uint256",
          "name": "",
          "type": "uint256"
        },
        {
          "internalType": "uint256",
          "name": "",
          "type": "uint256"
        }
      ],
      "name": "tradeInitialAccFees",
      "outputs": [
        {
          "internalType": "uint256",
          "name": "rollover",
          "type": "uint256"
        },
        {
          "internalType": "int256",
          "name": "funding",
          "type": "int256"
        },
        {
          "internalType": "bool",
          "name": "openedAfterUpdate",
          "type": "bool"
        }
      ],
      "stateMutability": "view",
      "type": "function"
    }
  ],
  "transactionHash": "0x77c8588353f8f0ba07d17c119ff0f82e28f42280cd8766c17d844bb1c19ddf38",
  "args": [
    "0x2036014Fe2a567217a9b7E1a82df7360287A83E6"
  ],
  "numDeployments": 1,
  "solcInputHash": "f7a9b91dc44ee5e79c1a5d5aff87db1f",
  "bytecode": "0x60a0604052620000166402540be400602862000091565b6001553480156200002657600080fd5b50604051620028f8380380620028f883398101604081905262000049916200005f565b60601b6001600160601b031916608052620000bf565b6000602082840312156200007257600080fd5b81516001600160a01b03811681146200008a57600080fd5b9392505050565b6000816000190483118215151615620000ba57634e487b7160e01b600052601160045260246000fd5b500290565b60805160601c6127f762000101600039600081816107d70152818161106e015281816113090152818161179a01528181611a1b0152611ac801526127f76000f3fe608060405234801561001057600080fd5b506004361061025e5760003560e01c80636f6af69711610146578063bf1db1f6116100c3578063ee52e5fe11610087578063ee52e5fe146106de578063f0270f33146106fe578063f696065414610721578063f6c50efe14610734578063fcc37c8714610747578063fe3cfd8c1461075a57600080fd5b8063bf1db1f61461065e578063c22ff7bf14610685578063c2cc670d14610698578063cfc23e9e146106ab578063d0ebdbe7146106cb57600080fd5b80639cf9c9391161010a5780639cf9c939146105c8578063a49e878814610612578063a77e8e2a14610625578063ab21a05c14610638578063b74243ba1461064b57600080fd5b80636f6af697146105735780637884274f146105865780637ea95f321461059957806380f6cfc2146105ac5780639c625e1e146105b557600080fd5b8063338139ad116101df578063481c6a75116101a3578063481c6a751461049c57806358f796bc146104c75780635ed5804e146104da5780636bc84d591461053a5780636bcbe8601461054d5780636ceaca671461056057600080fd5b8063338139ad146103b7578063351533e7146103db5780633df7fd72146103ee57806342dee1ad1461040157806346dbab361461045857600080fd5b806312fdefd91161022657806312fdefd91461031357806321adc48f1461033b5780632b180a7d1461035e5780632d15e4e01461038157806331556d2f146103a457600080fd5b80630dd34f57146102635780630e0052fc1461028b5780630e6bc39a146102bc5780630ea77770146102d157806312b6566e146102f3575b600080fd5b610276610271366004611e05565b61079b565b60405190151581526020015b60405180910390f35b6102ae610299366004612206565b60009081526004602052604090206001015490565b604051908152602001610282565b6102cf6102ca366004611e3a565b6107d5565b005b6102e46102df366004611fe8565b6109a0565b60405161028293929190612410565b6102ae610301366004612206565b60009081526004602052604090205490565b610326610321366004612238565b610c4f565b60408051928352602083019190915201610282565b6102ae610349366004612206565b60009081526003602052604090206001015490565b6102ae61036c366004612206565b60009081526002602052604090206001015490565b6102ae61038f366004612206565b60009081526003602052604090206002015490565b6102cf6103b236600461201d565b610cfd565b6102ae6103c5366004612206565b6000908152600260208190526040909120015490565b6102cf6103e936600461214c565b610da7565b6102cf6103fc366004612307565b610e79565b61043861040f366004612206565b600260208190526000918252604090912080546001820154928201546003909201549092919084565b604080519485526020850193909352918301526060820152608001610282565b6102ae610466366004611e05565b6001600160a01b038316600090815260056020908152604080832085845282528083208484529091529020600101549392505050565b6000546104af906001600160a01b031681565b6040516001600160a01b039091168152602001610282565b6102ae6104d5366004611f48565b610f26565b61051d6104e8366004611e05565b600560209081526000938452604080852082529284528284209052825290208054600182015460029092015490919060ff1683565b604080519384526020840192909252151590820152606001610282565b6102ae610548366004611f83565b610fa7565b6102ae61055b36600461227e565b610fd6565b6102ae61056e366004611edc565b61106a565b6102cf6105813660046120e8565b6111f4565b6102cf610594366004612206565b611299565b6103266105a7366004612356565b6112ff565b6102ae60015481565b6102ae6105c3366004612393565b6113fb565b6105f76105d6366004612206565b60036020526000908152604090208054600182015460029092015490919083565b60408051938452602084019290925290820152606001610282565b6102cf6106203660046120e8565b611425565b6102ae6106333660046121d4565b6114ca565b6102ae610646366004612206565b611508565b6102cf610659366004612334565b61157b565b61032661066c366004612206565b6004602052600090815260409020805460019091015482565b6102ae6106933660046122cc565b611638565b6102cf6106a6366004612334565b6116dc565b6102ae6106b9366004612206565b60009081526002602052604090205490565b6102cf6106d9366004611dcb565b611798565b6102ae6106ec366004612206565b60009081526003602052604090205490565b6102ae61070c366004612206565b60009081526002602052604090206003015490565b6102cf61072f366004612393565b6118c2565b6102ae610742366004611e82565b61194c565b610326610755366004612206565b6119e6565b6102ae610768366004611e05565b6001600160a01b038316600090815260056020908152604080832085845282528083208484529091529020549392505050565b6001600160a01b0383166000908152600560209081526040808320858452825280832084845290915290206002015460ff165b9392505050565b7f00000000000000000000000000000000000000000000000000000000000000006001600160a01b031662b127836040518163ffffffff1660e01b815260040160206040518083038186803b15801561082d57600080fd5b505afa158015610841573d6000803e3d6000fd5b505050506040513d601f19601f820116820180604052508101906108659190611de8565b6001600160a01b0316336001600160a01b0316146108bb5760405162461bcd60e51b815260206004820152600e60248201526d43414c4c4241434b535f4f4e4c5960901b60448201526064015b60405180910390fd5b6108c483611c24565b6001600160a01b0384166000908152600560209081526040808320868452825280832085845290915290206108f884611508565b81558161091657600084815260036020526040902060010154610926565b6000848152600360205260409020545b600182810182905560028301805460ff191690911790558154604080516001600160a01b038916815260208101889052908101869052606081019190915260808101919091527f4e58eed9e01cebfd4256725d6d1ce9fa694faa7ac5312e75af02360f453d048e9060a00160405180910390a15050505050565b60608060606000845167ffffffffffffffff8111156109c1576109c1612793565b604051908082528060200260200182016040528015610a1d57816020015b610a0a6040518060800160405280600081526020016000815260200160008152602001600081525090565b8152602001906001900390816109df5790505b5090506000855167ffffffffffffffff811115610a3c57610a3c612793565b604051908082528060200260200182016040528015610a8157816020015b6040805180820190915260008082526020820152815260200190600190039081610a5a5790505b5090506000865167ffffffffffffffff811115610aa057610aa0612793565b604051908082528060200260200182016040528015610af557816020015b610ae260405180606001604052806000815260200160008152602001600081525090565b815260200190600190039081610abe5790505b50905060005b8751811015610c41576000888281518110610b1857610b1861277d565b6020026020010151905060026000828152602001908152602001600020604051806080016040529081600082015481526020016001820154815260200160028201548152602001600382015481525050858381518110610b7a57610b7a61277d565b60200260200101819052506004600082815260200190815260200160002060405180604001604052908160008201548152602001600182015481525050848381518110610bc957610bc961277d565b6020026020010181905250600360008281526020019081526020016000206040518060600160405290816000820154815260200160018201548152602001600282015481525050838381518110610c2257610c2261277d565b6020026020010181905250508080610c3990612736565b915050610afb565b509196909550909350915050565b60008082610c6257506000905085610cf3565b82670de0b6b3a76400006402540be400610c7d600288612628565b610c8790896125e2565b610c9191906126c1565b610c9b9190612628565b610ca59190612628565b9150600060646402540be400610cbb8a866126c1565b610cc59190612628565b610ccf9190612628565b905086610ce557610ce0818961271f565b610cef565b610cef81896125e2565b9150505b9550959350505050565b6000546001600160a01b03163314610d275760405162461bcd60e51b81526004016108b2906124f1565b8051825114610d485760405162461bcd60e51b81526004016108b2906124cb565b60005b8251811015610da257610d90838281518110610d6957610d6961277d565b6020026020010151838381518110610d8357610d8361277d565b6020026020010151610e79565b80610d9a81612736565b915050610d4b565b505050565b6000546001600160a01b03163314610dd15760405162461bcd60e51b81526004016108b2906124f1565b81518351148015610de3575080518351145b610dff5760405162461bcd60e51b81526004016108b2906124cb565b60005b8351811015610e7357610e61848281518110610e2057610e2061277d565b6020026020010151848381518110610e3a57610e3a61277d565b6020026020010151848481518110610e5457610e5461277d565b60200260200101516118c2565b80610e6b81612736565b915050610e02565b50505050565b6000546001600160a01b03163314610ea35760405162461bcd60e51b81526004016108b2906124f1565b610eac82611c87565b610eb582611c24565b6000828152600260208181526040928390208451815590840151600182015582840151918101919091556060830151600390910155517f901e66575b0aecca6e394d488bfe990ff28995f6da67ef2fe1d6c900b6573a0390610f1a9084908490612517565b60405180910390a15050565b6001600160a01b0384166000908152600560209081526040808320868452825280832085845282528083208151606081018352815481526001820154938101939093526002015460ff161515908201819052610f86576000915050610f9f565b8051610f9b90610f9587611508565b856113fb565b9150505b949350505050565b6000610fca85858585610fbc8d8d8d8b610f26565b61055b8e8e8e8d8d8d61194c565b98975050505050505050565b600080848684866064610fea605a856126c1565b610ff49190612628565b610ffe91906126e0565b61100891906126e0565b611012908b61263c565b61101c91906125fa565b61102691906125fa565b905060008761103e57611039828a6125a1565b611048565b611048828a6126e0565b90506000811361105957600061105b565b805b925050505b9695505050505050565b60007f00000000000000000000000000000000000000000000000000000000000000006001600160a01b031662b127836040518163ffffffff1660e01b815260040160206040518083038186803b1580156110c457600080fd5b505afa1580156110d8573d6000803e3d6000fd5b505050506040513d601f19601f820116820180604052508101906110fc9190611de8565b6001600160a01b0316336001600160a01b03161461114d5760405162461bcd60e51b815260206004820152600e60248201526d43414c4c4241434b535f4f4e4c5960901b60448201526064016108b2565b61115688611c24565b60006111648a8a8a89610f26565b905060006111768b8b8b8b8b8b61194c565b90506111858786848488611638565b604080518c81528a15156020820152908101899052606081018890526080810187905260a0810184905260c081018390529093507f3a484d35e7358ad950e494938ebbac2c1319c2b76d162112f51d66752244dde39060e00160405180910390a1505098975050505050505050565b6000546001600160a01b0316331461121e5760405162461bcd60e51b81526004016108b2906124f1565b805182511461123f5760405162461bcd60e51b81526004016108b2906124cb565b60005b8251811015610da2576112878382815181106112605761126061277d565b602002602001015183838151811061127a5761127a61277d565b602002602001015161157b565b8061129181612736565b915050611242565b6000546001600160a01b031633146112c35760405162461bcd60e51b81526004016108b2906124f1565b60018190556040518181527f5ba729b89796f40d260b117b8654dc301b1d9f7ec17a1e378ae31e4c70b6d2c0906020015b60405180910390a150565b6000806113ee86857f00000000000000000000000000000000000000000000000000000000000000006001600160a01b03166328daca218989611343576001611346565b60005b6040516001600160e01b031960e085901b168152600481019290925260ff16602482015260440160206040518083038186803b15801561138557600080fd5b505afa158015611399573d6000803e3d6000fd5b505050506040513d601f19601f820116820180604052508101906113bd919061221f565b86886113da5760008a815260026020526040902060010154610c4f565b60008a815260026020526040902054610c4f565b9097909650945050505050565b6000670de0b6b3a764000082611411868661271f565b61141b91906126c1565b610f9f9190612628565b6000546001600160a01b0316331461144f5760405162461bcd60e51b81526004016108b2906124f1565b80518251146114705760405162461bcd60e51b81526004016108b2906124cb565b60005b8251811015610da2576114b88382815181106114915761149161277d565b60200260200101518383815181106114ab576114ab61277d565b60200260200101516116dc565b806114c281612736565b915050611473565b6000670de0b6b3a764000082846114e188886126e0565b6114eb919061263c565b6114f5919061263c565b6114ff91906125fa565b95945050505050565b60008181526004602090815260408083206002928390529083209091015460018201546064916402540be4009161153f904361271f565b61154991906126c1565b61155b90670de0b6b3a76400006126c1565b6115659190612628565b61156f9190612628565b81546107ce91906125e2565b6000546001600160a01b031633146115a55760405162461bcd60e51b81526004016108b2906124f1565b63017d78408111156115e45760405162461bcd60e51b81526020600482015260086024820152670a89e9ebe90928e960c31b60448201526064016108b2565b6115ed82611c87565b60008281526002602081815260409283902090910183905581518481529081018390527f048ce436ab4f2632f2aac62af26be3383ebdf5efc9a63f0bbeb6d6c9762d70899101610f1a565b600080838560646402540be40061164f8a8c61263c565b61165991906125fa565b61166391906125fa565b61166d908a6125a1565b61167791906126e0565b61168191906126e0565b90506064611690605a8261271f565b61169a908961263c565b6116a491906125fa565b81136116b45760009150506114ff565b6116be83826126e0565b9050600081136116cf5760006116d1565b805b979650505050505050565b6000546001600160a01b031633146117065760405162461bcd60e51b81526004016108b2906124f1565b629896808111156117445760405162461bcd60e51b81526020600482015260086024820152670a89e9ebe90928e960c31b60448201526064016108b2565b61174d82611c24565b60008281526002602090815260409182902060030183905581518481529081018390527fbe762e88e6ff669d272010f163dfb3c6d389b16831c73e10f95860b2e4f152989101610f1a565b7f00000000000000000000000000000000000000000000000000000000000000006001600160a01b03166312d43a516040518163ffffffff1660e01b815260040160206040518083038186803b1580156117f157600080fd5b505afa158015611805573d6000803e3d6000fd5b505050506040513d601f19601f820116820180604052508101906118299190611de8565b6001600160a01b0316336001600160a01b0316146118745760405162461bcd60e51b8152602060048201526008602482015267474f565f4f4e4c5960c01b60448201526064016108b2565b600080546001600160a01b0319166001600160a01b0383169081179091556040519081527f2c1c11af44aa5608f1dca38c00275c30ea091e02417d36e70e9a1538689c433d906020016112f4565b6000546001600160a01b031633146118ec5760405162461bcd60e51b81526004016108b2906124f1565b6000838152600260209081526040918290208481556001810184905582518681529182018590529181018390527f1daeaff85d4d7cfda495ef83720a04b81df77e38711ca570061e16efa6ffa2759060600160405180910390a150505050565b6001600160a01b0386166000908152600560209081526040808320888452825280832087845282528083208151606081018352815481526001820154938101939093526002015460ff1615159082018190526119ac576000915050611060565b6000806119b8896119e6565b915091506119d88360200151886119cf57826119d1565b835b88886114ca565b9a9950505050505050505050565b6000818152600360205260408082208054600182015492516328daca2160e01b815260048101869052602481018590529093907f00000000000000000000000000000000000000000000000000000000000000006001600160a01b0316906328daca219060440160206040518083038186803b158015611a6557600080fd5b505afa158015611a79573d6000803e3d6000fd5b505050506040513d601f19601f82011682018060405250810190611a9d919061221f565b6040516328daca2160e01b815260048101879052600160248201529091506000906001600160a01b037f000000000000000000000000000000000000000000000000000000000000000016906328daca219060440160206040518083038186803b158015611b0a57600080fd5b505afa158015611b1e573d6000803e3d6000fd5b505050506040513d601f19601f82011682018060405250810190611b42919061221f565b9050600060646402540be400600260008a815260200190815260200160002060030154866002015443611b75919061271f565b611b7f86886126e0565b611b89919061263c565b611b93919061263c565b611b9d91906125fa565b611ba791906125fa565b90506000831315611bdc5782611bc582670de0b6b3a764000061263c565b611bcf91906125fa565b611bd990876125a1565b95505b6000821315611c1b5781611bf882670de0b6b3a764000061263c565b611c049060001961263c565b611c0e91906125fa565b611c1890866125a1565b94505b50505050915091565b6000818152600360205260409020611c3b826119e6565b600183018190558183554360028401556040805185815260208101939093528201527fc08ace100a8e3b7186ad5fcb68a0b9e7e0bd60aa466cdba34932fa0513353c6490606001610f1a565b6000818152600460205260409020611c9e82611508565b8082554360018301556040805184815260208101929092527f66ae41afb9d1762b0b5f1a431a9e5c767128a1bec9ecb20e1ef9dba7dc3663d69101610f1a565b600082601f830112611cef57600080fd5b81356020611d04611cff8361257d565b61254c565b80838252828201915082860187848660051b8901011115611d2457600080fd5b60005b85811015611d4357813584529284019290840190600101611d27565b5090979650505050505050565b80358015158114611d6057600080fd5b919050565b600060808284031215611d7757600080fd5b6040516080810181811067ffffffffffffffff82111715611d9a57611d9a612793565b8060405250809150823581526020830135602082015260408301356040820152606083013560608201525092915050565b600060208284031215611ddd57600080fd5b81356107ce816127a9565b600060208284031215611dfa57600080fd5b81516107ce816127a9565b600080600060608486031215611e1a57600080fd5b8335611e25816127a9565b95602085013595506040909401359392505050565b60008060008060808587031215611e5057600080fd5b8435611e5b816127a9565b93506020850135925060408501359150611e7760608601611d50565b905092959194509250565b60008060008060008060c08789031215611e9b57600080fd5b8635611ea6816127a9565b95506020870135945060408701359350611ec260608801611d50565b92506080870135915060a087013590509295509295509295565b600080600080600080600080610100898b031215611ef957600080fd5b8835611f04816127a9565b97506020890135965060408901359550611f2060608a01611d50565b979a969950949760808101359660a0820135965060c0820135955060e0909101359350915050565b60008060008060808587031215611f5e57600080fd5b8435611f69816127a9565b966020860135965060408601359560600135945092505050565b600080600080600080600060e0888a031215611f9e57600080fd5b8735611fa9816127a9565b9650602088013595506040880135945060608801359350611fcc60808901611d50565b925060a0880135915060c0880135905092959891949750929550565b600060208284031215611ffa57600080fd5b813567ffffffffffffffff81111561201157600080fd5b610f9f84828501611cde565b6000806040838503121561203057600080fd5b823567ffffffffffffffff8082111561204857600080fd5b61205486838701611cde565b935060209150818501358181111561206b57600080fd5b85019050601f8101861361207e57600080fd5b803561208c611cff8261257d565b80828252848201915084840189868560071b87010111156120ac57600080fd5b600094505b838510156120d8576120c38a82611d65565b835260019490940193918501916080016120b1565b5080955050505050509250929050565b600080604083850312156120fb57600080fd5b823567ffffffffffffffff8082111561211357600080fd5b61211f86838701611cde565b9350602085013591508082111561213557600080fd5b5061214285828601611cde565b9150509250929050565b60008060006060848603121561216157600080fd5b833567ffffffffffffffff8082111561217957600080fd5b61218587838801611cde565b9450602086013591508082111561219b57600080fd5b6121a787838801611cde565b935060408601359150808211156121bd57600080fd5b506121ca86828701611cde565b9150509250925092565b600080600080608085870312156121ea57600080fd5b5050823594602084013594506040840135936060013592509050565b60006020828403121561221857600080fd5b5035919050565b60006020828403121561223157600080fd5b5051919050565b600080600080600060a0868803121561225057600080fd5b8535945061226060208701611d50565b94979496505050506040830135926060810135926080909101359150565b60008060008060008060c0878903121561229757600080fd5b863595506122a760208801611d50565b95989597505050506040840135936060810135936080820135935060a0909101359150565b600080600080600060a086880312156122e457600080fd5b505083359560208501359550604085013594606081013594506080013592509050565b60008060a0838503121561231a57600080fd5b8235915061232b8460208501611d65565b90509250929050565b6000806040838503121561234757600080fd5b50508035926020909101359150565b6000806000806080858703121561236c57600080fd5b843593506020850135925061238360408601611d50565b9396929550929360600135925050565b6000806000606084860312156123a857600080fd5b505081359360208301359350604090920135919050565b600081518084526020808501945080840160005b8381101561240557815180518852838101518489015260409081015190880152606090960195908201906001016123d3565b509495945050505050565b60608082528451908201819052600090608090818401906020808901855b8381101561247257612462858351805182526020810151602083015260408101516040830152606081015160608301525050565b938501939082019060010161242e565b5050858303818701528751808452928101935087810192915060005b828110156124b557835180518652820151828601526040909401939281019260010161248e565b505050508281036040840152610f9b81856123bf565b6020808252600c908201526b0aea49e9c8ebe988a9c8ea8960a31b604082015260600190565b6020808252600c908201526b4d414e414745525f4f4e4c5960a01b604082015260600190565b82815260a081016107ce6020830184805182526020810151602083015260408101516040830152606081015160608301525050565b604051601f8201601f1916810167ffffffffffffffff8111828210171561257557612575612793565b604052919050565b600067ffffffffffffffff82111561259757612597612793565b5060051b60200190565b600080821280156001600160ff1b03849003851316156125c3576125c3612751565b600160ff1b83900384128116156125dc576125dc612751565b50500190565b600082198211156125f5576125f5612751565b500190565b60008261260957612609612767565b600160ff1b82146000198414161561262357612623612751565b500590565b60008261263757612637612767565b500490565b60006001600160ff1b038184138284138082168684048611161561266257612662612751565b600160ff1b600087128281168783058912161561268157612681612751565b6000871292508782058712848416161561269d5761269d612751565b878505871281841616156126b3576126b3612751565b505050929093029392505050565b60008160001904831182151516156126db576126db612751565b500290565b60008083128015600160ff1b8501841216156126fe576126fe612751565b6001600160ff1b038401831381161561271957612719612751565b50500390565b60008282101561273157612731612751565b500390565b600060001982141561274a5761274a612751565b5060010190565b634e487b7160e01b600052601160045260246000fd5b634e487b7160e01b600052601260045260246000fd5b634e487b7160e01b600052603260045260246000fd5b634e487b7160e01b600052604160045260246000fd5b6001600160a01b03811681146127be57600080fd5b5056fea2646970667358221220c9a93c038824761f08cc7ab7c4945d8adfbdb5b8b57de68d4f6b0f88b83eb31464736f6c63430008070033",
  "libraries": {},
  "devdoc": {
    "kind": "dev",
    "methods": {},
    "version": 1
  },
  "userdoc": {
    "kind": "user",
    "methods": {},
    "version": 1
  },
  "storageLayout": {
    "storage": [
      {
        "astId": 11993,
        "contract": "contracts/contracts/GNSPairInfosV6_1.sol:GNSPairInfosV6_1",
        "label": "manager",
        "offset": 0,
        "slot": "0",
        "type": "t_address"
      },
      {
        "astId": 12004,
        "contract": "contracts/contracts/GNSPairInfosV6_1.sol:GNSPairInfosV6_1",
        "label": "maxNegativePnlOnOpenP",
        "offset": 0,
        "slot": "1",
        "type": "t_uint256"
      },
      {
        "astId": 12018,
        "contract": "contracts/contracts/GNSPairInfosV6_1.sol:GNSPairInfosV6_1",
        "label": "pairParams",
        "offset": 0,
        "slot": "2",
        "type": "t_mapping(t_uint256,t_struct(PairParams)12013_storage)"
      },
      {
        "astId": 12030,
        "contract": "contracts/contracts/GNSPairInfosV6_1.sol:GNSPairInfosV6_1",
        "label": "pairFundingFees",
        "offset": 0,
        "slot": "3",
        "type": "t_mapping(t_uint256,t_struct(PairFundingFees)12025_storage)"
      },
      {
        "astId": 12040,
        "contract": "contracts/contracts/GNSPairInfosV6_1.sol:GNSPairInfosV6_1",
        "label": "pairRolloverFees",
        "offset": 0,
        "slot": "4",
        "type": "t_mapping(t_uint256,t_struct(PairRolloverFees)12035_storage)"
      },
      {
        "astId": 12056,
        "contract": "contracts/contracts/GNSPairInfosV6_1.sol:GNSPairInfosV6_1",
        "label": "tradeInitialAccFees",
        "offset": 0,
        "slot": "5",
        "type": "t_mapping(t_address,t_mapping(t_uint256,t_mapping(t_uint256,t_struct(TradeInitialAccFees)12047_storage)))"
      }
    ],
    "types": {
      "t_address": {
        "encoding": "inplace",
        "label": "address",
        "numberOfBytes": "20"
      },
      "t_bool": {
        "encoding": "inplace",
        "label": "bool",
        "numberOfBytes": "1"
      },
      "t_int256": {
        "encoding": "inplace",
        "label": "int256",
        "numberOfBytes": "32"
      },
      "t_mapping(t_address,t_mapping(t_uint256,t_mapping(t_uint256,t_struct(TradeInitialAccFees)12047_storage)))": {
        "encoding": "mapping",
        "key": "t_address",
        "label": "mapping(address => mapping(uint256 => mapping(uint256 => struct GNSPairInfosV6_1.TradeInitialAccFees)))",
        "numberOfBytes": "32",
        "value": "t_mapping(t_uint256,t_mapping(t_uint256,t_struct(TradeInitialAccFees)12047_storage))"
      },
      "t_mapping(t_uint256,t_mapping(t_uint256,t_struct(TradeInitialAccFees)12047_storage))": {
        "encoding": "mapping",
        "key": "t_uint256",
        "label": "mapping(uint256 => mapping(uint256 => struct GNSPairInfosV6_1.TradeInitialAccFees))",
        "numberOfBytes": "32",
        "value": "t_mapping(t_uint256,t_struct(TradeInitialAccFees)12047_storage)"
      },
      "t_mapping(t_uint256,t_struct(PairFundingFees)12025_storage)": {
        "encoding": "mapping",
        "key": "t_uint256",
        "label": "mapping(uint256 => struct GNSPairInfosV6_1.PairFundingFees)",
        "numberOfBytes": "32",
        "value": "t_struct(PairFundingFees)12025_storage"
      },
      "t_mapping(t_uint256,t_struct(PairParams)12013_storage)": {
        "encoding": "mapping",
        "key": "t_uint256",
        "label": "mapping(uint256 => struct GNSPairInfosV6_1.PairParams)",
        "numberOfBytes": "32",
        "value": "t_struct(PairParams)12013_storage"
      },
      "t_mapping(t_uint256,t_struct(PairRolloverFees)12035_storage)": {
        "encoding": "mapping",
        "key": "t_uint256",
        "label": "mapping(uint256 => struct GNSPairInfosV6_1.PairRolloverFees)",
        "numberOfBytes": "32",
        "value": "t_struct(PairRolloverFees)12035_storage"
      },
      "t_mapping(t_uint256,t_struct(TradeInitialAccFees)12047_storage)": {
        "encoding": "mapping",
        "key": "t_uint256",
        "label": "mapping(uint256 => struct GNSPairInfosV6_1.TradeInitialAccFees)",
        "numberOfBytes": "32",
        "value": "t_struct(TradeInitialAccFees)12047_storage"
      },
      "t_struct(PairFundingFees)12025_storage": {
        "encoding": "inplace",
        "label": "struct GNSPairInfosV6_1.PairFundingFees",
        "members": [
          {
            "astId": 12020,
            "contract": "contracts/contracts/GNSPairInfosV6_1.sol:GNSPairInfosV6_1",
            "label": "accPerOiLong",
            "offset": 0,
            "slot": "0",
            "type": "t_int256"
          },
          {
            "astId": 12022,
            "contract": "contracts/contracts/GNSPairInfosV6_1.sol:GNSPairInfosV6_1",
            "label": "accPerOiShort",
            "offset": 0,
            "slot": "1",
            "type": "t_int256"
          },
          {
            "astId": 12024,
            "contract": "contracts/contracts/GNSPairInfosV6_1.sol:GNSPairInfosV6_1",
            "label": "lastUpdateBlock",
            "offset": 0,
            "slot": "2",
            "type": "t_uint256"
          }
        ],
        "numberOfBytes": "96"
      },
      "t_struct(PairParams)12013_storage": {
        "encoding": "inplace",
        "label": "struct GNSPairInfosV6_1.PairParams",
        "members": [
          {
            "astId": 12006,
            "contract": "contracts/contracts/GNSPairInfosV6_1.sol:GNSPairInfosV6_1",
            "label": "onePercentDepthAbove",
            "offset": 0,
            "slot": "0",
            "type": "t_uint256"
          },
          {
            "astId": 12008,
            "contract": "contracts/contracts/GNSPairInfosV6_1.sol:GNSPairInfosV6_1",
            "label": "onePercentDepthBelow",
            "offset": 0,
            "slot": "1",
            "type": "t_uint256"
          },
          {
            "astId": 12010,
            "contract": "contracts/contracts/GNSPairInfosV6_1.sol:GNSPairInfosV6_1",
            "label": "rolloverFeePerBlockP",
            "offset": 0,
            "slot": "2",
            "type": "t_uint256"
          },
          {
            "astId": 12012,
            "contract": "contracts/contracts/GNSPairInfosV6_1.sol:GNSPairInfosV6_1",
            "label": "fundingFeePerBlockP",
            "offset": 0,
            "slot": "3",
            "type": "t_uint256"
          }
        ],
        "numberOfBytes": "128"
      },
      "t_struct(PairRolloverFees)12035_storage": {
        "encoding": "inplace",
        "label": "struct GNSPairInfosV6_1.PairRolloverFees",
        "members": [
          {
            "astId": 12032,
            "contract": "contracts/contracts/GNSPairInfosV6_1.sol:GNSPairInfosV6_1",
            "label": "accPerCollateral",
            "offset": 0,
            "slot": "0",
            "type": "t_uint256"
          },
          {
            "astId": 12034,
            "contract": "contracts/contracts/GNSPairInfosV6_1.sol:GNSPairInfosV6_1",
            "label": "lastUpdateBlock",
            "offset": 0,
            "slot": "1",
            "type": "t_uint256"
          }
        ],
        "numberOfBytes": "64"
      },
      "t_struct(TradeInitialAccFees)12047_storage": {
        "encoding": "inplace",
        "label": "struct GNSPairInfosV6_1.TradeInitialAccFees",
        "members": [
          {
            "astId": 12042,
            "contract": "contracts/contracts/GNSPairInfosV6_1.sol:GNSPairInfosV6_1",
            "label": "rollover",
            "offset": 0,
            "slot": "0",
            "type": "t_uint256"
          },
          {
            "astId": 12044,
            "contract": "contracts/contracts/GNSPairInfosV6_1.sol:GNSPairInfosV6_1",
            "label": "funding",
            "offset": 0,
            "slot": "1",
            "type": "t_int256"
          },
          {
            "astId": 12046,
            "contract": "contracts/contracts/GNSPairInfosV6_1.sol:GNSPairInfosV6_1",
            "label": "openedAfterUpdate",
            "offset": 0,
            "slot": "2",
            "type": "t_bool"
          }
        ],
        "numberOfBytes": "96"
      },
      "t_uint256": {
        "encoding": "inplace",
        "label": "uint256",
        "numberOfBytes": "32"
      }
    }
  }
}