{
  "address": "0x5e1503B140d17b15135b1f257863c1A03547e008",
  "abi": [
    {
      "inputs": [
        {
          "internalType": "uint256",
          "name": "_currentOrderId",
          "type": "uint256"
        },
        {
          "internalType": "contract StorageInterfaceV5",
          "name": "_storageT",
          "type": "address"
        }
      ],
      "stateMutability": "nonpayable",
      "type": "constructor"
    },
    {
      "anonymous": false,
      "inputs": [
        {
          "indexed": false,
          "internalType": "uint256",
          "name": "index",
          "type": "uint256"
        },
        {
          "indexed": false,
          "internalType": "string",
          "name": "name",
          "type": "string"
        }
      ],
      "name": "FeeAdded",
      "type": "event"
    },
    {
      "anonymous": false,
      "inputs": [
        {
          "indexed": false,
          "internalType": "uint256",
          "name": "index",
          "type": "uint256"
        }
      ],
      "name": "FeeUpdated",
      "type": "event"
    },
    {
      "anonymous": false,
      "inputs": [
        {
          "indexed": false,
          "internalType": "uint256",
          "name": "index",
          "type": "uint256"
        },
        {
          "indexed": false,
          "internalType": "string",
          "name": "name",
          "type": "string"
        }
      ],
      "name": "GroupAdded",
      "type": "event"
    },
    {
      "anonymous": false,
      "inputs": [
        {
          "indexed": false,
          "internalType": "uint256",
          "name": "index",
          "type": "uint256"
        }
      ],
      "name": "GroupUpdated",
      "type": "event"
    },
    {
      "anonymous": false,
      "inputs": [
        {
          "indexed": false,
          "internalType": "uint256",
          "name": "index",
          "type": "uint256"
        },
        {
          "indexed": false,
          "internalType": "string",
          "name": "from",
          "type": "string"
        },
        {
          "indexed": false,
          "internalType": "string",
          "name": "to",
          "type": "string"
        }
      ],
      "name": "PairAdded",
      "type": "event"
    },
    {
      "anonymous": false,
      "inputs": [
        {
          "indexed": false,
          "internalType": "uint256",
          "name": "index",
          "type": "uint256"
        }
      ],
      "name": "PairUpdated",
      "type": "event"
    },
    {
      "inputs": [
        {
          "components": [
            {
              "internalType": "string",
              "name": "name",
              "type": "string"
            },
            {
              "internalType": "uint256",
              "name": "openFeeP",
              "type": "uint256"
            },
            {
              "internalType": "uint256",
              "name": "closeFeeP",
              "type": "uint256"
            },
            {
              "internalType": "uint256",
              "name": "oracleFeeP",
              "type": "uint256"
            },
            {
              "internalType": "uint256",
              "name": "nftLimitOrderFeeP",
              "type": "uint256"
            },
            {
              "internalType": "uint256",
              "name": "referralFeeP",
              "type": "uint256"
            },
            {
              "internalType": "uint256",
              "name": "minLevPosDai",
              "type": "uint256"
            }
          ],
          "internalType": "struct GNSPairsStorageV6.Fee",
          "name": "_fee",
          "type": "tuple"
        }
      ],
      "name": "addFee",
      "outputs": [],
      "stateMutability": "nonpayable",
      "type": "function"
    },
    {
      "inputs": [
        {
          "components": [
            {
              "internalType": "string",
              "name": "name",
              "type": "string"
            },
            {
              "internalType": "bytes32",
              "name": "job",
              "type": "bytes32"
            },
            {
              "internalType": "uint256",
              "name": "minLeverage",
              "type": "uint256"
            },
            {
              "internalType": "uint256",
              "name": "maxLeverage",
              "type": "uint256"
            },
            {
              "internalType": "uint256",
              "name": "maxCollateralP",
              "type": "uint256"
            }
          ],
          "internalType": "struct GNSPairsStorageV6.Group",
          "name": "_group",
          "type": "tuple"
        }
      ],
      "name": "addGroup",
      "outputs": [],
      "stateMutability": "nonpayable",
      "type": "function"
    },
    {
      "inputs": [
        {
          "components": [
            {
              "internalType": "string",
              "name": "from",
              "type": "string"
            },
            {
              "internalType": "string",
              "name": "to",
              "type": "string"
            },
            {
              "components": [
                {
                  "internalType": "address",
                  "name": "feed1",
                  "type": "address"
                },
                {
                  "internalType": "address",
                  "name": "feed2",
                  "type": "address"
                },
                {
                  "internalType": "enum GNSPairsStorageV6.FeedCalculation",
                  "name": "feedCalculation",
                  "type": "uint8"
                },
                {
                  "internalType": "uint256",
                  "name": "maxDeviationP",
                  "type": "uint256"
                }
              ],
              "internalType": "struct GNSPairsStorageV6.Feed",
              "name": "feed",
              "type": "tuple"
            },
            {
              "internalType": "uint256",
              "name": "spreadP",
              "type": "uint256"
            },
            {
              "internalType": "uint256",
              "name": "groupIndex",
              "type": "uint256"
            },
            {
              "internalType": "uint256",
              "name": "feeIndex",
              "type": "uint256"
            }
          ],
          "internalType": "struct GNSPairsStorageV6.Pair",
          "name": "_pair",
          "type": "tuple"
        }
      ],
      "name": "addPair",
      "outputs": [],
      "stateMutability": "nonpayable",
      "type": "function"
    },
    {
      "inputs": [
        {
          "components": [
            {
              "internalType": "string",
              "name": "from",
              "type": "string"
            },
            {
              "internalType": "string",
              "name": "to",
              "type": "string"
            },
            {
              "components": [
                {
                  "internalType": "address",
                  "name": "feed1",
                  "type": "address"
                },
                {
                  "internalType": "address",
                  "name": "feed2",
                  "type": "address"
                },
                {
                  "internalType": "enum GNSPairsStorageV6.FeedCalculation",
                  "name": "feedCalculation",
                  "type": "uint8"
                },
                {
                  "internalType": "uint256",
                  "name": "maxDeviationP",
                  "type": "uint256"
                }
              ],
              "internalType": "struct GNSPairsStorageV6.Feed",
              "name": "feed",
              "type": "tuple"
            },
            {
              "internalType": "uint256",
              "name": "spreadP",
              "type": "uint256"
            },
            {
              "internalType": "uint256",
              "name": "groupIndex",
              "type": "uint256"
            },
            {
              "internalType": "uint256",
              "name": "feeIndex",
              "type": "uint256"
            }
          ],
          "internalType": "struct GNSPairsStorageV6.Pair[]",
          "name": "_pairs",
          "type": "tuple[]"
        }
      ],
      "name": "addPairs",
      "outputs": [],
      "stateMutability": "nonpayable",
      "type": "function"
    },
    {
      "inputs": [],
      "name": "currentOrderId",
      "outputs": [
        {
          "internalType": "uint256",
          "name": "",
          "type": "uint256"
        }
      ],
      "stateMutability": "view",
      "type": "function"
    },
    {
      "inputs": [
        {
          "internalType": "uint256",
          "name": "",
          "type": "uint256"
        }
      ],
      "name": "fees",
      "outputs": [
        {
          "internalType": "string",
          "name": "name",
          "type": "string"
        },
        {
          "internalType": "uint256",
          "name": "openFeeP",
          "type": "uint256"
        },
        {
          "internalType": "uint256",
          "name": "closeFeeP",
          "type": "uint256"
        },
        {
          "internalType": "uint256",
          "name": "oracleFeeP",
          "type": "uint256"
        },
        {
          "internalType": "uint256",
          "name": "nftLimitOrderFeeP",
          "type": "uint256"
        },
        {
          "internalType": "uint256",
          "name": "referralFeeP",
          "type": "uint256"
        },
        {
          "internalType": "uint256",
          "name": "minLevPosDai",
          "type": "uint256"
        }
      ],
      "stateMutability": "view",
      "type": "function"
    },
    {
      "inputs": [],
      "name": "feesCount",
      "outputs": [
        {
          "internalType": "uint256",
          "name": "",
          "type": "uint256"
        }
      ],
      "stateMutability": "view",
      "type": "function"
    },
    {
      "inputs": [
        {
          "internalType": "uint256",
          "name": "_pairIndex",
          "type": "uint256"
        },
        {
          "internalType": "bool",
          "name": "_long",
          "type": "bool"
        }
      ],
      "name": "groupCollateral",
      "outputs": [
        {
          "internalType": "uint256",
          "name": "",
          "type": "uint256"
        }
      ],
      "stateMutability": "view",
      "type": "function"
    },
    {
      "inputs": [
        {
          "internalType": "uint256",
          "name": "_pairIndex",
          "type": "uint256"
        }
      ],
      "name": "groupMaxCollateral",
      "outputs": [
        {
          "internalType": "uint256",
          "name": "",
          "type": "uint256"
        }
      ],
      "stateMutability": "view",
      "type": "function"
    },
    {
      "inputs": [
        {
          "internalType": "uint256",
          "name": "",
          "type": "uint256"
        }
      ],
      "name": "groups",
      "outputs": [
        {
          "internalType": "string",
          "name": "name",
          "type": "string"
        },
        {
          "internalType": "bytes32",
          "name": "job",
          "type": "bytes32"
        },
        {
          "internalType": "uint256",
          "name": "minLeverage",
          "type": "uint256"
        },
        {
          "internalType": "uint256",
          "name": "maxLeverage",
          "type": "uint256"
        },
        {
          "internalType": "uint256",
          "name": "maxCollateralP",
          "type": "uint256"
        }
      ],
      "stateMutability": "view",
      "type": "function"
    },
    {
      "inputs": [
        {
          "internalType": "uint256",
          "name": "",
          "type": "uint256"
        },
        {
          "internalType": "uint256",
          "name": "",
          "type": "uint256"
        }
      ],
      "name": "groupsCollaterals",
      "outputs": [
        {
          "internalType": "uint256",
          "name": "",
          "type": "uint256"
        }
      ],
      "stateMutability": "view",
      "type": "function"
    },
    {
      "inputs": [],
      "name": "groupsCount",
      "outputs": [
        {
          "internalType": "uint256",
          "name": "",
          "type": "uint256"
        }
      ],
      "stateMutability": "view",
      "type": "function"
    },
    {
      "inputs": [
        {
          "internalType": "uint256",
          "name": "_pairIndex",
          "type": "uint256"
        }
      ],
      "name": "guaranteedSlEnabled",
      "outputs": [
        {
          "internalType": "bool",
          "name": "",
          "type": "bool"
        }
      ],
      "stateMutability": "view",
      "type": "function"
    },
    {
      "inputs": [
        {
          "internalType": "string",
          "name": "",
          "type": "string"
        },
        {
          "internalType": "string",
          "name": "",
          "type": "string"
        }
      ],
      "name": "isPairListed",
      "outputs": [
        {
          "internalType": "bool",
          "name": "",
          "type": "bool"
        }
      ],
      "stateMutability": "view",
      "type": "function"
    },
    {
      "inputs": [
        {
          "internalType": "uint256",
          "name": "_pairIndex",
          "type": "uint256"
        }
      ],
      "name": "pairCloseFeeP",
      "outputs": [
        {
          "internalType": "uint256",
          "name": "",
          "type": "uint256"
        }
      ],
      "stateMutability": "view",
      "type": "function"
    },
    {
      "inputs": [
        {
          "internalType": "uint256",
          "name": "_pairIndex",
          "type": "uint256"
        }
      ],
      "name": "pairFeed",
      "outputs": [
        {
          "components": [
            {
              "internalType": "address",
              "name": "feed1",
              "type": "address"
            },
            {
              "internalType": "address",
              "name": "feed2",
              "type": "address"
            },
            {
              "internalType": "enum GNSPairsStorageV6.FeedCalculation",
              "name": "feedCalculation",
              "type": "uint8"
            },
            {
              "internalType": "uint256",
              "name": "maxDeviationP",
              "type": "uint256"
            }
          ],
          "internalType": "struct GNSPairsStorageV6.Feed",
          "name": "",
          "type": "tuple"
        }
      ],
      "stateMutability": "view",
      "type": "function"
    },
    {
      "inputs": [
        {
          "internalType": "uint256",
          "name": "_pairIndex",
          "type": "uint256"
        }
      ],
      "name": "pairJob",
      "outputs": [
        {
          "internalType": "string",
          "name": "",
          "type": "string"
        },
        {
          "internalType": "string",
          "name": "",
          "type": "string"
        },
        {
          "internalType": "bytes32",
          "name": "",
          "type": "bytes32"
        },
        {
          "internalType": "uint256",
          "name": "",
          "type": "uint256"
        }
      ],
      "stateMutability": "nonpayable",
      "type": "function"
    },
    {
      "inputs": [
        {
          "internalType": "uint256",
          "name": "_pairIndex",
          "type": "uint256"
        }
      ],
      "name": "pairMaxLeverage",
      "outputs": [
        {
          "internalType": "uint256",
          "name": "",
          "type": "uint256"
        }
      ],
      "stateMutability": "view",
      "type": "function"
    },
    {
      "inputs": [
        {
          "internalType": "uint256",
          "name": "_pairIndex",
          "type": "uint256"
        }
      ],
      "name": "pairMinLevPosDai",
      "outputs": [
        {
          "internalType": "uint256",
          "name": "",
          "type": "uint256"
        }
      ],
      "stateMutability": "view",
      "type": "function"
    },
    {
      "inputs": [
        {
          "internalType": "uint256",
          "name": "_pairIndex",
          "type": "uint256"
        }
      ],
      "name": "pairMinLeverage",
      "outputs": [
        {
          "internalType": "uint256",
          "name": "",
          "type": "uint256"
        }
      ],
      "stateMutability": "view",
      "type": "function"
    },
    {
      "inputs": [
        {
          "internalType": "uint256",
          "name": "_pairIndex",
          "type": "uint256"
        }
      ],
      "name": "pairNftLimitOrderFeeP",
      "outputs": [
        {
          "internalType": "uint256",
          "name": "",
          "type": "uint256"
        }
      ],
      "stateMutability": "view",
      "type": "function"
    },
    {
      "inputs": [
        {
          "internalType": "uint256",
          "name": "_pairIndex",
          "type": "uint256"
        }
      ],
      "name": "pairOpenFeeP",
      "outputs": [
        {
          "internalType": "uint256",
          "name": "",
          "type": "uint256"
        }
      ],
      "stateMutability": "view",
      "type": "function"
    },
    {
      "inputs": [
        {
          "internalType": "uint256",
          "name": "_pairIndex",
          "type": "uint256"
        }
      ],
      "name": "pairOracleFeeP",
      "outputs": [
        {
          "internalType": "uint256",
          "name": "",
          "type": "uint256"
        }
      ],
      "stateMutability": "view",
      "type": "function"
    },
    {
      "inputs": [
        {
          "internalType": "uint256",
          "name": "_pairIndex",
          "type": "uint256"
        }
      ],
      "name": "pairReferralFeeP",
      "outputs": [
        {
          "internalType": "uint256",
          "name": "",
          "type": "uint256"
        }
      ],
      "stateMutability": "view",
      "type": "function"
    },
    {
      "inputs": [
        {
          "internalType": "uint256",
          "name": "_pairIndex",
          "type": "uint256"
        }
      ],
      "name": "pairSpreadP",
      "outputs": [
        {
          "internalType": "uint256",
          "name": "",
          "type": "uint256"
        }
      ],
      "stateMutability": "view",
      "type": "function"
    },
    {
      "inputs": [
        {
          "internalType": "uint256",
          "name": "",
          "type": "uint256"
        }
      ],
      "name": "pairs",
      "outputs": [
        {
          "internalType": "string",
          "name": "from",
          "type": "string"
        },
        {
          "internalType": "string",
          "name": "to",
          "type": "string"
        },
        {
          "components": [
            {
              "internalType": "address",
              "name": "feed1",
              "type": "address"
            },
            {
              "internalType": "address",
              "name": "feed2",
              "type": "address"
            },
            {
              "internalType": "enum GNSPairsStorageV6.FeedCalculation",
              "name": "feedCalculation",
              "type": "uint8"
            },
            {
              "internalType": "uint256",
              "name": "maxDeviationP",
              "type": "uint256"
            }
          ],
          "internalType": "struct GNSPairsStorageV6.Feed",
          "name": "feed",
          "type": "tuple"
        },
        {
          "internalType": "uint256",
          "name": "spreadP",
          "type": "uint256"
        },
        {
          "internalType": "uint256",
          "name": "groupIndex",
          "type": "uint256"
        },
        {
          "internalType": "uint256",
          "name": "feeIndex",
          "type": "uint256"
        }
      ],
      "stateMutability": "view",
      "type": "function"
    },
    {
      "inputs": [
        {
          "internalType": "uint256",
          "name": "_index",
          "type": "uint256"
        }
      ],
      "name": "pairsBackend",
      "outputs": [
        {
          "components": [
            {
              "internalType": "string",
              "name": "from",
              "type": "string"
            },
            {
              "internalType": "string",
              "name": "to",
              "type": "string"
            },
            {
              "components": [
                {
                  "internalType": "address",
                  "name": "feed1",
                  "type": "address"
                },
                {
                  "internalType": "address",
                  "name": "feed2",
                  "type": "address"
                },
                {
                  "internalType": "enum GNSPairsStorageV6.FeedCalculation",
                  "name": "feedCalculation",
                  "type": "uint8"
                },
                {
                  "internalType": "uint256",
                  "name": "maxDeviationP",
                  "type": "uint256"
                }
              ],
              "internalType": "struct GNSPairsStorageV6.Feed",
              "name": "feed",
              "type": "tuple"
            },
            {
              "internalType": "uint256",
              "name": "spreadP",
              "type": "uint256"
            },
            {
              "internalType": "uint256",
              "name": "groupIndex",
              "type": "uint256"
            },
            {
              "internalType": "uint256",
              "name": "feeIndex",
              "type": "uint256"
            }
          ],
          "internalType": "struct GNSPairsStorageV6.Pair",
          "name": "",
          "type": "tuple"
        },
        {
          "components": [
            {
              "internalType": "string",
              "name": "name",
              "type": "string"
            },
            {
              "internalType": "bytes32",
              "name": "job",
              "type": "bytes32"
            },
            {
              "internalType": "uint256",
              "name": "minLeverage",
              "type": "uint256"
            },
            {
              "internalType": "uint256",
              "name": "maxLeverage",
              "type": "uint256"
            },
            {
              "internalType": "uint256",
              "name": "maxCollateralP",
              "type": "uint256"
            }
          ],
          "internalType": "struct GNSPairsStorageV6.Group",
          "name": "",
          "type": "tuple"
        },
        {
          "components": [
            {
              "internalType": "string",
              "name": "name",
              "type": "string"
            },
            {
              "internalType": "uint256",
              "name": "openFeeP",
              "type": "uint256"
            },
            {
              "internalType": "uint256",
              "name": "closeFeeP",
              "type": "uint256"
            },
            {
              "internalType": "uint256",
              "name": "oracleFeeP",
              "type": "uint256"
            },
            {
              "internalType": "uint256",
              "name": "nftLimitOrderFeeP",
              "type": "uint256"
            },
            {
              "internalType": "uint256",
              "name": "referralFeeP",
              "type": "uint256"
            },
            {
              "internalType": "uint256",
              "name": "minLevPosDai",
              "type": "uint256"
            }
          ],
          "internalType": "struct GNSPairsStorageV6.Fee",
          "name": "",
          "type": "tuple"
        }
      ],
      "stateMutability": "view",
      "type": "function"
    },
    {
      "inputs": [],
      "name": "pairsCount",
      "outputs": [
        {
          "internalType": "uint256",
          "name": "",
          "type": "uint256"
        }
      ],
      "stateMutability": "view",
      "type": "function"
    },
    {
      "inputs": [],
      "name": "storageT",
      "outputs": [
        {
          "internalType": "contract StorageInterfaceV5",
          "name": "",
          "type": "address"
        }
      ],
      "stateMutability": "view",
      "type": "function"
    },
    {
      "inputs": [
        {
          "internalType": "uint256",
          "name": "_id",
          "type": "uint256"
        },
        {
          "components": [
            {
              "internalType": "string",
              "name": "name",
              "type": "string"
            },
            {
              "internalType": "uint256",
              "name": "openFeeP",
              "type": "uint256"
            },
            {
              "internalType": "uint256",
              "name": "closeFeeP",
              "type": "uint256"
            },
            {
              "internalType": "uint256",
              "name": "oracleFeeP",
              "type": "uint256"
            },
            {
              "internalType": "uint256",
              "name": "nftLimitOrderFeeP",
              "type": "uint256"
            },
            {
              "internalType": "uint256",
              "name": "referralFeeP",
              "type": "uint256"
            },
            {
              "internalType": "uint256",
              "name": "minLevPosDai",
              "type": "uint256"
            }
          ],
          "internalType": "struct GNSPairsStorageV6.Fee",
          "name": "_fee",
          "type": "tuple"
        }
      ],
      "name": "updateFee",
      "outputs": [],
      "stateMutability": "nonpayable",
      "type": "function"
    },
    {
      "inputs": [
        {
          "internalType": "uint256",
          "name": "_id",
          "type": "uint256"
        },
        {
          "components": [
            {
              "internalType": "string",
              "name": "name",
              "type": "string"
            },
            {
              "internalType": "bytes32",
              "name": "job",
              "type": "bytes32"
            },
            {
              "internalType": "uint256",
              "name": "minLeverage",
              "type": "uint256"
            },
            {
              "internalType": "uint256",
              "name": "maxLeverage",
              "type": "uint256"
            },
            {
              "internalType": "uint256",
              "name": "maxCollateralP",
              "type": "uint256"
            }
          ],
          "internalType": "struct GNSPairsStorageV6.Group",
          "name": "_group",
          "type": "tuple"
        }
      ],
      "name": "updateGroup",
      "outputs": [],
      "stateMutability": "nonpayable",
      "type": "function"
    },
    {
      "inputs": [
        {
          "internalType": "uint256",
          "name": "_pairIndex",
          "type": "uint256"
        },
        {
          "internalType": "uint256",
          "name": "_amount",
          "type": "uint256"
        },
        {
          "internalType": "bool",
          "name": "_long",
          "type": "bool"
        },
        {
          "internalType": "bool",
          "name": "_increase",
          "type": "bool"
        }
      ],
      "name": "updateGroupCollateral",
      "outputs": [],
      "stateMutability": "nonpayable",
      "type": "function"
    },
    {
      "inputs": [
        {
          "internalType": "uint256",
          "name": "_pairIndex",
          "type": "uint256"
        },
        {
          "components": [
            {
              "internalType": "string",
              "name": "from",
              "type": "string"
            },
            {
              "internalType": "string",
              "name": "to",
              "type": "string"
            },
            {
              "components": [
                {
                  "internalType": "address",
                  "name": "feed1",
                  "type": "address"
                },
                {
                  "internalType": "address",
                  "name": "feed2",
                  "type": "address"
                },
                {
                  "internalType": "enum GNSPairsStorageV6.FeedCalculation",
                  "name": "feedCalculation",
                  "type": "uint8"
                },
                {
                  "internalType": "uint256",
                  "name": "maxDeviationP",
                  "type": "uint256"
                }
              ],
              "internalType": "struct GNSPairsStorageV6.Feed",
              "name": "feed",
              "type": "tuple"
            },
            {
              "internalType": "uint256",
              "name": "spreadP",
              "type": "uint256"
            },
            {
              "internalType": "uint256",
              "name": "groupIndex",
              "type": "uint256"
            },
            {
              "internalType": "uint256",
              "name": "feeIndex",
              "type": "uint256"
            }
          ],
          "internalType": "struct GNSPairsStorageV6.Pair",
          "name": "_pair",
          "type": "tuple"
        }
      ],
      "name": "updatePair",
      "outputs": [],
      "stateMutability": "nonpayable",
      "type": "function"
    }
  ],
  "transactionHash": "0x33ac37f32f6d70a1bbff62f373a6eb2f4b6bfe60ffaea5cf5de99d261ccd8ee8",
  "args": [
    "1",
    "0x2036014Fe2a567217a9b7E1a82df7360287A83E6"
  ],
  "numDeployments": 1,
  "solcInputHash": "f7a9b91dc44ee5e79c1a5d5aff87db1f",
  "bytecode": "0x60806040523480156200001157600080fd5b5060405162003316380380620033168339810160408190526200003491620000a1565b60008211620000765760405162461bcd60e51b815260206004820152600a60248201526904f524445525f49445f360b41b604482015260640160405180910390fd5b600091909155600480546001600160a01b0319166001600160a01b03909216919091179055620000e0565b60008060408385031215620000b557600080fd5b825160208401519092506001600160a01b0381168114620000d557600080fd5b809150509250929050565b61322680620000f06000396000f3fe608060405234801561001057600080fd5b50600436106101fb5760003560e01c80637981aa831161011a57806396324bd4116100ad578063b71ade2f1161007c578063b71ade2f146105bc578063b81b2b71146105cf578063b91ac788146105d8578063db7c3f9d146105fd578063f7acbabd1461061057600080fd5b806396324bd41461050f5780639848a68d146105335780639c8dd2fa14610565578063a1d54e9b1461059857600080fd5b80638c23f81c116100e95780638c23f81c146104be578063925931fc146104d15780639521753e146104da5780639567dccf146104ed57600080fd5b80637981aa831461043c5780638251135b1461044f578063836a341a14610482578063885e2750146104b557600080fd5b8063302f81fc11610192578063527b47c011610161578063527b47c0146103da57806359a992d0146103ed5780636261466114610420578063658de48a1461043357600080fd5b8063302f81fc1461036b578063472ff8bb1461038e57806349dde63f146103a15780634acc79ed146103b457600080fd5b80631eaa005c116101ce5780631eaa005c146102df57806320f0fc5e146102ff57806324abd3fb14610314578063281b693c1461033857600080fd5b80630cd8b0221461020057806315406fe5146102465780631628bfeb1461025957806316fff074146102b4575b600080fd5b61023361020e3660046125af565b6000908152600560209081526040808320600790810154845290915290206006015490565b6040519081526020015b60405180910390f35b6102336102543660046126c1565b610643565b6102a46102673660046124a8565b8151602081840181018051600882529282019482019490942091909352815180830184018051928152908401929093019190912091525460ff1681565b604051901515815260200161023d565b6004546102c7906001600160a01b031681565b6040516001600160a01b03909116815260200161023d565b6102f26102ed3660046125af565b610668565b60405161023d9190612a65565b61031261030d3660046126e3565b61070f565b005b6102a46103223660046125af565b6000908152600560205260409020600601541590565b6102336103463660046125af565b6000908152600560209081526040808320600690810154845290915290206003015490565b61037e6103793660046125af565b6108a1565b60405161023d9493929190612948565b61031261039c366004612547565b610c1b565b6103126103af36600461260d565b610de8565b6103c76103c23660046125af565b610faa565b60405161023d97969594939291906129d7565b6103126103e8366004612685565b61106c565b6102336103fb3660046125af565b6000908152600560209081526040808320600690810154845290915290206002015490565b61023361042e3660046125af565b61132a565b61023360035481565b61031261044a366004612649565b611453565b61023361045d3660046125af565b6000908152600560209081526040808320600790810154845290915290206001015490565b6102336104903660046125af565b6000908152600560209081526040808320600790810154845290915290206002015490565b61023360025481565b6103126104cc36600461250b565b611646565b61023360005481565b6102336104e83660046125e1565b6117d2565b6105006104fb3660046125af565b61181b565b60405161023d93929190612a73565b61052261051d3660046125af565b611c4c565b60405161023d959493929190612911565b6102336105413660046125af565b60009081526005602081815260408084206007908101548552909152909120015490565b6102336105733660046125af565b6000908152600560209081526040808320600790810154845290915290206004015490565b6102336105a63660046125af565b6000908152600560208190526040909120015490565b6103126105ca36600461257b565b611d02565b61023360015481565b6105eb6105e63660046125af565b6120a4565b60405161023d96959493929190612981565b61031261060b366004612417565b612250565b61023361061e3660046125af565b6000908152600560209081526040808320600790810154845290915290206003015490565b6009602052816000526040600020816002811061065f57600080fd5b01549150829050565b6040805160808101825260008082526020820181905291810182905260608101919091526000828152600560209081526040918290208251608081018452600280830180546001600160a01b039081168452600390940154938416948301949094529093840191600160a01b900460ff16908111156106e9576106e9612e76565b60028111156106fa576106fa612e76565b81526020016002820154815250509050919050565b600480546040805162b1278360e01b815290516001600160a01b039092169262b12783928282019260209290829003018186803b15801561074f57600080fd5b505afa158015610763573d6000803e3d6000fd5b505050506040513d601f19601f8201168201806040525081019061078791906123fa565b6001600160a01b0316336001600160a01b0316146107dd5760405162461bcd60e51b815260206004820152600e60248201526d43414c4c4241434b535f4f4e4c5960901b60448201526064015b60405180910390fd5b600084815260056020908152604080832060060154835260099091528120908361080857600161080b565b60005b60ff1690508215610844578482826002811061082957610829612e8c565b0160008282546108399190612bd4565b909155506108999050565b8482826002811061085757610857612e8c565b015411610865576000610884565b8482826002811061087857610878612e8c565b01546108849190612c2d565b82826002811061089657610896612e8c565b01555b505050505050565b606080600080600460009054906101000a90046001600160a01b03166001600160a01b0316633078fff56040518163ffffffff1660e01b815260040160206040518083038186803b1580156108f557600080fd5b505afa158015610909573d6000803e3d6000fd5b505050506040513d601f19601f8201168201806040525081019061092d91906123fa565b6001600160a01b0316336001600160a01b03161461097f5760405162461bcd60e51b815260206004820152600f60248201526e41474752454741544f525f4f4e4c5960881b60448201526064016107d4565b600085815260056020526040808220815160c081019092528054829082906109a690612dfb565b80601f01602080910402602001604051908101604052809291908181526020018280546109d290612dfb565b8015610a1f5780601f106109f457610100808354040283529160200191610a1f565b820191906000526020600020905b815481529060010190602001808311610a0257829003601f168201915b50505050508152602001600182018054610a3890612dfb565b80601f0160208091040260200160405190810160405280929190818152602001828054610a6490612dfb565b8015610ab15780601f10610a8657610100808354040283529160200191610ab1565b820191906000526020600020905b815481529060010190602001808311610a9457829003601f168201915b505050918352505060408051608081018252600284810180546001600160a01b0390811684526003870154908116602080860191909152909501949293909290840191600160a01b90910460ff1690811115610b0f57610b0f612e76565b6002811115610b2057610b20612e76565b815260200160028201548152505081526020016005820154815260200160068201548152602001600782015481525050905060088160000151604051610b669190612883565b90815260200160405180910390208160200151604051610b869190612883565b9081526040519081900360200190205460ff16610bd75760405162461bcd60e51b815260206004820152600f60248201526e1410525497d393d517d31254d51151608a1b60448201526064016107d4565b805160208083015160808401516000908152600690925260408220600101548254919290919080610c0783612e45565b919050559450945094509450509193509193565b60048054604080516312d43a5160e01b815290516001600160a01b03909216926312d43a51928282019260209290829003018186803b158015610c5d57600080fd5b505afa158015610c71573d6000803e3d6000fd5b505050506040513d601f19601f82011682018060405250810190610c9591906123fa565b6001600160a01b0316336001600160a01b031614610cc55760405162461bcd60e51b81526004016107d490612a43565b806020810135610d035760405162461bcd60e51b81526020600482015260096024820152684a4f425f454d50545960b81b60448201526064016107d4565b6002816040013510158015610d1e57506103e8816060013511155b8015610d31575080606001358160400135105b610d6f5760405162461bcd60e51b815260206004820152600f60248201526e57524f4e475f4c455645524147455360881b60448201526064016107d4565b60025460009081526006602052604090208290610d8c8282612fd9565b5050600280547faf17de8e82beccc440012117a600dc37e26925225d0f1ee192fc107eb3dcbca4916000610dbf83612e45565b90915550610dcd8480612b70565b604051610ddc93929190612b14565b60405180910390a15050565b60048054604080516312d43a5160e01b815290516001600160a01b03909216926312d43a51928282019260209290829003018186803b158015610e2a57600080fd5b505afa158015610e3e573d6000803e3d6000fd5b505050506040513d601f19601f82011682018060405250810190610e6291906123fa565b6001600160a01b0316336001600160a01b031614610e925760405162461bcd60e51b81526004016107d490612a43565b6000828152600760205260409020600101548290610ec25760405162461bcd60e51b81526004016107d490612a1b565b8160008160200135118015610edb575060008160400135115b8015610eeb575060008160600135115b8015610efb575060008160800135115b8015610f0b575060008160a00135115b8015610f1b575060008160c00135115b610f545760405162461bcd60e51b815260206004820152600a60248201526957524f4e475f4645455360b01b60448201526064016107d4565b60008481526007602052604090208390610f6e8282612ed8565b50506040518481527f8c4d35e54a3f2ef1134138fd8ea3daee6a3c89e10d2665996babdf70261e2c76906020015b60405180910390a150505050565b600760205260009081526040902080548190610fc590612dfb565b80601f0160208091040260200160405190810160405280929190818152602001828054610ff190612dfb565b801561103e5780601f106110135761010080835404028352916020019161103e565b820191906000526020600020905b81548152906001019060200180831161102157829003601f168201915b5050505050908060010154908060020154908060030154908060040154908060050154908060060154905087565b60048054604080516312d43a5160e01b815290516001600160a01b03909216926312d43a51928282019260209290829003018186803b1580156110ae57600080fd5b505afa1580156110c2573d6000803e3d6000fd5b505050506040513d601f19601f820116820180604052508101906110e691906123fa565b6001600160a01b0316336001600160a01b0316146111165760405162461bcd60e51b81526004016107d490612a43565b80604001600081606001351180156111445750600061113860208301836123d6565b6001600160a01b031614155b61117d5760405162461bcd60e51b815260206004820152600a60248201526915d493d391d7d191515160b21b60448201526064016107d4565b600261118f606083016040840161248b565b60028111156111a0576111a0612e76565b1415806111c6575060006111ba60408301602084016123d6565b6001600160a01b031614155b6112035760405162461bcd60e51b815260206004820152600e60248201526d464545445f325f4d495353494e4760901b60448201526064016107d4565b6101008201356000818152600760205260409020600101546112375760405162461bcd60e51b81526004016107d490612a1b565b60008481526005602052604090819020905160089061125790839061289f565b908152602001604051809103902081600101604051611276919061289f565b9081526040519081900360200190205460ff166112c75760405162461bcd60e51b815260206004820152600f60248201526e1410525497d393d517d31254d51151608a1b60448201526064016107d4565b60408401600282016112d98282612d74565b505060c0840135600582015561010084013560078201556040518581527f123a1b961ae93e7acda9790b318237b175b45ac09277cd3614305d8baa3f19539060200160405180910390a15050505050565b600480546040805163fbfa77cf60e01b815290516000936064936001600160a01b03169263fbfa77cf9281830192602092829003018186803b15801561136f57600080fd5b505afa158015611383573d6000803e3d6000fd5b505050506040513d601f19601f820116820180604052508101906113a791906123fa565b6001600160a01b0316630851a2026040518163ffffffff1660e01b815260040160206040518083038186803b1580156113df57600080fd5b505afa1580156113f3573d6000803e3d6000fd5b505050506040513d601f19601f8201168201806040525081019061141791906125c8565b600084815260056020908152604080832060069081015484529091529020600401546114439190612c0e565b61144d9190612bec565b92915050565b60048054604080516312d43a5160e01b815290516001600160a01b03909216926312d43a51928282019260209290829003018186803b15801561149557600080fd5b505afa1580156114a9573d6000803e3d6000fd5b505050506040513d601f19601f820116820180604052508101906114cd91906123fa565b6001600160a01b0316336001600160a01b0316146114fd5760405162461bcd60e51b81526004016107d490612a43565b60008281526006602052604090206002015482906115505760405162461bcd60e51b815260206004820152601060248201526f11d493d55417d393d517d31254d5115160821b60448201526064016107d4565b81602081013561158e5760405162461bcd60e51b81526020600482015260096024820152684a4f425f454d50545960b81b60448201526064016107d4565b60028160400135101580156115a957506103e8816060013511155b80156115bc575080606001358160400135105b6115fa5760405162461bcd60e51b815260206004820152600f60248201526e57524f4e475f4c455645524147455360881b60448201526064016107d4565b600084815260066020526040902083906116148282612fd9565b50506040518481527fcfde8f228364c70f12cbbac5a88fc91ceca76dd750ac93364991a333b34afb8e90602001610f9c565b60048054604080516312d43a5160e01b815290516001600160a01b03909216926312d43a51928282019260209290829003018186803b15801561168857600080fd5b505afa15801561169c573d6000803e3d6000fd5b505050506040513d601f19601f820116820180604052508101906116c091906123fa565b6001600160a01b0316336001600160a01b0316146116f05760405162461bcd60e51b81526004016107d490612a43565b8060008160200135118015611709575060008160400135115b8015611719575060008160600135115b8015611729575060008160800135115b8015611739575060008160a00135115b8015611749575060008160c00135115b6117825760405162461bcd60e51b815260206004820152600a60248201526957524f4e475f4645455360b01b60448201526064016107d4565b6003546000908152600760205260409020829061179f8282612ed8565b5050600380547f482049823c85e038e099fe4f2b901487c4800def71c9a3f5bae2de8381ec54f6916000610dbf83612e45565b600082815260056020908152604080832060060154835260099091528120826117fc5760016117ff565b60005b60ff166002811061181257611812612e8c565b01549392505050565b611823612299565b6118586040518060a0016040528060608152602001600080191681526020016000815260200160008152602001600081525090565b6118986040518060e00160405280606081526020016000815260200160008152602001600081526020016000815260200160008152602001600081525090565b600084815260056020526040808220815160c081019092528054829082906118bf90612dfb565b80601f01602080910402602001604051908101604052809291908181526020018280546118eb90612dfb565b80156119385780601f1061190d57610100808354040283529160200191611938565b820191906000526020600020905b81548152906001019060200180831161191b57829003601f168201915b5050505050815260200160018201805461195190612dfb565b80601f016020809104026020016040519081016040528092919081815260200182805461197d90612dfb565b80156119ca5780601f1061199f576101008083540402835291602001916119ca565b820191906000526020600020905b8154815290600101906020018083116119ad57829003601f168201915b505050918352505060408051608081018252600284810180546001600160a01b0390811684526003870154908116602080860191909152909501949293909290840191600160a01b90910460ff1690811115611a2857611a28612e76565b6002811115611a3957611a39612e76565b8152602001600282015481525050815260200160058201548152602001600682015481526020016007820154815250509050806006600083608001518152602001908152602001600020600760008460a001518152602001908152602001600020816040518060a0016040529081600082018054611ab690612dfb565b80601f0160208091040260200160405190810160405280929190818152602001828054611ae290612dfb565b8015611b2f5780601f10611b0457610100808354040283529160200191611b2f565b820191906000526020600020905b815481529060010190602001808311611b1257829003601f168201915b505050505081526020016001820154815260200160028201548152602001600382015481526020016004820154815250509150806040518060e0016040529081600082018054611b7e90612dfb565b80601f0160208091040260200160405190810160405280929190818152602001828054611baa90612dfb565b8015611bf75780601f10611bcc57610100808354040283529160200191611bf7565b820191906000526020600020905b815481529060010190602001808311611bda57829003601f168201915b5050505050815260200160018201548152602001600282015481526020016003820154815260200160048201548152602001600582015481526020016006820154815250509050935093509350509193909250565b600660205260009081526040902080548190611c6790612dfb565b80601f0160208091040260200160405190810160405280929190818152602001828054611c9390612dfb565b8015611ce05780601f10611cb557610100808354040283529160200191611ce0565b820191906000526020600020905b815481529060010190602001808311611cc357829003601f168201915b5050505050908060010154908060020154908060030154908060040154905085565b60048054604080516312d43a5160e01b815290516001600160a01b03909216926312d43a51928282019260209290829003018186803b158015611d4457600080fd5b505afa158015611d58573d6000803e3d6000fd5b505050506040513d601f19601f82011682018060405250810190611d7c91906123fa565b6001600160a01b0316336001600160a01b031614611dac5760405162461bcd60e51b81526004016107d490612a43565b8060400160008160600135118015611dda57506000611dce60208301836123d6565b6001600160a01b031614155b611e135760405162461bcd60e51b815260206004820152600a60248201526915d493d391d7d191515160b21b60448201526064016107d4565b6002611e25606083016040840161248b565b6002811115611e3657611e36612e76565b141580611e5c57506000611e5060408301602084016123d6565b6001600160a01b031614155b611e995760405162461bcd60e51b815260206004820152600e60248201526d464545445f325f4d495353494e4760901b60448201526064016107d4565b60e0820135600081815260066020526040902060020154611eef5760405162461bcd60e51b815260206004820152601060248201526f11d493d55417d393d517d31254d5115160821b60448201526064016107d4565b610100830135600081815260076020526040902060010154611f235760405162461bcd60e51b81526004016107d490612a1b565b6008611f2f8580612b70565b604051611f3d929190612873565b9081526020016040518091039020848060200190611f5b9190612b70565b604051611f69929190612873565b9081526040519081900360200190205460ff1615611fbf5760405162461bcd60e51b81526020600482015260136024820152721410525497d053149150511657d31254d51151606a1b60448201526064016107d4565b60015460009081526005602052604090208490611fdc82826130c0565b50600190506008611fed8680612b70565b604051611ffb929190612873565b90815260200160405180910390208580602001906120199190612b70565b604051612027929190612873565b908152604051908190036020019020805491151560ff19909216919091179055600180547f3adfd40f2b74073df2a84238acdb7f460565a557b3cc13bddc8833289bf38e0991600061207883612e45565b909155506120868680612b70565b6120936020890189612b70565b604051610f9c959493929190612b37565b6005602052600090815260409020805481906120bf90612dfb565b80601f01602080910402602001604051908101604052809291908181526020018280546120eb90612dfb565b80156121385780601f1061210d57610100808354040283529160200191612138565b820191906000526020600020905b81548152906001019060200180831161211b57829003601f168201915b50505050509080600101805461214d90612dfb565b80601f016020809104026020016040519081016040528092919081815260200182805461217990612dfb565b80156121c65780601f1061219b576101008083540402835291602001916121c6565b820191906000526020600020905b8154815290600101906020018083116121a957829003601f168201915b505060408051608081018252600287810180546001600160a01b03908116845260038a0154908116602085015297989792965094509185019250600160a01b900460ff169081111561221a5761221a612e76565b600281111561222b5761222b612e76565b8152602001600282015481525050908060050154908060060154908060070154905086565b60005b818110156122945761228283838381811061227057612270612e8c565b90506020028101906105ca9190612bbd565b8061228c81612e45565b915050612253565b505050565b6040518060c0016040528060608152602001606081526020016122dd6040805160808101825260008082526020820181905290918201908152602001600081525090565b81526020016000815260200160008152602001600081525090565b8035801515811461230857600080fd5b919050565b600082601f83011261231e57600080fd5b81356001600160401b038082111561233857612338612ea2565b604051601f8301601f19908116603f0116810190828211818310171561236057612360612ea2565b8160405283815286602085880101111561237957600080fd5b836020870160208301376000602085830101528094505050505092915050565b600060e082840312156123ab57600080fd5b50919050565b600060a082840312156123ab57600080fd5b600061012082840312156123ab57600080fd5b6000602082840312156123e857600080fd5b81356123f3816131cb565b9392505050565b60006020828403121561240c57600080fd5b81516123f3816131cb565b6000806020838503121561242a57600080fd5b82356001600160401b038082111561244157600080fd5b818501915085601f83011261245557600080fd5b81358181111561246457600080fd5b8660208260051b850101111561247957600080fd5b60209290920196919550909350505050565b60006020828403121561249d57600080fd5b81356123f3816131e3565b600080604083850312156124bb57600080fd5b82356001600160401b03808211156124d257600080fd5b6124de8683870161230d565b935060208501359150808211156124f457600080fd5b506125018582860161230d565b9150509250929050565b60006020828403121561251d57600080fd5b81356001600160401b0381111561253357600080fd5b61253f84828501612399565b949350505050565b60006020828403121561255957600080fd5b81356001600160401b0381111561256f57600080fd5b61253f848285016123b1565b60006020828403121561258d57600080fd5b81356001600160401b038111156125a357600080fd5b61253f848285016123c3565b6000602082840312156125c157600080fd5b5035919050565b6000602082840312156125da57600080fd5b5051919050565b600080604083850312156125f457600080fd5b82359150612604602084016122f8565b90509250929050565b6000806040838503121561262057600080fd5b8235915060208301356001600160401b0381111561263d57600080fd5b61250185828601612399565b6000806040838503121561265c57600080fd5b8235915060208301356001600160401b0381111561267957600080fd5b612501858286016123b1565b6000806040838503121561269857600080fd5b8235915060208301356001600160401b038111156126b557600080fd5b612501858286016123c3565b600080604083850312156126d457600080fd5b50508035926020909101359150565b600080600080608085870312156126f957600080fd5b8435935060208501359250612710604086016122f8565b915061271e606086016122f8565b905092959194509250565b81835281816020850137506000828201602090810191909152601f909101601f19169091010190565b6000815180845261276a816020860160208601612d44565b601f01601f19169290920160200192915050565b6000815160e0845261279360e0850182612752565b90506020830151602085015260408301516040850152606083015160608501526080830151608085015260a083015160a085015260c083015160c08501528091505092915050565b80516001600160a01b0390811683526020808301519091169083015260408101516003811061281a57634e487b7160e01b600052602160045260246000fd5b6040830152606090810151910152565b6000815160a0845261283f60a0850182612752565b9050602083015160208501526040830151604085015260608301516060850152608083015160808501528091505092915050565b8183823760009101908152919050565b60008251612895818460208701612d44565b9190910192915050565b60008083546128ad81612dfb565b600182811680156128c557600181146128d657612905565b60ff19841687528287019450612905565b8760005260208060002060005b858110156128fc5781548a8201529084019082016128e3565b50505082870194505b50929695505050505050565b60a08152600061292460a0830188612752565b90508560208301528460408301528360608301528260808301529695505050505050565b60808152600061295b6080830187612752565b828103602084015261296d8187612752565b604084019590955250506060015292915050565b60006101208083526129958184018a612752565b905082810360208401526129a98189612752565b9150506129b960408301876127db565b8460c08301528360e083015282610100830152979650505050505050565b60e0815260006129ea60e083018a612752565b60208301989098525060408101959095526060850193909352608084019190915260a083015260c090910152919050565b6020808252600e908201526d11915157d393d517d31254d5115160921b604082015260600190565b602080825260089082015267474f565f4f4e4c5960c01b604082015260600190565b6080810161144d82846127db565b6060815260008451610120806060850152612a92610180850183612752565b91506020870151605f19858403016080860152612aaf8382612752565b9250506040870151612ac460a08601826127db565b50606087015190840152608086015161014084015260a08601516101608401528281036020840152612af6818661282a565b90508281036040840152612b0a818561277e565b9695505050505050565b838152604060208201526000612b2e604083018486612729565b95945050505050565b858152606060208201526000612b51606083018688612729565b8281036040840152612b64818587612729565b98975050505050505050565b6000808335601e19843603018112612b8757600080fd5b8301803591506001600160401b03821115612ba157600080fd5b602001915036819003821315612bb657600080fd5b9250929050565b6000823561011e1983360301811261289557600080fd5b60008219821115612be757612be7612e60565b500190565b600082612c0957634e487b7160e01b600052601260045260246000fd5b500490565b6000816000190483118215151615612c2857612c28612e60565b500290565b600082821015612c3f57612c3f612e60565b500390565b601f82111561229457600081815260208120601f850160051c81016020861015612c6b5750805b601f850160051c820191505b8181101561089957828155600101612c77565b6001600160401b03831115612ca157612ca1612ea2565b612cb583612caf8354612dfb565b83612c44565b6000601f841160018114612ce35760008515612cd15750838201355b612cdb8682612e30565b845550612d3d565b600083815260209020601f19861690835b82811015612d145786850135825560209485019460019092019101612cf4565b5086821015612d315760001960f88860031b161c19848701351681555b505060018560011b0183555b5050505050565b60005b83811015612d5f578181015183820152602001612d47565b83811115612d6e576000848401525b50505050565b8135612d7f816131cb565b612d898183612eb8565b50600181016020830135612d9c816131cb565b612da68183612eb8565b506040830135612db5816131e3565b60038110612dd357634e487b7160e01b600052602160045260246000fd5b815460ff60a01b191660a09190911b60ff60a01b161790556060919091013560029190910155565b600181811c90821680612e0f57607f821691505b602082108114156123ab57634e487b7160e01b600052602260045260246000fd5b600019600383901b1c191660019190911b1790565b6000600019821415612e5957612e59612e60565b5060010190565b634e487b7160e01b600052601160045260246000fd5b634e487b7160e01b600052602160045260246000fd5b634e487b7160e01b600052603260045260246000fd5b634e487b7160e01b600052604160045260246000fd5b80546001600160a01b0319166001600160a01b0392909216919091179055565b612ee28283612b70565b6001600160401b03811115612ef957612ef9612ea2565b612f0d81612f078554612dfb565b85612c44565b6000601f821160018114612f3b5760008315612f295750838201355b612f338482612e30565b865550612f95565b600085815260209020601f19841690835b82811015612f6c5786850135825560209485019460019092019101612f4c565b5084821015612f895760001960f88660031b161c19848701351681555b505060018360011b0185555b505050506020820135600182015560408201356002820155606082013560038201556080820135600482015560a0820135600582015560c082013560068201555050565b612fe38283612b70565b6001600160401b03811115612ffa57612ffa612ea2565b61300881612f078554612dfb565b6000601f82116001811461303657600083156130245750838201355b61302e8482612e30565b865550613090565b600085815260209020601f19841690835b828110156130675786850135825560209485019460019092019101613047565b50848210156130845760001960f88660031b161c19848701351681555b505060018360011b0185555b50505050602082013560018201556040820135600282015560608201356003820155608082013560048201555050565b6130ca8283612b70565b6001600160401b038111156130e1576130e1612ea2565b6130ef81612f078554612dfb565b6000601f82116001811461311d576000831561310b5750838201355b6131158482612e30565b865550613177565b600085815260209020601f19841690835b8281101561314e578685013582556020948501946001909201910161312e565b508482101561316b5760001960f88660031b161c19848701351681555b505060018360011b0185555b505050506131886020830183612b70565b613196818360018601612c8a565b50506131a86040830160028301612d74565b60c0820135600582015560e0820135600682015561010082013560078201555050565b6001600160a01b03811681146131e057600080fd5b50565b600381106131e057600080fdfea264697066735822122058f08d6163bb11a91df7759bed2b757ffa4ce5107ea2da707ca15ffe623a7b7564736f6c63430008070033",
  "libraries": {},
  "devdoc": {
    "kind": "dev",
    "methods": {},
    "version": 1
  },
  "userdoc": {
    "kind": "user",
    "methods": {},
    "version": 1
  },
  "storageLayout": {
    "storage": [
      {
        "astId": 13696,
        "contract": "contracts/contracts/GNSPairStorageV6.sol:GNSPairsStorageV6",
        "label": "currentOrderId",
        "offset": 0,
        "slot": "0",
        "type": "t_uint256"
      },
      {
        "astId": 13698,
        "contract": "contracts/contracts/GNSPairStorageV6.sol:GNSPairsStorageV6",
        "label": "pairsCount",
        "offset": 0,
        "slot": "1",
        "type": "t_uint256"
      },
      {
        "astId": 13700,
        "contract": "contracts/contracts/GNSPairStorageV6.sol:GNSPairsStorageV6",
        "label": "groupsCount",
        "offset": 0,
        "slot": "2",
        "type": "t_uint256"
      },
      {
        "astId": 13702,
        "contract": "contracts/contracts/GNSPairStorageV6.sol:GNSPairsStorageV6",
        "label": "feesCount",
        "offset": 0,
        "slot": "3",
        "type": "t_uint256"
      },
      {
        "astId": 13705,
        "contract": "contracts/contracts/GNSPairStorageV6.sol:GNSPairsStorageV6",
        "label": "storageT",
        "offset": 0,
        "slot": "4",
        "type": "t_contract(StorageInterfaceV5)24663"
      },
      {
        "astId": 13710,
        "contract": "contracts/contracts/GNSPairStorageV6.sol:GNSPairsStorageV6",
        "label": "pairs",
        "offset": 0,
        "slot": "5",
        "type": "t_mapping(t_uint256,t_struct(Pair)13668_storage)"
      },
      {
        "astId": 13715,
        "contract": "contracts/contracts/GNSPairStorageV6.sol:GNSPairsStorageV6",
        "label": "groups",
        "offset": 0,
        "slot": "6",
        "type": "t_mapping(t_uint256,t_struct(Group)13679_storage)"
      },
      {
        "astId": 13720,
        "contract": "contracts/contracts/GNSPairStorageV6.sol:GNSPairsStorageV6",
        "label": "fees",
        "offset": 0,
        "slot": "7",
        "type": "t_mapping(t_uint256,t_struct(Fee)13694_storage)"
      },
      {
        "astId": 13726,
        "contract": "contracts/contracts/GNSPairStorageV6.sol:GNSPairsStorageV6",
        "label": "isPairListed",
        "offset": 0,
        "slot": "8",
        "type": "t_mapping(t_string_memory_ptr,t_mapping(t_string_memory_ptr,t_bool))"
      },
      {
        "astId": 13732,
        "contract": "contracts/contracts/GNSPairStorageV6.sol:GNSPairsStorageV6",
        "label": "groupsCollaterals",
        "offset": 0,
        "slot": "9",
        "type": "t_mapping(t_uint256,t_array(t_uint256)2_storage)"
      }
    ],
    "types": {
      "t_address": {
        "encoding": "inplace",
        "label": "address",
        "numberOfBytes": "20"
      },
      "t_array(t_uint256)2_storage": {
        "base": "t_uint256",
        "encoding": "inplace",
        "label": "uint256[2]",
        "numberOfBytes": "64"
      },
      "t_bool": {
        "encoding": "inplace",
        "label": "bool",
        "numberOfBytes": "1"
      },
      "t_bytes32": {
        "encoding": "inplace",
        "label": "bytes32",
        "numberOfBytes": "32"
      },
      "t_contract(StorageInterfaceV5)24663": {
        "encoding": "inplace",
        "label": "contract StorageInterfaceV5",
        "numberOfBytes": "20"
      },
      "t_enum(FeedCalculation)13644": {
        "encoding": "inplace",
        "label": "enum GNSPairsStorageV6.FeedCalculation",
        "numberOfBytes": "1"
      },
      "t_mapping(t_string_memory_ptr,t_bool)": {
        "encoding": "mapping",
        "key": "t_string_memory_ptr",
        "label": "mapping(string => bool)",
        "numberOfBytes": "32",
        "value": "t_bool"
      },
      "t_mapping(t_string_memory_ptr,t_mapping(t_string_memory_ptr,t_bool))": {
        "encoding": "mapping",
        "key": "t_string_memory_ptr",
        "label": "mapping(string => mapping(string => bool))",
        "numberOfBytes": "32",
        "value": "t_mapping(t_string_memory_ptr,t_bool)"
      },
      "t_mapping(t_uint256,t_array(t_uint256)2_storage)": {
        "encoding": "mapping",
        "key": "t_uint256",
        "label": "mapping(uint256 => uint256[2])",
        "numberOfBytes": "32",
        "value": "t_array(t_uint256)2_storage"
      },
      "t_mapping(t_uint256,t_struct(Fee)13694_storage)": {
        "encoding": "mapping",
        "key": "t_uint256",
        "label": "mapping(uint256 => struct GNSPairsStorageV6.Fee)",
        "numberOfBytes": "32",
        "value": "t_struct(Fee)13694_storage"
      },
      "t_mapping(t_uint256,t_struct(Group)13679_storage)": {
        "encoding": "mapping",
        "key": "t_uint256",
        "label": "mapping(uint256 => struct GNSPairsStorageV6.Group)",
        "numberOfBytes": "32",
        "value": "t_struct(Group)13679_storage"
      },
      "t_mapping(t_uint256,t_struct(Pair)13668_storage)": {
        "encoding": "mapping",
        "key": "t_uint256",
        "label": "mapping(uint256 => struct GNSPairsStorageV6.Pair)",
        "numberOfBytes": "32",
        "value": "t_struct(Pair)13668_storage"
      },
      "t_string_memory_ptr": {
        "encoding": "bytes",
        "label": "string",
        "numberOfBytes": "32"
      },
      "t_string_storage": {
        "encoding": "bytes",
        "label": "string",
        "numberOfBytes": "32"
      },
      "t_struct(Fee)13694_storage": {
        "encoding": "inplace",
        "label": "struct GNSPairsStorageV6.Fee",
        "members": [
          {
            "astId": 13681,
            "contract": "contracts/contracts/GNSPairStorageV6.sol:GNSPairsStorageV6",
            "label": "name",
            "offset": 0,
            "slot": "0",
            "type": "t_string_storage"
          },
          {
            "astId": 13683,
            "contract": "contracts/contracts/GNSPairStorageV6.sol:GNSPairsStorageV6",
            "label": "openFeeP",
            "offset": 0,
            "slot": "1",
            "type": "t_uint256"
          },
          {
            "astId": 13685,
            "contract": "contracts/contracts/GNSPairStorageV6.sol:GNSPairsStorageV6",
            "label": "closeFeeP",
            "offset": 0,
            "slot": "2",
            "type": "t_uint256"
          },
          {
            "astId": 13687,
            "contract": "contracts/contracts/GNSPairStorageV6.sol:GNSPairsStorageV6",
            "label": "oracleFeeP",
            "offset": 0,
            "slot": "3",
            "type": "t_uint256"
          },
          {
            "astId": 13689,
            "contract": "contracts/contracts/GNSPairStorageV6.sol:GNSPairsStorageV6",
            "label": "nftLimitOrderFeeP",
            "offset": 0,
            "slot": "4",
            "type": "t_uint256"
          },
          {
            "astId": 13691,
            "contract": "contracts/contracts/GNSPairStorageV6.sol:GNSPairsStorageV6",
            "label": "referralFeeP",
            "offset": 0,
            "slot": "5",
            "type": "t_uint256"
          },
          {
            "astId": 13693,
            "contract": "contracts/contracts/GNSPairStorageV6.sol:GNSPairsStorageV6",
            "label": "minLevPosDai",
            "offset": 0,
            "slot": "6",
            "type": "t_uint256"
          }
        ],
        "numberOfBytes": "224"
      },
      "t_struct(Feed)13654_storage": {
        "encoding": "inplace",
        "label": "struct GNSPairsStorageV6.Feed",
        "members": [
          {
            "astId": 13646,
            "contract": "contracts/contracts/GNSPairStorageV6.sol:GNSPairsStorageV6",
            "label": "feed1",
            "offset": 0,
            "slot": "0",
            "type": "t_address"
          },
          {
            "astId": 13648,
            "contract": "contracts/contracts/GNSPairStorageV6.sol:GNSPairsStorageV6",
            "label": "feed2",
            "offset": 0,
            "slot": "1",
            "type": "t_address"
          },
          {
            "astId": 13651,
            "contract": "contracts/contracts/GNSPairStorageV6.sol:GNSPairsStorageV6",
            "label": "feedCalculation",
            "offset": 20,
            "slot": "1",
            "type": "t_enum(FeedCalculation)13644"
          },
          {
            "astId": 13653,
            "contract": "contracts/contracts/GNSPairStorageV6.sol:GNSPairsStorageV6",
            "label": "maxDeviationP",
            "offset": 0,
            "slot": "2",
            "type": "t_uint256"
          }
        ],
        "numberOfBytes": "96"
      },
      "t_struct(Group)13679_storage": {
        "encoding": "inplace",
        "label": "struct GNSPairsStorageV6.Group",
        "members": [
          {
            "astId": 13670,
            "contract": "contracts/contracts/GNSPairStorageV6.sol:GNSPairsStorageV6",
            "label": "name",
            "offset": 0,
            "slot": "0",
            "type": "t_string_storage"
          },
          {
            "astId": 13672,
            "contract": "contracts/contracts/GNSPairStorageV6.sol:GNSPairsStorageV6",
            "label": "job",
            "offset": 0,
            "slot": "1",
            "type": "t_bytes32"
          },
          {
            "astId": 13674,
            "contract": "contracts/contracts/GNSPairStorageV6.sol:GNSPairsStorageV6",
            "label": "minLeverage",
            "offset": 0,
            "slot": "2",
            "type": "t_uint256"
          },
          {
            "astId": 13676,
            "contract": "contracts/contracts/GNSPairStorageV6.sol:GNSPairsStorageV6",
            "label": "maxLeverage",
            "offset": 0,
            "slot": "3",
            "type": "t_uint256"
          },
          {
            "astId": 13678,
            "contract": "contracts/contracts/GNSPairStorageV6.sol:GNSPairsStorageV6",
            "label": "maxCollateralP",
            "offset": 0,
            "slot": "4",
            "type": "t_uint256"
          }
        ],
        "numberOfBytes": "160"
      },
      "t_struct(Pair)13668_storage": {
        "encoding": "inplace",
        "label": "struct GNSPairsStorageV6.Pair",
        "members": [
          {
            "astId": 13656,
            "contract": "contracts/contracts/GNSPairStorageV6.sol:GNSPairsStorageV6",
            "label": "from",
            "offset": 0,
            "slot": "0",
            "type": "t_string_storage"
          },
          {
            "astId": 13658,
            "contract": "contracts/contracts/GNSPairStorageV6.sol:GNSPairsStorageV6",
            "label": "to",
            "offset": 0,
            "slot": "1",
            "type": "t_string_storage"
          },
          {
            "astId": 13661,
            "contract": "contracts/contracts/GNSPairStorageV6.sol:GNSPairsStorageV6",
            "label": "feed",
            "offset": 0,
            "slot": "2",
            "type": "t_struct(Feed)13654_storage"
          },
          {
            "astId": 13663,
            "contract": "contracts/contracts/GNSPairStorageV6.sol:GNSPairsStorageV6",
            "label": "spreadP",
            "offset": 0,
            "slot": "5",
            "type": "t_uint256"
          },
          {
            "astId": 13665,
            "contract": "contracts/contracts/GNSPairStorageV6.sol:GNSPairsStorageV6",
            "label": "groupIndex",
            "offset": 0,
            "slot": "6",
            "type": "t_uint256"
          },
          {
            "astId": 13667,
            "contract": "contracts/contracts/GNSPairStorageV6.sol:GNSPairsStorageV6",
            "label": "feeIndex",
            "offset": 0,
            "slot": "7",
            "type": "t_uint256"
          }
        ],
        "numberOfBytes": "256"
      },
      "t_uint256": {
        "encoding": "inplace",
        "label": "uint256",
        "numberOfBytes": "32"
      }
    }
  }
}