{
  "address": "0xD22ce1BADC56dFa9951DA148B69F9d56bEFE4F2E",
  "abi": [
    {
      "inputs": [
        {
          "internalType": "contract StorageInterfaceV5",
          "name": "_storageT",
          "type": "address"
        },
        {
          "internalType": "uint256",
          "name": "_allyFeeP",
          "type": "uint256"
        },
        {
          "internalType": "uint256",
          "name": "_startReferrerFeeP",
          "type": "uint256"
        },
        {
          "internalType": "uint256",
          "name": "_openFeeP",
          "type": "uint256"
        },
        {
          "internalType": "uint256",
          "name": "_targetVolumeDai",
          "type": "uint256"
        }
      ],
      "stateMutability": "nonpayable",
      "type": "constructor"
    },
    {
      "anonymous": false,
      "inputs": [
        {
          "indexed": true,
          "internalType": "address",
          "name": "ally",
          "type": "address"
        },
        {
          "indexed": true,
          "internalType": "address",
          "name": "trader",
          "type": "address"
        },
        {
          "indexed": false,
          "internalType": "uint256",
          "name": "volumeDai",
          "type": "uint256"
        },
        {
          "indexed": false,
          "internalType": "uint256",
          "name": "amountToken",
          "type": "uint256"
        },
        {
          "indexed": false,
          "internalType": "uint256",
          "name": "amountValueDai",
          "type": "uint256"
        }
      ],
      "name": "AllyRewardDistributed",
      "type": "event"
    },
    {
      "anonymous": false,
      "inputs": [
        {
          "indexed": true,
          "internalType": "address",
          "name": "ally",
          "type": "address"
        },
        {
          "indexed": false,
          "internalType": "uint256",
          "name": "amountToken",
          "type": "uint256"
        }
      ],
      "name": "AllyRewardsClaimed",
      "type": "event"
    },
    {
      "anonymous": false,
      "inputs": [
        {
          "indexed": true,
          "internalType": "address",
          "name": "ally",
          "type": "address"
        }
      ],
      "name": "AllyUnwhitelisted",
      "type": "event"
    },
    {
      "anonymous": false,
      "inputs": [
        {
          "indexed": true,
          "internalType": "address",
          "name": "ally",
          "type": "address"
        }
      ],
      "name": "AllyWhitelisted",
      "type": "event"
    },
    {
      "anonymous": false,
      "inputs": [
        {
          "indexed": true,
          "internalType": "address",
          "name": "trader",
          "type": "address"
        },
        {
          "indexed": true,
          "internalType": "address",
          "name": "referrer",
          "type": "address"
        }
      ],
      "name": "ReferrerRegistered",
      "type": "event"
    },
    {
      "anonymous": false,
      "inputs": [
        {
          "indexed": true,
          "internalType": "address",
          "name": "referrer",
          "type": "address"
        },
        {
          "indexed": true,
          "internalType": "address",
          "name": "trader",
          "type": "address"
        },
        {
          "indexed": false,
          "internalType": "uint256",
          "name": "volumeDai",
          "type": "uint256"
        },
        {
          "indexed": false,
          "internalType": "uint256",
          "name": "amountToken",
          "type": "uint256"
        },
        {
          "indexed": false,
          "internalType": "uint256",
          "name": "amountValueDai",
          "type": "uint256"
        }
      ],
      "name": "ReferrerRewardDistributed",
      "type": "event"
    },
    {
      "anonymous": false,
      "inputs": [
        {
          "indexed": true,
          "internalType": "address",
          "name": "referrer",
          "type": "address"
        },
        {
          "indexed": false,
          "internalType": "uint256",
          "name": "amountToken",
          "type": "uint256"
        }
      ],
      "name": "ReferrerRewardsClaimed",
      "type": "event"
    },
    {
      "anonymous": false,
      "inputs": [
        {
          "indexed": true,
          "internalType": "address",
          "name": "referrer",
          "type": "address"
        }
      ],
      "name": "ReferrerUnwhitelisted",
      "type": "event"
    },
    {
      "anonymous": false,
      "inputs": [
        {
          "indexed": true,
          "internalType": "address",
          "name": "referrer",
          "type": "address"
        },
        {
          "indexed": true,
          "internalType": "address",
          "name": "ally",
          "type": "address"
        }
      ],
      "name": "ReferrerWhitelisted",
      "type": "event"
    },
    {
      "anonymous": false,
      "inputs": [
        {
          "indexed": false,
          "internalType": "uint256",
          "name": "value",
          "type": "uint256"
        }
      ],
      "name": "UpdatedAllyFeeP",
      "type": "event"
    },
    {
      "anonymous": false,
      "inputs": [
        {
          "indexed": false,
          "internalType": "uint256",
          "name": "value",
          "type": "uint256"
        }
      ],
      "name": "UpdatedOpenFeeP",
      "type": "event"
    },
    {
      "anonymous": false,
      "inputs": [
        {
          "indexed": false,
          "internalType": "uint256",
          "name": "value",
          "type": "uint256"
        }
      ],
      "name": "UpdatedStartReferrerFeeP",
      "type": "event"
    },
    {
      "anonymous": false,
      "inputs": [
        {
          "indexed": false,
          "internalType": "uint256",
          "name": "value",
          "type": "uint256"
        }
      ],
      "name": "UpdatedTargetVolumeDai",
      "type": "event"
    },
    {
      "inputs": [
        {
          "internalType": "address",
          "name": "",
          "type": "address"
        }
      ],
      "name": "allyDetails",
      "outputs": [
        {
          "internalType": "uint256",
          "name": "volumeReferredDai",
          "type": "uint256"
        },
        {
          "internalType": "uint256",
          "name": "pendingRewardsToken",
          "type": "uint256"
        },
        {
          "internalType": "uint256",
          "name": "totalRewardsToken",
          "type": "uint256"
        },
        {
          "internalType": "uint256",
          "name": "totalRewardsValueDai",
          "type": "uint256"
        },
        {
          "internalType": "bool",
          "name": "active",
          "type": "bool"
        }
      ],
      "stateMutability": "view",
      "type": "function"
    },
    {
      "inputs": [],
      "name": "allyFeeP",
      "outputs": [
        {
          "internalType": "uint256",
          "name": "",
          "type": "uint256"
        }
      ],
      "stateMutability": "view",
      "type": "function"
    },
    {
      "inputs": [],
      "name": "claimAllyRewards",
      "outputs": [],
      "stateMutability": "nonpayable",
      "type": "function"
    },
    {
      "inputs": [],
      "name": "claimReferrerRewards",
      "outputs": [],
      "stateMutability": "nonpayable",
      "type": "function"
    },
    {
      "inputs": [
        {
          "internalType": "address",
          "name": "trader",
          "type": "address"
        },
        {
          "internalType": "uint256",
          "name": "volumeDai",
          "type": "uint256"
        },
        {
          "internalType": "uint256",
          "name": "pairOpenFeeP",
          "type": "uint256"
        },
        {
          "internalType": "uint256",
          "name": "tokenPriceDai",
          "type": "uint256"
        }
      ],
      "name": "distributePotentialReward",
      "outputs": [
        {
          "internalType": "uint256",
          "name": "",
          "type": "uint256"
        }
      ],
      "stateMutability": "nonpayable",
      "type": "function"
    },
    {
      "inputs": [
        {
          "internalType": "address",
          "name": "trader",
          "type": "address"
        }
      ],
      "name": "getPercentOfOpenFeeP",
      "outputs": [
        {
          "internalType": "uint256",
          "name": "",
          "type": "uint256"
        }
      ],
      "stateMutability": "view",
      "type": "function"
    },
    {
      "inputs": [
        {
          "internalType": "uint256",
          "name": "volumeReferredDai",
          "type": "uint256"
        }
      ],
      "name": "getPercentOfOpenFeeP_calc",
      "outputs": [
        {
          "internalType": "uint256",
          "name": "resultP",
          "type": "uint256"
        }
      ],
      "stateMutability": "view",
      "type": "function"
    },
    {
      "inputs": [
        {
          "internalType": "uint256",
          "name": "pairOpenFeeP",
          "type": "uint256"
        },
        {
          "internalType": "uint256",
          "name": "volumeReferredDai",
          "type": "uint256"
        }
      ],
      "name": "getReferrerFeeP",
      "outputs": [
        {
          "internalType": "uint256",
          "name": "",
          "type": "uint256"
        }
      ],
      "stateMutability": "view",
      "type": "function"
    },
    {
      "inputs": [
        {
          "internalType": "address",
          "name": "ally",
          "type": "address"
        }
      ],
      "name": "getReferrersReferred",
      "outputs": [
        {
          "internalType": "address[]",
          "name": "",
          "type": "address[]"
        }
      ],
      "stateMutability": "view",
      "type": "function"
    },
    {
      "inputs": [
        {
          "internalType": "address",
          "name": "trader",
          "type": "address"
        }
      ],
      "name": "getTraderReferrer",
      "outputs": [
        {
          "internalType": "address",
          "name": "",
          "type": "address"
        }
      ],
      "stateMutability": "view",
      "type": "function"
    },
    {
      "inputs": [
        {
          "internalType": "address",
          "name": "referred",
          "type": "address"
        }
      ],
      "name": "getTradersReferred",
      "outputs": [
        {
          "internalType": "address[]",
          "name": "",
          "type": "address[]"
        }
      ],
      "stateMutability": "view",
      "type": "function"
    },
    {
      "inputs": [],
      "name": "openFeeP",
      "outputs": [
        {
          "internalType": "uint256",
          "name": "",
          "type": "uint256"
        }
      ],
      "stateMutability": "view",
      "type": "function"
    },
    {
      "inputs": [
        {
          "internalType": "address",
          "name": "",
          "type": "address"
        }
      ],
      "name": "referrerByTrader",
      "outputs": [
        {
          "internalType": "address",
          "name": "",
          "type": "address"
        }
      ],
      "stateMutability": "view",
      "type": "function"
    },
    {
      "inputs": [
        {
          "internalType": "address",
          "name": "",
          "type": "address"
        }
      ],
      "name": "referrerDetails",
      "outputs": [
        {
          "internalType": "address",
          "name": "ally",
          "type": "address"
        },
        {
          "internalType": "uint256",
          "name": "volumeReferredDai",
          "type": "uint256"
        },
        {
          "internalType": "uint256",
          "name": "pendingRewardsToken",
          "type": "uint256"
        },
        {
          "internalType": "uint256",
          "name": "totalRewardsToken",
          "type": "uint256"
        },
        {
          "internalType": "uint256",
          "name": "totalRewardsValueDai",
          "type": "uint256"
        },
        {
          "internalType": "bool",
          "name": "active",
          "type": "bool"
        }
      ],
      "stateMutability": "view",
      "type": "function"
    },
    {
      "inputs": [
        {
          "internalType": "address",
          "name": "trader",
          "type": "address"
        },
        {
          "internalType": "address",
          "name": "referrer",
          "type": "address"
        }
      ],
      "name": "registerPotentialReferrer",
      "outputs": [],
      "stateMutability": "nonpayable",
      "type": "function"
    },
    {
      "inputs": [],
      "name": "startReferrerFeeP",
      "outputs": [
        {
          "internalType": "uint256",
          "name": "",
          "type": "uint256"
        }
      ],
      "stateMutability": "view",
      "type": "function"
    },
    {
      "inputs": [],
      "name": "storageT",
      "outputs": [
        {
          "internalType": "contract StorageInterfaceV5",
          "name": "",
          "type": "address"
        }
      ],
      "stateMutability": "view",
      "type": "function"
    },
    {
      "inputs": [],
      "name": "targetVolumeDai",
      "outputs": [
        {
          "internalType": "uint256",
          "name": "",
          "type": "uint256"
        }
      ],
      "stateMutability": "view",
      "type": "function"
    },
    {
      "inputs": [
        {
          "internalType": "address",
          "name": "ally",
          "type": "address"
        }
      ],
      "name": "unwhitelistAlly",
      "outputs": [],
      "stateMutability": "nonpayable",
      "type": "function"
    },
    {
      "inputs": [
        {
          "internalType": "address",
          "name": "referrer",
          "type": "address"
        }
      ],
      "name": "unwhitelistReferrer",
      "outputs": [],
      "stateMutability": "nonpayable",
      "type": "function"
    },
    {
      "inputs": [
        {
          "internalType": "uint256",
          "name": "value",
          "type": "uint256"
        }
      ],
      "name": "updateAllyFeeP",
      "outputs": [],
      "stateMutability": "nonpayable",
      "type": "function"
    },
    {
      "inputs": [
        {
          "internalType": "uint256",
          "name": "value",
          "type": "uint256"
        }
      ],
      "name": "updateOpenFeeP",
      "outputs": [],
      "stateMutability": "nonpayable",
      "type": "function"
    },
    {
      "inputs": [
        {
          "internalType": "uint256",
          "name": "value",
          "type": "uint256"
        }
      ],
      "name": "updateStartReferrerFeeP",
      "outputs": [],
      "stateMutability": "nonpayable",
      "type": "function"
    },
    {
      "inputs": [
        {
          "internalType": "uint256",
          "name": "value",
          "type": "uint256"
        }
      ],
      "name": "updateTargetVolumeDai",
      "outputs": [],
      "stateMutability": "nonpayable",
      "type": "function"
    },
    {
      "inputs": [
        {
          "internalType": "address",
          "name": "ally",
          "type": "address"
        }
      ],
      "name": "whitelistAlly",
      "outputs": [],
      "stateMutability": "nonpayable",
      "type": "function"
    },
    {
      "inputs": [
        {
          "internalType": "address",
          "name": "referrer",
          "type": "address"
        },
        {
          "internalType": "address",
          "name": "ally",
          "type": "address"
        }
      ],
      "name": "whitelistReferrer",
      "outputs": [],
      "stateMutability": "nonpayable",
      "type": "function"
    }
  ],
  "transactionHash": "0x2b6a8dd1a05c3238bbf9ec73430202a9fd2344aca7c2ffe1a198dce0a97de8ac",
  "args": [
    "0x8a28637be34be5c3BBdF893be8B8A387C2843cbc",
    10,
    33,
    50,
    10000000
  ],
  "numDeployments": 1,
  "solcInputHash": "62ead6fd019c01c7f32a188a2b283d94",
  "bytecode": "0x60a0346200017757601f62001b1e38819003918201601f19168301916001600160401b038311848410176200017c5780849260a094604052833981010312620001775780516001600160a01b03811691908281036200017757602082015160408301519160806060850151940151941515806200016b575b806200015f575b8062000153575b8062000149575b15620001155760805260005560015560025560035560405161198b908162000193823960805181818161017101528181610276015281816103c5015281816105a90152818161075f0152818161093301528181610a6a01528181610b4201528181610bf601528181610da301528181610eed01528181611098015281816110f001526115a40152f35b60405162461bcd60e51b815260206004820152600c60248201526b57524f4e475f504152414d5360a01b6044820152606490fd5b508415156200008c565b50603284111562000085565b5060648311156200007e565b50603282111562000077565b600080fd5b634e487b7160e01b600052604160045260246000fdfe6080604081815260048036101561001557600080fd5b600092833560e01c90816303e37464146110bc5750806316fff074146110785780631727e82d14611059578063201ad16d1461101257806332a7b73214610f975780634e583b3114610f7457806355c7802814610eb557806365ae452714610e4d57806365cbd30714610d5557806366f59b9b14610d365780636a83de7914610cc25780637792a23114610c9f57806394df2c7c14610bbd57806397365b7414610b115780639b8ab68414610a10578063a16f2534146108fe578063a6a7d393146108e1578063a73a3e351461085b578063bc78654114610725578063c3160c68146106c5578063c36acccd1461068b578063df374a9b1461066c578063e78c6fd214610556578063ea61c60214610382578063ee6cf884146102295763f79ad43e1461014157600080fd5b346102255760203660031901126102255780359082516312d43a5160e01b81526020816001600160a01b039381857f0000000000000000000000000000000000000000000000000000000000000000165afa90811561021b57602093927f4dec17ad9a229f707b7c2fb9531cd3b9c548f9eca80c03457ca38a0bb1df35fe95926101d59288916101ee575b50163314611274565b6101e260328311156112bf565b8160025551908152a180f35b61020e9150863d8111610214575b610206818361121d565b810190611255565b386101cc565b503d6101fc565b84513d87823e3d90fd5b8280fd5b5034610225578260031936011261022557338352602081815260028385200191848354936102588515156117ff565b55835190637e062a3560e11b8252856001600160a01b0384848481847f0000000000000000000000000000000000000000000000000000000000000000165afa9384156103785792826102e39895928795899594610359575b508651809a8196829563a9059cbb60e01b845233908401602090939291936001600160a01b0360408201951681520152565b0393165af193841561034f577f3dfe9be199655709d01d635bf441264a809a090c98ed7aae9abdc85f7dcbc09d9394610322575b50519283523392a280f35b61034190833d8511610348575b610339818361121d565b81019061184a565b5038610317565b503d61032f565b81513d87823e3d90fd5b610371919450863d881161021457610206818361121d565b92386102b1565b87513d84823e3d90fd5b50903461022557806003193601126102255761039c6111a8565b6103a46111c3565b918051926312d43a5160e01b84526020946001600160a01b039486818381897f0000000000000000000000000000000000000000000000000000000000000000165afa90811561054c576104039187918a916105355750163314611274565b8484169461041286151561130a565b858852600587528388209260068401805460ff81166104f35760ff19166001179055169586610466575b8787877f15ad1d28b052a6cc2dd1d34d9e06a1847055d520e2163017e6e8aad6431b7f6a8380a380f35b8688528181528388209360ff600586015416156104b25750505090818573ffffffffffffffffffffffffffffffffffffffff196104a8959454161790556113a0565b388080808061043c565b60649350519162461bcd60e51b8352820152600f60248201527f414c4c595f4e4f545f41435449564500000000000000000000000000000000006044820152fd5b6064858b89519162461bcd60e51b8352820152601760248201527f52454645525245525f414c52454144595f4143544956450000000000000000006044820152fd5b61020e9150893d8b1161021457610206818361121d565b84513d8a823e3d90fd5b50829034610668576080366003190112610668576105726111a8565b918351907eb127830000000000000000000000000000000000000000000000000000000082526001600160a01b03916020818581867f0000000000000000000000000000000000000000000000000000000000000000165afa91821561065d579161063f575b501633036105fc576020836105f56064356044356024358761151f565b9051908152f35b606490602084519162461bcd60e51b8352820152600e60248201527f43414c4c4241434b535f4f4e4c590000000000000000000000000000000000006044820152fd5b610657915060203d811161021457610206818361121d565b856105d8565b8651903d90823e3d90fd5b5080fd5b5050346106685781600319360112610668576020906002549051908152f35b50503461066857602036600319011261066857602091816001600160a01b0391826106b46111a8565b168152600685522054169051908152f35b505034610668576020366003190112610668576020916001600160a01b0390816106ed6111a8565b16815260068452818382205416908181526005855260ff600685832001541660001461071d5750915b5191168152f35b905091610716565b5090346102255760209081600319360112610857576107426111a8565b8151906312d43a5160e01b82526001600160a01b039184818781867f0000000000000000000000000000000000000000000000000000000000000000165afa90811561084d5761079d91849189916108365750163314611274565b16926107aa84151561130a565b8385528083526005828620019283549260ff84166107f55750505060ff191660011790557f80495287b7fdd5e00b7c8c1eb065c5b63474d11ffb062cc82c13da77dda8424d8280a280f35b60649350519162461bcd60e51b8352820152601360248201527f414c4c595f414c52454144595f414354495645000000000000000000000000006044820152fd5b61020e9150873d891161021457610206818361121d565b84513d89823e3d90fd5b8380fd5b509034610225576020806003193601126108575791926001600160a01b0393846108836111a8565b1682528352818120938251908194808754938481520196845280842093915b8383106108c8576108c487876108ba828c038361121d565b51918291826111d9565b0390f35b84548116885296810196600194850194909201916108a2565b505034610668578160031936011261066857602091549051908152f35b5082903461066857602090816003193601126102255780359084516312d43a5160e01b81526001600160a01b039084818481857f0000000000000000000000000000000000000000000000000000000000000000165afa908115610a065790610971929187916109e95750163314611274565b81156109a757507f62c913df1aba1897f65b2df8e0d7e2c7fb00de03742aa9570d5ab3a19d1201a692938160035551908152a180f35b6064908386519162461bcd60e51b8352820152600760248201527f56414c55455f30000000000000000000000000000000000000000000000000006044820152fd5b610a009150863d881161021457610206818361121d565b886101cc565b87513d88823e3d90fd5b50829034610668578260031936011261066857610a2b6111a8565b610a336111c3565b9184517fec44acf20000000000000000000000000000000000000000000000000000000081526001600160a01b03906020818481857f0000000000000000000000000000000000000000000000000000000000000000165afa908115610a06578691610af3575b50163303610ab0575090610aad91611409565b80f35b606490602086519162461bcd60e51b8352820152600c60248201527f54524144494e475f4f4e4c5900000000000000000000000000000000000000006044820152fd5b610b0b915060203d811161021457610206818361121d565b87610a9a565b50346102255760203660031901126102255780359082516312d43a5160e01b81526020816001600160a01b039381857f0000000000000000000000000000000000000000000000000000000000000000165afa90811561021b57602093927f2f33e68d48a82acaa58e3dcb12a4c7738cdfe7041d35f0e29ec8c39b780b370c9592610ba59288916101ee5750163314611274565b610bb260328311156112bf565b81855551908152a180f35b503461022557602036600319011261022557610bd76111a8565b918051926312d43a5160e01b84526001600160a01b03906020858581857f0000000000000000000000000000000000000000000000000000000000000000165afa948515610c95578260059596610c37928991610c7d5750163314611274565b16928385526020528320018054610c5060ff8216611355565b60ff191690557f6900afc1a924abca16a7f560e2dac3d71008c1cd1d88de8a85b6e4267116d1868280a280f35b61020e915060203d811161021457610206818361121d565b83513d88823e3d90fd5b509134610cbf576020366003190112610cbf57506105f5602092356118d8565b80fd5b50346102255760203660031901126102255760c092826001600160a01b039182610cea6111a8565b16815260056020522090815416926002820154926003830154908301549160ff6006600586015495015416948151968752602087015285015260608401526080830152151560a0820152f35b5050346106685781600319360112610668576020906003549051908152f35b50346102255782600319360112610225573383526020600581526003838520019184835493610d858515156117ff565b55835190637e062a3560e11b8252856001600160a01b0384848481847f0000000000000000000000000000000000000000000000000000000000000000165afa938415610378579282610e0f989592879589959461035957508651809a8196829563a9059cbb60e01b845233908401602090939291936001600160a01b0360408201951681520152565b0393165af193841561034f577f25deb48f8299e9863bda34f0d343d51341ac7ac30bf63dbeb2e8212bc4a20bf193946103225750519283523392a280f35b509034610225576020366003190112610225578060a0936001600160a01b03610e746111a8565b168152836020522060018101549260028201549260ff6005600385015493850154940154169381519586526020860152840152606083015215156080820152f35b503461022557602036600319011261022557610ecf6111a8565b908251916312d43a5160e01b83526020836001600160a01b039381857f0000000000000000000000000000000000000000000000000000000000000000165afa801561021b5782610f2c916006958891610c7d5750163314611274565b169182845260056020528320018054610f4760ff8216611355565b60ff191690557f6dd169357c2e2b04fd13a8807a11892b88875b7c70eeb73c3b6642c58516f0db8280a280f35b509134610cbf5781600319360112610cbf57506105f56020926024359035611862565b5050346106685760209081600319360112610225576001600160a01b039283610fbe6111a8565b1681526005835260018083832001948351908195808854938481520197855280852094915b838310610ffb576108c488886108ba828d038361121d565b855481168952978101979484019491840191610fe3565b505034610668576020366003190112610668576105f56002826020946001600160a01b038061103f6111a8565b1682526006875282822054168152600586522001546118d8565b5050346106685781600319360112610668576020906001549051908152f35b505034610668578160031936011261066857602090516001600160a01b037f0000000000000000000000000000000000000000000000000000000000000000168152f35b84929150346102255760209182600319360112610857578035916312d43a5160e01b81526001600160a01b039084818481857f0000000000000000000000000000000000000000000000000000000000000000165afa908115610a06579061112e929187916109e95750163314611274565b6064821161116657507fb85b70acaeb40f1a2351367c48842ee0ea24ec05d411d99d80bf7a020c0dbb0f92938160015551908152a180f35b6064908386519162461bcd60e51b8352820152600f60248201527f56414c55455f41424f56455f31303000000000000000000000000000000000006044820152fd5b600435906001600160a01b03821682036111be57565b600080fd5b602435906001600160a01b03821682036111be57565b6020908160408183019282815285518094520193019160005b828110611200575050505090565b83516001600160a01b0316855293810193928101926001016111f2565b90601f8019910116810190811067ffffffffffffffff82111761123f57604052565b634e487b7160e01b600052604160045260246000fd5b908160209103126111be57516001600160a01b03811681036111be5790565b1561127b57565b606460405162461bcd60e51b815260206004820152600860248201527f474f565f4f4e4c590000000000000000000000000000000000000000000000006044820152fd5b156112c657565b606460405162461bcd60e51b815260206004820152600e60248201527f56414c55455f41424f56455f35300000000000000000000000000000000000006044820152fd5b1561131157565b606460405162461bcd60e51b815260206004820152600960248201527f414444524553535f3000000000000000000000000000000000000000000000006044820152fd5b1561135c57565b606460405162461bcd60e51b815260206004820152601060248201527f414c52454144595f554e414354495645000000000000000000000000000000006044820152fd5b80546801000000000000000081101561123f57600181018083558110156113f3576001600160a01b0391600052602060002001911673ffffffffffffffffffffffffffffffffffffffff19825416179055565b634e487b7160e01b600052603260045260246000fd5b6001600160a01b038092169160008381526005602052604081209180841693848352600660205260408320918254908116158015906114b4575b80156114a5575b61149c577f0e67f4bbcd5c51b7365ca2dd861dc8094e393ca60de2ceae9d831761a839e92a94611498938873ffffffffffffffffffffffffffffffffffffffff1960019416179055016113a0565b80a3565b50505050505050565b5060ff6006860154161561144a565b508615611443565b818102929181159184041417156114cf57565b634e487b7160e01b600052601160045260246000fd5b81156114ef570490565b634e487b7160e01b600052601260045260246000fd5b919082018092116114cf57565b919082039182116114cf57565b9190916000916001600160a01b038092169182845260066020526040948186862054169283865260056020528686209060ff600683015416156117f35761157d969798606460028401926115836402540be4009a8b92865490611862565b876114bc565b0404978089029089820414891517156117df57906115a0916114e5565b93807f000000000000000000000000000000000000000000000000000000000000000016803b156117db5789809160648d51809481937f5378143e0000000000000000000000000000000000000000000000000000000083523060048401528b6024840152600160448401525af180156117d1576117a2575b5080835416895260046020528989208960ff6005830154166116cb575b505050866116c89960058594846116737f74e9754b45c636e199e3d7bb764fae1a9acce47a984d10dcfd74849ec4babc4f99986116c09754611505565b905560038101611684888254611505565b905560048101611695888254611505565b9055016116a3838254611505565b905551938493846040919493926060820195825260208201520152565b0390a3611505565b90565b889192959496999a5054916116e0838c6114bc565b606490049a6116f08c948c6114bc565b60649004938260018694018881549061170891611505565b9055600281018481549061171b91611505565b9055600381018481549061172e91611505565b90556004018181549061174091611505565b905561174b91611512565b998a9361175791611512565b87548d518781526020810193909352604083018d9052909616907f0d54fedb563328d37f00fe5ba0bf7689519f8cf02318562adfe7b4bfab8cf4b490606090a3388095939495611636565b67ffffffffffffffff819a929a116117bd578a529738611619565b602482634e487b7160e01b81526041600452fd5b8b513d8c823e3d90fd5b8980fd5b60248a634e487b7160e01b81526011600452fd5b50505050505091505090565b1561180657565b606460405162461bcd60e51b815260206004820152601260248201527f4e4f5f50454e44494e475f5245574152445300000000000000000000000000006044820152fd5b908160209103126111be575180151581036111be5790565b8060011b90808204600214901517156114cf5760646118876118c792600254906114bc565b04916118c1670de0b6b3a76400006118b760646118a6600154886114bc565b04936118b28588611512565b6114bc565b04600354906114e5565b90611505565b818111156118d3575090565b905090565b6002546001546402540be40092838202918083048514811517156114cf57848202918083048614901517156114cf57606403606481116114cf576064926118c1670de0b6b3a76400006118b761193194611937966114bc565b836114bc565b04908281029281840414901517156114cf57818111156118d357509056fea26469706673582212201b3b71c90f3b1351e4fea44d7c5787e599ab4c58a0670995d0334d777101aee364736f6c63430008140033",
  "libraries": {},
  "devdoc": {
    "kind": "dev",
    "methods": {},
    "version": 1
  },
  "userdoc": {
    "kind": "user",
    "methods": {},
    "version": 1
  },
  "storageLayout": {
    "storage": [
      {
        "astId": 16339,
        "contract": "contracts/contracts/GNSReferralsV6_2.sol:GNSReferralsV6_2",
        "label": "allyFeeP",
        "offset": 0,
        "slot": "0",
        "type": "t_uint256"
      },
      {
        "astId": 16341,
        "contract": "contracts/contracts/GNSReferralsV6_2.sol:GNSReferralsV6_2",
        "label": "startReferrerFeeP",
        "offset": 0,
        "slot": "1",
        "type": "t_uint256"
      },
      {
        "astId": 16343,
        "contract": "contracts/contracts/GNSReferralsV6_2.sol:GNSReferralsV6_2",
        "label": "openFeeP",
        "offset": 0,
        "slot": "2",
        "type": "t_uint256"
      },
      {
        "astId": 16345,
        "contract": "contracts/contracts/GNSReferralsV6_2.sol:GNSReferralsV6_2",
        "label": "targetVolumeDai",
        "offset": 0,
        "slot": "3",
        "type": "t_uint256"
      },
      {
        "astId": 16380,
        "contract": "contracts/contracts/GNSReferralsV6_2.sol:GNSReferralsV6_2",
        "label": "allyDetails",
        "offset": 0,
        "slot": "4",
        "type": "t_mapping(t_address,t_struct(AllyDetails)16359_storage)"
      },
      {
        "astId": 16385,
        "contract": "contracts/contracts/GNSReferralsV6_2.sol:GNSReferralsV6_2",
        "label": "referrerDetails",
        "offset": 0,
        "slot": "5",
        "type": "t_mapping(t_address,t_struct(ReferrerDetails)16375_storage)"
      },
      {
        "astId": 16389,
        "contract": "contracts/contracts/GNSReferralsV6_2.sol:GNSReferralsV6_2",
        "label": "referrerByTrader",
        "offset": 0,
        "slot": "6",
        "type": "t_mapping(t_address,t_address)"
      }
    ],
    "types": {
      "t_address": {
        "encoding": "inplace",
        "label": "address",
        "numberOfBytes": "20"
      },
      "t_array(t_address)dyn_storage": {
        "base": "t_address",
        "encoding": "dynamic_array",
        "label": "address[]",
        "numberOfBytes": "32"
      },
      "t_bool": {
        "encoding": "inplace",
        "label": "bool",
        "numberOfBytes": "1"
      },
      "t_mapping(t_address,t_address)": {
        "encoding": "mapping",
        "key": "t_address",
        "label": "mapping(address => address)",
        "numberOfBytes": "32",
        "value": "t_address"
      },
      "t_mapping(t_address,t_struct(AllyDetails)16359_storage)": {
        "encoding": "mapping",
        "key": "t_address",
        "label": "mapping(address => struct GNSReferralsV6_2.AllyDetails)",
        "numberOfBytes": "32",
        "value": "t_struct(AllyDetails)16359_storage"
      },
      "t_mapping(t_address,t_struct(ReferrerDetails)16375_storage)": {
        "encoding": "mapping",
        "key": "t_address",
        "label": "mapping(address => struct GNSReferralsV6_2.ReferrerDetails)",
        "numberOfBytes": "32",
        "value": "t_struct(ReferrerDetails)16375_storage"
      },
      "t_struct(AllyDetails)16359_storage": {
        "encoding": "inplace",
        "label": "struct GNSReferralsV6_2.AllyDetails",
        "members": [
          {
            "astId": 16348,
            "contract": "contracts/contracts/GNSReferralsV6_2.sol:GNSReferralsV6_2",
            "label": "referrersReferred",
            "offset": 0,
            "slot": "0",
            "type": "t_array(t_address)dyn_storage"
          },
          {
            "astId": 16350,
            "contract": "contracts/contracts/GNSReferralsV6_2.sol:GNSReferralsV6_2",
            "label": "volumeReferredDai",
            "offset": 0,
            "slot": "1",
            "type": "t_uint256"
          },
          {
            "astId": 16352,
            "contract": "contracts/contracts/GNSReferralsV6_2.sol:GNSReferralsV6_2",
            "label": "pendingRewardsToken",
            "offset": 0,
            "slot": "2",
            "type": "t_uint256"
          },
          {
            "astId": 16354,
            "contract": "contracts/contracts/GNSReferralsV6_2.sol:GNSReferralsV6_2",
            "label": "totalRewardsToken",
            "offset": 0,
            "slot": "3",
            "type": "t_uint256"
          },
          {
            "astId": 16356,
            "contract": "contracts/contracts/GNSReferralsV6_2.sol:GNSReferralsV6_2",
            "label": "totalRewardsValueDai",
            "offset": 0,
            "slot": "4",
            "type": "t_uint256"
          },
          {
            "astId": 16358,
            "contract": "contracts/contracts/GNSReferralsV6_2.sol:GNSReferralsV6_2",
            "label": "active",
            "offset": 0,
            "slot": "5",
            "type": "t_bool"
          }
        ],
        "numberOfBytes": "192"
      },
      "t_struct(ReferrerDetails)16375_storage": {
        "encoding": "inplace",
        "label": "struct GNSReferralsV6_2.ReferrerDetails",
        "members": [
          {
            "astId": 16361,
            "contract": "contracts/contracts/GNSReferralsV6_2.sol:GNSReferralsV6_2",
            "label": "ally",
            "offset": 0,
            "slot": "0",
            "type": "t_address"
          },
          {
            "astId": 16364,
            "contract": "contracts/contracts/GNSReferralsV6_2.sol:GNSReferralsV6_2",
            "label": "tradersReferred",
            "offset": 0,
            "slot": "1",
            "type": "t_array(t_address)dyn_storage"
          },
          {
            "astId": 16366,
            "contract": "contracts/contracts/GNSReferralsV6_2.sol:GNSReferralsV6_2",
            "label": "volumeReferredDai",
            "offset": 0,
            "slot": "2",
            "type": "t_uint256"
          },
          {
            "astId": 16368,
            "contract": "contracts/contracts/GNSReferralsV6_2.sol:GNSReferralsV6_2",
            "label": "pendingRewardsToken",
            "offset": 0,
            "slot": "3",
            "type": "t_uint256"
          },
          {
            "astId": 16370,
            "contract": "contracts/contracts/GNSReferralsV6_2.sol:GNSReferralsV6_2",
            "label": "totalRewardsToken",
            "offset": 0,
            "slot": "4",
            "type": "t_uint256"
          },
          {
            "astId": 16372,
            "contract": "contracts/contracts/GNSReferralsV6_2.sol:GNSReferralsV6_2",
            "label": "totalRewardsValueDai",
            "offset": 0,
            "slot": "5",
            "type": "t_uint256"
          },
          {
            "astId": 16374,
            "contract": "contracts/contracts/GNSReferralsV6_2.sol:GNSReferralsV6_2",
            "label": "active",
            "offset": 0,
            "slot": "6",
            "type": "t_bool"
          }
        ],
        "numberOfBytes": "224"
      },
      "t_uint256": {
        "encoding": "inplace",
        "label": "uint256",
        "numberOfBytes": "32"
      }
    }
  }
}