{
  "address": "0x634791A496901e1Df81DE65f9D687116bFc7b4E6",
  "abi": [
    {
      "anonymous": false,
      "inputs": [
        {
          "indexed": false,
          "internalType": "uint256",
          "name": "newAccValue",
          "type": "uint256"
        }
      ],
      "name": "AccBlockWeightedMarketCapStored",
      "type": "event"
    },
    {
      "anonymous": false,
      "inputs": [
        {
          "indexed": true,
          "internalType": "address",
          "name": "sender",
          "type": "address"
        },
        {
          "indexed": true,
          "internalType": "uint256",
          "name": "newEpoch",
          "type": "uint256"
        },
        {
          "indexed": false,
          "internalType": "uint256",
          "name": "prevPositiveOpenPnl",
          "type": "uint256"
        },
        {
          "indexed": false,
          "internalType": "uint256",
          "name": "newPositiveOpenPnl",
          "type": "uint256"
        },
        {
          "indexed": false,
          "internalType": "uint256",
          "name": "newEpochPositiveOpenPnl",
          "type": "uint256"
        },
        {
          "indexed": false,
          "internalType": "int256",
          "name": "newAccPnlPerTokenUsed",
          "type": "int256"
        }
      ],
      "name": "AccPnlPerTokenUsedUpdated",
      "type": "event"
    },
    {
      "anonymous": false,
      "inputs": [
        {
          "indexed": false,
          "internalType": "string",
          "name": "name",
          "type": "string"
        },
        {
          "indexed": false,
          "internalType": "address",
          "name": "newValue",
          "type": "address"
        }
      ],
      "name": "AddressParamUpdated",
      "type": "event"
    },
    {
      "anonymous": false,
      "inputs": [
        {
          "indexed": true,
          "internalType": "address",
          "name": "owner",
          "type": "address"
        },
        {
          "indexed": true,
          "internalType": "address",
          "name": "spender",
          "type": "address"
        },
        {
          "indexed": false,
          "internalType": "uint256",
          "name": "value",
          "type": "uint256"
        }
      ],
      "name": "Approval",
      "type": "event"
    },
    {
      "anonymous": false,
      "inputs": [
        {
          "indexed": true,
          "internalType": "address",
          "name": "sender",
          "type": "address"
        },
        {
          "indexed": true,
          "internalType": "address",
          "name": "user",
          "type": "address"
        },
        {
          "indexed": false,
          "internalType": "uint256",
          "name": "assets",
          "type": "uint256"
        },
        {
          "indexed": false,
          "internalType": "uint256",
          "name": "assetsLessDeplete",
          "type": "uint256"
        }
      ],
      "name": "AssetsReceived",
      "type": "event"
    },
    {
      "anonymous": false,
      "inputs": [
        {
          "indexed": true,
          "internalType": "address",
          "name": "sender",
          "type": "address"
        },
        {
          "indexed": true,
          "internalType": "address",
          "name": "receiver",
          "type": "address"
        },
        {
          "indexed": false,
          "internalType": "uint256",
          "name": "assets",
          "type": "uint256"
        }
      ],
      "name": "AssetsSent",
      "type": "event"
    },
    {
      "anonymous": false,
      "inputs": [
        {
          "indexed": false,
          "internalType": "uint256",
          "name": "newValue",
          "type": "uint256"
        }
      ],
      "name": "CurrentMaxSupplyUpdated",
      "type": "event"
    },
    {
      "anonymous": false,
      "inputs": [],
      "name": "DailyAccPnlDeltaReset",
      "type": "event"
    },
    {
      "anonymous": false,
      "inputs": [
        {
          "indexed": true,
          "internalType": "address",
          "name": "sender",
          "type": "address"
        },
        {
          "indexed": false,
          "internalType": "uint256",
          "name": "assets",
          "type": "uint256"
        },
        {
          "indexed": false,
          "internalType": "uint256",
          "name": "amountGns",
          "type": "uint256"
        }
      ],
      "name": "Depleted",
      "type": "event"
    },
    {
      "anonymous": false,
      "inputs": [
        {
          "indexed": true,
          "internalType": "address",
          "name": "sender",
          "type": "address"
        },
        {
          "indexed": true,
          "internalType": "address",
          "name": "owner",
          "type": "address"
        },
        {
          "indexed": false,
          "internalType": "uint256",
          "name": "assets",
          "type": "uint256"
        },
        {
          "indexed": false,
          "internalType": "uint256",
          "name": "shares",
          "type": "uint256"
        }
      ],
      "name": "Deposit",
      "type": "event"
    },
    {
      "anonymous": false,
      "inputs": [
        {
          "indexed": true,
          "internalType": "address",
          "name": "sender",
          "type": "address"
        },
        {
          "indexed": true,
          "internalType": "address",
          "name": "owner",
          "type": "address"
        },
        {
          "indexed": false,
          "internalType": "uint256",
          "name": "depositId",
          "type": "uint256"
        },
        {
          "components": [
            {
              "internalType": "address",
              "name": "owner",
              "type": "address"
            },
            {
              "internalType": "uint256",
              "name": "shares",
              "type": "uint256"
            },
            {
              "internalType": "uint256",
              "name": "assetsDeposited",
              "type": "uint256"
            },
            {
              "internalType": "uint256",
              "name": "assetsDiscount",
              "type": "uint256"
            },
            {
              "internalType": "uint256",
              "name": "atTimestamp",
              "type": "uint256"
            },
            {
              "internalType": "uint256",
              "name": "lockDuration",
              "type": "uint256"
            }
          ],
          "indexed": false,
          "internalType": "struct IGToken.LockedDeposit",
          "name": "d",
          "type": "tuple"
        }
      ],
      "name": "DepositLocked",
      "type": "event"
    },
    {
      "anonymous": false,
      "inputs": [
        {
          "indexed": true,
          "internalType": "address",
          "name": "sender",
          "type": "address"
        },
        {
          "indexed": true,
          "internalType": "address",
          "name": "receiver",
          "type": "address"
        },
        {
          "indexed": true,
          "internalType": "address",
          "name": "owner",
          "type": "address"
        },
        {
          "indexed": false,
          "internalType": "uint256",
          "name": "depositId",
          "type": "uint256"
        },
        {
          "components": [
            {
              "internalType": "address",
              "name": "owner",
              "type": "address"
            },
            {
              "internalType": "uint256",
              "name": "shares",
              "type": "uint256"
            },
            {
              "internalType": "uint256",
              "name": "assetsDeposited",
              "type": "uint256"
            },
            {
              "internalType": "uint256",
              "name": "assetsDiscount",
              "type": "uint256"
            },
            {
              "internalType": "uint256",
              "name": "atTimestamp",
              "type": "uint256"
            },
            {
              "internalType": "uint256",
              "name": "lockDuration",
              "type": "uint256"
            }
          ],
          "indexed": false,
          "internalType": "struct IGToken.LockedDeposit",
          "name": "d",
          "type": "tuple"
        }
      ],
      "name": "DepositUnlocked",
      "type": "event"
    },
    {
      "anonymous": false,
      "inputs": [
        {
          "indexed": false,
          "internalType": "uint8",
          "name": "version",
          "type": "uint8"
        }
      ],
      "name": "Initialized",
      "type": "event"
    },
    {
      "anonymous": false,
      "inputs": [
        {
          "indexed": false,
          "internalType": "string",
          "name": "name",
          "type": "string"
        },
        {
          "indexed": false,
          "internalType": "uint256",
          "name": "newValue",
          "type": "uint256"
        }
      ],
      "name": "NumberParamUpdated",
      "type": "event"
    },
    {
      "anonymous": false,
      "inputs": [],
      "name": "OpenTradesPnlFeedCallFailed",
      "type": "event"
    },
    {
      "anonymous": false,
      "inputs": [
        {
          "indexed": true,
          "internalType": "address",
          "name": "previousOwner",
          "type": "address"
        },
        {
          "indexed": true,
          "internalType": "address",
          "name": "newOwner",
          "type": "address"
        }
      ],
      "name": "OwnershipTransferred",
      "type": "event"
    },
    {
      "anonymous": false,
      "inputs": [
        {
          "indexed": true,
          "internalType": "address",
          "name": "sender",
          "type": "address"
        },
        {
          "indexed": false,
          "internalType": "uint256",
          "name": "assets",
          "type": "uint256"
        },
        {
          "indexed": false,
          "internalType": "uint256",
          "name": "amountGns",
          "type": "uint256"
        }
      ],
      "name": "Refilled",
      "type": "event"
    },
    {
      "anonymous": false,
      "inputs": [
        {
          "indexed": true,
          "internalType": "address",
          "name": "sender",
          "type": "address"
        },
        {
          "indexed": false,
          "internalType": "uint256",
          "name": "assets",
          "type": "uint256"
        }
      ],
      "name": "RewardDistributed",
      "type": "event"
    },
    {
      "anonymous": false,
      "inputs": [
        {
          "indexed": false,
          "internalType": "uint256",
          "name": "newValue",
          "type": "uint256"
        }
      ],
      "name": "ShareToAssetsPriceUpdated",
      "type": "event"
    },
    {
      "anonymous": false,
      "inputs": [
        {
          "indexed": true,
          "internalType": "address",
          "name": "from",
          "type": "address"
        },
        {
          "indexed": true,
          "internalType": "address",
          "name": "to",
          "type": "address"
        },
        {
          "indexed": false,
          "internalType": "uint256",
          "name": "value",
          "type": "uint256"
        }
      ],
      "name": "Transfer",
      "type": "event"
    },
    {
      "anonymous": false,
      "inputs": [
        {
          "indexed": true,
          "internalType": "address",
          "name": "sender",
          "type": "address"
        },
        {
          "indexed": true,
          "internalType": "address",
          "name": "receiver",
          "type": "address"
        },
        {
          "indexed": true,
          "internalType": "address",
          "name": "owner",
          "type": "address"
        },
        {
          "indexed": false,
          "internalType": "uint256",
          "name": "assets",
          "type": "uint256"
        },
        {
          "indexed": false,
          "internalType": "uint256",
          "name": "shares",
          "type": "uint256"
        }
      ],
      "name": "Withdraw",
      "type": "event"
    },
    {
      "anonymous": false,
      "inputs": [
        {
          "indexed": true,
          "internalType": "address",
          "name": "sender",
          "type": "address"
        },
        {
          "indexed": true,
          "internalType": "address",
          "name": "owner",
          "type": "address"
        },
        {
          "indexed": false,
          "internalType": "uint256",
          "name": "shares",
          "type": "uint256"
        },
        {
          "indexed": false,
          "internalType": "uint256",
          "name": "currEpoch",
          "type": "uint256"
        },
        {
          "indexed": true,
          "internalType": "uint256",
          "name": "unlockEpoch",
          "type": "uint256"
        }
      ],
      "name": "WithdrawCanceled",
      "type": "event"
    },
    {
      "anonymous": false,
      "inputs": [
        {
          "indexed": false,
          "internalType": "uint256[2]",
          "name": "newValue",
          "type": "uint256[2]"
        }
      ],
      "name": "WithdrawLockThresholdsPUpdated",
      "type": "event"
    },
    {
      "anonymous": false,
      "inputs": [
        {
          "indexed": true,
          "internalType": "address",
          "name": "sender",
          "type": "address"
        },
        {
          "indexed": true,
          "internalType": "address",
          "name": "owner",
          "type": "address"
        },
        {
          "indexed": false,
          "internalType": "uint256",
          "name": "shares",
          "type": "uint256"
        },
        {
          "indexed": false,
          "internalType": "uint256",
          "name": "currEpoch",
          "type": "uint256"
        },
        {
          "indexed": true,
          "internalType": "uint256",
          "name": "unlockEpoch",
          "type": "uint256"
        }
      ],
      "name": "WithdrawRequested",
      "type": "event"
    },
    {
      "inputs": [],
      "name": "MIN_LOCK_DURATION",
      "outputs": [
        {
          "internalType": "uint256",
          "name": "",
          "type": "uint256"
        }
      ],
      "stateMutability": "view",
      "type": "function"
    },
    {
      "inputs": [],
      "name": "accBlockWeightedMarketCap",
      "outputs": [
        {
          "internalType": "uint256",
          "name": "",
          "type": "uint256"
        }
      ],
      "stateMutability": "view",
      "type": "function"
    },
    {
      "inputs": [],
      "name": "accBlockWeightedMarketCapLastStored",
      "outputs": [
        {
          "internalType": "uint256",
          "name": "",
          "type": "uint256"
        }
      ],
      "stateMutability": "view",
      "type": "function"
    },
    {
      "inputs": [],
      "name": "accPnlPerToken",
      "outputs": [
        {
          "internalType": "int256",
          "name": "",
          "type": "int256"
        }
      ],
      "stateMutability": "view",
      "type": "function"
    },
    {
      "inputs": [],
      "name": "accPnlPerTokenUsed",
      "outputs": [
        {
          "internalType": "int256",
          "name": "",
          "type": "int256"
        }
      ],
      "stateMutability": "view",
      "type": "function"
    },
    {
      "inputs": [],
      "name": "accRewardsPerToken",
      "outputs": [
        {
          "internalType": "uint256",
          "name": "",
          "type": "uint256"
        }
      ],
      "stateMutability": "view",
      "type": "function"
    },
    {
      "inputs": [],
      "name": "admin",
      "outputs": [
        {
          "internalType": "address",
          "name": "",
          "type": "address"
        }
      ],
      "stateMutability": "view",
      "type": "function"
    },
    {
      "inputs": [
        {
          "internalType": "address",
          "name": "owner",
          "type": "address"
        },
        {
          "internalType": "address",
          "name": "spender",
          "type": "address"
        }
      ],
      "name": "allowance",
      "outputs": [
        {
          "internalType": "uint256",
          "name": "",
          "type": "uint256"
        }
      ],
      "stateMutability": "view",
      "type": "function"
    },
    {
      "inputs": [
        {
          "internalType": "address",
          "name": "spender",
          "type": "address"
        },
        {
          "internalType": "uint256",
          "name": "amount",
          "type": "uint256"
        }
      ],
      "name": "approve",
      "outputs": [
        {
          "internalType": "bool",
          "name": "",
          "type": "bool"
        }
      ],
      "stateMutability": "nonpayable",
      "type": "function"
    },
    {
      "inputs": [],
      "name": "asset",
      "outputs": [
        {
          "internalType": "address",
          "name": "",
          "type": "address"
        }
      ],
      "stateMutability": "view",
      "type": "function"
    },
    {
      "inputs": [],
      "name": "assetsToDeplete",
      "outputs": [
        {
          "internalType": "uint256",
          "name": "",
          "type": "uint256"
        }
      ],
      "stateMutability": "view",
      "type": "function"
    },
    {
      "inputs": [],
      "name": "availableAssets",
      "outputs": [
        {
          "internalType": "uint256",
          "name": "",
          "type": "uint256"
        }
      ],
      "stateMutability": "view",
      "type": "function"
    },
    {
      "inputs": [
        {
          "internalType": "address",
          "name": "account",
          "type": "address"
        }
      ],
      "name": "balanceOf",
      "outputs": [
        {
          "internalType": "uint256",
          "name": "",
          "type": "uint256"
        }
      ],
      "stateMutability": "view",
      "type": "function"
    },
    {
      "inputs": [
        {
          "internalType": "uint256",
          "name": "shares",
          "type": "uint256"
        },
        {
          "internalType": "address",
          "name": "owner",
          "type": "address"
        },
        {
          "internalType": "uint256",
          "name": "unlockEpoch",
          "type": "uint256"
        }
      ],
      "name": "cancelWithdrawRequest",
      "outputs": [],
      "stateMutability": "nonpayable",
      "type": "function"
    },
    {
      "inputs": [],
      "name": "collateralizationP",
      "outputs": [
        {
          "internalType": "uint256",
          "name": "",
          "type": "uint256"
        }
      ],
      "stateMutability": "view",
      "type": "function"
    },
    {
      "inputs": [
        {
          "internalType": "uint256",
          "name": "shares",
          "type": "uint256"
        }
      ],
      "name": "convertToAssets",
      "outputs": [
        {
          "internalType": "uint256",
          "name": "assets",
          "type": "uint256"
        }
      ],
      "stateMutability": "view",
      "type": "function"
    },
    {
      "inputs": [
        {
          "internalType": "uint256",
          "name": "assets",
          "type": "uint256"
        }
      ],
      "name": "convertToShares",
      "outputs": [
        {
          "internalType": "uint256",
          "name": "shares",
          "type": "uint256"
        }
      ],
      "stateMutability": "view",
      "type": "function"
    },
    {
      "inputs": [],
      "name": "currentBalanceDai",
      "outputs": [
        {
          "internalType": "uint256",
          "name": "",
          "type": "uint256"
        }
      ],
      "stateMutability": "view",
      "type": "function"
    },
    {
      "inputs": [],
      "name": "currentEpoch",
      "outputs": [
        {
          "internalType": "uint256",
          "name": "",
          "type": "uint256"
        }
      ],
      "stateMutability": "view",
      "type": "function"
    },
    {
      "inputs": [],
      "name": "currentEpochPositiveOpenPnl",
      "outputs": [
        {
          "internalType": "uint256",
          "name": "",
          "type": "uint256"
        }
      ],
      "stateMutability": "view",
      "type": "function"
    },
    {
      "inputs": [],
      "name": "currentEpochStart",
      "outputs": [
        {
          "internalType": "uint256",
          "name": "",
          "type": "uint256"
        }
      ],
      "stateMutability": "view",
      "type": "function"
    },
    {
      "inputs": [],
      "name": "currentMaxSupply",
      "outputs": [
        {
          "internalType": "uint256",
          "name": "",
          "type": "uint256"
        }
      ],
      "stateMutability": "view",
      "type": "function"
    },
    {
      "inputs": [],
      "name": "dailyAccPnlDelta",
      "outputs": [
        {
          "internalType": "int256",
          "name": "",
          "type": "int256"
        }
      ],
      "stateMutability": "view",
      "type": "function"
    },
    {
      "inputs": [],
      "name": "decimals",
      "outputs": [
        {
          "internalType": "uint8",
          "name": "",
          "type": "uint8"
        }
      ],
      "stateMutability": "view",
      "type": "function"
    },
    {
      "inputs": [
        {
          "internalType": "address",
          "name": "spender",
          "type": "address"
        },
        {
          "internalType": "uint256",
          "name": "subtractedValue",
          "type": "uint256"
        }
      ],
      "name": "decreaseAllowance",
      "outputs": [
        {
          "internalType": "bool",
          "name": "",
          "type": "bool"
        }
      ],
      "stateMutability": "nonpayable",
      "type": "function"
    },
    {
      "inputs": [
        {
          "internalType": "uint256",
          "name": "assets",
          "type": "uint256"
        }
      ],
      "name": "deplete",
      "outputs": [],
      "stateMutability": "nonpayable",
      "type": "function"
    },
    {
      "inputs": [
        {
          "internalType": "uint256",
          "name": "assets",
          "type": "uint256"
        },
        {
          "internalType": "address",
          "name": "receiver",
          "type": "address"
        }
      ],
      "name": "deposit",
      "outputs": [
        {
          "internalType": "uint256",
          "name": "",
          "type": "uint256"
        }
      ],
      "stateMutability": "nonpayable",
      "type": "function"
    },
    {
      "inputs": [
        {
          "internalType": "uint256",
          "name": "assets",
          "type": "uint256"
        },
        {
          "internalType": "uint256",
          "name": "lockDuration",
          "type": "uint256"
        },
        {
          "internalType": "address",
          "name": "receiver",
          "type": "address"
        }
      ],
      "name": "depositWithDiscountAndLock",
      "outputs": [
        {
          "internalType": "uint256",
          "name": "",
          "type": "uint256"
        }
      ],
      "stateMutability": "nonpayable",
      "type": "function"
    },
    {
      "inputs": [
        {
          "internalType": "uint256",
          "name": "assets",
          "type": "uint256"
        }
      ],
      "name": "distributeReward",
      "outputs": [],
      "stateMutability": "nonpayable",
      "type": "function"
    },
    {
      "inputs": [
        {
          "internalType": "uint256",
          "name": "depositId",
          "type": "uint256"
        }
      ],
      "name": "getLockedDeposit",
      "outputs": [
        {
          "components": [
            {
              "internalType": "address",
              "name": "owner",
              "type": "address"
            },
            {
              "internalType": "uint256",
              "name": "shares",
              "type": "uint256"
            },
            {
              "internalType": "uint256",
              "name": "assetsDeposited",
              "type": "uint256"
            },
            {
              "internalType": "uint256",
              "name": "assetsDiscount",
              "type": "uint256"
            },
            {
              "internalType": "uint256",
              "name": "atTimestamp",
              "type": "uint256"
            },
            {
              "internalType": "uint256",
              "name": "lockDuration",
              "type": "uint256"
            }
          ],
          "internalType": "struct IGToken.LockedDeposit",
          "name": "",
          "type": "tuple"
        }
      ],
      "stateMutability": "view",
      "type": "function"
    },
    {
      "inputs": [
        {
          "internalType": "uint256",
          "name": "currentBlock",
          "type": "uint256"
        }
      ],
      "name": "getPendingAccBlockWeightedMarketCap",
      "outputs": [
        {
          "internalType": "uint256",
          "name": "",
          "type": "uint256"
        }
      ],
      "stateMutability": "view",
      "type": "function"
    },
    {
      "inputs": [
        {
          "internalType": "address",
          "name": "spender",
          "type": "address"
        },
        {
          "internalType": "uint256",
          "name": "addedValue",
          "type": "uint256"
        }
      ],
      "name": "increaseAllowance",
      "outputs": [
        {
          "internalType": "bool",
          "name": "",
          "type": "bool"
        }
      ],
      "stateMutability": "nonpayable",
      "type": "function"
    },
    {
      "inputs": [
        {
          "internalType": "string",
          "name": "_name",
          "type": "string"
        },
        {
          "internalType": "string",
          "name": "_symbol",
          "type": "string"
        },
        {
          "components": [
            {
              "internalType": "address",
              "name": "asset",
              "type": "address"
            },
            {
              "internalType": "address",
              "name": "owner",
              "type": "address"
            },
            {
              "internalType": "address",
              "name": "manager",
              "type": "address"
            },
            {
              "internalType": "address",
              "name": "admin",
              "type": "address"
            },
            {
              "internalType": "address",
              "name": "gnsToken",
              "type": "address"
            },
            {
              "internalType": "address",
              "name": "lockedDepositNft",
              "type": "address"
            },
            {
              "internalType": "address",
              "name": "pnlHandler",
              "type": "address"
            },
            {
              "internalType": "address",
              "name": "openTradesPnlFeed",
              "type": "address"
            }
          ],
          "internalType": "struct GTokenV6_3_2.ContractAddresses",
          "name": "_contractAddresses",
          "type": "tuple"
        },
        {
          "internalType": "uint256",
          "name": "_MIN_LOCK_DURATION",
          "type": "uint256"
        },
        {
          "internalType": "uint256",
          "name": "_maxAccOpenPnlDelta",
          "type": "uint256"
        },
        {
          "internalType": "uint256",
          "name": "_maxDailyAccPnlDelta",
          "type": "uint256"
        },
        {
          "internalType": "uint256[2]",
          "name": "_withdrawLockThresholdsP",
          "type": "uint256[2]"
        },
        {
          "internalType": "uint256",
          "name": "_maxSupplyIncreaseDailyP",
          "type": "uint256"
        },
        {
          "internalType": "uint256",
          "name": "_lossesBurnP",
          "type": "uint256"
        },
        {
          "internalType": "uint256",
          "name": "_maxDiscountP",
          "type": "uint256"
        },
        {
          "internalType": "uint256",
          "name": "_maxDiscountThresholdP",
          "type": "uint256"
        }
      ],
      "name": "initialize",
      "outputs": [],
      "stateMutability": "nonpayable",
      "type": "function"
    },
    {
      "inputs": [],
      "name": "initializeV2",
      "outputs": [],
      "stateMutability": "nonpayable",
      "type": "function"
    },
    {
      "inputs": [],
      "name": "lastDailyAccPnlDeltaReset",
      "outputs": [
        {
          "internalType": "uint256",
          "name": "",
          "type": "uint256"
        }
      ],
      "stateMutability": "view",
      "type": "function"
    },
    {
      "inputs": [],
      "name": "lastMaxSupplyUpdate",
      "outputs": [
        {
          "internalType": "uint256",
          "name": "",
          "type": "uint256"
        }
      ],
      "stateMutability": "view",
      "type": "function"
    },
    {
      "inputs": [
        {
          "internalType": "uint256",
          "name": "collatP",
          "type": "uint256"
        },
        {
          "internalType": "uint256",
          "name": "lockDuration",
          "type": "uint256"
        }
      ],
      "name": "lockDiscountP",
      "outputs": [
        {
          "internalType": "uint256",
          "name": "",
          "type": "uint256"
        }
      ],
      "stateMutability": "view",
      "type": "function"
    },
    {
      "inputs": [],
      "name": "lockedDepositNft",
      "outputs": [
        {
          "internalType": "contract INft",
          "name": "",
          "type": "address"
        }
      ],
      "stateMutability": "view",
      "type": "function"
    },
    {
      "inputs": [
        {
          "internalType": "uint256",
          "name": "",
          "type": "uint256"
        }
      ],
      "name": "lockedDeposits",
      "outputs": [
        {
          "internalType": "address",
          "name": "owner",
          "type": "address"
        },
        {
          "internalType": "uint256",
          "name": "shares",
          "type": "uint256"
        },
        {
          "internalType": "uint256",
          "name": "assetsDeposited",
          "type": "uint256"
        },
        {
          "internalType": "uint256",
          "name": "assetsDiscount",
          "type": "uint256"
        },
        {
          "internalType": "uint256",
          "name": "atTimestamp",
          "type": "uint256"
        },
        {
          "internalType": "uint256",
          "name": "lockDuration",
          "type": "uint256"
        }
      ],
      "stateMutability": "view",
      "type": "function"
    },
    {
      "inputs": [],
      "name": "lockedDepositsCount",
      "outputs": [
        {
          "internalType": "uint256",
          "name": "",
          "type": "uint256"
        }
      ],
      "stateMutability": "view",
      "type": "function"
    },
    {
      "inputs": [],
      "name": "lossesBurnP",
      "outputs": [
        {
          "internalType": "uint256",
          "name": "",
          "type": "uint256"
        }
      ],
      "stateMutability": "view",
      "type": "function"
    },
    {
      "inputs": [
        {
          "internalType": "uint256",
          "name": "shares",
          "type": "uint256"
        },
        {
          "internalType": "address",
          "name": "owner",
          "type": "address"
        }
      ],
      "name": "makeWithdrawRequest",
      "outputs": [],
      "stateMutability": "nonpayable",
      "type": "function"
    },
    {
      "inputs": [],
      "name": "manager",
      "outputs": [
        {
          "internalType": "address",
          "name": "",
          "type": "address"
        }
      ],
      "stateMutability": "view",
      "type": "function"
    },
    {
      "inputs": [],
      "name": "marketCap",
      "outputs": [
        {
          "internalType": "uint256",
          "name": "",
          "type": "uint256"
        }
      ],
      "stateMutability": "view",
      "type": "function"
    },
    {
      "inputs": [],
      "name": "maxAccOpenPnlDelta",
      "outputs": [
        {
          "internalType": "uint256",
          "name": "",
          "type": "uint256"
        }
      ],
      "stateMutability": "view",
      "type": "function"
    },
    {
      "inputs": [],
      "name": "maxAccPnlPerToken",
      "outputs": [
        {
          "internalType": "uint256",
          "name": "",
          "type": "uint256"
        }
      ],
      "stateMutability": "view",
      "type": "function"
    },
    {
      "inputs": [],
      "name": "maxDailyAccPnlDelta",
      "outputs": [
        {
          "internalType": "uint256",
          "name": "",
          "type": "uint256"
        }
      ],
      "stateMutability": "view",
      "type": "function"
    },
    {
      "inputs": [
        {
          "internalType": "address",
          "name": "owner",
          "type": "address"
        }
      ],
      "name": "maxDeposit",
      "outputs": [
        {
          "internalType": "uint256",
          "name": "",
          "type": "uint256"
        }
      ],
      "stateMutability": "view",
      "type": "function"
    },
    {
      "inputs": [],
      "name": "maxDiscountP",
      "outputs": [
        {
          "internalType": "uint256",
          "name": "",
          "type": "uint256"
        }
      ],
      "stateMutability": "view",
      "type": "function"
    },
    {
      "inputs": [],
      "name": "maxDiscountThresholdP",
      "outputs": [
        {
          "internalType": "uint256",
          "name": "",
          "type": "uint256"
        }
      ],
      "stateMutability": "view",
      "type": "function"
    },
    {
      "inputs": [
        {
          "internalType": "address",
          "name": "",
          "type": "address"
        }
      ],
      "name": "maxMint",
      "outputs": [
        {
          "internalType": "uint256",
          "name": "",
          "type": "uint256"
        }
      ],
      "stateMutability": "view",
      "type": "function"
    },
    {
      "inputs": [
        {
          "internalType": "address",
          "name": "owner",
          "type": "address"
        }
      ],
      "name": "maxRedeem",
      "outputs": [
        {
          "internalType": "uint256",
          "name": "",
          "type": "uint256"
        }
      ],
      "stateMutability": "view",
      "type": "function"
    },
    {
      "inputs": [],
      "name": "maxSupplyIncreaseDailyP",
      "outputs": [
        {
          "internalType": "uint256",
          "name": "",
          "type": "uint256"
        }
      ],
      "stateMutability": "view",
      "type": "function"
    },
    {
      "inputs": [
        {
          "internalType": "address",
          "name": "owner",
          "type": "address"
        }
      ],
      "name": "maxWithdraw",
      "outputs": [
        {
          "internalType": "uint256",
          "name": "",
          "type": "uint256"
        }
      ],
      "stateMutability": "view",
      "type": "function"
    },
    {
      "inputs": [
        {
          "internalType": "uint256",
          "name": "shares",
          "type": "uint256"
        },
        {
          "internalType": "address",
          "name": "receiver",
          "type": "address"
        }
      ],
      "name": "mint",
      "outputs": [
        {
          "internalType": "uint256",
          "name": "",
          "type": "uint256"
        }
      ],
      "stateMutability": "nonpayable",
      "type": "function"
    },
    {
      "inputs": [
        {
          "internalType": "uint256",
          "name": "shares",
          "type": "uint256"
        },
        {
          "internalType": "uint256",
          "name": "lockDuration",
          "type": "uint256"
        },
        {
          "internalType": "address",
          "name": "receiver",
          "type": "address"
        }
      ],
      "name": "mintWithDiscountAndLock",
      "outputs": [
        {
          "internalType": "uint256",
          "name": "",
          "type": "uint256"
        }
      ],
      "stateMutability": "nonpayable",
      "type": "function"
    },
    {
      "inputs": [],
      "name": "name",
      "outputs": [
        {
          "internalType": "string",
          "name": "",
          "type": "string"
        }
      ],
      "stateMutability": "view",
      "type": "function"
    },
    {
      "inputs": [],
      "name": "openTradesPnlFeed",
      "outputs": [
        {
          "internalType": "contract IOpenTradesPnlFeed",
          "name": "",
          "type": "address"
        }
      ],
      "stateMutability": "view",
      "type": "function"
    },
    {
      "inputs": [],
      "name": "owner",
      "outputs": [
        {
          "internalType": "address",
          "name": "",
          "type": "address"
        }
      ],
      "stateMutability": "view",
      "type": "function"
    },
    {
      "inputs": [],
      "name": "pnlHandler",
      "outputs": [
        {
          "internalType": "address",
          "name": "",
          "type": "address"
        }
      ],
      "stateMutability": "view",
      "type": "function"
    },
    {
      "inputs": [
        {
          "internalType": "uint256",
          "name": "assets",
          "type": "uint256"
        }
      ],
      "name": "previewDeposit",
      "outputs": [
        {
          "internalType": "uint256",
          "name": "",
          "type": "uint256"
        }
      ],
      "stateMutability": "view",
      "type": "function"
    },
    {
      "inputs": [
        {
          "internalType": "uint256",
          "name": "shares",
          "type": "uint256"
        }
      ],
      "name": "previewMint",
      "outputs": [
        {
          "internalType": "uint256",
          "name": "",
          "type": "uint256"
        }
      ],
      "stateMutability": "view",
      "type": "function"
    },
    {
      "inputs": [
        {
          "internalType": "uint256",
          "name": "shares",
          "type": "uint256"
        }
      ],
      "name": "previewRedeem",
      "outputs": [
        {
          "internalType": "uint256",
          "name": "",
          "type": "uint256"
        }
      ],
      "stateMutability": "view",
      "type": "function"
    },
    {
      "inputs": [
        {
          "internalType": "uint256",
          "name": "assets",
          "type": "uint256"
        }
      ],
      "name": "previewWithdraw",
      "outputs": [
        {
          "internalType": "uint256",
          "name": "",
          "type": "uint256"
        }
      ],
      "stateMutability": "view",
      "type": "function"
    },
    {
      "inputs": [
        {
          "internalType": "uint256",
          "name": "assets",
          "type": "uint256"
        },
        {
          "internalType": "address",
          "name": "user",
          "type": "address"
        }
      ],
      "name": "receiveAssets",
      "outputs": [],
      "stateMutability": "nonpayable",
      "type": "function"
    },
    {
      "inputs": [
        {
          "internalType": "uint256",
          "name": "shares",
          "type": "uint256"
        },
        {
          "internalType": "address",
          "name": "receiver",
          "type": "address"
        },
        {
          "internalType": "address",
          "name": "owner",
          "type": "address"
        }
      ],
      "name": "redeem",
      "outputs": [
        {
          "internalType": "uint256",
          "name": "",
          "type": "uint256"
        }
      ],
      "stateMutability": "nonpayable",
      "type": "function"
    },
    {
      "inputs": [
        {
          "internalType": "uint256",
          "name": "assets",
          "type": "uint256"
        }
      ],
      "name": "refill",
      "outputs": [],
      "stateMutability": "nonpayable",
      "type": "function"
    },
    {
      "inputs": [],
      "name": "renounceOwnership",
      "outputs": [],
      "stateMutability": "nonpayable",
      "type": "function"
    },
    {
      "inputs": [
        {
          "internalType": "uint256",
          "name": "assets",
          "type": "uint256"
        },
        {
          "internalType": "address",
          "name": "receiver",
          "type": "address"
        }
      ],
      "name": "sendAssets",
      "outputs": [],
      "stateMutability": "nonpayable",
      "type": "function"
    },
    {
      "inputs": [],
      "name": "shareToAssetsPrice",
      "outputs": [
        {
          "internalType": "uint256",
          "name": "",
          "type": "uint256"
        }
      ],
      "stateMutability": "view",
      "type": "function"
    },
    {
      "inputs": [],
      "name": "storeAccBlockWeightedMarketCap",
      "outputs": [],
      "stateMutability": "nonpayable",
      "type": "function"
    },
    {
      "inputs": [],
      "name": "symbol",
      "outputs": [
        {
          "internalType": "string",
          "name": "",
          "type": "string"
        }
      ],
      "stateMutability": "view",
      "type": "function"
    },
    {
      "inputs": [],
      "name": "totalAssets",
      "outputs": [
        {
          "internalType": "uint256",
          "name": "",
          "type": "uint256"
        }
      ],
      "stateMutability": "view",
      "type": "function"
    },
    {
      "inputs": [],
      "name": "totalClosedPnl",
      "outputs": [
        {
          "internalType": "int256",
          "name": "",
          "type": "int256"
        }
      ],
      "stateMutability": "view",
      "type": "function"
    },
    {
      "inputs": [],
      "name": "totalDepleted",
      "outputs": [
        {
          "internalType": "uint256",
          "name": "",
          "type": "uint256"
        }
      ],
      "stateMutability": "view",
      "type": "function"
    },
    {
      "inputs": [],
      "name": "totalDeposited",
      "outputs": [
        {
          "internalType": "uint256",
          "name": "",
          "type": "uint256"
        }
      ],
      "stateMutability": "view",
      "type": "function"
    },
    {
      "inputs": [],
      "name": "totalDiscounts",
      "outputs": [
        {
          "internalType": "uint256",
          "name": "",
          "type": "uint256"
        }
      ],
      "stateMutability": "view",
      "type": "function"
    },
    {
      "inputs": [],
      "name": "totalLiability",
      "outputs": [
        {
          "internalType": "int256",
          "name": "",
          "type": "int256"
        }
      ],
      "stateMutability": "view",
      "type": "function"
    },
    {
      "inputs": [],
      "name": "totalLockedDiscounts",
      "outputs": [
        {
          "internalType": "uint256",
          "name": "",
          "type": "uint256"
        }
      ],
      "stateMutability": "view",
      "type": "function"
    },
    {
      "inputs": [],
      "name": "totalRefilled",
      "outputs": [
        {
          "internalType": "uint256",
          "name": "",
          "type": "uint256"
        }
      ],
      "stateMutability": "view",
      "type": "function"
    },
    {
      "inputs": [],
      "name": "totalRewards",
      "outputs": [
        {
          "internalType": "uint256",
          "name": "",
          "type": "uint256"
        }
      ],
      "stateMutability": "view",
      "type": "function"
    },
    {
      "inputs": [
        {
          "internalType": "address",
          "name": "owner",
          "type": "address"
        }
      ],
      "name": "totalSharesBeingWithdrawn",
      "outputs": [
        {
          "internalType": "uint256",
          "name": "shares",
          "type": "uint256"
        }
      ],
      "stateMutability": "view",
      "type": "function"
    },
    {
      "inputs": [],
      "name": "totalSupply",
      "outputs": [
        {
          "internalType": "uint256",
          "name": "",
          "type": "uint256"
        }
      ],
      "stateMutability": "view",
      "type": "function"
    },
    {
      "inputs": [
        {
          "internalType": "address",
          "name": "to",
          "type": "address"
        },
        {
          "internalType": "uint256",
          "name": "amount",
          "type": "uint256"
        }
      ],
      "name": "transfer",
      "outputs": [
        {
          "internalType": "bool",
          "name": "",
          "type": "bool"
        }
      ],
      "stateMutability": "nonpayable",
      "type": "function"
    },
    {
      "inputs": [
        {
          "internalType": "address",
          "name": "from",
          "type": "address"
        },
        {
          "internalType": "address",
          "name": "to",
          "type": "address"
        },
        {
          "internalType": "uint256",
          "name": "amount",
          "type": "uint256"
        }
      ],
      "name": "transferFrom",
      "outputs": [
        {
          "internalType": "bool",
          "name": "",
          "type": "bool"
        }
      ],
      "stateMutability": "nonpayable",
      "type": "function"
    },
    {
      "inputs": [
        {
          "internalType": "address",
          "name": "newOwner",
          "type": "address"
        }
      ],
      "name": "transferOwnership",
      "outputs": [],
      "stateMutability": "nonpayable",
      "type": "function"
    },
    {
      "inputs": [],
      "name": "tryNewOpenPnlRequestOrEpoch",
      "outputs": [],
      "stateMutability": "nonpayable",
      "type": "function"
    },
    {
      "inputs": [],
      "name": "tryResetDailyAccPnlDelta",
      "outputs": [],
      "stateMutability": "nonpayable",
      "type": "function"
    },
    {
      "inputs": [],
      "name": "tryUpdateCurrentMaxSupply",
      "outputs": [],
      "stateMutability": "nonpayable",
      "type": "function"
    },
    {
      "inputs": [],
      "name": "tvl",
      "outputs": [
        {
          "internalType": "uint256",
          "name": "",
          "type": "uint256"
        }
      ],
      "stateMutability": "view",
      "type": "function"
    },
    {
      "inputs": [
        {
          "internalType": "uint256",
          "name": "depositId",
          "type": "uint256"
        },
        {
          "internalType": "address",
          "name": "receiver",
          "type": "address"
        }
      ],
      "name": "unlockDeposit",
      "outputs": [],
      "stateMutability": "nonpayable",
      "type": "function"
    },
    {
      "inputs": [
        {
          "internalType": "uint256",
          "name": "prevPositiveOpenPnl",
          "type": "uint256"
        },
        {
          "internalType": "uint256",
          "name": "newPositiveOpenPnl",
          "type": "uint256"
        }
      ],
      "name": "updateAccPnlPerTokenUsed",
      "outputs": [
        {
          "internalType": "uint256",
          "name": "",
          "type": "uint256"
        }
      ],
      "stateMutability": "nonpayable",
      "type": "function"
    },
    {
      "inputs": [
        {
          "internalType": "address",
          "name": "newValue",
          "type": "address"
        }
      ],
      "name": "updateAdmin",
      "outputs": [],
      "stateMutability": "nonpayable",
      "type": "function"
    },
    {
      "inputs": [
        {
          "internalType": "uint256",
          "name": "newValue",
          "type": "uint256"
        }
      ],
      "name": "updateLossesBurnP",
      "outputs": [],
      "stateMutability": "nonpayable",
      "type": "function"
    },
    {
      "inputs": [
        {
          "internalType": "address",
          "name": "newValue",
          "type": "address"
        }
      ],
      "name": "updateManager",
      "outputs": [],
      "stateMutability": "nonpayable",
      "type": "function"
    },
    {
      "inputs": [
        {
          "internalType": "uint256",
          "name": "newValue",
          "type": "uint256"
        }
      ],
      "name": "updateMaxAccOpenPnlDelta",
      "outputs": [],
      "stateMutability": "nonpayable",
      "type": "function"
    },
    {
      "inputs": [
        {
          "internalType": "uint256",
          "name": "newValue",
          "type": "uint256"
        }
      ],
      "name": "updateMaxDailyAccPnlDelta",
      "outputs": [],
      "stateMutability": "nonpayable",
      "type": "function"
    },
    {
      "inputs": [
        {
          "internalType": "uint256",
          "name": "newValue",
          "type": "uint256"
        }
      ],
      "name": "updateMaxDiscountP",
      "outputs": [],
      "stateMutability": "nonpayable",
      "type": "function"
    },
    {
      "inputs": [
        {
          "internalType": "uint256",
          "name": "newValue",
          "type": "uint256"
        }
      ],
      "name": "updateMaxDiscountThresholdP",
      "outputs": [],
      "stateMutability": "nonpayable",
      "type": "function"
    },
    {
      "inputs": [
        {
          "internalType": "uint256",
          "name": "newValue",
          "type": "uint256"
        }
      ],
      "name": "updateMaxSupplyIncreaseDailyP",
      "outputs": [],
      "stateMutability": "nonpayable",
      "type": "function"
    },
    {
      "inputs": [
        {
          "internalType": "address",
          "name": "newValue",
          "type": "address"
        }
      ],
      "name": "updateOpenTradesPnlFeed",
      "outputs": [],
      "stateMutability": "nonpayable",
      "type": "function"
    },
    {
      "inputs": [
        {
          "internalType": "address",
          "name": "newValue",
          "type": "address"
        }
      ],
      "name": "updatePnlHandler",
      "outputs": [],
      "stateMutability": "nonpayable",
      "type": "function"
    },
    {
      "inputs": [
        {
          "internalType": "uint256[2]",
          "name": "newValue",
          "type": "uint256[2]"
        }
      ],
      "name": "updateWithdrawLockThresholdsP",
      "outputs": [],
      "stateMutability": "nonpayable",
      "type": "function"
    },
    {
      "inputs": [
        {
          "internalType": "uint256",
          "name": "assets",
          "type": "uint256"
        },
        {
          "internalType": "address",
          "name": "receiver",
          "type": "address"
        },
        {
          "internalType": "address",
          "name": "owner",
          "type": "address"
        }
      ],
      "name": "withdraw",
      "outputs": [
        {
          "internalType": "uint256",
          "name": "",
          "type": "uint256"
        }
      ],
      "stateMutability": "nonpayable",
      "type": "function"
    },
    {
      "inputs": [],
      "name": "withdrawEpochsTimelock",
      "outputs": [
        {
          "internalType": "uint256",
          "name": "",
          "type": "uint256"
        }
      ],
      "stateMutability": "view",
      "type": "function"
    },
    {
      "inputs": [
        {
          "internalType": "uint256",
          "name": "",
          "type": "uint256"
        }
      ],
      "name": "withdrawLockThresholdsP",
      "outputs": [
        {
          "internalType": "uint256",
          "name": "",
          "type": "uint256"
        }
      ],
      "stateMutability": "view",
      "type": "function"
    },
    {
      "inputs": [
        {
          "internalType": "address",
          "name": "",
          "type": "address"
        },
        {
          "internalType": "uint256",
          "name": "",
          "type": "uint256"
        }
      ],
      "name": "withdrawRequests",
      "outputs": [
        {
          "internalType": "uint256",
          "name": "",
          "type": "uint256"
        }
      ],
      "stateMutability": "view",
      "type": "function"
    }
  ],
  "transactionHash": "0xc7d090c1a6021ab5db5cc6ffa7d2242a4973369948f6f2341839d42a7db83dc1",
  "args": [],
  "numDeployments": 1,
  "solcInputHash": "af037c151d4d77827af1c330e095aa91",
  "bytecode": "0x608080604052346100175761559990816200001d8239f35b600080fdfe608080604052600436101561001357600080fd5b600090813560e01c90816301e1d1141461370d575080630307604f146136ef5780630344e8a31461335c57806306fdde03146132b657806307a2d13a14612ef45780630851a20214613192578063095ea7b31461328f5780630a28a4771461326d5780630dfb5287146132545780630e15561a146132365780630fc29349146132185780630fcc6f31146131fa578063104aeef8146131dc57806318160ddd146131be5780631f91f2871461319757806320124bce1461319257806320e70a56146130e9578063215e2fae146130cb57806322b2ef85146130ad57806323b872dd146130475780632c135b931461301c578063313ce56714612ff857806338d52e0f14612fd15780633950935114612f7f5780633b418c1e14612f615780633d7e458714612f48578063402d267d14612f20578063481c6a7514612ef95780634cdad50614612ef45780634ea0ddf714612ed657806353409be214612eb85780635450884714612e1457806358aba00f14612d425780635a6953d314612d1b5780635cd8a76b14612c895780635e93f86014612c6b5780635f4ae74114612c4d57806361a8c8c414612c2f5780636445ec0014612c1657806366d8ecf114612bf85780636ce7dcc914612b6e5780636d6ca31914612b2c5780636e553f6514612a835780636ee432f214612a5657806370a0823114612a1e578063715018a6146129c25780637361a5441461283357806375cd9da91461281557806376671808146127f757806378b4330f146127d957806379431d9c146127b25780637dfc6922146127945780637fcff2af146127765780638d6cb288146127585780638da5cb5b14612731578063940a4e451461266657806394bf804d146125be57806395d89b41146124dd578063979abb25146123f9578063979b0895146123da5780639aca06dc146123bc578063a457c2d7146122ff578063a481c14b146121b1578063a50043a014612084578063a8abe90514611e94578063a9059cbb14611e38578063ad00a5a414611e14578063b224e73514611df6578063b3c4850a14611cef578063b3d7f6b914611cd0578063b460af9414611c05578063b82c589914611b9a578063ba08765214611acf578063be216e8314611ab4578063c63384ab14611a99578063c63d75b614611a74578063c6e6f5921461113a578063ca9d07ba14611939578063ce96cb7714611917578063ce9e1b2114611872578063cf39c2db146117cd578063d1e08c20146117b3578063d229b2dd1461170a578063d272df1014611688578063d8bdfd481461166d578063d905777e14611649578063db0447d51461162b578063dd62ed3e146115db578063ddd65e31146115bd578063e2f273bd146114e6578063e5328e06146114ad578063e66a6e3b14611339578063e78396761461126f578063e7899c0614611256578063e8e431101461115d578063ea5f2bba1461113f578063ef8b30f71461113a578063f05550ee1461080d578063f0a77446146107ef578063f2fde38b1461071c578063f31bd8f7146106fe578063f5521eaa146105e2578063f851a440146105bb578063f8fb10f71461059d578063faf33f291461057f578063fe0b6d90146104da5763ff50abdc146104ba57600080fd5b346104d757806003193601126104d757602060e754604051908152f35b80fd5b50346104d75760203660031901126104d7577f127735ae9d047cae55da37db2c8ee184c735aacd68cef068d4e70be6a41661d960806004356105286001600160a01b0360ca54163314613b57565b61053d6802b5e3af16b1880000821115613bed565b8060d4556040519060408252601760408301527f6d6178537570706c79496e6372656173654461696c795000000000000000000060608301526020820152a180f35b50346104d757806003193601126104d757602060e054604051908152f35b50346104d757806003193601126104d757602060d654604051908152f35b50346104d757806003193601126104d75760206001600160a01b0360cb5416604051908152f35b50346104d75760403660031901126104d75736602312156106f95760405161060981613941565b806044913683116106f9576004905b8382106106e957505061062961527d565b60209182820151825110156106a6575080835b600281106106935750506040519183835b6002821061067e57857f8472b50e25b52d8de564f9719bd793b18d83cf59ce4d309e211fb6a4fdc14811604087a180f35b8280600192865181520194019101909261064d565b815160d28201559083019060010161063c565b827f57524f4e475f56414c55455300000000000000000000000000000000000000006064926040519262461bcd60e51b84526004840152600c6024840152820152fd5b8135815260209182019101610618565b600080fd5b50346104d757806003193601126104d757602060ed54604051908152f35b50346104d75760203660031901126104d7576107366137cb565b61073e61527d565b6001600160a01b03908181168015610785578261076e916107739460ca54168114159182610776575b5050613ac1565b6152d5565b80f35b60cb5416141590503880610767565b608460405162461bcd60e51b815260206004820152602660248201527f4f776e61626c653a206e6577206f776e657220697320746865207a65726f206160448201527f64647265737300000000000000000000000000000000000000000000000000006064820152fd5b50346104d757806003193601126104d757602060d054604051908152f35b50346104d7576102603660031901126104d75760043567ffffffffffffffff81116111365761084090369060040161399b565b60243567ffffffffffffffff81116111325761086090369060040161399b565b6101008060431936011261112e5760405190810181811067ffffffffffffffff821117610d37576040526044356001600160a01b03811681036106f95781526064356001600160a01b03811681036106f95760208201526084356001600160a01b03811681036106f957604082015260a4356001600160a01b03811681036106f957606082015260c4356001600160a01b03811681036106f957608082015260e4356001600160a01b03811681036106f95760a0820152610104356001600160a01b03811681036106f95760c0820152610124356001600160a01b03811681036106f95760e0820152366101c312156106f9576040519161096083613941565b82366101e4116106f9576101a4905b6101e4821061111e57505084549360ff8560081c161594858096611111575b80156110fa575b61099e906139e2565b60ff1981166001178755856110e9575b506001600160a01b038351161515806110d3575b806110bd575b806110a7575b80611083575b8061105f575b80611049575b80611033575b8061101d575b80611008575b80610ffa575b80610fe4575b80610fce575b80610fb9575b80610fa3575b15610f5f57610a2e60ff875460081c16610a2981614a01565b614a01565b80519067ffffffffffffffff8211610f4b578190610a4d603654614a72565b601f8111610efd575b50602090601f8311600114610e75578892610e6a575b50508160011b916000199060031b1c1916176036555b80519067ffffffffffffffff8211610e56578190610aa1603754614a72565b601f8111610dfd575b50602090601f8311600114610d75578792610d6a575b50508160011b916000199060031b1c1916176037555b6001600160a01b03815116610af560ff865460081c16610a2981614a01565b610afe81614e2e565b9015610d62575b7fffffffffffffffffffffff00000000000000000000000000000000000000000074ff00000000000000000000000000000000000000006065549260a01b1691161717606555610b616001600160a01b036020830151166152d5565b6001600160a01b0360e08160a084015116926001600160a01b0319938460c954161760c955826040820151168460ca54161760ca55826060820151168460cb54161760cb558260c0820151168460cc54161760cc550151169060cd54161760cd556101443560ce556101643560d0556101843560d155825b60028110610d4d5750506101e43560d4556102043560d5556102243560d6556102443560d755670de0b6b3a764000060d855600160de554260df556040516060810181811067ffffffffffffffff821117610d3757604052600390818152600260208201526001604082015260cf548260cf55808310610cda575b5060cf8452835b828110610ca357505050610c6c5780f35b61ff001981541681557f7f26b83ff96e1f2b6a682f133852f6798a09c465da95921460cefb3847402498602060405160018152a180f35b600190602060ff845116930192817facb8d954e2cfef495862221e91bd7523613cf8808827cb33edfe4904cc51bf29015501610c5b565b7facb8d954e2cfef495862221e91bd7523613cf8808827cb33edfe4904cc51bf29017facb8d954e2cfef495862221e91bd7523613cf8808827cb33edfe4904cc51bf2c5b818110610d2b5750610c54565b60008155600101610d1e565b634e487b7160e01b600052604160045260246000fd5b600190602083519301928160d2015501610bd9565b506012610b05565b015190503880610ac0565b9250603787527f42a7b7dd785cd69714a189dffb3fd7d7174edc9ece837694ce50f7078f7c31ae9087935b601f1984168510610de2576001945083601f19811610610dc9575b505050811b01603755610ad6565b015160001960f88460031b161c19169055388080610dbb565b81810151835560209485019460019093019290910190610da0565b610e4690603789527f42a7b7dd785cd69714a189dffb3fd7d7174edc9ece837694ce50f7078f7c31ae601f850160051c81019160208610610e4c575b601f0160051c0190613a86565b38610aaa565b9091508190610e39565b602486634e487b7160e01b81526041600452fd5b015190503880610a6c565b9250603688527f4a11f94e20a93c79f6ec743a1954ec4fc2c08429ae2122118bf234b2185c81b89088935b601f1984168510610ee2576001945083601f19811610610ec9575b505050811b01603655610a82565b015160001960f88460031b161c19169055388080610ebb565b81810151835560209485019460019093019290910190610ea0565b610f459060368a527f4a11f94e20a93c79f6ec743a1954ec4fc2c08429ae2122118bf234b2185c81b8601f850160051c81019160208610610e4c57601f0160051c0190613a86565b38610a56565b602487634e487b7160e01b81526041600452fd5b606460405162461bcd60e51b815260206004820152600c60248201527f57524f4e475f504152414d5300000000000000000000000000000000000000006044820152fd5b5068056bc75e2d63100000610244351015610a10565b50678ac7230489e80000610224351115610a0a565b5068015af1d78b58c40000610204351115610a04565b506802b5e3af16b18800006101e43511156109fe565b5060208401518451106109f8565b5067016345785d8a00006101843510156109f2565b506001600160a01b0360e08401511615156109ec565b506001600160a01b0360c08401511615156109e6565b506001600160a01b0360a08401511615156109e0565b506001600160a01b036040840151166001600160a01b0360608501511614156109da565b506001600160a01b036020840151166001600160a01b0360408501511614156109d4565b506001600160a01b0360608401511615156109ce565b506001600160a01b0360408401511615156109c8565b506001600160a01b0360208401511615156109c2565b61ffff1916610101178655386109ae565b50303b158015610995575060ff8116600114610995565b50600160ff82161061098e565b813581526020918201910161096f565b8380fd5b8280fd5b5080fd5b6138f0565b50346104d757806003193601126104d757602060d854604051908152f35b50346104d75761116c36613891565b60d8549161117b831515614301565b61118684151561434c565b61119360d6541515614561565b6111a160ce548210156145ac565b6111b16301e133808211156145f7565b68056bc75e2d631000006111dd6111d76111d2846111cd613c81565b613e38565b613a9d565b86613a73565b046111ee6111e961419b565b6141c8565b81116112125760209461120461120a958361517c565b91614642565b604051908152f35b606460405162461bcd60e51b815260206004820152601560248201527f4445504f5349545f4d4f52455f5448414e5f4d415800000000000000000000006044820152fd5b50346104d757806003193601126104d757610773614010565b50346104d75760203660031901126104d75760408160c09260a0835161129481613925565b82815282602082015282858201528260608201528260808201520152600435815260e5602052206040516112c781613925565b6001600160a01b03825416918282526001810154602083019081526002820154604084019081526003830154916060850192835260a0600560048601549560808801968752015495019485526040519586525160208601525160408501525160608401525160808301525160a0820152f35b50346104d75760403660031901126104d7576004356113566137b5565b6001600160a01b03908160cc54163303611469576113ab61137960355485615158565b61139b6113888260da546143b2565b8060da55611394613c38565b1215614863565b6113a3614010565b60dc546143b2565b8060dc5560d15412611425576113c38360ea546143b2565b60ea556113d28360e8546143b2565b60e8556113dd614088565b6113e5613fa8565b6113f48382846065541661531d565b60405192835216907f17ffe64fb2212f31d60284d6471e06abb7db8d66f0a60f9b884b29f1597d05da60203392a380f35b606460405162461bcd60e51b815260206004820152600d60248201527f4d41585f4441494c595f504e4c000000000000000000000000000000000000006044820152fd5b606460405162461bcd60e51b815260206004820152601860248201527f4f4e4c595f54524144494e475f504e4c5f48414e444c455200000000000000006044820152fd5b50346104d757806003193601126104d7576020670de0b6b3a76400006114dd6114d4613c38565b60355490613a73565b04604051908152f35b50346104d75760203660031901126104d7577f60f89fdb372abe626eac485ef96b2a09f1cfbd7f225dd1e2b491a2b4069c237660806115236137cb565b6115626001600160a01b0391828060ca541691611541833314613b57565b169261154e841515613b0c565b6097541683141590816115b2575b50613ac1565b806001600160a01b031960cb54161760cb556040519060408252600560408301527f61646d696e00000000000000000000000000000000000000000000000000000060608301526020820152a180f35b90508214153861155c565b50346104d757806003193601126104d757602060d954604051908152f35b50346104d75760403660031901126104d7576115f56137cb565b60406115ff6137b5565b926001600160a01b03809316815260346020522091166000526020526020604060002054604051908152f35b50346104d757806003193601126104d757602060d454604051908152f35b50346104d75760203660031901126104d757602061120a6116686137cb565b614247565b50346104d757806003193601126104d757602061120a613d65565b50346104d75760203660031901126104d7577f127735ae9d047cae55da37db2c8ee184c735aacd68cef068d4e70be6a41661d960806004356116c861527d565b8060d0556040519060408252601260408301527f6d61784163634f70656e506e6c44656c7461000000000000000000000000000060608301526020820152a180f35b50346104d75760203660031901126104d7577f60f89fdb372abe626eac485ef96b2a09f1cfbd7f225dd1e2b491a2b4069c237660806001600160a01b0361174f6137cb565b61175761527d565b16611763811515613b0c565b806001600160a01b031960cc54161760cc556040519060408252600a60408301527f706e6c48616e646c65720000000000000000000000000000000000000000000060608301526020820152a180f35b50346104d757602061120a6117c73661387b565b90613e38565b50346104d75760203660031901126104d7577f127735ae9d047cae55da37db2c8ee184c735aacd68cef068d4e70be6a41661d9608060043561181b6001600160a01b0360ca54163314613b57565b61183068056bc75e2d63100000821015613ba2565b8060d7556040519060408252601560408301527f6d6178446973636f756e745468726573686f6c6450000000000000000000000060608301526020820152a180f35b50346104d75760203660031901126104d7577f127735ae9d047cae55da37db2c8ee184c735aacd68cef068d4e70be6a41661d960806004356118c06001600160a01b0360ca54163314613b57565b6118d568015af1d78b58c40000821115613bed565b8060d5556040519060408252600b60408301527f6c6f737365734275726e5000000000000000000000000000000000000000000060608301526020820152a180f35b50346104d75760203660031901126104d757602061120a6111e96116686137cb565b50346104d75760203660031901126104d75760043560d95482811315611a305761198090603554918291611977670de0b6b3a7640000938492613a73565b04841115614926565b611999836001600160a01b036065541630903390615377565b808302908382041483151715611a1c576119cd916119b691613a53565b6119c28160da5461490d565b60da5560d95461490d565b60d9556119d86148ae565b6119e48160ee54613ab4565b60ee556040519081528160208201527f19aee2c21e4d63823896cb2a77a3e61197dda70b1043a55fca38aa8d75c0edd360403392a280f35b602484634e487b7160e01b81526011600452fd5b606460405162461bcd60e51b815260206004820152601860248201527f4e4f545f554e4445525f434f4c4c41544552414c495a454400000000000000006044820152fd5b50346104d75760203660031901126104d757611a8e6137cb565b50602061120a61419b565b50346104d757806003193601126104d757602061120a613c81565b50346104d757806003193601126104d757602061120a613c38565b50346104d757611ade366138bb565b91611aef60d8949294541515614301565b611afa81151561434c565b611b0383614247565b8111611b5657602093604061120a936001600160a01b038616815260e3875281812060de548252875220611b38838254613c74565b9055611b43826141c8565b938491611b50838561446b565b33614fae565b606460405162461bcd60e51b815260206004820152601d60248201527f455243343632363a2072656465656d206d6f7265207468616e206d61780000006044820152fd5b50346104d75760203660031901126104d757604060c091600435815260e5602052206001600160a01b038154169060018101549060028101546003820154906005600484015493015493604051958652602086015260408501526060840152608083015260a0820152f35b50346104d757611c14366138bb565b9260d89291925491611c27831515614301565b611c3281151561434c565b611c3e6111e986614247565b8111611c8c57602094604094611c5761120a9584615158565b9586946001600160a01b038416815260e3895281812060de548252895220611c80858254613c74565b9055611b50838561446b565b606460405162461bcd60e51b815260206004820152601f60248201527f455243343632363a207769746864726177206d6f7265207468616e206d6178006044820152fd5b50346104d75760203660031901126104d757602061120a6004356141f7565b50346104d757611cfe36613891565b611d0e60d8939293541515614301565b611d1982151561434c565b611d2660d6541515614561565b611d3460ce548410156145ac565b611d446301e133808411156145f7565b611d4c61419b565b8211611db257611d5b826141f7565b9268056bc75e2d6310000092838502938585041485151715611d9c57602094611d9661120a95611d906111d2866111cd613c81565b90613a53565b90614642565b634e487b7160e01b600052601160045260246000fd5b606460405162461bcd60e51b815260206004820152601260248201527f4d494e545f4d4f52455f5448414e5f4d415800000000000000000000000000006044820152fd5b50346104d757806003193601126104d757602060dd54604051908152f35b50346104d75760203660031901126104d757602061120a611e336137cb565b613ecd565b50346104d75760403660031901126104d757611e8990611e566137cb565b611e8360243592611e7c846040611e6c33613ecd565b9333815260336020522054613c74565b1015614150565b33614aac565b602060405160018152f35b50346104d75760403660031901126104d757600435611eb16137b5565b6001600160a01b03918260cd5416926040518094632e3fbb9960e21b825281600460209788935afa90811561207957869161204c575b506120085781611f22611f27928516948588526034875260408820336000528752611e33604060002054873314908115611fe8575b50614516565b613ab4565b82855260338452604085205410611fa457611f4c60de54611f46613d65565b90613ab4565b9282855260e3815260408520848652815260408520611f6c838254613ab4565b905560de54906040519283528201527f21b8e5e36008677ea26efbbc967e568e01b127f731ed0fda0a8685fda37d0d5f60403392a480f35b6064836040519062461bcd60e51b82526004820152601160248201527f4d4f52455f5448414e5f42414c414e43450000000000000000000000000000006044820152fd5b9050848115159182611ffd575b505038611f1c565b101590508438611ff5565b6064846040519062461bcd60e51b82526004820152600c60248201527f454e445f4f465f45504f434800000000000000000000000000000000000000006044820152fd5b90508481813d8311612072575b612063818361395d565b810103126106f9575138611ee7565b503d612059565b6040513d88823e3d90fd5b50346104d75760603660031901126104d7576004356120a16137b5565b906001600160a01b03604435921690818452602060e381526040852084865281526040852054821161216d5782855260348152604085203360005281526120f760406000205484331490811561214e5750614516565b82855260e3815260408520848652815260408520612116838254613c74565b905560de54906040519283528201527f443ccdbbbde35bd48740a9ea14c47318b735db4631ed1ebcdaaaa9f4636c84ea60403392a480f35b905083811515918261216257505038611f1c565b101590508338611ff5565b6064906040519062461bcd60e51b82526004820152601960248201527f4d4f52455f5448414e5f57495448445241575f414d4f554e54000000000000006044820152fd5b50346104d75760403660031901126104d7576004356121ce6137b5565b6001600160a01b03906121e983836065541630903390615377565b828460d95412806122f4575b6122bd575b670de0b6b3a76400008082029082820414821517156122a9576122236122429160355490613a53565b61222f8160da5461490d565b60da5561223a614010565b60dc5461490d565b60dc556122518160ea5461490d565b60ea556122608160e85461490d565b60e85561226b614088565b612273613fa8565b604051938452602084015216907f2083893e39f8ae736fed502f7e149cc5bfe6159878615fae685a9a98bc452d5a60403392a380f35b602486634e487b7160e01b81526011600452fd5b506122ef6064670de0b6b3a76400006122d860d55487613a73565b04046122e68160e654613ab4565b60e65584613c74565b6121fa565b508460da54126121f5565b50346104d75760403660031901126104d7576123196137cb565b6040602435923381526034602052206001600160a01b0382166000526020526040600020549180831061235257611e8992039033614c62565b608460405162461bcd60e51b815260206004820152602560248201527f45524332303a2064656372656173656420616c6c6f77616e63652062656c6f7760448201527f207a65726f0000000000000000000000000000000000000000000000000000006064820152fd5b50346104d757806003193601126104d757602060ec54604051908152f35b50346104d75760203660031901126104d757602061120a600435613f3c565b50346104d75760203660031901126104d7576004356124246001600160a01b0360ca54163314613b57565b678ac7230489e800008111612499576080817f127735ae9d047cae55da37db2c8ee184c735aacd68cef068d4e70be6a41661d99260d6556040519060408252600c60408301527f6d6178446973636f756e7450000000000000000000000000000000000000000060608301526020820152a180f35b606460405162461bcd60e51b815260206004820152601260248201527f41424f56455f4d41585f444953434f554e5400000000000000000000000000006044820152fd5b50346104d757806003193601126104d75760405190806037546124ff81614a72565b808552916001918083169081156125945750600114612539575b612535856125298187038261395d565b604051918291826137e1565b0390f35b9250603783527f42a7b7dd785cd69714a189dffb3fd7d7174edc9ece837694ce50f7078f7c31ae5b82841061257c57505050810160200161252982612535612519565b80546020858701810191909152909301928101612561565b8695506125359693506020925061252994915060ff191682840152151560051b8201019293612519565b50346104d75760403660031901126104d7576004356125db6137b5565b6125e860d8541515614301565b6125f382151561434c565b6125fb61419b565b82116126225761120a826126106020946141f7565b809361261c82846143ce565b33614ec3565b606460405162461bcd60e51b815260206004820152601b60248201527f455243343632363a206d696e74206d6f7265207468616e206d617800000000006044820152fd5b50346104d75760203660031901126104d757600435612694816001600160a01b036065541630903390615377565b670de0b6b3a764000080820290828204148215171561271d576126bd6126c59160355490613a53565b60db54613ab4565b60db556126d06148ae565b6126dc8160e954613ab4565b60e9556126eb8160e754613ab4565b60e7556040519081527fe34918ff1c7084970068b53fd71ad6d8b04e9f15d3886cbf006443e6cdc52ea660203392a280f35b602483634e487b7160e01b81526011600452fd5b50346104d757806003193601126104d75760206001600160a01b0360975416604051908152f35b50346104d757806003193601126104d757602060f054604051908152f35b50346104d757806003193601126104d757602060db54604051908152f35b50346104d757806003193601126104d757602060d754604051908152f35b50346104d757806003193601126104d75760206001600160a01b0360c95416604051908152f35b50346104d757806003193601126104d757602060ce54604051908152f35b50346104d757806003193601126104d757602060de54604051908152f35b50346104d757806003193601126104d757602060d554604051908152f35b50346104d7576128423661387b565b906001600160a01b0360cd5416330361297e5761285f818361490d565b9260355461286b613c38565b9160da5495869361288f8461288a670de0b6b3a764000097889461490d565b613a73565b048461289d8560d054613a73565b04808210156129765750915b508181131561296e5750905b828202928284051482151715611d9c576020956128d86128de9261291495614397565b906143b2565b8060da556128ee8260ea546143b2565b60ea5560d9556128fc6148ae565b61290760de54613ebe565b60de554260df55826143b2565b60e05561291f613fa8565b60de549060e0549260d954906040519283528583015283604083015260608201527f115621a72d6f59323a1d752b116219634bc004cadb85d6bdc8e7eb254905722d60803392a3604051908152f35b9050906128b5565b9050916128a9565b606460405162461bcd60e51b815260206004820152600d60248201527f4f4e4c595f504e4c5f46454544000000000000000000000000000000000000006044820152fd5b50346104d757806003193601126104d7576129db61527d565b60006001600160a01b036097546001600160a01b03198116609755167f8be0079c531659141344cd1fd0a4f28419497f9722a3daafe3b4186f6b6457e08280a380f35b50346104d75760203660031901126104d75760406020916001600160a01b03612a456137cb565b168152603383522054604051908152f35b50346104d75760203660031901126104d75760043560028110156111365760209060d20154604051908152f35b50346104d75760403660031901126104d757600435612aa06137b5565b9060d854612aaf811515614301565b612aba82151561434c565b612ac56111e961419b565b8211612ae857602092612adb61120a928461517c565b92839161261c82846143ce565b606460405162461bcd60e51b815260206004820152601e60248201527f455243343632363a206465706f736974206d6f7265207468616e206d617800006044820152fd5b50346104d75760403660031901126104d75760406020916001600160a01b03612b536137cb565b16815260e38352818120602435825283522054604051908152f35b50346104d75760203660031901126104d757600435612b9b8160e654612b9681831115614926565b613c74565b60e655612baa8160ed54613ab4565b60ed55612bc381336001600160a01b036065541661531d565b6040519081528160208201527f1fb4f167278bb29c47ac4fd58ca1586b0626b52807f2991ef78abdbb97bb433360403392a280f35b50346104d757806003193601126104d757602060e654604051908152f35b50346104d757806003193601126104d757610773613fa8565b50346104d757806003193601126104d757602060df54604051908152f35b50346104d757806003193601126104d757602060ee54604051908152f35b50346104d757806003193601126104d757602060dc54604051908152f35b50346104d757806003193601126104d757610102815460ff8160081c161580612d0e575b612cb6906139e2565b61ffff1916178155612cc661410b565b612cd460e95460e754613ab4565b60e75561ff001981541681557f7f26b83ff96e1f2b6a682f133852f6798a09c465da95921460cefb3847402498602060405160028152a180f35b50600260ff821610612cad565b50346104d757806003193601126104d75760206001600160a01b0360cc5416604051908152f35b50346104d75760203660031901126104d7577f60f89fdb372abe626eac485ef96b2a09f1cfbd7f225dd1e2b491a2b4069c23766080612d7f6137cb565b612d8761527d565b612db56001600160a01b0380921691612da1831515613b0c565b80609754168314159081612e055750613ac1565b806001600160a01b031960ca54161760ca556040519060408252600760408301527f6d616e616765720000000000000000000000000000000000000000000000000060608301526020820152a180f35b905060cb54168214153861155c565b50346104d75760203660031901126104d7577f127735ae9d047cae55da37db2c8ee184c735aacd68cef068d4e70be6a41661d96080600435612e626001600160a01b0360ca54163314613b57565b612e7667016345785d8a0000821015613ba2565b8060d1556040519060408252601360408301527f6d61784461696c79416363506e6c44656c74610000000000000000000000000060608301526020820152a180f35b50346104d757806003193601126104d757602060eb54604051908152f35b50346104d757806003193601126104d757602060da54604051908152f35b61382a565b50346104d757806003193601126104d75760206001600160a01b0360ca5416604051908152f35b50346104d75760203660031901126104d757612f3a6137cb565b50602061120a6111e961419b565b50346104d757806003193601126104d75761077361410b565b50346104d757806003193601126104d757602060d154604051908152f35b50346104d75760403660031901126104d757611e89906040612f9f6137cb565b913381526034602052206001600160a01b038216600052602052612fca602435604060002054613ab4565b9033614c62565b50346104d757806003193601126104d75760206001600160a01b0360655416604051908152f35b50346104d757806003193601126104d757602060ff60655460a01c16604051908152f35b50346104d757806003193601126104d7576020670de0b6b3a76400006114dd60355460d85490613a73565b50346104d75760603660031901126104d757611e89906130656137cb565b61306d6137b5565b9061309d60443593611e7c85604061308486613ecd565b936001600160a01b038716815260336020522054613c74565b6130a8833383614d96565b614aac565b50346104d757806003193601126104d757602060e254604051908152f35b50346104d757806003193601126104d757602060e454604051908152f35b50346104d75760203660031901126104d7577f60f89fdb372abe626eac485ef96b2a09f1cfbd7f225dd1e2b491a2b4069c237660806001600160a01b0361312e6137cb565b61313661527d565b16613142811515613b0c565b806001600160a01b031960cd54161760cd556040519060408252601160408301527f6f70656e547261646573506e6c4665656400000000000000000000000000000060608301526020820152a180f35b613848565b50346104d757806003193601126104d75760206001600160a01b0360cd5416604051908152f35b50346104d757806003193601126104d7576020603554604051908152f35b50346104d757806003193601126104d757602060e154604051908152f35b50346104d757806003193601126104d757602060e854604051908152f35b50346104d757806003193601126104d757602060ea54604051908152f35b50346104d757806003193601126104d757602060e954604051908152f35b50346104d757806003193601126104d757610773614088565b50346104d75760203660031901126104d757602061120a60d854600435615158565b50346104d75760403660031901126104d757611e896132ac6137cb565b6024359033614c62565b50346104d757806003193601126104d75760405190806036546132d881614a72565b80855291600191808316908115612594575060011461330157612535856125298187038261395d565b9250603683527f4a11f94e20a93c79f6ec743a1954ec4fc2c08429ae2122118bf234b2185c81b85b82841061334457505050810160200161252982612535612519565b80546020858701810191909152909301928101613329565b50346104d75760403660031901126104d7576004356133796137b5565b81835260209160e5835260408420916001600160a01b03908160c954166040517f6352211e0000000000000000000000000000000000000000000000000000000081528460048201528681602481855afa80156136e457849189916136c7575b501695338714801561364d575b80156135cc575b6133f690614516565b6134096004870154600588015490613ab4565b42106135885750600385019087613424835460355490615158565b916134346113888460da546143b2565b803b156111365781906024604051809481937f42966c680000000000000000000000000000000000000000000000000000000083528b60048401525af1801561357d5761353c575b507fe37405a4f414fe3119839681cc26ea3462fc575fd2f81734417e52144d3f34b99392916134b06134d49260d9546143b2565b60d9556134bb6148ae565b6134c8815460ea546143b2565b60ea555460eb54613c74565b60eb556134e660018601548230614aac565b6040805194855285546001600160a01b031660208601526001860154908501526002850154606085015260038501546080850152600485015460a085015260059094015460c084015290921691339160e090a480f35b916134b06134d492996135717fe37405a4f414fe3119839681cc26ea3462fc575fd2f81734417e52144d3f34b9979695613911565b9992505091929361347c565b6040513d8b823e3d90fd5b6064906040519062461bcd60e51b82526004820152600c60248201527f4e4f545f554e4c4f434b454400000000000000000000000000000000000000006044820152fd5b506040517fe985e9c50000000000000000000000000000000000000000000000000000000081528760048201523360248201528181604481865afa801561357d576133f6918a91613620575b5090506133ed565b6136409150833d8511613646575b613638818361395d565b81019061484b565b38613618565b503d61362e565b506040517f081812fc0000000000000000000000000000000000000000000000000000000081528560048201528181602481865afa90811561357d57899161369a575b50841633146133e6565b6136ba9150823d84116136c0575b6136b2818361395d565b81019061482c565b38613690565b503d6136a8565b6136de9150883d8a116136c0576136b2818361395d565b386133d9565b6040513d8a823e3d90fd5b50346104d757806003193601126104d757602060ef54604051908152f35b9050346111365781600319360112611136576020816024816001600160a01b03606554167f70a082310000000000000000000000000000000000000000000000000000000082523060048301525afa9081156137aa578291613775575b602082604051908152f35b90506020813d82116137a2575b8161378f6020938361395d565b810103126111365760209150513861376a565b3d9150613782565b6040513d84823e3d90fd5b602435906001600160a01b03821682036106f957565b600435906001600160a01b03821682036106f957565b6020808252825181830181905290939260005b82811061381657505060409293506000838284010152601f8019910116010190565b8181018601518482016040015285016137f4565b346106f95760203660031901126106f957602061120a6004356141c8565b346106f95760003660031901126106f9576020670de0b6b3a76400006114dd6114d4613872613c38565b60d9549061490d565b60409060031901126106f9576004359060243590565b60609060031901126106f95760043590602435906044356001600160a01b03811681036106f95790565b60609060031901126106f957600435906001600160a01b039060243582811681036106f9579160443590811681036106f95790565b346106f95760203660031901126106f957602061120a60d85460043561517c565b67ffffffffffffffff8111610d3757604052565b60c0810190811067ffffffffffffffff821117610d3757604052565b6040810190811067ffffffffffffffff821117610d3757604052565b90601f8019910116810190811067ffffffffffffffff821117610d3757604052565b67ffffffffffffffff8111610d3757601f01601f191660200190565b81601f820112156106f9578035906139b28261397f565b926139c0604051948561395d565b828452602083830101116106f957816000926020809301838601378301015290565b156139e957565b608460405162461bcd60e51b815260206004820152602e60248201527f496e697469616c697a61626c653a20636f6e747261637420697320616c72656160448201527f647920696e697469616c697a65640000000000000000000000000000000000006064820152fd5b8115613a5d570490565b634e487b7160e01b600052601260045260246000fd5b81810292918115918404141715611d9c57565b818110613a91575050565b60008155600101613a86565b9068056bc75e2d63100000918201809211611d9c57565b91908201809211611d9c57565b15613ac857565b606460405162461bcd60e51b815260206004820152600b60248201527f57524f4e475f56414c55450000000000000000000000000000000000000000006044820152fd5b15613b1357565b606460405162461bcd60e51b815260206004820152600960248201527f414444524553535f3000000000000000000000000000000000000000000000006044820152fd5b15613b5e57565b606460405162461bcd60e51b815260206004820152600c60248201527f4f4e4c595f4d414e4147455200000000000000000000000000000000000000006044820152fd5b15613ba957565b606460405162461bcd60e51b815260206004820152600960248201527f42454c4f575f4d494e00000000000000000000000000000000000000000000006044820152fd5b15613bf457565b606460405162461bcd60e51b815260206004820152600960248201527f41424f56455f4d415800000000000000000000000000000000000000000000006044820152fd5b60db54670de0b6b3a7640000908101809111611d9c5790565b818102929160008212600160ff1b821416611d9c578184051490151715611d9c57565b91908203918211611d9c57565b613c89613c38565b60d954600080821315613ce35750613ca19082613c74565b905b606482029180830460641481151715611d9c5768056bc75e2d631000000291808304670de0b6b3a76400001490151715611d9c57613ce091613a53565b90565b818103918083056000191490151715613d075750613d019082613ab4565b90613ca3565b80634e487b7160e01b602492526011600452fd5b60cf5415613d4f5760cf6000527facb8d954e2cfef495862221e91bd7523613cf8808827cb33edfe4904cc51bf2990600090565b634e487b7160e01b600052603260045260246000fd5b613d89613d70613c81565b68056bc75e2d6310000080821015613e32575080613c74565b60d35460009190811115613dce57505060cf5460021015613d4f5760cf6000527facb8d954e2cfef495862221e91bd7523613cf8808827cb33edfe4904cc51bf2b5490565b60d2541015613e1f5760cf5460011015613e0b5760cf90527facb8d954e2cfef495862221e91bd7523613cf8808827cb33edfe4904cc51bf2a5490565b80634e487b7160e01b602492526032600452fd5b50613e28613d1b565b90549060031b1c90565b90613c74565b600068056bc75e2d631000008211613e61575050613e5d6301e133809160d654613a73565b0490565b60d75491828111613eac57613e8390613e7d60d6549185613c74565b90613a73565b9068056bc75e2d630fffff198301928311613d0757509161288a613e5d926301e1338094613a53565b50613e5d9150916301e1338092613a73565b6000198114611d9c5760010190565b60de54918291600091825b613ef0613ee3613d1b565b90549060031b1c86613ab4565b8611613f3457613f2c613f26613ef0926001600160a01b0386168752602060e38152604090818920908b8a525287205490613ab4565b96613ebe565b959050613ed8565b945092505050565b613f4c60ef549160f05490613c74565b90701d6329f1c35ca4bfabb9f561000000000091828102928184041490151715611d9c57611f46613ce092670de0b6b3a7640000613f8f60355460d85490613a73565b046001811115613f9f5790613a53565b50600190613a53565b62015180613fb860e25442613c74565b1015613fc057565b7fd103db6eec024592fa6d47db028ec6408076ac4762eb021a6e52b525828bab9b602068056bc75e2d63100000613ffe603554613e7d60d454613a9d565b048060e1554260e255604051908152a1565b6201518061402060dd5442613c74565b101561402857565b600060dc554260dd557fa047de172c12fcf40e0ff45a86ac45befb232ae644862699ef140a8c5f763b41600080a1565b3d15614083573d906140698261397f565b91614077604051938461395d565b82523d6000602084013e565b606090565b6000806001600160a01b0360cd54166040518260208201917fbef35b79000000000000000000000000000000000000000000000000000000008352600481526140d081613941565b51925af16140dc614058565b50156140e457565b7f46f2d6138acb3be39ad6ae5c9279b648c2a2c68743d0ddc18cc3a81cedecebd5600080a1565b7f9551c7fda0233728a7b7eae3d388b53a068086c3f7d613bdf74e6e58dd6b41ec6020614136614971565b61413f81613f3c565b908160ef5560f055604051908152a1565b1561415757565b606460405162461bcd60e51b815260206004820152601260248201527f50454e44494e475f5749544844524157414c00000000000000000000000000006044820152fd5b600060d954136000146141c257613ce060e154603554808210600014613e32575080613c74565b60001990565b6000198114806141e3575b613ce05760d854613ce091615209565b50670de0b6b3a764000060d85410156141d3565b600019811480614233575b613ce057670de0b6b3a764000060d85461421c8184615209565b92096142255790565b60018101809111611d9c5790565b50670de0b6b3a764000060d8541015614202565b6001600160a01b038060cd5416916040518093632e3fbb9960e21b825281600460209687935afa9081156142f5576000916142c8575b506000906142c157501660005260e3815260406000209060de54600052526040600020546035546000198101908111611d9c57808210156142bc575090565b905090565b9250505090565b908482813d83116142ee575b6142de818361395d565b810103126104d75750513861427d565b503d6142d4565b6040513d6000823e3d90fd5b1561430857565b606460405162461bcd60e51b815260206004820152600760248201527f50524943455f30000000000000000000000000000000000000000000000000006044820152fd5b1561435357565b606460405162461bcd60e51b815260206004820152600760248201527f56414c55455f30000000000000000000000000000000000000000000000000006044820152fd5b8115613a5d57600160ff1b8114600019831416611d9c570590565b91909160008382019384129112908015821691151617611d9c57565b9060355460da546000811260001461441d5750806143fe614410946143f86144049460da54613c51565b92613ab4565b90614397565b60da555b60e754613ab4565b60e75561441b61410b565b565b600012614430575b506144109150614408565b6144469061444160ea548095613c51565b614397565b9182800560011483151715611d9c5761441092614462916143b2565b60ea5538614425565b6000906035548260da548181126000146144d157505090816144926144a29360da54613c51565b9184156144c8576143fe91613ab4565b60da555b156144b7576144109060e754613ab4565b6144c39060e754613c74565b614410565b6143fe91613c74565b136144de575b50506144a6565b6144ef9061444160ea548094613c51565b80600003908082056000191490151715611d9c5761450c916143b2565b60ea5538806144d7565b1561451d57565b606460405162461bcd60e51b815260206004820152600b60248201527f4e4f545f414c4c4f5745440000000000000000000000000000000000000000006044820152fd5b1561456857565b606460405162461bcd60e51b815260206004820152601260248201527f4e4f5f4143544956455f444953434f554e5400000000000000000000000000006044820152fd5b156145b357565b606460405162461bcd60e51b815260206004820152601760248201527f42454c4f575f4d494e5f4c4f434b5f4455524154494f4e0000000000000000006044820152fd5b156145fe57565b606460405162461bcd60e51b815260206004820152601760248201527f41424f56455f4d41585f4c4f434b5f4455524154494f4e0000000000000000006044820152fd5b9392919092838511156147e8576146de61466b8561466160e454613ebe565b978860e455613c74565b6146c760009488865260e560205260408620976001600160a01b03978887166001600160a01b03198b5416178a558260018b01558160028b01558460038b01554260048b015560058a01556146c081836143ce565b3033614ec3565b6146d38160ec54613ab4565b60ec5560eb54613ab4565b60eb558260c9541690813b15611132576040517f40c10f190000000000000000000000000000000000000000000000000000000081526001600160a01b0391909116600482015260248101869052919081908390604490829084905af19081156147dc57506147cd575b50815416907f5d26cdffbd8401ba2a961d2094f7f008ee7bd735ac02a949721ee0fd0f0d5afc604051806147c733948783909291600560c09160e084019584526001600160a01b038154166020850152600181015460408501526002810154606085015260038101546080850152600481015460a08501520154910152565b0390a390565b6147d690613911565b38614748565b604051903d90823e3d90fd5b606460405162461bcd60e51b815260206004820152600b60248201527f4e4f5f444953434f554e540000000000000000000000000000000000000000006044820152fd5b908160209103126106f957516001600160a01b03811681036106f95790565b908160209103126106f9575180151581036106f95790565b1561486a57565b606460405162461bcd60e51b815260206004820152601160248201527f4e4f545f454e4f5547485f4153534554530000000000000000000000000000006044820152fd5b6148b661410b565b7f547c25b7a5677a006ff044a0e4b5e699598339825e7b42d3dc645117ceee805060206148f86148e4613c38565b60d954600080821315614905575090613c74565b8060d855604051908152a1565b905090613c74565b81810392916000138015828513169184121617611d9c57565b1561492d57565b606460405162461bcd60e51b815260206004820152600e60248201527f414d4f554e545f544f4f5f4249470000000000000000000000000000000000006044820152fd5b61a4b1461480156149f5575b614985574390565b6040517fa3b1b31d00000000000000000000000000000000000000000000000000000000815260208160048160645afa9081156142f5576000916149c7575090565b906020823d82116149ed575b816149e06020938361395d565b810103126104d757505190565b3d91506149d3565b5062066eed461461497d565b15614a0857565b608460405162461bcd60e51b815260206004820152602b60248201527f496e697469616c697a61626c653a20636f6e7472616374206973206e6f74206960448201527f6e697469616c697a696e670000000000000000000000000000000000000000006064820152fd5b90600182811c92168015614aa2575b6020831014614a8c57565b634e487b7160e01b600052602260045260246000fd5b91607f1691614a81565b6001600160a01b03809116918215614bf85716918215614b8e5760008281526033602052604081205491808310614b2457604082827fddf252ad1be2c89b69c2b068fc378daa952ba7f163c4a11628f55a4df523b3ef95876020965260338652038282205586815220818154019055604051908152a3565b608460405162461bcd60e51b815260206004820152602660248201527f45524332303a207472616e7366657220616d6f756e742065786365656473206260448201527f616c616e636500000000000000000000000000000000000000000000000000006064820152fd5b608460405162461bcd60e51b815260206004820152602360248201527f45524332303a207472616e7366657220746f20746865207a65726f206164647260448201527f65737300000000000000000000000000000000000000000000000000000000006064820152fd5b608460405162461bcd60e51b815260206004820152602560248201527f45524332303a207472616e736665722066726f6d20746865207a65726f20616460448201527f64726573730000000000000000000000000000000000000000000000000000006064820152fd5b6001600160a01b03809116918215614d2d5716918215614cc35760207f8c5be1e5ebec7d5bd14f71427d1e84f3dd0314c0f7b2291e5b200ac8c7c3b925918360005260348252604060002085600052825280604060002055604051908152a3565b608460405162461bcd60e51b815260206004820152602260248201527f45524332303a20617070726f766520746f20746865207a65726f20616464726560448201527f73730000000000000000000000000000000000000000000000000000000000006064820152fd5b608460405162461bcd60e51b8152602060048201526024808201527f45524332303a20617070726f76652066726f6d20746865207a65726f2061646460448201527f72657373000000000000000000000000000000000000000000000000000000006064820152fd5b906001600160a01b0380831660005260346020526040600020908216600052602052604060002054926000198403614dcf575b50505050565b808410614dea57614de1930391614c62565b38808080614dc9565b606460405162461bcd60e51b815260206004820152601d60248201527f45524332303a20696e73756666696369656e7420616c6c6f77616e63650000006044820152fd5b906001600160a01b0360405160208101937f313ce56700000000000000000000000000000000000000000000000000000000855260048252614e6f82613941565b600094859384935192165afa614e83614058565b9080614eb7575b614e94575b508190565b602081805181010312611132576020015160ff8111614e8f576001925060ff1690565b50602081511015614e8a565b90926001600160a01b038094614ee0858360655416863091615377565b16938415614f6a577fdcbc1c05240f31ff3ad067ef1ee35ce4997762752e3a095284754544f4c709d79282614f19604094603554613ab4565b603555866000526033602052836000208181540190558660007fddf252ad1be2c89b69c2b068fc378daa952ba7f163c4a11628f55a4df523b3ef60208751858152a3835195865260208601521692a3565b606460405162461bcd60e51b815260206004820152601f60248201527f45524332303a206d696e7420746f20746865207a65726f2061646472657373006044820152fd5b9193906001600160a01b0390818616958383861695888703615147575b50505085156150dd5785600052603360205260409283600020548181106150745790807ffbde797d201c681b91056529119e0b02407c7bb96a4a2c75c01fc9667232c8db9594939289600052603360205203846000205580603554036035556000887fddf252ad1be2c89b69c2b068fc378daa952ba7f163c4a11628f55a4df523b3ef60208751858152a36150658783856065541661531d565b835196875260208701521693a4565b6084855162461bcd60e51b815260206004820152602260248201527f45524332303a206275726e20616d6f756e7420657863656564732062616c616e60448201527f63650000000000000000000000000000000000000000000000000000000000006064820152fd5b608460405162461bcd60e51b815260206004820152602160248201527f45524332303a206275726e2066726f6d20746865207a65726f2061646472657360448201527f73000000000000000000000000000000000000000000000000000000000000006064820152fd5b61515092614d96565b388381614fcb565b90615163818361517c565b918115613a5d57670de0b6b3a764000090096142255790565b90670de0b6b3a76400009060001982840992828102928380861095039480860395146151fc57848311156106f9578291096001821901821680920460028082600302188083028203028083028203028083028203028083028203028083028203028092029003029360018380600003040190848311900302920304170290565b505090613ce09250613a53565b906000198183098183029182808310920391808303921461526c57670de0b6b3a764000090828211156106f9577faccb18165bd6fe31ae1cf318dc5b51eee0e1ba569b88cd74c1773b91fac10669940990828211900360ee1b910360121c170290565b5050670de0b6b3a764000091500490565b6001600160a01b0360975416330361529157565b606460405162461bcd60e51b815260206004820152602060248201527f4f776e61626c653a2063616c6c6572206973206e6f7420746865206f776e65726044820152fd5b609754906001600160a01b0380911691826001600160a01b0319821617609755167f8be0079c531659141344cd1fd0a4f28419497f9722a3daafe3b4186f6b6457e0600080a3565b6040517fa9059cbb0000000000000000000000000000000000000000000000000000000060208201526001600160a01b0392909216602483015260448083019390935291815261441b9161537260648361395d565b6153e2565b9290604051927f23b872dd0000000000000000000000000000000000000000000000000000000060208501526001600160a01b03809216602485015216604483015260648201526064815260a081019181831067ffffffffffffffff841117610d375761441b926040525b604051615440916001600160a01b03166153fb82613941565b6000806020958685527f5361666545524332303a206c6f772d6c6576656c2063616c6c206661696c656487860152868151910182855af161543a614058565b916154cf565b8051908161544d57505050565b828061545d93830101910161484b565b156154655750565b6084906040519062461bcd60e51b82526004820152602a60248201527f5361666545524332303a204552433230206f7065726174696f6e20646964206e60448201527f6f742073756363656564000000000000000000000000000000000000000000006064820152fd5b9192901561553057508151156154e3575090565b3b156154ec5790565b606460405162461bcd60e51b815260206004820152601d60248201527f416464726573733a2063616c6c20746f206e6f6e2d636f6e74726163740000006044820152fd5b8251909150156155435750805190602001fd5b61555f9060405191829162461bcd60e51b8352600483016137e1565b0390fdfea26469706673582212203c434f7a393e632e64b54b4a3376db3c72bf61ea0a96bb1e0bb21eba50758b2c64736f6c63430008140033",
  "libraries": {},
  "devdoc": {
    "events": {
      "Approval(address,address,uint256)": {
        "details": "Emitted when the allowance of a `spender` for an `owner` is set by a call to {approve}. `value` is the new allowance."
      },
      "Initialized(uint8)": {
        "details": "Triggered when the contract has been initialized or reinitialized."
      },
      "Transfer(address,address,uint256)": {
        "details": "Emitted when `value` tokens are moved from one account (`from`) to another (`to`). Note that `value` may be zero."
      }
    },
    "kind": "dev",
    "methods": {
      "allowance(address,address)": {
        "details": "See {IERC20-allowance}."
      },
      "approve(address,uint256)": {
        "details": "See {IERC20-approve}. NOTE: If `amount` is the maximum `uint256`, the allowance is not updated on `transferFrom`. This is semantically equivalent to an infinite approval. Requirements: - `spender` cannot be the zero address."
      },
      "asset()": {
        "details": "See {IERC4626-asset}. "
      },
      "balanceOf(address)": {
        "details": "See {IERC20-balanceOf}."
      },
      "convertToAssets(uint256)": {
        "details": "See {IERC4626-convertToAssets}. "
      },
      "convertToShares(uint256)": {
        "details": "See {IERC4626-convertToShares}. "
      },
      "decreaseAllowance(address,uint256)": {
        "details": "Atomically decreases the allowance granted to `spender` by the caller. This is an alternative to {approve} that can be used as a mitigation for problems described in {IERC20-approve}. Emits an {Approval} event indicating the updated allowance. Requirements: - `spender` cannot be the zero address. - `spender` must have allowance for the caller of at least `subtractedValue`."
      },
      "deposit(uint256,address)": {
        "details": "See {IERC4626-deposit}. "
      },
      "increaseAllowance(address,uint256)": {
        "details": "Atomically increases the allowance granted to `spender` by the caller. This is an alternative to {approve} that can be used as a mitigation for problems described in {IERC20-approve}. Emits an {Approval} event indicating the updated allowance. Requirements: - `spender` cannot be the zero address."
      },
      "maxMint(address)": {
        "details": "See {IERC4626-maxMint}. "
      },
      "maxRedeem(address)": {
        "details": "See {IERC4626-maxRedeem}. "
      },
      "maxWithdraw(address)": {
        "details": "See {IERC4626-maxWithdraw}. "
      },
      "mint(uint256,address)": {
        "details": "See {IERC4626-mint}. As opposed to {deposit}, minting is allowed even if the vault is in a state where the price of a share is zero. In this case, the shares will be minted without requiring any assets to be deposited."
      },
      "name()": {
        "details": "Returns the name of the token."
      },
      "owner()": {
        "details": "Returns the address of the current owner."
      },
      "previewDeposit(uint256)": {
        "details": "See {IERC4626-previewDeposit}. "
      },
      "previewMint(uint256)": {
        "details": "See {IERC4626-previewMint}. "
      },
      "previewRedeem(uint256)": {
        "details": "See {IERC4626-previewRedeem}. "
      },
      "previewWithdraw(uint256)": {
        "details": "See {IERC4626-previewWithdraw}. "
      },
      "redeem(uint256,address,address)": {
        "details": "See {IERC4626-redeem}. "
      },
      "renounceOwnership()": {
        "details": "Leaves the contract without owner. It will not be possible to call `onlyOwner` functions anymore. Can only be called by the current owner. NOTE: Renouncing ownership will leave the contract without an owner, thereby removing any functionality that is only available to the owner."
      },
      "symbol()": {
        "details": "Returns the symbol of the token, usually a shorter version of the name."
      },
      "totalAssets()": {
        "details": "See {IERC4626-totalAssets}. "
      },
      "totalSupply()": {
        "details": "See {IERC20-totalSupply}."
      },
      "transferOwnership(address)": {
        "details": "Transfers ownership of the contract to a new account (`newOwner`). Can only be called by the current owner."
      },
      "withdraw(uint256,address,address)": {
        "details": "See {IERC4626-withdraw}. "
      }
    },
    "version": 1
  },
  "userdoc": {
    "kind": "user",
    "methods": {},
    "version": 1
  },
  "storageLayout": {
    "storage": [
      {
        "astId": 3421,
        "contract": "contracts/contracts/GTokenV6_3_2.sol:GTokenV6_3_2",
        "label": "_initialized",
        "offset": 0,
        "slot": "0",
        "type": "t_uint8"
      },
      {
        "astId": 3424,
        "contract": "contracts/contracts/GTokenV6_3_2.sol:GTokenV6_3_2",
        "label": "_initializing",
        "offset": 1,
        "slot": "0",
        "type": "t_bool"
      },
      {
        "astId": 3908,
        "contract": "contracts/contracts/GTokenV6_3_2.sol:GTokenV6_3_2",
        "label": "__gap",
        "offset": 0,
        "slot": "1",
        "type": "t_array(t_uint256)50_storage"
      },
      {
        "astId": 3928,
        "contract": "contracts/contracts/GTokenV6_3_2.sol:GTokenV6_3_2",
        "label": "_balances",
        "offset": 0,
        "slot": "51",
        "type": "t_mapping(t_address,t_uint256)"
      },
      {
        "astId": 3934,
        "contract": "contracts/contracts/GTokenV6_3_2.sol:GTokenV6_3_2",
        "label": "_allowances",
        "offset": 0,
        "slot": "52",
        "type": "t_mapping(t_address,t_mapping(t_address,t_uint256))"
      },
      {
        "astId": 3936,
        "contract": "contracts/contracts/GTokenV6_3_2.sol:GTokenV6_3_2",
        "label": "_totalSupply",
        "offset": 0,
        "slot": "53",
        "type": "t_uint256"
      },
      {
        "astId": 3938,
        "contract": "contracts/contracts/GTokenV6_3_2.sol:GTokenV6_3_2",
        "label": "_name",
        "offset": 0,
        "slot": "54",
        "type": "t_string_storage"
      },
      {
        "astId": 3940,
        "contract": "contracts/contracts/GTokenV6_3_2.sol:GTokenV6_3_2",
        "label": "_symbol",
        "offset": 0,
        "slot": "55",
        "type": "t_string_storage"
      },
      {
        "astId": 4520,
        "contract": "contracts/contracts/GTokenV6_3_2.sol:GTokenV6_3_2",
        "label": "__gap",
        "offset": 0,
        "slot": "56",
        "type": "t_array(t_uint256)45_storage"
      },
      {
        "astId": 4541,
        "contract": "contracts/contracts/GTokenV6_3_2.sol:GTokenV6_3_2",
        "label": "_asset",
        "offset": 0,
        "slot": "101",
        "type": "t_contract(IERC20Upgradeable)5330"
      },
      {
        "astId": 4543,
        "contract": "contracts/contracts/GTokenV6_3_2.sol:GTokenV6_3_2",
        "label": "_decimals",
        "offset": 20,
        "slot": "101",
        "type": "t_uint8"
      },
      {
        "astId": 5226,
        "contract": "contracts/contracts/GTokenV6_3_2.sol:GTokenV6_3_2",
        "label": "__gap",
        "offset": 0,
        "slot": "102",
        "type": "t_array(t_uint256)49_storage"
      },
      {
        "astId": 6374,
        "contract": "contracts/contracts/GTokenV6_3_2.sol:GTokenV6_3_2",
        "label": "_owner",
        "offset": 0,
        "slot": "151",
        "type": "t_address"
      },
      {
        "astId": 6494,
        "contract": "contracts/contracts/GTokenV6_3_2.sol:GTokenV6_3_2",
        "label": "__gap",
        "offset": 0,
        "slot": "152",
        "type": "t_array(t_uint256)49_storage"
      },
      {
        "astId": 152,
        "contract": "contracts/contracts/GTokenV6_3_2.sol:GTokenV6_3_2",
        "label": "lockedDepositNft",
        "offset": 0,
        "slot": "201",
        "type": "t_contract(INft)3336"
      },
      {
        "astId": 155,
        "contract": "contracts/contracts/GTokenV6_3_2.sol:GTokenV6_3_2",
        "label": "manager",
        "offset": 0,
        "slot": "202",
        "type": "t_address"
      },
      {
        "astId": 158,
        "contract": "contracts/contracts/GTokenV6_3_2.sol:GTokenV6_3_2",
        "label": "admin",
        "offset": 0,
        "slot": "203",
        "type": "t_address"
      },
      {
        "astId": 160,
        "contract": "contracts/contracts/GTokenV6_3_2.sol:GTokenV6_3_2",
        "label": "pnlHandler",
        "offset": 0,
        "slot": "204",
        "type": "t_address"
      },
      {
        "astId": 163,
        "contract": "contracts/contracts/GTokenV6_3_2.sol:GTokenV6_3_2",
        "label": "openTradesPnlFeed",
        "offset": 0,
        "slot": "205",
        "type": "t_contract(IOpenTradesPnlFeed)3347"
      },
      {
        "astId": 194,
        "contract": "contracts/contracts/GTokenV6_3_2.sol:GTokenV6_3_2",
        "label": "MIN_LOCK_DURATION",
        "offset": 0,
        "slot": "206",
        "type": "t_uint256"
      },
      {
        "astId": 200,
        "contract": "contracts/contracts/GTokenV6_3_2.sol:GTokenV6_3_2",
        "label": "WITHDRAW_EPOCHS_LOCKS",
        "offset": 0,
        "slot": "207",
        "type": "t_array(t_uint256)dyn_storage"
      },
      {
        "astId": 202,
        "contract": "contracts/contracts/GTokenV6_3_2.sol:GTokenV6_3_2",
        "label": "maxAccOpenPnlDelta",
        "offset": 0,
        "slot": "208",
        "type": "t_uint256"
      },
      {
        "astId": 204,
        "contract": "contracts/contracts/GTokenV6_3_2.sol:GTokenV6_3_2",
        "label": "maxDailyAccPnlDelta",
        "offset": 0,
        "slot": "209",
        "type": "t_uint256"
      },
      {
        "astId": 208,
        "contract": "contracts/contracts/GTokenV6_3_2.sol:GTokenV6_3_2",
        "label": "withdrawLockThresholdsP",
        "offset": 0,
        "slot": "210",
        "type": "t_array(t_uint256)2_storage"
      },
      {
        "astId": 210,
        "contract": "contracts/contracts/GTokenV6_3_2.sol:GTokenV6_3_2",
        "label": "maxSupplyIncreaseDailyP",
        "offset": 0,
        "slot": "212",
        "type": "t_uint256"
      },
      {
        "astId": 212,
        "contract": "contracts/contracts/GTokenV6_3_2.sol:GTokenV6_3_2",
        "label": "lossesBurnP",
        "offset": 0,
        "slot": "213",
        "type": "t_uint256"
      },
      {
        "astId": 214,
        "contract": "contracts/contracts/GTokenV6_3_2.sol:GTokenV6_3_2",
        "label": "maxDiscountP",
        "offset": 0,
        "slot": "214",
        "type": "t_uint256"
      },
      {
        "astId": 216,
        "contract": "contracts/contracts/GTokenV6_3_2.sol:GTokenV6_3_2",
        "label": "maxDiscountThresholdP",
        "offset": 0,
        "slot": "215",
        "type": "t_uint256"
      },
      {
        "astId": 218,
        "contract": "contracts/contracts/GTokenV6_3_2.sol:GTokenV6_3_2",
        "label": "shareToAssetsPrice",
        "offset": 0,
        "slot": "216",
        "type": "t_uint256"
      },
      {
        "astId": 220,
        "contract": "contracts/contracts/GTokenV6_3_2.sol:GTokenV6_3_2",
        "label": "accPnlPerTokenUsed",
        "offset": 0,
        "slot": "217",
        "type": "t_int256"
      },
      {
        "astId": 222,
        "contract": "contracts/contracts/GTokenV6_3_2.sol:GTokenV6_3_2",
        "label": "accPnlPerToken",
        "offset": 0,
        "slot": "218",
        "type": "t_int256"
      },
      {
        "astId": 224,
        "contract": "contracts/contracts/GTokenV6_3_2.sol:GTokenV6_3_2",
        "label": "accRewardsPerToken",
        "offset": 0,
        "slot": "219",
        "type": "t_uint256"
      },
      {
        "astId": 226,
        "contract": "contracts/contracts/GTokenV6_3_2.sol:GTokenV6_3_2",
        "label": "dailyAccPnlDelta",
        "offset": 0,
        "slot": "220",
        "type": "t_int256"
      },
      {
        "astId": 228,
        "contract": "contracts/contracts/GTokenV6_3_2.sol:GTokenV6_3_2",
        "label": "lastDailyAccPnlDeltaReset",
        "offset": 0,
        "slot": "221",
        "type": "t_uint256"
      },
      {
        "astId": 231,
        "contract": "contracts/contracts/GTokenV6_3_2.sol:GTokenV6_3_2",
        "label": "currentEpoch",
        "offset": 0,
        "slot": "222",
        "type": "t_uint256"
      },
      {
        "astId": 234,
        "contract": "contracts/contracts/GTokenV6_3_2.sol:GTokenV6_3_2",
        "label": "currentEpochStart",
        "offset": 0,
        "slot": "223",
        "type": "t_uint256"
      },
      {
        "astId": 237,
        "contract": "contracts/contracts/GTokenV6_3_2.sol:GTokenV6_3_2",
        "label": "currentEpochPositiveOpenPnl",
        "offset": 0,
        "slot": "224",
        "type": "t_uint256"
      },
      {
        "astId": 239,
        "contract": "contracts/contracts/GTokenV6_3_2.sol:GTokenV6_3_2",
        "label": "currentMaxSupply",
        "offset": 0,
        "slot": "225",
        "type": "t_uint256"
      },
      {
        "astId": 241,
        "contract": "contracts/contracts/GTokenV6_3_2.sol:GTokenV6_3_2",
        "label": "lastMaxSupplyUpdate",
        "offset": 0,
        "slot": "226",
        "type": "t_uint256"
      },
      {
        "astId": 247,
        "contract": "contracts/contracts/GTokenV6_3_2.sol:GTokenV6_3_2",
        "label": "withdrawRequests",
        "offset": 0,
        "slot": "227",
        "type": "t_mapping(t_address,t_mapping(t_uint256,t_uint256))"
      },
      {
        "astId": 249,
        "contract": "contracts/contracts/GTokenV6_3_2.sol:GTokenV6_3_2",
        "label": "lockedDepositsCount",
        "offset": 0,
        "slot": "228",
        "type": "t_uint256"
      },
      {
        "astId": 254,
        "contract": "contracts/contracts/GTokenV6_3_2.sol:GTokenV6_3_2",
        "label": "lockedDeposits",
        "offset": 0,
        "slot": "229",
        "type": "t_mapping(t_uint256,t_struct(LockedDeposit)3251_storage)"
      },
      {
        "astId": 256,
        "contract": "contracts/contracts/GTokenV6_3_2.sol:GTokenV6_3_2",
        "label": "assetsToDeplete",
        "offset": 0,
        "slot": "230",
        "type": "t_uint256"
      },
      {
        "astId": 258,
        "contract": "contracts/contracts/GTokenV6_3_2.sol:GTokenV6_3_2",
        "label": "totalDeposited",
        "offset": 0,
        "slot": "231",
        "type": "t_uint256"
      },
      {
        "astId": 260,
        "contract": "contracts/contracts/GTokenV6_3_2.sol:GTokenV6_3_2",
        "label": "totalClosedPnl",
        "offset": 0,
        "slot": "232",
        "type": "t_int256"
      },
      {
        "astId": 262,
        "contract": "contracts/contracts/GTokenV6_3_2.sol:GTokenV6_3_2",
        "label": "totalRewards",
        "offset": 0,
        "slot": "233",
        "type": "t_uint256"
      },
      {
        "astId": 264,
        "contract": "contracts/contracts/GTokenV6_3_2.sol:GTokenV6_3_2",
        "label": "totalLiability",
        "offset": 0,
        "slot": "234",
        "type": "t_int256"
      },
      {
        "astId": 266,
        "contract": "contracts/contracts/GTokenV6_3_2.sol:GTokenV6_3_2",
        "label": "totalLockedDiscounts",
        "offset": 0,
        "slot": "235",
        "type": "t_uint256"
      },
      {
        "astId": 268,
        "contract": "contracts/contracts/GTokenV6_3_2.sol:GTokenV6_3_2",
        "label": "totalDiscounts",
        "offset": 0,
        "slot": "236",
        "type": "t_uint256"
      },
      {
        "astId": 270,
        "contract": "contracts/contracts/GTokenV6_3_2.sol:GTokenV6_3_2",
        "label": "totalDepleted",
        "offset": 0,
        "slot": "237",
        "type": "t_uint256"
      },
      {
        "astId": 272,
        "contract": "contracts/contracts/GTokenV6_3_2.sol:GTokenV6_3_2",
        "label": "totalRefilled",
        "offset": 0,
        "slot": "238",
        "type": "t_uint256"
      },
      {
        "astId": 274,
        "contract": "contracts/contracts/GTokenV6_3_2.sol:GTokenV6_3_2",
        "label": "accBlockWeightedMarketCap",
        "offset": 0,
        "slot": "239",
        "type": "t_uint256"
      },
      {
        "astId": 276,
        "contract": "contracts/contracts/GTokenV6_3_2.sol:GTokenV6_3_2",
        "label": "accBlockWeightedMarketCapLastStored",
        "offset": 0,
        "slot": "240",
        "type": "t_uint256"
      }
    ],
    "types": {
      "t_address": {
        "encoding": "inplace",
        "label": "address",
        "numberOfBytes": "20"
      },
      "t_array(t_uint256)2_storage": {
        "base": "t_uint256",
        "encoding": "inplace",
        "label": "uint256[2]",
        "numberOfBytes": "64"
      },
      "t_array(t_uint256)45_storage": {
        "base": "t_uint256",
        "encoding": "inplace",
        "label": "uint256[45]",
        "numberOfBytes": "1440"
      },
      "t_array(t_uint256)49_storage": {
        "base": "t_uint256",
        "encoding": "inplace",
        "label": "uint256[49]",
        "numberOfBytes": "1568"
      },
      "t_array(t_uint256)50_storage": {
        "base": "t_uint256",
        "encoding": "inplace",
        "label": "uint256[50]",
        "numberOfBytes": "1600"
      },
      "t_array(t_uint256)dyn_storage": {
        "base": "t_uint256",
        "encoding": "dynamic_array",
        "label": "uint256[]",
        "numberOfBytes": "32"
      },
      "t_bool": {
        "encoding": "inplace",
        "label": "bool",
        "numberOfBytes": "1"
      },
      "t_contract(IERC20Upgradeable)5330": {
        "encoding": "inplace",
        "label": "contract IERC20Upgradeable",
        "numberOfBytes": "20"
      },
      "t_contract(INft)3336": {
        "encoding": "inplace",
        "label": "contract INft",
        "numberOfBytes": "20"
      },
      "t_contract(IOpenTradesPnlFeed)3347": {
        "encoding": "inplace",
        "label": "contract IOpenTradesPnlFeed",
        "numberOfBytes": "20"
      },
      "t_int256": {
        "encoding": "inplace",
        "label": "int256",
        "numberOfBytes": "32"
      },
      "t_mapping(t_address,t_mapping(t_address,t_uint256))": {
        "encoding": "mapping",
        "key": "t_address",
        "label": "mapping(address => mapping(address => uint256))",
        "numberOfBytes": "32",
        "value": "t_mapping(t_address,t_uint256)"
      },
      "t_mapping(t_address,t_mapping(t_uint256,t_uint256))": {
        "encoding": "mapping",
        "key": "t_address",
        "label": "mapping(address => mapping(uint256 => uint256))",
        "numberOfBytes": "32",
        "value": "t_mapping(t_uint256,t_uint256)"
      },
      "t_mapping(t_address,t_uint256)": {
        "encoding": "mapping",
        "key": "t_address",
        "label": "mapping(address => uint256)",
        "numberOfBytes": "32",
        "value": "t_uint256"
      },
      "t_mapping(t_uint256,t_struct(LockedDeposit)3251_storage)": {
        "encoding": "mapping",
        "key": "t_uint256",
        "label": "mapping(uint256 => struct IGToken.LockedDeposit)",
        "numberOfBytes": "32",
        "value": "t_struct(LockedDeposit)3251_storage"
      },
      "t_mapping(t_uint256,t_uint256)": {
        "encoding": "mapping",
        "key": "t_uint256",
        "label": "mapping(uint256 => uint256)",
        "numberOfBytes": "32",
        "value": "t_uint256"
      },
      "t_string_storage": {
        "encoding": "bytes",
        "label": "string",
        "numberOfBytes": "32"
      },
      "t_struct(LockedDeposit)3251_storage": {
        "encoding": "inplace",
        "label": "struct IGToken.LockedDeposit",
        "members": [
          {
            "astId": 3240,
            "contract": "contracts/contracts/GTokenV6_3_2.sol:GTokenV6_3_2",
            "label": "owner",
            "offset": 0,
            "slot": "0",
            "type": "t_address"
          },
          {
            "astId": 3242,
            "contract": "contracts/contracts/GTokenV6_3_2.sol:GTokenV6_3_2",
            "label": "shares",
            "offset": 0,
            "slot": "1",
            "type": "t_uint256"
          },
          {
            "astId": 3244,
            "contract": "contracts/contracts/GTokenV6_3_2.sol:GTokenV6_3_2",
            "label": "assetsDeposited",
            "offset": 0,
            "slot": "2",
            "type": "t_uint256"
          },
          {
            "astId": 3246,
            "contract": "contracts/contracts/GTokenV6_3_2.sol:GTokenV6_3_2",
            "label": "assetsDiscount",
            "offset": 0,
            "slot": "3",
            "type": "t_uint256"
          },
          {
            "astId": 3248,
            "contract": "contracts/contracts/GTokenV6_3_2.sol:GTokenV6_3_2",
            "label": "atTimestamp",
            "offset": 0,
            "slot": "4",
            "type": "t_uint256"
          },
          {
            "astId": 3250,
            "contract": "contracts/contracts/GTokenV6_3_2.sol:GTokenV6_3_2",
            "label": "lockDuration",
            "offset": 0,
            "slot": "5",
            "type": "t_uint256"
          }
        ],
        "numberOfBytes": "192"
      },
      "t_uint256": {
        "encoding": "inplace",
        "label": "uint256",
        "numberOfBytes": "32"
      },
      "t_uint8": {
        "encoding": "inplace",
        "label": "uint8",
        "numberOfBytes": "1"
      }
    }
  }
}