{
  "address": "0x3EF2543afB86Ff02A80605108c42831F0Bb54771",
  "abi": [
    {
      "anonymous": false,
      "inputs": [
        {
          "indexed": false,
          "internalType": "uint256",
          "name": "newAccValue",
          "type": "uint256"
        }
      ],
      "name": "AccBlockWeightedMarketCapStored",
      "type": "event"
    },
    {
      "anonymous": false,
      "inputs": [
        {
          "indexed": true,
          "internalType": "address",
          "name": "sender",
          "type": "address"
        },
        {
          "indexed": true,
          "internalType": "uint256",
          "name": "newEpoch",
          "type": "uint256"
        },
        {
          "indexed": false,
          "internalType": "uint256",
          "name": "prevPositiveOpenPnl",
          "type": "uint256"
        },
        {
          "indexed": false,
          "internalType": "uint256",
          "name": "newPositiveOpenPnl",
          "type": "uint256"
        },
        {
          "indexed": false,
          "internalType": "uint256",
          "name": "newEpochPositiveOpenPnl",
          "type": "uint256"
        },
        {
          "indexed": false,
          "internalType": "int256",
          "name": "newAccPnlPerTokenUsed",
          "type": "int256"
        }
      ],
      "name": "AccPnlPerTokenUsedUpdated",
      "type": "event"
    },
    {
      "anonymous": false,
      "inputs": [
        {
          "indexed": false,
          "internalType": "string",
          "name": "name",
          "type": "string"
        },
        {
          "indexed": false,
          "internalType": "address",
          "name": "newValue",
          "type": "address"
        }
      ],
      "name": "AddressParamUpdated",
      "type": "event"
    },
    {
      "anonymous": false,
      "inputs": [
        {
          "indexed": true,
          "internalType": "address",
          "name": "owner",
          "type": "address"
        },
        {
          "indexed": true,
          "internalType": "address",
          "name": "spender",
          "type": "address"
        },
        {
          "indexed": false,
          "internalType": "uint256",
          "name": "value",
          "type": "uint256"
        }
      ],
      "name": "Approval",
      "type": "event"
    },
    {
      "anonymous": false,
      "inputs": [
        {
          "indexed": true,
          "internalType": "address",
          "name": "sender",
          "type": "address"
        },
        {
          "indexed": true,
          "internalType": "address",
          "name": "user",
          "type": "address"
        },
        {
          "indexed": false,
          "internalType": "uint256",
          "name": "assets",
          "type": "uint256"
        },
        {
          "indexed": false,
          "internalType": "uint256",
          "name": "assetsLessDeplete",
          "type": "uint256"
        }
      ],
      "name": "AssetsReceived",
      "type": "event"
    },
    {
      "anonymous": false,
      "inputs": [
        {
          "indexed": true,
          "internalType": "address",
          "name": "sender",
          "type": "address"
        },
        {
          "indexed": true,
          "internalType": "address",
          "name": "receiver",
          "type": "address"
        },
        {
          "indexed": false,
          "internalType": "uint256",
          "name": "assets",
          "type": "uint256"
        }
      ],
      "name": "AssetsSent",
      "type": "event"
    },
    {
      "anonymous": false,
      "inputs": [
        {
          "indexed": false,
          "internalType": "uint256",
          "name": "newValue",
          "type": "uint256"
        }
      ],
      "name": "CurrentMaxSupplyUpdated",
      "type": "event"
    },
    {
      "anonymous": false,
      "inputs": [],
      "name": "DailyAccPnlDeltaReset",
      "type": "event"
    },
    {
      "anonymous": false,
      "inputs": [
        {
          "indexed": true,
          "internalType": "address",
          "name": "sender",
          "type": "address"
        },
        {
          "indexed": false,
          "internalType": "uint256",
          "name": "assets",
          "type": "uint256"
        },
        {
          "indexed": false,
          "internalType": "uint256",
          "name": "amountGns",
          "type": "uint256"
        }
      ],
      "name": "Depleted",
      "type": "event"
    },
    {
      "anonymous": false,
      "inputs": [
        {
          "indexed": true,
          "internalType": "address",
          "name": "sender",
          "type": "address"
        },
        {
          "indexed": true,
          "internalType": "address",
          "name": "owner",
          "type": "address"
        },
        {
          "indexed": false,
          "internalType": "uint256",
          "name": "assets",
          "type": "uint256"
        },
        {
          "indexed": false,
          "internalType": "uint256",
          "name": "shares",
          "type": "uint256"
        }
      ],
      "name": "Deposit",
      "type": "event"
    },
    {
      "anonymous": false,
      "inputs": [
        {
          "indexed": true,
          "internalType": "address",
          "name": "sender",
          "type": "address"
        },
        {
          "indexed": true,
          "internalType": "address",
          "name": "owner",
          "type": "address"
        },
        {
          "indexed": false,
          "internalType": "uint256",
          "name": "depositId",
          "type": "uint256"
        },
        {
          "components": [
            {
              "internalType": "address",
              "name": "owner",
              "type": "address"
            },
            {
              "internalType": "uint256",
              "name": "shares",
              "type": "uint256"
            },
            {
              "internalType": "uint256",
              "name": "assetsDeposited",
              "type": "uint256"
            },
            {
              "internalType": "uint256",
              "name": "assetsDiscount",
              "type": "uint256"
            },
            {
              "internalType": "uint256",
              "name": "atTimestamp",
              "type": "uint256"
            },
            {
              "internalType": "uint256",
              "name": "lockDuration",
              "type": "uint256"
            }
          ],
          "indexed": false,
          "internalType": "struct IGToken.LockedDeposit",
          "name": "d",
          "type": "tuple"
        }
      ],
      "name": "DepositLocked",
      "type": "event"
    },
    {
      "anonymous": false,
      "inputs": [
        {
          "indexed": true,
          "internalType": "address",
          "name": "sender",
          "type": "address"
        },
        {
          "indexed": true,
          "internalType": "address",
          "name": "receiver",
          "type": "address"
        },
        {
          "indexed": true,
          "internalType": "address",
          "name": "owner",
          "type": "address"
        },
        {
          "indexed": false,
          "internalType": "uint256",
          "name": "depositId",
          "type": "uint256"
        },
        {
          "components": [
            {
              "internalType": "address",
              "name": "owner",
              "type": "address"
            },
            {
              "internalType": "uint256",
              "name": "shares",
              "type": "uint256"
            },
            {
              "internalType": "uint256",
              "name": "assetsDeposited",
              "type": "uint256"
            },
            {
              "internalType": "uint256",
              "name": "assetsDiscount",
              "type": "uint256"
            },
            {
              "internalType": "uint256",
              "name": "atTimestamp",
              "type": "uint256"
            },
            {
              "internalType": "uint256",
              "name": "lockDuration",
              "type": "uint256"
            }
          ],
          "indexed": false,
          "internalType": "struct IGToken.LockedDeposit",
          "name": "d",
          "type": "tuple"
        }
      ],
      "name": "DepositUnlocked",
      "type": "event"
    },
    {
      "anonymous": false,
      "inputs": [
        {
          "indexed": false,
          "internalType": "uint8",
          "name": "version",
          "type": "uint8"
        }
      ],
      "name": "Initialized",
      "type": "event"
    },
    {
      "anonymous": false,
      "inputs": [
        {
          "indexed": false,
          "internalType": "string",
          "name": "name",
          "type": "string"
        },
        {
          "indexed": false,
          "internalType": "uint256",
          "name": "newValue",
          "type": "uint256"
        }
      ],
      "name": "NumberParamUpdated",
      "type": "event"
    },
    {
      "anonymous": false,
      "inputs": [],
      "name": "OpenTradesPnlFeedCallFailed",
      "type": "event"
    },
    {
      "anonymous": false,
      "inputs": [
        {
          "indexed": true,
          "internalType": "address",
          "name": "previousOwner",
          "type": "address"
        },
        {
          "indexed": true,
          "internalType": "address",
          "name": "newOwner",
          "type": "address"
        }
      ],
      "name": "OwnershipTransferred",
      "type": "event"
    },
    {
      "anonymous": false,
      "inputs": [
        {
          "indexed": true,
          "internalType": "address",
          "name": "sender",
          "type": "address"
        },
        {
          "indexed": false,
          "internalType": "uint256",
          "name": "assets",
          "type": "uint256"
        },
        {
          "indexed": false,
          "internalType": "uint256",
          "name": "amountGns",
          "type": "uint256"
        }
      ],
      "name": "Refilled",
      "type": "event"
    },
    {
      "anonymous": false,
      "inputs": [
        {
          "indexed": true,
          "internalType": "address",
          "name": "sender",
          "type": "address"
        },
        {
          "indexed": false,
          "internalType": "uint256",
          "name": "assets",
          "type": "uint256"
        }
      ],
      "name": "RewardDistributed",
      "type": "event"
    },
    {
      "anonymous": false,
      "inputs": [
        {
          "indexed": false,
          "internalType": "uint256",
          "name": "newValue",
          "type": "uint256"
        }
      ],
      "name": "ShareToAssetsPriceUpdated",
      "type": "event"
    },
    {
      "anonymous": false,
      "inputs": [
        {
          "indexed": true,
          "internalType": "address",
          "name": "from",
          "type": "address"
        },
        {
          "indexed": true,
          "internalType": "address",
          "name": "to",
          "type": "address"
        },
        {
          "indexed": false,
          "internalType": "uint256",
          "name": "value",
          "type": "uint256"
        }
      ],
      "name": "Transfer",
      "type": "event"
    },
    {
      "anonymous": false,
      "inputs": [
        {
          "indexed": true,
          "internalType": "address",
          "name": "sender",
          "type": "address"
        },
        {
          "indexed": true,
          "internalType": "address",
          "name": "receiver",
          "type": "address"
        },
        {
          "indexed": true,
          "internalType": "address",
          "name": "owner",
          "type": "address"
        },
        {
          "indexed": false,
          "internalType": "uint256",
          "name": "assets",
          "type": "uint256"
        },
        {
          "indexed": false,
          "internalType": "uint256",
          "name": "shares",
          "type": "uint256"
        }
      ],
      "name": "Withdraw",
      "type": "event"
    },
    {
      "anonymous": false,
      "inputs": [
        {
          "indexed": true,
          "internalType": "address",
          "name": "sender",
          "type": "address"
        },
        {
          "indexed": true,
          "internalType": "address",
          "name": "owner",
          "type": "address"
        },
        {
          "indexed": false,
          "internalType": "uint256",
          "name": "shares",
          "type": "uint256"
        },
        {
          "indexed": false,
          "internalType": "uint256",
          "name": "currEpoch",
          "type": "uint256"
        },
        {
          "indexed": true,
          "internalType": "uint256",
          "name": "unlockEpoch",
          "type": "uint256"
        }
      ],
      "name": "WithdrawCanceled",
      "type": "event"
    },
    {
      "anonymous": false,
      "inputs": [
        {
          "indexed": false,
          "internalType": "uint256[2]",
          "name": "newValue",
          "type": "uint256[2]"
        }
      ],
      "name": "WithdrawLockThresholdsPUpdated",
      "type": "event"
    },
    {
      "anonymous": false,
      "inputs": [
        {
          "indexed": true,
          "internalType": "address",
          "name": "sender",
          "type": "address"
        },
        {
          "indexed": true,
          "internalType": "address",
          "name": "owner",
          "type": "address"
        },
        {
          "indexed": false,
          "internalType": "uint256",
          "name": "shares",
          "type": "uint256"
        },
        {
          "indexed": false,
          "internalType": "uint256",
          "name": "currEpoch",
          "type": "uint256"
        },
        {
          "indexed": true,
          "internalType": "uint256",
          "name": "unlockEpoch",
          "type": "uint256"
        }
      ],
      "name": "WithdrawRequested",
      "type": "event"
    },
    {
      "inputs": [],
      "name": "MIN_LOCK_DURATION",
      "outputs": [
        {
          "internalType": "uint256",
          "name": "",
          "type": "uint256"
        }
      ],
      "stateMutability": "view",
      "type": "function"
    },
    {
      "inputs": [],
      "name": "accBlockWeightedMarketCap",
      "outputs": [
        {
          "internalType": "uint256",
          "name": "",
          "type": "uint256"
        }
      ],
      "stateMutability": "view",
      "type": "function"
    },
    {
      "inputs": [],
      "name": "accBlockWeightedMarketCapLastStored",
      "outputs": [
        {
          "internalType": "uint256",
          "name": "",
          "type": "uint256"
        }
      ],
      "stateMutability": "view",
      "type": "function"
    },
    {
      "inputs": [],
      "name": "accPnlPerToken",
      "outputs": [
        {
          "internalType": "int256",
          "name": "",
          "type": "int256"
        }
      ],
      "stateMutability": "view",
      "type": "function"
    },
    {
      "inputs": [],
      "name": "accPnlPerTokenUsed",
      "outputs": [
        {
          "internalType": "int256",
          "name": "",
          "type": "int256"
        }
      ],
      "stateMutability": "view",
      "type": "function"
    },
    {
      "inputs": [],
      "name": "accRewardsPerToken",
      "outputs": [
        {
          "internalType": "uint256",
          "name": "",
          "type": "uint256"
        }
      ],
      "stateMutability": "view",
      "type": "function"
    },
    {
      "inputs": [],
      "name": "admin",
      "outputs": [
        {
          "internalType": "address",
          "name": "",
          "type": "address"
        }
      ],
      "stateMutability": "view",
      "type": "function"
    },
    {
      "inputs": [
        {
          "internalType": "address",
          "name": "owner",
          "type": "address"
        },
        {
          "internalType": "address",
          "name": "spender",
          "type": "address"
        }
      ],
      "name": "allowance",
      "outputs": [
        {
          "internalType": "uint256",
          "name": "",
          "type": "uint256"
        }
      ],
      "stateMutability": "view",
      "type": "function"
    },
    {
      "inputs": [
        {
          "internalType": "address",
          "name": "spender",
          "type": "address"
        },
        {
          "internalType": "uint256",
          "name": "amount",
          "type": "uint256"
        }
      ],
      "name": "approve",
      "outputs": [
        {
          "internalType": "bool",
          "name": "",
          "type": "bool"
        }
      ],
      "stateMutability": "nonpayable",
      "type": "function"
    },
    {
      "inputs": [],
      "name": "asset",
      "outputs": [
        {
          "internalType": "address",
          "name": "",
          "type": "address"
        }
      ],
      "stateMutability": "view",
      "type": "function"
    },
    {
      "inputs": [],
      "name": "assetsToDeplete",
      "outputs": [
        {
          "internalType": "uint256",
          "name": "",
          "type": "uint256"
        }
      ],
      "stateMutability": "view",
      "type": "function"
    },
    {
      "inputs": [],
      "name": "availableAssets",
      "outputs": [
        {
          "internalType": "uint256",
          "name": "",
          "type": "uint256"
        }
      ],
      "stateMutability": "view",
      "type": "function"
    },
    {
      "inputs": [
        {
          "internalType": "address",
          "name": "account",
          "type": "address"
        }
      ],
      "name": "balanceOf",
      "outputs": [
        {
          "internalType": "uint256",
          "name": "",
          "type": "uint256"
        }
      ],
      "stateMutability": "view",
      "type": "function"
    },
    {
      "inputs": [
        {
          "internalType": "uint256",
          "name": "shares",
          "type": "uint256"
        },
        {
          "internalType": "address",
          "name": "owner",
          "type": "address"
        },
        {
          "internalType": "uint256",
          "name": "unlockEpoch",
          "type": "uint256"
        }
      ],
      "name": "cancelWithdrawRequest",
      "outputs": [],
      "stateMutability": "nonpayable",
      "type": "function"
    },
    {
      "inputs": [],
      "name": "collateralizationP",
      "outputs": [
        {
          "internalType": "uint256",
          "name": "",
          "type": "uint256"
        }
      ],
      "stateMutability": "view",
      "type": "function"
    },
    {
      "inputs": [
        {
          "internalType": "uint256",
          "name": "shares",
          "type": "uint256"
        }
      ],
      "name": "convertToAssets",
      "outputs": [
        {
          "internalType": "uint256",
          "name": "assets",
          "type": "uint256"
        }
      ],
      "stateMutability": "view",
      "type": "function"
    },
    {
      "inputs": [
        {
          "internalType": "uint256",
          "name": "assets",
          "type": "uint256"
        }
      ],
      "name": "convertToShares",
      "outputs": [
        {
          "internalType": "uint256",
          "name": "shares",
          "type": "uint256"
        }
      ],
      "stateMutability": "view",
      "type": "function"
    },
    {
      "inputs": [],
      "name": "currentBalanceDai",
      "outputs": [
        {
          "internalType": "uint256",
          "name": "",
          "type": "uint256"
        }
      ],
      "stateMutability": "view",
      "type": "function"
    },
    {
      "inputs": [],
      "name": "currentEpoch",
      "outputs": [
        {
          "internalType": "uint256",
          "name": "",
          "type": "uint256"
        }
      ],
      "stateMutability": "view",
      "type": "function"
    },
    {
      "inputs": [],
      "name": "currentEpochPositiveOpenPnl",
      "outputs": [
        {
          "internalType": "uint256",
          "name": "",
          "type": "uint256"
        }
      ],
      "stateMutability": "view",
      "type": "function"
    },
    {
      "inputs": [],
      "name": "currentEpochStart",
      "outputs": [
        {
          "internalType": "uint256",
          "name": "",
          "type": "uint256"
        }
      ],
      "stateMutability": "view",
      "type": "function"
    },
    {
      "inputs": [],
      "name": "currentMaxSupply",
      "outputs": [
        {
          "internalType": "uint256",
          "name": "",
          "type": "uint256"
        }
      ],
      "stateMutability": "view",
      "type": "function"
    },
    {
      "inputs": [],
      "name": "dailyAccPnlDelta",
      "outputs": [
        {
          "internalType": "int256",
          "name": "",
          "type": "int256"
        }
      ],
      "stateMutability": "view",
      "type": "function"
    },
    {
      "inputs": [],
      "name": "decimals",
      "outputs": [
        {
          "internalType": "uint8",
          "name": "",
          "type": "uint8"
        }
      ],
      "stateMutability": "view",
      "type": "function"
    },
    {
      "inputs": [
        {
          "internalType": "address",
          "name": "spender",
          "type": "address"
        },
        {
          "internalType": "uint256",
          "name": "subtractedValue",
          "type": "uint256"
        }
      ],
      "name": "decreaseAllowance",
      "outputs": [
        {
          "internalType": "bool",
          "name": "",
          "type": "bool"
        }
      ],
      "stateMutability": "nonpayable",
      "type": "function"
    },
    {
      "inputs": [
        {
          "internalType": "uint256",
          "name": "assets",
          "type": "uint256"
        }
      ],
      "name": "deplete",
      "outputs": [],
      "stateMutability": "nonpayable",
      "type": "function"
    },
    {
      "inputs": [
        {
          "internalType": "uint256",
          "name": "assets",
          "type": "uint256"
        },
        {
          "internalType": "address",
          "name": "receiver",
          "type": "address"
        }
      ],
      "name": "deposit",
      "outputs": [
        {
          "internalType": "uint256",
          "name": "",
          "type": "uint256"
        }
      ],
      "stateMutability": "nonpayable",
      "type": "function"
    },
    {
      "inputs": [
        {
          "internalType": "uint256",
          "name": "assets",
          "type": "uint256"
        },
        {
          "internalType": "uint256",
          "name": "lockDuration",
          "type": "uint256"
        },
        {
          "internalType": "address",
          "name": "receiver",
          "type": "address"
        }
      ],
      "name": "depositWithDiscountAndLock",
      "outputs": [
        {
          "internalType": "uint256",
          "name": "",
          "type": "uint256"
        }
      ],
      "stateMutability": "nonpayable",
      "type": "function"
    },
    {
      "inputs": [
        {
          "internalType": "uint256",
          "name": "assets",
          "type": "uint256"
        }
      ],
      "name": "distributeReward",
      "outputs": [],
      "stateMutability": "nonpayable",
      "type": "function"
    },
    {
      "inputs": [
        {
          "internalType": "uint256",
          "name": "depositId",
          "type": "uint256"
        }
      ],
      "name": "getLockedDeposit",
      "outputs": [
        {
          "components": [
            {
              "internalType": "address",
              "name": "owner",
              "type": "address"
            },
            {
              "internalType": "uint256",
              "name": "shares",
              "type": "uint256"
            },
            {
              "internalType": "uint256",
              "name": "assetsDeposited",
              "type": "uint256"
            },
            {
              "internalType": "uint256",
              "name": "assetsDiscount",
              "type": "uint256"
            },
            {
              "internalType": "uint256",
              "name": "atTimestamp",
              "type": "uint256"
            },
            {
              "internalType": "uint256",
              "name": "lockDuration",
              "type": "uint256"
            }
          ],
          "internalType": "struct IGToken.LockedDeposit",
          "name": "",
          "type": "tuple"
        }
      ],
      "stateMutability": "view",
      "type": "function"
    },
    {
      "inputs": [
        {
          "internalType": "uint256",
          "name": "currentBlock",
          "type": "uint256"
        }
      ],
      "name": "getPendingAccBlockWeightedMarketCap",
      "outputs": [
        {
          "internalType": "uint256",
          "name": "",
          "type": "uint256"
        }
      ],
      "stateMutability": "view",
      "type": "function"
    },
    {
      "inputs": [
        {
          "internalType": "address",
          "name": "spender",
          "type": "address"
        },
        {
          "internalType": "uint256",
          "name": "addedValue",
          "type": "uint256"
        }
      ],
      "name": "increaseAllowance",
      "outputs": [
        {
          "internalType": "bool",
          "name": "",
          "type": "bool"
        }
      ],
      "stateMutability": "nonpayable",
      "type": "function"
    },
    {
      "inputs": [
        {
          "internalType": "string",
          "name": "_name",
          "type": "string"
        },
        {
          "internalType": "string",
          "name": "_symbol",
          "type": "string"
        },
        {
          "components": [
            {
              "internalType": "address",
              "name": "asset",
              "type": "address"
            },
            {
              "internalType": "address",
              "name": "owner",
              "type": "address"
            },
            {
              "internalType": "address",
              "name": "manager",
              "type": "address"
            },
            {
              "internalType": "address",
              "name": "admin",
              "type": "address"
            },
            {
              "internalType": "address",
              "name": "gnsToken",
              "type": "address"
            },
            {
              "internalType": "address",
              "name": "lockedDepositNft",
              "type": "address"
            },
            {
              "internalType": "address",
              "name": "pnlHandler",
              "type": "address"
            },
            {
              "internalType": "address",
              "name": "openTradesPnlFeed",
              "type": "address"
            }
          ],
          "internalType": "struct GTokenV6_3_2.ContractAddresses",
          "name": "_contractAddresses",
          "type": "tuple"
        },
        {
          "internalType": "uint256",
          "name": "_MIN_LOCK_DURATION",
          "type": "uint256"
        },
        {
          "internalType": "uint256",
          "name": "_maxAccOpenPnlDelta",
          "type": "uint256"
        },
        {
          "internalType": "uint256",
          "name": "_maxDailyAccPnlDelta",
          "type": "uint256"
        },
        {
          "internalType": "uint256[2]",
          "name": "_withdrawLockThresholdsP",
          "type": "uint256[2]"
        },
        {
          "internalType": "uint256",
          "name": "_maxSupplyIncreaseDailyP",
          "type": "uint256"
        },
        {
          "internalType": "uint256",
          "name": "_lossesBurnP",
          "type": "uint256"
        },
        {
          "internalType": "uint256",
          "name": "_maxDiscountP",
          "type": "uint256"
        },
        {
          "internalType": "uint256",
          "name": "_maxDiscountThresholdP",
          "type": "uint256"
        }
      ],
      "name": "initialize",
      "outputs": [],
      "stateMutability": "nonpayable",
      "type": "function"
    },
    {
      "inputs": [],
      "name": "initializeV2",
      "outputs": [],
      "stateMutability": "nonpayable",
      "type": "function"
    },
    {
      "inputs": [],
      "name": "lastDailyAccPnlDeltaReset",
      "outputs": [
        {
          "internalType": "uint256",
          "name": "",
          "type": "uint256"
        }
      ],
      "stateMutability": "view",
      "type": "function"
    },
    {
      "inputs": [],
      "name": "lastMaxSupplyUpdate",
      "outputs": [
        {
          "internalType": "uint256",
          "name": "",
          "type": "uint256"
        }
      ],
      "stateMutability": "view",
      "type": "function"
    },
    {
      "inputs": [
        {
          "internalType": "uint256",
          "name": "collatP",
          "type": "uint256"
        },
        {
          "internalType": "uint256",
          "name": "lockDuration",
          "type": "uint256"
        }
      ],
      "name": "lockDiscountP",
      "outputs": [
        {
          "internalType": "uint256",
          "name": "",
          "type": "uint256"
        }
      ],
      "stateMutability": "view",
      "type": "function"
    },
    {
      "inputs": [],
      "name": "lockedDepositNft",
      "outputs": [
        {
          "internalType": "contract INft",
          "name": "",
          "type": "address"
        }
      ],
      "stateMutability": "view",
      "type": "function"
    },
    {
      "inputs": [
        {
          "internalType": "uint256",
          "name": "",
          "type": "uint256"
        }
      ],
      "name": "lockedDeposits",
      "outputs": [
        {
          "internalType": "address",
          "name": "owner",
          "type": "address"
        },
        {
          "internalType": "uint256",
          "name": "shares",
          "type": "uint256"
        },
        {
          "internalType": "uint256",
          "name": "assetsDeposited",
          "type": "uint256"
        },
        {
          "internalType": "uint256",
          "name": "assetsDiscount",
          "type": "uint256"
        },
        {
          "internalType": "uint256",
          "name": "atTimestamp",
          "type": "uint256"
        },
        {
          "internalType": "uint256",
          "name": "lockDuration",
          "type": "uint256"
        }
      ],
      "stateMutability": "view",
      "type": "function"
    },
    {
      "inputs": [],
      "name": "lockedDepositsCount",
      "outputs": [
        {
          "internalType": "uint256",
          "name": "",
          "type": "uint256"
        }
      ],
      "stateMutability": "view",
      "type": "function"
    },
    {
      "inputs": [],
      "name": "lossesBurnP",
      "outputs": [
        {
          "internalType": "uint256",
          "name": "",
          "type": "uint256"
        }
      ],
      "stateMutability": "view",
      "type": "function"
    },
    {
      "inputs": [
        {
          "internalType": "uint256",
          "name": "shares",
          "type": "uint256"
        },
        {
          "internalType": "address",
          "name": "owner",
          "type": "address"
        }
      ],
      "name": "makeWithdrawRequest",
      "outputs": [],
      "stateMutability": "nonpayable",
      "type": "function"
    },
    {
      "inputs": [],
      "name": "manager",
      "outputs": [
        {
          "internalType": "address",
          "name": "",
          "type": "address"
        }
      ],
      "stateMutability": "view",
      "type": "function"
    },
    {
      "inputs": [],
      "name": "marketCap",
      "outputs": [
        {
          "internalType": "uint256",
          "name": "",
          "type": "uint256"
        }
      ],
      "stateMutability": "view",
      "type": "function"
    },
    {
      "inputs": [],
      "name": "maxAccOpenPnlDelta",
      "outputs": [
        {
          "internalType": "uint256",
          "name": "",
          "type": "uint256"
        }
      ],
      "stateMutability": "view",
      "type": "function"
    },
    {
      "inputs": [],
      "name": "maxAccPnlPerToken",
      "outputs": [
        {
          "internalType": "uint256",
          "name": "",
          "type": "uint256"
        }
      ],
      "stateMutability": "view",
      "type": "function"
    },
    {
      "inputs": [],
      "name": "maxDailyAccPnlDelta",
      "outputs": [
        {
          "internalType": "uint256",
          "name": "",
          "type": "uint256"
        }
      ],
      "stateMutability": "view",
      "type": "function"
    },
    {
      "inputs": [
        {
          "internalType": "address",
          "name": "owner",
          "type": "address"
        }
      ],
      "name": "maxDeposit",
      "outputs": [
        {
          "internalType": "uint256",
          "name": "",
          "type": "uint256"
        }
      ],
      "stateMutability": "view",
      "type": "function"
    },
    {
      "inputs": [],
      "name": "maxDiscountP",
      "outputs": [
        {
          "internalType": "uint256",
          "name": "",
          "type": "uint256"
        }
      ],
      "stateMutability": "view",
      "type": "function"
    },
    {
      "inputs": [],
      "name": "maxDiscountThresholdP",
      "outputs": [
        {
          "internalType": "uint256",
          "name": "",
          "type": "uint256"
        }
      ],
      "stateMutability": "view",
      "type": "function"
    },
    {
      "inputs": [
        {
          "internalType": "address",
          "name": "",
          "type": "address"
        }
      ],
      "name": "maxMint",
      "outputs": [
        {
          "internalType": "uint256",
          "name": "",
          "type": "uint256"
        }
      ],
      "stateMutability": "view",
      "type": "function"
    },
    {
      "inputs": [
        {
          "internalType": "address",
          "name": "owner",
          "type": "address"
        }
      ],
      "name": "maxRedeem",
      "outputs": [
        {
          "internalType": "uint256",
          "name": "",
          "type": "uint256"
        }
      ],
      "stateMutability": "view",
      "type": "function"
    },
    {
      "inputs": [],
      "name": "maxSupplyIncreaseDailyP",
      "outputs": [
        {
          "internalType": "uint256",
          "name": "",
          "type": "uint256"
        }
      ],
      "stateMutability": "view",
      "type": "function"
    },
    {
      "inputs": [
        {
          "internalType": "address",
          "name": "owner",
          "type": "address"
        }
      ],
      "name": "maxWithdraw",
      "outputs": [
        {
          "internalType": "uint256",
          "name": "",
          "type": "uint256"
        }
      ],
      "stateMutability": "view",
      "type": "function"
    },
    {
      "inputs": [
        {
          "internalType": "uint256",
          "name": "shares",
          "type": "uint256"
        },
        {
          "internalType": "address",
          "name": "receiver",
          "type": "address"
        }
      ],
      "name": "mint",
      "outputs": [
        {
          "internalType": "uint256",
          "name": "",
          "type": "uint256"
        }
      ],
      "stateMutability": "nonpayable",
      "type": "function"
    },
    {
      "inputs": [
        {
          "internalType": "uint256",
          "name": "shares",
          "type": "uint256"
        },
        {
          "internalType": "uint256",
          "name": "lockDuration",
          "type": "uint256"
        },
        {
          "internalType": "address",
          "name": "receiver",
          "type": "address"
        }
      ],
      "name": "mintWithDiscountAndLock",
      "outputs": [
        {
          "internalType": "uint256",
          "name": "",
          "type": "uint256"
        }
      ],
      "stateMutability": "nonpayable",
      "type": "function"
    },
    {
      "inputs": [],
      "name": "name",
      "outputs": [
        {
          "internalType": "string",
          "name": "",
          "type": "string"
        }
      ],
      "stateMutability": "view",
      "type": "function"
    },
    {
      "inputs": [],
      "name": "openTradesPnlFeed",
      "outputs": [
        {
          "internalType": "contract IOpenTradesPnlFeed",
          "name": "",
          "type": "address"
        }
      ],
      "stateMutability": "view",
      "type": "function"
    },
    {
      "inputs": [],
      "name": "owner",
      "outputs": [
        {
          "internalType": "address",
          "name": "",
          "type": "address"
        }
      ],
      "stateMutability": "view",
      "type": "function"
    },
    {
      "inputs": [],
      "name": "pnlHandler",
      "outputs": [
        {
          "internalType": "address",
          "name": "",
          "type": "address"
        }
      ],
      "stateMutability": "view",
      "type": "function"
    },
    {
      "inputs": [
        {
          "internalType": "uint256",
          "name": "assets",
          "type": "uint256"
        }
      ],
      "name": "previewDeposit",
      "outputs": [
        {
          "internalType": "uint256",
          "name": "",
          "type": "uint256"
        }
      ],
      "stateMutability": "view",
      "type": "function"
    },
    {
      "inputs": [
        {
          "internalType": "uint256",
          "name": "shares",
          "type": "uint256"
        }
      ],
      "name": "previewMint",
      "outputs": [
        {
          "internalType": "uint256",
          "name": "",
          "type": "uint256"
        }
      ],
      "stateMutability": "view",
      "type": "function"
    },
    {
      "inputs": [
        {
          "internalType": "uint256",
          "name": "shares",
          "type": "uint256"
        }
      ],
      "name": "previewRedeem",
      "outputs": [
        {
          "internalType": "uint256",
          "name": "",
          "type": "uint256"
        }
      ],
      "stateMutability": "view",
      "type": "function"
    },
    {
      "inputs": [
        {
          "internalType": "uint256",
          "name": "assets",
          "type": "uint256"
        }
      ],
      "name": "previewWithdraw",
      "outputs": [
        {
          "internalType": "uint256",
          "name": "",
          "type": "uint256"
        }
      ],
      "stateMutability": "view",
      "type": "function"
    },
    {
      "inputs": [
        {
          "internalType": "uint256",
          "name": "assets",
          "type": "uint256"
        },
        {
          "internalType": "address",
          "name": "user",
          "type": "address"
        }
      ],
      "name": "receiveAssets",
      "outputs": [],
      "stateMutability": "nonpayable",
      "type": "function"
    },
    {
      "inputs": [
        {
          "internalType": "uint256",
          "name": "shares",
          "type": "uint256"
        },
        {
          "internalType": "address",
          "name": "receiver",
          "type": "address"
        },
        {
          "internalType": "address",
          "name": "owner",
          "type": "address"
        }
      ],
      "name": "redeem",
      "outputs": [
        {
          "internalType": "uint256",
          "name": "",
          "type": "uint256"
        }
      ],
      "stateMutability": "nonpayable",
      "type": "function"
    },
    {
      "inputs": [
        {
          "internalType": "uint256",
          "name": "assets",
          "type": "uint256"
        }
      ],
      "name": "refill",
      "outputs": [],
      "stateMutability": "nonpayable",
      "type": "function"
    },
    {
      "inputs": [],
      "name": "renounceOwnership",
      "outputs": [],
      "stateMutability": "nonpayable",
      "type": "function"
    },
    {
      "inputs": [
        {
          "internalType": "uint256",
          "name": "assets",
          "type": "uint256"
        },
        {
          "internalType": "address",
          "name": "receiver",
          "type": "address"
        }
      ],
      "name": "sendAssets",
      "outputs": [],
      "stateMutability": "nonpayable",
      "type": "function"
    },
    {
      "inputs": [],
      "name": "shareToAssetsPrice",
      "outputs": [
        {
          "internalType": "uint256",
          "name": "",
          "type": "uint256"
        }
      ],
      "stateMutability": "view",
      "type": "function"
    },
    {
      "inputs": [],
      "name": "storeAccBlockWeightedMarketCap",
      "outputs": [],
      "stateMutability": "nonpayable",
      "type": "function"
    },
    {
      "inputs": [],
      "name": "symbol",
      "outputs": [
        {
          "internalType": "string",
          "name": "",
          "type": "string"
        }
      ],
      "stateMutability": "view",
      "type": "function"
    },
    {
      "inputs": [],
      "name": "totalAssets",
      "outputs": [
        {
          "internalType": "uint256",
          "name": "",
          "type": "uint256"
        }
      ],
      "stateMutability": "view",
      "type": "function"
    },
    {
      "inputs": [],
      "name": "totalClosedPnl",
      "outputs": [
        {
          "internalType": "int256",
          "name": "",
          "type": "int256"
        }
      ],
      "stateMutability": "view",
      "type": "function"
    },
    {
      "inputs": [],
      "name": "totalDepleted",
      "outputs": [
        {
          "internalType": "uint256",
          "name": "",
          "type": "uint256"
        }
      ],
      "stateMutability": "view",
      "type": "function"
    },
    {
      "inputs": [],
      "name": "totalDeposited",
      "outputs": [
        {
          "internalType": "uint256",
          "name": "",
          "type": "uint256"
        }
      ],
      "stateMutability": "view",
      "type": "function"
    },
    {
      "inputs": [],
      "name": "totalDiscounts",
      "outputs": [
        {
          "internalType": "uint256",
          "name": "",
          "type": "uint256"
        }
      ],
      "stateMutability": "view",
      "type": "function"
    },
    {
      "inputs": [],
      "name": "totalLiability",
      "outputs": [
        {
          "internalType": "int256",
          "name": "",
          "type": "int256"
        }
      ],
      "stateMutability": "view",
      "type": "function"
    },
    {
      "inputs": [],
      "name": "totalLockedDiscounts",
      "outputs": [
        {
          "internalType": "uint256",
          "name": "",
          "type": "uint256"
        }
      ],
      "stateMutability": "view",
      "type": "function"
    },
    {
      "inputs": [],
      "name": "totalRefilled",
      "outputs": [
        {
          "internalType": "uint256",
          "name": "",
          "type": "uint256"
        }
      ],
      "stateMutability": "view",
      "type": "function"
    },
    {
      "inputs": [],
      "name": "totalRewards",
      "outputs": [
        {
          "internalType": "uint256",
          "name": "",
          "type": "uint256"
        }
      ],
      "stateMutability": "view",
      "type": "function"
    },
    {
      "inputs": [
        {
          "internalType": "address",
          "name": "owner",
          "type": "address"
        }
      ],
      "name": "totalSharesBeingWithdrawn",
      "outputs": [
        {
          "internalType": "uint256",
          "name": "shares",
          "type": "uint256"
        }
      ],
      "stateMutability": "view",
      "type": "function"
    },
    {
      "inputs": [],
      "name": "totalSupply",
      "outputs": [
        {
          "internalType": "uint256",
          "name": "",
          "type": "uint256"
        }
      ],
      "stateMutability": "view",
      "type": "function"
    },
    {
      "inputs": [
        {
          "internalType": "address",
          "name": "to",
          "type": "address"
        },
        {
          "internalType": "uint256",
          "name": "amount",
          "type": "uint256"
        }
      ],
      "name": "transfer",
      "outputs": [
        {
          "internalType": "bool",
          "name": "",
          "type": "bool"
        }
      ],
      "stateMutability": "nonpayable",
      "type": "function"
    },
    {
      "inputs": [
        {
          "internalType": "address",
          "name": "from",
          "type": "address"
        },
        {
          "internalType": "address",
          "name": "to",
          "type": "address"
        },
        {
          "internalType": "uint256",
          "name": "amount",
          "type": "uint256"
        }
      ],
      "name": "transferFrom",
      "outputs": [
        {
          "internalType": "bool",
          "name": "",
          "type": "bool"
        }
      ],
      "stateMutability": "nonpayable",
      "type": "function"
    },
    {
      "inputs": [
        {
          "internalType": "address",
          "name": "newOwner",
          "type": "address"
        }
      ],
      "name": "transferOwnership",
      "outputs": [],
      "stateMutability": "nonpayable",
      "type": "function"
    },
    {
      "inputs": [],
      "name": "tryNewOpenPnlRequestOrEpoch",
      "outputs": [],
      "stateMutability": "nonpayable",
      "type": "function"
    },
    {
      "inputs": [],
      "name": "tryResetDailyAccPnlDelta",
      "outputs": [],
      "stateMutability": "nonpayable",
      "type": "function"
    },
    {
      "inputs": [],
      "name": "tryUpdateCurrentMaxSupply",
      "outputs": [],
      "stateMutability": "nonpayable",
      "type": "function"
    },
    {
      "inputs": [],
      "name": "tvl",
      "outputs": [
        {
          "internalType": "uint256",
          "name": "",
          "type": "uint256"
        }
      ],
      "stateMutability": "view",
      "type": "function"
    },
    {
      "inputs": [
        {
          "internalType": "uint256",
          "name": "depositId",
          "type": "uint256"
        },
        {
          "internalType": "address",
          "name": "receiver",
          "type": "address"
        }
      ],
      "name": "unlockDeposit",
      "outputs": [],
      "stateMutability": "nonpayable",
      "type": "function"
    },
    {
      "inputs": [
        {
          "internalType": "uint256",
          "name": "prevPositiveOpenPnl",
          "type": "uint256"
        },
        {
          "internalType": "uint256",
          "name": "newPositiveOpenPnl",
          "type": "uint256"
        }
      ],
      "name": "updateAccPnlPerTokenUsed",
      "outputs": [
        {
          "internalType": "uint256",
          "name": "",
          "type": "uint256"
        }
      ],
      "stateMutability": "nonpayable",
      "type": "function"
    },
    {
      "inputs": [
        {
          "internalType": "address",
          "name": "newValue",
          "type": "address"
        }
      ],
      "name": "updateAdmin",
      "outputs": [],
      "stateMutability": "nonpayable",
      "type": "function"
    },
    {
      "inputs": [
        {
          "internalType": "uint256",
          "name": "newValue",
          "type": "uint256"
        }
      ],
      "name": "updateLossesBurnP",
      "outputs": [],
      "stateMutability": "nonpayable",
      "type": "function"
    },
    {
      "inputs": [
        {
          "internalType": "address",
          "name": "newValue",
          "type": "address"
        }
      ],
      "name": "updateManager",
      "outputs": [],
      "stateMutability": "nonpayable",
      "type": "function"
    },
    {
      "inputs": [
        {
          "internalType": "uint256",
          "name": "newValue",
          "type": "uint256"
        }
      ],
      "name": "updateMaxAccOpenPnlDelta",
      "outputs": [],
      "stateMutability": "nonpayable",
      "type": "function"
    },
    {
      "inputs": [
        {
          "internalType": "uint256",
          "name": "newValue",
          "type": "uint256"
        }
      ],
      "name": "updateMaxDailyAccPnlDelta",
      "outputs": [],
      "stateMutability": "nonpayable",
      "type": "function"
    },
    {
      "inputs": [
        {
          "internalType": "uint256",
          "name": "newValue",
          "type": "uint256"
        }
      ],
      "name": "updateMaxDiscountP",
      "outputs": [],
      "stateMutability": "nonpayable",
      "type": "function"
    },
    {
      "inputs": [
        {
          "internalType": "uint256",
          "name": "newValue",
          "type": "uint256"
        }
      ],
      "name": "updateMaxDiscountThresholdP",
      "outputs": [],
      "stateMutability": "nonpayable",
      "type": "function"
    },
    {
      "inputs": [
        {
          "internalType": "uint256",
          "name": "newValue",
          "type": "uint256"
        }
      ],
      "name": "updateMaxSupplyIncreaseDailyP",
      "outputs": [],
      "stateMutability": "nonpayable",
      "type": "function"
    },
    {
      "inputs": [
        {
          "internalType": "address",
          "name": "newValue",
          "type": "address"
        }
      ],
      "name": "updateOpenTradesPnlFeed",
      "outputs": [],
      "stateMutability": "nonpayable",
      "type": "function"
    },
    {
      "inputs": [
        {
          "internalType": "address",
          "name": "newValue",
          "type": "address"
        }
      ],
      "name": "updatePnlHandler",
      "outputs": [],
      "stateMutability": "nonpayable",
      "type": "function"
    },
    {
      "inputs": [
        {
          "internalType": "uint256[2]",
          "name": "newValue",
          "type": "uint256[2]"
        }
      ],
      "name": "updateWithdrawLockThresholdsP",
      "outputs": [],
      "stateMutability": "nonpayable",
      "type": "function"
    },
    {
      "inputs": [
        {
          "internalType": "uint256",
          "name": "assets",
          "type": "uint256"
        },
        {
          "internalType": "address",
          "name": "receiver",
          "type": "address"
        },
        {
          "internalType": "address",
          "name": "owner",
          "type": "address"
        }
      ],
      "name": "withdraw",
      "outputs": [
        {
          "internalType": "uint256",
          "name": "",
          "type": "uint256"
        }
      ],
      "stateMutability": "nonpayable",
      "type": "function"
    },
    {
      "inputs": [],
      "name": "withdrawEpochsTimelock",
      "outputs": [
        {
          "internalType": "uint256",
          "name": "",
          "type": "uint256"
        }
      ],
      "stateMutability": "view",
      "type": "function"
    },
    {
      "inputs": [
        {
          "internalType": "uint256",
          "name": "",
          "type": "uint256"
        }
      ],
      "name": "withdrawLockThresholdsP",
      "outputs": [
        {
          "internalType": "uint256",
          "name": "",
          "type": "uint256"
        }
      ],
      "stateMutability": "view",
      "type": "function"
    },
    {
      "inputs": [
        {
          "internalType": "address",
          "name": "",
          "type": "address"
        },
        {
          "internalType": "uint256",
          "name": "",
          "type": "uint256"
        }
      ],
      "name": "withdrawRequests",
      "outputs": [
        {
          "internalType": "uint256",
          "name": "",
          "type": "uint256"
        }
      ],
      "stateMutability": "view",
      "type": "function"
    }
  ],
  "transactionHash": "0x6911bb7753a8744a67fe174cd1437c3a7b558df71c5dda023edb6121d3ca77c4",
  "args": [],
  "numDeployments": 1,
  "solcInputHash": "f7a9b91dc44ee5e79c1a5d5aff87db1f",
  "bytecode": "0x608060405234801561001057600080fd5b506157fa80620000216000396000f3fe608060405234801561001057600080fd5b50600436106106595760003560e01c80638d6cb28811610351578063cf39c2db116101c3578063e7899c061161010f578063f31bd8f7116100ad578063f8fb10f711610087578063f8fb10f714610d55578063faf33f2914610d5e578063fe0b6d9014610d67578063ff50abdc14610d7a57600080fd5b8063f31bd8f714610d26578063f5521eaa14610d2f578063f851a44014610d4257600080fd5b8063ef8b30f7116100e9578063ef8b30f714610b6a578063f05550ee14610cf7578063f0a7744614610d0a578063f2fde38b14610d1357600080fd5b8063e7899c0614610cd3578063e8e4311014610cdb578063ea5f2bba14610cee57600080fd5b8063db0447d51161017c578063e2f273bd11610156578063e2f273bd14610c42578063e5328e0614610c55578063e66a6e3b14610c5d578063e783967614610c7057600080fd5b8063db0447d514610c1d578063dd62ed3e14610c26578063ddd65e3114610c3957600080fd5b8063cf39c2db14610bb6578063d1e08c2014610bc9578063d229b2dd14610bdc578063d272df1014610bef578063d8bdfd4814610c02578063d905777e14610c0a57600080fd5b8063ad00a5a41161029d578063be216e831161023b578063c6e6f59211610215578063c6e6f59214610b6a578063ca9d07ba14610b7d578063ce96cb7714610b90578063ce9e1b2114610ba357600080fd5b8063be216e8314610b47578063c63384ab14610b4f578063c63d75b614610b5757600080fd5b8063b3d7f6b911610277578063b3d7f6b914610a8a578063b460af9414610a9d578063b82c589914610ab0578063ba08765214610b3457600080fd5b8063ad00a5a414610a5b578063b224e73514610a6e578063b3c4850a14610a7757600080fd5b8063979b08951161030a578063a481c14b116102e4578063a481c14b14610a0f578063a50043a014610a22578063a8abe90514610a35578063a9059cbb14610a4857600080fd5b8063979b0895146109e05780639aca06dc146109f3578063a457c2d7146109fc57600080fd5b80638d6cb288146109855780638da5cb5b1461098e578063940a4e451461099f57806394bf804d146109b257806395d89b41146109c5578063979abb25146109cd57600080fd5b8063402d267d116104ea57806366d8ecf1116104365780637361a544116103d457806378b4330f116103ae57806378b4330f1461095757806379431d9c146109605780637dfc6922146109735780637fcff2af1461097c57600080fd5b80637361a5441461093257806375cd9da914610945578063766718081461094e57600080fd5b80636e553f65116104105780636e553f65146108db5780636ee432f2146108ee57806370a0823114610901578063715018a61461092a57600080fd5b806366d8ecf1146108945780636ce7dcc91461089d5780636d6ca319146108b057600080fd5b806358aba00f116104a35780635e93f8601161047d5780635e93f860146108715780635f4ae7411461087a57806361a8c8c4146108835780636445ec001461088c57600080fd5b806358aba00f146108435780635a6953d3146108565780635cd8a76b1461086957600080fd5b8063402d267d146107f8578063481c6a751461080b5780634cdad506146106ac5780634ea0ddf71461081e57806353409be214610827578063545088471461083057600080fd5b806318160ddd116105a957806323b872dd1161056257806338d52e0f1161053c57806338d52e0f146107c357806339509351146107d45780633b418c1e146107e75780633d7e4587146107f057600080fd5b806323b872dd146107895780632c135b931461079c578063313ce567146107a457600080fd5b806318160ddd146107295780631f91f2871461073157806320124bce1461075c57806320e70a5614610764578063215e2fae1461077757806322b2ef851461078057600080fd5b8063095ea7b3116106165780630e15561a116105f05780630e15561a146107055780630fc293491461070e5780630fcc6f3114610717578063104aeef81461072057600080fd5b8063095ea7b3146106c75780630a28a477146106ea5780630dfb5287146106fd57600080fd5b806301e1d1141461065e5780630307604f146106795780630344e8a31461068257806306fdde031461069757806307a2d13a146106ac5780630851a202146106bf575b600080fd5b610666610d83565b6040519081526020015b60405180910390f35b61066660ef5481565b6106956106903660046151da565b610e04565b005b61069f6111ef565b6040516106709190615305565b6106666106ba3660046151a8565b611281565b610666611294565b6106da6106d536600461506b565b61129e565b6040519015158152602001610670565b6106666106f83660046151a8565b6112b6565b6106956112c3565b61066660e95481565b61066660ea5481565b61066660e85481565b61066660e15481565b603554610666565b60cd54610744906001600160a01b031681565b6040516001600160a01b039091168152602001610670565b61066661137e565b610695610772366004614fb7565b6113bb565b61066660e45481565b61066660e25481565b6106da61079736600461502a565b611458565b6106666114e5565b606554600160a01b900460ff1660405160ff9091168152602001610670565b6065546001600160a01b0316610744565b6106da6107e236600461506b565b6114fc565b61066660d15481565b61069561151e565b610666610806366004614fb7565b61156d565b60ca54610744906001600160a01b031681565b61066660da5481565b61066660eb5481565b61069561083e3660046151a8565b611582565b610695610851366004614fb7565b611653565b60cc54610744906001600160a01b031681565b610695611727565b61066660dc5481565b61066660ee5481565b61066660df5481565b6106956117d8565b61066660e65481565b6106956108ab3660046151a8565b611879565b6106666108be36600461506b565b60e360209081526000928352604080842090915290825290205481565b6106666108e93660046151da565b61194a565b6106666108fc3660046151a8565b611a14565b61066661090f366004614fb7565b6001600160a01b031660009081526033602052604090205490565b610695611a2b565b610666610940366004615268565b611a3d565b61066660d55481565b61066660de5481565b61066660ce5481565b60c954610744906001600160a01b031681565b61066660d75481565b61066660db5481565b61066660f05481565b6097546001600160a01b0316610744565b6106956109ad3660046151a8565b611c09565b6106666109c03660046151da565b611cc6565b61069f611d88565b6106956109db3660046151a8565b611d97565b6106666109ee3660046151a8565b611e6a565b61066660ec5481565b6106da610a0a36600461506b565b611ebf565b610695610a1d3660046151da565b611f45565b610695610a30366004615241565b6120cb565b610695610a433660046151da565b61222e565b6106da610a5636600461506b565b61245c565b610666610a69366004614fb7565b6124d1565b61066660dd5481565b610666610a8536600461528a565b612552565b610666610a983660046151a8565b61273f565b610666610aab3660046151ff565b61274c565b610afd610abe3660046151a8565b60e5602052600090815260409020805460018201546002830154600384015460048501546005909501546001600160a01b039094169492939192909186565b604080516001600160a01b0390971687526020870195909552938501929092526060840152608083015260a082015260c001610670565b610666610b423660046151ff565b612856565b610666612954565b61066661296c565b610666610b65366004614fb7565b6129dd565b610666610b783660046151a8565b612a0c565b610695610b8b3660046151a8565b612a19565b610666610b9e366004614fb7565b612ba0565b610695610bb13660046151a8565b612bae565b610695610bc43660046151a8565b612c77565b610666610bd7366004615268565b612d4a565b610695610bea366004614fb7565b612ddf565b610695610bfd3660046151a8565b612e6e565b610666612ec5565b610666610c18366004614fb7565b612f69565b61066660d45481565b610666610c34366004614ff1565b613031565b61066660d95481565b610695610c50366004614fb7565b61305c565b610666613159565b610695610c6b3660046151da565b613175565b610c83610c7e3660046151a8565b613362565b604051610670919081516001600160a01b031681526020808301519082015260408083015190820152606080830151908201526080808301519082015260a0918201519181019190915260c00190565b610695613406565b610666610ce936600461528a565b613451565b61066660d85481565b610695610d053660046150d5565b613636565b61066660d05481565b610695610d21366004614fb7565b6139d5565b61066660ed5481565b610695610d3d366004615097565b613a93565b60cb54610744906001600160a01b031681565b61066660d65481565b61066660e05481565b610695610d753660046151a8565b613b1b565b61066660e75481565b6065546040516370a0823160e01b81523060048201526000916001600160a01b0316906370a082319060240160206040518083038186803b158015610dc757600080fd5b505afa158015610ddb573d6000803e3d6000fd5b505050506040513d601f19601f82011682018060405250810190610dff91906151c1565b905090565b600082815260e560205260408120903360c9546040516331a9108f60e11b8152600481018790529192506000916001600160a01b0390911690636352211e9060240160206040518083038186803b158015610e5e57600080fd5b505afa158015610e72573d6000803e3d6000fd5b505050506040513d601f19601f82011682018060405250810190610e969190614fd4565b9050816001600160a01b0316816001600160a01b03161480610f3c575060c95460405163020604bf60e21b8152600481018790526001600160a01b0384811692169063081812fc9060240160206040518083038186803b158015610ef957600080fd5b505afa158015610f0d573d6000803e3d6000fd5b505050506040513d601f19601f82011682018060405250810190610f319190614fd4565b6001600160a01b0316145b80610fc7575060c95460405163e985e9c560e01b81526001600160a01b03838116600483015284811660248301529091169063e985e9c59060440160206040518083038186803b158015610f8f57600080fd5b505afa158015610fa3573d6000803e3d6000fd5b505050506040513d601f19601f82011682018060405250810190610fc791906150b3565b610fec5760405162461bcd60e51b8152600401610fe390615359565b60405180910390fd5b826005015483600401546110009190615531565b42101561103e5760405162461bcd60e51b815260206004820152600c60248201526b1393d517d5539313d0d2d15160a21b6044820152606401610fe3565b6000611063670de0b6b3a764000061105560355490565b600387015491906001613bf6565b90508060da600082825461107791906154f0565b909155506110859050612954565b60da5413156110ca5760405162461bcd60e51b81526020600482015260116024820152704e4f545f454e4f5547485f41535345545360781b6044820152606401610fe3565b60c954604051630852cd8d60e31b8152600481018890526001600160a01b03909116906342966c6890602401600060405180830381600087803b15801561111057600080fd5b505af1158015611124573d6000803e3d6000fd5b505050508060d9600082825461113a91906154f0565b909155506111489050613c51565b836003015460ea600082825461115e91906154f0565b9091555050600384015460eb805460009061117a90849061566e565b9250508190555061119030868660010154613cb5565b816001600160a01b0316856001600160a01b0316846001600160a01b03167fe37405a4f414fe3119839681cc26ea3462fc575fd2f81734417e52144d3f34b989886040516111df9291906154a6565b60405180910390a4505050505050565b6060603680546111fe906156b1565b80601f016020809104026020016040519081016040528092919081815260200182805461122a906156b1565b80156112775780601f1061124c57610100808354040283529160200191611277565b820191906000526020600020905b81548152906001019060200180831161125a57829003601f168201915b5050505050905090565b600061128e826000613e59565b92915050565b6000610dff61137e565b6000336112ac818585613e9a565b5060019392505050565b600061128e826001613fbe565b60cd5460408051600481526024810182526020810180516001600160e01b031663bef35b7960e01b17905290516000926001600160a01b031691611306916152b8565b6000604051808303816000865af19150503d8060008114611343576040519150601f19603f3d011682016040523d82523d6000602084013e611348565b606091505b505090508061137b576040517f46f2d6138acb3be39ad6ae5c9279b648c2a2c68743d0ddc18cc3a81cedecebd590600090a15b50565b6000670de0b6b3a764000061139260355490565b60d95461139d612954565b6113a7919061562f565b6113b19190615610565b610dff9190615577565b6113c3613fda565b6001600160a01b0381166113e95760405162461bcd60e51b8152600401610fe3906153cc565b60cd80546001600160a01b0319166001600160a01b03831690811790915560408051818152601191810191909152701bdc195b951c9859195cd41b9b11995959607a1b606082015260208101919091526000805160206157a5833981519152906080015b60405180910390a150565b6001600160a01b03831660009081526033602052604081205461147c90839061566e565b611485856124d1565b11156114c85760405162461bcd60e51b815260206004820152601260248201527114115391125391d7d5d2551211149055d05360721b6044820152606401610fe3565b6114d3843384614034565b6112ac848484613cb5565b9392505050565b6000670de0b6b3a764000060d8546113a760355490565b6000336112ac81858561150f8383613031565b6115199190615531565b613e9a565b60006115286140a8565b905061153381611e6a565b60ef81905560f08290556040519081527f9551c7fda0233728a7b7eae3d388b53a068086c3f7d613bdf74e6e58dd6b41ec9060200161144d565b600061128e61157b836129dd565b6000613e59565b60ca546001600160a01b0316336001600160a01b0316146115b55760405162461bcd60e51b8152600401610fe39061545f565b6115c8600a670de0b6b3a7640000615577565b8110156116035760405162461bcd60e51b81526020600482015260096024820152682122a627abafa6a4a760b91b6044820152606401610fe3565b60d181905560408051818152601391810191909152726d61784461696c79416363506e6c44656c746160681b6060820152602081018290526000805160206157858339815191529060800161144d565b61165b613fda565b6001600160a01b0381166116815760405162461bcd60e51b8152600401610fe3906153cc565b6097546001600160a01b038281169116148015906116ad575060cb546001600160a01b03828116911614155b6116c95760405162461bcd60e51b8152600401610fe3906153ef565b60ca80546001600160a01b0319166001600160a01b038316908117909155604080518181526007918101919091526636b0b730b3b2b960c91b606082015260208101919091526000805160206157a58339815191529060800161144d565b600054600290610100900460ff16158015611749575060005460ff8083169116105b6117655760405162461bcd60e51b8152600401610fe39061537e565b6000805461ffff191660ff83161761010017905561178161151e565b60e95460e760008282546117959190615531565b90915550506000805461ff001916905560405160ff821681527f7f26b83ff96e1f2b6a682f133852f6798a09c465da95921460cefb38474024989060200161144d565b6201518060e254426117ea919061566e565b1061187757611802670de0b6b3a76400006064615610565b60d454611818670de0b6b3a76400006064615610565b6118229190615531565b60355461182f9190615610565b6118399190615577565b60e18190554260e2556040519081527fd103db6eec024592fa6d47db028ec6408076ac4762eb021a6e52b525828bab9b906020015b60405180910390a15b565b60e6548111156118bc5760405162461bcd60e51b815260206004820152600e60248201526d414d4f554e545f544f4f5f42494760901b6044820152606401610fe3565b8060e660008282546118ce919061566e565b909155505060ed8054339183916000906118e9908490615531565b9091555061190190506118fa614100565b8284614114565b60408051838152600060208201526001600160a01b038316917f1fb4f167278bb29c47ac4fd58ca1586b0626b52807f2991ef78abdbb97bb433391015b60405180910390a25050565b600082600060d8541161196f5760405162461bcd60e51b8152600401610fe390615338565b6000811161198f5760405162461bcd60e51b8152600401610fe390615485565b6119988361156d565b8411156119e75760405162461bcd60e51b815260206004820152601e60248201527f455243343632363a206465706f736974206d6f7265207468616e206d617800006044820152606401610fe3565b60006119f285612a0c565b9050611a008186600161417c565b611a0c33858784614258565b949350505050565b60d28160028110611a2457600080fd5b0154905081565b611a33613fda565b61187760006142c8565b60cd5460009033906001600160a01b03168114611a8c5760405162461bcd60e51b815260206004820152600d60248201526c13d3931657d4139317d1915151609a1b6044820152606401610fe3565b6000611a98858561562f565b90506000611aa560355490565b90506000611b05670de0b6b3a76400008360da54611ac1612954565b611acb919061562f565b611ad59190615610565b611adf9190615577565b670de0b6b3a76400008460d054611af69190615610565b611b009190615577565b61431a565b9050808313611b145782611b16565b805b925081611b2b670de0b6b3a76400008561558b565b611b359190615549565b60da6000828254611b4691906154f0565b925050819055508260ea6000828254611b5f91906154f0565b909155505060da5460d955611b72613c51565b60de8054906000611b82836156e6565b90915550504260df55611b9583886154f0565b60e055611ba06117d8565b60de5460e05460d954604080518b8152602081018b90529081019290925260608201526001600160a01b038616907f115621a72d6f59323a1d752b116219634bc004cadb85d6bdc8e7eb254905722d9060800160405180910390a3505060e05495945050505050565b33611c1d611c15614100565b823085614330565b603554611c32670de0b6b3a764000084615610565b611c3c9190615577565b60db6000828254611c4d9190615531565b90915550611c5b9050613c51565b8160e96000828254611c6d9190615531565b925050819055508160e76000828254611c869190615531565b90915550506040518281526001600160a01b038216907fe34918ff1c7084970068b53fd71ad6d8b04e9f15d3886cbf006443e6cdc52ea69060200161193e565b600082600060d85411611ceb5760405162461bcd60e51b8152600401610fe390615338565b60008111611d0b5760405162461bcd60e51b8152600401610fe390615485565b611d14836129dd565b841115611d635760405162461bcd60e51b815260206004820152601b60248201527f455243343632363a206d696e74206d6f7265207468616e206d617800000000006044820152606401610fe3565b6000611d6e8561273f565b9050611d7c8582600161417c565b611a0c33858388614258565b6060603780546111fe906156b1565b60ca546001600160a01b0316336001600160a01b031614611dca5760405162461bcd60e51b8152600401610fe39061545f565b611ddd670de0b6b3a7640000600a615610565b811115611e215760405162461bcd60e51b8152602060048201526012602482015271105093d59157d3505617d11254d0d3d5539560721b6044820152606401610fe3565b60d681905560408051818152600c918101919091526b06d6178446973636f756e74560a41b6060820152602081018290526000805160206157858339815191529060800161144d565b6000611e7e611e776114e5565b6001614368565b701d6329f1c35ca4bfabb9f561000000000060f05484611e9e919061566e565b611ea89190615610565b611eb29190615577565b60ef5461128e9190615531565b60003381611ecd8286613031565b905083811015611f2d5760405162461bcd60e51b815260206004820152602560248201527f45524332303a2064656372656173656420616c6c6f77616e63652062656c6f77604482015264207a65726f60d81b6064820152608401610fe3565b611f3a8286868403613e9a565b506001949350505050565b33611f59611f51614100565b823086614330565b60d95483906000138015611f6f5750600060da54125b15611fcb5760006064670de0b6b3a764000060d55487611f8f9190615610565b611f999190615577565b611fa39190615577565b90508060e66000828254611fb79190615531565b90915550611fc79050818361566e565b9150505b6000611fd660355490565b611fe8670de0b6b3a764000084615610565b611ff29190615577565b90508060da6000828254612006919061562f565b909155506120149050613406565b8060dc6000828254612026919061562f565b925050819055508160ea600082825461203f919061562f565b925050819055508160e86000828254612058919061562f565b9091555061206690506112c3565b61206e6117d8565b836001600160a01b0316836001600160a01b03167f2083893e39f8ae736fed502f7e149cc5bfe6159878615fae685a9a98bc452d5a87856040516120bc929190918252602082015260400190565b60405180910390a35050505050565b6001600160a01b038216600090815260e36020908152604080832084845290915290205483111561213e5760405162461bcd60e51b815260206004820152601960248201527f4d4f52455f5448414e5f57495448445241575f414d4f554e54000000000000006044820152606401610fe3565b33600061214b8483613031565b9050836001600160a01b0316826001600160a01b0316148061217857506000811180156121785750848110155b6121945760405162461bcd60e51b8152600401610fe390615359565b6001600160a01b038416600090815260e360209081526040808320868452909152812080548792906121c790849061566e565b9250508190555082846001600160a01b0316836001600160a01b03167f443ccdbbbde35bd48740a9ea14c47318b735db4631ed1ebcdaaaa9f4636c84ea8860de5460405161221f929190918252602082015260400190565b60405180910390a45050505050565b60cd60009054906101000a90046001600160a01b03166001600160a01b031663b8feee646040518163ffffffff1660e01b815260040160206040518083038186803b15801561227c57600080fd5b505afa158015612290573d6000803e3d6000fd5b505050506040513d601f19601f820116820180604052508101906122b491906151c1565b156122f05760405162461bcd60e51b815260206004820152600c60248201526b08a9c88be9e8cbe8aa09e86960a31b6044820152606401610fe3565b3360006122fd8383613031565b9050826001600160a01b0316826001600160a01b0316148061232a575060008111801561232a5750838110155b6123465760405162461bcd60e51b8152600401610fe390615359565b6001600160a01b03831660009081526033602052604090205484612369856124d1565b6123739190615531565b11156123b55760405162461bcd60e51b81526020600482015260116024820152704d4f52455f5448414e5f42414c414e434560781b6044820152606401610fe3565b60006123bf612ec5565b60de546123cc9190615531565b6001600160a01b038516600090815260e360209081526040808320848452909152812080549293508792909190612404908490615531565b9250508190555080846001600160a01b0316846001600160a01b03167f21b8e5e36008677ea26efbbc967e568e01b127f731ed0fda0a8685fda37d0d5f8860de5460405161221f929190918252602082015260400190565b3360008181526033602052604081205490919061247a90849061566e565b612483826124d1565b11156124c65760405162461bcd60e51b815260206004820152601260248201527114115391125391d7d5d2551211149055d05360721b6044820152606401610fe3565b6112ac818585613cb5565b60de546000905b60cf6000815481106124ec576124ec615743565b906000526020600020015460de546125049190615531565b811161254c576001600160a01b038316600090815260e3602090815260408083208484529091529020546125389083615531565b915080612544816156e6565b9150506124d8565b50919050565b600083600060d854116125775760405162461bcd60e51b8152600401610fe390615338565b600081116125975760405162461bcd60e51b8152600401610fe390615485565b83600060d654116125df5760405162461bcd60e51b81526020600482015260126024820152711393d7d050d512559157d11254d0d3d5539560721b6044820152606401610fe3565b60ce5481101561262b5760405162461bcd60e51b81526020600482015260176024820152762122a627abafa6a4a72fa627a1a5afa22aa920aa24a7a760491b6044820152606401610fe3565b6301e133808111156126795760405162461bcd60e51b815260206004820152601760248201527620a127ab22afa6a0ac2fa627a1a5afa22aa920aa24a7a760491b6044820152606401610fe3565b612682846129dd565b8611156126c65760405162461bcd60e51b815260206004820152601260248201527109a929ca8be9a9ea48abea890829cbe9a82b60731b6044820152606401610fe3565b60006126d18761273f565b9050612734816126e86126e261296c565b89612d4a565b6126fb670de0b6b3a76400006064615610565b6127059190615531565b612718670de0b6b3a76400006064615610565b6127229085615610565b61272c9190615577565b898989614377565b979650505050505050565b600061128e826001613e59565b600083600060d854116127715760405162461bcd60e51b8152600401610fe390615338565b600081116127915760405162461bcd60e51b8152600401610fe390615485565b61279a83612ba0565b8511156127e95760405162461bcd60e51b815260206004820152601f60248201527f455243343632363a207769746864726177206d6f7265207468616e206d6178006044820152606401610fe3565b60006127f4866112b6565b6001600160a01b038516600090815260e36020908152604080832060de54845290915281208054929350839290919061282e90849061566e565b9091555061284090508187600061417c565b61284d3386868985614532565b95945050505050565b600083600060d8541161287b5760405162461bcd60e51b8152600401610fe390615338565b6000811161289b5760405162461bcd60e51b8152600401610fe390615485565b6128a483612f69565b8511156128f35760405162461bcd60e51b815260206004820152601d60248201527f455243343632363a2072656465656d206d6f7265207468616e206d61780000006044820152606401610fe3565b6001600160a01b038316600090815260e36020908152604080832060de5484529091528120805487929061292890849061566e565b909155506000905061293986611281565b90506129478682600061417c565b61284d338686848a614532565b600060db54670de0b6b3a7640000610dff9190615531565b600080612977612954565b905080670de0b6b3a7640000600060d954136129ab5760d95461299c9060001961558b565b6129a69084615531565b6129b8565b60d9546129b8908461566e565b6129c3906064615610565b6129cd9190615610565b6129d79190615577565b91505090565b60008060d954136129f05760001961128e565b6129ff60e154611b0060355490565b60e15461128e919061566e565b600061128e826000613fbe565b600060d95413612a6b5760405162461bcd60e51b815260206004820152601860248201527f4e4f545f554e4445525f434f4c4c41544552414c495a454400000000000000006044820152606401610fe3565b6000612a7660355490565b9050670de0b6b3a76400008160d954612a8f9190615610565b612a999190615577565b821115612ad95760405162461bcd60e51b815260206004820152600e60248201526d414d4f554e545f544f4f5f42494760901b6044820152606401610fe3565b33612ae5611f51614100565b600082612afa670de0b6b3a764000086615610565b612b049190615577565b90508060da6000828254612b18919061562f565b925050819055508060d96000828254612b31919061562f565b90915550612b3f9050613c51565b8360ee6000828254612b519190615531565b909155505060408051858152600060208201526001600160a01b038416917f19aee2c21e4d63823896cb2a77a3e61197dda70b1043a55fca38aa8d75c0edd3910160405180910390a250505050565b600061128e61157b83612f69565b60ca546001600160a01b0316336001600160a01b031614612be15760405162461bcd60e51b8152600401610fe39061545f565b612bf4670de0b6b3a76400006019615610565b811115612c2f5760405162461bcd60e51b8152602060048201526009602482015268082849eac8abe9a82b60bb1b6044820152606401610fe3565b60d581905560408051818152600b918101919091526a06c6f737365734275726e560ac1b6060820152602081018290526000805160206157858339815191529060800161144d565b60ca546001600160a01b0316336001600160a01b031614612caa5760405162461bcd60e51b8152600401610fe39061545f565b612cbd670de0b6b3a76400006064615610565b811015612cf85760405162461bcd60e51b81526020600482015260096024820152682122a627abafa6a4a760b91b6044820152606401610fe3565b60d7819055604080518181526015918101919091527406d6178446973636f756e745468726573686f6c645605c1b6060820152602081018290526000805160206157858339815191529060800161144d565b60006301e1338082612d65670de0b6b3a76400006064615610565b851115612dc75760d754851115612d7d576000612dcb565b612d90670de0b6b3a76400006064615610565b60d754612d9d919061566e565b8560d754612dab919061566e565b60d654612db89190615610565b612dc29190615577565b612dcb565b60d6545b612dd59190615610565b6114de9190615577565b612de7613fda565b6001600160a01b038116612e0d5760405162461bcd60e51b8152600401610fe3906153cc565b60cc80546001600160a01b0319166001600160a01b03831690811790915560408051818152600a91810191909152693837362430b7323632b960b11b606082015260208101919091526000805160206157a58339815191529060800161144d565b612e76613fda565b60d081905560408051818152601291810191909152716d61784163634f70656e506e6c44656c746160701b6060820152602081018290526000805160206157858339815191529060800161144d565b600080612ed061296c565b90506000612eeb82611b00670de0b6b3a76400006064615610565b612ef5908361566e565b60d3549091508111612f425760d2548111612f2e5760cf600081548110612f1e57612f1e615743565b9060005260206000200154612f62565b60cf600181548110612f1e57612f1e615743565b60cf600281548110612f5657612f56615743565b90600052602060002001545b9250505090565b60cd5460408051632e3fbb9960e21b815290516000926001600160a01b03169163b8feee64916004808301926020929190829003018186803b158015612fae57600080fd5b505afa158015612fc2573d6000803e3d6000fd5b505050506040513d601f19601f82011682018060405250810190612fe691906151c1565b15612ff257600061128e565b6001600160a01b038216600090815260e36020908152604080832060de54845290915290205461128e90600161302760355490565b611b00919061566e565b6001600160a01b03918216600090815260346020908152604080832093909416825291909152205490565b60ca546001600160a01b0316336001600160a01b03161461308f5760405162461bcd60e51b8152600401610fe39061545f565b6001600160a01b0381166130b55760405162461bcd60e51b8152600401610fe3906153cc565b6097546001600160a01b038281169116148015906130e1575060ca546001600160a01b03828116911614155b6130fd5760405162461bcd60e51b8152600401610fe3906153ef565b60cb80546001600160a01b0319166001600160a01b038316908117909155604080518181526005918101919091526430b236b4b760d91b606082015260208101919091526000805160206157a58339815191529060800161144d565b6000670de0b6b3a764000061316d60355490565b6113a7612954565b60cc5433906001600160a01b031681146131d15760405162461bcd60e51b815260206004820152601860248201527f4f4e4c595f54524144494e475f504e4c5f48414e444c455200000000000000006044820152606401610fe3565b60006131f2670de0b6b3a76400006131e860355490565b8691906001613bf6565b90508060da600082825461320691906154f0565b909155506132149050612954565b60da5413156132595760405162461bcd60e51b81526020600482015260116024820152704e4f545f454e4f5547485f41535345545360781b6044820152606401610fe3565b613261613406565b8060dc600082825461327391906154f0565b909155505060d15460dc5413156132bc5760405162461bcd60e51b815260206004820152600d60248201526c13505617d11052531657d41393609a1b6044820152606401610fe3565b8360ea60008282546132ce91906154f0565b925050819055508360e860008282546132e791906154f0565b909155506132f590506112c3565b6132fd6117d8565b61330f613308614100565b8486614114565b826001600160a01b0316826001600160a01b03167f17ffe64fb2212f31d60284d6471e06abb7db8d66f0a60f9b884b29f1597d05da8660405161335491815260200190565b60405180910390a350505050565b6133a46040518060c0016040528060006001600160a01b0316815260200160008152602001600081526020016000815260200160008152602001600081525090565b50600090815260e56020908152604091829020825160c08101845281546001600160a01b03168152600182015492810192909252600281015492820192909252600382015460608201526004820154608082015260059091015460a082015290565b6201518060dd5442613418919061566e565b1061187757600060dc8190554260dd556040517fa047de172c12fcf40e0ff45a86ac45befb232ae644862699ef140a8c5f763b419190a1565b600083600060d854116134765760405162461bcd60e51b8152600401610fe390615338565b600081116134965760405162461bcd60e51b8152600401610fe390615485565b83600060d654116134de5760405162461bcd60e51b81526020600482015260126024820152711393d7d050d512559157d11254d0d3d5539560721b6044820152606401610fe3565b60ce5481101561352a5760405162461bcd60e51b81526020600482015260176024820152762122a627abafa6a4a72fa627a1a5afa22aa920aa24a7a760491b6044820152606401610fe3565b6301e133808111156135785760405162461bcd60e51b815260206004820152601760248201527620a127ab22afa6a0ac2fa627a1a5afa22aa920aa24a7a760491b6044820152606401610fe3565b600061358d670de0b6b3a76400006064615610565b61359e61359861296c565b88612d4a565b6135b1670de0b6b3a76400006064615610565b6135bb9190615531565b6135c59089615610565b6135cf9190615577565b90506135da8561156d565b8111156136215760405162461bcd60e51b81526020600482015260156024820152740888aa09ea692a8be9a9ea48abea890829cbe9a82b605b1b6044820152606401610fe3565b612734818861362f84612a0c565b8989614377565b600054610100900460ff16158080156136565750600054600160ff909116105b806136705750303b158015613670575060005460ff166001145b61368c5760405162461bcd60e51b8152600401610fe39061537e565b6000805460ff1916600117905580156136af576000805461ff0019166101001790555b89516001600160a01b0316158015906136d4575060208a01516001600160a01b031615155b80156136ec575060408a01516001600160a01b031615155b8015613704575060608a01516001600160a01b031615155b801561372a575089604001516001600160a01b03168a602001516001600160a01b031614155b8015613750575089606001516001600160a01b03168a604001516001600160a01b031614155b8015613768575060a08a01516001600160a01b031615155b8015613780575060c08a01516001600160a01b031615155b8015613798575060e08a01516001600160a01b031615155b80156137b657506137b2600a670de0b6b3a7640000615577565b8710155b80156137c6575085516020870151115b80156137e457506137e0670de0b6b3a76400006032615610565b8511155b801561380257506137fe670de0b6b3a76400006019615610565b8411155b8015613820575061381c670de0b6b3a7640000600a615610565b8311155b801561383e575061383a670de0b6b3a76400006064615610565b8210155b6138795760405162461bcd60e51b815260206004820152600c60248201526b57524f4e475f504152414d5360a01b6044820152606401610fe3565b6138838c8c6145cf565b895161388e90614604565b61389b8a602001516142c8565b60a08a015160c980546001600160a01b03199081166001600160a01b039384161790915560408c015160ca8054831691841691909117905560608c015160cb8054831691841691909117905560c08c015160cc8054831691841691909117905560e08c015160cd8054909216921691909117905560ce89905560d088905560d187905561392b60d2876002614ccf565b5060d485905560d584905560d683905560d7829055670de0b6b3a764000060d855600160de8190554260df5560408051606081018252600380825260026020830152918101929092526139809160cf91614d0d565b5080156139c7576000805461ff0019169055604051600181527f7f26b83ff96e1f2b6a682f133852f6798a09c465da95921460cefb38474024989060200160405180910390a15b505050505050505050505050565b6139dd613fda565b6001600160a01b038116613a425760405162461bcd60e51b815260206004820152602660248201527f4f776e61626c653a206e6577206f776e657220697320746865207a65726f206160448201526564647265737360d01b6064820152608401610fe3565b60ca546001600160a01b03828116911614801590613a6e575060cb546001600160a01b03828116911614155b613a8a5760405162461bcd60e51b8152600401610fe3906153ef565b61137b816142c8565b613a9b613fda565b8051602082015111613ade5760405162461bcd60e51b815260206004820152600c60248201526b57524f4e475f56414c55455360a01b6044820152606401610fe3565b613aeb60d2826002614ccf565b507f8472b50e25b52d8de564f9719bd793b18d83cf59ce4d309e211fb6a4fdc148118160405161144d91906152d4565b60ca546001600160a01b0316336001600160a01b031614613b4e5760405162461bcd60e51b8152600401610fe39061545f565b613b61670de0b6b3a76400006032615610565b811115613b9c5760405162461bcd60e51b8152602060048201526009602482015268082849eac8abe9a82b60bb1b6044820152606401610fe3565b60d4819055604080518181526017918101919091527f6d6178537570706c79496e6372656173654461696c79500000000000000000006060820152602081018290526000805160206157858339815191529060800161144d565b600080613c04868686614634565b90506001836002811115613c1a57613c1a61572d565b148015613c37575060008480613c3257613c32615717565b868809115b1561284d57613c47600182615531565b9695505050505050565b613c5961151e565b600060d95413613c6a576000613c6e565b60d9545b613c76612954565b613c80919061566e565b60d88190556040519081527f547c25b7a5677a006ff044a0e4b5e699598339825e7b42d3dc645117ceee80509060200161186e565b6001600160a01b038316613d195760405162461bcd60e51b815260206004820152602560248201527f45524332303a207472616e736665722066726f6d20746865207a65726f206164604482015264647265737360d81b6064820152608401610fe3565b6001600160a01b038216613d7b5760405162461bcd60e51b815260206004820152602360248201527f45524332303a207472616e7366657220746f20746865207a65726f206164647260448201526265737360e81b6064820152608401610fe3565b6001600160a01b03831660009081526033602052604090205481811015613df35760405162461bcd60e51b815260206004820152602660248201527f45524332303a207472616e7366657220616d6f756e7420657863656564732062604482015265616c616e636560d01b6064820152608401610fe3565b6001600160a01b0380851660008181526033602052604080822086860390559286168082529083902080548601905591517fddf252ad1be2c89b69c2b068fc378daa952ba7f163c4a11628f55a4df523b3ef906133549086815260200190565b50505050565b600060001983148015613e765750670de0b6b3a764000060d85410155b15613e8257508161128e565b60d8546114de908490670de0b6b3a764000085613bf6565b6001600160a01b038316613efc5760405162461bcd60e51b8152602060048201526024808201527f45524332303a20617070726f76652066726f6d20746865207a65726f206164646044820152637265737360e01b6064820152608401610fe3565b6001600160a01b038216613f5d5760405162461bcd60e51b815260206004820152602260248201527f45524332303a20617070726f766520746f20746865207a65726f206164647265604482015261737360f01b6064820152608401610fe3565b6001600160a01b0383811660008181526034602090815260408083209487168084529482529182902085905590518481527f8c5be1e5ebec7d5bd14f71427d1e84f3dd0314c0f7b2291e5b200ac8c7c3b925910160405180910390a3505050565b60d8546000906114de908490670de0b6b3a76400009085613bf6565b6097546001600160a01b031633146118775760405162461bcd60e51b815260206004820181905260248201527f4f776e61626c653a2063616c6c6572206973206e6f7420746865206f776e65726044820152606401610fe3565b60006140408484613031565b90506000198114613e53578181101561409b5760405162461bcd60e51b815260206004820152601d60248201527f45524332303a20696e73756666696369656e7420616c6c6f77616e63650000006044820152606401610fe3565b613e538484848403613e9a565b600061a4b14614806140bc575062066eed46145b156140fb5760646001600160a01b031663a3b1b31d6040518163ffffffff1660e01b815260040160206040518083038186803b158015610dc757600080fd5b504390565b6000610dff6065546001600160a01b031690565b6040516001600160a01b03831660248201526044810182905261417790849063a9059cbb60e01b906064015b60408051601f198184030181529190526020810180516001600160e01b03166001600160e01b0319909316929092179091526146e4565b505050565b600061418760355490565b9050600060da5412156141d257816141a8576141a3848261566e565b6141b2565b6141b28482615531565b8160da546141c0919061558b565b6141ca9190615549565b60da55614227565b600060da54131561422757816141ea576000196141ed565b60015b8160ea54866141fc919061558b565b6142069190615549565b614210919061558b565b60ea600082825461422191906154f0565b90915550505b8161423f578260e75461423a919061566e565b61424d565b8260e75461424d9190615531565b60e755613e5361151e565b606554614270906001600160a01b0316853085614330565b61427a83826147b6565b826001600160a01b0316846001600160a01b03167fdcbc1c05240f31ff3ad067ef1ee35ce4997762752e3a095284754544f4c709d78484604051613354929190918252602082015260400190565b609780546001600160a01b038381166001600160a01b0319831681179093556040519116919082907f8be0079c531659141344cd1fd0a4f28419497f9722a3daafe3b4186f6b6457e090600090a35050565b600081831061432957816114de565b5090919050565b6040516001600160a01b0380851660248301528316604482015260648101829052613e539085906323b872dd60e01b90608401614140565b600081831161432957816114de565b60008486116143b65760405162461bcd60e51b815260206004820152600b60248201526a1393d7d11254d0d3d5539560aa1b6044820152606401610fe3565b600060e4600081546143c7906156e6565b9182905550905060006143da878961566e565b600083815260e56020526040902080546001600160a01b0319166001600160a01b0387161781556001808201899055600282018a90556003820183905542600483015560058201889055919250906144359088908a9061417c565b3361444281308b8b614258565b8260ec60008282546144549190615531565b925050819055508260eb600082825461446d9190615531565b909155505060c9546040516340c10f1960e01b81526001600160a01b03888116600483015260248201879052909116906340c10f1990604401600060405180830381600087803b1580156144c057600080fd5b505af11580156144d4573d6000803e3d6000fd5b505083546040516001600160a01b03918216935090841691507f5d26cdffbd8401ba2a961d2094f7f008ee7bd735ac02a949721ee0fd0f0d5afc9061451c90889087906154a6565b60405180910390a3509198975050505050505050565b826001600160a01b0316856001600160a01b03161461455657614556838683614034565b6145608382614877565b606554614577906001600160a01b03168584614114565b826001600160a01b0316846001600160a01b0316866001600160a01b03167ffbde797d201c681b91056529119e0b02407c7bb96a4a2c75c01fc9667232c8db858560405161221f929190918252602082015260400190565b600054610100900460ff166145f65760405162461bcd60e51b8152600401610fe390615414565b61460082826149ab565b5050565b600054610100900460ff1661462b5760405162461bcd60e51b8152600401610fe390615414565b61137b816149f9565b60008080600019858709858702925082811083820303915050806000141561466f5783828161466557614665615717565b04925050506114de565b80841161467b57600080fd5b60008486880960026001871981018816978890046003810283188082028403028082028403028082028403028082028403028082028403029081029092039091026000889003889004909101858311909403939093029303949094049190911702949350505050565b6000614739826040518060400160405280602081526020017f5361666545524332303a206c6f772d6c6576656c2063616c6c206661696c6564815250856001600160a01b0316614a7e9092919063ffffffff16565b805190915015614177578080602001905181019061475791906150b3565b6141775760405162461bcd60e51b815260206004820152602a60248201527f5361666545524332303a204552433230206f7065726174696f6e20646964206e6044820152691bdd081cdd58d8d9595960b21b6064820152608401610fe3565b6001600160a01b03821661480c5760405162461bcd60e51b815260206004820152601f60248201527f45524332303a206d696e7420746f20746865207a65726f2061646472657373006044820152606401610fe3565b806035600082825461481e9190615531565b90915550506001600160a01b0382166000818152603360209081526040808320805486019055518481527fddf252ad1be2c89b69c2b068fc378daa952ba7f163c4a11628f55a4df523b3ef910160405180910390a35050565b6001600160a01b0382166148d75760405162461bcd60e51b815260206004820152602160248201527f45524332303a206275726e2066726f6d20746865207a65726f206164647265736044820152607360f81b6064820152608401610fe3565b6001600160a01b0382166000908152603360205260409020548181101561494b5760405162461bcd60e51b815260206004820152602260248201527f45524332303a206275726e20616d6f756e7420657863656564732062616c616e604482015261636560f01b6064820152608401610fe3565b6001600160a01b03831660008181526033602090815260408083208686039055603580548790039055518581529192917fddf252ad1be2c89b69c2b068fc378daa952ba7f163c4a11628f55a4df523b3ef910160405180910390a3505050565b600054610100900460ff166149d25760405162461bcd60e51b8152600401610fe390615414565b81516149e5906036906020850190614d4d565b508051614177906037906020840190614d4d565b600054610100900460ff16614a205760405162461bcd60e51b8152600401610fe390615414565b600080614a2c83614a8d565b9150915081614a3c576012614a3e565b805b606580546001600160a01b039095166001600160a01b031960ff93909316600160a01b02929092166001600160a81b031990951694909417179092555050565b6060611a0c8484600085614b69565b60408051600481526024810182526020810180516001600160e01b031663313ce56760e01b17905290516000918291829182916001600160a01b03871691614ad4916152b8565b600060405180830381855afa9150503d8060008114614b0f576040519150601f19603f3d011682016040523d82523d6000602084013e614b14565b606091505b5091509150818015614b2857506020815110155b15614b5c57600081806020019051810190614b4391906151c1565b905060ff8111614b5a576001969095509350505050565b505b5060009485945092505050565b606082471015614bca5760405162461bcd60e51b815260206004820152602660248201527f416464726573733a20696e73756666696369656e742062616c616e636520666f6044820152651c8818d85b1b60d21b6064820152608401610fe3565b600080866001600160a01b03168587604051614be691906152b8565b60006040518083038185875af1925050503d8060008114614c23576040519150601f19603f3d011682016040523d82523d6000602084013e614c28565b606091505b50915091506127348783838760608315614ca0578251614c99576001600160a01b0385163b614c995760405162461bcd60e51b815260206004820152601d60248201527f416464726573733a2063616c6c20746f206e6f6e2d636f6e74726163740000006044820152606401610fe3565b5081611a0c565b611a0c8383815115614cb55781518083602001fd5b8060405162461bcd60e51b8152600401610fe39190615305565b8260028101928215614cfd579160200282015b82811115614cfd578251825591602001919060010190614ce2565b50614d09929150614dc0565b5090565b828054828255906000526020600020908101928215614cfd579160200282015b82811115614cfd578251829060ff16905591602001919060010190614d2d565b828054614d59906156b1565b90600052602060002090601f016020900481019282614d7b5760008555614cfd565b82601f10614d9457805160ff1916838001178555614cfd565b82800160010185558215614cfd5791820182811115614cfd578251825591602001919060010190614ce2565b5b80821115614d095760008155600101614dc1565b8035614de08161576f565b919050565b600082601f830112614df657600080fd5b6040516040810181811067ffffffffffffffff82111715614e1957614e19615759565b8060405250808385604086011115614e3057600080fd5b60005b6002811015614e52578135835260209283019290910190600101614e33565b509195945050505050565b600082601f830112614e6e57600080fd5b813567ffffffffffffffff80821115614e8957614e89615759565b604051601f8301601f19908116603f01168101908282118183101715614eb157614eb1615759565b81604052838152866020858801011115614eca57600080fd5b836020870160208301376000602085830101528094505050505092915050565b6000610100808385031215614efe57600080fd5b6040519081019067ffffffffffffffff82118183101715614f2157614f21615759565b8160405280925083359150614f358261576f565b818152614f4460208501614dd5565b6020820152614f5560408501614dd5565b6040820152614f6660608501614dd5565b6060820152614f7760808501614dd5565b6080820152614f8860a08501614dd5565b60a0820152614f9960c08501614dd5565b60c0820152614faa60e08501614dd5565b60e0820152505092915050565b600060208284031215614fc957600080fd5b81356114de8161576f565b600060208284031215614fe657600080fd5b81516114de8161576f565b6000806040838503121561500457600080fd5b823561500f8161576f565b9150602083013561501f8161576f565b809150509250929050565b60008060006060848603121561503f57600080fd5b833561504a8161576f565b9250602084013561505a8161576f565b929592945050506040919091013590565b6000806040838503121561507e57600080fd5b82356150898161576f565b946020939093013593505050565b6000604082840312156150a957600080fd5b6114de8383614de5565b6000602082840312156150c557600080fd5b815180151581146114de57600080fd5b60008060008060008060008060008060006102608c8e0312156150f757600080fd5b67ffffffffffffffff808d35111561510e57600080fd5b61511b8e8e358f01614e5d565b9b508060208e0135111561512e57600080fd5b5061513f8d60208e01358e01614e5d565b995061514e8d60408e01614eea565b98506101408c013597506101608c013596506101808c013595506151768d6101a08e01614de5565b94506101e08c013593506102008c013592506102208c013591506102408c013590509295989b509295989b9093969950565b6000602082840312156151ba57600080fd5b5035919050565b6000602082840312156151d357600080fd5b5051919050565b600080604083850312156151ed57600080fd5b82359150602083013561501f8161576f565b60008060006060848603121561521457600080fd5b8335925060208401356152268161576f565b915060408401356152368161576f565b809150509250925092565b60008060006060848603121561525657600080fd5b83359250602084013561505a8161576f565b6000806040838503121561527b57600080fd5b50508035926020909101359150565b60008060006060848603121561529f57600080fd5b833592506020840135915060408401356152368161576f565b600082516152ca818460208701615685565b9190910192915050565b60408101818360005b60028110156152fc5781518352602092830192909101906001016152dd565b50505092915050565b6020815260008251806020840152615324816040850160208701615685565b601f01601f19169190910160400192915050565b602080825260079082015266050524943455f360cc1b604082015260600190565b6020808252600b908201526a1393d517d0531313d5d15160aa1b604082015260600190565b6020808252602e908201527f496e697469616c697a61626c653a20636f6e747261637420697320616c72656160408201526d191e481a5b9a5d1a585b1a5e995960921b606082015260800190565b6020808252600990820152680414444524553535f360bc1b604082015260600190565b6020808252600b908201526a57524f4e475f56414c554560a81b604082015260600190565b6020808252602b908201527f496e697469616c697a61626c653a20636f6e7472616374206973206e6f74206960408201526a6e697469616c697a696e6760a81b606082015260800190565b6020808252600c908201526b27a7262cafa6a0a720a3a2a960a11b604082015260600190565b602080825260079082015266056414c55455f360cc1b604082015260600190565b91825280546001600160a01b03166020830152600181015460408301526002810154606083015260038101546080830152600481015460a08301526005015460c082015260e00190565b600080821280156001600160ff1b038490038513161561551257615512615701565b600160ff1b839003841281161561552b5761552b615701565b50500190565b6000821982111561554457615544615701565b500190565b60008261555857615558615717565b600160ff1b82146000198414161561557257615572615701565b500590565b60008261558657615586615717565b500490565b60006001600160ff1b03818413828413808216868404861116156155b1576155b1615701565b600160ff1b60008712828116878305891216156155d0576155d0615701565b600087129250878205871284841616156155ec576155ec615701565b8785058712818416161561560257615602615701565b505050929093029392505050565b600081600019048311821515161561562a5761562a615701565b500290565b60008083128015600160ff1b85018412161561564d5761564d615701565b6001600160ff1b038401831381161561566857615668615701565b50500390565b60008282101561568057615680615701565b500390565b60005b838110156156a0578181015183820152602001615688565b83811115613e535750506000910152565b600181811c908216806156c557607f821691505b6020821081141561254c57634e487b7160e01b600052602260045260246000fd5b60006000198214156156fa576156fa615701565b5060010190565b634e487b7160e01b600052601160045260246000fd5b634e487b7160e01b600052601260045260246000fd5b634e487b7160e01b600052602160045260246000fd5b634e487b7160e01b600052603260045260246000fd5b634e487b7160e01b600052604160045260246000fd5b6001600160a01b038116811461137b57600080fdfe127735ae9d047cae55da37db2c8ee184c735aacd68cef068d4e70be6a41661d960f89fdb372abe626eac485ef96b2a09f1cfbd7f225dd1e2b491a2b4069c2376a26469706673582212203d8abeb86bcc1ee8f5c6c84a0c90e2e57635e186cb1f3f1e3e55d71071ee26f964736f6c63430008070033",
  "libraries": {},
  "devdoc": {
    "kind": "dev",
    "methods": {
      "allowance(address,address)": {
        "details": "See {IERC20-allowance}."
      },
      "approve(address,uint256)": {
        "details": "See {IERC20-approve}. NOTE: If `amount` is the maximum `uint256`, the allowance is not updated on `transferFrom`. This is semantically equivalent to an infinite approval. Requirements: - `spender` cannot be the zero address."
      },
      "asset()": {
        "details": "See {IERC4626-asset}. "
      },
      "balanceOf(address)": {
        "details": "See {IERC20-balanceOf}."
      },
      "convertToAssets(uint256)": {
        "details": "See {IERC4626-convertToAssets}. "
      },
      "convertToShares(uint256)": {
        "details": "See {IERC4626-convertToShares}. "
      },
      "decreaseAllowance(address,uint256)": {
        "details": "Atomically decreases the allowance granted to `spender` by the caller. This is an alternative to {approve} that can be used as a mitigation for problems described in {IERC20-approve}. Emits an {Approval} event indicating the updated allowance. Requirements: - `spender` cannot be the zero address. - `spender` must have allowance for the caller of at least `subtractedValue`."
      },
      "deposit(uint256,address)": {
        "details": "See {IERC4626-deposit}. "
      },
      "increaseAllowance(address,uint256)": {
        "details": "Atomically increases the allowance granted to `spender` by the caller. This is an alternative to {approve} that can be used as a mitigation for problems described in {IERC20-approve}. Emits an {Approval} event indicating the updated allowance. Requirements: - `spender` cannot be the zero address."
      },
      "maxMint(address)": {
        "details": "See {IERC4626-maxMint}. "
      },
      "maxRedeem(address)": {
        "details": "See {IERC4626-maxRedeem}. "
      },
      "maxWithdraw(address)": {
        "details": "See {IERC4626-maxWithdraw}. "
      },
      "mint(uint256,address)": {
        "details": "See {IERC4626-mint}. As opposed to {deposit}, minting is allowed even if the vault is in a state where the price of a share is zero. In this case, the shares will be minted without requiring any assets to be deposited."
      },
      "name()": {
        "details": "Returns the name of the token."
      },
      "owner()": {
        "details": "Returns the address of the current owner."
      },
      "previewDeposit(uint256)": {
        "details": "See {IERC4626-previewDeposit}. "
      },
      "previewMint(uint256)": {
        "details": "See {IERC4626-previewMint}. "
      },
      "previewRedeem(uint256)": {
        "details": "See {IERC4626-previewRedeem}. "
      },
      "previewWithdraw(uint256)": {
        "details": "See {IERC4626-previewWithdraw}. "
      },
      "redeem(uint256,address,address)": {
        "details": "See {IERC4626-redeem}. "
      },
      "renounceOwnership()": {
        "details": "Leaves the contract without owner. It will not be possible to call `onlyOwner` functions anymore. Can only be called by the current owner. NOTE: Renouncing ownership will leave the contract without an owner, thereby removing any functionality that is only available to the owner."
      },
      "symbol()": {
        "details": "Returns the symbol of the token, usually a shorter version of the name."
      },
      "totalAssets()": {
        "details": "See {IERC4626-totalAssets}. "
      },
      "totalSupply()": {
        "details": "See {IERC20-totalSupply}."
      },
      "transferOwnership(address)": {
        "details": "Transfers ownership of the contract to a new account (`newOwner`). Can only be called by the current owner."
      },
      "withdraw(uint256,address,address)": {
        "details": "See {IERC4626-withdraw}. "
      }
    },
    "version": 1
  },
  "userdoc": {
    "kind": "user",
    "methods": {},
    "version": 1
  },
  "storageLayout": {
    "storage": [
      {
        "astId": 25464,
        "contract": "contracts/contracts/GTokenV6_3_2.sol:GTokenV6_3_2",
        "label": "_initialized",
        "offset": 0,
        "slot": "0",
        "type": "t_uint8"
      },
      {
        "astId": 25467,
        "contract": "contracts/contracts/GTokenV6_3_2.sol:GTokenV6_3_2",
        "label": "_initializing",
        "offset": 1,
        "slot": "0",
        "type": "t_bool"
      },
      {
        "astId": 26825,
        "contract": "contracts/contracts/GTokenV6_3_2.sol:GTokenV6_3_2",
        "label": "__gap",
        "offset": 0,
        "slot": "1",
        "type": "t_array(t_uint256)50_storage"
      },
      {
        "astId": 26869,
        "contract": "contracts/contracts/GTokenV6_3_2.sol:GTokenV6_3_2",
        "label": "_balances",
        "offset": 0,
        "slot": "51",
        "type": "t_mapping(t_address,t_uint256)"
      },
      {
        "astId": 26875,
        "contract": "contracts/contracts/GTokenV6_3_2.sol:GTokenV6_3_2",
        "label": "_allowances",
        "offset": 0,
        "slot": "52",
        "type": "t_mapping(t_address,t_mapping(t_address,t_uint256))"
      },
      {
        "astId": 26877,
        "contract": "contracts/contracts/GTokenV6_3_2.sol:GTokenV6_3_2",
        "label": "_totalSupply",
        "offset": 0,
        "slot": "53",
        "type": "t_uint256"
      },
      {
        "astId": 26879,
        "contract": "contracts/contracts/GTokenV6_3_2.sol:GTokenV6_3_2",
        "label": "_name",
        "offset": 0,
        "slot": "54",
        "type": "t_string_storage"
      },
      {
        "astId": 26881,
        "contract": "contracts/contracts/GTokenV6_3_2.sol:GTokenV6_3_2",
        "label": "_symbol",
        "offset": 0,
        "slot": "55",
        "type": "t_string_storage"
      },
      {
        "astId": 27461,
        "contract": "contracts/contracts/GTokenV6_3_2.sol:GTokenV6_3_2",
        "label": "__gap",
        "offset": 0,
        "slot": "56",
        "type": "t_array(t_uint256)45_storage"
      },
      {
        "astId": 27482,
        "contract": "contracts/contracts/GTokenV6_3_2.sol:GTokenV6_3_2",
        "label": "_asset",
        "offset": 0,
        "slot": "101",
        "type": "t_contract(IERC20Upgradeable)28896"
      },
      {
        "astId": 27484,
        "contract": "contracts/contracts/GTokenV6_3_2.sol:GTokenV6_3_2",
        "label": "_decimals",
        "offset": 20,
        "slot": "101",
        "type": "t_uint8"
      },
      {
        "astId": 28167,
        "contract": "contracts/contracts/GTokenV6_3_2.sol:GTokenV6_3_2",
        "label": "__gap",
        "offset": 0,
        "slot": "102",
        "type": "t_array(t_uint256)49_storage"
      },
      {
        "astId": 29940,
        "contract": "contracts/contracts/GTokenV6_3_2.sol:GTokenV6_3_2",
        "label": "_owner",
        "offset": 0,
        "slot": "151",
        "type": "t_address"
      },
      {
        "astId": 30060,
        "contract": "contracts/contracts/GTokenV6_3_2.sol:GTokenV6_3_2",
        "label": "__gap",
        "offset": 0,
        "slot": "152",
        "type": "t_array(t_uint256)49_storage"
      },
      {
        "astId": 19489,
        "contract": "contracts/contracts/GTokenV6_3_2.sol:GTokenV6_3_2",
        "label": "lockedDepositNft",
        "offset": 0,
        "slot": "201",
        "type": "t_contract(INft)23925"
      },
      {
        "astId": 19492,
        "contract": "contracts/contracts/GTokenV6_3_2.sol:GTokenV6_3_2",
        "label": "manager",
        "offset": 0,
        "slot": "202",
        "type": "t_address"
      },
      {
        "astId": 19495,
        "contract": "contracts/contracts/GTokenV6_3_2.sol:GTokenV6_3_2",
        "label": "admin",
        "offset": 0,
        "slot": "203",
        "type": "t_address"
      },
      {
        "astId": 19497,
        "contract": "contracts/contracts/GTokenV6_3_2.sol:GTokenV6_3_2",
        "label": "pnlHandler",
        "offset": 0,
        "slot": "204",
        "type": "t_address"
      },
      {
        "astId": 19500,
        "contract": "contracts/contracts/GTokenV6_3_2.sol:GTokenV6_3_2",
        "label": "openTradesPnlFeed",
        "offset": 0,
        "slot": "205",
        "type": "t_contract(IOpenTradesPnlFeed)23936"
      },
      {
        "astId": 19531,
        "contract": "contracts/contracts/GTokenV6_3_2.sol:GTokenV6_3_2",
        "label": "MIN_LOCK_DURATION",
        "offset": 0,
        "slot": "206",
        "type": "t_uint256"
      },
      {
        "astId": 19537,
        "contract": "contracts/contracts/GTokenV6_3_2.sol:GTokenV6_3_2",
        "label": "WITHDRAW_EPOCHS_LOCKS",
        "offset": 0,
        "slot": "207",
        "type": "t_array(t_uint256)dyn_storage"
      },
      {
        "astId": 19539,
        "contract": "contracts/contracts/GTokenV6_3_2.sol:GTokenV6_3_2",
        "label": "maxAccOpenPnlDelta",
        "offset": 0,
        "slot": "208",
        "type": "t_uint256"
      },
      {
        "astId": 19541,
        "contract": "contracts/contracts/GTokenV6_3_2.sol:GTokenV6_3_2",
        "label": "maxDailyAccPnlDelta",
        "offset": 0,
        "slot": "209",
        "type": "t_uint256"
      },
      {
        "astId": 19545,
        "contract": "contracts/contracts/GTokenV6_3_2.sol:GTokenV6_3_2",
        "label": "withdrawLockThresholdsP",
        "offset": 0,
        "slot": "210",
        "type": "t_array(t_uint256)2_storage"
      },
      {
        "astId": 19547,
        "contract": "contracts/contracts/GTokenV6_3_2.sol:GTokenV6_3_2",
        "label": "maxSupplyIncreaseDailyP",
        "offset": 0,
        "slot": "212",
        "type": "t_uint256"
      },
      {
        "astId": 19549,
        "contract": "contracts/contracts/GTokenV6_3_2.sol:GTokenV6_3_2",
        "label": "lossesBurnP",
        "offset": 0,
        "slot": "213",
        "type": "t_uint256"
      },
      {
        "astId": 19551,
        "contract": "contracts/contracts/GTokenV6_3_2.sol:GTokenV6_3_2",
        "label": "maxDiscountP",
        "offset": 0,
        "slot": "214",
        "type": "t_uint256"
      },
      {
        "astId": 19553,
        "contract": "contracts/contracts/GTokenV6_3_2.sol:GTokenV6_3_2",
        "label": "maxDiscountThresholdP",
        "offset": 0,
        "slot": "215",
        "type": "t_uint256"
      },
      {
        "astId": 19555,
        "contract": "contracts/contracts/GTokenV6_3_2.sol:GTokenV6_3_2",
        "label": "shareToAssetsPrice",
        "offset": 0,
        "slot": "216",
        "type": "t_uint256"
      },
      {
        "astId": 19557,
        "contract": "contracts/contracts/GTokenV6_3_2.sol:GTokenV6_3_2",
        "label": "accPnlPerTokenUsed",
        "offset": 0,
        "slot": "217",
        "type": "t_int256"
      },
      {
        "astId": 19559,
        "contract": "contracts/contracts/GTokenV6_3_2.sol:GTokenV6_3_2",
        "label": "accPnlPerToken",
        "offset": 0,
        "slot": "218",
        "type": "t_int256"
      },
      {
        "astId": 19561,
        "contract": "contracts/contracts/GTokenV6_3_2.sol:GTokenV6_3_2",
        "label": "accRewardsPerToken",
        "offset": 0,
        "slot": "219",
        "type": "t_uint256"
      },
      {
        "astId": 19563,
        "contract": "contracts/contracts/GTokenV6_3_2.sol:GTokenV6_3_2",
        "label": "dailyAccPnlDelta",
        "offset": 0,
        "slot": "220",
        "type": "t_int256"
      },
      {
        "astId": 19565,
        "contract": "contracts/contracts/GTokenV6_3_2.sol:GTokenV6_3_2",
        "label": "lastDailyAccPnlDeltaReset",
        "offset": 0,
        "slot": "221",
        "type": "t_uint256"
      },
      {
        "astId": 19568,
        "contract": "contracts/contracts/GTokenV6_3_2.sol:GTokenV6_3_2",
        "label": "currentEpoch",
        "offset": 0,
        "slot": "222",
        "type": "t_uint256"
      },
      {
        "astId": 19571,
        "contract": "contracts/contracts/GTokenV6_3_2.sol:GTokenV6_3_2",
        "label": "currentEpochStart",
        "offset": 0,
        "slot": "223",
        "type": "t_uint256"
      },
      {
        "astId": 19574,
        "contract": "contracts/contracts/GTokenV6_3_2.sol:GTokenV6_3_2",
        "label": "currentEpochPositiveOpenPnl",
        "offset": 0,
        "slot": "224",
        "type": "t_uint256"
      },
      {
        "astId": 19576,
        "contract": "contracts/contracts/GTokenV6_3_2.sol:GTokenV6_3_2",
        "label": "currentMaxSupply",
        "offset": 0,
        "slot": "225",
        "type": "t_uint256"
      },
      {
        "astId": 19578,
        "contract": "contracts/contracts/GTokenV6_3_2.sol:GTokenV6_3_2",
        "label": "lastMaxSupplyUpdate",
        "offset": 0,
        "slot": "226",
        "type": "t_uint256"
      },
      {
        "astId": 19584,
        "contract": "contracts/contracts/GTokenV6_3_2.sol:GTokenV6_3_2",
        "label": "withdrawRequests",
        "offset": 0,
        "slot": "227",
        "type": "t_mapping(t_address,t_mapping(t_uint256,t_uint256))"
      },
      {
        "astId": 19586,
        "contract": "contracts/contracts/GTokenV6_3_2.sol:GTokenV6_3_2",
        "label": "lockedDepositsCount",
        "offset": 0,
        "slot": "228",
        "type": "t_uint256"
      },
      {
        "astId": 19591,
        "contract": "contracts/contracts/GTokenV6_3_2.sol:GTokenV6_3_2",
        "label": "lockedDeposits",
        "offset": 0,
        "slot": "229",
        "type": "t_mapping(t_uint256,t_struct(LockedDeposit)23840_storage)"
      },
      {
        "astId": 19593,
        "contract": "contracts/contracts/GTokenV6_3_2.sol:GTokenV6_3_2",
        "label": "assetsToDeplete",
        "offset": 0,
        "slot": "230",
        "type": "t_uint256"
      },
      {
        "astId": 19595,
        "contract": "contracts/contracts/GTokenV6_3_2.sol:GTokenV6_3_2",
        "label": "totalDeposited",
        "offset": 0,
        "slot": "231",
        "type": "t_uint256"
      },
      {
        "astId": 19597,
        "contract": "contracts/contracts/GTokenV6_3_2.sol:GTokenV6_3_2",
        "label": "totalClosedPnl",
        "offset": 0,
        "slot": "232",
        "type": "t_int256"
      },
      {
        "astId": 19599,
        "contract": "contracts/contracts/GTokenV6_3_2.sol:GTokenV6_3_2",
        "label": "totalRewards",
        "offset": 0,
        "slot": "233",
        "type": "t_uint256"
      },
      {
        "astId": 19601,
        "contract": "contracts/contracts/GTokenV6_3_2.sol:GTokenV6_3_2",
        "label": "totalLiability",
        "offset": 0,
        "slot": "234",
        "type": "t_int256"
      },
      {
        "astId": 19603,
        "contract": "contracts/contracts/GTokenV6_3_2.sol:GTokenV6_3_2",
        "label": "totalLockedDiscounts",
        "offset": 0,
        "slot": "235",
        "type": "t_uint256"
      },
      {
        "astId": 19605,
        "contract": "contracts/contracts/GTokenV6_3_2.sol:GTokenV6_3_2",
        "label": "totalDiscounts",
        "offset": 0,
        "slot": "236",
        "type": "t_uint256"
      },
      {
        "astId": 19607,
        "contract": "contracts/contracts/GTokenV6_3_2.sol:GTokenV6_3_2",
        "label": "totalDepleted",
        "offset": 0,
        "slot": "237",
        "type": "t_uint256"
      },
      {
        "astId": 19609,
        "contract": "contracts/contracts/GTokenV6_3_2.sol:GTokenV6_3_2",
        "label": "totalRefilled",
        "offset": 0,
        "slot": "238",
        "type": "t_uint256"
      },
      {
        "astId": 19611,
        "contract": "contracts/contracts/GTokenV6_3_2.sol:GTokenV6_3_2",
        "label": "accBlockWeightedMarketCap",
        "offset": 0,
        "slot": "239",
        "type": "t_uint256"
      },
      {
        "astId": 19613,
        "contract": "contracts/contracts/GTokenV6_3_2.sol:GTokenV6_3_2",
        "label": "accBlockWeightedMarketCapLastStored",
        "offset": 0,
        "slot": "240",
        "type": "t_uint256"
      }
    ],
    "types": {
      "t_address": {
        "encoding": "inplace",
        "label": "address",
        "numberOfBytes": "20"
      },
      "t_array(t_uint256)2_storage": {
        "base": "t_uint256",
        "encoding": "inplace",
        "label": "uint256[2]",
        "numberOfBytes": "64"
      },
      "t_array(t_uint256)45_storage": {
        "base": "t_uint256",
        "encoding": "inplace",
        "label": "uint256[45]",
        "numberOfBytes": "1440"
      },
      "t_array(t_uint256)49_storage": {
        "base": "t_uint256",
        "encoding": "inplace",
        "label": "uint256[49]",
        "numberOfBytes": "1568"
      },
      "t_array(t_uint256)50_storage": {
        "base": "t_uint256",
        "encoding": "inplace",
        "label": "uint256[50]",
        "numberOfBytes": "1600"
      },
      "t_array(t_uint256)dyn_storage": {
        "base": "t_uint256",
        "encoding": "dynamic_array",
        "label": "uint256[]",
        "numberOfBytes": "32"
      },
      "t_bool": {
        "encoding": "inplace",
        "label": "bool",
        "numberOfBytes": "1"
      },
      "t_contract(IERC20Upgradeable)28896": {
        "encoding": "inplace",
        "label": "contract IERC20Upgradeable",
        "numberOfBytes": "20"
      },
      "t_contract(INft)23925": {
        "encoding": "inplace",
        "label": "contract INft",
        "numberOfBytes": "20"
      },
      "t_contract(IOpenTradesPnlFeed)23936": {
        "encoding": "inplace",
        "label": "contract IOpenTradesPnlFeed",
        "numberOfBytes": "20"
      },
      "t_int256": {
        "encoding": "inplace",
        "label": "int256",
        "numberOfBytes": "32"
      },
      "t_mapping(t_address,t_mapping(t_address,t_uint256))": {
        "encoding": "mapping",
        "key": "t_address",
        "label": "mapping(address => mapping(address => uint256))",
        "numberOfBytes": "32",
        "value": "t_mapping(t_address,t_uint256)"
      },
      "t_mapping(t_address,t_mapping(t_uint256,t_uint256))": {
        "encoding": "mapping",
        "key": "t_address",
        "label": "mapping(address => mapping(uint256 => uint256))",
        "numberOfBytes": "32",
        "value": "t_mapping(t_uint256,t_uint256)"
      },
      "t_mapping(t_address,t_uint256)": {
        "encoding": "mapping",
        "key": "t_address",
        "label": "mapping(address => uint256)",
        "numberOfBytes": "32",
        "value": "t_uint256"
      },
      "t_mapping(t_uint256,t_struct(LockedDeposit)23840_storage)": {
        "encoding": "mapping",
        "key": "t_uint256",
        "label": "mapping(uint256 => struct IGToken.LockedDeposit)",
        "numberOfBytes": "32",
        "value": "t_struct(LockedDeposit)23840_storage"
      },
      "t_mapping(t_uint256,t_uint256)": {
        "encoding": "mapping",
        "key": "t_uint256",
        "label": "mapping(uint256 => uint256)",
        "numberOfBytes": "32",
        "value": "t_uint256"
      },
      "t_string_storage": {
        "encoding": "bytes",
        "label": "string",
        "numberOfBytes": "32"
      },
      "t_struct(LockedDeposit)23840_storage": {
        "encoding": "inplace",
        "label": "struct IGToken.LockedDeposit",
        "members": [
          {
            "astId": 23829,
            "contract": "contracts/contracts/GTokenV6_3_2.sol:GTokenV6_3_2",
            "label": "owner",
            "offset": 0,
            "slot": "0",
            "type": "t_address"
          },
          {
            "astId": 23831,
            "contract": "contracts/contracts/GTokenV6_3_2.sol:GTokenV6_3_2",
            "label": "shares",
            "offset": 0,
            "slot": "1",
            "type": "t_uint256"
          },
          {
            "astId": 23833,
            "contract": "contracts/contracts/GTokenV6_3_2.sol:GTokenV6_3_2",
            "label": "assetsDeposited",
            "offset": 0,
            "slot": "2",
            "type": "t_uint256"
          },
          {
            "astId": 23835,
            "contract": "contracts/contracts/GTokenV6_3_2.sol:GTokenV6_3_2",
            "label": "assetsDiscount",
            "offset": 0,
            "slot": "3",
            "type": "t_uint256"
          },
          {
            "astId": 23837,
            "contract": "contracts/contracts/GTokenV6_3_2.sol:GTokenV6_3_2",
            "label": "atTimestamp",
            "offset": 0,
            "slot": "4",
            "type": "t_uint256"
          },
          {
            "astId": 23839,
            "contract": "contracts/contracts/GTokenV6_3_2.sol:GTokenV6_3_2",
            "label": "lockDuration",
            "offset": 0,
            "slot": "5",
            "type": "t_uint256"
          }
        ],
        "numberOfBytes": "192"
      },
      "t_uint256": {
        "encoding": "inplace",
        "label": "uint256",
        "numberOfBytes": "32"
      },
      "t_uint8": {
        "encoding": "inplace",
        "label": "uint8",
        "numberOfBytes": "1"
      }
    }
  }
}